:020000040800F2
:1000000000200010710C0308C5F601084D3D0008E2
:10001000C3F60108C1F60108BFF6010800000000A0
:10002000000000000000000000000000BDF6010814
:10003000BBF6010800000000B9F60108E935000828
:10004000D90C0308D90C0308D90C0308D90C0308F0
:10005000D90C0308D90C0308C1430008ED4400087B
:10006000B144000875440008394400089DA90008FF
:100070008DA900087DA900086DA900085DA90008E8
:1000800049A9000835A90008D90C0308D90C0308B0
:10009000D5280208D90C0308D90C0308FD43000831
:1000A000CD1F000871240008011F0008ED2500087D
:1000B000B5230008F922000831220008D90C0308F2
:1000C000D90C0308D90C0308D90C0308D90C030870
:1000D000D90C030821370008A53600082936000886
:1000E00083430008D90C0308A9F60108D90C0308BA
:1000F00099200008D90C030865210008D90C0308D1
:10010000000000000000000000000000D90C0308FF
:10011000D90C0308D90C0308A1AC01088DAC010867
:1001200021A900080DA90008F9A80008E5A8000801
:10013000D1A80008D90C030800000000000000004E
:10014000D90C0308D90C0308D90C030800000000DF
:10015000000000000000000000000000000000009F
:100160000000000000000000D90C0308D90C0308AF
:10017000D90C03080000000000000000000000008F
:0801800000000000D90C030887
:10018800704703680A7A591C01601A7070470C4B53
:100198001B78DB0700D570470A4A1368002BFAD092
:1001A8004FF47A7101FB03F39842F4D3064B1B78A2
:1001B8001BB9064B99681B690B60002313607047D5
:1001C80080420020EC390020E03900203034002043
:1001D80030B484B0002340F2012540F2034440F2D9
:1001E800056140F60822ADF804300B23ADF806503F
:1001F800ADF80840ADF80A10ADF80C208DF80E30B7
:1002080088B10A28034615D804AA13440B4A13F8E0
:100218000C1C128801238B40134214BF01200020BC
:1002280004B030BC7047064B187800F0010004B0E9
:1002380030BC704704B030BC29F048BA38460020BA
:1002480080420020D0ED007A90ED017A30EE670A06
:10025800E7EE007AB0EE670AC0ED007A70477047A3
:1002680070B50C4C23689BB15A68821A002A0FDBC0
:100278000546002603E05A68AA1A002A08DB99688E
:100288001E731A682160184690472368002BF2D124
:1002980070BD00BF10220020436A8269D154436AAE
:1002A8000169C26B01338B4228BF002343623AB312
:1002B80070B4EFF31183502282F31288C66B326850
:1002C800D20704D5DBB283F3118870BC704771681C
:1002D80069B9D0E90942944218D085691544F56096
:1002E80018D9A21A72608462002280F858203268F5
:1002F80042F00102DBB2326083F3118870BC7047B0
:10030800426D136843F0800313607047012280F840
:100318005820D7E70469A21A72608162E4E70346AD
:1003280010B4846BD968406954B19A6C8C1A013A3C
:10033800005D5DF8044B08BF0A46C0B29A64704776
:100348001A6A805C01328A4228BF2246C0B21A6209
:100358005DF8044B7047C36B13B190F858007047B1
:10036800D0E90903181AB0FA80F040097047D0E9BB
:1003780009120369914238BFC9188A1AC16B013B37
:1003880019B149680A449A4201D2981A7047002064
:100398007047836B43B1826C5B689A4291BF981A2D
:1003A800C0689B1AC0187047D0E907239A422FBF2C
:1003B800D01AC0688018C01A70470B4B30B503F1CB
:1003C800140493F900205D78072AC8BF143A8118ED
:1003D80004330D7313F8025C855413F8012C0A7664
:1003E8009C42EED130BD00BF101F030803682DE901
:1003F800F0415D6A1DB12B46BDE8F0411847002A5F
:10040800174611DD04460E460F4400E023689B683A
:10041800204698470028F9D0236816F8011B1B6866
:1004280020469847BE42F1D1BDE8F08103681B69B8
:10043800184700232122027043708370C3707047ED
:100448000378012B01D00020704790F90430B3F1F4
:10045800FF3FF8D0022BF6DCF0B4404C03EB8303EB
:1004680004EB83035B68002B60D045793C4E6D003C
:100478004FF42040EDB270609C69270400F1FF3012
:1004880049D45C68374F45F080703C4040F4903068
:1004980020434FF420445860746001E0671C47D043
:1004A800986910F0020004F1FF34F7D04FF42040AF
:1004B80099627060014601E04F1C40D0986910F0C5
:1004C800800001F1FF31F7D05968264845F00075E2
:1004D800014045F480350D434FF420415D60716063
:1004E80001E04C1C2BD0986910F0020001F1FF319B
:1004F800F7D04FF420419A6271600A4602E012F187
:10050800FF3223D3986910F02000F8D020217260C0
:10051800D961012008E0441CAED1134A70601388E9
:1005280001339BB213800020F0BC70471846FBE7EC
:100538000D4A7460138801339BB21380F4E70A4AAA
:100548007160138801339BB21380EDE7064972602E
:100558000B8801339BB20B80E6E700BF9040002078
:1005680010220020009800FC204C002003685A1C30
:100578000260197070472DE9F047089C2578002B18
:10058800804689460CBF4FF0200A4FF0300A661C9F
:1005980025B3002A26DD334601E0024698B113F858
:1005A800011B501E0029F8D1971E60B13D46013D40
:1005B80051464046C8476B1C002BF8DC257827EAD3
:1005C800E770013045B1041B29464046C847301939
:1005D80016F8015B002DF7D1BDE8F087002A03DC8F
:1005E8002846F9E70020EEE7571EDFE70A44914264
:1005F80015D030B40139551E41F2210211F8014FCE
:10060800082380EA042004044CBF82EA400040002A
:10061800013B80B2F7D18D42F0D130BC70477047B2
:100628002DE9F04714461D4606464FF47A7200231A
:100638002046294630F04CF94D4BDFF850814D4AA1
:100648004D4F034488FB03101844D91782FB032C31
:10065800C1EB601088FB002887FB03279C44474AAE
:10066800C1EBEC2CC0EB001E82FB0C29A3EB8E0E19
:100678001F44434A86F806E0C1EB27474FEAEC7E61
:1006880008EB000ACEEBA90E82FB07824FEAE0785E
:100698000EEB4E0EC8EB6A18ACEBCE0CC8EB081884
:1006A800DFF8ECE086F804C0A0EB880070718EFBE0
:1006B8000303F817C0EBE21240F2B55000FB1272C8
:1006C800C1EBE353B2F5896F4FEA83073FDA40F293
:1006D800DA239A4243DCB2F5B77FB4BF4FF0000E7D
:1006E8004FF0010E4FEA4E08264B08EB0E0103EBC4
:1006F800C1031FFA8EFC588D234908EB0E0301EB4A
:10070800C30116310B2301E031F8020D90421BDDC5
:10071800013BF9D11B4BC64403EBCE0E0123BEF8B7
:100728001400B37007F5FA670132121ABC44F2706C
:10073800A6F800C0204629464FF47A72002330F00C
:10074800C7F83281BDE8F0870133DBB2E9E74FF043
:10075800030CE64640F296504FF00608CCE74FF0FF
:10076800020CE64640F229404FF00408C4E700BFF7
:1007780080BC92C7C5B3A29107452EC2ABAAAA2ACC
:1007880073B06D16101F0308241F03088988888812
:10079800792D031130B403888278174DC478A3F5F6
:1007A800FA6303F0030101EB4101013A02EB810214
:1007B80005EB4202611E958A027940F2B5549B0806
:1007C80004FB03132B4403EB430302EBC3034279FB
:1007D80084790A490089C3EB031302EB830321449C
:1007E800C3EB031301EB83034FF47A720021C2FBBE
:1007F800030130BC704700BF101F030880436D38E9
:100808000028F0B403DA2D230B7040420131092887
:1008180004464FF0010307DD03EB83035B00B0FBE5
:10082800F3F2092AF8D883B10F48A0FB0326B4FBDA
:10083800F3F2092A02F1570C02F1300709DD03FB34
:100848001244F30801F801CBEFD100230B70F0BC80
:10085800704703FB1244F30801F8017BE5D100233C
:100868000B70F0BC704700BFCDCCCCCC884270B4C4
:100878004FF0010442D301FB04F4B0FBF4F58D42C0
:10088800F9D2ECB142BB092D04FB150005F157065E
:1008980005F130020EDDB4FBF1F403F8016B7CB115
:1008A800B0FBF4F5092D04FB150005F1570605F119
:1008B8003002F0DCB4FBF1F403F8012B002CEFD18B
:1008C80000221A7070BC704703F8016BB4FBF1F496
:1008D800002CF5D0B0FBF4F5092D04FB150005F14B
:1008E800370605F13002EFDCB4FBF1F403F8012B15
:1008F800002CEFD100221A7070BC70470546002A00
:10090800EAD1C0E790ED057A90ED004AD0ED066A8D
:10091800D0ED014AD0ED047A90ED035AD0ED025A99
:10092800A4EE007AB0EE406AB0EE470AB0EE667AFE
:10093800A4EE867A67EEC07AA5EE407AE5EE867A6E
:1009480080ED057AC0ED067A7047D0ED057A90ED16
:10095800013AD0ED003AD0ED064A90ED024A90ED0A
:10096800077A90ED035A90ED086AD0ED045AC0ED6D
:10097800067AF0EE406A27EE830AC0ED056AA3EE18
:10098800A60A80ED087AA4EE240AA5EE470AA5EE89
:10099800C60A80ED070A704780ED010A704707EE26
:1009A800900ADFED056AB8EEE77AC6EE877A77EE49
:1009B800807A80EE270A704783F9223E704730B468
:1009C80002681146531C036011F8024B0160D31CE6
:1009D800517803609378151D05601B0443EA0123D1
:1009E800D078234343EA006030BC704706224FF4B6
:1009F8007A7302704360704710B40B4C042321468D
:100A0800002203E001320B2A0AD08B7913F001038C
:100A180001F11C01F6D0C2EBC20204EB8202137989
:100A280003705DF8044B7047F0450308F0B40024E8
:100A3800134F0472461E0020114A0346E5B20421F2
:100A480003E001330B2B0CD0917911F0020F02F166
:100A58001C02F6D085420CD0013301300B2BC0B2FA
:100A6800F2D100230134082C06F8013FE3D1F0BC91
:100A78007047C3EBC30307EB83031B79F2E700BF9F
:100A8800F0450308012380F857307047437F3BB196
:100A9800012B04D100220823027543757047704763
:100AA800042203754275704770B4D0E90041057B94
:100AB80002690223AB4063600B684FF6FE70034087
:100AC8000B60EFF31183502181F31288D66B3168E4
:100AD800C9071CD4706870B9D2E909418C4213D097
:100AE80095690D44F56017D81469611A71609062B0
:100AF800002182F85810326842F00102DBB23260FD
:100B080083F3118870BC7047012182F85810DBB25A
:100B180083F3118870BC7047611A71609462E7E7CB
:100B280070B40468037B2268022101FA03F31A42B5
:100B380017D002691249134802EB420201EB421234
:100B480005785068016875B9C568528928684FF6F4
:100B5800FE7630402860C868D24392B20240CA602C
:100B6800636070BC7047406902684FF6FE752A40A2
:100B78000260CA684FF6FF600240CA60F0E700BF33
:100B88001C6E0020186E0020F8B5322204460021A1
:100B9800023031F04CF9144F002223460521042578
:100BA8001046D65D9E700132062AD9701D71987163
:100BB800597103F10803F4D101230C4A238000235F
:100BC80002EBC30191F90210012908D00133062B69
:100BD800F6D1522384F8323064232386F8BD4021AD
:100BE80022F83310F5E700BF902B0308D4860020C5
:100BF80010B427212624012200230470417082703A
:100C0800C3705DF8044B704730B50446406D2171E0
:100C18000368A26823F00103036087B06379009238
:100C280013F0040F4FEA03324FEA032314BF4FF4C3
:100C38008055002503F4806302F400520195CDE944
:100C48000223002511F0010305952ED104930823F2
:100C58008D07694648BF04931FF03AFA2079636DFF
:100C6800617900F00202002A15BF4FF440324FF4B8
:100C780080324FF40034002410F0010F586808BF88
:100C88002246CC074CBF024320EA02025A609A6807
:100C980009074CBF42F0080222F008029A601A685D
:100CA80042F001021A6007B030BD042304930C23FC
:100CB800CEE730B50446406DA160036823F0010318
:100CC80003606379257987B013F0040F4FEA033284
:100CD8004FEA032303F4806302F40052CDE90223B0
:100CE800009114BF4FF480510021EB0748BF042343
:100CF80001914FF00001CDE9041154BF082304937A
:100D0800694648BF0C23AD0748BF04931FF0E0F9BC
:100D18002079636D617900F00202002A15BF4FF453
:100D280040324FF480324FF40034002410F0010FA9
:100D3800586808BF2246CC074CBF024320EA02028B
:100D48005A609A6809074CBF42F0080222F008026C
:100D58009A601A6842F001021A6007B030BD012398
:100D6800102112224170427103720370037170479F
:100D7800024B1A7A597A0DF007BF00BF10220020E3
:100D880008B527F0A3FD084B9B7A4BB1012B06D180
:100D98000649074B0748084A0860DA60FEE7FDE79E
:100DA800034B054ADA60F9E710220020FC9F002077
:100DB80000ED00E0EFBEADDE0400FA0538B50E4BDD
:100DC8001B78044600F1250543B9284614220B492F
:100DD80031F06BF8012384F83A3038BD0422084911
:100DE800203031F062F828461422064931F05DF8C7
:100DF800012384F83A3038BD284C0020904A030873
:100E0800B87D0020A07D002070B544880546C4F355
:100E18000B04224608460E46002131F008F82B69DB
:100E2800094A934202D3094A934205D35BB121464A
:100E38003046BDE870401847224630461946BDE89E
:100E4800704030F0D0BF70BD549103087892030809
:100E58002DE9F341056906460F467DBBD0F80080B1
:100E6800C8F30A0323B30023D6F8008001932CF0BB
:100E78002BFB042819D1224C236943F00103236179
:100E8800BBB2A8F800302CF01FFB04282ED108F1C3
:100E980002030193019B3F0C1F802CF015FB236973
:100EA800042823F00103236125D06FF0010505E034
:100EB8002CF00AFB042805D04FF0FF35284602B075
:100EC800BDE8F0810E4C236943F002032361C4F8A6
:100ED8001480236943F0400323612CF0F5FA236959
:100EE800042823F002032361BDD0E5E7236923F03A
:100EF80001032361D9E7336804333360DEE700BFB9
:100F080000200240F8B504460D468E180027B54269
:100F180001D12069F8BDE368591CE160234415F844
:100F2800012B1A720429F2D1A1682046FFF790FF1D
:100F3800C4E90370EBE710B504462DED028BD0F839
:100F48003001B0EE408A29F070FDD4ED047AF0EE5D
:100F5800405A94ED050A37EEC00AF5EE405A30EED5
:100F6800270AF1EE10FA84ED040A84ED050A05D08B
:100F7800F5EE407AF1EE10FA40F0AE805F4BF7EEF6
:100F8800007AF0EE676AC3ED037A94ED017AD4ED46
:100F9800037A94ED026AE7EE267A04F59A71084618
:100FA80078EE404A37EE866AB0EE677A87EE065AE0
:100FB800F7EE007A77EEC57AA4EE850A67EE877AAF
:100FC80084ED040AC4ED037AFFF73CF9D4F82C3118
:100FD8002268D4ED477A94ED497A84ED040A04EB4B
:100FE80083000133934280ED068AC4F82C3124BF74
:100FF8000023C4F82C3104EB830393ED066A94EDC7
:101008004A5A3F483F4AE8EE087A137838EE077A9A
:10101800C4ED477A84ED497A37EE467AE6EE467AA9
:1010280027EE056A84ED497A26EE467AC4ED477ABA
:10103800A7EE857A84ED486AB5EEC07AF1EE10FA2B
:10104800F0EE477AD8BFF1EE477AB1EEE76A90ED55
:10105800007AC4ED467A67EE067AC4ED027A73B177
:10106800F5EE405AF1EE10FA0CD1D4F83031022BDB
:1010780009BF002394ED040A94ED040A1370BDEC33
:10108800028B10BDD4ED4F7AF4EE657AF1EE10FACA
:10109800EBD0DFED1D7A94ED500A66EEA76AFDEEFF
:1010A800E67A17EE903AB3F5FA7FA8BF4FF4FA73D1
:1010B8000A2BB8BF0A2307EE903AF8EEE76AFCEE6F
:1010C800E66A16EE903A98B2FFF769FC0846FFF711
:1010D80063FCC4ED4F5AC8E785EEA77A074BF7EED5
:1010E800006A76EEC76AF5EEC06AF1EE10FAD8BF6C
:1010F800F1EE666AC3ED036A47E700BF10220020DD
:1011080058200020D450002000008C4238B52C22F2
:10111800002130F08CFE0346642140F2DC5240F29C
:10112800022019745A821321202240F21A4540F2F3
:101138006C74188399760E2002211A7701229D82F9
:10114800DC8240F2753540F6430483F822001972B8
:1011580083F82A109A7383F82920DD831C841946A2
:101168000248BDE8384011F0C9BD00BF984A0308DD
:101178001B4B1B6870B56BBB1A4B1D784DB31A4AD5
:101188001A4B11784FF4987202FB053540F20D3670
:1011980010E058681C894460046844F00104046045
:1011A800A2F84860D06803F5987340F48070AB42A9
:1011B800D0600ED01A680029EBD15162B3F82C0127
:1011C800D4682043D06003F5987323F8041CAB421D
:1011D800F0D170BD18F06AFE0028CDD170BD00BFF7
:1011E8001C34002024730020186E0020287300206F
:1011F80010B5094A002352F83310884202EBC304A1
:1012080003D00133062BF6D110BD0021C162A180A5
:1012180042F83310F8E700BF0887002038B1038888
:1012280013EA010003D08B420CBF01200220704753
:1012380070B50B4C0B4D0023062BDAB202D1237488
:1012480000200AE05E1C05EBC30135F8333001329B
:101258001842D2B202D00846227470BD3346EBE77A
:1012680010220020D486002017280AD800EB40005E
:10127800054B13F8200028B10123013803FA00F0C8
:1012880070470020704700BFD424030810B44C09ED
:10129800012250F8243001F01F0102FA01F10B433A
:1012A80040F824305DF8044B704710B40B4C002113
:1012B80022460B4603E00133292B0BD0117A8842D2
:1012C80002F10C02F7D103EB430304EB83005DF852
:1012D800044B704700205DF8044B7047841F0308D7
:1012E80010B40B4C00222146134604E00133292B8D
:1012F8000AD011F80C2F9042F8D103EB430304EB0A
:1013080083005DF8044B704700205DF8044B70477C
:10131800841F030803685A1C026018787047024A41
:101328001368184310607047344600205C4B5D48D2
:101338002DE9F041542201245B4E1C70002130F04D
:1013480076FD5A4A5A495B4D002330460B601360BC
:101358001CF038F9214620461CF082F92146062067
:101368001CF07EF96F79544B391C1A8E534B93FB42
:10137800F2F318BF0121642BB8BF64230820C6F814
:1013880048311CF06DF995F8068018F100014FF00E
:10139800090018BF01211CF063F9AB7A002B4AD071
:1013A800474C002F51D118F1000118BF0121454DBC
:1013B8000A201CF055F92B68D90748D49A0761D43C
:1013C800012105201CF04CF9002107201CF048F9E8
:1013D80001210B201CF044F921684B0543D411F47A
:1013E800802104D0384B1968003118BF01210D2025
:1013F8001CF036F921680E20C1F3C0611CF030F9E9
:10140800012113201CF02CF901210F201CF028F9D0
:10141800012110201CF024F9012111201CF020F9D1
:101428002A4B196800314FF0120018BF0121BDE89E
:10143800F0411CF015B9EB7A214C002BB1D1216891
:1014480011F48021B3D0002FADD00121AFE7204B9C
:101458001B68642BB8BF642301210220B3671CF00A
:10146800FFF82B68AAE701210C201CF0F9F8194BAA
:1014780021681B7A083B012B9CBF4FF4FA63C6F81E
:101488008032ACE7012103201CF0EAF84FF47A73AC
:1014980001210420C6F8AC301CF0E2F890E700BF48
:1014A800BC3A0020683A0020D01A0020C03A002038
:1014B800643A0020107D0020D486002040420F00AE
:1014C800F06B0020444600206C430020E4480020D4
:1014D800305F0020AC7C002038B5274A27481378B5
:1014E80052782749274D284C03EB830303EB8303EA
:1014F80002EBC20200EB830301EB42022B60226085
:1015080028F046F9302200212048214C30F08FFC89
:10151800286826F059F91F4A1F4B10791F4A626143
:101528006421C82211FB00210022C3E90112C3E98A
:101538000322C3E90522DA6183F8202083F82120F9
:1015480010F086FF238BDFED166A617F227F07EE9E
:10155800103A638B07EE903AB8EEC77AF8EEE77A5E
:10156800104B27EE267A67EEA67A19725A7283ED27
:10157800017AC3ED007A38BD907D00201A2500203D
:10158800742600203C46002040460020103A0020E7
:101598001022002028500020844200203A2F0020EA
:1015A80017B7D138E84B00202DE9F843114DDFF883
:1015B8005080114E05F14009414605F145070422C6
:1015C800484630F072FC31461422384630F06DFC43
:1015D8000A4B01244946042240461C7085F85A40AB
:1015E80030F063FC14223946304630F05EFC204669
:1015F800BDE8F88310220020A07D0020284C0020A0
:10160800B87D00202DE9F84F4FF4A0720021DFF8D3
:1016180018827B487B4C7C4E7C4FDFF81092DFF8B9
:1016280010A230F004FC7A497A48DFF808C2DFF8E3
:1016380008E208F59A7245462B688B4200F0B7809D
:10164800B3F1804F00F0BA80A34200F0BE80B342ED
:1016580000F0C980BB4200F0C880634500F0C78035
:10166800734500F09D804B4500F0C380534500F062
:10167800C380DFF8C8B15B4508BF4FF4802B00F08A
:1016880091801C35AA42D7D1634F644E4FF0030AAC
:101698004FF0020998F80630002B7AD098F80430F9
:1016A8001C09013C052C03F00F0372D837F814000D
:1016B80040FA03F2D2076CD54FF0010B0BFA03F393
:1016C800013B18402FF054F9554B1B5D184416EB9D
:1016D800C0045ED056F83030524898F8081003F12C
:1016E8003842920A825C02F01F005209022A0BFA61
:1016F80000FB72D0032A6AD0012A04D14548426906
:101708004BEA02024261B4F804C0BCFA8CF2C2F19E
:101718001F0292B2D00803EB800002F00702046AAD
:1017280092004FF00F0E0EFA02FE24EA0E04046235
:10173800046A01FA02F2224302624FF0010E00220B
:101748000EFA02F434EA0C0120D15000D3F808B0A4
:101758000AFA00F1C9430BEA010BC3F808B0D3F841
:1017680008B0C3F808B0B3F804B02BEA04049C80AE
:101778009C88A4B29C801C680C401C601C6809FAF8
:1017880000F020431860D8680140D9600132102A5F
:10179800D6D108F11C0845457FF47CAFBDE8F88F29
:1017A8004FF4005B836943EA0B03836169E783694C
:1017B8004FF4006B43EA0B03836162E70123D0F81F
:1017C8001CB043EA0B03C3615BE70223F7E7114848
:1017D800C2694BEA0202C26195E70E4882694BEA88
:1017E800020282618FE70423E9E71023E7E7202359
:1017F800E5E74FF4803BD5E74FF4003BD2E700BF65
:10180800EC67002000040040000800400010004081
:10181800002C014000100240584703081C710020AA
:10182800E8450308E0450308F04503080040014087
:1018380000440140001400400034014000480140C9
:1018480000B9704703682DE9F04F03F138449C4E06
:10185800A40A0125345D04F01F066409022C05FA68
:1018680006F500F07481032C00F06C81012C00F067
:1018780022818088B0FA80F4C4F11F04A4B2E5087C
:1018880003EB850504F007042E6AA4000F27A74080
:1018980026EA07062E622E6A01F00307A2407C1E84
:1018A8003243012CC1F3810EC1F300182A62C1F33F
:1018B800411140F20981C6070BD51A6822F00302CC
:1018C8001A601A683A431A60DA6822F003020A4377
:1018D800DA6085070DD51A6822F00C021A601A68BA
:1018E80042EA87021A60DA6822F00C0242EA8102B0
:1018F800DA6044070DD51A6822F030021A601A68B7
:1019080042EA07121A60DA6822F0300242EA01124B
:10191800DA6002070DD51A6822F0C0021A601A6848
:1019280042EA87121A60DA6822F0C00242EA81129B
:10193800DA60C6060DD51A6822F440721A601A6871
:1019480042EA07221A60DA6822F4407242EA012267
:10195800DA6085060DD51A6822F440621A601A68A2
:1019680042EA87221A60DA6822F4406242EA812257
:10197800DA6044060DD51A6822F440521A601A68D3
:1019880042EA07321A60DA6822F4405242EA013227
:10199800DA6002060DD51A6822F440421A601A6805
:1019A80042EA87321A60DA6822F4404242EA813217
:1019B800DA60C6050DD51A6822F440321A601A6832
:1019C80042EA07421A60DA6822F4403242EA0142E7
:1019D800DA6085050DD51A6822F440221A601A6863
:1019E80042EA87421A60DA6822F4402242EA8142D7
:1019F800DA6044050DD51A6822F440121A601A6894
:101A080042EA07521A60DA6822F4401242EA0152A6
:101A1800DA6002050DD51A6822F440021A601A68C5
:101A280042EA87521A60DA6822F4400242EA815296
:101A3800DA60C6040DD51A6822F040721A601A6876
:101A480042EA07621A60DA6822F0407242EA0162EA
:101A5800DA6085040DD51A6822F040621A601A68A7
:101A680042EA87621A60DA6822F0406242EA8162DA
:101A7800DA6044040DD51A6822F040521A601A68D8
:101A880042EA07721A60DA6822F0405242EA0172AA
:101A9800DA6002040DD51A6822F040421A601A680A
:101AA80042EA87771F60DA6822F0404242EA817191
:101AB800D960BDE8F08F034C666935436561D8E6A7
:101AC800E04503080010024000224FF0010C4FF0DF
:101AD80003090CFA02F636EA00042ED15400D3F8B2
:101AE80008A009FA04F5ED4305EA0A0AC3F808A0B4
:101AF800D3F808B00EFA04FA4AEA0B0AC3F808A0A9
:101B0800B3F804A02AEA06069E80B3F804A008FAEF
:101B180002F646EA0A06B6B29E801E682E401E608D
:101B2800D3F800A007FA04F646EA0A061E60DE6843
:101B380001FA04F435402C43DC600132102AC8D184
:101B4800BDE8F08F044CE6693543E56191E6024C47
:101B5800A6693543A5618CE60010024003682DE9AB
:101B6800F04F03F13845A94EAD0A0124755D05F023
:101B78001F066D09022D04FA06F400F08D81032D6D
:101B880000F08581012D00F03B818088B0FA80F457
:101B9800C4F11F04A4B2E50803EB850504F00704AB
:101BA8002E6AA4000F27A74026EA07062E622E6A8F
:101BB80001F0030702FA04F47A1E3443012AC1F340
:101BC800810EC1F300182C62C1F3411140F2228149
:101BD800C60700F10881850700F1F680440700F187
:101BE800E480020700F1D280C60600F1C0808506B5
:101BF80000F1AE80440600F19C80020600F18A8064
:101C0800C60578D4850567D4440556D4020545D45D
:101C1800C60434D4850423D4440412D4020401D461
:101C2800BDE8F08F1A6822F040421A601A6842EA4A
:101C380087771F60DA6822F0404242EA8171D960F2
:101C4800EEE71A6822F040521A601A6842EA0772F0
:101C58001A60DA6822F0405242EA0172DA60DDE77F
:101C68001A6822F040621A601A6842EA87621A60AB
:101C7800DA6822F0406242EA8162DA60CCE71A68E8
:101C880022F040721A601A6842EA07621A60DA683B
:101C980022F0407242EA0162DA60BBE71A6822F475
:101CA80040021A601A6842EA87521A60DA6822F417
:101CB800400242EA8152DA60AAE71A6822F4401226
:101CC8001A601A6842EA07521A60DA6822F4401267
:101CD80042EA0152DA6099E71A6822F440221A604F
:101CE8001A6842EA87421A60DA6822F4402242EA15
:101CF8008142DA6088E71A6822F440321A601A686A
:101D080042EA07421A60DA6822F4403242EA0142A3
:101D1800DA6077E71A6822F440421A601A6842EAE1
:101D280087321A60DA6822F4404242EA8132DA6085
:101D380066E71A6822F440521A601A6842EA0732C3
:101D48001A60DA6822F4405242EA0132DA6054E753
:101D58001A6822F440621A601A6842EA87221A60F6
:101D6800DA6822F4406242EA8122DA6042E71A68BD
:101D780022F440721A601A6842EA07221A60DA6886
:101D880022F4407242EA0122DA6030E71A6822F04F
:101D9800C0021A601A6842EA87121A60DA6822F0EA
:101DA800C00242EA8112DA601EE71A6822F03002A5
:101DB8001A601A6842EA07121A60DA6822F03002DA
:101DC80042EA0112DA600CE71A6822F00C021A6083
:101DD8001A6842EA87021A60DA6822F00C0242EABC
:101DE8008102DA60FAE61A6822F003021A601A68B9
:101DF8003A431A60DA6822F003020A43DA60EAE634
:101E0800034D6E6934436C61BFE600BFE0450308CB
:101E18000010024000224FF0010C4FF003090CFAA9
:101E280002F636EA00042ED15400D3F808A009FAC5
:101E380004F5ED4305EA0A0AC3F808A0D3F808B088
:101E48000EFA04FA4AEA0B0AC3F808A0B3F804A089
:101E58002AEA06069E80B3F804A008FA02F646EAC3
:101E68000A06B6B29E801E682E401E60D3F800A0F7
:101E780007FA04F646EA0A061E60DE6801FA04F468
:101E880035402C43DC600132102AC8D1C8E6054D24
:101E9800EE693443EC6178E6024DAE693443AC61D7
:101EA80073E600BF0010024010B50409013C052C80
:101EB80017D80E4B33F8142000F00F0042FA00F345
:101EC80013F001030FD0012303FA00F0013810408A
:101ED8002EF04EFD064A074B125D104403EBC0007E
:101EE80010BD002010BD184610BD00BF584703089C
:101EF800E84503081C7100202DE9F8432F4D2A6995
:101F0800EB6812EA030826D02D4E4FF00047B8FAC6
:101F180088F327FA03F2D2431B3B2A6108EA020836
:101F2800042B15D8DFE803F0372D23190300D6F862
:101F38003C31002B39D1EB6A1FFA83F9D6F83841C6
:101F480034B123682046494698476468002CF8D184
:101F5800B8F1000FDBD1BDE8F883D6F81801696B3A
:101F6800036889B29847B8F1000FD0D1F3E7D6F8E3
:101F78001C01A96B036889B29847B8F1000FC6D154
:101F8800E9E7D6F82001E96B036889B29847B8F108
:101F9800000FBCD1DFE7D6F82401296C036889B2A9
:101FA8009847B8F1000FB2D1D5E703F1FF39002304
:101FB8001FFA89F9C6F83C31C0E700BF0048014064
:101FC800EC6700202DE9F8432F4D2A69EB6812EAE7
:101FD800030826D02D4E4FF00047B8FA88F327FAA9
:101FE80003F2D2431B3B2A6108EA0208042B15D8E6
:101FF800DFE803F0372D23190300D6F8EC30002B67
:1020080039D1EB6A1FFA83F9D6F8E84034B123686E
:102018002046494698476468002CF8D1B8F1000F6B
:10202800DBD1BDE8F883D6F8C800696B036889B2CC
:102038009847B8F1000FD0D1F3E7D6F8CC00A96BD8
:10204800036889B29847B8F1000FC6D1E9E7D6F816
:10205800D000E96B036889B29847B8F1000FBCD18A
:10206800DFE7D6F8D400296C036889B29847B8F13D
:10207800000FB2D1D5E703F1FF3900231FFA89F920
:10208800C6F8EC30C0E700BF00400140EC67002014
:102098002DE9F8432F4D2A69EB6812EA030826D088
:1020A8002D4E4FF00047B8FA88F327FA03F2D243CF
:1020B8001B3B2A6108EA0208042B15D8DFE803F065
:1020C800372D23190300D6F8C430002B39D1EB6A19
:1020D8001FFA83F9D6F8C04034B123682046494630
:1020E80098476468002CF8D1B8F1000FDBD1BDE83F
:1020F800F883D6F8A000696B036889B29847B8F1ED
:10210800000FD0D1F3E7D6F8A400A96B036889B211
:102118009847B8F1000FC6D1E9E7D6F8A800E96BEF
:10212800036889B29847B8F1000FBCD1DFE7D6F849
:10213800AC00296C036889B29847B8F1000FB2D196
:10214800D5E703F1FF3900231FFA89F9C6F8C4302F
:10215800C0E700BF00340140EC6700202DE9F843D8
:102168002F4D2A69EB6812EA030826D02D4E4FF04E
:102178000047B8FA88F327FA03F2D2431B3B2A61D7
:1021880008EA0208042B15D8DFE803F0372D2319D5
:102198000300D6F8C430002B39D1EB6A1FFA83F953
:1021A800D6F8C04034B12368204649469847646849
:1021B800002CF8D1B8F1000FDBD1BDE8F883D6F8D0
:1021C800A000696B036889B29847B8F1000FD0D1B5
:1021D800F3E7D6F8A400A96B036889B29847B8F169
:1021E800000FC6D1E9E7D6F8A800E96B036889B201
:1021F8009847B8F1000FBCD1DFE7D6F8AC00296CDE
:10220800036889B29847B8F1000FB2D1D5E703F156
:10221800FF3900231FFA89F9C6F8C430C0E700BFA8
:1022280000340140EC6700202DE9F8432E4D2A695F
:10223800EB6812EA030826D02C4E4FF00047B8FA94
:1022480088F327FA03F2D2431B3B2A6108EA020803
:10225800042B15D8DFE803F0352B22190300D6F834
:102268009C30002B37D1EB6A1FFA83F9D6F89840D7
:1022780034B123682046494698476468002CF8D151
:10228800B8F1000FDBD1BDE8F883B06F696B036864
:1022980089B29847B8F1000FD1D1F4E7F06FA96B74
:1022A800036889B29847B8F1000FC8D1EBE7D6F8B0
:1022B8008000E96B036889B29847B8F1000FBED176
:1022C800E1E7D6F88400296C036889B29847B8F129
:1022D800000FB4D1D7E703F1FF3900231FFA89F9BA
:1022E800C6F89C30C2E700BF00080040EC67002039
:1022F8002DE9F8432B4D2A69EB6812EA030824D02C
:10230800294E4FF00047B8FA88F327FA03F2D24370
:102318001B3B2A6108EA0208042B13D8DFE803F004
:10232800322920170300736F002B34D1EB6A1FFA90
:1023380083F9346F34B12368204649469847646866
:10234800002CF8D1B8F1000FDDD1BDE8F883306D6D
:10235800696B036889B29847B8F1000FD3D1F4E7E5
:10236800706DA96B036889B29847B8F1000FCAD19C
:10237800EBE7B06DE96B036889B29847B8F1000FD5
:10238800C1D1E2E7F06D296C036889B29847B8F1CA
:10239800000FB8D1D9E703F1FF3900231FFA89F9F3
:1023A8007367C6E700040040EC6700202DE9F84396
:1023B8004FF080452A69EB6812EA030824D0294EB9
:1023C8004FF00047B8FA88F327FA03F2D2431B3BD1
:1023D8002A6108EA0208042B13D8DFE803F032293F
:1023E80020170300F36C002B34D1EB6A1FFA83F932
:1023F800B46C34B123682046494698476468002C79
:10240800F8D1B8F1000FDDD1BDE8F883B06A696B87
:10241800036889B29847B8F1000FD3D1F4E7F06A9E
:10242800A96B036889B29847B8F1000FCAD1EBE7E6
:10243800306BE96B036889B29847B8F1000FC1D1D6
:10244800E2E7706B296C036889B29847B8F1000F0E
:10245800B8D1D9E703F1FF3900231FFA89F9F364EA
:10246800C6E700BFEC6700202DE9F8435A4D2A69FA
:10247800EB6812EA030825D0584E4FF00047B8FA27
:1024880088F327FA03F2D2431B3B2A6108EA0208C1
:10249800042B14D8DFE803F04A41382F0300736A8D
:1024A800002B40F09280EB6A1FFA83F9346A34B14A
:1024B80023682046494698476468002CF8D1B8F14B
:1024C800000FDCD1464D2A69EB6812EA03084AD0AE
:1024D800424E4FF00047B8FA88F327FA03F2D24386
:1024E8001B3B2A6108EA0208042B39D8DFE803F00D
:1024F8005B51473D27003068696B036889B298478C
:10250800B8F1000FBBD1DDE77068A96B036889B229
:102518009847B8F1000FB2D1D4E7B068E96B036807
:1025280089B29847B8F1000FA9D1CBE7F068296CB8
:10253800036889B29847B8F1000FA0D1C2E7D6F86E
:102548001431002B39D1EB6A1FFA83F9D6F8104100
:1025580034B123682046494698476468002CF8D16E
:10256800B8F1000FB7D1BDE8F883D6F8F000696B71
:10257800036889B29847B8F1000FACD1F3E7D6F8F1
:10258800F400A96B036889B29847B8F1000FA2D18B
:10259800E9E7D6F8F800E96B036889B29847B8F11B
:1025A800000F98D1DFE7D6F8FC00296C036889B2E0
:1025B8009847B8F1000F8ED1D5E703F1FF39002312
:1025C8001FFA89F9C6F81431C0E703F1FF3900236F
:1025D8001FFA89F9736269E7002C0140EC67002053
:1025E800004401402DE9F8432B4D2A69EB6812EAB3
:1025F800030824D0294E4FF00047B8FA88F327FA89
:1026080003F2D2431B3B2A6108EA0208042B13D8C1
:10261800DFE803F0322920170300736A002B34D156
:10262800EB6A1FFA83F9346A34B1236820464946B5
:1026380098476468002CF8D1B8F1000FDDD1BDE8E7
:10264800F8833068696B036889B29847B8F1000F5E
:10265800D3D1F4E77068A96B036889B29847B8F1D9
:10266800000FCAD1EBE7B068E96B036889B29847F5
:10267800B8F1000FC1D1E2E7F068296C036889B2AC
:102688009847B8F1000FB8D1D9E703F1FF39002313
:102698001FFA89F97362C6E7002C0140EC67002035
:1026A800F0B50668504CB30AA34200F0848061D9A3
:1026B8004E4CA34200F0828074D94D4CA34268D09E
:1026C8000134A34255D107254FF49C7790F805C0F3
:1026D80002232CFA03F084468340A800002970D016
:1026E800D6F80CE044190CEB440C9BB2414C43EA7D
:1026F8000E030CF1040E44F82C1044F82E20F3605D
:10270800E319EFF31181502282F31288421904EB86
:10271800C202D2F810C0BCF1000F03D044F807C0C1
:1027280013690433421904EBC202576917B11F60D9
:1027380053690433421904EBC202976917B11F6049
:1027480093690433421904EBC202D76917B11F60B9
:10275800D36904330022C9B21A6081F3118828446E
:1027680004EBC004236AC3B9F3684FF6FE72134042
:10277800F360F0BD4A3CA3421AD00134A34205D00D
:10278800B3F5801FF5D1012548279FE70325982732
:102798009CE706254FF4887798E7F36843F0010330
:1027A800F360F0BD033CA342E3D10425C0278DE7C5
:1027B800022570278AE70025202787E70525E827CF
:1027C80084E7D6F80CE00B4CDB439BB203EA0E031C
:1027D80000EB050E0CEB4E0CF3600CF1040344F80F
:1027E8002C1044F823208BE74B00100050001000F9
:1027F80051001000EC67002030B503685A4D188866
:102808005A4CB4FBF2F20139013AAB4294B283B0AC
:1028180089B282B20DD0564883420AD0B3F1804FB4
:1028280007D0A0F59830834203D000F5806083423A
:1028380002D122F0700292B24E4883426AD000F56B
:102848008060834241D022F4407200F58C3092B20D
:1028580083421A80D9621C8565D100221A8601221A
:102868005A611A88404942F001028B421A806AD0A4
:10287800B3F1804F69D0404A934268D002F5806234
:10288800934266D002F50062934264D002F58062FA
:10289800934262D002F59032934260D002F54062D2
:1028A80093425ED002F58062934217D002F58062AF
:1028B800934208BF092212D002A84FF0012340F822
:1028C800043D1DF015F903B030BD01201A80D9620E
:1028D8001C8558611A8802431A80C9E70822274BC9
:1028E80003EBC20301A893F865428DF80440012365
:1028F80000228DF805308DF807308DF806201DF080
:10290800F7F81B2CDFD11E4B019301A81DF0F0F83E
:1029180003B030BD01201A80D9621C8558611A881D
:1029280002431A80A7E7124A934296D002F5406202
:10293800934292D002F5806293428ED002F5806273
:1029480093428AD08BE70022C9E70122C7E7022217
:10295800C5E70322C3E70422C1E70522BFE7062231
:10296800BDE70722BBE700BF002C014000A24A04D4
:10297800003401400010004000040040101F03080C
:1029880019010001204B98422DD0B0F1804F2CD076
:10299800A3F5943398422AD003F58063984228D04F
:1029A80003F50063984226D003F58063984224D04B
:1029B80003F59033984222D003F54063984220D023
:1029C80003F58063984207D003F58063984208BFF7
:1029D800092202D00020704708220C4B03EBC203E7
:1029E80093F8640270470022F7E70122F5E7022214
:1029F800F3E70322F1E70422EFE70522EDE70622D9
:102A0800EBE70722E9E700BF002C0140101F03088D
:102A1800C0B110B40C4C2E212246002300E01179DD
:102A2800884202F11C0206D001330B2BF7D100209B
:102A38005DF8044B7047C3EBC30304EB83005DF8F8
:102A4800044B7047704700BFF04503082DE9F04F6D
:102A5800013085B0C3B20393994C9A4FDFF874A242
:102A6800994D9A4E0A23029329F086FD4FF4FA7382
:102A7800DFF86CE201934FF01008DAF80430C3F382
:102A88000803002B40F0D980EFF31183002B40F0AE
:102A9800D4802068AA6823689842FAD133689A4299
:102AA800F7D8D7F800C04FF47A7101FB0CF39B1AE2
:102AB800B3FBFCF301FB00304FF47A7C4FF00109C3
:102AC800DAF80430C3F30803002B40F09880EFF3E2
:102AD8001183002B40F093802368A96822689342F1
:102AE800FAD132689142F7D83A680CFB02FBABEB9B
:102AF8000101B1FBF2F10CFB03131B1AB3F57A7F4A
:102B0800DED3019B013B0193B7D1039829F088FBE1
:102B18004FF47A73DFF8C8E101934FF01008DAF840
:102B28000430C3F30803002B40F0A880EFF31183AF
:102B3800002B40F0A3802068AA6823689842FAD145
:102B480033689A42F7D8D7F800C04FF47A7101FB7E
:102B58000CF39B1AB3FBFCF301FB00304FF47A7CB7
:102B68004FF00109DAF80430C3F308034BBBEFF365
:102B7800118333BB2368A96822689342FAD132686B
:102B88009142F7D83A680CFB02FBABEB0101B1FBB1
:102B9800F2F10CFB03131B1AB3F57A7FE2D3019B06
:102BA800013B0193BBD1029B013B02937FF45CAFD5
:102BB8004749484B4848494A0860DA6005B0BDE8CB
:102BC800F08FEFF3118188F31288D5F808B02B68DD
:102BD800DB0344BFCEF80090D5F808B02368DEF8D0
:102BE8000020C9B281F31188396813440CFB01F243
:102BF800A2EB0B02B2FBF1F20CFB0323CBE7EFF3E2
:102C0800118188F31288D5F808B02B68DB0344BF1C
:102C1800CEF80090D5F808B02368DEF80020C9B2D5
:102C280081F31188396813440CFB01F2A2EB0B0203
:102C3800B2FBF1F20CFB03235FE7EFF3118388F398
:102C48001288D5F808C02A68D20304D50122CEF824
:102C58000020D5F808C02068DEF80090DBB283F3C6
:102C6800118839684FF47A72484402FB01F3A3EBE8
:102C78000C03B3FBF1F302FB00301DE7EFF3118304
:102C880088F31288D5F808C02A68D20304D501222F
:102C9800CEF80020D5F808C02068DEF80090DBB236
:102CA80083F3118839684FF47A72484402FB01F3C0
:102CB800A3EB0C03B3FBF1F302FB00304EE700BFBC
:102CC800C85F0020CC5F002010E000E0D05F00204B
:102CD800FC9F002000ED00E0EFBEADDE0400FA0529
:102CE800C45F00202DE9F04F85B0CDE902109B4D5F
:102CF800DFF878A2029B013B0293013300F02A819E
:102D080029F03AFC964C974FDFF864E2964E4FF460
:102D1800FA7301934FF01008DEF80430C3F3080388
:102D2800002B40F0F680EFF31183002B40F0F18088
:102D38002068AA6823689842FAD133689A42F7D87B
:102D4800D7F800C04FF47A7101FB0CF39B1AB3FB60
:102D5800FCF301FB00304FF47A7C4FF00109DEF8F8
:102D68000430C3F30803002B40F0B580EFF3118360
:102D7800002B40F0B0802368A96822689342FAD1FA
:102D880032689142F7D83A680CFB02FBABEB0101C1
:102D9800B1FBF2F10CFB03131B1AB3F57A7FDED3F8
:102DA800019B013B0193B7D1039B6F4E581CC0B2E6
:102DB80029F036FADFF8B8E14FF47A730193DEF8B8
:102DC8000430C3F308034FF01008002B44D1EFF38D
:102DD8001183002B40D12068AA6823689842FAD151
:102DE80033689A42F7D8D7F800C04FF47A7101FBDC
:102DF8000CF39B1AB3FBFCF301FB00304FF47A7C15
:102E08004FF00109DEF80430C3F30803002B44D166
:102E1800EFF31183002B40D12368A96822689342FD
:102E2800FAD132689142F7D83A680CFB02FBABEB57
:102E38000101B1FBF2F10CFB03131B1AB3F57A7F06
:102E4800E0D3019B013B01933FF454AFDEF804301B
:102E5800C3F30803002BBAD0EFF3118388F3128869
:102E6800D5F808C02A68D20304D50122CAF8002080
:102E7800D5F808C02068DAF80090DBB283F311882F
:102E880039684FF47A72484402FB01F3A3EB0C0350
:102E9800B3FBF1F302FB0030B0E7EFF3118188F3E5
:102EA8001288D5F808B02B68DB0344BFCAF8009035
:102EB800D5F808B02368DAF80020C9B281F3118880
:102EC800396813440CFB01F2A2EB0B02B2FBF1F2DE
:102ED8000CFB0323B1E7EFF3118188F31288D5F8CF
:102EE80008B02B68DB0344BFCAF80090D5F808B0D7
:102EF8002368DAF80020C9B281F3118839681344CD
:102F08000CFB01F2A2EB0B02B2FBF1F20CFB032368
:102F180042E7EFF3118388F31288D5F808C02A68CE
:102F2800D20304D50122CAF80020D5F808C02068C9
:102F3800DAF80090DBB283F3118839684FF47A72BB
:102F4800484402FB01F3A3EB0C03B3FBF1F302FBD0
:102F5800003000E705B0BDE8F08F00BF10E000E0EA
:102F6800C85F0020CC5F0020D05F0020C45F002035
:102F780000ED00E0224B5B68C3F3080330B4D3B91B
:102F8800EFF31183BBB91F4A1F4D204813688468AB
:102F980011688B42FAD129688C42F7D81C4A11680B
:102FA8004FF47A7202FB01F0001B30BCB0FBF1F069
:102FB80002FB03007047EFF31182102383F312889A
:102FC80003F1E023D2B29C68196811F4803F1149DB
:102FD8001EBF012008609C680A4B18680B6882F3C2
:102FE80011880B4A11684FF47A72034402FB01F00E
:102FF800001B30BCB0FBF1F002FB0300704700BFC0
:1030080000ED00E0C85F0020D05F002010E000E085
:10301800CC5F0020C45F00202DE9F84F8046274C84
:10302800274DDFF8A490274EFFF7A4FFDFF89CE0B8
:10303800DFF89CC04FF0100A4FF47A77DCF80430C0
:10304800C3F30803CBB9EFF31183B3B92368A968B5
:1030580022689342FAD132689142F7D8DEF800200C
:1030680007FB02FBABEB0101B1FBF2F107FB03131A
:103078001B1A4345E2D3BDE8F88FEFF311818AF3B9
:103088001288D5F808B02B68DB0304D50123C9F8EA
:103098000030D5F808B02368D9F80020C9B281F308
:1030A8001188DEF80010134407FB01F2A2EB0B02B3
:1030B800B2FBF1F207FB0323DAE700BFC85F002089
:1030C80010E000E0D05F0020C45F0020CC5F00204B
:1030D80000ED00E02DE9F04F89B090F868300290DB
:1030E800002B40F0F180029BCA4CCB4EDFF83483B2
:1030F800CA4DDFF85493CA4F1033184680226B210B
:103108000393FDF79DF964230193FFF733FF4FF015
:10311800010A4FF0100E4FF47A7CD8F80430C3F34C
:103128000803002B40F0AE80EFF31183002B40F032
:10313800A9802368A96822689342FAD13A68914223
:10314800F7D832680CFB02FBABEB0101B1FBF2F1E3
:103158000CFB03131B1AB3F57A7FDED3019B013BEB
:103168000193D2D1DDF80C90AE4FAC4DDFF8D88288
:1031780003226B214846FDF763F9029B484693F802
:103188006720DFF89C921921FDF75AF90F23019364
:10319800FFF7F0FE4FF0010A4FF0100E4FF47A7C63
:1031A8007B68C3F30803002B4ED1EFF31183002B88
:1031B8004AD12368A96822689342FAD1D9F8002035
:1031C8009142F6D832680CFB02FBABEB0101B1FB74
:1031D800F2F10CFB03131B1AB3F57A7FE0D3019BC2
:1031E800013B0193D4D1029ADFED8F7AD2F85F3098
:1031F80007EE103AB4EEE77AF1EE10FA62DC92F8D4
:103208006520012A5CD0A2F10202B2FA82F25209C8
:10321800039C1A212046FDF713F918221B2120468A
:10322800FDF70EF918221C212046FDF709F90222A4
:1032380037212046FDF704F9204601223821FDF701
:10324800FFF809B0BDE8F08FEFF311818EF3128813
:10325800D5F808B02B68DB0344BFC8F800A0D5F840
:1032680008B02368D8F80020C9B281F31188316802
:1032780013440CFB01F2A2EB0B02B2FBF1F20CFBC4
:103288000323A8E7EFF311818EF31288D5F808B06D
:103298002B68DA0344BFC9F800A0D5F808B0236842
:1032A800D9F80020C9B281F31188316813440CFBA6
:1032B80001F2A2EB0B02B2FBF1F20CFB032349E78C
:1032C8000722A5E7019AA3E71C09013C052C03F096
:1032D8000F0350D8554A32F8140040FA03F2D507C4
:1032E80049D5012505FA03F3013B18402DF040FBB1
:1032F8004F4BDFF858811F5D074418EBC7043AD0DD
:1033080058F83700A688038A33407FF4ECAE00F102
:1033180038424849E371920A8A5C02F01F03520955
:103328002021022A05FA03F3A17100F0AD80032AD7
:1033380000F0A580AA4268D006A90025CDE9066557
:103348001CF020FFA388029E3B4AF260B3FA83F286
:10335800C2F11F02501C13D1B3FA83F3C3F11F0348
:10336800591C3FF4C0AE012202FA03F3334A116834
:103378000B431360B7E6029A2F4BD3600123F5E79E
:10338800D1B201F0FC0303F1804303F5803301F06F
:103398000300D3F808C0DFF8B8A058F83710284F52
:1033A80080004FF00F0E0EFA00FE2CEA0E0C0AEB0E
:1033B800820E06F10C08C1F38721CEF85C808140AB
:1033C800C3F808C0B818D3F808E090F8B092DFF84E
:1033D80084C041EA0E014FF0010899600AEB090622
:1033E80008FA02F3CCF8003006A808238DF81D303F
:1033F8008DF81E8006928DF81C5029F075FA96F803
:103408009C30F02B28D8A388A6E70E494A691343B5
:103418004B6191E7C85F0020CC5F002010E000E01E
:10342800D05F002000ED00E00000FA425847030892
:10343800E8450308E04503088D0A00080004014038
:10344800101F030800100240C45F00201C710020F8
:1034580010220020140401404F44F02297F8C03293
:103468008DF8143005A803238DF816508DF81780B1
:1034780086F89C208DF815301CF03AFBC3E7054A06
:10348800D1690B43D36157E702498A6913438B61BA
:1034980052E700BF001002402DE9F04FDFF834C1B9
:1034A800494CDFF834E1DFF83481484E8246484819
:1034B8001AF1FF3AC0F08680DCF80430C3F3080341
:1034C800002B5ED1EFF31183002B5AD10568A26857
:1034D80003689D42FAD133689A42F7D8DEF8007043
:1034E8004FF47A7101FB07F39B1AB3FBF7F301FB67
:1034F8000535DCF80430C3F308034FF010094FF426
:103508007A77F3B9EFF31183DBB90368A16802682E
:103518009342FAD132689142F7D8DEF8002007FBCF
:1035280002FBABEB0101B1FBF2F107FB03135B1BE1
:10353800B3F57A7FBCD2DCF80430C3F30803002B60
:10354800E0D0EFF3118189F31288D4F808B023682A
:10355800DB0304D50123C8F80030D4F808B00368A9
:10356800D8F80020C9B281F31188DEF8001013449E
:1035780007FB01F2A2EB0B02B2FBF1F207FB0323FC
:10358800D5E7EFF31183102282F31288A16822682D
:10359800D20303D50122C8F80020A168D0F8009012
:1035A800D8F80050DBB283F31188DEF800704FF4CE
:1035B8007A724D4402FB07F35B1AB3FBF7F302FB85
:1035C800053596E7BDE8F08F10E000E0D05F0020F9
:1035D800C85F002000ED00E0CC5F0020C45F002041
:1035E80030B4EFF31183102282F312880848094996
:1035F8000268094D094C013202608A682A6000227B
:103608002260DBB20A6883F3118830BC704700BFC0
:10361800C85F002010E000E0D05F0020C45F0020F9
:103628001D4B70B59C68636DA26BDD69CAB1E36B15
:1036380033B12B0700D470BD636D08221A6270BDC8
:103648002A06F6D5D4E909028242616D11D0501CD0
:10365800A669A062B25C26690A85B042E9D3A36272
:10366800E7E7A906E3D5E26A42B1988C216B904757
:10367800DDE70B6823F080030B60DAE7E1699B8CD8
:103688006069DBB24E1CE6614354E169E368994224
:1036980028BFE261CBE700BF744000201D4B70B526
:1036A8005C68636DA26BDD69CAB1E36B33B12B074C
:1036B80000D470BD636D08221A6270BD2A06F6D563
:1036C800D4E909028242616D11D0501CA669A0623A
:1036D800B25C26690A85B042E9D3A362E7E7A90686
:1036E800E3D5E26A42B1988C216B9047DDE70B681D
:1036F80023F080030B60DAE7E1699B8C6069DBB239
:103708004E1CE6614354E169E368994228BFE261CF
:10371800CBE700BF744000201D4B70B51C68636D7B
:10372800A26BDD69CAB1E36B33B12B0700D470BD5E
:10373800636D08221A6270BD2A06F6D5D4E909021B
:103748008242616D11D0501CA669A062B25C2669E4
:103758000A85B042E9D3A362E7E7A906E3D5E26A9E
:1037680042B1988C216B9047DDE70B6823F080030A
:103778000B60DAE7E1699B8C6069DBB24E1CE6619D
:103788004354E169E368994228BFE261CBE700BF8F
:1037980074400020002A12DD70B504460D468E18CC
:1037A800236820469B6898470028F9D0236815F8B5
:1037B800011B1B6820469847B542F1D170BD704780
:1037C8000368DB6A03B11847704703689B6A03B153
:1037D8001847704703682DE9F0415D6A1DB12B4613
:1037E800BDE8F0411847002A174611DD04460E4689
:1037F8000F4400E023689B68204698470028F9D0CA
:10380800236816F8011B1B6820469847BE42F1D171
:10381800BDE8F08103689B69184703685B6918472E
:1038280010B504462046FFF7F8FF00B110BD0A2086
:10383800FFF732FEF6E70368DB68184703689B6802
:10384800184703685B68184703681B681847024BEA
:10385800D3F8A400F8E700BF10220020054B53F866
:10386800203033B11A689B88918A0B4218BF1B0419
:1038780093617047945F00202DE9F04F4A484B4B05
:103888004B4C4FF090414FF0010A4FF002094FF0B6
:1038980004084FF0080E4FF0100C20274026802512
:1038A80030F8022B12F0010F03D01960A3F804A01E
:1038B800083312F0020F03D01960A3F804900833FC
:1038C80012F0040F03D01960A3F80480083312F033
:1038D800080F03D01960A3F804E0083312F0100FA2
:1038E80003D01960A3F804C0083312F0200F02D0E7
:1038F80019609F80083312F0400F02D019609E8033
:10390800083312F0800F02D019609D80083312F43A
:10391800807F05D04FF4807B1960A3F804B008338A
:1039280012F4007F05D04FF4007B1960A3F804B0AF
:10393800083312F4806F05D04FF4806B1960A3F838
:1039480004B0083312F4006F05D04FF4006B19600F
:10395800A3F804B0083312F4805F05D04FF4805BFD
:103968001960A3F804B0083312F4005F05D04FF4CF
:10397800005B1960A3F804B0083312F4804F05D037
:103988004FF4804B1960A3F804B00833D20B04D06D
:103998004FF4004219609A80083301F58061A14212
:1039A8007FF47EAFBDE8F08F584703081C710020F4
:1039B8000018004800B97047036803F138422DE940
:1039C800F04F920AB24DAA5C02F01F055209012479
:1039D800022A04FA05F400F05F81032A00F05381FB
:1039E800012A00F00D8101F003077A1E012AC1F3B4
:1039F800810EC1F300188488C1F3411140F205819A
:103A0800E6070BD51A6822F003021A601A683A43CF
:103A18001A60DA6822F003020A43DA60A5070DD5B6
:103A28001A6822F00C021A601A6842EA87021A60C1
:103A3800DA6822F00C0242EA8102DA6060070DD5EA
:103A48001A6822F030021A601A6842EA07121A60ED
:103A5800DA6822F0300242EA0112DA6022070DD554
:103A68001A6822F0C0021A601A6842EA87121A60BD
:103A7800DA6822F0C00242EA8112DA60E6060DD561
:103A88001A6822F440721A601A6842EA07221A6019
:103A9800DA6822F4407242EA0122DA60A5060DD5FE
:103AA8001A6822F440621A601A6842EA87221A6089
:103AB800DA6822F4406242EA8122DA6060060DD5B3
:103AC8001A6822F440521A601A6842EA07321A60E9
:103AD800DA6822F4405242EA0132DA6022060DD551
:103AE8001A6822F440421A601A6842EA87321A6059
:103AF800DA6822F4404242EA8132DA60E6050DD5FE
:103B08001A6822F440321A601A6842EA07421A60B8
:103B1800DA6822F4403242EA0142DA60A5050DD59E
:103B28001A6822F440221A601A6842EA87421A6028
:103B3800DA6822F4402242EA8142DA6060050DD553
:103B48001A6822F440121A601A6842EA07521A6088
:103B5800DA6822F4401242EA0152DA6022050DD5F1
:103B68001A6822F440021A601A6842EA87521A60F8
:103B7800DA6822F4400242EA8152DA60E6040DD59E
:103B88001A6822F040721A601A6842EA07621A60DC
:103B9800DA6822F0407242EA0162DA60A5040DD5C3
:103BA8001A6822F040621A601A6842EA87621A604C
:103BB800DA6822F0406242EA8162DA6060040DD578
:103BC8001A6822F040521A601A6842EA07721A60AC
:103BD800DA6822F0405242EA0172DA6022040DD516
:103BE8001A6822F040421A601A6842EA87771F6012
:103BF800DA6822F0404242EA8171D960BDE8F08F6C
:103C0800244A55692C435461EDE600224FF0010C1B
:103C18004FF003090CFA02F636EA04002ED15000E0
:103C2800D3F808A009FA00F5ED430AEA050AC3F833
:103C380008A0D3F808B00EFA00FA4AEA0B0AC3F84B
:103C480008A0B3F804A02AEA06069E80B3F804A0E8
:103C580008FA02F646EA0A06B6B29E801E682E40A8
:103C68001E60D3F800A007FA00F646EA0A061E60AE
:103C7800DE6801FA00F035402843D8600132102A86
:103C8800C8D1BDE8F08F034AD5692C43D461AAE6B0
:103C9800E045030800100240024A95692C439461EC
:103CA800A1E600BF0010024010B1036882881A859F
:103CB800704710B1036882889A61704718B1838889
:103CC80011B10268936170471B04FAE710B40A4BFC
:103CD8000A4A1C7801238340234052F8200029B95E
:103CE800B3FA83F149095DF8044BE7E7191C18BFDB
:103CF80001215DF8044BE1E7905F0020945F00200C
:103D080008B50E4B1978012913D00DD3022902D119
:103D18000020FFF7A3FDFFF72DF9094B00F5F4206C
:103D280000F59070186008BD00210846FFF7CEFF27
:103D3800F1E70020FFF7CAFFEDE700BF8A34002053
:103D48008C34002008B501210220FFF7BFFF0C4B7F
:103D58001B7803F00503052B0ED000210120FFF787
:103D6800B5FF00210846FFF7B1FF3220FFF794FBAB
:103D78000220FFF773FDF8E724F092FEEDE700BF9D
:103D8800704000200E4B1B8801463BB90D4B0E4A74
:103D98001B7810680BB981F001018FE70B4B5A694A
:103DA8001AB11A6810B91060587470470848094960
:103DB800008891FBF0F1012011605874704700BF32
:103DC800A05F0020A25F0020A45F0020A85F002061
:103DD800C05F002020A1070010B50020FFF7D2FF28
:103DE800064B00241C70FFF78BFF05480549064A5F
:103DF800064B04700C6014801C6010BD8A340020CF
:103E08009C490020302F00202C2F00200C2F002050
:103E1800002830D0194B1B6813F4003324D1012239
:103E28009042174908D00133182B03EB430223D0E3
:103E380011F822209042F6D130B4124C104A206872
:103E4800590030B14578C81802EB80004078A84284
:103E580008D20B440C480D4902EB83020023226070
:103E680003800B6030BC7047094B1B78032B02D0D2
:103E780001220023D4E7AFE7704700BFE07D0020B0
:103E8800D42403080C2F00202C2F0020302F0020D2
:103E9800ED7D00202DE9F04106460E2025F016FCA8
:103EA800E8B9444D2C68C4B1434F3B68B34214D8B9
:103EB800424A137853B3DFF828816168B8F80030B4
:103EC80000241470CA5C72B9002242F210710133E6
:103ED80001FB0266A8F800303E60BDE8F0810A20C8
:103EE800FFF796FFDDE72046FFF74CFF344B1C70C9
:103EF800FFF706FF2A68B8F800305268D25CFE2A3D
:103F080053D10023A8F80030BDE8F08101231370D5
:103F180025F08EF8D0B923780A2B3ED0022B15D184
:103F2800284A93689B0711D4274B28491B68F31A22
:103F38008B420BD9264B1B6843B926482649066095
:103F480012790978FF2015F0EDFF2C68DFF89080D2
:103F58006268B8F80030D25C002AB5D02378194AD4
:103F6800013B0120126800FA03F313421AD0144BE4
:103F780001221A70FFF7C4FEB8F800302A68002B37
:103F8800BBD1117805390129B7D8FEF7F3FF134BD8
:103F98002A681860B8F80030AFE70A4A93689905AC
:103FA800C2D5D3E7FFF7EEFEE1E7FF2A8DD1BDE8E2
:103FB800F04111E70C2F0020302F00209C490020F1
:103FC8008A340020E07D002090340020804F1200C9
:103FD8008C49002090490020EE7D0020282E0020EA
:103FE8002C2F002040004028094A30B4A8BF4020A8
:103FF800002302251424D5540233D118834201F832
:10400800014CF8D3FF21D1540E2030BC00E700BF8B
:1040180024320020022838B504460DD800EB80036E
:10402800084A094D094903EB830302EB8303184649
:104038002B600C7023F0C8FB601CC0B2BDE8384090
:10404800D0E700BF1A2500203C460020907D0020C4
:1040580010B5094C238823EA00009842208009D033
:10406800064B41F20241FF2219809A700E20FFF799
:10407800CFFE2388184610BD384600202432002081
:1040880010B5094C238818439842208009D0074B63
:1040980041F20241FF2219809A700E20FFF7B8FE04
:1040A8002388184610BD00BF38460020243200205F
:1040B8002DE9F0478B4A8C4B12781C78D2070646BC
:1040C80048D58A4D012C00F090801ED3022C40F078
:1040D8009A808749874A09881288874F914201D96F
:1040E80001241C70EB7AFBB12B89EBB1834B1B7855
:1040F800D3B119F0D5F8002800F0E0802B7B83427B
:104108002CBF012300233B700FE0DFF8E4C17A4F96
:104118007B4CBCF800002288697B521A8242DFDAA5
:10412800EB7A0024002BDFD13B782A79632A07D861
:104138007449022C087800F0B780002840F09F806E
:104148007149AA7A9C4238BF1C460C70002A44D197
:10415800BDE8F087DFF898C1644DBCF80000BCF8F2
:10416800021095F803E0694F411A0029A4F10302EF
:10417800B8BF4942704597F80080D2B211D32F7862
:1041880087420ED3012A44D9B8F1020F9AD15B486D
:104198005F4A007890800229CCBF00210121D1809C
:1041A80090E7B0EB4E0FEDDC012A40F28A8002293D
:1041B800EADC0324504F514851494E4A1C70B8F16B
:1041C800020F4FF000033C7003700B80138089D1FD
:1041D8004F4A01219380D18084E7012C6AD0022CB8
:1041E800B6D10720BDE8F04712E6424A4049128896
:1041F800687B0988121A914207DD414A12888A426F
:104208003CBF00241C703C4F6CE702241C703A4FE2
:1042180068E70229B8DC95F800E090FBFEFE0EF195
:10422800010EBEF1080FDFF8D4A0AA786978DFF88C
:10423800C490334C304FA8BF4FF0080E8AF800E006
:104248001FFA8EFA11FB0AF112FB0AF2DFF8B4A08A
:10425800A9F8001092B200214FF06409B8F1020FDA
:10426800228039701970CAF804108AF801907FF416
:1042780053AF274A0121A2F804E0D18049E74868F2
:10428800301A244EB042C8BF4A703FF759AFC2F146
:104298006402214E00FB02F086FB0062C017A0EB0F
:1042A800A250643048704BE70028E8D101274E60DF
:1042B8000F70ECE70820BDE8F047A9E502233B7042
:1042C80033E7032C7FF473AFB8F1020F9BD10B4A8D
:1042D8000F4B12789A800229CCBF00210121D98086
:1042E800054FFFE68042002070340020107D00203A
:1042F800C07D00207434002080340020EC7D002034
:104308007234002078340020ED7D0020507E00209B
:10431800D47D00207F9698006BCA5F6B38B5074B39
:1043280003EBC0052C796A794C40A24205D053F8BA
:1043380030002146FFF7C2FC6C7138BDD06B0020FD
:1043480038B5084D002415F8013BFF2B184605D059
:10435800FBF73EFF01462046FFF7E0FF0134042C3F
:10436800F1D138BDC46B002030B102688388128A4D
:104378001A4214BF0120002070472DE9F0410C4E6D
:10438800356873691D4010D0DFF828800127B5FA19
:1043980085F4C4F11F0408EB840307FA04F4D86D0C
:1043A80003689847A5437461F1D1BDE8F08100BF67
:1043B80000040140102200202DE9F0410B4E356821
:1043C80073691D4010D0DFF828800127B5FA85F4FD
:1043D800C4F11F0408EB840307FA04F4D86D0368DA
:1043E8009847A5437461F1D1BDE8F081000401400C
:1043F800102200202DE9F0410B4E356873691D40ED
:1044080010D0DFF828800127B5FA85F4C4F11F041D
:1044180008EB840307FA04F4D86D03689847A543AA
:104428007461F1D1BDE8F081000401401022002040
:104438002DE9F0410B4E356873691D4010D0DFF847
:1044480028800127B5FA85F4C4F11F0408EB84031A
:1044580007FA04F4D86D03689847A5437461F1D14D
:10446800BDE8F08100040140102200202DE9F04150
:104478000B4E356873691D4010D0DFF8288001277E
:10448800B5FA85F4C4F11F0408EB840307FA04F4B1
:10449800D86D03689847A5437461F1D1BDE8F081F0
:1044A80000040140102200202DE9F0410B4E356830
:1044B80073691D4010D0DFF828800127B5FA85F40C
:1044C800C4F11F0408EB840307FA04F4D86D0368E9
:1044D8009847A5437461F1D1BDE8F081000401401B
:1044E800102200202DE9F0410B4E356873691D40FC
:1044F80010D0DFF828800127B5FA85F4C4F11F042D
:1045080008EB840307FA04F4D86D03689847A543B9
:104518007461F1D1BDE8F08100040140102200204F
:104528000C490D4A8B6943F0010310B58B61136880
:104538000A4C43F48053136004F15C0040220021CC
:104548002DF075FC4FF0FF33C4F89C30C4F89F3051
:1045580010BD00BF001002400000014010220020E2
:1045680003681B6A184770B44E1C0568C2728672CD
:10457800AC69A44670BC60472DE9F0410446184672
:104588000D4616461F462CF09BF92844A072206859
:10459800E672294645693B4632462046AC46BDE8A8
:1045A800F0416047036810B504461B6898472368C4
:1045B80020469B689847A37B0133A37310BD10B5B1
:1045C800036804469B689847FF230122637322739C
:1045D80010BD427A4AB110B5044604F10A01D0E987
:1045E800003098470023637210BD7047437A5A1C05
:1045F8000344D2B242729972037A93420AD84AB1FA
:1046080010B5044604F10A01D0E9003098470023A8
:10461800637210BD7047A8B10D4B012210B402FAA5
:1046280001F103F1750402E00333A3420BD013F840
:10463800012C8242F8D11A780A42F5D001205DF89F
:10464800044B7047704700205DF8044B704700BF6B
:10465800D921030830B40A4D002305F5327401E06E
:10466800272B0AD003EB43020133A15C8142F7D127
:104678002A4430BC92F8CA027047002030BC704708
:10468800101F030870B502221349144C144E4FF63C
:10469800FF70FBF7ABFF22884AB1A518B54218D2C4
:1046A800052A16D92146FBF7A1FF2C46F3E7214638
:1046B8000222FBF79BFF0222A118FBF797FF094B89
:1046C800E41A094B1C8041F60F53C31A584258414B
:1046D80070BD0020FCE700BF00F0030802F00308EB
:1046E80000000408FAEF0308224C0020024A13686D
:1046F80023EA000010607047DC7D002038B5504B7D
:104708001B68B3F5FA7F00F28C804E4B9A89D989E1
:10471800D878914224BF00229A81598A1A8A9142F4
:1047280024BF00221A8201280DD9474A474D92F822
:104738005C10012400220A292C709C709A7139D1CE
:10474800DFED437A15E09A7922B199780429B8BF48
:10475800042199703C4991F85C100A2966D00C290B
:104768002AD1DFED3C7A9FED3C7A002A18BFF0EEA3
:10477800477A3A4CA278062A97BF3949DFED366A5C
:1047880001EB8201D1EDD06A2179F9B1013A032A0E
:104798000AD8B7EE000A80EE260A2CF07FFC2388A0
:1047A800984228BF184620802E4A9378013B012B57
:1047B80009D938BD0C2903D001283DD90A2938D098
:1047C800DFED297ACFE70023937038BD9B781F4926
:1047D80007EE103A0A78B8EEC77A67EE277A07EE3E
:1047E800102AB8EEC77A27EE277AF4EEC76AF1EEF8
:1047F80010FAD9DD86EEA77AFDEEC77A17EE903A61
:10480800102BA8BF1023012BB8BF0123DBB29A429B
:1048180038BF1A460A70134A9378013B012BC8D84F
:10482800D1E74FF00050FFF761FF6EE7DFED0F7A39
:1048380099E7DFED077A96E7DFED0D7A93E700BF9A
:10484800305F0020405F0020E45100200C4C002025
:104858000F506E3A0AD7A3396F120338F06D002053
:10486800101F0308BA4900206F12833A5304E9382D
:104878006F120339F8B5AF4A1378A3F1170102296B
:1048880005D9AD4911F83300002840F01C810024F7
:10489800AA4EAB4F2546315B4B0803F077334FEAFE
:1048A800910C0CF0333CCB1ACA08A3EB0C0302F0B2
:1048B80011329B1A03EB231303F00F33A7FB03C238
:1048C800D209C2EB02229A1A11F001031CBF01356A
:1048D800EDB2012A06EB040004F108040BDD022AFC
:1048E80040F0ED8013B111F42F7F04D11DF0A8FA28
:1048F800002800F0E480302CCDD1013D022D00F2DB
:10490800DE808020FFF7F2FE8E494B78052B00F2FF
:10491800D2808D4A03EBC30302EB43020B788B482A
:10492800022B026000F2C28003EB8302884C02EB88
:10493800820204EB8202642101FB0343854D9988BE
:10494800D8882A608842844924BF00229A808B78BC
:10495800042B00F0C18033B90B88B3F5F07F84BF16
:104968004FF4F0730B807D4DFFF7C8FE2B687C4A2F
:104978001A40002A00F06C81DF0700F1CE805E0447
:1049880000F1B880180700F1BC80990400F1C080DC
:104998001A04744D40F182800023EB7385F82330AC
:1049A80024F0E8FE002860D06B7E032B5DD05A1EF1
:1049B800012A6FD900232383A4F87C30A4F8E030BF
:1049C80024F0D8FE002864D1002384F8533084F8FA
:1049D800B73084F81B31644BDA79022A08BF012208
:1049E8004FF00A0008BFDA7124F0C6FD002840F035
:1049F800CB804FF48060FCF71BFC002800F023817B
:104A08004FF40070FFF772FE4FF48030FFF76EFE30
:104A18004FF40030FFF76AFE5448554CFFF766FE26
:104A28004FF40010FFF762FE4FF00070FFF75EFED4
:104A38004FF08060FFF75AFEA388002B72D14D4AD1
:104A48001368DB0DDB050BB100231360936823F4B7
:104A5800007323F002030BB1002393601379013B29
:104A6800042B01D901231371F8BD0023A3816382AC
:104A7800A4F87030A4F87630A4F8D430A4F8DA306A
:104A880024F078FE002895D06B7E5A1E012A91D812
:104A980000E06B7E023B022B96D89CE7EA7B002A5B
:104AA80000F0C880002385F8233079E7284C0023DC
:104AB80022460B703FE70023234A4B702EE71F481E
:104AC800FCF762F81DE701EBC3035B68002B7FF47A
:104AD800DEAE17231370DAE64FF48050FFF706FEB8
:104AE8008B8AB3F57A7F37BF4FF47A728B788B78DD
:104AF8008A8230E72048FFF7F9FD2B6818077FF511
:104B080044AF1E48FFF7F2FD2B6899047FF540AFCC
:104B18001B48FFF7EBFD2B683AE71A48FFF7E6FD5D
:104B28002B682CE72078FDF773FF002887D1A08039
:104B380085E700BF202E002084470308D486002084
:104B480081808080907D00207426002040460020CF
:104B58001A2500203C460020F06D0020DC7D002056
:104B680009600002AC7C00202850002020001000C2
:104B78008A400020E07D0020092000020160000238
:104B88000940000208600002334F002207F1060EB8
:104B98001146944601EB4100430017F810000A281B
:104BA80007EB030540D05B1B28464E1CEABB734449
:104BB800142E1D443FF41DAF10F8062F0A2A08D002
:104BC8000136142E1D443FF414AF10F8062F0A2A9C
:104BD800F6D101229319132B15D803EB430007EBE9
:104BE800400117F810000A2808BF013305D012E069
:104BF80011F8064F0A2C0ED10346132B02F10102BD
:104C080003F10100F4D9C5F800C0A5F804C0711C6F
:104C18001429BFD1EDE603EB430307EB43031968FF
:104C280029609B88AB80F2E70AB10E46D2E70E46B0
:104C38000122CFE742F2010213423FF4B1AE002352
:104C480085F82330ACE64FF00060FFF74FFDD7E65C
:104C580043F008032B608FE6203000202DE9F04F49
:104C68008DB0FFF707FEDFF87891584FDFF87481B1
:104C78000EF0CEF8564A574BB2F85C23ADF8062032
:104C8800A3EB090300934FF0030A0026CDE9086659
:104C9800CDE90A66009BCDF818900793D8F8103034
:104CA8001B0606D54C4BC8F8043003F18833C8F806
:104CB800043001238DF82C303423C8F80C3002223C
:104CC800BDF80630ADF8083002A906A8FCF71AF9B5
:104CD800022202A94FF6FF70FBF788FC3F4BBB424C
:104CE800834629D21C46658823888DF81560C5F34C
:104CF8000B05C3F30B00A91D1B0B0622ADF8101002
:104D0800ADF8120004A906A88DF81430FCF7FAF8DB
:104D18005846062204A9FBF769FC616883462A46BF
:104D280006A8FCF7EFF8616858462A46FBF75EFCD0
:104D38001434BC428346D6D3022203A906A8ADF890
:104D48000C60FCF7DFF8022203A95846FBF74EFC7B
:104D580040BAC343022204A906A8ADF81030FCF7F4
:104D6800D1F8099820BB0A989DF82C305BB990B10E
:104D7800BAF1010A8AD10520FDF768FE0DF0DEFFC1
:104D88000DB0BDE8F08FD8F8103043F08003C8F8B4
:104D980010300028ECD199F80030AD2BEBD199F800
:104DA8000130BE2BE7D1FFF76DFC0028E6D1E2E722
:104DB80008ABC0F10402002118442DF038F8089916
:104DC80006A8FCF745F8CDE90960CDE7549103083A
:104DD800101F03080000040823016745308D0308ED
:104DE80000F00308002002402DE9F84F0EF010F8FB
:104DF8002B4B2C4A934250D22B4F03F114069B465F
:104E08004FF00108294C258862197DB1BA420DD2AC
:104E1800052D0BD936F8143C6188C3F30B0399426E
:104E28000AD0144625886219002DEFD156F8101CB7
:104E38005846FBF7E9FF0FE0637913F0030AF0D156
:104E480056F8101C94F804905846FBF7DDFF36F826
:104E5800141CB9EB113F11D04FF00008114B0BF1A6
:104E6800140B9B4506F11406CCD3FFF703FDFCF7A2
:104E780033FB0DF063FF4046BDE8F88F36F8123C6F
:104E880056F8100CAA1FC3F30B039A4204F106014B
:104E9800A8BF1A462CF0A7FFE0E74FF00108E4E7A7
:104EA800308D0308549103080000040802F0030839
:104EB80008B5FFF7D3FEFFF797FF0120BDE80840CC
:104EC800FFF790B82DE9F047D84C6368204698471B
:104ED800002800F00581D64B1B78042B00F03A819E
:104EE800B4F9163006EE903AB4F9183007EE103AD5
:104EF800B4F91A3007EE903AF8EEE66AB8EEC77AD7
:104F0800F8EEE77AC4ED096A84ED0A7AC4ED0B7A03
:104F1800A17FC8480BF002FFC74B1B8853B3C74B90
:104F280094ED095AD3ED006A93ED027AD3ED047A31
:104F3800D4ED0A5A94ED0B6AD3ED013A93ED034A86
:104F4800D3ED054A35EE665A75EEC75A36EE676AEE
:104F5800E5EE236AA5EE847AE4EE867AC3ED006A6C
:104F6800C4ED096A83ED027A84ED0A7AC3ED047A06
:104F7800C4ED0B7AB24FB34E3B887569002B00F035
:104F8800B180B3F57A7F18BFD6ED2A7A94ED097A05
:104F98000CBFDFEDAD7AF8EEE77A4FF0000C002099
:104FA80077EE877AC4F824C02880B7F80080FDEE31
:104FB800E77AB8F57A7F17EE903AC6ED2A7A00F0CC
:104FC800E680D6ED2B7A94ED0A6A96ED2C7AD4ED2C
:104FD8000B6AC4F828C0F8EEE77AB8EEC77A77EE1D
:104FE800867A37EE267AFDEEE77AB8F1010F17EEEA
:104FF800902AFDEEC77A688017EE901AC4F82CC084
:10500800C6F8AC20C6ED2C7AA88027D1DFF85CC2A0
:10501800B4F814E08CFB01A9C917C1EBA9118CFBEA
:1050280003A98CFB02ACD217C2EBAC12DB17DFF87A
:1050380034C26A80A1EB0E01C3EBA913A9802B80AF
:10504800ACF80C00ACF80E00FFF708FEFFF7CCFE3A
:105058004046FEF7C7FF7569B7F8008008F1FF38CA
:10506800A7F80080B5F9003094ED0A6A94ED0B7A40
:1050780094ED095A754905EE903AB5F902300A6877
:1050880006EE903AB5F9043007EE903AF8EEE55A94
:105098006F4BF8EEE66AF8EEE77AD3ED003A93ED57
:1050A800014AD3ED024A75EE655A76EE666A77EEE6
:1050B800677AC4ED095A34EE266A73EEA55A34EEBF
:1050C800A77A01320120C3ED005AC4ED0A6A83EDC4
:1050D800016AC4ED0B7A83ED027A0A6084F8300025
:1050E800BDE8F0875B4B1B685A07BBD55A4F3B8816
:1050F800322B00F0BD80002B5CD158480378002B80
:10510800B0D0574FD6F8C83087FB03ECDB17D6E989
:105118003021C3EB2C13B4F814C0A3EB0C03AB8001
:1051280087FB023CD31787FB0127CA17C2EB27125C
:105138004C4F6A800021C3EB2C1301702B80B9817E
:10514800F981FFF78BFDFFF74FFE0120FEF74AFFBD
:10515800756987E7B4F91600B4F91810B4F91A207C
:10516800414B07EE900AF8EEE76A07EE901AB8EEA0
:10517800E77A07EE902AF8EEE77AC4ED096A188014
:1051880059809A8084ED0A7AC4ED0B7AC0E694EDD2
:105198000A7AD4ED0B7AC4F828C0BDEEC77AFDEEC2
:1051A800E77A688086ED2B7AC4F82CC0C6ED2C7A95
:1051B800A88053E7D6ED307AB8EEE77ADFED227AA9
:1051C800D4ED096AC4ED097A00232B803B8837EEB9
:1051D800267A322B18BFD6ED317A3B88BDEEC77AD6
:1051E80018BFF8EEE77A86ED307A94ED0A7A77EE12
:1051F800877A0021FDEEE77A0022322BA162C6ED04
:10520800317A6A8042D0D6ED327A94ED0B7AE16237
:10521800F8EEE77A012B77EE877AAA80FDEEE77A37
:10522800C6ED327A3BD0013B3B8066E7FC45002067
:10523800507E002020460020442F0020482F0020C8
:10524800883400201022002000000000D84B0020E5
:10525800DC4B0020F06B0020043A0020013A0020CB
:105268001F85EB51342F0020D47D0020D34D6210D0
:105278002D4B2A68DB68C6F8BC30B5F90430C6F88F
:10528800B420A6F8B8309FED297A97E7D4ED0B7AC9
:10529800E162FDEEE77AAA80C6ED327AC3E72449D7
:1052A80024480968DFF8A0C003708B038CF800203D
:1052B80033D4214900220B4618780B2803F10C033C
:1052C8000ED00132182AF7D1D6F8B4302B60164A1E
:1052D800B6F9B800D6F8BC10A8803B88D160A2E720
:1052E8001648D0F800E05300BEF1000F09D003EBD8
:1052F800020C01EB8C0C9EF801E09CF801C0F4450F
:10530800E2D21344DFF844C00D4A01EB83010023C5
:105318000160ACF800301360D6E70A4B1B78032B0A
:10532800C7D1FEF759FDCFE7342F00200000000059
:10533800E07D0020003A0020D42403080C2F002030
:10534800302F0020ED7D0020063A00202C2F002071
:10535800DFED2B7AB4EEE70AF1EE10FA4ADDDFED65
:10536800296A9FED297A01E0B0EE670AB4EEC70A10
:10537800F1EE10FA70EE667AF6DC9FED247AF4EE20
:10538800C77AF1EE10FA38D5DFED1E6A9FED207A64
:1053980001E0F0EE407AF4EEC77AF1EE10FA37EE5B
:1053A800A60AF6D4DFED1B7AB4EEE70AF1EE10FA9E
:1053B80014DDDFED137A37EEC00A60EE006A9FED68
:1053C800166A9FED167ADFED167AA6EE867A20EE3B
:1053D800266AE6EE877AA6EE270A7047DFED117A8D
:1053E800B4EEE70AF1EE10FA44BFDFED087A37EEC3
:1053F800C00AE2E7F0EE407ABFE7B0EE670AD1E70D
:10540800DB0F4940DB0FC940E4CB1641DB0F49C035
:10541800E4CB16C1DB0FC93F92E741B99730083C8E
:1054280015A82ABEDB0FC9BF4B0901F01F0150F8B0
:105438002320012303FA01F1114214BF184600206A
:105448007047504A504B12682DE9F04157024F4FB0
:10545800396858BF03F50003D60058BF43F400630A
:105468008D074B49097844BF43F4845343F006033E
:1054780082B001F0EF0043F400740828009471D062
:105488000E296FD04349009B0978D40454BF43F0D8
:10549800107343F0507343F4804300296FD1900692
:1054A80048BF43F40053510748BF43F480335205C3
:1054B80054BF43F4003343F4C023374DDFF8E4808E
:1054C80043F06053062200932E1D01926C4615F896
:1054D800010BFF2815D00021304A0B4603E00133A9
:1054E800292B0ED0117A884202F10C02F7D103EB76
:1054F800430308EB830393F87410A1F12303032BF0
:1055080034D9B542E3D13B689B0733D40025012742
:1055180002E00135292D1DD029462046EEB2FFF7BD
:1055280083FF0028F5D01D4B002203F5F07101E040
:1055380013F80C2F9642ECD09942F9D16A0906F07B
:105548001F0654F8223007FA06F623EA060644F83E
:105558002260DEE794E80300114B83E8030002B001
:10556800BDE8F08143F4407300938BE72046FBF7D6
:105578008DFEC6E7019B43F480730193C6E743F0B1
:1055880080438CE7F06B0020010000804446002037
:10559800202E0020086E0020C06B0020841F030806
:1055A800DC220020101F03082DE9F84F4F014FF0AF
:1055B800000B184E8246914607F120085D4605E02B
:1055C80001350BF1010BBBF1290F1ED059463046AE
:1055D8005FFA8BF4FFF728FF0028F2D0AF42EFD82C
:1055E800A845EDD900220C48114604E001312929CB
:1055F8000DD010F80C2FA242F8D1074B01EB410156
:1056080003EB81015046C847DAE7BDE8F88F00216F
:10561800F8E700BFDC220020841F03082DE9F04FC3
:10562800CE4C237891B0054643B1DFF884A3DAF86D
:105638000C305046984780F001002070C84B1A780B
:10564800002A00F02981C749C748C84E0C7805F5DB
:10565800EC425F320260002032681870002C00F0C3
:105668001E81954201D9013C0C70284615F032FB89
:10567800002800F01181BE4BBE4F1A68B7F90630FA
:10568800D189BD4801248B420470C0F24D81B3F525
:10569800FA6F127B9FEDB97ABFBF581A4243C1F522
:1056A800FA6192FBF1F2C2F1640207EE902AF8EE79
:1056B800E77AB34A67EE877AC2ED007AB148B24911
:1056C80090F904204D8AB7F900E090F800C04678B8
:1056D800AE4C002AAEEB050214BF01204FF0FF309C
:1056E800002AB8BF5242B2F5FA7FA8BF4FF4FA7247
:1056F8006245C5BFA2EB0C0207EE902ADFEDAF7A38
:10570800F8EEE77A7545B7F902E0C4ED007AAEEB3A
:105718000502C4BFF1EE677AC4ED007A002AB8BF6B
:105728005242B2F5FA7FA8BF4FF4FA729445BABF55
:10573800A2EB0C0207EE902ADFEDA07AB7F904700D
:10574800B8BFF8EEE77A7545A7EB0502C4ED017A14
:10575800C4BFF1EE677AC4ED017A002AB8BF52429D
:10576800B2F5FA7FA8BF4FF4FA72964280F2288108
:10577800921B00FB02F207EE902AF8EEE77A844AC1
:10578800C4ED027ABD421068C4BFF1EE677AC4ED79
:10579800027A10F4805000F0CC80B3F5FA6FA8BFFD
:1057A8004FF4FA63B3F57A7FB8BF4FF47A73A3F571
:1057B8007A71784B1A78002A40F04081764E774FFC
:1057C80086FB0123CA17C2EB63135A1C6FF0630CE4
:1057D80037F9122037F913700CFB0313D21B03FBA4
:1057E80002F386FB0326DB17C3EB66133B441BB2AD
:1057F80007EE903AF8EEE77AC4ED037A002840F015
:10580800ED80674B1B8859063CD59A073AD0654B03
:1058180094ED004A93ED022A93ED037AD3ED012A21
:10582800D4ED017A93ED005AF1EE423AB1EE473ADF
:1058380023EEC46AF1EE621A64EE034AA7EEA16A87
:10584800E7EE854A63EE675A67EEA37AE4EE055AF7
:1058580062EE866A27EE247AE4EE217AE5EE246A7F
:10586800A5EE257AF1EE677AE2EE276AA2EEA77A2C
:10587800F0EE667AE3EE257AA3EE867AC4ED017A35
:1058880084ED007A484B1B78DB0700F19C8011B04F
:10589800BDE8F04F0FF052BE11B0BDE8F08F954251
:1058A8007FF6E3AE414B1E78002E00F0D380DFF880
:1058B80000A1DFF800B1DFF8D080DFF8FC90574690
:1058C80028E018F804109847032C03462ADCC8B1CE
:1058D80009EB840339F824105A88401A4FF47A7374
:1058E80003FB00F0521A40F6CA0390FBF2F000F5F1
:1058F8007A709842A8BF184640F2EE239842B8BF83
:10590800184600B2294B2BF8020B1E780134B4421A
:1059180080F2A080072C3846DAF80430D1DDE1B2F5
:105928009847034618B2EDE7154A4FF07E511160CB
:10593800C4E68A8A9342C0F28B80B3F5FA6FD4BF6B
:10594800C2EB0303C2F5FA634FF47A71C2F5FA6247
:1059580001FB03F3B3FBF2F12BE700BFED290020B5
:10596800EC290020D42F0020E8290020D02F002087
:1059780040460020344900204C5000200AD7233CE0
:105988000C4B0020F4340020AC7C00209C2F00201D
:10599800F06B0020783400201F85EB513050002038
:1059A80038460020A8200020804200200431002032
:1059B800D0290020E422002024310020000000002B
:1059C8005FED027ADBE6B84AB84B1178186801F047
:1059D800010111B0BDE8F04FFEF770B9B44BDB78A8
:1059E800002B7FF40EAFB34BB3481E7B1821FFF793
:1059F8001BFD002E40F0188100283FF402AF9FEDF8
:105A0800AF7AAF4977EEC77AC5F5FA63FDEEE77A64
:105A18001AB217EE903A1BB21B0381FB0301DB1786
:105A2800C3EBA11302FB03F343F30F332B4407EE3D
:105A3800903AF8EEE77AC4ED037AE2E65B78A14A99
:105A480001FB03F382FB0321DB17C3EB6111B5E60E
:105A58000146AEE69C4B1A789C4BD3F80080002A8E
:105A680040F0DD8013469A4909780491292904D128
:105A780098489949007848800A80984A0124147007
:105A8800002E00F0A881964A8A4F10780390954816
:105A9800DFF870C2C18B0191018C0291418A039891
:105AA8000A91397B0D910746ACFB077149080792AB
:105AB80001EB41018C4ADFF850921268DFF838B2E6
:105AC8000B94411AC8B206F1FF3A0590CDE9086572
