:020000040800F2
:1000000000200010891C0308F11C0308CD7A0108A8
:10001000F11C0308F11C0308F11C03080000000098
:10002000000000000000000000000000F11C0308B8
:10003000F11C030800000000F11C03081D910208D8
:10004000F11C0308F11C0308F11C0308F11C030850
:10005000F11C0308F11C0308019902082D9A0208FB
:10006000F1990208B59902087999020805BD0208BC
:10007000F5BC0208E5BC0208D5BC0208C5BC0208F4
:10008000B1BC02089DBC0208F11C0308F11C030866
:10009000F11C0308F11C0308F11C03083D99020838
:1000A0006D80020879830208A17F0208F5840208A6
:1000B000BD8202080182020839810208F11C03088E
:1000C000F11C0308F11C0308F11C0308F11C0308D0
:1000D000F11C030855920208D99102085D910208AB
:1000E000C5980208F11C0308F11C0308F11C030861
:1000F000F11C0308F11C0308F11C0308F11C0308A0
:10010000000000000000000000000000F11C0308D7
:10011000F11C0308F11C03086904010855040108D7
:1001200089BC020875BC020861BC02084DBC02080B
:1001300039BC0208F11C03080000000000000000A8
:10014000F11C0308F11C0308F11C03080000000067
:10015000000000000000000000000000000000009F
:100160000000000000000000F11C0308F11C03085F
:10017000F11C030800000000000000000000000067
:0801800000000000F11C03085F
:10018800002301223E21417283700380C370837172
:10019800C371037202714271704700BF00231E22AF
:1001A80003604360C381C0F80630C0F80A3002809B
:1001B800704700BF2DE9F843704CE279237A9A42E0
:1001C8007FD0E279E379C2EBC20204EB8202C3EB8F
:1001D800C30304EB830392F82B101E7C8B1E9E42F4
:1001E8002CD0674AB4F864301278E16801339BB2C6
:1001F8001B2AA4F8643067D00025E379614A0133EB
:10020800A2FB0302520802EB42029B1ADBB2E37123
:1002180000293BD028F02AFED4F89830C01AB0F54F
:10022800FA7F04DB002345F0040584F89630D4F8FF
:100238009030002B32D12846BDE8F883E37904F1E9
:100248001007C3EBC30307EB830361B11944002212
:1002580013F8015B2A44994292B2F9D1D3B203EB65
:100268001222FF2A38D0464AB4F864301278E1687E
:1002780001339BB21B2AA4F86430BDD1424BB4F8B9
:1002880064205A8004229A800025B6E794F89630B4
:10029800002BBFD1D4F89030002BCCD03B4A126849
:1002A800D31AB3F5FA7FC6D994F86630032B04BF86
:1002B8000023A4F88C300023C4F890302846BDE809
:1002C800F883E1680025A3E72F4BB4F864205A802F
:1002D80003229A80002590E7E37901221C2101FB83
:1002E8000323FA18FD5C5DB3012D15D1082E3CD00F
:1002F800234AB4F864301278E16801339BB21B2AB0
:10030800A4F864307FF478AF1F4BB4F864205A80A7
:1003180006229A80002570E7194AB4F864301278EA
:10032800E16801339BB21B2AA4F864307FF464AF00
:10033800154BB4F864205A8005229A8000255CE7A2
:10034800192EE16824D00E4AB4F8643012780133CB
:100358009BB21B2AA4F864307FF44FAF0A4BB4F861
:1003680064205A8006229A8047E794F89430002B3C
:1003780040F0E9801D46E1683FE700BF30220020D9
:10038800646C0020ABAAAAAAE86B0020B45C002029
:1003980092F802C05578036992F8038092F80490A5
:1003A8009679D77992F808E00CF0070C45EA0C2505
:1003B80008F03F0892F80AC01D8095784FEA48185F
:1003C80048EAD508957BA3F8028092F803804FEAA3
:1003D800890040EA981092F8058008F0010840EA80
:1003E8008820988006F00F06507992F80780F60169
:1003F80046EA5000567AD8804FEA4E0E4EEAD81E8A
:1004080006F0030692F80680D07A07F07F074EEAD6
:10041800462E3F01567BA3F80AE047EA18171F81CA
:1004280006F00707967A92F809E0C00040EA5610ED
:10043800167B0CF01F0C46EA072605F03F05577B94
:10044800D8816D014FEA8C1C45EAD7004CEA9E0C16
:10045800A3F80CC01E825882D07B92F80EE0D77C9D
:1004680092F8128092F811C0967C557D800040EA7F
:100478009E1092F810E07F000EF0010E47EAD817A0
:100488000CF00F0C92F8108040EA8E204FEACC1C3A
:1004980092F814E098824CEA580C907DA3F816C0A4
:1004A80006F07F0692F811C00EF0030E47EA4E27B9
:1004B800360146EA1C165F8392F814C0577D1E83E6
:1004C80005F01F05AD01C00045EA9C0540EA57103C
:1004D800D8839D83D57D40F2147015F0010F14BFA9
:1004E8000646AD2615F0020F08BFAD201E845884BD
:1004F8002B0759D415F0040F0CBF0125092594F8D2
:100508006630032B1AD194F86700137E2B4FA26E26
:1005180004EB4006C3EB8323A7FB0373B6F86C70A8
:100528005B09D21B01301A4400F00F0084F8670001
:100538001009A6F86C30A266A4F88C00204B1B6842
:10054800C4F8903059E65378102B14D01ED8D3B97C
:1005580094F89530E168002B7FF44EAE94F897300C
:10056800012B23D919B10A78303A012A1ED900255E
:1005780084F8975041E694F895300BB984F8955073
:10058800012384F89630E168002536E6303B012BDC
:10059800F9D852F8010FE46091889379A18020601E
:1005A800A3710849002528E60325A8E7013301229D
:1005B80084F8973084F8962000251EE61F85EB51B5
:1005C800B45C00203022002010B5044628F04EFC10
:1005D800514B002283F89C2093F89D20012A19D9B9
:1005E800D3F8A02040F6AC51821A8A4212DD4B495A
:1005F800B3F864200978013292B21B29A3F8642069
:1006080005D1474AB3F86410518001219180002236
:1006180083F89D20E2B27E2A27D093F89D1019B363
:1006280093F89D101B2956D893F8AC1000296CD06C
:10063800002182F0200283F8AC1093F89D10022963
:1006480003D1012A08BF83F8A420197A93F89D40A2
:1006580093F89D00C1EBC10103EB810121440130F6
:10066800C0B2CA7383F89D0010BD93F89D20012A7B
:100678002BD91A7A2B49DC790132A1FB02C149082E
:1006880001EB4101521AD2B294420AD093F89D402C
:10069800197A1A72C1EBC10103EB8101621E81F85C
:1006A8002B2093F8A4203AB10121002283F89C1052
:1006B80083F8A420C3F89800184A12781B2A1ED081
:1006C8000022C3F8A80083F8AC20012283F89D20FB
:1006D800C3F8A00010BD002283F89D200F49B3F88D
:1006E80064200978013292B21B29A3F86420BBD197
:1006F8000B4AB3F8643053800223938010BDD3F8BB
:10070800A8200749821A0A80DAE77D2A95D10122B2
:1007180083F8AC2010BD00BF30220020646C00209C
:10072800E86B0020ABAAAAAA03788B4283BF034BCD
:1007380003EB4101B1F8B0000020704730220020DF
:10074800044B93F8C80018B1002283F8C820012090
:10075800704700BF30220020F0B4C24D95F8EF601A
:1007680005F1CC020244B41E1444A24200F0788180
:10077800013A013C002341F2210112F8017F83EA8A
:1007880007231FB2BBB2002FACBF5B0081EA430353
:100798009BB21F0454BF5B0081EA43039BB21F0452
:1007A80054BF5B0081EA43039BB21F0454BF5B0044
:1007B80081EA43039BB21F0454BF5B0081EA4303F1
:1007C8009BB21F0454BF5B0081EA43039BB21F0422
:1007D80054BF5B0081EA43039BB21F0454BF5B0014
:1007E80081EA4303A2429BB2C7D10644B21E013E2E
:1007F8002A442E4492F8CC1096F8CC2002EB012221
:1008080092B29A4201D0F0BC704795F8F020002AC5
:1008180000F02181431CDBB25C1C2C442B444FF4B8
:10082800AF6193F8CC6094F8CC3003EB06239BB20D
:1008380001FB03F31B1303F54873012AA5F8B03035
:1008480000F00981C31CDBB25C1C2C442B44022A37
:1008580093F8CC6094F8CC3003EB06239BB201FBF1
:1008680003F34FEA233303F54873A5F8B23000F0D9
:10087800F280431DDBB25C1C2C442B44032A93F802
:10088800CC6094F8CC3003EB06239BB201FB03F356
:100898004FEA233303F54873A5F8B43000F0DB8042
:1008A800C31DDBB25C1C2C442B44042A93F8CC6097
:1008B80094F8CC3003EB06239BB201FB03F34FEA19
:1008C800233303F54873A5F8B63000F0C48000F16F
:1008D8000903DBB25C1C2C442B44052A93F8CC603A
:1008E80094F8CC3003EB06239BB201FB03F34FEAE9
:1008F800233303F54873A5F8B83000F0AC8000F155
:100908000B03DBB25C1C2C442B44062A93F8CC6006
:1009180094F8CC3003EB06239BB201FB03F34FEAB8
:10092800233303F54873A5F8BA3000F0948000F13A
:100938000D03DBB25C1C2C442B44072A93F8CC60D3
:1009480094F8CC3003EB06239BB201FB03F34FEA88
:10095800233303F54873A5F8BC307CD000F10F03AE
:10096800DBB25C1C2C442B44082A93F8CC6094F826
:10097800CC3003EB06239BB201FB03F34FEA23338E
:1009880003F54873A5F8BE3065D000F11103DBB25A
:100998005C1C2C442B44092A93F8CC6094F8CC3086
:1009A80003EB06239BB201FB03F34FEA233303F562
:1009B8004873A5F8C0304ED000F11303DBB25C1CBD
:1009C8002C442B440A2A93F8CC6094F8CC3003EBDF
:1009D80006239BB201FB03F34FEA233303F5487365
:1009E800A5F8C23037D000F11503DBB25C1C2C44EB
:1009F8002B440B2A93F8CC6094F8CC3003EB0623F5
:100A08009BB201FB03F34FEA233303F54873A5F8C0
:100A1800C43020D000F11703DBB25C1C2C442B44FB
:100A28000C2A93F8CC6094F8CC3003EB06239BB2E5
:100A380001FB03F34FEA233303F54873A5F8C630E7
:100A480009D000F11903DBB25A1C2A442B4493F84D
:100A5800CC3092F8CC30012385F8C830F0BC704710
:100A68000023C2E63022002070B55C4C064628F010
:100A7800FDF9D4F8F430C4F8F400C01AB0F5FA5F00
:100A88001AD9002384F8F83084F8F930A12E2FD031
:100A9800A22E00F09C8094F8F92094F8EF300025FD
:100AA800A2B16A1C6119D5B2F6B29D4281F8CC6038
:100AB80084F8F8500CD070BD94F8F850002DE5D0AB
:100AC80094F8F92094F8EF30002AEAD19D42F2D147
:100AD80094F8FA30052B72D0062B03D194F8CD3058
:100AE8001E2B0DD0002384F8F93084F8F83070BD3F
:100AF80001221B2384F8F92084F8EF300025D0E781
:100B08006A1E002A4FF0000150DD08460B462344B8
:100B1800013093F8CC30DBB283EA0105ED074FEAE8
:100B2800530348BF83F08C0383EA5105EE074FEA6D
:100B3800530348BF83F08C0383EA9105ED074FEA1E
:100B4800530344BF83F08C03DBB283EAD105EE077D
:100B58004FEA530344BF83F08C03DBB283EA1115D9
:100B6800ED074FEA530344BF83F08C03DBB283EAFB
:100B78005115EE074FEA530344BF83F08C03DBB2F1
:100B880083EA9115ED074FEA530344BF83F08C03C2
:100B9800DBB283EAD1155908EB0748BF81F08C0115
:100BA800C0B248BFC9B282420346B0DC224492F8C0
:100BB800CC308B4296D10320FFF7CEFD92E7002080
:100BC800FFF7CAFD94F8CD301E2B8BD198E7012290
:100BD800232384F8F92084F8EF308FE730220020AF
:100BE80007299DBF034B03EB8101B1F8FC000020EE
:100BF800704700BF302200201A4B93F81C2132B1F5
:100C080093F820210021A82A83F81C1101D0002084
:100C1800704793F83321002AF9D110B4DFED126A36
:100C280003F5907103F1F80003F59872B4EE047AB5
:100C3800CC780B7903EB042307EE903AF8EEE77AC9
:100C4800B0EE666AA7EE876A02318A42FCEEC67A7F
:100C580017EE903A40F8043FEAD101205DF8044BC2
:100C6800704700BF302200200080BBC310B5044687
:100C780028F0FCF80F4BD3F83821C3F83801801A54
:100C880041F288329042E4B205D983F8204101222A
:100C980083F83C2110BD93F83C219918142A81F857
:100CA800204103D1012283F81C2110BD0132D2B2A8
:100CB800EEE700BF30220020034B03EB4101B1F8FF
:100CC8004001C008704700BF30220020724B93F8E3
:100CD8006021002A00F0C28070B493F86141B3F833
:100CE800625103EB4401002091F8676191F8682193
:100CF80083F8600142EA0622954202D0002070BCC7
:100D0800704793F86521012A00F0AA80812AF6D15C
:100D18000320102C40F2A68093F8694193F867519C
:100D280093F8681193F86A2141EA052142EA0422FE
:100D38001024A3F84011A3F8422183F8614193F8E5
:100D48006B1193F86C21032C42EA0122A3F8442189
:100D5800D5D093F86D1193F86E21042C42EA012244
:100D6800A3F84621CBD093F86F1193F87021052C86
:100D780042EA0122A3F84821C1D093F8711193F8EF
:100D88007221062C42EA0122A3F84A21B7D093F82F
:100D9800731193F87421072C42EA0122A3F84C211D
:100DA800ADD093F8751193F87621082C42EA012208
:100DB800A3F84E21A3D093F8771193F87821092C42
:100DC80042EA0122A3F8502199D093F8791193F8B7
:100DD8007A210A2C42EA0122A3F852218FD093F8F3
:100DE8007B1193F87C210B2C42EA0122A3F85421B1
:100DF80085D093F87D1193F87E210C2C42EA0122CC
:100E0800A3F856213FF47BAF93F87F1193F8802124
:100E18000D2C42EA0122A3F858213FF470AF93F851
:100E2800811193F882210E2C42EA0122A3F85A215B
:100E38003FF465AF93F8831193F88421102C42EAAC
:100E48000122A3F85C217FF45AAF93F8851193F837
:100E5800862142EA0122A3F85E2150E7002070476C
:100E6800104656E7002C3FF44AAF93F8671193F801
:100E78006821012C42EA0122A3F840213FF43FAF48
:100E880093F8691193F86A21022C42EA0122A3F827
:100E980042217FF454AF32E73022002038B50446AF
:100EA80027F0E4FF444AD2F88C31C31AB3F57A6FBD
:100EB80016D892F89031C2F88C01B3B1022B1FD02A
:100EC800242B92F8611175D901330231DBB2490044
:100ED8008B4282F890311BDB01318B4263D038BDE5
:100EE8000023C2F88C0182F89031A82CF7D1002396
:100EF80082F86031A2F8623192F86111204603E06D
:100F0800E0B282F861010146D51885F86401DBE793
:100F1800B2F86231E4B283EA042424B2002CB8BFE8
:100F280041F22101A3B2B4BF81EA43035B009BB243
:100F38001C0446BF41F2210181EA43035B009BB2D6
:100F4800180446BF41F2210181EA43035B009BB2CA
:100F5800190446BF41F2210181EA43035B009BB2B9
:100F68001D0446BF41F2210181EA43035B009BB2A5
:100F78001C0446BF41F2210181EA43035B009BB296
:100F8800180446BF41F2210181EA43035B009BB28A
:100F9800190446BF41F2210181EA43035B009BB279
:100FA800A2F8623138BD0021012382F8901182F83D
:100FB800603138BDE0B2A7E730220020F8B5134D04
:100FC80095F8A9210AB90120F8BD114B1C682368BE
:100FD8005E6A46B1204605F5CA71B047002385F818
:100FE800A9310120F8BD05F5CA77BE1800E02368CD
:100FF8009B68204698470028F9D0236817F8011BFA
:101008001B6820469847B742F1D1E7E73022002015
:101018002C4C002003788B4210D9094B03EB81013B
:1010280093F8DC31D1F8AC011BB900F5777080B2C8
:101038007047400800F5777080B27047002070470D
:10104800302200202DE9F84327F010FFCD4C05464B
:1010580094F8DD0180B9042294F8A93153B1D4F889
:1010680000323BB1ED1AB5F57A7F03DB0023104659
:10107800C4F80032BDE8F88394F8DE11002384F840
:10108800DD31002900F0308194F8E031BE4F94F84A
:10109800F0215BB213F1630FB8BF97F90030002A53
:1010A80041D013F1310F80F2B18113F1380F80F282
:1010B800B18113F13D0F80F2B18113F1420F80F23B
:1010C800B18113F1450F80F2B18113F1470F80F21E
:1010D800B18113F1490F80F2B18113F14A0F00F089
:1010E800B18113F14B0F00F0B08113F14C0F00F0F8
:1010F800B08113F14D0F00F0AF8113F15C0FB8BF51
:10110800642680F24981D4F8F401DFF888C200FB34
:1011180006F08CFB00C6C017C0EB661004EB820615
:1011280080B2C6F8AC013B7094F8EC7194F8ED31DC
:1011380094F8EE0194F8EF611B0443EA0763334324
:1011480043EA002303F0F020B0F1E02F00F0C38061
:10115800102794F8040294F8E231D4F8086294F85D
:101168000CC23678034103F00F039E4210D90B2BB3
:101178000ED8002A40F0F38094F8E28194F8E3E175
:1011880004EB83030CEA08080EEB082EC3F8ACE165
:1011980094F8E431034103F00F039E4210D90B2B5E
:1011A8000ED8002A40F0DF8094F8E48194F8E5E155
:1011B80004EB83030CEA08080EEB082EC3F8ACE135
:1011C80094F8E631034103F00F039E4210D90B2B2C
:1011D8000ED8002A40F0CB8094F8E68194F8E7E135
:1011E80004EB83030CEA08080EEB082EC3F8ACE105
:1011F80094F8E831034103F00F039E4210D90B2BFA
:101208000ED8002A40F0B78094F8E88194F8E9E114
:1012180004EB83030CEA08080EEB082EC3F8ACE1D4
:1012280094F8EA31034103F00F039E423ED80D2F94
:1012380032DD94F8EC31034103F00F039E4210D9DC
:101248000B2B0ED80AB19A420BD094F8EC8194F883
:10125800EDE104EB83030CEA08080EEB082EC3F853
:10126800ACE1102F18D194F8EE3143FA00F000F0F9
:101278000F00864210D90B280ED80AB190420BD025
:1012880094F8EE2194F8EF3104EB800002EA0C0C9C
:1012980003EB0C23C0F8AC31D1B194F8E2311B0652
:1012A80016D4C4F8005205220120D5E60B2BBED86F
:1012B8000AB19A42BBD094F8EA8194F8EBE104EBC6
:1012C80083030CEA08080EEB082EC3F8ACE1AEE77E
:1012D80005220120C0E694F8E20100063FF538AF88
:1012E8002A480C27036034E727F0C0FD2649284B1D
:1012F8004A78A3FB00035B0C12B394F8E00194F85E
:10130800E121D2B2122A18BF012A08D002F0EF0256
:10131800A2F1A202B2FA82F2520902B94A70D4F8D2
:10132800F81194F8F02199B18B4228D0591A012963
:1013380056D094F8DE11A4F8FC01C4F8F831F3E6AD
:1013480094F8E02194F8E10100EB022080B2E6E78E
:10135800A4F8FC01C4F8F83194F8DE11E4E69342ED
:101368007FF40AAF14E793427FF41EAF28E7934255
:101378007FF432AF3CE793427FF446AF50E794F8EE
:10138800DE11D1E630220020000000209C08002059
:1013980083DE1B431F85EB516FF05B080C2630483A
:1013A80006F1FF3900EB490E00EB46069EF801E016
:1013B80096F801C010F91960ACEB0E0C981B00FBF5
:1013C8000CF0A8EB060690FBF6F0704440B200283B
:1013D80001DA002697E66428A8BF6420064692E64C
:1013E800002AA6D0B4F8FC61D4F8F4111D4F861B6E
:1013F800143E01FB06F187FB0176C917A1EBE60154
:1014080004EB820689B2C6F8AC1192E76FF0300897
:101418000126C4E76FF037080226C0E76FF03C08E2
:101428000326BCE76FF041080426B8E76FF04408CC
:101438000526B4E76FF046080626B0E76FF04808BF
:101448000726ACE798460826A9E76FF04A08092658
:10145800A5E798460A26A2E798460B269FE700BF0D
:10146800302E030867666666344B5B68C3F308036F
:1014780070B4CBB9EFF31183B3B9314A314E324D61
:101488001368AC6811688B42FAD131688C42F7D87E
:101498002E4A15684FF47A7101FB05F2141BB4FB50
:1014A800F5F401FB034321E0EFF31181102383F3EB
:1014B800128803F1E023C9B29D681A6812F4803FCC
:1014C800234A1EBF012414609D681D4B1E681368C3
:1014D80081F311881D4A14684FF47A71334401FB73
:1014E80004F2521BB2FBF4F201FB0323194AD2F8AF
:1014F8001012C2F810325B1A41F288318B420AD9B5
:10150800C0B2012382F8E00182F81432002382F885
:10151800DD3170BC704792F814320F2BF9D8D1180E
:101528000133DBB2C0B2102B81F8E00182F814322B
:10153800ECD1012382F8DD3170BC704700ED00E08A
:10154800B45C0020BC5C002010E000E0B85C002027
:10155800B05C002030220020036933F8110000EB52
:101568008000C01000F55C7080B27047436993F842
:101578002320002A00F0CF802DE9F0477B4ADE7D4A
:10158800127800211A2A06F0040506F0080483F8E8
:10159800231000F0C280002D40F0CC80002C40F0D9
:1015A800D980254693F802A093F8068093F801E0C5
:1015B8000269DF7893F8049093F807C00AF00700EF
:1015C80008F00F014FEAC1184EEA002107F03F0763
:1015D800187A1180997893F805A093F80AE07F01AA
:1015E80047EAD107D97857804FEA890949EA91191A
:1015F800997B0AF0010A01F03F014F0149EA8A216B
:101608009180597948EA5101D1800CF07F0C997981
:1016180093F807804FEA0C1C4CEA111C597AA2F87F
:1016280008C0400040EAD81001F0030140EA412018
:1016380093F80DC0D97A50810EF01F0E587A4FEAF0
:101648008E1E4EEA90009081187B93F80AE00CF009
:10165800070C40EA0C20C90093F80DC0108241EA3B
:101668005E11D18147EADC01518293F80FE093F8CB
:101678000E80597CDF7C93F812C0587D4FEA8E0E9D
:101688004EEA981E93F8108008F001084EEA882E5A
:1016980001F00F0193F81280A2F814E093F810E01B
:1016A8007F00C90141EA5E0147EAD81793F814E0C0
:1016B80093F81180D1820CF07F0C4FEA0C1C997DB5
:1016C8000EF0030E4CEA181C47EA4E2716F0010FDD
:1016D80093F814E0A2F818C000F01F0093F815C0A2
:1016E800578340F2147314BF1F46AD278001C90009
:1016F80016F0020F40EA9E0041EA5C1108BFAD23D4
:101708009083D183178453840CBB002D0CBF012018
:101718000920BDE8F0871046704715491F8C0E80D8
:1017280075B147F002021A8412B274B147F003028D
:101738001A8409E01A8C94B942F002021A8431E73B
:101748008CB147F001021A8412B24A802AE70320BA
:10175800BDE8F0871A8C42F001021A8422E742F0B1
:1017680003021A841EE73AB22546EEE7646C0020AD
:10177800E86B00203B4B5B68C3F30803F0B42BBB5A
:10178800EFF3118313BB384A384F394E1368B568E5
:101798001468A342FAD13C68A542F7D8354A1668BE
:1017A8004FF47A7404FB06F2551BCA69B5FBF6F5CB
:1017B80004FB03539A1A40F6AC54A2422EDC91F86B
:1017C800224074B3182C38D9F0BC7047EFF3118459
:1017D800102383F3128803F1E023E4B29E681A68A9
:1017E80012F4803F244A1EBF012515609E681E4BD7
:1017F8001F68136884F311881E4A15684FF47A74B9
:1018080004FB05F23B44921BB2FBF5F204FB0323F5
:10181800CA6940F6AC549A1AA242D0DD002281F877
:1018280022200F28D0D10122CB61087081F8222014
:10183800002381F82330F0BC7047631CDBB2192BFE
:1018480081F822300855F3D10C4B1B781A2B08BFAE
:101858000B4B4FF0010081F8230008BF9A80F0BCC1
:10186800704700BF00ED00E0B45C0020BC5C0020C5
:1018780010E000E0B85C0020B05C0020646C002040
:10188800E86B0020094BDFED0A6ADFED0A7A03EB0B
:10189800810191ED867AB8EE477AE7EE267AFCEE7A
:1018A800E77A17EE903A98B2704700BF30220020CE
:1018B80001F11F3F00405C44714A92F8583233B13D
:1018C80092F85E320021162B82F8581201D00020BF
:1018D800704792F85D32022BF0B440F2CE8002F5E8
:1018E8001770184402F25E21D32311F8014F6340A8
:1018F80013F0800F4FEA430318BF83F0D503DBB220
:1019080013F0800F4FEA430318BF83F0D503DBB20F
:1019180013F0800F4FEA430318BF83F0D503DBB2FF
:1019280013F0800F4FEA430318BF83F0D503DBB2EF
:1019380013F0800F4FEA430318BF83F0D503DBB2DF
:1019480013F0800F4FEA430318BF83F0D503DBB2CF
:1019580013F0800F4FEA430318BF83F0D503DBB2BF
:1019680013F0800F4FEA430318BF83F0D503884272
:10197800DBB2BAD192F87512994202D00020F0BCBD
:10198800704792F8640292F8636292F8681292F8CB
:101998006C3292F8704292F86052B2F860C2D2F893
:1019A800607200F00F00C00140EA560001F01F010C
:1019B80092F86762C2F82402890141EA960103F0AD
:1019C8003F0392F86B6292F86F02C2F830125B0123
:1019D80043EAD60392F85F12C2F83C3204F07F045F
:1019E800B2F86432D2F86462240105F0070544EACB
:1019F800101041EA0521C3F30A13C2F84802B2F8ED
:101A08006852C2F81812B2F86A42D2F86C02B2F8F8
:101A18006E12C2F82832D2F87032C0F38A10C1F3BD
:101A28004A01C3F3CA13CCF3CA0CC7F38A37C6F307
:101A3800CA366D09C4F30A04C2F84002C2F8441257
:101A4800C2F81CC2C2F82072C2F82C62C2F8345222
:101A5800C2F83842C2F84C3292F8743292F87302E3
:101A6800B2F87212DB0043EA5013C1F38A01C2F8DC
:101A78005432C2F85012012081E7D3237AE700BF1D
:101A880030220020F8B5614B614C1D68EB07064613
:101A980015D594F89C3294F89D229A4231D1D4F805
:101AA800A032B3429CBF002384F8A832D4F8DC02E9
:101AB800301A00281EDD012084F8E002F8BD15F474
:101AC80000553FD1D4F8CC3204F531709847C70798
:101AD8000AD5504A94F86630C0F3400110F00A0F56
:101AE80091701FD0052B5ED04307D8D5012384F809
:101AF800E132D4E794F8E0020028DFD194F8E1025B
:101B0800F8BDD4F8A402434A84F89D323044002139
:101B18000123C4F8A0020120917084F8A83284F847
:101B2800E002CBE7D4F8A422052B1644C4F8A0623F
:101B38004FD0420765D40123012084F8A83284F8E5
:101B4800E002BBE7B4F8AC320BBBB4F8AE32F3B981
:101B5800B4F8B032DBB9B4F8B232C3B9B4F8B432BD
:101B6800ABB9B4F8B63293B9B4F8B8327BB9B4F8B3
:101B7800BA3263B9B4F8BC324BB9B4F8BE3233B92F
:101B8800B4F8C0321BB9B4F8C232002B87D0D4F8ED
:101B9800A4322049334400200122C4F8A0328870BE
:101BA80084F8A82282E794F86730A26E04EB430118
:101BB8000133B1F86C70A1F86C50D21B110903F015
:101BC8000F03A4F88C10410784F86730A2668DD4FF
:101BD80065E794F86720A36E04EB420103F2FF3334
:101BE800B1F86C5001325B1B02F00F0240F2FF3576
:101BF80084F867201A09A1F86C50A366A4F88C2011
:101C080097E7012384F8E13295E700BFB468002024
:101C1800302200200000002000207047002070477C
:101C280001207047024B03EB4101B1F8E402704711
:101C380030220020044B93F8080318B1002283F8DF
:101C480008230120704700BF30220020024B03EB1D
:101C58008101B1F80C0370473022002030B40246ED
:101C6800002305251E2400E00232032BD4BF0021E7
:101C7800012100F813100133042B04D0122B5470E7
:101C8800F2D130BC70475570EEE700BF024B0360DD
:101C980043608360C3607047E803D007024B03EBDF
:101CA8004101B1F8AC02704730220020024B03EB2F
:101CB8004101B1F8AC02704730220020DD4B93F8A7
:101CC80044230AB9002070472DE9F04F93F84623C2
:101CD80093F845430021012A8BB083F8441300F0A0
:101CE800EF8093F84C53023D15F0FF0500F09D81FD
:101CF80003F5537005444FF6FF7210F8011B521A92
:101D0800A84292B2F9D1110A1C4494F84B038842B4
:101D180040F0878194F84A13D2B2914240F0818111
:101D280093F86C23202A40F07C8193F84703821CA7
:101D38000192821D029200F10802039200F10A0248
:101D4800049200F10C02059200F10E02069200F1D5
:101D58001002079200F11602089200F1180200F131
:101D6800040A00F1120800F11407099200F11A0B95
:101D7800019A53FA82F1029A53FA82FC039A9CF868
:101D88004D939CF84CC353FA82F20192049A53FA89
:101D980082F6059A53FA82F5069A53FA82F4079A5C
:101DA80053FA82F2029253FA88F20392089A91F84F
:101DB8004D8391F84C1353FA82F218440592099A0C
:101DC80053FA8AFE53FA87F790F84DA390F84C031C
:101DD800049753FA82F29EF84D7306929EF84CE3EC
:101DE800019A00EB0A2001EB08210EEB072E92F86E
:101DF8004D8392F84C73C3F80C0396F84D23019267
:101E08000CEB0920C3F8180395F84DC396F84C63FA
:101E180095F84C53019AC3F8101306EB0226049A5E
:101E28000299C3F814E392F84DE392F84C2391F821
:101E38004D9391F84C030399019602EB0E22C3F8D7
:101E48003423059A94F84DA3019E94F84C43C3F8A3
:101E5800206307EB082700EB092091F84D8391F8E0
:101E68004C1392F84D63C3F82C0353FA8BFB92F88A
:101E78004C03069AC3F81C7305EB0C2504EB0A24E3
:101E880001EB0821C3F82453C3F8284392F84D53B3
:101E9800C3F830139BF84D4392F84C139BF84C232E
:101EA80000EB0620C3F8380301EB052102EB0422FE
:101EB8000120C3F83C13C3F840230BB0BDE8F08FF2
:101EC80093F84703B3F848831D18821C019253FA0C
:101ED80082F295F84C6395F84D7392F84DC392F8D9
:101EE8004CE300F1040A53FA8AF2851D4644294658
:101EF8000295B64492F84D5392F84C6353FA81F226
:101F08000EEB072E00F108070397764453FA87F77C
:101F180092F84CE392F84D2306EB0C2600F10A01E7
:101F280097F84DC30491B64497F84C6353FA81F778
:101F38000EEB052500F10C0197F84D8305912E4411
:101F480097F84C5353FA81F706EB022600F10E017D
:101F580097F84C230691354453FA81F605EB0C2586
:101F680000F1100153FA81FE154496F84C2397F8B6
:101F78004D7396F84DC39EF84C63079105EB082501
:101F880000F112082A4453FA88F502EB072200F1FF
:101F9800140795F84D939EF84DE3324495F84C6339
:101FA80053FA87F500F1160102EB0C22324495F83A
:101FB8004CC3089153FA81F602EB0E2200F1180186
:101FC80095F84D530991624496F84CE396F84DC341
:101FD80002EB092253FA81F6724400F11A0B96F8C3
:101FE8004CE396F84D6302EB052253FA8BF51C443B
:101FF800724495F84CE394F84B9395F84D5394F844
:102008004A4302EB0C2296440EEB062E0EEB052EED
:1020180004EB09291FFA8EFE1FFA89F9F1453FF4EE
:10202800A7AE00200BB0BDE8F08FFF214FF6FF727E
:102038006AE600BF30220020504B5B68C3F30803F8
:1020480070B4CBB9EFF31183B3B94D4A4D4E4E4D31
:102058001368AC6811688B42FAD131688C42F7D8A2
:102068004A4A15684FF47A7101FB05F2141BB4FB58
:10207800F5F401FB034321E0EFF31181102383F30F
:10208800128803F1E023C9B29D681A6812F4803FF0
:102098003F4A1EBF012414609D68394B1E681368AF
:1020A80081F31188394A14684FF47A71334401FB7B
:1020B80004F2521BB2FBF4F201FB0323354AD2F8B7
:1020C8007013591AB1F5FA7F14D90021C2F8703388
:1020D80082F8741382F87513C3B2042B26D0202B10
:1020E80024D092F86C1309B9552838D0814216D1FA
:1020F800002109E092F8751399B992F87413C2F89F
:102108007033C3B20029E8D092F845035418013857
:10211800814284F84C331DD0013182F8741370BCAD
:102128007047013982F8751370BC7047002102248A
:102138004FF6FF7082F84743A2F848035418581E18
:10214800814282F86C3382F8453382F8461384F86A
:102158004C33E1D1012382F8443370BC7047012429
:102168001F2582F86C03A2F8481382F84C3382F8D2
:10217800464382F8474382F84553CDE700ED00E037
:10218800B45C0020BC5C002010E000E0B85C0020DB
:10219800B05C0020302200200D49B1F8763330B50C
:1021A80008224AF2010580EA030414F0010F4FEAFD
:1021B800530318BF6B4002F1FF3218BF9BB212F0F5
:1021C800FF024FEA5000EED1A1F8763330BD00BFD0
:1021D8003022002008461CF0D5BC00BF0FB400B563
:1021E80083B004AB054953F8042B0193002028F071
:1021F8001BFC03B05DF804EB04B07047DD21000858
:10220800F8B50F4BD3F87853D3F87C43D3F88063F1
:10221800A9B1831E00EB410727441E4404441D4412
:1022280034F9022B36F9023F35F9020F134403EB58
:10223800D373A0EB63001CF061FDA742F0D1F8BD99
:1022480030220020F8B5304C304D34220021204691
:1022580030F07DFD2E4B95F88763B3F85C20A283A0
:10226800103393E8070095F8887384F8207004F118
:10227800080383E807001EB1032E01D0012E02D007
:10228800237F022B01D00020F8BD224A617F13680A
:102298002148206000290CBF6F206E2043F0020304
:1022A80013601E4984F821004FF4807302221648F7
:1022B800A3826160A27724F01DFEB5F894332BB990
:1022C80095F88633F3B1A3770120F8BD07EE903A6D
:1022D8009FED136ADFED136AF8EEE77A002386EEC6
:1022E800277AC5F89833C5F8A033C5F8A83337EE70
:1022F800267AC6EE877AC5EDE77AC5EDE97AC5EDA7
:10230800EB7ADDE70120F8BDEC49002030220020FF
:10231800C84E00202C4A0020FD6E0208A9C1020800
:1023280083F9223E6F12833AF8B526F09FFD274EB7
:10233800054600F1FA07344696F8D03306EB8303D6
:10234800D3F8B00327F0B0FA38BB94F8D03304EBD5
:102358008303D3F8B00327F0A7FA28B326F086FD45
:10236800D4F8D833401B9842C4F8D4032BD805F5C9
:10237800FA7594F8D03304EB8303D3F8B00327F04D
:1023880093FAB0B994F8D03304EB8303D3F8B003CD
:1023980027F08AFA90B1002005E026F067FDB842E0
:1023A800CAD94FF0FF30F8BD26F060FDB842CCD94D
:1023B800F7E726F05BFDA842DBD9F2E726F056FDE9
:1023C800A842DFD9EDE70120EDE700BF3022002069
:1023D80038B5002405460470FFF7A6FF431C11D04A
:1023E800012803D12B78A040184328700134082C09
:1023F800F2D1054A2B7892F8DC134B4082F8DC3393
:10240800012038BD0020FCE7302200202DE9F843E8
:10241800204C214D266807460236A84695F8D03349
:1024280005EB8303D3F8B00327F03EFA10BB26F080
:102438001DFD00F1270626F019FD8642FBD8002570
:102448002C464FF0010998F8D03308EB8303D3F8F2
:10245800B00327F029FA18B109FA05F31C43A4B20E
:10246800092D06F134060BD026F000FD8642FBD874
:102478000135E8E723689E42D0D80020BDE8F883FC
:1024880040F201232340B3F5007FF6D164083C7085
:102498000120F3E7B45C00203022002037B502ADFC
:1024A800FF2305F8013D04462846FFF7AFFF00B9B2
:1024B8001CB99DF8070003B030BD013CF4E773B5C3
:1024C800204C002284F8762384F8772384F8DD23CF
:1024D80084F8DE230144FF228DF807200546CEB29A
:1024E8002846FFF793FFF8B115F8010BFFF754FEE4
:1024F800EBB2B342F4D194F8DF33EBB11248FFF7F3
:1025080085FF88B11148FFF781FF68B10DF1070019
:10251800FFF77CFF40B1B4F87623B4F8DD339A4274
:1025280002D0C2238DF807309DF80700A0F13003D0
:102538005842584102B070BD0DF10700FFF766FF21
:10254800F2E700BF302200200D2600200E260020D2
:102558002DE9F0472DED068B8A4B8B4F1B788B4D61
:10256800BA7D85F8E323132B84B000F2E5820122BB
:1025780087499A400A4208BF00237A79854C85F832
:10258800E433131C18BF0123834E84F864303D22C2
:10259800002384F86820C6E90033FA7984F85E30AD
:1025A800C6E90233232085F8E53385F8E62326F0CB
:1025B8000DFD237C002B40F0BB820123237404AA69
:1025C8004FF00008682302F80B8D7521734884F8D2
:1025D800148063751EF04CFD002840F0BD83022373
:1025E800237494F85C30022B10D0002084F86A0021
:1025F8006B4AD37823B194F86930003318BF0123AC
:10260800D37004B0BDEC068BBDE8F087654984F84B
:102618005E300A6884F86A3042F001020A60624B50
:10262800FA786248624923600023E0616160BB7107
:10263800002A40F08382BB789FED5E7A591E84F8A9
:10264800671007EE903AF8EEE77A17EE101A67EE81
:10265800877A3B794F4884F86630FCEEE77A84F84D
:102668006520C4F85F10C6ED007A27F091FC3B782E
:102678000BB184F85E30012384F869301FF012FC36
:10268800D6F800A09FED4C0A07EE90AAF8EE677AFC
:102698004FF0030880EE270A2FF090FC40F23553E4
:1026A80090FBF8F89845A8BF98461FFA88F94FEAB2
:1026B80059034FEA9906A5F8F433A5F8EC93A5F861
:1026C800EE6307EE909A9FED3D7ADFED3D6AF8EEF6
:1026D800677A87EE270A67EEA67AB7EE087A30EEB1
:1026E800470AC5EDFC7A2FF069FC0128B8BF012024
:1026F80085F8F60333499FED345ADFED345ADFEDA0
:10270800343A9FED342ADFED342A9FED343A9FEDB9
:10271800341ADFED341ADFED346A002307E00133A1
:10272800B6EE007A202BA1EC017A00F0908007EE3B
:10273800903AF8EEE77A67EE857A37EEA57ABDEE3D
:10274800C76A16EE102A2032402AE8D8F4EEE57A55
:10275800F1EE10FA40F306829FED246A01E0B0EE34
:10276800677AB4EEC67AF1EE10FA77EE667AF6DC9E
:10277800F4EEE37AF1EE10FA40F1F1819FED1C6A74
:102788003AE000BF646C0020245C00203022002066
:1027980048800A00C84E0020145C0020D84E002053
:1027A800000000202C4A0020999F020890C1793D22
:1027B80091C002080000FA42002474490000344520
:1027C8000000003D282600203C8C4F3EDB0FC93F0F
:1027D800DB0F49C092E741B99730083C15A82ABEDB
:1027E800DB0FC9BFDB0F4940DB0FC940E4CB164103
:1027F800E4CB16C1F0EE477AF4EEC67AF1EE10FAA1
:1028080037EEA67AF6D4B4EEE57AF1EE10FA40F394
:102818009E8131EEC77A27EE076AB0EE624AA6EECD
:10282800024A0133202BF0EE430AE4EE060AF7EEE3
:10283800007A66EE474A37EEC77AF6EE007AA4EEDB
:10284800A07A27EE277AA1EC017A7FF470AFB97FDE
:10285800A4F8D03B06EE101A0C2303FB0AF3EC4A4B
:102868009FEDEC5AB2FBFAF1B8EEC66AB2FBF8FA81
:102878009A4538BF9A46C5EE060A89B2B1FBF9F106
:10288800C9B292FBF8F3F87F84F8B919E24A06EE68
:1028980010AA07EE901AB8EE465AF8EEE75ABCEEC0
:1028A800C55AF7EE004ADFEDDD1A9FEDDD1A9FED00
:1028B800DD4A9FEDDD7A9FEDDD8ADFEDDD6A9FED74
:1028C800DD3ADFEDDD3A9FEDDD2ADFEDDD2A84EE2E
:1028D800A50AB8EE455A05EE903A25EE215A06EEBD
:1028E800106A07EE900AF8EEE55AB8EE466A65EE09
:1028F800815AF8EEE77A35EE041A65EE865A77EED5
:10290800677ABDEEC17A75EE841A17EE10EABDEE4D
:10291800C57ACC4BC4F8C83B17EE10CABDEEE17AB5
:1029280003F1280117EE107ABDEEE57AA833C4F852
:10293800D43B17EE106A102367EE887AA4F8C03BE0
:102948001423C4F8C41BA4F8CC3B02F5627102F14D
:10295800100382ED000A0EF1200E0CF1200C203736
:102968002036C5EDFA7A7C32C820402E21F8020BB9
:1029780000F27881F4EEC35AF1EE10FA40F31182B6
:10298800B0EE657A9FEDB30A9FEDB16A01E0B0EE53
:10299800677AB4EEC67AF1EE10FA77EE407AF6DC92
:1029A800F4EEE37AF1EE10FA40F101829FEDA90A04
:1029B8009FEDA96A01E0F0EE477AF4EEC67AF1EEEF
:1029C80010FA37EE807AF6D4B4EEC47AF1EE10FA43
:1029D80040F39A8133EE477A27EE076AB0EE628AAF
:1029E800A6EE028A402FDFED9D7AE8EE067A27EE02
:1029F800060AA0EE277A27EE207A77EE249A34EE9C
:102A0800C70AC4EEA97A27EE877A20EE270AB1EE24
:102A1800479A40F23281B0EE666ABCF1400F83ED0E
:102A2800007AC3ED016A83ED029A83ED036A83EDB0
:102A3800040AC3ED066AC3ED056AC3ED086AC3ED6F
:102A4800076A00F29280B4EEC35AF1EE10FA40F32E
:102A5800AB81B0EE457A9FED7F0A9FED7D6A01E07C
:102A6800B0EE677AB4EEC67AF1EE10FA77EE407AF5
:102A7800F6DCF4EEE37AF1EE10FA40F18F819FED87
:102A8800750A9FED756A01E0F0EE477AF4EEC67AB2
:102A9800F1EE10FA37EE807AF6D4B4EEC47AF1EE9D
:102AA80010FA40F33B8133EE477A67EE077AB0EECF
:102AB800628AA7EE828ABEF1400F9FED686A9FED99
:102AC800620AA8EE276A67EE277AB0EE648AA7EE54
:102AD800867AF0EE647AA7EE008AE7EE407AC7EECF
:102AE800888A49D9F0EE667AB6EE006AB7EE000A2F
:102AF80084EE887A2433C3EDBE8A27EE066A27EE71
:102B0800000A67EE277A83EDBA6A83EDBC6A83ED23
:102B1800BB0AC3EDBD7AC3EDC06AC3EDBF6AC3ED9E
:102B2800C26AC3EDC16A9A427FF41EAF01205FE515
:102B3800012B7FF454AD42E500231EE5072A3FF43C
:102B48007AAD84F867309FED417A012379E5B4EED8
:102B5800C17AF1EE10FA48BF33EEC77A5BE6B0EE01
:102B6800677A50E6F0EE477A02E6F7EE008ABEF1A1
:102B7800400FB0EE688AB5D8B4EEC45AF1EE10FA38
:102B880040F31B81B0EE417A9FED320A9FED306A27
:102B980001E0B0EE677AB4EEC67AF1EE10FA77EE9D
:102BA800407AF6DCF4EEE37AF1EE10FA0FD5B0EEE7
:102BB800677A9FED280A9FED286A01E0B0EE677AF0
:102BC800B4EEC67AF1EE10FA77EE807AF6D4F4EE27
:102BD800C47AF1EE10FA40F3AB8073EE677A27EE11
:102BE800A76AB0EE629AA6EE029A9FED1C7AA9EE49
:102BF800067A27EE860AB8EE009AE0EE077AB6EE75
:102C0800006A34EEE70A67EE897A20EE066A6FE713
:102C180040420F000000484284580020E5A6C5390C
:102C280027D4D236DB0FC93F0000C8420AD7233C5D
:102C380000000000DB0F4940DB0F49C092E741B9B3
:102C48009730083C4C2E0308F304353F00007A44C3
:102C5800E4CB1641DB0FC940E4CB16C115A82ABE48
:102C6800DB0FC9BFB7EE000A402FF0EE409AB0EE76
:102C7800669AB0EE667A3FF6CEAEF4EEC45AF1EE3E
:102C880010FA40F39780B0EE616A5FED0E8A1FED8F
:102C9800108A01E0B0EE676AB4EEC86AF1EE10FA85
:102CA80076EE687AF6DCF4EEE37AF1EE10FA0FD5F8
:102CB800B0EE676A5FED198A1FED198A01E0B0EE80
:102CC800676AB4EEC86AF1EE10FA77EEA87AF6D41D
:102CD800F4EEC47AF1EE10FA34DD73EE677A27EE7B
:102CE800A78AB0EE62AAA8EE02AA1FED246AAAEE8D
:102CF800086A67EE888AB8EE008AE8EE867A67EE98
:102D0800887A87EEA96A88E65FED2B7AB4EEE77ACF
:102D1800F1EE10FA48BF33EEC77A5DE65FED307A20
:102D2800B4EEE77AF1EE10FA48BF33EEC77ABCE6A4
:102D38001FED357AF4EEC77AF1EE10FA48BF73EE5C
:102D4800E77A4CE71FED3A6AF4EEC67AF1EE10FA2C
:102D580048BF73EEE77AC2E741460DF106023848EC
:102D68001EF086F99DF8063003F07E038DF80630D4
:102D780028B1682B03D1012384F85C3031E49DF835
:102D8800053003F07E03682B8DF8053018D0702BC2
:102D98007FF427AC042384F85C3022E4B0EE677A31
:102DA8007BE6F0EE657AFBE5F0EE457A61E6B0EE9B
:102DB800677A09E6F0EE617A75E7F0EE417AF1E6B6
:102DC800022302AA06211E4884F85C301EF0B6F9D8
:102DD800E8B19DF80D309DF80B209DF809109B0077
:102DE800520002F0020203F00403134301F001024F
:102DF80013430CD0012B1ED0022B17D003F0030372
:102E0800032B13D0032025F09DFDFFF7EABB0DF13E
:102E180007020C210A481EF02BF90028F2D09DF871
:102E2800073013F00F03EDD0042B04D0012384F8EE
:102E38005D30FFF7D6BB002384F85D30FFF7D1BBC8
:102E4800D84E0020F0B5184E002383B00446082160
:102E5800D6F8780486F89D3002AD26F08BFAD6F8BD
:102E68007804812126F086FA8923D6F8786425F833
:102E7800023DE71D14F8010B324629461AF008FAFC
:102E8800BC42F7D1BDF806301A0A52FA83F3C3F1EF
:102E9800FF039BB23246D8B20021ADF806301AF0D3
:102EA800F7F903B0F0BD00BF3022002038B5384B29
:102EB8005B68C3F30803CBB9EFF31183B3B9354AA1
:102EC800354D364C1368A06811688B42FAD12968D1
:102ED8008842F7D8324A11684FF47A7202FB01F43B
:102EE800241AB4FBF1F402FB034421E0EFF311814F
:102EF800102383F3128803F1E023C9B298681A6893
:102F080012F4803F274A1EBF012010609868214BA9
:102F18001D68136881F31188214A11684FF47A7487
:102F280004FB01F22B44121AB2FBF1F204FB032456
:102F38001D4DD5F89830E31AB3F5FA6FC4BF0023D6
:102F480085F89C3095F89C301BB90023EB60012074
:102F580038BD00221549E86819F0D2FD95F89C3073
:102F680073B9134B1B781B2B04D1D5F87C34114A49
:102F7800E31AD3800023C5F87C44EB60012038BDF8
:102F88000D48FFF75FFF002385F89C30E9E700BF95
:102F980000ED00E0B45C0020BC5C002010E000E024
:102FA800B85C0020B05C002030220020CC22002039
:102FB800646C0020E86B0020742F030838B50D4CB2
:102FC80005460146D4F8800426F0D4F9B4F8840400
:102FD800082380EA052041F2210210F4004F4FEA4D
:102FE800400018BF5040013B80B2F6D1A4F88404D9
:102FF80038BD00BF3022002070B582B0044625F0ED
:1030080035FF964AD2F8883403F24C4383420CD3F6
:1030180092F88C344BB1022B8ABF92F85D020520DE
:10302800023098420DDC02B070BD01210023C2F8C5
:10303800880482F85C4282F88C1482F8583202B014
:1030480070BD591CC9B288421344D4BF012500255C
:1030580082F88C1483F85C4282F85852E3DC92F8C8
:103068005E520023162D82F88C34DCD06B002906C2
:1030780048BF83F0D503DBB213F0800F4FEA430358
:1030880018BF83F0D503DBB213F0800F4FEA430378
:1030980018BF83F0D503DBB213F0800F4FEA430368
:1030A80018BF83F0D503DBB213F0800F4FEA430358
:1030B80018BF83F0D503DBB213F0800F4FEA430348
:1030C80018BF83F0D503DBB213F0800F4FEA430338
:1030D80018BF83F0D503DBB292F85D4213F0800F7E
:1030E8004FEA430318BF83F0D503022CDBB247D95C
:1030F8005B490C44023111F8016F734013F0800FE3
:103108004FEA430318BF83F0D503DBB213F0800FF7
:103118004FEA430318BF83F0D503DBB213F0800FE7
:103128004FEA430318BF83F0D503DBB213F0800FD7
:103138004FEA430318BF83F0D503DBB213F0800FC7
:103148004FEA430318BF83F0D503DBB213F0800FB7
:103158004FEA430318BF83F0D503DBB213F0800FA7
:103168004FEA430318BF83F0D503DBB213F0800F97
:103178004FEA430318BF83F0D5038C42DBB2BAD1C0
:10318800104490F85B1299427FF44DAF7A2D2AD003
:1031980022D97C2D27D07D2D7FF445AF92F861325E
:1031A800042B4AD0052B34D0032B7FF43CAF92F884
:1031B800633292F862222B482B49202BA8BF202388
:1031C800092AA8BF092280F8292180F82A310A7221
:1031D8004B721AF087FD26E7282D7FF424AF234B86
:1031E80001221A701FE7224A136E572B3FF71BAFB5
:1031F800204921480D684C6808219954134401213D
:10320800C3F80150C3F80540136E01700933136603
:1032180009E71A4B1B78EBB1124C012194F82921CC
:1032280004F590702FF093FD154B164A1B68012189
:103238002D3384F82B111360F5E6104B1B78002B07
:103248003FF4F1AE02A9002301F8013D064818F049
:10325800CDFBE8E61AF046FDE5E600BF3022002087
:103268008C24002060420020344B0020B94B002001
:10327800C44B002091240020BA4B0020694700204D
:10328800B45C00207846002070B540F2014444EA5E
:10329800800425F0EBFD0C4E054696F8D03306EB7E
:1032A8008303D3F8B003E3070AD526F099FA640834
:1032B80005F1340507D025F0D9FD8542FBD8ECE7A8
:1032C80026F088FAF3E770BD3022002070B5194C5B
:1032D80094F8D0330D4604EB8303013D0646EDB266
:1032E800D3F8B0031DF02AF90135002384F87633AA
:1032F80084F8773335443078FFF7C6FF16F8010BAA
:10330800FEF74AFFAE42F6D194F8DF333BB194F8AA
:103318007603FFF7B9FF94F87703FFF7B5FF94F842
:10332800D03304EB83042021D4F8B003BDE8704007
:1033380026F0D6B83022002013B5FE23ADF80430AD
:1033480000238DF8063003788DF80730044613B94A
:1033580001238DF8063004210DEB0100FFF7B6FFBD
:103368000220FFF79BF8FF280CD121786068FFF74F
:10337800ADFF2820FFF792F8A0F1300358425841DA
:1033880002B010BD0020FBE737B5054608461446D5
:10339800FFF7D2FF78B10123022101A88DF805308B
:1033A8008DF80450FFF792FF2046FFF777F8A0F159
:1033B80030035842584103B030BD07B50E4B026880
:1033C800934317D0FF230421ADF8043043788DF8D8
:1033D800063083788DF807300DEB0100FFF776FF94
:1033E8000220FFF75BF8A0F130035842584103B0C0
:1033F8005DF804FB0120FAE700FFFF0037B505463A
:1034080008460C46FFF7D9FF60B123788DF80450C1
:10341800022101A88DF80530FFF758FF2178606870
:10342800FFF74DF803B030BD10B5064CD4F8800452
:1034380025F09CFF0028F9D0D4F88004BDE810409E
:1034480025F08CBF3022002010B5FFF7EDFF0A4AA7
:10345800B2F88D3483EA00239BB2082141F221049B
:1034680013F4004F4FEA430318BF634001399BB27E
:10347800F6D1A2F88D3410BD3022002038B5064DA3
:10348800002455F8340001342AF0ECF82AF08BF9BE
:10349800272CF6D138BD00BF7C2F03087FB5094B18
:1034A8000493094B0393094B0293094B0193094B6E
:1034B8000093094A094B0A490A482AF0FFF907B05C
:1034C8005DF804FB8D5B0308925B03089C5B0308B3
:1034D800A55B0308B15B0308465B0308AB6B0020E0
:1034E800555B0308625B030807B575210DF10702F8
:1034F80014481DF0BDFDF8B19DF8071012482AF0D8
:10350800DDF90DF107021A210E481DF0B1FDA8B131
:103518009DF807100D482AF0D1F90DF107021B217B
:1035280008481DF0A5FD58B19DF8071008482AF075
:10353800C5F903B05DF804FB0146DFE70146E9E79A
:103548000146F3E7D84E0020B75B0308CA5B0308BF
:10355800DD5B0308044B054A05491B6812680968C6
:1035680004482AF0ABB900BFB4F7FF1FB0F7FF1F3C
:10357800ACF7FF1FF05B030838B50B4B03EBC00437
:103588000D4694F86023094803EB8203D3F88412AC
:103598002AF053F894F866332BB1691C0448BDE847
:1035A80038402AF04AB838BD302E0308EC610308C9
:1035B800889903082DE9F8432AF0F5F81448154DC1
:1035C800154E164FDFF85C802AF0E4FE00242B7DB0
:1035D800072194FBF1F1C1EBC10206EB8303A21AA8
:1035E800013201313846D3F884922AF026F86A7DF0
:1035F80049464AB10A482AF061F901340C2C05F110
:103608001C05E4D1BDE8F88340462AF057F9F4E7F1
:10361800045C030804000020302E0308095C03083A
:103628001B5C0308EB61030870B5374C37482AF078
:1036380019F894F82530012B60D13548354E2AF019
:10364800A9FE94F82A3013B194F8273013B194F8EE
:10365800263043B9B6F898502F482AF003F88DBBA6
:103668002E482AF097FE2E482E4D29F0FBFF94F89D
:10367800293005EB8303D3F840042AF01FF9B6F884
:103688009410294829F0D9FF94F826302BBB2748F5
:103698002AF080FE264829F0E5FF94F82A3005EB49
:1036A8008305D5F848042AF009F9B6F89610214898
:1036B80029F0C3FF94F82A309BB91F48BDE8704031
:1036C8002AF068BE4FF47A72B5FBF2F102FB115290
:1036D80092B21A482AF0F2F8C5E719482AF05AFEB9
:1036E800D8E794F8273023B91648BDE870402AF087
:1036F80051BE1548BDE870402AF04CBE1348BDE8DD
:1037080070402AF047BE00BFB46A0020225C03085C
:10371800385C0308D86C00203F5C03085A5C030837
:103728006C5C0308302E0308825C03089F5C030866
:10373800AF5C0308CA5C0308ED5C0308645C03081B
:10374800A65C0308A05C0308A75C0308F25C0308F6
:1037580038B50D4627F0A4FD0C4B1978884204466D
:1037680005D201460A482AF0A9F8204638BD2DB1ED
:10377800FF2803D107482AF0A1F8F6E701390648DF
:103788002AF082F84FF0FF34EFE700BF026C002008
:10379800005D0308115D0308245D03082DE9F04F5F
:1037A800354C87B08046354A2378608802EB83031E
:1037B800D3F8849228F052F8D0E901A30493304B4F
:1037C80093F88F3413B9CDF810A09A4608F0400347
:1037D800DFF8B8B005930026A379002B08BF0123B2
:1037E8009E4206DB274B08349C42DCD107B0BDE87B
:1037F800F08F6279237906FB0323049A0136D55C9E
:10380800BAF1000F11D1B5FA85F77F090DB305F0AC
:103818000F032D0940350293CDE900654B465A4602
:10382800394640462AF0C2F8D6E71AF80330EA1AB1
:1038380057425741C3B103F00F021B0940330292AC
:10384800CDE900635A464B46394640462AF096F879
:10385800DCE7059B002BBFD100964B460A4A394648
:1038680040462AF0A3F8B7E700964B46064A394681
:1038780040462AF083F8C9E790310308302E030840
:1038880030220020703203085F5D0308495D030899
:103898002DE9F04F0025DFF888A1DFF89C91DFF8CB
:1038A80084818FB02E462F4606A9E8B211F0C2FBDC
:1038B8009DF82030002B5FD0022D0A9C40F08A80B2
:1038C800002C7ED007EE904ADFED516AF8EEE77AD9
:1038D80086EEA77AFDEEC77A17EE90BA98F890446C
:1038E800069B012C6FD99BFBF4F41A460221494828
:1038F80029F0A3FE0B9A002A00F0818002FB04F055
:103908004FF47A73B0FBF3FC0D9B002B79D003FBCB
:1039180004F04FF47A71B0FBF1F19AF80300062D28
:103928001CBF6744761800286DD04FF47A7E0C9837
:10393800B0FBFEF004900A2091FBF0FE00FB1E1184
:10394800CDE902E19CFBF0F100FB11C0CDE90010CC
:103958002146314829F0B2FF022D08D198F8903459
:10396800012B04D95A4607992C4829F0A7FF34237C
:1039780003FB05930022DA620135182D94D1284BF8
:10398800DB78DBB12749D1F89C24D1F89804D1F829
:10399800A01452094FF47A73B0FBF3F3224829F0CC
:1039A8008DFF0A2296FBF2F302FB136697FBF2F1F6
:1039B800009602FB11721D4829F080FF0FB0BDE888
:1039C800F08FA3468AE7079A1948022129F035FEA5
:1039D8005C468FE75CB107EE904ADFED0D6AF8EEC2
:1039E800E77A86EEA77AFDEEC77A17EE904A069A2E
:1039F8000848294629F021FE4FF0000B7AE7944643
:103A080082E7194689E721460A4829F057FFA3E7C4
:103A180000247449735D0308955D0308B95D0308C4
:103A2800A46B002030220020C95D0308E95D03086B
:103A3800825D0308C55D030854010020F0B54D4BB5
:103A48004D48196891B04FF47A73B1FBF3F129F03E
:103A580035FF05A827F05EF958B1484A05A90023A3
:103A6800B2F9002008A827F0AFF908A9444829F0BE
:103A780025FF444B44491A78444B09884448454C2F
:103A880003EB8203444AD3F85434127829F016FF22
:103A98004821424829F0D1FD29F085FEB4F8A45404
:103AA8003F4A4049404829F009FF404A404B4148B5
:103AB800ADB2D31A2946B4F8A62429F0FFFE3E4930
:103AC800D1F8D821002A45D007EE902ADFED3B6ACD
:103AD800B8EEE77AC6EE877AFDEEE77ACDED037A9F
:103AE800B4F8A8349BB26BB1B4F8A834DFED336AEC
:103AF80007EE103AB8EE477AC6EE877AFDEEE77A17
:103B080017EE903AD1F8701159B107EE901ADFED1F
:103B18002B6AF8EEE77A86EEA77AFDEEC77A17EEFB
:103B2800901AB4F8AA04264E264F6428CDE900312D
:103B38000146039B2448A8BF642129F0BFFE2348FF
:103B480029F090FD224B1C6801252CB929F02BFE89
:103B580011B0F0BD0392C3E794FAA4F3B3FA83F368
:103B680005FA03F256F82310384624EA020429F02D
:103B780064FDEAE7B45C0020175E0308E24A00200F
:103B8800315E0308016C0020D46B0020302E03083E
:103B9800425E030830220020006C0020685E0308A3
:103BA8000020001000080000785E030800000408E8
:103BB80000F003089C5E03080000002000247449FC
:103BC80060510308EB610308D65E03081C5F030815
:103BD8006C47002038B5114D0446204629F01BFCDF
:103BE80060B10F4B0F4893F934164B1C0ABF0E4BAC
:103BF800C9B25978BDE8384029F060BE204627F0A0
:103C08004FFB052804D8C0B20CF034FC2C46E4E77E
:103C180005210648BDE8384029F036BEB99A0308A0
:103C280000000020325F0308A46B0020415F0308F6
:103C3800052838B50D460ED8074C84F834060748D1
:103C4800FFF7C8FF29F0AFFD2946102029F0C0FD75
:103C5800FF2384F8343638BD00000020B99A0308E1
:103C680038B5114D0446204629F0D5FB60B10F4BFD
:103C78000F4893F935164B1C0ABF0E4BC9B2197879
:103C8800BDE8384029F01ABE204627F009FB022873
:103C980004D8C0B213F036FF2C46E4E702210648E8
:103CA800BDE8384029F0F0BDB99A030800000020AB
:103CB800365F0308A46B0020465F03082DE9F74F21
:103CC8003E4B3F4C1A785B78009084F8352684F890
:103CD80034362AF037FD27F0AFFD27F0D5FD002553
:103CE800DFF8E0B0A8460D27364B00996F43DE1980
:103CF800D6F80090484627F0FBFA00283DD0B8F1E6
:103D0800000F01D029F04FFD49462F485F4429F0A4
:103D180094FC0021304629F03BFD29F044FD3B7915
:103D280003F01803082B3DD0102B3FD0304629F064
:103D3800D4FD0D2303FB05B3B3F8090027F08EFD6E
:103D48000746C0B1304629F06EFBD7E9012182460B
:103D580002440144304629F0F0FB60B9019049461D
:103D68001A4829F06AFC7968019A5144304629F0CA
:103D780091FC29F018FD08F10108013540F24B13B8
:103D88009D42B0D12AF0C8FCFF2384F8353684F868
:103D98003436B8F1000F0DD10D4803B0BDE8F04F2F
:103DA80029F072BD0B48FFF75BFFBFE70948FFF733
:103DB80011FFBBE703B0BDE8F08F00BFA46B002084
:103DC80000000020A838030856990308615F03081B
:103DD800715F0308B99A0308022838B50D460ED852
:103DE800074C84F835060748FFF73AFF29F0DBFC53
:103DF8002946082029F0ECFCFF2384F8353638BD25
:103E080000000020B99A03082DE9F341054629F07E
:103E180002FB044620B129F04DFD02B0BDE8F08157
:103E2800284601AA2A49DFF8A8802EF035F8274647
:103E3800054626467DB9022CEDD1A7F57A73B3F570
:103E48007A7F20D94FF4FA634FF47A7221492248D5
:103E580029F01AFDE1E74CB1012C0FD001AA414627
:103E680000202EF019F801340546E3E70121284621
:103E7800FFF76EFC431C0646F0D1CEE7284627F034
:103E88000FFA0746EAE7B8B22BF0FAFBFF2EBCEEB2
:103E9800C00A124B0BD1124AF8EE407A1278AA42A5
:103EA80012DC10EE101A0F4829F008FDB5E7F8EEFD
:103EB800407A03EB860310EE102A31460A48C3ED18
:103EC800007A29F0FBFCA8E7E3EC017A0135E6E784
:103ED8006E8D03089F6203087E5F0308DC260020BE
:103EE800026C0020A45F0308975F03082DE9F04FD8
:103EF800014691B006468648864D29F0DFFC864B80
:103F08008649C3F800D000232B70854B09784024DC
:103F18001C700622012330460BF0F0FB0A2025F026
:103F280055F82B78DBB20C2B40F2ED809DF80C9005
:103F3800B9F1FE0F2ED0B9F1FF0F15BF0F241524CC
:103F4800002601269C4240F0DE80611EC9B2684608
:103F580018F034FB10AB1C4414F8413C834240F089
:103F6800CE8006F1FF38B8F1010F9DF80D4013D946
:103F780004F01F07650961374C466A4829F072FB4F
:103F8800022E71D0013D042D6AD8DFE805F00A5DE4
:103F9800616965000226D5E79DF80E709DF80F50FF
:103FA800EBE761482AF0F6F96048DFF8D491DFF8CA
:103FB800D4B129F057FB00254FF0030A1DF805106E
:103FC8004846013529F039FB0C2D55D129F0EBFB7A
:103FD800022E5BD06422B4FBF2F102FB11423B4695
:103FE800D2B2C9B2524829F069FC5FFA88F8B8F130
:103FF800010F7BD84F4A504B9DF810104F48504D39
:1040080000290CBF1146194629F058FC9DF81110DB
:104018004C4B4D4800290CBF2946194629F04EFC47
:10402800022E63D19DF81240484829F01BFB9CB32F
:10403800FF2C41D00A22B4FBF2F102FB1142D2B2AA
:10404800434829F03BFC2AE042482AF0A3F9ABE7B1
:1040580041482AF09FF9A7E740482AF09BF9A3E7CF
:104068003F482AF097F99FE700230DF11F008DF8CC
:104078003F302AF08FF997E795FBFAF303EB4303F8
:104088009D429BD1584629F0EDFA97E73A462146DA
:10409800344829F013FCA8E728462AF07BF99DF854
:1040A8001340314829F0DEFA54B1FF2C21D02146C3
:1040B8002E4829F003FC06E02D482AF06BF9EEE7BC
:1040C8001F482AF067F91E4D1E4E294F00240DEB9C
:1040D80004031A7D8AB1FF2A14BF32463A462146A4
:1040E8002448013429F0EAFB042CF0D111B0BDE8D2
:1040F800F08F1F482AF04EF9E5E72A46EFE71E48F9
:1041080029F0C2FBF2E71D482AF044F9EEE700BFA8
:10411800D35F03083A4100202C410020026C0020A4
:104128003B410020E45F0308EF5F03081D600308BC
:1041380034600308BC5F0308B35F03086B600308BF
:10414800C35F0308116303088260030889600308DA
:104158009D600308F65F0308FE5F03080660030816
:104168001560030850600308A560030889990308CF
:10417800C75F0308B5600308C0600308D060030880
:104188002F600308978D03082DE9F74F054629F09E
:1041980042F9044618B9374B9B78042B04D829F008
:1041A80089FB03B0BDE8F08F01AA3349DFF8E0804E
:1041B800DFF8E090DFF8E0A028462DF06DFE01273B
:1041C800264640B92D4B2E4A1B689B1A2D4A18BF0C
:1041D80001231370E5E766B90121FFF7B9FA421C1C
:1041E8000446DED001AA2449002001362DF054FEF1
:1041F800E7E727F055F82F28054636D807B30BF020
:10420800A7FE062D0CD1052024F0E0FEDAF80030D8
:104218001B0126D5FF2C20D0E0B2FFF767FE09E08E
:10422800012024F0D3FE18490123EAB20978E0B24C
:104238000BF064FA2946484629F040FB0027D1E7ED
:104248000628F0D1E2E7FFF751FE9BF80030F8B2FC
:10425800834207F10107F6D8ECE70027DFF828B01A
:10426800F3E70A482AF096F8E4E72F21404629F0B8
:104278000BFBB7E7006F00206E8D03081C6F002052
:10428800BDA20008E87C0020026C0020D960030869
:10429800F9600308E8600308B46800202DE9F04FCE
:1042A80085B000AF82462DF017FB814630B94748EC
:1042B8002AF070F81437BD46BDE8F08F504626F056
:1042C800EFFFC6B2632EE8465AD80A2E34BF02243E
:1042D800032409F1070323F00703ADEB030D0134B1
:1042E800544409F1FF3B6D46EA46002214F8013CAC
:1042F8003B72102114F8023B7B7207F10800BA7276
:104308007A6022F019F80AF8010BAAEB050399451F
:104318007A68EBDCBD605D44FD602D4D05F2CC494B
:1043280005F2D44349463046C5F8D034C5F8CC34F4
:104338001EF06CFE2C4628B32E21D4F8D40525F0A7
:10434800B9FF3146D4F8D40525F0B4FFD7E90213F4
:10435800C91AC9B2D4F8D40525F0ACFFD4F8CC14E6
:10436800D4F8D034D4F8D405C91AC9B225F0A2FFBC
:10437800D4F8D034D4F8CC2493421DD9C54699E753
:104388000424A6E74946304611F0FCFC0028D3D1A6
:1043980007F1080130461EF03FFD0028CCDA07F18E
:1043A8000801304614F014F80028C5DA2121D5F8A0
:1043B800D40525F07FFFE1E75A1CC4F8D02419780A
:1043C800D4F8D40525F076FFD2E700BF19610308B9
:1043D8003022002038B50C4C05460C4829F042F92B
:1043E800D4F8D40525F058FFD4F8D80510F098FF74
:1043F8002BF0BAF9064B074A25B107490748086068
:10440800DA6038BDDA60FCE730220020306103084A
:1044180000ED00E00400FA05FC9F0020EFBEADDED1
:1044280038B50A4DD5F8D40525F036FF084B0024D9
:104438001C7085F8DC45C5F8DC462BF023FB2046CC
:10444800FFF7C8FFC5F8D44538BD00BF30220020AB
:104458000D47002008B5074B93F8E02622B193F8E2
:10446800E1360BB923F0F2F813F06AFB0020BDE83F
:104478000840AFE7302200200120ABE72DE9F04FDC
:104488004A4085B09A46DFF87080DFF87090D343D1
:1044980006460D4600240393204611F025F9039B98
:1044A800144A034214BF0127002710EA05030293A8
:1044B8004FF00C0303FB04233946D3F808B0CDF8BA
:1044C80000B014BF42464A465346304629F056FAD1
:1044D800029ACDF800B0002A14BF4A464246534615
:1044E80039463046013429F061FA172CD4D105B089
:1044F800BDE8F08F98320308FE9903083C61030871
:1045080070B505462DF0E8F90646E8B1114C94F867
:10451800E1268AB110482DF0DFF9B042024604D1F5
:1045280029460D482EF03FFC58B10B4A0B490C4860
:10453800BDE8704029F0A8B90422294606482EF0A3
:1045480044FC012384F8E03603490648BDE870407E
:1045580029F0B4B930220020CC6B00204361030855
:10456800536103087D61030870B505462DF0B4F961
:104578000646E8B1114C94F8E1268AB110482DF0AE
:10458800ABF9B042024604D129460D482EF00BFC87
:1045980058B10B4A0B490C48BDE8704029F074B972
:1045A8001422294606482EF010FC012384F8E03630
:1045B80003490648BDE8704029F080B93022002040
:1045C800B46B002090610308536103089B610308E2
:1045D80070B506462DF080F9124C054690B11122AF
:1045E800002120462EF0B3FB2A460F4930462EF014
:1045F800DAFB38B1102D2A46314628BF1022204652
:104608002EF0E3FB2378074A002B08BF0121064B55
:104618001CBF002113460120044ABDE8704029F060
:10462800C5B900BF444C0020978D0308A161030859
:104638007F2810B5044607D964F07F00C0B2E409AA
:104648001AF0A0FA7F2CF7D8E0B2BDE810401AF0B3
:1046580099BA00BFF0B52B4C2B4DD4F8F076D4F8AE
:10466800F4662A48D4F8E43694F8EC2694F8A812AC
:104678002D7890F82000B74285B027DB84F8FC56E7
:10468800C4F8F83684F8FD0684F8FE1684F8FF2688
:1046980001AD53201AF076FAD4F8F806FFF7C8FFF0
:1046A80094F8FC06FFF7C4FF94F8FD1694F8FE266C
:1046B80094F8FF3603932846CDE901121AF06AFAF6
:1046C8000023C4F8F036012005B0F0BDD4F8F86630
:1046D8008DF80850B3428DF80B2001938DF809002E
:1046E8008DF80A1001AD04F5DF6204D095E80300E7
:1046F80082E80300CDE7696853689942F6D1002043
:10470800E2E700BF30220020844C0020D045002082
:104718000EB470B583B007AC0646482054F8045B65
:104728001AF030FA20201AF02DFA30461AF016FA4C
:104738003A201AF027FA2A4623460949019400200C
:1047480026F072F904460A201AF01CFA054A136882
:1047580003341B1B136003B0BDE8704003B07047FF
:10476800DD210008304C00201E4A1F4B1168002232
:104778001F29C3F80027A3F80427A3F80627A3F8DE
:104788000827C3F8F02623D03E291CD04FF4FA425C
:10479800B2FBF1F1A3F80A171448B3F90A27018804
:1047A80029B1914201DD1F2A17DC92FBF1F1A3F830
:1047B8000C1781780E48003118BF01211202C3F886
:1047C800F426017070474FF40072A3F80A27E3E754
:1047D8004FF48062A3F80A27DEE70121A3F80C173B
:1047E800E7E700BFD46C002030220020A845002055
:1047F800A6450020194BB3F80427D3F8F006D3F8E0
:10480800001710B40132B3F90A4792B201300131EE
:10481800A242C3F8F006C3F80017A3F804270FDA7A
:10482800B3F80827B3F90C175DF8044B013292B2BC
:104838008A42A3F80827A4BF0022A3F808277047D4
:10484800B3F806275DF8044B00210132A3F80627C8
:10485800A3F80417A3F80817704700BF30220020F8
:104868002DE9F04F604D85B0D5F814470093904678
:1048780000290CBF04230623621C0F9F01936ED0EE
:104888000E9BA34247DDDFF874A157B1109BDA1BDA
:1048980004FB02F20123B95CD5F81C278B401342B4
:1048A80031D0009BD5F810B7A3EB080304FB03F441
:1048B80008EB0406BBF1000F3AD158F804002DF0BC
:1048C8000BF800F1050948461AF002F9002836D11C
:1048D800DAF8000095F81817A0EB0900CAF80000EC
:1048E800002936D1012385F81837BBF1000F2AD1EA
:1048F80058F804001AF032F996F904104B1C02D04B
:104908003A48FDF76BFCD5F814470E9B01349C42DE
:10491800C5F81447B9DB0E9BA3424ED0D5F8100753
:10492800019B834294BF0020012005B0BDE8F08FB1
:104938004FF0030948461AF0CBF80028C8D00120E8
:1049480005B0BDE8F08F5E4429483179FDF746FC93
:10495800D9E72C201AF016F9D5F810B7C5E7D5F81D
:1049680010A79A4503D3002005B0BDE8F08F214B6E
:10497800039103EB8A030646D3F888250292104672
:104988002CF0AAFF0B301AF0A3F8DDE90221044647
:104998000028D4D1BAF1030F98BF31461648FDF765
:1049A8001DFC1649D5F814270B6885F818471B1AFB
:1049B800541C0B60C5F8144762E701201AF088F808
:1049C8000028ABD10D4A13680A20013B13601AF086
:1049D800D9F8D5F810074FF0FF330130C5F81007A4
:1049E800C5F814379CE700BF30220020486303084D
:1049F80089990308302E030838630308304C0020D7
:104A08002DE9F04F984CA378032B18BF03238BB0E4
:104A18004FF0800018BFA37010F0E6FD074600288D
:104A280000F0AD80802110F0D5FD7E798F4B97F98D
:104A380002C053F826208E4D0092B2F5613F14BF94
:104A4800002702270023022185F82007CDE9011756
:104A58001A466046802110F083FC0C3E854B032EDD
:104A6800186040F29280844B844A1B6803EB43032E
:104A7800A2FB03235B0900F0F480402BA8BF40236E
:104A8800DBB27F4A1370002879D07E497E4B7F4A7B
:104A980091F80080E778166893F80590B4F800E07C
:104AA8009C797B4B95F866C05B88A5F8DC3818F1D3
:104AB800000818BF4FF00108003718BF012716F08B
:104AC800020F4FF0000308BF00271EF1FF3E18BF7A
:104AD8004FF0010EBCEB030C6E4995F8E028DFF8A7
:104AE800C0A1C5F8243718BF4FF0010C14F0FD0F12
:104AF8000CBF1C4601240894B9EB030001F114040F
:104B080018BF0120A2F11909012AC5F8784301F15B
:104B1800A00201F59674C5F87C23C5F880431A46AF
:104B2800C1E90133C1E90333C5F81C371C46DAF87B
:104B380000300693B9FA89F9574B07904FEA59198B
:104B480014BF48460120C6F3001BC6F3800993F83A
:104B580000A00590C6F3C00601200996D3B2591EDD
:104B6800152918D8DFE801F0666666666666666627
:104B7800626D207571795E2C2C2C1528241A474BF0
:104B880000221A700BB0BDE8F08F3D4B40221A701E
:104B980079E7714631B100FA02F10C430133DBB217
:104BA800162B1DD80132D9E749460029F3D1F9E778
:104BB80041460029EFD1F5E739460029EBD1F1E765
:104BC800069E02EB420106EB410111F8561C00312A
:104BD80018BF01210029DED10133DBB2162BE1D940
:104BE8001620C5F81C472BF0B1FA2C4CD5F8E8185C
:104BF800D5F8E42685F8E308002302202070C5F8DC
:104C08000037A5F80437A5F80637A5F80837C5F81A
:104C1800F03685F8F038C5F8E418C5F8EC280BB07C
:104C2800BDE8F08F61460029B5D1BBE70599002999
:104C3800B1D1B7E79A4534BF002101210029AAD193
:104C4800CAE709990029A6D1ACE708990029A2D199
:104C5800A8E7079900299ED1A4E7594600299AD1C7
:104C6800A0E701230DE700BFA84500206050030816
:104C780030220020344C0020D46C0020D34D621028
:104C8800384C0020646C0020246B00202C4A002043
:104C9800D46B002054290020026C0020A645002077
:104CA800B443002008B5084B9B78032B06D0FFF7C8
:104CB800A7FE064B012283F8F12808BD1EF0DAFC96
:104CC8000028F4D008BD00BFA845002030220020ED
:104CD8002DE9F04F8BB0FDF73BFC064608B1FDF718
:104CE800B1FABD4C94F8283994F82D1984F81D1997
:104CF80004F6F4070022012BFA6000F06081022B11
:104D08007ED0B64DB64B1A785F79012A00F04D81F6
:104D1800022A4ED1597884F838294A1E52B2022AFA
:104D2800DCBF1201AF499878D4BF8A580022C4F872
:104D38003C2923F009F9C4F84009062F00F2308114
:104D4800DFE817F08A0037008A00FE011A001A000F
:104D5800370094F83D39002B40F0FD817723A021DE
:104D6800A14884F83D391CF083F90190002840F0EF
:104D78009D83002384F83D39142024F027F994F802
:104D880038399A4A012B40F0608294F83D79002F17
:104D980040F05B827623A2F16800D02184F83D3987
:104DA8001CF066F994F8A039582B00F0588284F862
:104DB8003D7994F8C039012B1AD140201BF0A0FB93
:104DC80094F8C409DFF83CA2894F23F0BDF8804667
:104DD80094F8C509CAF8008023F0B6F83860B8F12D
:104DE800000F00F05B8298F80630002B00F0F48288
:104DF8002B68304623F010032B600BB0BDE8F08F12
:104E080094F82B2984F81039531E5BB2022BDCBFAF
:104E18001B01744A94F82C09D4BFD3580023C4F852
:104E2800143923F091F8C4F8180994F827390022A6
:104E380084F81C29052B3FF664AF01A252F823F031
:104E4800C15000080B4D0008C15000081950000857
:104E58000B4D00082353000894F86839002B40F0E4
:104E68009F80142024F0B2F894F838390DF10F0718
:104E7800012B3A4600F00983D0215B481CF0F8F872
:104E8800002800F05F819DF80F3084F883390322F1
:104E9800552BA4F88C2940F055813A46D121524827
:104EA8001CF0E6F89DF80F304F4803F00F011F097A
:104EB80004AA162384F88419AA2184F8857926F08F
:104EC800D3FF9DF810E09DF811109DF812709DF821
:104ED80014009DF813209DF815309DF816C041EA7E
:104EE8000E2142EA072243EA00239DF818709DF834
:104EF8001700A4F86C199DF81910A4F86E2940EA57
:104F08000C2041EA07219DF81AC09DF81C709DF8F5
:104F18001B20A4F870399DF81D30A4F8720942EAE4
:104F28000C2243EA07239DF81EC09DF820709DF8C7
:104F38001F00A4F874199DF82110A4F8762940EAF6
:104F48000C2041EA07219DF822C09DF824709DF8A5
:104F58002320A4F878399DF82530A4F87A0942EA84
:104F68000C2243EA0723A4F87C19A4F87E29DFF869
:104F780098E0A4F88039DFF894C01E4F1E481F49F6
:104F88001F4AC4F844E90123C4F848C9C4F84C7955
:104F9800C4F85009C4F85419C4F8582984F8683971
:104FA8002B6843F004032B6003E7D978187984F859
:104FB80038294B1E84F83C3984F83D09BDE694F83D
:104FC800292994F82A1984F81039531E84F81439B9
:104FD80084F8151929E700BF302200202C4A002048
:104FE800644E00204C5C0020682B0020D02B002051
:104FF8005847002021C002086F9F0208E3BF02083B
:10500800536C0208804B002070177869859F02084E
:10501800CE4D0DF1100894F81039012B00F0818164
:1050280000238DF810304246284600211CF020F855
:1050380000283FF466AE9DF81030482B7FF461AE2F
:10504800C34AC44BC4F80429C4F80839B4F924196C
:105058009FEDC16AC14D642291FBF2F302FB13126A
:1050680012B207EE902AB8EEE77A07EE903AF8EE19
:10507800E77AF2EE046AE7EE067A2B68012167EE1A
:10508800A67A084643F00803C7ED037A2B6024F09C
:10509800F1FBD4F80439B24898470021012024F0E4
:1050A800E9FB94F82639012284F83429002B3FF4CF
:1050B80029AE84F81C3925E694F81039012B00F044
:1050C8007D8100238DF81030A04D0DF11008284681
:1050D80042460A211BF0CCFF20B19DF81030482B26
:1050E80000F0628194F81039012B00F028818022A9
:1050F8000A21284624F0BAFD142023F067FF002374
:1051080042460D2128468DF810301BF0B1FF0028CB
:1051180081D09DF81030FF2B7FF47DAF42460921E6
:1051280028461BF0A5FF20B19DF81030002B7FF416
:1051380072AF8C4A8C4BC4F80429C4F8083985E747
:105148000DF10F070A2023F041FF94F83839012B9D
:105158003A463FF4FEADA02184481BF089FF0028A1
:105168003FF40AAE9DF80F30FF2B3FF405AE002345
:1051780001937E4801221E2100F1560924F076FD94
:105188004FF42F6023F0C4FEA9F1560BA0270DF1B0
:1051980010084FF0000A0223424639465846ADF837
:1051A80010A0023726F060FE9DF810209DF81130FF
:1051B800FFB243EA0223B02F29F8023FEBD1B4F83B
:1051C8009E79002307F47F4CA4F89EC907F00F07C7
:1051D8001946012021F001022244B2F89029002A40
:1051E80018BF002011F0010F1ABFD2B2534083EA52
:1051F8001223082213F4004F18BF83F4C053013A56
:105208004FEA4303F6D101311029E3D14CEA070CE8
:10521800A4F89EC9002840F02F81C3F303339F42AE
:1052280040F02A815249534A534BC4F84419C4F8F0
:1052380048295249524AC4F84C39524BC4F85019BB
:10524800C4F85429C4F85839AAE6D021A2F1680054
:105258001BF00EFF94F8A039582B7FF4AAAD4A4AE8
:105268004A4F1823A2F16C00882126F0FDFD312257
:10527800F4213E4824F0FAFC454B46484649474A43
:10528800C4F84C39464BC4F84879C4F85009C4F8F6
:105298005419C4F84429C4F8583981E618B18379F7
:1052A800002B7FF4A5AD40461BF048F9DAF8000062
:1052B80024F090FA642023F089FE386818B110228F
:1052C80000238271C3711BF0D9F9386824F0ECFA15
:1052D800B8B9DFF8D0804FF0050BA946D8F80050D0
:1052E80019F006FA04E0386824F0DEFA00287CD1C8
:1052F800D8F800305B1B3B2BF5D9BBF1010BEDD186
:105308004D46DAF800300BB100229A713B68002B49
:105318003FF46EAD00229A716AE50DF110080B4D4D
:10532800E0E694F82A3984F8153900228DF810201F
:10533800002B7FF478AE0C2384F8153973E694F8C3
:105348002A3903B90D2384F81539D0E6402B0020FB
:1053580059BF0208E19E02088988883C2C4A00202F
:10536800342B0020519E020895740208682B0020F7
:1053780010271027919F020881C002088B9F0208FE
:105388006FC00208316D0208D42B00204B6A020856
:10539800516C0208699F0208576F02080000D8592B
:1053A8006B6A0208B45C0020484B494AC4F80439C7
:1053B8000423C4F8082984F81C3947E694F82A39E4
:1053C80084F8153900228DF81020002B7FF47CAE6C
:1053D8001E2384F8153977E6002852D10F220023BE
:1053E80088F8062088F807305DE73A4B3A4938686C
:1053F800C4F8C8398022102324F032FB3868374FAC
:105408001BF012FFD9F80030354ADFF8F0C03548F4
:105418003549C2F83C7443F010034FF0640EC9F8E4
:105428000030324A9FED320AC4F8D8094FF0FF33F2
:105438004FF4E177C4F8E029C4F8E839C4F8EC3946
:10544800C4F8CCE9C4F8D0C9A4F8D479C4F8DC19F4
:1054580025F052FAD8F80030264AC4F8F039304618
:10546800002382ED060AA4F8FC3984F8F439C4F85C
:10547800F8390BB0BDE8F08F019B002B7FF479ACB5
:105488007AE48379002BA9D0B2E494F83D39002B53
:105498007FF4F2AC7723D021174884F83D391BF00C
:1054A800E7FD48B9002384F83D394BE69DF80F30F5
:1054B800FF2B3FF45EAC5CE69DF80F3084F883392F
:1054C8000322552BA4F88C29ECD1E6E4739E02083C
:1054D800196F020889B70108F82B00207011010024
:1054E80000000020A99E01081DE7010889A0010805
:1054F800DB0FC93EFC2B0020682B002090012C01FB
:1055080000B5ADF6545D01A840F64C5206492DF0A1
:10551800FAFB039B1BB101A80DF15A0198470DF640
:10552800545D5DF804FB00BFC84E0020023990EDC1
:10553800007AD0ED017AD0ED026A062913D8DFE8A7
:1055480001F0424D56616A790400B1EE676AF1EEE6
:10555800666AF1EE477A80ED006AB0EE467AC0EDF1
:10556800017AC0ED026A384B93F8363653BB374B95
:1055780093ED036A93ED005AD3ED065A27EE866A37
:10558800A5EE076AA5EEA66A80ED006A93ED046AA7
:1055980093ED015AD3ED075A27EE866AA5EE076AFE
:1055A800A5EEA66A80ED016A93ED055AD3ED025A7D
:1055B80093ED086A67EE857AE5EE877AE6EE267A55
:1055C800C0ED027A7047B1EE476AC0ED007AB0EEDE
:1055D800677A80ED016AF0EE467AC4E7B1EE477A61
:1055E800F1EE677A80ED007AC0ED017ABBE7B1EEA3
:1055F800676A80ED017AF0EE477A80ED006AB0EED6
:10560800467AB0E7B1EE477AF1EE666A80ED007A45
:10561800C0ED026AA7E7B0EE476AF1EE666A80ED70
:10562800017AC0ED007AB0EE677AC0ED026AF0EE5A
:10563800467A98E7F1EE677AF1EE666AC0ED017A8C
:10564800C0ED026A8FE700BF00000020302C002068
:105658002DE9F04FDFF858A2904CDAF8246ADAF80E
:10566800282A61682DED048B831B87B01A440546F0
:10567800CAF8282A20460193CAF8245A8847029073
:10568800002800F0C480DAF8241ADAF8282AD4F8B6
:10569800B470CAF8245A521A2A440021CAF8282A8F
:1056A80084F86310002F40F00781B4F9503094ED6E
:1056B800085AD4ED095A94ED0A6A94F85E10DFF896
:1056C800F48106EE903AB4F9523007EE103AB4F984
:1056D800543007EE903AF8EEE66AB8EEC77AF8EE7C
:1056E800E77A76EEC56A37EE657A77EEC67A04F120
:1056F8002C00C4ED0B6A84ED0C7AC4ED0D7AFFF72B
:1057080015FF9AF8E463002E00F09181644BD8F8F5
:1057180000201978D4ED077A059504F12C09B9EC25
:10572800018ABB4613295D4602F00052C34604F2C3
:105738008C4704F65C06984628EE278A47D0062947
:105748000AD1B0EE480ACDE903122CF037FC554BCC
:10575800DDE9031223F8150012B1002D01F08F8145
:10576800B0EE480AD4F8882438469047D4F8B820D0
:10577800A7F574709047D4F8582830469047D4F865
:10578800C82806F170009047DBF8002002F00052AC
:10579800B0EE408A01351146002A40F0B58298F8EB
:1057A8000000032800F08682032D89ED028A00F0AC
:1057B800938298F80010B9EC018AD4ED077A13297E
:1057C80007F5A27706F1240628EE278AB7D104EB5D
:1057D8004500344BB0F8500023F81500BCE7B2423E
:1057E80004DA0122C4F8B05984F8B42979B194F8DC
:1057F800B82994F8B9190132D2B2914284F8B8297B
:1058080000F0AE8694F8BC2B002A40F0C882264DE2
:10581800D4ED0E7AD4ED0F6A94ED107A94F8AC2991
:1058280094F8B419C5ED017AC5ED026A85ED037ADD
:105838008AF8482A8AF8491A52BB1C4BD3ED034A06
:10584800C3ED037A77EEA47ADDED014AD3ED043A8D
:1058580093ED054A93ED005A93ED026AD3ED015A90
:10586800C3ED046AFAEEEF4A76EEA33A37EE044A3D
:10587800A4EEA75AF0EE467AE4EEA35AE4EE247AB0
:1058880083ED005AC3ED015A83ED057AC3ED027A20
:1058980007B0BDEC048BBDE8F08F00BFC84E0020F8
:1058A800646C0020E86B0020145C00207C2C002035
:1058B80030220020B4680020934A944DB2F81CE0CE
:1058C8009349944EB4F95030286891F800C0517843
:1058D80042F2107808FB0EF8B8FBF0F84745B6F925
:1058E800060007EE903A00F01F8194ED1B7AD4F879
:1058F8008830F8EEE77A03F1010E37EE277ABEF129
:10590800010FC4F888E084ED1B7A00F01582D4ED0D
:105918001E5AD4ED206A07EE10EA37EEE56AB8EEB3
:10592800C75A012F86EE057A37EE257A77EEC77AC1
:1059380084ED1F7AE7EE866A84ED1E7AF0EE667AC9
:10594800C4ED216AC4ED206A00F09A86B4F9523099
:1059580094ED1C7A07EE903AD4F89C30F8EEE77A8A
:1059680003F1010C37EE277ABCF1010FC4F89CC093
:1059780084ED1C7A00F06D85D4ED235AD4ED256AA8
:1059880007EE10CA37EEE56AB8EEC75A012F86EE61
:10599800057A37EE257A77EEC77A84ED247AE7EE32
:1059A800866A84ED237AF0EE667AC4ED266AC4ED41
:1059B800256A00F07386B4F9543094ED1D7A07EE29
:1059C800903AD4F8B030F8EEE77A03F1010C37EEEC
:1059D800277ABCF1010FC4F8B0C084ED1D7A00F03D
:1059E800DE80D4ED285AD4ED2A6A07EE10CA37EEC5
:1059F800E56AB8EEC75A012F86EE057A37EE257AA2
:105A080077EEC77A84ED297AE6EE276A84ED287A5C
:105A1800F0EE667AC4ED2B6AC4ED2A6A00F064865B
:105A2800F080D4F8B420013AC4F8B420F0E604F1C8
:105A38002C0904F28C4704F65C0BD4ED077AB9EC18
:105A4800010AD4F8883420EE270A38469847D4F853
:105A5800B830A7F574709847D4F858380BEB06009F
:105A680098472D4AD4F8C83890199847D8F8003084
:105A78009B0000F1338124366C2E89ED020A07F56C
:105A8800A277DAD1D8F8001001F000511E4A907DB3
:105A980020B12248C778002F00F00885507E0028E2
:105AA8003FF4A4AE94F8AC0948BBD4ED107AFDEEEF
:105AB800E77A17EE906A002EB8BF764294F8B409D8
:105AC800B2F91A2000283FF48AAE07EE902ADFEDDB
