:020000040800F2
:10000000F0FF0010A1D50408399403081D60010811
:100010003DD604083DD604083DD604080000000083
:1000200000000000000000000000000045940308EC
:1000300041940308000000003D9403087D2E010850
:100040003DD604083DD604083DD604083DD6040834
:100050003DD604083DD604081D6F0108497001080B
:100060000D700108D16F0108956F0108B9F60008FD
:10007000A9F6000899F6000889F6000875F6000848
:1000800061F600084DF600083DD604083DD6040888
:100090003DD604083DD604083DD60408596F010832
:1000A0003DD6040895180108D9130108551901080F
:1000B000D517010815170108491601083DD604088F
:1000C0003DD604083DD604083DD604083DD60408B4
:1000D0003DD60408913001083DD60408F52F0108EB
:1000E000E16E01083DD6040851DA03083DD6040844
:1000F000A91401083DD604087915010839F600084D
:100100003DD604083DD604083DD604083DD6040873
:10011000592F01083DD604084D72020839720208B1
:1001200025F6000811F60008FDF50008E9F50008BD
:10013000D5F500083DD604083DD604083DD6040890
:100140003DD604083DD604083DD604081DCA030860
:10015000C1F50008ADF5000899F50008BD2E0108AD
:100160003DD604083DD604083DD604083DD6040813
:100170003DD604083DD604083DD604083DD6040803
:080180003DD604083DD6040839
:0801880048D104000100000051
:1001900010020100682C0020642C002000000000E8
:1001A000F40600081A023C00AE4B0020A44F0020C9
:1001B00000000000F18B000827000400E44F00203D
:1001C000E04F002000000000F60600082C001000A0
:1001D000945D0020845D002000000000219D010846
:1001E0002B002400C85D0020A45D0020000000005A
:1001F000F19C010829107800945C0020EC5D00203F
:10020000000000000000000014000300D05A00208D
:10021000645E002000000000FA06000810100300D1
:100220003C5C0020685E002000000000FE06000824
:10023000281010002C5C00206C5E002000000000E4
:100240009582010823001000745800207C5E002075
:1002500000000000AD820108F8210600245C0020A7
:100260008C5E002000000000020700080C10140142
:10027000F8530020945E002000000000E10902080D
:100280000E502C0182520020A85F002000000000C8
:100290008978040809020100085B0020D46000206E
:1002A00000000000080700080102050006520020B7
:1002B000D86000200000000001790108000205005C
:1002C000A0580020E06000200000000000000000B6
:1002D00002000C0024620020606200200000000088
:1002E0000000000008120900146200206C62002067
:1002F0000000000091840008F70106000A62002057
:1003000078620020000000000A0700080A020A00C4
:1003100084610020806200200000000010070008B7
:1003200003000100706100208C62002000000000CA
:10033000000000001B020800A4680020887C002048
:100340000000000041840008012008001C7B002000
:10035000907C0020000000001A070008190005002A
:10036000A87B0020987C00200000000022070008E5
:1003700037001E00807B0020A07C002000000000D1
:10038000280700081E00050080660020C07C0020B1
:1003900000000000460700081B00F40078630020FE
:1003A000C87C002000000000C1C202080E0202004A
:1003B000006E0020BC7D0020000000004C070008FB
:1003C0002F001100247C0020C07D002000000000D0
:1003D0004E07000805100600687C0020D47D002030
:1003E000000000006007000826000E00EC7D0020E1
:1003F000DC7D00200000000015AA02081F201C0060
:1004000050630020207E00200000000066070008E6
:10041000050204000C6900203C7E00200000000062
:100420008207000804008000B4BA002048BB002006
:1004300000000000000000000D00340050BA002051
:10044000C8BB00200000000029DE030813000400E0
:1004500038B10020FCBB0020000000008807000825
:10046000F6210C003CB1002000BC00200000000080
:100470008C070008F531700074B000200CBC00201F
:1004800000000000DDEA02080B20100064B000202C
:100490007CBC002000000000980700080101040057
:1004A00060B000208CBC00200000000000000000B4
:1004B000000104005CB0002090BC0020000000009F
:1004C000A80700080201030058B0002094BC0020D7
:1004D00000000000690A020818202C0018B0002053
:1004E00098BC002000000000718E00080610180063
:1004F00074A30020C4BC002000000000ED780408B4
:10050000FB01010070A30020DCBC00200000000003
:10051000D18E0008FC0109003CA20020E0BC0020B4
:1005200000000000E18E00080A402600407E002006
:10053000ECBC002000000000AC07000834001000F4
:1005400060A1002014BD002000000000C178040854
:100550001102080038A1002024BD00200000000086
:10056000D20700081212040030A100202CBD002088
:1005700000000000DA07000812200D0020A1002072
:1005800030BD002000000000DE070008FD01210052
:10059000589E002040BD002000000000F1FD000832
:1005A000FF010800A892002064BD002000000000A8
:1005B000A9F20008F90104003C9200206CBD002063
:1005C0000000000069FE000818020200448C0020B0
:1005D00070BD0020000000000000000017020B00AA
:1005E000388C002074BD0020000000004D840008FD
:1005F000FA010200148C002080BD002000000000E1
:10060000ED85000802020300887E002084BD0020E2
:1006100000000000000000000C020300747E0020B7
:1006200088BD002000000000C984000811000C00F3
:100630005C8000208CBD002000000000D1DB03089E
:10064000FE0109004480002098BD00200000000049
:10065000D984000803010A0038E20020D0E200201B
:1006600000000000EC07000813020300F4D700208C
:10067000DCE2002000000000F60700081600080079
:1006800094F300209CF3002000000000FA0700080B
:1006900003123300AAF7002052FA002000000000E5
:1006A0000208000825009600DEF70020BCF90020B3
:1006B0000000000000000000150070007CF8002021
:1006C0004CF9002000000000000000002A0060003B
:1006D00018F50020ECF80020000000006576040802
:1006E0001A000E0080FD00201CFE0020000000000B
:0406F00036080008C0
:1006F40000002003000003000000000500000400C7
:10070400F4011900290024010000D80E00004A0158
:10071400B400D6012900E8036400040A00010000C3
:100724002801000020003200C800D0079600140001
:1007340032002800B00440060005500014000F00E9
:10074400080100000100000000000000000000009B
:100754000000000000000000000000002000020172
:10076400000000000000000100000005000001027C
:100774000300000000000000000000000000000072
:100784000000000008000430000000000100000028
:10079400020200002B21231E64010100000001005D
:1007A4000A012900FA0000000030010000000000E6
:1007B40000005A00000000000000000000000202D7
:1007C40000019E077D0046329001200000000000D9
:1007D400000001010101FFFFFFFF00000001000014
:1007E40005434C5234000000040101006C16000063
:1007F400000000000000651B0D00190128280000FE
:1008040000000000000000000000000000000000E4
:1008140000000000000000000000000000000000D4
:1008240000000000000000000000000000000000C4
:1008340001007E05EA05B4053200E803D007000094
:100844001A03000000000000000000000000000087
:100854000000000000000000000000000403090480
:10086400120100020000004083042057000201022C
:10087400030100009594000849850008F5930008D9
:100884002D85000851940008059400081D85000872
:10089400DC00002039C400083585000831850008D3
:1008A40029850008FD8E000825850008218500089B
:1008B40058000508B9B20308C18D0308F9BD03083F
:1008C4000000000000000000FDBA030819BA030884
:1008D400000000000000000000000000F988030888
:1008E400E1850008D5850008F19400080D950008FD
:1008F4008D850008D5940008B99400080100000013
:100904005001000007000000020000000000000089
:100914000000000001020304060708090080020227
:100924001F00000053544D202020202050726F647B
:10093400757420202020202020202020302E3031CB
:10094400010102FFFF000000E001010101000000BD
:10095400ED7A01080000000084020020CC5D050847
:100964000000000000000000000000000000000083
:100974006C6005080000000000000000090300206E
:1009840004000000285C05080D00000065A90108AA
:10099400DC1C002000000000805505080D0000004C
:1009A4008DA90108D01C0020000000000057050894
:1009B4000800000000000000C41C00200400000027
:1009C400EC5505080D000000A17B0108B81C0020AF
:1009D40000000000B056050803000000B1AB010898
:1009E400AC1C002000000000DC5D050803000000D2
:1009F400B1AB0108A01C002000000000B4510508A0
:100A040001000000000000000000000000000000E1
:100A1400000000000E0000000000000000000000C4
:100A240000000000CC5D050800000000000000008C
:100A340000000000000000006C60050800000000D9
:100A4400000000000903002004000000D45B050836
:100A540003000000899D0108941C00200800000088
:100A6400EC5505080D000000A17B0108B81C00200E
:100A740000000000B056050803000000B1AB0108F7
:100A8400AC1C002000000000DC5D05080300000031
:100A9400B1AB0108A01C002000000000B4510508FF
:100AA4000100000000000000000000000000000041
:100AB400000000000E000000000000000000000024
:100AC40000000000E45D05080000000000000000D4
:100AD40000000000000000006C6005080000000039
:100AE400000000000903002004000000DC5B05088E
:100AF40003000000B1AB0108E81C00200000000066
:100B0400B4510508010000000000000000000000CE
:100B140000000000000000000E00000000000000C3
:100B2400000000000000000020700020702D720002
:100B3400D6010100000101010008000000000000CE
:100B44000000000050180020012D202D2D202D2DF7
:100B54002D2D202D2D2D0000000000000000000090
:100B64000000000000000000FFFFFFFFFA0000008B
:100B7400010000000100000001000000845105088C
:100B84008C510508AC51050800000000000000006D
:100B940000000000000000006D4B05080400000088
:100BA4002DA701080000000000000000B451050852
:100BB4000100000000000000000000000000000030
:100BC400000000000E000000000000000000000013
:100BD400000000005E6600200100C409000000005F
:100BE4005C6600200100C409000000005A66002071
:100BF4000100C40900000000586600200100C40977
:100C040000000000546600200100C4090000000038
:100C1400566600200100C40900000000526600204E
:100C24000100C40900000000506600200100C4094E
:100C340000000000185200200100C800010000005C
:100C44001652002032003075320000001452002089
:100C5400055A05001152002000FF01001352002024
:100C6400010000003C0300200F520020020000009D
:100C7400B01605081052002000FF01001252002097
:100C8400010000003C0300200E520020020000007E
:100C9400B01605080452002080C1803E0500000003
:100CA4000252002080C1803E050000000052002056
:100CB40080C1803E05000000FE51002080C1803EBE
:100CC40005000000FD51002000FF0100FC51002040
:100CD4000A320100FB51002004000000580F0508EF
:100CE400FA510020020000006C0F0508000000000B
:100CF40000000000440300207CE200209CFF2C0143
:100D0400000000000A0100200A000000780F050816
:100D1400F0510020E0150C17000000000C01002029
:100D240008000000402005080B0100200500000019
:100D3400A8100508F251002002000000900F0508D9
:100D44002A5500200100FF7F0100000029550020E2
:100D5400020000009C0F0508BC5300200300400063
:100D640001000000BA5300200000803E0100000092
:100D7400B85300200000F40101000000B653002025
:100D84000000F40101000000B45300200000F4014D
:100D940001000000B25300200000F4010100000033
:100DA400B05300200000803E01000000AE5300203C
:100DB4000000803E01000000D8530020E803D00763
:100DC4000A000000D6530020006401000A0000005D
:100DD400CB53002000640100CA53002000640100CA
:100DE400D2530020006401000A000000D153002007
:100DF400006401000A000000D053002000640100D8
:100E04000A000000D5530020006401000A0000001D
:100E1400D4530020006401000A000000D3530020D2
:100E2400006401000A000000CF53002000FF01000D
:100E34000A000000CE53002000FF01000A00000059
:100E4400CD53002000FF01000A0000007E52002064
:100E54000000F401010000007C5200200000F401B5
:100E6400010000007A5200200000F401010000009B
:100E7400785200200000F4010100000076520020A6
:100E84000000F40101000000C853002000640100C8
:100E9400C65300201400E80301000000C4530020DE
:100EA400E80330750A000000C253002000C80100A6
:100EB400C153002000C80100C053002000C8010035
:100EC400BF530020006401000A0000000F550020F9
:100ED40001C801000E550020010A01001E55002022
:100EE4000000D007010000001855002000C80100D0
:100EF4001755002000C801001655002000C8010045
:100F04001C5500200000D0070100000015550020EA
:100F140000C801001455002000C80100135500202A
:100F240000C801001A5500200000D007010000008D
:100F34001255002000C801001155002000C801000E
:100F44001055002000C801000D55002001000000CC
:100F5400AC0F0508E851050800000000000000007F
:100F64000000000000000000F8510508090000001E
:100F740000000000E80300200400000000520508FF
:100F84000900000000000000DC0300200400000051
:100F9400C05905080900000000000000D00300202B
:100FA400040000004C620508090000000000000075
:100FB400C4030020040000000852050809000000D2
:100FC40000000000B80300200400000010520508CF
:100FD4000900000000000000AC0300200400000031
:100FE400185205080900000000000000A0030020BA
:100FF4000400000020520508090000000000000061
:101004009403002004000000B4510508010000000E
:1010140000000000000000000000000000000000CC
:101024000E000000000000000000000000000000AE
:1010340060540508000000000000000000000000EB
:1010440000000000249605080700000000000000CE
:101054000C04002000000000705405080800000083
:101064000000000000040020000000007C5405087B
:101074000800000000000000F4030020000000004D
:10108400B451050801000000000000000000000049
:1010940000000000000000000E000000000000003E
:1010A4000000000000000000845405080000000057
:1010B4000000000000000000000000009454050837
:1010C4000D000000000000004804002000000000A3
:1010D4009C5405080D000000000000003C040020A2
:1010E40000000000A45405080700000000000000F0
:1010F4003404002000000000AC5405080D0000007A
:10110400000000002804002000000000B45405087A
:101114000D000000000000001C040020000000007E
:10112400BC5405080700000000000000140400205F
:1011340000000000B4510508010000000000000098
:101144000000000000000000000000000E0000008D
:10115400000000000000000000000000C454050866
:10116400000000000000000000000000000000007B
:10117400249605080C000000000000001A5200200C
:1011840000000000D85405080C0000000000000016
:101194001C52002000000000E85405080C00000068
:1011A400000000005252002000000000F85405081E
:1011B4000C00000000000000465200200000000067
:1011C4000C5505080C000000000000001E52002011
:1011D40000000000185505080C0000000000000085
:1011E4002052002000000000205505080C000000DB
:1011F40000000000225200200000000034550508C1
:101204000C00000000000000245200200000000038
:101214003C5505080C000000000000002652002088
:1012240000000000445505080C0000000000000008
:1012340064520020000000005C5505080C0000000A
:101244000000000028520020000000006855050836
:101254000C000000000000002A52002000000000E2
:10126400705505080C000000000000002C520020FE
:10127400000000007C5505080C0000000000000080
:101284002E52002000000000885505080C000000C4
:1012940000000000305200200000000094550508B2
:1012A4000C0000000000000032520020000000008A
:1012B400A05505080C000000000000003452002076
:1012C40000000000AC5505080C0000000000000000
:1012D4003652002000000000B85505080C0000003C
:1012E400000000004A52002000000000C05505081C
:1012F4000C00000000000000485200200000000024
:10130400C85505080C0000000000000056520020DB
:1013140000000000D45505080C0000000000000087
:101324005852002000000000E05505080C000000A1
:10133400000000005E52002000000000D0520508AA
:101344000C000000000000003852002000000000E3
:10135400EC5505080C00000000000000405200207D
:1013640000000000F45505080C0000000000000017
:101374003A52002000000000005605080C0000004E
:10138400000000003C520020000000000C5605083C
:101394000C000000000000003E520020000000008D
:1013A400145605080C000000000000004252002002
:1013B40000000000205605080C000000000000009A
:1013C4004C52002000000000285605080C000000C4
:1013D40000000000445200200000000034560508BC
:1013E4000C00000000000000545200200000000027
:1013F400405605080C000000000000004E5200207A
:1014040000000000485605080C0000000000000021
:101414005052002000000000505605080C00000047
:10142400000000005A520020000000005856050831
:101434000C000000000000005C52002000000000CE
:10144400605605080C000000000000006E520020E9
:1014540000000000B4510508010000000000000075
:101464000000000000000000000000000E0000006A
:10147400000000000000000000000000685605089D
:101484000000000000000000000000000000000058
:10149400745605080D00000000000000A0040020A0
:1014A400000000007C5605080D000000000000004C
:1014B4009404002000000000845605080700000082
:1014C400000000008C040020000000009056050875
:1014D4000700000000000000840400200000000059
:1014E4009C56050809000000000000007804002054
:1014F40000000000A85605080900000000000000D4
:101504006C04002000000000B45605080900000027
:10151400000000006004002000000000C45605081C
:101524000900000000000000540400200000000036
:10153400B451050801000000000000000000000094
:1015440000000000000000000E0000000000000089
:101554000000000000000000D8560508000000004C
:10156400000000000000000000000000E85605082C
:10157400050000000000000075520020000000007B
:10158400B451050801000000000000000000000044
:1015940000000000000000000E0000000000000039
:1015A4000000000000000000F056050800000000E4
:1015B4000000000000000000000000006C6005084E
:1015C400000000000000000048210020040000008A
:1015D400FC5605080D00000091A70108F404002042
:1015E40000000000285C05080D000000A57A010831
:1015F400E804002000000000805505080D000000EC
:10160400897A0108DC040020000000000057050866
:101614000800000000000000D004002004000000C6
:10162400EC5505080D000000D3790108C40400201E
:101634000000000008570508090000000000000031
:10164400B804002004000000B056050803000000A0
:10165400B1AB0108AC04002000000000B45105083F
:101664000100000000000000000000000000000075
:10167400000000000E000000000000000000000058
:1016840000000000105705080000000000000000E2
:101694000000000000000000205705080D000000B5
:1016A400000000000C050020000000002857050879
:1016B4000A000000000000000D5900200000000096
:1016C400345705080A0000000000000015590020E6
:1016D400000000003C5705080A000000000000005C
:1016E4001D590020000000004457050808000000B0
:1016F4000000000000050020000000004C57050811
:1017040004000000D1AD010800000000000000004A
:10171400B4510508010000000000000000000000B2
:1017240000000000000000000E00000000000000A7
:1017340000000000000000005857050800000000E9
:101744000000000000000000000000006C570508C5
:1017540008000000000000006C05002000000000EC
:10176400785705080800000000000000600500200C
:101774000000000084570508080000000000000075
:1017840054050020000000009057050808000000E0
:101794000000000048050020000000009C570508D8
:1017A40008000000000000003C05002000000000CC
:1017B400A8570508080000000000000030050020BC
:1017C40000000000B45705080800000000000000F5
:1017D4002405002000000000C05705080800000090
:1017E400000000001805002000000000B4510508A6
:1017F40001000000000000000000000000000000E4
:10180400000000000E0000000000000000000000C6
:1018140000000000CC570508000000000000000094
:10182400EB02002000000000D85705080B00000060
:10183400000000000006002000000000E457050836
:101844000B00000000000000F40500200000000070
:10185400F05705080B00000000000000E805002018
:1018640000000000FC5705080B0000000000000009
:10187400DC05002000000000085805080B000000EB
:1018840000000000D00500200000000014580508E6
:101894000B00000000000000C40500200000000050
:1018A400205805080B00000000000000B8050020C7
:1018B400000000002C5805080B0000000000000088
:1018C400AC05002000000000385805080B0000009B
:1018D40000000000A0050020000000004458050896
:1018E4000700000000000000980500200000000030
:1018F4004C58050807000000000000009005002077
:1019040000000000585805080B000000000000000B
:101914008405002000000000645805080800000049
:10192400000000007805002000000000B451050804
:1019340001000000000000000000000000000000A2
:10194400000000000E000000000000000000000085
:1019540000000000705805080000000000000000AE
:101964000000000000000000845805080800000082
:10197400000000003C06002000000000905805080C
:1019840008000000000000003006002000000000F5
:101994009C580508080000000000000024060020F0
:1019A40000000000A858050808000000000000001E
:1019B4001806002000000000B458050808000000C4
:1019C400000000000C06002000000000B4510508CF
:1019D4000100000000000000000000000000000002
:1019E400000000000E0000000000000000000000E5
:1019F40000000000BC5805080000000000000000C2
:101A0400E802002000000000CC5805080B0000008C
:101A1400000000008006002000000000D8580508DF
:101A2400070000000000000078060020000000000D
:101A3400E4580508070000000000000070060020BC
:101A440000000000F0580508070000000000000036
:101A54006806002000000000FC580508080000008B
:101A6400000000005C060020000000000459050886
:101A740008000000000000005006002000000000E4
:101A84000C5905080700000000000000480600206B
:101A940000000000B451050801000000000000002F
:101AA4000000000000000000000000000E00000024
:101AB40000000000000000000000000018590508A4
:101AC4000000000000000000E80200200000000008
:101AD400245905080D00000000000000080700203C
:101AE4000000000030590508070000000000000055
:101AF4000007002000000000385905080700000016
:101B040000000000F806002000000000405905080D
:101B14000700000000000000F006002000000000A4
:101B2400485905080800000000000000E4060020F1
:101B340000000000505905080700000000000000E4
:101B4400DC060020000000005859050807000000CA
:101B540000000000D40600200000000060590508C1
:101B64000700000000000000CC0600200000000078
:101B7400685905080800000000000000C0060020A5
:101B84000000000070590508070000000000000074
:101B9400B80600200000000078590508070000007E
:101BA40000000000B0060020000000008059050875
:101BB4000700000000000000A8060020000000004C
:101BC4008859050808000000000000009C06002059
:101BD4000000000090590508070000000000000004
:101BE4009406002000000000985905080700000032
:101BF400000000008C06002000000000B45105081D
:101C040001000000000000000000000000000000CF
:101C1400A45905080200000065AE01080100000097
:101C240000000000000000000E00000000000000A2
:101C3400000000000000000000000000257E0108F4
:101C440014070020735200202C000000B40F050874
:101C54007252002000C8010070520020E803D0072F
:101C640001000000434C524143494E4746340000B2
:101C74000D520020000301000C520020000301005B
:101C84006D7D0108457D0108F0070020017D0108F4
:101C9400B57C010868080020AD7D0108957D010828
:101CA4001C090020197C0108C57B01083C0C00209C
:101CB4003B7E0108B5A90108180D0020117A01081E
:101CC40000000000680D0020ADAD0108F58001089A
:101CD400440E0020117F0108D17E0108F80E002077
:101CE400AD7F0108F97F0108D40F0020C9530020FB
:101CF40001060100957E0108617E0108141100208F
:101D0400517F0108E5A90108B411002029800108C8
:101D140041AA01087C120020BE53002001030100E7
:101D2400B059050800000000000000000000000099
:101D340000000000BC590508080000000000000075
:101D44001814002000000000C45905080700000012
:101D5400000000001014002000000000D459050801
:101D64000D0000000000000004140020000000002A
:101D7400E059050803000000B1AB0108F813002086
:101D840000000000B451050801000000000000003C
:101D94000000000000000000000000000E00000031
:101DA400000000000000000000000000E8590508E1
:101DB400000000000000000000000000000000001F
:101DC400F85905080A00000000000000005A050840
:101DD40000000000085A05080A0000000000000086
:101DE400044A050800000000105A05080A00000013
:101DF400000000002055002000000000185A0508CB
:101E04000A0000000000000024140020000000006C
:101E1400B4510508010000000000000000000000AB
:101E240000000000000000000E00000000000000A0
:101E34000000000000000000205A05080000000017
:101E44000000000000000000000000002C5A0508FB
:101E540003000000B1AB010858140020000000008A
:101E6400385A050803000000B1AB01084C140020E7
:101E740000000000405A050803000000B1AB01084F
:101E84004014002000000000485A05080500000026
:101E9400000000000B52002000000000505A05080A
:101EA40007000000000000003814002000000000BB
:101EB4005C5A0508070000000000000030140020F0
:101EC40000000000B45105080100000000000000FB
:101ED4000000000000000000000000000E000000F0
:101EE400000000000000000000000000685A05081F
:101EF40000000000000000000000000000000000DE
:101F04007C5A050803000000B1AB010888140020C6
:101F140000000000885A050803000000B1AB010866
:101F24001001002000000000905A05080300000082
:101F3400B1AB01087C14002000000000985A050889
:101F440003000000B1AB0108701400200000000081
:101F5400EC55050803000000B1AB0108641400202F
:101F640000000000B451050801000000000000005A
:101F74000000000000000000000000000E0000004F
:101F8400000000000000000000000000A45A050842
:101F9400000000000000000000000000000000003D
:101FA400B45A050807000000B9AA0108D814002093
:101FB400000000001056050803000000B1AB010842
:101FC400CC14002000000000C05A050803000000E3
:101FD400B1AB0108C014002000000000C85A050875
:101FE40003000000B1AB0108B4140020000000009D
:101FF400D05A0508070000009DAA0108AC1400206F
:10200400000000008C62050803000000B1AB010869
:10201400A014002000000000DC5A050803000000A2
:10202400B1AB01089414002000000000B45105086D
:10203400010000000000000000000000000000009B
:10204400000000000E00000000000000000000007E
:1020540000000000F57D0108C57D0108E0140020A2
:10206400C1800108000000006C150020917C01086B
:102074006D7C0108F815002000000000000000003D
:10208400AC16002099800108D5AA01084C1700203D
:10209400E85A0508000000000000000000000000ED
:1020A40000000000F45A050803000000B1AB010869
:1020B4004418002000000000FC5A0508030000003A
:1020C400B1AB01083818002000000000085B0508C7
:1020D40003000000B1AB01082C1800200000000030
:1020E4000C5B050803000000B1AB010820180020B8
:1020F40000000000185B050803000000B1AB0108F4
:102104001418002000000000205B050802000000F5
:1021140065AE01080000000000000000A459050895
:102124000200000065AE010801000000000000008C
:10213400285B05080200000065AE010802000000EB
:1021440000000000000000000E000000000000007D
:102154000000000000000000F651002088136F17F3
:1021640001000000F851002088136F1700000000E0
:10217400345B0508000000000000000000000000BF
:1021840000000000445B0508080000000000000097
:102194002419002004000000505B0508080000001A
:1021A400000000001819002000000000B0560508C7
:1021B40004000000B9A701080000000000000000AE
:1021C400B4510508010000000000000000000000F8
:1021D40000000000000000000E00000000000000ED
:1021E4000000000000000000F451002088136F1765
:1021F40001000000BEE2002088136F1700000000F9
:10220400557B01080000000030190020B25800205E
:102214000100000068100508C0E200200100000071
:1022240074100508B6E20020020000007C100508C6
:10223400CAE000200000000000000000C8E0002008
:102244000000000000000000C6E0002000000000C4
:1022540000000000C4E000200000000000000000B6
:10226400C2E000200000000000000000C0E00020E8
:102274000000000000000000802100200000000099
:1022840000000000F351002002000000881005083F
:102294008C5B050800000000000000000000000046
:1022A40000000000445B0508080000000000000076
:1022B400B419002004000000505B05080800000069
:1022C40000000000A819002000000000B056050816
:1022D40004000000257B010800000000000000004D
:1022E400B4510508010000000000000000000000D7
:1022F40000000000000000000E00000000000000CC
:1023040000000000000000009C5B050800000000C5
:10231400000000000000000000000000AC5B0508A5
:102324000D00000009A90108E419002004000000C0
:10233400B85B05080D0000007D7B0108D81900205A
:1023440004000000C45B05080D000000CDA80108CE
:10235400CC19002000000000D05B05080300000039
:10236400A99D0108C019002008000000DC5B0508D5
:1023740003000000B1AB0108E81C002000000000CD
:10238400B451050801000000000000000000000036
:1023940000000000000000000E000000000000002B
:1023A4000000000000000000AC510508000000001F
:1023B4000000000000000000000000006D4B050854
:1023C40004000000D1A70108000000000000000084
:1023D400B4510508010000000000000000000000E6
:1023E40000000000000000000E00000000000000DB
:1023F4000000000000000000305C05080000000040
:10240400000000000000000000000000787C0508C7
:102414000D00000000000000441A00200400000029
:10242400405C05080800000000000000381A002085
:10243400040000004C5C05080800000000000000D7
:102444002C1A002004000000545C05080800000059
:1024540000000000201A0020040000005C5C050855
:102464000800000000000000141A0020040000000E
:10247400645C05080800000000000000081A002041
:10248400040000006C5C0508080000000000000067
:10249400FC19002004000000745C0508080000001A
:1024A40000000000F019002004000000B4510508E9
:1024B4000100000000000000000000000000000017
:1024C400000000000E0000000000000000000000FA
:1024D400000000003D7B010800000000501A0020AD
:1024E4000000000000000000C81A002000000000E6
:1024F40000000000681B0020BCE200200400000073
:1025040094100508BAE20020E0150C170000000042
:10251400B9E200200800000040200508B8E20020CD
:1025240005000000A81005080000000000000000DD
:10253400B81B0020FF000000D8120508050804009D
:1025440000000000A81005084020050894100508A4
:1025540000000000000000000413050805080A003C
:1025640000000000A810050840200508780F0508A1
:10257400000000000000000001000000000001FF56
:10258400FF0100000000803FFF1FFF1FFC7D0020B3
:10259400000000008C1D0020040000000000803FAB
:1025A4000000000000000000000000000000000027
:1025B4000000000000000000000000000000000017
:1025C4000000000001000000FFFFFFFF0002000503
:1025D4001002700B08000000ED870308E987030868
:1025E400E5870308D9870308D5870308E18703082B
:1025F400DD87030800600240106002400000000014
:1026040000000000000B00000000000000000000BB
:102614000000000000600240286002400100000049
:1026240000000000060C0000000000000000000094
:102634000000000000600240406002400200000010
:1026440000000000100D0000000000000000000069
:1026540000000000006002405860024003000000D7
:1026640000000000160E0000000000000000000042
:10267400000000000060024070600240040000009E
:1026840000000000200F0000000000000000000017
:102694000000000000600240886002400500000065
:1026A40000000000261000000000000000000000F0
:1026B4000000000000600240A0600240060000002C
:1026C40000000000301100000000000000000000C5
:1026D4000000000000600240B860024007000000F3
:1026E40000000000362F0000000000000000000081
:1026F400000000000064024010640240000000007A
:10270400000000000038000000000000000000008D
:102714000000000000640240286402400100000040
:102724000000000006390000000000000000000066
:102734000000000000640240406402400200000007
:1027440000000000103A000000000000000000003B
:1027540000000000006402405864024003000000CE
:1027640000000000163B0000000000000000000014
:102774000000000000640240706402400400000095
:1027840000000000203C00000000000000000000E9
:10279400000000000064024088640240050000005C
:1027A40000000000264400000000000000000000BB
:1027B4000000000000640240A06402400600000023
:1027C4000000000030450000000000000000000090
:1027D4000000000000640240B864024007000000EA
:1027E4000000000036460000000000000000000069
:1027F40000000000010000000403090412010002AB
:10280400EF0201408304563200020102030100007A
:102814001201000202020040830440570002010238
:102824000301000009022000010104C03209040070
:102834000002080650050705810240000007050153
:102844000240000009026400030100C032090400D0
:1028540000010300000009211101000122260007E4
:1028640005830308000A080B01020202010009049F
:1028740001000102020100052400100105240100E9
:10288400020424020205240601020705820308004B
:10289400FF09040200020A000000070501024000CB
:1028A400000705810240000009024300020100C044
:1028B4003209040000010202010005240010010590
:1028C40024010001042402020524060001070582F4
:1028D400030800FF09040100020A000000070501C3
:1028E400024000000705810240000000FF000000D4
:1028F40000FFFF0000000000AA55050100000000D1
:1029040005010905A101A1000501093009310932B8
:10291400093309350934094009381581257F7508BB
:1029240095088102C0C0000009022200010100E0F4
:102934003209040000010301020009211101000110
:102944002226000705830308000A00000000000097
:102954000102030401020304060708095DBD03081C
:1029640061BC0308B9C00308BD890308358F030897
:10297400CD890308E9890308958903088589030833
:1029840000000000000000002D202D2D202D2D2DF5
:102994002D202D2D2D2D0000000000000000000032
:1029A40000000000000000AA550B010000AA550712
:1029B400010000AA55090200000000000100000007
:1029C400C012AA5503009F0000000000B4F30020C9
:1029D4000800000000000000A4F30020080000002C
:1029E400198F0308058E030895C003080000000032
:1029F400818903084DBC0308558D0308C5BB030832
:102A040000000000000000003D890308FD87030862
:102A1400F1870308C9B10308E5B10308ADB10308A0
:102A240091B1030875B10308D18E0308E18D030841
:102A3400D5BF03080000000055890308C9BB03087B
:102A4400298D030825BB03080000000000000000D6
:102A540049890308FFFF0000FFFFFFFF1F852B3F8D
:102A64000000803F000000000000000000000000A3
:102A74000000803F00000000000000000000000093
:102A84000000803F00000000000000000000000083
:102A94000000803F582200200000000000000000D9
:102AA4000000000000000000000000000000000022
:102AB4000000000000000000000000000000000012
:102AC4000000000000000000000000000000000002
:102AD40000000000000000000000000000000000F2
:102AE40000000000000000000000000000000000E2
:0C2AF400000000000000000001000000D5
:1080000003685A1C02601970704700BF2DE9F047E1
:10801000089C2578002B804689460CBF4FF0200A2B
:108020004FF0300A661C25B3002A26DD334601E0F6
:10803000024698B113F8011B501E0029F8D1971E73
:1080400060B13D46013D51464046C8476B1C002B80
:10805000F8DC257827EAE770013045B1041B294692
:108060004046C847301916F8015B002DF7D1BDE82E
:10807000F087002A03DC2846F9E70020EEE7571EC8
:10808000DFE700BF2DE9F04714461D4606464FF4D2
:108090007A7200232046294645F0B6F84D4BDFF8AA
:1080A00048814D4A4D4F034488FB03101844D917AB
:1080B00082FB032CC1EB601088FB002887FB0327A1
:1080C0009C44474AC1EBEC2CC0EB001E82FB0C2900
:1080D000A3EB8E0E1F44434A86F806E0C1EB274708
:1080E0004FEAEC7E08EB000ACEEBA90E82FB07827A
:1080F0004FEAE0780EEB4E0EC8EB6A18ACEBCE0CF4
:10810000C8EB0818DFF8E4E086F804C0A0EB8800AC
:1081100070718EFB0303F817C0EBE21240F2B5500A
:1081200000FB1272C1EBE353B2F5896F4FEA83078C
:108130003CDA40F2DA239A4242DCB2F5B77FB4BFB0
:108140004FF0000E4FF0010E4FEA4E09DFF8A0800D
:1081500009EB0E0308EBC3031FFA8EFCD88A09EB68
:108160000E0108EBC10116310B2301E031F8020DBD
:10817000904218DD013BF9D1CE44012338F83E008E
:10818000B37007F5FA670132121ABC44F270A6F810
:1081900000C0204629464FF47A72002345F034F897
:1081A0003281BDE8F0870133DBB2E9E74FF0030C21
:1081B000E64640F29650DFF838804FF00609CEE7E9
:1081C0004FF0020CDFF82880E64640F229404FF0DD
:1081D0000409C4E780BC92C7C5B3A29107452EC26B
:1081E000ABAAAA2A73B06D1689888888792D0311E5
:1081F000ECFD040830B403888278C478154DA3F5EB
:10820000FA6303F0030101EB4101013A02EB810241
:108210009B0835F812500279611E40F2B55404FBF8
:1082200003132B4403EB430302EBC303427984792A
:1082300009490089C3EB031302EB83032144C3EB19
:10824000031301EB83034FF47A720021C2FB030195
:1082500030BC7047ECFD040880436D380028F0B452
:1082600003DA2D230B7040420131092804464FF0F8
:10827000010307DD03EB83035B00B0FBF3F2092A84
:10828000F8D883B10F48A0FB0326B4FBF3F2092A08
:1082900002F1570C02F1300709DD03FB1244F30829
:1082A00001F801CBEFD100230B70F0BC704703FB4A
:1082B0001244F30801F8017BE5D100230B70F0BCF8
:1082C000704700BFCDCCCCCC884270B44FF00104D5
:1082D00042D301FB04F4B0FBF4F58D42F9D2ECB1CA
:1082E00042BB092D04FB150005F1570605F13002CC
:1082F0000EDDB4FBF1F403F8016B7CB1B0FBF4F5D7
:10830000092D04FB150005F1570605F13002F0DCDC
:10831000B4FBF1F403F8012B002CEFD100221A700A
:1083200070BC704703F8016BB4FBF1F4002CF5D07E
:10833000B0FBF4F5092D04FB150005F1370605F136
:108340003002EFDCB4FBF1F403F8012B002CEFD189
:1083500000221A7070BC70470546002AEAD1C0E7B7
:1083600090ED057A90ED004AD0ED066AD0ED014A15
:10837000D0ED047A90ED035AD0ED025AA4EE007AC3
:10838000B0EE406AB0EE470AB0EE667AA4EE867AA6
:1083900067EEC07AA5EE407AE5EE867A80ED057A42
:1083A000C0ED067A704700BFD0ED057A90ED013A36
:1083B000D0ED003AD0ED064A90ED024A90ED077AF2
:1083C00090ED035A90ED086AD0ED045AC0ED067A9C
:1083D000F0EE406A27EE830AC0ED056AA3EEA60A16
:1083E00080ED087AA4EE240AA5EE470AA5EEC60A97
:1083F00080ED070A704700BFD0ED007A90ED017A5A
:1084000030EE670AE7EE007AB0EE670AC0ED007A58
:10841000704700BF80ED010A704700BF07EE900A69
:10842000DFED056AB8EEE77AC6EE877A77EE807AF6
:1084300080EE270A704700BF83F9223E704700BFD5
:1084400006224FF47A73027043607047F0B400253F
:108450000E4E00F1FF3C2F46142165B103788B428C
:108460000BD003460CEB050403E013F8012F8A42FE
:1084700003D0A342F9D1C155013701350B2D02D0EC
:1084800016F8011FE9E7F0BC704700BF4CFE040876
:108490000C4AF0B4002302F108071726162515240C
:1084A00003EB4303C118BA42C4544D708E7006D01A
:1084B00092F9043054799579D6790432F0E7F0BC1A
:1084C000704700BF58FE040801211F2203230170DA
:1084D00042708370704700BF012310B431213224F1
:1084E000332244704171C270037203700371837050
:1084F0005DF8044B704700BF30B41D6995420AD344
:1085000014460A4621448D42996938BF2A1B2144EA
:1085100030BC45F0C9B830BC704700BF0020704780
:1085200000207047012070470120704700207047ED
:10853000002070474FF40070024B10609B680B6086
:1085400000207047B092002003484FF40073806A07
:10855000086000201360704740920020013A30B458
:10856000D2B28C1C04EB42040025020F092AD3B2BC
:1085700003F130028ABF37330A700B704D7002313D
:108580008C424FEA0010F0D130BC70470B4A0C4BC4
:1085900010681B681A22C0180A8001D10948704768
:1085A00010B5094B09491C680822FFF7D7FF204680
:1085B00004220749FFF7D2FF024810BDE8F7FF1F6A
:1085C000ECF7FF1F00000020EAF7FF1F0200002069
:1085D0001200002004230B80004870471C0000207C
:1085E00012230B8000487047200000202322032321
:1085F00002704370704700BF08307047704700BF7B
:10860000816170470022082302754375704700BFDF
:108610000022082302754375704700BF002208231B
:1086200002754375704700BF012380F857307047CB
:10863000F0B4037C456902681F2B37D9203B202109
:10864000546899400C4223D010249C40D160D460DF
:108650005168D940CE074ED4EFF31183502282F3F4
:108660001288EA6B1168C90709D45468002C52D1EA
:10867000D5E909618E4243D1012285F86020DBB241
:1086800083F31188037C02681F2B194614D9203B01
:10869000082150689940084200D0D16004215068F8
:1086A00001FA03F3184223D1F0BC70472024166866
:1086B0009C4026420FD11946082310688B4018426F
:1086C00000D093600423106803FA01F10842EBD054
:1086D0009160F0BC704710219940946091601168DE
:1086E000D940CC07B8D5012101FA03F39360B3E771
:1086F000D360F0BC7047012101FA03F3D360ABE70C
:10870000AF690F44D7600ED82E69711A5160AC6200
:10871000002185F86010116841F00101DBB21160A1
:1087200083F31188AEE7711A5160AE62F0E700BFC3
:1087300070B4037C01681F2B26D9A3F120052022E9
:108740004C68AA40224214BF01220022D2B14269E1
:108750001B481C4C02EB420200EB42122578546885
:108760002068CDB9E56856892C6824F001042C6096
:1087700082891F2B22EA060282811AD8202202FA5D
:1087800003F38B6070BC704720220C689A40224231
:1087900014BF01220022D9E7A469226822F0010255
:1087A0002260828922F480721204120C1F2B8281B3
:1087B000E4D9A3F1200220239340CB6070BC704722
:1087C00090A30020940F001070B59D4C2368002BDF
:1087D00040F005819B4B1A78002A68D09A4B197893
:1087E0009A4B002964D11868B3F82C5141628489EE
:1087F000012A44EA05048481A3F82C1157D0D3F848
:108800003001B3F85C5241628489022A44EA0504CB
:108810008481A3F85C124AD0D3F86002B3F88C5379
:1088200041628489032A44EA05048481A3F88C13F5
:108830003DD0D3F89003B3F8BC5441628489042A34
:1088400044EA05048481A3F8BC1430D0D3F8C004F2
:10885000B3F8EC5541628489052A44EA0504848111
:10886000A3F8EC1523D0D3F8F005B3F81C574162F8
:108870008489062A44EA05048481A3F81C1716D0CB
:10888000D3F82007B3F84C5841628489072A44EA98
:1088900005048481A3F84C1809D0D3F85028B3F804
:1088A0007C495162908920439081A3F87C1970BD66
:1088B0005C68198961602568186845F0010540F217
:1088C0000D312560A0F848108489012A44F4807491
:1088D0008481ECD0D3F83441B3F83851D3F8300167
:1088E0006560256845F001052560A0F84810848979
:1088F000022A44F480748481D9D0D3F86442B3F856
:108900006852D3F860026560256845F0010525606E
:10891000A0F848108489032A44F480748481C6D066
:10892000D3F89443B3F89853D3F89003656025685F
:1089300045F001052560A0F848108489042A44F414
:1089400080748481B3D0D3F8C444B3F8C854D3F846
:10895000C0046560256845F001052560A0F8481051
:108960008489052A44F480748481A0D0D3F8F44526
:10897000B3F8F855D3F8F0056560256845F00105B2
:108980002560A0F848108489062A44F48074848104
:108990008DD0D3F82447B3F82857D3F82007656063
:1089A000256845F001052560A0F848108489072A4C
:1089B00044F4807484813FF47AAFD3F85428B3F838
:1089C0005808D3F850385060106840F0010010602B
:1089D000A3F848109A8942F480729A8170BD0546C6
:1089E0000AF0F8F8217AA9B16DB1194A0023168965
:1089F0000133002E18BF0021AB4202F16002F6D114
:108A000000293FF4E7AE00F51C5010300023206031
:108A10002372DFE62368C31A002BFFF648AF637AA0
:108A20003BB1013BDBB263722BB100F57A70206081
:108A3000D0E62360CEE6636803442360CAE600BF45
:108A4000EC60002090A60020940F001094A6002057
:108A500090A3002010B5027C01681F2A4FF020036C
:108A60000ED94C68203A93401C4208D00B4A40680B
:108A700000241470026822F001020260CB6010BD75
:108A80000C6893401C42FAD0044A406800241470D9
:108A9000026822F0010202608B60F0E708F3002018
:108AA00010B5027C01681F2A4FF020030ED94C68D4
:108AB000203A93401C4208D00B4A406800241470AE
:108AC000026822F001020260CB6010BD0C68934086
:108AD0001C42FAD0044A406800241470026822F054
:108AE000010202608B60F0E7296600202DE9F84F53
:108AF000DDE90A648946174600212022984605468A
:108B000047F006F95EB1D6E900327189EB81C3F313
:108B10000F432B82C2F30F43EA822B8369824846BC
:108B200043F086FE17F0100B10D1431E70B119F8F8
:108B300003202E2A18BF09EB030104D14AE011F8E3
:108B4000016D2E2E3ED013F1FF33F8D208280246D5
:108B5000CA46A8BF08224FF0000B4FF020336B60CD
:108B60002B60C5F807304946284605F1080644F051
:108B70009BFD5A465146304644F096FD6B1EE81D5B
:108B800013F8012FA2F1610119299CBF203A1A7034
:108B90008342F5D105F10B0116F8013BA3F1610207
:108BA000192A9CBF203B06F8013CB142F4D118239E
:108BB000C8F30F42EF722B73A5F81A80AA82EC61FA
:108BC000BDE8F88FC01A00F1FF3BBBF1030FA8BF4F
:108BD0004FF0030B082B03F1010AA8BF0823CA4476
:108BE0001A46BAE7014B18680AF0F6BA544F00204B
:108BF00038B51D4B1B78044600F1250593B10422BE
:108C00001A49203047F0C2F828461422184947F084
:108C1000BDF8012384F83A30164B1B7873B984F8F9
:108C20003B3038BD28461422134947F0AFF80123E2
:108C300084F83A300F4B1B78002BF0D00F4B18689C
:108C400059689A68DD68E56020606160A260DD694E
:108C5000186959699A69A2610123E561206161611E
:108C600084F83B3038BD00BFA9F70020FCB00020DD
:108C7000E4B00020A8F700205C48050804B10020FB
:108C800070B504462DED028BD0F83004B0EE408A6A
:108C900043F05CFDD4ED047AF0EE405A94ED050A01
:108CA00037EEC00AF5EE405A30EE270AF1EE10FA20
:108CB00084ED040A84ED050A05D0F5EE407AF1EE64
:108CC00010FA40F0BC80664BF7EE007AB0EE676AAF
:108CD000C3ED007A94ED017AD4ED037AD4ED026A03
:108CE000E7EE067A04F23442104678EE404A77EE18
:108CF000A66AB0EE677A87EE265AF7EE007A77EE2C
:108D0000C57AA4EE850A67EE877A84ED040AC4ED7D
:108D1000037AFFF771FB04F21C4191ED007AD4F85D
:108D20002C34256884ED040A04F22440D0ED007A46
:108D3000A8EE087A04EB8306013378EE277AAB427B
:108D400086ED068AC0ED007A81ED007AC4F82C34F5
:108D500024BF0023C4F82C3404EB8303D3ED066A4C
:108D6000404D04F5856393ED005A77EEE67AA6EE62
:108D7000E67A04F58463C0ED007A67EE857A81EDCA
:108D8000007A67EEE76AC3ED007AF0EE667AE7EE06
:108D9000057A354995ED007A0878F5EEC07AF1EE5E
:108DA00010FAD8BFF1EE677AF1EEE76A04F5836353
:108DB000C3ED007A67EE267AC4ED027A70B1F5EE63
:108DC000405AF1EE10FA0CD1D4F83034022B09BF1E
:108DD000002394ED040A94ED040A0B70BDEC028BA1
:108DE00070BD04F23C45D5ED007AF4EE657AF1EE03
:108DF00010FAE9D0DFED1D7A26EE276A04F58860C7
:108E0000FDEEC67A90ED000A17EE903AB3F5FA7FC0
:108E1000A8BF4FF4FA730A2BB8BF0A2307EE903AA3
:108E2000B8EEE76ABCEEC66A16EE103A98B2FFF7E3
:108E3000F5FA1046FFF7EEFAC5ED005AC4E785EEE5
:108E4000A77A074BB7EE006A36EE476AB5EEC06AFE
:108E5000F1EE10FAD8BFB1EE466A83ED006A39E749
:108E6000C02200201C22002010FE002000008C42A6
:108E700038B52C22002146F04BFF0346642140F216
:108E8000DC5240F2022019745A821321202240F24F
:108E90001A4540F26C74188399760E2002211A77D5
:108EA00001229D82DC8240F2753540F6430483F84E
:108EB000220083F82A109A7383F82920DD831C840A
:108EC00019460248BDE8384016F010BC684805084D
:108ED00010B500210446012008F09AFF207010BD53
:108EE00038B500240472451EE1B2022008F090FF5C
:108EF0000134082C05F8010FF6D138BD2DE9F04FEB
:108F0000002087B00C461D46012192460DF06CF8FA
:108F1000002D63D005EB0A03DFF8D094DFF8D0B45E
:108F2000039355461CE0002D00F0C581D9F814309C
:108F3000AB4264D0D9F81030AB4200F09780D9E949
:108F40000631AB4252D8A94200F26F81691A20461D
:108F50002BF034F9039B01359D4204F500743DD09C
:108F6000D9F82060AE42DED8D9F83080AE1B4FEA87
:108F7000D60AD8F830300AF1020A9A4506F00706F8
:108F800003D3D8F838309A4509D9414650462BF0DA
:108F9000E3F88046002800F04D81C9F8300098F8C9
:108FA0000430002B40F0E280D8F82870002F00F049
:108FB000DF81D8F83030D8F80C20AAEB030A06EB92
:108FC000CA0A4346204602EB4A224FF40071B847D2
:108FD000039B01359D4204F50074C1D10021084670
:108FE0000DF002F8002007B0BDE8F08FA942ADD91E
:108FF0004FF400720021204646F08AFEAAE7522272
:1090000061204123002622706270A070722284F8D1
:10901000E70184F8E631D9F82800E3704FF0FF3318
:10902000314684F8E42184F8E521C4F8E8014FF4DE
:10903000F07284F8EC3184F8ED3184F8EE3184F884
:10904000EF31201D46F064FE55216FF05502C4F843
:10905000F061C4F8F461C4F8F86184F8FC6184F844
:10906000FD6184F8FE1184F8FF2173E74FF400726C
:109070000021204646F04CFED44BD54F03CBEB23CA
:10908000022223704FF0080C9026F8234FF0580E60
:10909000C4F80300227484F80DC0C4F8071084F8E3
:1090A00001E0A6706375D9F81010D9F80830D9F826
:1090B0001C602273591A21624FF0FF3100233F20B8
:1090C000A1763E21A273E372E3736374A374E37425
:1090D0002375A375E3756376E3766377A377E37708
:1090E0002076217784F82C2007CFD9F8187084F8DF
:1090F0002830F61B84F8293084F82A3084F82B3085
:1091000084F82D3084F82E3084F82F3084F83130F4
:1091100084F8323084F8333080236662C4F8470024
:1091200004F1470684F8403029209423A94F84F89D
:1091300046C084F8420084F843300E200D234FF0DF
:10914000010C84F8440084F8453084F830C0716024
:1091500003CF33465527AA269A60C4F85200C4F8B4
:10916000561084F8FE7184F8FF61F3E64FF4007244
:109170000021204646F0CCFDD8F84030002E61D1C9
:1091800004F12007002B77D0D8F830309249112213
:10919000CDE900662046FFF7A9FCD8F840301A6CEC
:1091A00004F1400A002A79D01B6B8C49CDE9006696
:1091B00038461122FFF79AFCD8F84460002E3FF49D
:1091C000C9AE4FF4E078CDE904450CE00024CDE9C8
:1091D00000C4FFF78BFCB66CBA46A8F120080EB3AA
:1091E000B8F11F0F1ED93468356B96F804E01122D0
:1091F0002B46214650460AF1200706F11C0CBEF111
:10920000000FE3D172793369019342F021022B46BA
:10921000CDF800C0FFF76AFCB66CBA46A8F120088A
:10922000002EDDD1DDE9044594E6E91A20462AF056
:10923000C5FF8FE6231F04F5FE7243F804BF9A4270
:10924000FBD187E6002BD8F844200CBF0123022372
:10925000C3EB0613002A3FF47DAE966C013B002E53
:109260003FF478AE013BB66CF9D1002E3FF472AEFC
:10927000A2464FF40078A6E7CDE900663346D9F858
:109280000C1008222046FFF731FCD8F84460002E6D
:109290003FF460AEBA464FF4F07894E7CDE900664B
:1092A0003346384611224D49FFF720FCD8F8446078
:1092B000002E86D14EE64FF400722946204646F035
:1092C00027FD80220C2384F8BE2184F8C231D9F80E
:1092D0001000434BD9F8086084F8B85183FB003282
:1092E000C117C1EB2232B2F5806F84F8B95184F80E
:1092F000BA5184F8BB5184F8BC5184F8BD51C4F80C
:10930000C601C4F8CA6142DBFF2384F8BF3184F888
:10931000C13184F8C031324B711E83FB0132CE174C
:10932000C6EB2232B2F5806F29DA2E4B84F8C521C4
:1093300083FB01030B442C48C6EB6313C3EB83167A
:1093400080FB0370891B1844DE17921022F03F0245
:109350000131C6EBE0100A43034484F8C42184F8C9
:10936000C3315522AA2384F8FE2184F8FF31F1E5A8
:1093700039464FF40072204646F0CAFCEAE5FF2366
:1093800084F8C33184F8C53184F8C431E9E7154B5A
:1093900084F8C12183FB00730344134FC1EB6313B3
:1093A00087FB0317C3EB831C9110A0EB0C02F8188A
:1093B000DF1721F03F010132C7EBE0100A430344FD
:1093C00084F8C02184F8BF31A5E700BF7C480508B8
:1093D000884805089848050874480508784805082D
:1093E000975545418320088281808080B09200207B
:1093F000DEADBEEF08B531F00FFC80F00100404259
:1094000040B208BD70B50C4601211E4608461546FF
:109410000CF0EAFDAEB104EB462601E031F0FCFBB6
:109420000022214628462AF029FD0028F6D131F0F5
:10943000F3FB0028FBD004F50074B44205F10105EC
:10944000EED1002101200CF0CFFD002070BD00BF47
:1094500070B50C4601211E46084615460CF0C4FDA9
:1094600096B104EB46260022214628462AF09EFDAE
:109470000028F8D031F0D0FB0028FBD004F50074B0
:10948000B44205F10105EED1002101200CF0ACFD44
:10949000002070BD002108B508460CF0A5FD2AF09B
:1094A000C1FD31F0B9FB0028FBD0012100200CF0F8
:1094B0009BFD002008BD00BF10B5044C04480A46BF
:1094C000214631F031FE204610BD00BFC4220020ED
:1094D000A448050810B5044C04480A46214631F05A
:1094E00023FE204610BD00BFC4220020B44805085A
:1094F00010B5044C04480A46214631F015FE2046BA
:1095000010BD00BFC4220020C04805080A4608B5A7
:10951000054920B1054831F007FE034808BD04485D
:1095200031F002FE004808BDC4220020EC480508C6
:10953000D4480508084A094808B5536C43F48043E9
:1095400053640021402246F0E3FB054B4FF0FF320D
:109550001A60C3F8032008BD00380240E87F0020ED
:109560002880002010B58B680160044698470022CF
:10957000FF230121A2736373217310BD03685B6A2B
:10958000184700BF03681B6A184700BF70B44E1C21
:109590000568C2728672AC69A44670BC604700BFA1
:1095A0002DE9F041044618460D4616461F4643F085
:1095B0003FF92844A0722068E672294645693B4677
:1095C00032462046AC46BDE8F0416047036810B51E
:1095D00004461B689847236820469B689847A37BEE
:1095E0000133A37310BD00BF10B5036804469B6828
:1095F0009847FF2301226373227310BD38B50D46CF
:1096000007F0C2FE044650B136238371C5710121B3
:109610000CF03AFC2046BDE838400CF0D7BC38BD11
:1096200038B50D4607F0B0FE044650B135238371BE
:10963000C57120210CF028FC2046BDE838400CF014
:10964000C5BC38BD0E4B984214D0A3F57843984260
:109650000ED003F5806398420ED10222094B03EB32
:1096600002135A89013292B25A81588980B27047E6
:109670000122F3E70022F1E74FF0FF30704700BF0F
:1096800000300140980E0010F8B584894FF6FF763F
:109690004FF47A7433B319B30F78013101E0B44257
:1096A00018D00589013CAD07A4B2F8D5BCB28481BD
:1096B0004FF47A7402E0BCB2B4420BD00589ED07D6
:1096C00004F1FF37F7D58589ADB20AB115700132C3
:1096D000013BDFE7FFF7B6FF003018BF0120F8BD00
:1096E000FF27DEE70120F8BD30B5437F83B0044695
:1096F0001BB90120637703B030BD0523ADF80430FA
:10970000056800BFA8680CF05BFC6A4601A902234B
:109710006868FFF7B9FFA8680CF058FC00BF9DF817
:10972000013003F0010383F00100637703B030BD23
:10973000F8B5074C05460F46266803E023689B1BD7
:10974000BB4204D82846FFF7CFFF0028F6D0F8BD6B
:10975000F88B0020F0B5077F83B004464FF0030C70
:109760000020009016461D468DF804008DF800C0BC
:109770006FB30B0E8DF801300DF10203080C0A0ACD
:1097800099701870062120465A70FFF7D1FFE0B19A
:10979000236800BF98680CF013FC237F2268002B1D
:1097A00014BF05230423694650680022FFF76CFFAD
:1097B00023683246002158682B46FFF765FF23686F
:1097C00098680CF003FC00BF284603B0F0BD0DF113
:1097D0000103D3E708B540F2E93300E0A3B1028901
:1097E000013B12F0020F9BB2F8D089B2818140F2A6
:1097F000E93300E043B10289013B12F0010F9BB253
:10980000F8D08089C0B208BDFFF71CFFC0B208BD08
:109810002DE9F04F87B0009090F86800002840F0E4
:109820003987009B93F85C30072B00F029871823B9
:10983000CDE90233009B1B7C022B00F009876423D7
:10984000BE4CBF4EDFF808E3BE48DFF80883BE4FCA
:1098500001934FF01009DEF80430C3F30803002B26
:1098600040F07284EFF31183002B40F06D84256883
:10987000826823689D42FAD13B689A42F7D8D6F8AD
:1098800000C04FF47A7101FB0CF39B1AB3FBFCF39D
:1098900001FB05354FF47A7C4FF0010ADEF8043005
:1098A000C3F30803002B40F00E84EFF31183002B69
:1098B00040F009842368816822689342FAD13A68AB
:1098C0009142F7D832680CFB02FBABEB0101B1FB14
:1098D000F2F10CFB03135B1BB3F57A7FDED3019B24
:1098E000013B0193B7D1009B1B7C022B00F09886B3
:1098F0006423DFF85CE29348DFF85882924F0193CB
:109900004FF01009DEF80430C3F30803002B40F0D9
:10991000F983EFF31183002B40F0F483256882680C
:1099200023689D42FAD13B689A42F7D8D6F800C026
:109930004FF47A7101FB0CF39B1AB3FBFCF301FBB0
:1099400005354FF47A7C4FF0010ADEF80430C3F39A
:109950000803002B40F09983EFF31183002B40F0B4
:1099600094832368816822689342FAD13A689142CD
:10997000F7D832680CFB02FBABEB0101B1FBF2F153
:109980000CFB03135B1BB3F57A7FDED3019B013B1A
:109990000193B7D1009B1B7C022B00F02986642326
:1099A000DFF8ACE16748DFF8AC81674F01934FF017
:1099B0001009DEF80430C3F30803002B40F00784DD
:1099C000EFF31183002B40F002842568826823683E
:1099D0009D42FAD13B689A42F7D8D6F800C04FF4BE
:1099E0007A7101FB0CF39B1AB3FBFCF301FB053509
:1099F0004FF47A7C4FF0010ADEF80430C3F3080319
:109A0000002B40F02483EFF31183002B40F01F83E1
:109A10002368816822689342FAD13A689142F7D864
:109A200032680CFB02FBABEB0101B1FBF2F10CFB6A
:109A300003135B1BB3F57A7FDED3019B013B0193DC
:109A4000B7D1009B1B7C022B00F0BA850F23DFF8F7
:109A500000E13C48DFF8FC803B4F01934FF01009D8
:109A6000DEF80430C3F30803002B40F08F83EFF3DC
:109A70001183002B40F08A832568826823689D4209
:109A8000FAD13B689A42F7D8D6F800C04FF47A7101
:109A900001FB0CF39B1AB3FBFCF301FB05354FF400
:109AA0007A7C4FF0010ADEF80430C3F30803002B80
:109AB00040F0AF82EFF31183002B40F0AA822368BD
:109AC000816822689342FAD13A689142F7D83268A5
:109AD0000CFB02FBABEB0101B1FBF2F10CFB03133E
:109AE0005B1BB3F57A7FDED3019B013B0193B7D1BA
:109AF000009ADFED167AD2F85F3007EE103AB4EE36
:109B0000E77AF1EE10FA09DD92F86630012B029B3C
:109B10000CBF43F0010343F002030293009B1B7C44
:109B2000022B00F034850F23DFF824E00548DFF82E
:109B30002480054F01934FF010090DE0F88B0020B1
:109B4000FC8B002010E000E0008C00200000FA42B6
:109B500000ED00E0F48B0020DEF80430C3F30803CE
:109B6000002B40F07783EFF31183002B40F07283DA
:109B70002568826823689D42FAD13B689A42F7D8EB
:109B8000D6F800C04FF47A7101FB0CF39B1AB3FBBB
:109B9000FCF301FB05354FF47A7C4FF0010ADEF847
:109BA0000430C3F30803002B40F01582EFF3118358
:109BB000002B40F010822368816822689342FAD11A
:109BC0003A689142F7D832680CFB02FBABEB01011B
:109BD000B1FBF2F10CFB03135B1BB3F57A7FDED311
:109BE000019B013B0193B7D1009B1B7C022B00F032
:109BF000B6840F23DFF81CE3C348DFF81C83C34F90
:109C000001934FF01009DEF80430C3F30803002B72
:109C100040F0FF82EFF31183002B40F0FA822568B9
:109C2000826823689D42FAD13B689A42F7D8D6F8F9
:109C300000C04FF47A7101FB0CF39B1AB3FBFCF3E9
:109C400001FB05354FF47A7C4FF0010ADEF8043051
:109C5000C3F30803002B40F0A081EFF31183002B26
:109C600040F09B812368816822689342FAD13A6868
:109C70009142F7D832680CFB02FBABEB0101B1FB60
:109C8000F2F10CFB03135B1BB3F57A7FDED3019B70
:109C9000013B0193B7D1009ADFED9D7AD2F85F3096
:109CA00007EE103AB4EEE77AF1EE10FA00F30C8406
:109CB00092F86550012D00F0EE82A5F10205B5FA8B
:109CC00085F56D0913461B7C022B00F0EA820F23F9
:109CD000DFF840E28C48DFF840828C4F01934FF070
:109CE0001009DEF80430C3F30803002B40F068834A
:109CF000EFF31183002B40F06383256882682368AB
:109D00009D42FAD13B689A42F7D8D6F800C04FF48A
:109D10007A7101FB0CF39B1AB3FBFCF301FB0535D5
:109D20004FF47A7C4FF0010ADEF80430C3F30803E5
:109D3000002B40F02783EFF31183002B40F02283A8
:109D40002368816822689342FAD13A689142F7D831
:109D500032680CFB02FBABEB0101B1FBF2F10CFB37
:109D600003135B1BB3F57A7FDED3019B013B0193A9
:109D7000B7D1009B1B7C022B00F0D8836423DFF853
:109D800094E16148DFF89081604F01934FF0100932
:109D9000DEF80430C3F30803002B40F05383EFF3E5
:109DA0001183002B40F04E832568826823689D4212
:109DB000FAD13B689A42F7D8D6F800C04FF47A71CE
:109DC00001FB0CF39B1AB3FBFCF301FB05354FF4CD
:109DD0007A7C4FF0010ADEF80430C3F30803002B4D
:109DE00040F0B282EFF31183002B40F0AD82236884
:109DF000816822689342FAD13A689142F7D8326872
:109E00000CFB02FBABEB0101B1FBF2F10CFB03130A
:109E10005B1BB3F57A7FDED3019B013B0193B7D186
:109E2000009B1B7C022B00F053830F23DFF8E4E040
:109E30003548DFF8E480354F01934FF01009DEF824
:109E40000430C3F30803002B40F01D83EFF31183AC
:109E5000002B40F018832568826823689D42FAD160
:109E60003B689A42F7D8D6F800C04FF47A7101FBEC
:109E70000CF39B1AB3FBFCF301FB05354FF47A7C22
:109E80004FF0010ADEF80430C3F30803002B40F062
:109E90001F82EFF31183002B40F01A822368816840
:109EA00022689342FAD13A689142F7D832680CFBA3
:109EB00002FBABEB0101B1FBF2F10CFB03135B1BEB
:109EC000B3F57A7FDED3019B013B0193B7D1009BB1
:109ED0001B7C022B00F013830F23DFF838E00A48C5
:109EE000DFF83480094F00934FF01009DEF804309A
:109EF000C3F30803002B40F08482EFF31183002B9F
:109F000040F07F820AE000BF10E000E0008C0020FB
:109F10000000FA4200ED00E0F48B00202568826822
:109F200023689D42FAD13B689A42F7D8D6F800C020
:109F30004FF47A7101FB0CF39B1AB3FBFCF301FBAA
:109F400005354FF47A7C4FF0010ADEF80430C3F394
:109F50000803002B40F0DA81EFF31183002B40F06F
:109F6000D5812368816822689342FAD13A68914288
:109F7000F7D832680CFB02FBABEB0101B1FBF2F14D
:109F80000CFB03135B1BB3F57A7FDED3009B013B15
:109F90000093ABD107B0BDE8F08FEFF3118189F3E7
:109FA0001288D0F808B00368DB0344BFC8F800A0EB
:109FB000D0F808B02368D8F80020C9B281F311881E
:109FC000316813440CFB01F2A2EB0B02B2FBF1F27D
:109FD0000CFB032357E6EFF3118189F31288D0F8C5
:109FE00008B00368DB0344BFC8F800A0D0F808B08D
:109FF0002368D8F80020C9B281F31188316813446E
:10A000000CFB01F2A2EB0B02B2FBF1F20CFB0323FF
:10A01000E2E5EFF3118189F31288D0F808B0036804
:10A02000DB0344BFC8F800A0D0F808B02368D8F814
:10A030000020C9B281F31188316813440CFB01F28E
:10A04000A2EB0B02B2FBF1F20CFB032348E5EFF3AA
:10A05000118189F31288D0F808B00368DB0344BF8C
:10A06000C8F800A0D0F808B02368D8F80020C9B21A
:10A0700081F31188316813440CFB01F2A2EB0B024F
:10A08000B2FBF1F20CFB0323D3E4EFF3118189F36C
:10A090001288D0F808B00368DB0344BFC8F800A0FA
:10A0A000D0F808B02368D8F80020C9B281F311882D
:10A0B000316813440CFB01F2A2EB0B02B2FBF1F28C
:10A0C0000CFB03235EE4EFF3118189F31288D0F8CF
:10A0D00008B00368DB0344BFC8F800A0D0F808B09C
:10A0E0002368D8F80020C9B281F31188316813447D
:10A0F0000CFB01F2A2EB0B02B2FBF1F20CFB03230F
:10A10000FFF7E9BBEFF3118389F31288D0F808C099
:10A110000268D20304D50122C8F80020D0F808C094
:10A120002568D8F800A0DBB283F3118831684FF4BA
:10A130007A72554402FB01F3A3EB0C03B3FBF1F37A
:10A1400002FB0535FFF7FDBBEFF3118389F312889E
:10A15000D0F808C00268D20304D50122C8F8002054
:10A16000D0F808C02568D8F800A0DBB283F31188C6
:10A1700031684FF47A72554402FB01F3A3EB0C03F0
:10A18000B3FBF1F302FB0535FFF784BBEFF311835B
:10A1900089F31288D0F808C00268D20304D50122DE
:10A1A000C8F80020D0F808C02568D8F800A0DBB2B5
:10A1B00083F3118831684FF47A72554402FB01F33E
:10A1C000A3EB0C03B3FBF1F302FB053567E4EFF3FC
:10A1D000118389F31288D0F808C00268D20304D52D
:10A1E0000122C8F80020D0F808C02568D8F800A0DF
:10A1F000DBB283F3118831684FF47A72554402FB65
:10A2000001F3A3EB0C03B3FBF1F302FB0535FFF7FE
:10A21000EFBBEFF3118389F31288D0F808C002680E
:10A22000D20304D50122C8F80020D0F808C0256860
:10A23000D8F800A0DBB283F3118831684FF47A724A
:10A24000554402FB01F3A3EB0C03B3FBF1F302FB58
:10A250000535F7E4EFF3118389F31288D0F808C0CD
:10A260000268D20304D50122C8F80020D0F808C043
:10A270002568D8F800A0DBB283F3118831684FF469
:10A280007A72554402FB01F3A3EB0C03B3FBF1F329
:10A2900002FB05357FE4134607251B7C022B7FF468
:10A2A00016AD009B9B6913B11A689B885383009F6E
:10A2B0001A217869FFF78EFA29467869FFF78AFA3A
:10A2C000BB69002B3FF403AD1A689B881383FEE43F
:10A2D000EFF3118189F31288D0F808B00368DB032B
:10A2E00044BFC8F800A0D0F808B02368D8F8002010
:10A2F000C9B281F31188316813440CFB01F2A2EB5F
:10A300000B02B2FBF1F20CFB0323D8E5EFF3118152
:10A3100089F31288D0F808B00368DB0344BFC8F89B
:10A3200000A0D0F808B02368D8F80020C9B281F3A3
:10A330001188316813440CFB01F2A2EB0B02B2FB53
:10A34000F1F20CFB03231DE6EFF3118189F3128870
:10A35000D0F808B00368DB0344BFC8F800A0D0F809
:10A3600008B02368D8F80020C9B281F31188316899
:10A3700013440CFB01F2A2EB0B02B2FBF1F20CFB5B
:10A38000032345E5EFF3118189F31288D0F808B073
:10A390000368DB0344BFC8F800A0D0F808B0236806
:10A3A000D8F80020C9B281F31188316813440CFB3E
:10A3B00001F2A2EB0B02B2FBF1F20CFB0323D0E49F
:10A3C000EFF3118389F31288D0F808C00268D20332
:10A3D00004D50122C8F80020D0F808C02568D8F8B4
:10A3E00000A0DBB283F3118831684FF47A725544D0
:10A3F00002FB01F3A3EB0C03B3FBF1F302FB053506
:10A400008EE4EFF3118389F31288D0F808C0026854
:10A41000D20304D50122C8F80020D0F808C025686E
:10A42000D8F800A0DBB283F3118831684FF47A7258
:10A43000554402FB01F3A3EB0C03B3FBF1F302FB66
:10A4400005357EE5EFF3118389F31288D0F808C053
:10A450000268D20304D50122C8F80020D0F808C051
:10A460002568D8F800A0DBB283F3118831684FF477
:10A470007A72554402FB01F3A3EB0C03B3FBF1F337
:10A4800002FB0535A3E4EFF3118389F31288D0F8BA
:10A4900008C00268D20304D50122C8F80020D0F811
:10A4A00008C02568D8F800A0DBB283F311883168B2
:10A4B0004FF47A72554402FB01F3A3EB0C03B3FB98
:10A4C000F1F302FB0535D9E4019D1346FFF7FBBB11
:10A4D000009B9B6913B11A689B885383009D3721A9
:10A4E0006869FFF777F910216869FFF773F9AB69BD
:10A4F000002B3FF49AAC1A689B88138395E4009B69
:10A500009B6913B11A689B885383009D3821686941
:10A51000FFF760F901216869FFF75CF9AB69002B6F
:10A520003FF4DAAC1A689B881383D5E4009A9369E8
:10A5300092F8675013B11A689B885383009F1921C2
:10A540007869FFF747F929467869FFF743F9BB694E
:10A55000002B3FF413AC1A689B8813830EE4009B16
:10A560009B6913B11A689B885383009D1C216869FD
:10A57000FFF730F903996869FFF72CF9AB69002BF5
:10A580003FF437AB1A689B881383FFF732BB009BFD
:10A590009B6913B11A689B885383009D1B216869CE
:10A5A000FFF718F99DF808106869FFF713F9AB6910
:10A5B000002B3FF4B8AA1A689B881383FFF7B3BA3D
:10A5C000009B9B6913B11A689B885383009D6B2184
:10A5D0006869FFF7FFF801216869FFF7FBF8AB69CD
:10A5E000002B3FF433AA1A689B881383FFF72EBA17
:10A5F000009B9B6913B11A689B885383009D6B2154
:10A600006869FFF7E7F800216869FFF7E3F8AB69CD
:10A61000002B3FF4C4A91A689B881383FFF7BFB9C6
:10A62000009B9B6913B11A689B885383009D682126
:10A630006869FFF7CFF807216869FFF7CBF8AB69C6
:10A64000002B3FF455A91A689B881383FFF750B974
:10A65000009B9B6913B11A689B885383009C6B21F4
:10A660006069FFF7B7F880216069FFF7B3F8A36965
:10A67000002B3FF4E4A81A689B881383FFF7DFB828
:10A68000009B93F86430002B46D11023CDE90233B0
:10A69000FFF7D0B806F078FE009B044603F10C05E6
:10A6A00000283FD00068284900F13F4303F57E03AE
:10A6B0009A0A01238A5C02F01F01520920268B406E
:10A6C000032A4FF00001A671E17138D0042A31D07D
:10A6D000022A03D11D4A516C0B435364A38804938F
:10A6E00004A90023059332F047F8009A184BD36071
:10A6F0002946204627F0CAFDA388B3FA83F3C3F1A5
:10A700001F03012212FA03F33FF48BA811490A68D0
:10A7100013430B60FFF785B818231021CDE90231F0
:10A72000FFF788B81A460A4BD360294627F0AEFDDA
:10A73000FFF777B8054A116B0B431363CEE7034A63
:10A74000116C0B431364C9E7281705080038024051
:10A7500029860008003C01402DE9F041054680684B
:10A760001746984610B1036882885A8341F08001E9
:10A77000686840F2E93401E0002C43D00689013CCE
:10A7800016F0020FA4B2F7D089B2818140F2E9310C
:10A7900001E0002936D00389013913F0010F89B295
:10A7A000F7D08389838900264FF47A714FF6FF72C0
:10A7B0004FF0FF0C03E0013989B291421FD00389A9
:10A7C0009C07F8D5A0F80CC04FF47A7102E0A1B252
:10A7D000914214D00389DB0701F1FF34F7D5838957
:10A7E0009BB20FB13B70013701364645E7D1AB68EC
:10A7F00013B11A689B8813830120BDE8F081FEF72E
:10A8000021FFF4E7FEF71EFF6868CBE72DE9F04172
:10A810008046806810B1046880886083D8F804009E
:10A8200085894FF47A744FF6FF7613F1FF3320D306
:10A8300041B30F78013101E0B44218D00589013CE1
:10A84000AD07A4B2F8D5BCB284814FF47A7402E0AB
:10A85000BCB2B4420BD00589ED0704F1FF37F7D540
:10A860008589ADB2002AE0D015700132DDE7FEF730
:10A87000E9FED8F8083013B11A689B8813830120C9
:10A88000BDE8F081FF27D9E72DE9F04F83B0844B75
:10A89000019042699A4200F0ED8003F580639A428C
:10A8A00000F0E880138823F040031B041B0C138086
:10A8B000138823F038031B041B0C30210B43138037
:10A8C000138843F04003138008F084F9044608F02D
:10A8D00081F98442FBD0019C2046FEF799FFA369D1
:10A8E00013B11A689B885383019B586940F2E9337E
:10A8F00002E0002B00F0CB800289013B12F0020F36
:10A900009BB2F6D06A23838140F2E93302E0002B48
:10A9100000F0BD800289013B12F0010F9BB2F6D01E
:10A92000838940F2E93302E0002B00F0B580028910
:10A93000013B12F0020F9BB2F6D01023838140F24C
:10A94000E93302E0002B00F0A7800289013B12F0FE
:10A95000010F9BB2F6D08389019B9B6913B11A68E2
:10A960009B88138364234F4CDFF84491DFF84481C4
:10A970004D4DDFF844A14D4E009308F02BF94FF4F4
:10A980007A774FF0100C4FF0010ED8F80430C3F373
:10A990000803002B42D1EFF31183002B3ED1236833
:10A9A000A96822689342FAD132689142F7D8D9F85F
:10A9B000002007FB02FBABEB0101B1FBF2F107FB4F
:10A9C00003131B1AB3F57A7FDFD3009B013B00937F
:10A9D000D3D1019B5A69324B9A423ED003F5806332
:10A9E0009A423AD0138823F040031B041B0C1380B7
:10A9F000138823F038031B041B0C08210B4313801E
:10AA0000138843F04003138008F0E4F8044608F08C
:10AA1000E1F88442FBD003B0BDE8F08FEFF3118181
:10AA20008CF31288D5F808B02B68DB0344BFCAF852
:10AA300000E0D5F808B02368DAF80020C9B281F345
:10AA40001188D9F80010134407FB01F2A2EB0B02A6
:10AA5000B2FBF1F207FB0323B3E7138823F04003B3
:10AA60001B041B0C1380138823F038031B041B0CDE
:10AA70000021C3E7138823F040031B041B0C138041
:10AA8000138823F038031B041B0C282116E7FEF75C
:10AA9000D9FD019B586944E7FEF7D4FD5CE700BF90
:10AAA00000380040F88B002010E000E0008C00200F
:10AAB000FC8B002000ED00E0F48B0020F0B58769EE
:10AAC00083B0064617B13B68BA885A837069DFF8CD
:10AAD000A8E08389C3244FF47A734FF0060C6D46C7
:10AAE0004FF6FF710EF1010E03E0013B9BB28B426A
:10AAF00020D002899207F8D5A3B283814FF47A73EC
:10AB000002E0A3B28B4215D00289D20703F1FF34D1
:10AB1000F7D5828992B20DB12A700135BCF1000FD0
:10AB20000BD00CF1FF3CFF24BEF1000FE1D09EF8EA
:10AB30000040D7E7FEF786FDB76917B13B68BA88D2
:10AB40001A839DF805009DF801509DF802109DF8AC
:10AB500003409DF804209DF8063041EA052143EAB0
:10AB6000002342EA04220120A6F85010A6F8522041
:10AB7000A6F8543003B0F0BD64FE0408037C022B39
:10AB800001D00020704770B5836982B013B11A6894
:10AB90009B885383044640F2E933406901E0002B6F
:10ABA00037D00289013B12F0020F9BB2F7D0C323CA
:10ABB000838140F2E93300E05BB30289013B12F08C
:10ABC000010F9BB2F8D0838906236A460021FEF765
:10ABD0005BFDA36913B11A689B8813839DF8040079
:10ABE0009DF800609DF801109DF802509DF803202B
:10ABF0009DF8053041EA062143EA002342EA052296
:10AC00000120A4F85010A4F85220A4F8543002B047
:10AC100070BDFEF717FD6069D6E700BF037A022B0F
:10AC200001D00020704770B5036982B013B11A6873
:10AC30009B885383044640F2E933C06800E0A3B325
:10AC40000289013B12F0020F9BB2F8D0BB23838133
:10AC500040F2E93300E043B30289013B12F0010FF7
:10AC60009BB2F8D0838906236A460021FEF70CFDCB
:10AC7000236913B11A689B8813839DF804009DF81B
:10AC800000609DF801109DF802509DF803209DF88A
:10AC9000053041EA062143EA002342EA0522012069
:10ACA000E1822283638302B070BDFEF7CBFCE068D3
:10ACB000D9E700BF427A4AB110B5044604F10A014F
:10ACC000D0E9003098470023637210BD704700BF81
:10ACD000437A5A1C0344D2B242729972037A934265
:10ACE0000AD84AB110B5044604F10A01D0E900308F
:10ACF00098470023637210BD704700BF48B101231D
:10AD0000302803FA01F101D0312803D14A0709D1D3
:10AD1000002070473228F9D03328F7D0342803D1E7
:10AD20008B07F5D0012070473528F9D02028F7D0BF
:10AD30002128F5D01028E9D01128E7D01228E5D035
:10AD40001328E3D01428EBD01528E9D0162804D115
:10AD500011F0030018BF012070471728D8D111F057
:10AD6000030018BF01207047302829D0312829D08E
:10AD7000322829D0332829D0342829D0352829D081
:10AD800020282BD021282BD0102825D0112829D0DD
:10AD9000122829D0132829D0142829D0152829D0E1
:10ADA000162805D0172808BF0F2302D000207047AF
:10ADB0000E23114A03EB4303134493F882007047B8
:10ADC0000023F6E70123F4E70223F2E70323F0E789
:10ADD0000423EEE70523ECE70823EAE70623E8E788
:10ADE0000723E6E70923E4E70A23E2E70B23E0E78A
:10ADF0000C23DEE70D23DCE7ECFD0408024A1368B0
:10AE000023EA00001060704738B10020DFED2E7A91
:10AE1000B4EEE70AF1EE10FA4ADDDFED2C6A9FEDA1
:10AE20002C7A01E0B0EE670AB4EEC70AF1EE10FA30
:10AE300070EE667AF6DC9FED277AF4EEC77AF1EED3
:10AE400010FA3ED5DFED216A9FED237A01E0F0EEA6
:10AE5000407AF4EEC77AF1EE10FA37EEA60AF6D48D
:10AE6000DFED1E7AB4EEE70AF1EE10FA14DDDFED45
:10AE7000167A37EEC00A60EE006A9FED196A9FED00
:10AE8000197ADFED197AA6EE867A20EE266AE6EECA
:10AE9000877AA6EE270A7047DFED147AB4EEE70A48
:10AEA000F1EE10FA44BFDFED0B7A37EEC00AE2E7AD
:10AEB0009FED087AF0EE407AF4EEC77AF1EE10FAE0
:10AEC000C0D4B0EE670ACBE7DB0F4940DB0FC940C7
:10AED000E4CB1641DB0F49C0E4CB16C1DB0FC93F01
:10AEE00092E741B99730083C15A82ABEDB0FC9BFCD
:10AEF000F0EEC07AB0EEE07AB4EEE77AF1EE10FA56
:10AF0000B4BFB0EE676AB0EE476AB5EE406AF1EEE4
:10AF100010FA46D0B4EEE77AF1EE10FA8CBFF0EEFC
:10AF2000675AF0EE475AC5EE866A9FED1F3A9FEDCD
:10AF30001F6A9FED1F4A9FED1F5ADFED1F3ADFED9D
:10AF40001F4ADFED1F5AA6EEC36AE6EEA34AA6EE3D
:10AF5000864AB7EE006AA6EE845AA6EEA46AE6EE2A
:10AF6000855AC5EE866AB4EEE77AF1EE10FA48BF6C
:10AF7000DFED147AF5EEC00A48BF77EEE66AF1EE2F
:10AF800010FA48BFDFED107AB5EEC00A48BF77EE81
:10AF9000E66AF1EE10FA48BFF1EE666AB0EE660AB4
:10AFA0007047DFED076ADEE739094E3DE3B59E3EA7
:10AFB00088FA163E45FE7F3F99FB243F69A2163E64
:10AFC000A7DFA834DB0FC93FDB0F4940DFED317A43
