:020000040800F2
:100000000020001051160308E9B6010849E2000873
:10001000E7B60108E5B60108E3B6010800000000F4
:10002000000000000000000000000000E1B6010830
:10003000DFB6010800000000DDB60108391502082E
:10004000B9160308B9160308B9160308B916030848
:10005000B9160308B91603082D230208592402080B
:100060001D240208E1230208A523020861530208A7
:100070005153020841530208315302082153020828
:100080000D530208F9520208B9160308B9160308FD
:10009000B1E70108B9160308B91603086923020875
:1000A000B9160308F9EC000831EC0008B91603088A
:1000B0002DEF0008B9160308B9160308B91603088E
:1000C000B9160308B9160308B9160308B9160308C8
:1000D000B9160308F515020879150208B9160308C0
:1000E000F1220208B9160308CDB60108B9160308B3
:1000F000B5ED0008B916030871EE0008B91603083B
:10010000000000000000000000000000B916030815
:10011000B9160308B9160308312200081D22000889
:10012000E5520208D1520208BD520208A952020843
:1001300095520208B91603080000000000000000F4
:10014000B9160308B9160308B91603080000000021
:10015000000000000000000000000000000000009F
:100160000000000000000000B9160308B9160308DB
:10017000B9160308000000000000000000000000A5
:0801800000000000B91603089D
:1001880010F8113C0133DBB20A2B00F8113C07D9F7
:10019800044A10F8131C002322F8113000F8113C0F
:1001A800704700BFEC310020F0B45D4E5D483278F6
:1001B8005D4B5E4DDC6B2D780132A0FB02700009AF
:1001C80000EB8000A2EB80001A683070914201EBCE
:1001D80004005C6811D293F84520002A4ED000F53F
:1001E8008030B0FBF5F084420BD2041B4FF4803210
:1001F80092FBF5F2A21A9A600AE0B0FBF5F084428D
:1002080044D34FF4803292FBF5F2121B02449A60F9
:1002180040F68C240025A242C3E9001083F845501B
:1002280017D993F8402093F942108A4256B241D028
:10023800002093F9411083F843008A4247D00121F6
:10024800002283F8426083F8441083F84020F0BC11
:10025800704793F844100029F9D0A2F2EF2040F239
:10026800DA5188421AD893F840100B2916D803EBB4
:1002780081000131C26083F84010E8E7B0FBF5F077
:100288008442BED2041BA21A9A60C1E793F84520A3
:10029800002AAAD1041BA21A9A60B9E7244A0021AD
:1002A80002F1300083F8441042F8041F8242FBD167
:1002B800F0BC7047111F0829BAD893F843101829C1
:1002C80026D8013183F8431093F94110B5E793F824
:1002D80044100029B3D0FAB11649154C0FFA82FC24
:1002E800084601EB4C0754F8045F20F8025BB8425B
:1002F800F9D10B2A07DC104801EB4C02002122F847
:10030800021B9042FBD10D490A7801320A7096E728
:1003180083F84160314690E794460649EBE700BF11
:1003280058220020CDCCCCCC0869002050220020D7
:1003380010690020EC31002004320020DC3100205C
:1003480030B40E4D0E4B2A780E4C0132A3FB02033B
:100358001B09E06B03EB8303A2EB83034FF6FF72E9
:10036800914200F101002B70084408BF0123E063AB
:1003780008BF84F8453030BC704700BF58220020C1
:10038800CDCCCCCC08690020002800F01B81B24BF2
:100398001A7CF0B4002A40F09780196800220128DE
:1003A8000A6043D093F82810002941D199690022A6
:1003B80002280A603AD093F8401000295ED1196BE0
:1003C800002203280A6031D093F85810002940F021
:1003D800A080996C002204280A6027D093F8701036
:1003E800002940F0F080196E002205280A601DD00F
:1003F80093F88810002940F00C81996F0022062894
:100408000A6013D093F8A010002940F02D81D3F88A
:100418009010002207280A6008D093F8B810002925
:1004280040F0A380D3F8A83000221A60F0BC7047CF
:10043800D9698A4D8C0AAC4200F0518140F237816B
:10044800874A944200F05B810132944240F0338144
:100458000322EFF31184502585F31288814E4F6AE9
:100468004D6902EB820206EBC202013745F0010535
:100478009762E4B24D6184F3118897E7596B774D21
:100488008C0AAC4200F02D8140F21781744A9442E4
:1004980000F03D810132944240F013810322EFF3D2
:1004A8001184502585F312886E4E4F6A4D6902EB10
:1004B800820206EBC202013745F001059762E4B2F9
:1004C8004D6184F311887AE75A68644C910AA14215
:1004D80000F0F98070D9624CA14200F0F880013434
:1004E800A14240F0F2800321EFF31184502585F3F7
:1004F80012885C4E576A556901EB810106EBC10110
:10050800013745F001058F62E4B2556184F3118823
:1005180043E7D96C514D8C0AAC4200F0018140F29E
:10052800D8804F4A944200F0F9800132944240F05A
:10053800D4800322EFF31184502585F31288494EA5
:100548004F6A4D6902EB820206EBC202013745F0A1
:1005580001059762E4B24D6184F31188996C002219
:1005680004280A607FF43AAF60E7D3F8AC103B4C3C
:10057800880AA04200F0E38040F2B780384A9042EF
:1005880000F0DB800132904240F0B3800322EFF3A9
:100598001180502484F31288324D4E6A4C6902EB64
:1005A800820205EBC205013644F00104AE62C2B214
:1005B8004C6182F3118835E7B1F5801F40F08580E2
:1005C800002191E77047596E244D8C0AAC4200F027
:1005D800AE8040F29680224A944200F08480013234
:1005E800944240F092800322EFF31184502585F362
:1005F80012881C4E4F6A4D6902EB820206EBC2025A
:10060800013745F001059762E4B24D6184F3118822
:10061800E9E6D96F114D8C0AAC4200F08A8078D98E
:100628000F4A944267D00132944275D10322EFF306
:100638001184502585F312880A4E4F6A4D6902EBE2
:10064800820206EBC202013745F001059762E4B267
:100658004D6184F31188D0E6546900204D001000E4
:100668005100100058220020D3F89410354D8C0A00
:10067800AC4260D056D9344A94423ED001329442BA
:1006880053D10322EFF31184502585F312882F4E9E
:100698004F6A4D6902EB820206EBC202013745F050
:1006A80001059762E4B24D6184F31188AFE6B4F5B1
:1006B800801F3FF4CEAEFE22CBE6B4F5801F3FF498
:1006C800EEAEFE22EBE601210EE7FE210CE7022149
:1006D8000AE7B4F5801F3FF42DAFFE222AE7012276
:1006E800B7E60122DBE602227EE7B0F5801F3FF481
:1006F8004EAFFE224BE7022299E70222C2E702220E
:10070800A7E6B4F5801F3FF46FAFFE226CE7022224
:10071800C5E6B4F5801F8AD0FE2288E7022209E7E1
:10072800012207E7B4F5801FACD0FE22AAE7012218
:100738005AE701227BE70122A4E7022227E70122E8
:1007480025E700BF4D00100051001000582200207E
:10075800704700BF70B4150BC2F30324064605EBBF
:10076800450504EB44044800C2F303131835183454
:1007780002F00F02356003EB430346F8214002EB19
:10078800420201441833183246F82030062046F851
:10079800212070BC704700BF2DE9F04F12F4004FC4
:1007A80014BF4FF00E0B4FF0070B12F4804F14BF1D
:1007B8004FF00E0A4FF0070A12F4005F14BF4FF013
:1007C8000E094FF0070912F4805F14BF4FF00E08AE
:1007D8004FF007084FEA410C12F4006F83B001EBA9
:1007E8000C0714BF4FF00E0E4FF0070E12F4806F77
:1007F80001EB070614BF0E2307238D190193034647
:1008080012F4007F01EB0504C3F800B018BF0E20F6
:1008180043F821A008BF072043F82C9012F4807FEA
:1008280001EB040C43F8278043F826E001EB0C07A2
:1008380014BF4FF00E084FF00708019E43F82560DB
:1008480012F0800F01EB070614BF4FF00E0E4FF0A9
:10085800070E12F0400F43F8240001EB060514BF01
:100868000E20072012F0200F43F82C8001EB05041E
:1008780014BF4FF00E0C4FF0070C12F0100F43F896
:1008880027E043F8260018BF0E2701EB040008BF35
:10089800072712F0080F43F825C018BF0E2643F8A3
:1008A800247008BF07260C1812F0040F43F82060C4
:1008B80018BF0E2501EB040008BF072512F0020F30
:1008C80043F82450014414BF0E24072412F0010FEA
:1008D80043F8204014BF0E220722122043F821209B
:1008E80003B0BDE8F08F00BF704700BF024B1A8805
:1008F8009B78028083707047F428030870B4104A0C
:10090800104BB2F90060B2F902501C780E4940F65B
:10091800E44202FB00F2120B42F2107303FB02F3F3
:1009280093FBF6F32B4481FB0310222C4FEAE3736D
:10093800C3EBA00002D1054B1A80588070BC7047E9
:100948002C7700206878002067666666F8770020B4
:100958000A4BD3F8A41081B130B4D3F8A850084C8E
:100968000020642202FB05F2C3F8A400B2FBF1F2F6
:10097800C3F8A800228030BC704770475822002076
:10098800C2490020704710B51622044600210630DF
:1009980031F03FFF1423A3700523E3706371E37202
:1009A8006373E37463755223002204210120A37644
:1009B80064232171A271A2722173A273A07421759C
:1009C800A2752080238310BD70B505466C0031F0F8
:1009D80057F82A49631901EB43131E7B06B970BD0A
:1009E800274AD2F8AC6080B22EB192F8B46016B93A
:1009F80092F8B56066BB2C4401EB4414214B227D70
:100A0800208142EA400290B2021282EA1012424069
:100A180002F00F0242EA00121B781B4800262675D6
:100A280092B20668E3B9602000FB05101830012176
:100A3800B04721696368B1F82C216489DB682243D7
:100A4800A1F82C2158601A6842F001021A6070BDA2
:100A58002A4492F8B6000028CDD001221A75CAE7B8
:100A6800636820695B7903F0FC030C3318440421A4
:100A7800B04723698000188170BD00BF406A00201C
:100A8800582200203C6A0020346A002038B500EB68
:100A98004000084DC4002B1993ED027AD3ED037A78
:100AA800E7EE007AB0EE670A30F0EAFF2B591860DB
:100AB80038BD00BF54690020044B93F8D420D3F804
:100AC800C4000AB921F0B2BB21F0B6BB58220020FD
:100AD800044B93F8D420D3F8C4000AB921F0ACBB76
:100AE80021F0A4BB5822002010B5272020F0D0FF09
:100AF800044618B1112200238271C37120462BF0DD
:100B080049FE0A2020F0B6FC2046BDE8104021F03E
:100B1800CDBB00BF70B4044600F16C06064D0FCD86
:100B28002D88258220606160A260E3601234B4429F
:100B3800F4D170BC704700BFF82803086D4B1B78D0
:100B4800002B3AD070B56C4B6C4A9B79D2F8D840E0
:100B5800C2F8D800013B041B032B00F28480DFE8B5
:100B680003F04602312B29F01DFE654B654D1978BF
:100B78006B8801F0010100287BD06348634AD0EDFF
:100B8800037A9360002940F08A8003FB04F007EEA3
:100B9800900ADFED5F6A5F49B8EEE77AD2ED017A35
:100BA800E7EE267AC1E90033BDEEE77AC2ED017AB5
:100BB80082ED007A81ED027A70BD564AC2E90033AF
:100BC80093607047544B1B681B01F5D5FF201CF040
:100BD80085F918B103780A2B6FD9002003464D4ACE
:100BE8004E499060C1E90003C2E9003370BD4C4A28
:100BF8004C4BD2794C4D33F81260B6B23046FFF701
:100C08007DFE07EE906AE860B8EE670A47481FF075
:100C180049FDBCEEC00A10EE103A98B2FFF76EFE1E
:100C2800E968D5ED017ADFED3A6A3A4B404AA860A7
:100C380001FB04F407EE104AB8EEC77A1860E7EE35
:100C4800267A107859602228BDEEE77AC5ED017A38
:100C580017EE102A83ED027A85ED007AACD1354B78
:100C68009980DA8070BD2B4B0022C3E900229A607C
:100C780070BD294A1268D2067FF57FAF234A936078
:100C8800002982D0B5F900502B4900FB05F081FB03
:100C98000051C017C0EBA1100344936075E7FDEE47
:100CA800E77A264E17EE900AA0F57A7000FB00F15D
:100CB800A6FB016100EB1110E4E7214A214B5188A2
:100CC8001A68D0ED027ADFED206A204C436802FBF7
:100CD80001F207EE102AF8EEE77AB8EE477AA4FB9D
:100CE8000121E7EE267A03EBD103FDEEE77A17EE52
:100CF800900A74E7047800203477002058220020F6
:100D08003C3F002030770020E83A00206C78002033
:100D18002FE33E31EC77002014680020787800201B
:100D28005C5B00207C5B0020587800203423002086
:100D380068780020F8770020D34D62101F85EB51AA
:100D4800CC400020985B00207D219534CDCCCCCCC4
:100D5800F8B5424B5B79012B2FD0022B0ED0404BBC
:100D680000221A603F4B1B78022B00D0F8BD3C4A8A
:100D78003D4B5188128819805A80F8BD3B4B1B683F
:100D88001B01EFD5FF201CF0A9F8002862D00378DA
:100D98000A2B51D99FED360A0023364C201D63805B
:100DA8001FF080FCBCEEC00A10EE103A9BB2238004
:100DB8002B4A618851801380D4E72F4A2F4B9278B1
:100DC8002F4C33F812102F4F8DB207EE905A204651
:100DD800B8EE670A1FF066FCBCEEC00A3978DFF887
:100DE800ACC07E781E4810EE103A40F6E44202FB92
:100DF80001F29BB202FB05F102FB03F3ACFB0323F8
:100E0800ACFB011244F6FB71BD7801EB531301EB07
:100E18005211C6EB0632B3FBF2F3B1FBF2F2B3FBAD
:100E2800F5F3B2FBF5F29BB292B224F8043C24F835
:100E3800022C0380428095E7B0F902201249D317AB
:100E480081FB0212C3EBA2039BB207EE903AB8EE05
:100E5800670AA2E7074C2388AAE700BF3477002077
:100E6800E477002068780020F877002014680020D4
:100E780000000000307800205C5B00207C5B0020D4
:100E88000C78002028770020676666661F85EB517E
:100E980070B5294D294C2A496A792A4E2A480423D3
:100EA8000B7084F8003100216423012A84F8093189
:100EB800A4F80211A4F8041184F80811C4F80C115C
:100EC800317001601ED0022A10D0A9791F4A002370
:100ED8000129136084F81031C2E901331ED00229B8
:100EE80003D11B4AC2E90033936070BD2822194818
:100EF80031F08FFC44F620619FED170A174823F064
:100F0800C1FAE2E72822164831F083FC44F6206152
:100F18009FED110A134823F0B5FAD6E7124A9FED60
:100F2800130A1360C2E90133D360114844F6206103
:100F3800BDE8704023F0A6BA34770020582200207C
:100F48000578002004780020E4770020EC77002062
:100F58006C78002030780020CDCCCC3D347800204F
:100F6800087800200C78002058780020CDCCCC3EA2
:100F78003423002038B5084D002415F8013BFF2B19
:100F8800184605D00BF0F0F90146204621F062F929
:100F98000134042CF1D138BDE86700202DE9F04771
:100FA800AC4D2C68E60500F1D580DFF8EC92AA4B31
:100FB80099F80280A94F00221A70B8F1000F00F0CA
:100FC800D7800921A64822F09BFD002800F0BF80A9
:100FD80044F01004A34AA44B16682C6016F48056FB
:100FE800B3F906A077D1A14B9B8A534500F38980BA
:100FF80044F040049E4B2C601B78180706D41E2131
:10100800974822F07DFD002800F0D78024F0800466
:10101800984B1B88642B984B1B688CBF44F48064E6
:1010280024F48064590703D5B7F81221002A6DD13A
:10103800B7F81421002A67D1904BD3F8B430002BAD
:1010480064D124F400648E4B2C6003F1780102E033
:101058000633994216D01A781F2AF9D19878DA7887
:10106800904202D35A79002AF2D01F217C4822F0FC
:1010780047FD20B1834B1B785B0740F1AA8044F4FD
:1010880000742C602221764822F03AFD002840D1D5
:10109800B8F1000F43D0002C57D1002387F8163140
:1010A80020F096F9D7F81831C01A002811DB97F804
:1010B8001611012900F0AA80C0F0A380022900F0CF
:1010C800848020F085F900F5F42000F59070C7F8C9
:1010D8001801BDE8F0871821614822F011FD0028A9
:1010E80081D1694B1A7B002A7FF47DAF5F49DA888A
:1010F8004B8A991A5145BFF67BAF134453457FF786
:1011080077AF24F0400475E79A0795D544F4006456
:1011180099E744F400342C60B8F1000F15D199F820
:101128000030002B34D19846002E3BD100214C488A
:1011380022F0E6FC002855D0002CAED0B8F1000F04
:1011480003D1002E49D0002848D00223A6E724F076
:1011580010043FE74D4A4E4B91791A684FF47A7361
:1011680003FB01F393429CBF24F480742C601CE7BA
:10117800484A97F81131167813BB1EB341463848D0
:1011880022F0BEFC002851D124F008042C6019E09C
:1011980024F4002828F40068B8FA88F84FEA5818A8
:1011A800002EC3D018212E4822F0AAFC90BB364B43
:1011B8001B7B002B3ED00646B8E744F0800427E7A7
:1011C800002E3FD187F81161FBE6002020F0ACFA31
:1011D80077E724F400742C6054E7E8B924F4002479
:1011E8002C6058E724F0200401461D482C6022F0AA
:1011F80087FCACB900287FF450AF24F400242C609D
:1012080049E70021084621F037F85AE7002021F085
:1012180033F856E7002689E744F400242C6094E765
:10122800B8F1000F8FD1002E8DD1D6E744F0080415
:101238002C60C7E724F4002626F04006B6FA86F6A6
:10124800760973E74146064822F05AFC0028B9D1CE
:101258009AE700BFF04200204C46002058220020A8
:10126800E837002014680020F0450020C8760020E8
:101278006C460020C249002000430020D84D0020C1
:10128800A83400203C3F0020E44C0020B477002024
:10129800985B0020E83100204C3800204E4A137833
:1012A800D90700D4704723F0010370B5137020F0FC
:1012B8008FF84A4B9A782AB31B79022B22D0484CD4
:1012C80023780B2B18D801229A4040F6030112EA22
:1012D800010517D112F4C06F0ED0093B012B0BD8B2
:1012E800452015F039FDFF2015F036FD3D4815F075
:1012F8001FFD284615F030FD3B4A3C4B12685A60EA
:101308000B2323703A4D3B4C2B782BB123781BB120
:10131800394B1B68DB0402D50023237070BD374BA3
:101328001E7820F055F82B78002BF5D0344DD5F8E1
:10133800AC20002AF0D100F51C5010300A214FF4DF
:101348007A72C5F8AC0085F8B510C5F8B020002E43
:101358003CD03246142105F1B60031F05AFA294A38
:101368001389012EB3FA83F34FEA53132ED0B2F840
:101378006810002918BF0023022E27D0B2F8C81021
:10138800002918BF0023032E20D0B2F82811002905
:1013980018BF0023042E19D0B2F88811002918BFED
:1013A8000023052E12D0B2F8E811002918BF002337
:1013B800062E0BD0B2F84812002918BF0023072EBA
:1013C80004D0B2F8A822002A18BF002383F0010332
:1013D80085F8B430A0E700BF3C3F00206E460020EF
:1013E800E02E0020A4540308985B00201C3800203D
:1013F8002C6A00204C460020146800200678002043
:1014080058220020406A002030B4424B1B78012B40
:1014180014BF00240324036A19B304293BD0082904
:1014280057D04EF6FF710B400362C369016A40F65C
:10143800FF452B4045F6FF75294041EA023243F447
:10144800807342F4805243EA043392B2C361026269
:10145800C3694FF2FF321340C361C369C36130BC33
:10146800704723F0010303628369016A23F0F303E1
:1014780042F0010243F0010321F00A0143EA041398
:101488000A4383610262836923F00C0383618369E1
:10149800836130BC70474FF6EF710B40036283697C
:1014A800016A12014FF65F7542F0100223F473438C
:1014B800294092B243F4807343EA04330A438361B8
:1014C8000262836923F4406383618369836130BC6A
:1014D80070474FF6FF610B400362C369056A4FF21C
:1014E800FF5129409BB223F0F30341EA022243F063
:1014F800010342F4807243EA041392B2C3610262A8
:10150800C3694FF6F3721340C361C369C36130BC4A
:10151800704700BF18680020F8B550F8043C10F870
:101528000E4C5E7902461868C4B114460B4632F870
:101538000C1C14F80F7C24F80A3C0D4A5B1A9BB269
:10154800002524F8083C314622F817302A4604F8CA
:101558000E5CFFF759FF04F80D5CF8BD012302F893
:101568000E3C22F80C1C31460222BDE8F8404BE73D
:10157800EC310020F8B50E4E0746B0680C4615460B
:1015880020F054FE3946706821F0A6F8074655B198
:10159800013D54FA85F5013C14F8011F706821F0EB
:1015A8009BF8AC42F8D1B06820F046FE3846F8BD4A
:1015B800EC5B002070B50A4C0546A0680E4620F08A
:1015C80035FE2946606821F087F83146054660688F
:1015D80021F082F8A06820F02FFE284670BD00BFD9
:1015E800EC5B0020F8B5204F05461FF0F1FE97F898
:1015F800B4607EB10DB31D4A31460023148901330E
:10160800002C18BF0021AB4202F16002F6D1A1B94B
:101618003046F8BDD7F8AC30C31A002BF8DB97F882
:10162800B530A3B1013BDBB287F8B530A3B100F503
:101638007A70C7F8AC000126EAE700F51C501030B4
:101648000023C7F8AC0087F8B4303046F8BDC7F8B7
:10165800AC6001263046F8BDD7F8B0301844C7F85A
:10166800AC000126D4E700BF58220020406A0020C1
:101678002DE9F04F83B01C460646884617461FF0F2
:10168800A7FEBC4B1B78002B72D02F2F70D8DFF829
:1016980010A3DAF8AC30002B6AD1152F6BD80123D0
:1016A800B54903FA07F20A4240F01B82B34912F027
:1016B8003E0F9B460CBF4FF47A730B460193002CE8
:1016C8005FD100F51C501030019BCAF8AC008AF8B5
:1016D800B5B0CAF8B030B8F1000F47D04246394625
:1016E800A74831F096F8A74A1389B8F1010FB3FA61
:1016F80083F34FEA531335D0B2F86810002918BFA6
:101708000023B8F1020F2DD0B2F8C810002918BF75
:101718000023B8F1030F25D0B2F82811002918BF0B
:101728000023B8F1040F1DD0B2F88811002918BFA2
:101738000023B8F1050F15D0B2F8E811002918BF39
:101748000023B8F1060F0DD0B2F84812002918BFCF
:101758000023B8F1070F05D0B2F8A822002A08BF65
:101768001C4600E01C4684F00104E4B28AF8B44048
:1017780003B0BDE8F08F4FF47A7301934FF0010B7B
:101788009DE708F1FF3942F228305FFA89F91FF026
:1017980071FE09F10109CDF800804FF47A701FF04D
:1017A80069FE009BDAF8ACC0002B5CD0764DDFF800
:1017B800E481002404E00134A14505F1600552D01C
:1017C800E3B29E4201D0FF2EF5D16E4963001A198B
:1017D80001EB42124FF0010E82F814E0297AB8B2F8
:1017E8000029E8D0BCF1000F07D09AF8B41021B94D
:1017F8009AF8B510002940F0B480624AA8802344C2
:1018080002EB43134FF0000C1A7D98F8001083F890
:1018180014C042EA4000021282EA101242405B4BB6
:1018280002F00F0242EA00121B68002940F05F81B3
:10183800012105F114009847E9682B68B5F806C03E
:10184800B1F82C21DB6842EA0C02A1F82C2158607F
:101858001A68DAF8ACC0013442F00102A1451A60F6
:1018680005F16005ACD1BCF1000F40F03381484B65
:101878001A78002A69D04749474B0978186800291F
:1018880040F090804162C568B3F82C41012A44EACF
:101898000504C460A3F82C1157D9D3F83001B3F864
:1018A8005C424162C568022A44EA0504C460A3F8A0
:1018B8005C124AD0D3F86002B3F88C434162C56821
:1018C800032A44EA0504C460A3F88C133DD0D3F876
:1018D8009003B3F8BC444162C568042A44EA05048D
:1018E800C460A3F8BC1430D0D3F8C004B3F8EC45F6
:1018F8004162C568052A44EA0504C460A3F8EC15EA
:1019080023D0D3F8F005B3F81C474162C568062A0E
:1019180044EA0504C460A3F81C1716D0D3F82007BE
:10192800B3F84C484162C568072A44EA0504C46014
:10193800A3F84C1809D0D3F85028B3F87C095162A1
:10194800D4682043D060A3F87C190BF1FF3B1BF04F
:10195800FF0B7FF422AF019803B0BDE8F04F1FF0F2
:1019680089BD0E492144887A00283FF446AF82F8A1
:1019780014E042E72C6A002080173000A08601009E
:101988000E230020406A0020446A0020346A0020A8
:10199800406D00203C6A0020446D00200423002094
:1019A800582200205C6819896160256840F20D3171
:1019B80045F001052560A0F84810C468012A44F4E0
:1019C8008074C460C1D9D3F83441B3F83801606079
:1019D8002568D3F8300145F001052560A0F84810C6
:1019E800C468022A44F48074C460AED0D3F8644258
:1019F800B3F8680260602568D3F8600245F0010515
:101A08002560A0F84810C468032A44F48074C460B0
:101A18009BD0D3F89443B3F8980360602568D3F853
:101A2800900345F001052560A0F84810C468042A11
:101A380044F48074C46088D0D3F8C444B3F8C804AC
:101A480060602568D3F8C00445F001052560A0F85A
:101A58004810C468052A44F48074C4603FF475AF24
:101A6800D3F8F445B3F8F80560602568D3F8F005B5
:101A780045F001052560A0F84810C468062A44F41A
:101A88008074C4603FF461AFD3F82447B3F82807E3
:101A980060602568D3F8200745F001052560A0F8A7
:101AA8004810C468072A44F48074C4603FF44DAFFA
:101AB800D3F85428B3F8580850601068D3F8503851
:101AC80040F001001060A3F84810DA6842F4807210
:101AD800DA603AE70020FFF785FD00287FF4C7AEFB
:101AE80033E74FF47A7301934FF00A0BE7E5286860
:101AF800E968407900F0FC000C300844042198475C
:101B0800EB68DAF8ACC08000188154E62DE9F84398
:101B1800854D2B78002B62D1844C2378D90736D495
:101B2800FFF73CFA824B1B68002B3CD12378DA077D
:101B380001D5BDE8F8831FF04BFC7E4B7E4A1B683D
:101B4800C31A934207465ED8DFF80482D8F80030FB
:101B5800002BEED1794B03F1780103E0063399426B
:101B680000F098801A781E2AF8D19878DA7890428E
:101B780002D35A79002AF1D01E21714821F0C0FF02
:101B8800002800F087800223C8F80030D1E76D4AAA
:101B98006D4B1178186801F0010120F053FB644B7C
:101BA8001B68002BC2D0694A694912780020086076
:101BB80022B1684AD2F8B420002ABAD16649002B6B
:101BC80093FAA3F2B2FA82F2D1F82C3108BF4FF09F
:101BD800FF3201329342ACD0C1F82C21A9E75B4A0D
:101BE8001378002B98D15D495D4B888B1C68594947
:101BF80042F2107303FB00F30120B3FBF4F31070FF
:101C0800C1F8B43088E7574B1B78002B46D1DFF872
:101C18004081554EDFF840912078484B40F0030250
:101C280022700022C8F80020C9F82021C9F8242110
:101C380002E006339E420CD01A781F2AF9D199780F
:101C4800DA78914202D35A79002AF2D040F007009C
:101C58002070464B1B689B0701D528F0AFFA6B78BC
:101C6800DFED436A07EE103A07EE907AB8EEC77ACE
:101C7800F8EE677A0023E7EE267AC9F82C31C9F81E
:101C88003031C9F83431FCEEE77AC9F83831C9ED9A
:101C98004A7A4EE70123C8F800304AE7274B03F198
:101CA800780602E006339E421ED01A781E2AF9D121
:101CB8009978DA78914202D35A79002AF2D01E2113
:101CC8001F48DFF88C8021F01BFF2A4B1B6803F4A8
:101CD800805370B9D8F80020022A0AD0264A10701A
:101CE800C3B1DFF8749097E7DFF86480DFF8689095
:101CF80092E7214ADFF8609001211170002289F8EB
:101D08001C21002B88D11D4AFF2011781522FFF7CE
:101D1800AFFC81E7194ADFF840901178FF201422C0
:101D2800FFF7A6FC78E700BF4C3800203C3F0020B6
:101D3800F04200200C4700207F4F1200A8340020FA
:101D4800E8370020845B0020885B0020EF33002008
:101D580048460020D84D002058220020345B00203F
:101D6800245B00202C6A002020350020004300203E
:101D780000247449146800204C460020067800208E
:101D8800134B1A680AB1002111609A690AB100213F
:101D980011601A6B0AB1002111609A6C0AB1002116
:101DA80011601A6E0AB1002111609A6F0AB1002100
:101DB8001160D3F890200AB100211160D3F8A8303F
:101DC8000BB100221A60034B00221A70704700BF43
:101DD80054690020C47600202DE9F04F0C68DFF824
:101DE800E4C22588B44EB6FBF2F285B0013B013A55
:101DF80064459EB2ADB292B2BDF838709DF83CE031
:101E08000DD0AE4B9C420AD0B4F1804F07D0A3F559
:101E180098339C4203D003F580639C4202D125F09D
:101E28007005ADB2A64B9C4211D003F580639C426D
:101E38000DD025F4407503F58C33ADB29C42258056
:101E4800E662228540F022810023238602E0258075
:101E5800E6622285012363614A79CB79BEF1000FDE
:101E680001D083F0010313F0020140F0DF804FF44A
:101E780080665B000396012603F002038A460291FE
:101E88008C464FF480454FF480584FF4807E4FF0D5
:101E9800100901960C2A00F2B180DFE802F075AF54
:101EA800AFAF51AFAFAF2CAFAFAF0700216ADFF8CC
:101EB80014C221F480512162216A6668D4F81CE0BA
:101EC80021F4005141EA080864452EF4E64148EA45
:101ED800033341F4C04100F0D5800CF5006C644533
:101EE80000F0D0806660E16127642362E36943F40F
:101EF8000063E36188E0256ADFF8C89125F48075FE
:101F08002562256A6668D4F81CA025F4007545EAA0
:101F18000E0E2AF0730A4C454EEA03234AF0600578
:101F280000F09580DFF894E1744500F090806660D9
:101F3800E561E7632362E36943F00803E36163E073
:101F4800216A604E21F010012162216A6568D4F887
:101F5800188021F0200E28F080714EEA090921F43A
:101F6800E641B44249EA031341F4C0417BD006F587
:101F78000066B44277D06560A161A7632362A36954
:101F880043F40063A3613FE0216A019EDFF83481D6
:101F980021F001012162D4F820906568A16921F43B
:101FA8008031334321F0730129F00206444543EAA6
:101FB800060341F060010ED0404EB4420BD006F546
:101FC8004066B44207D006F58066B44203D006F5F1
:101FD8008066B44209D123F00C0343EA0C0325F4CC
:101FE800407543EA0A0345EA0E056560A161676327
:101FF8002362A36943F00803A36105E0042ABED065
:10200800082A98D0002AF4D0636C43F40043636430
:102018002188234641F0010123F8341B00219D1833
:10202800C0E90054995005B0BDE8F08F0025DB00E9
:10203800402603F0080CA846AE460395A9462B4651
:1020480001954FF480614FF0040A029622E723F4C9
:10205800006343EA0C2323F4806326F440560B43C1
:1020680048EA060663E723F0800343EA0C13029E5E
:1020780023F040031E433346039E25F440652E4358
:10208800354678E726F480462E432BE703F50063B0
:102098009C423FF4D9AE03F540639C423FF4D4AE72
:1020A80003F580639C423FF4CFAE03F580639C4206
:1020B8003FF4CAAECEE600BF00A24A040034014095
:1020C80000100040002C01402DE9F041494C94F8E3
:1020D800C03073B304282CD8474AB4F83E319FED7A
:1020E800477ADFED476A94F83C6102EB800007EE1F
:1020F800903A8269B4F84231F8EEE77A642006EE45
:10210800102A00FB032367EE877AB8EEC66A07EE4B
:10211800103A67EE867AB8EEC77A0D4687EE870AD8
:10212800384900270F6020EE260A002E43D0012EE2
:1021380001D0BDE8F081D4F8D08007EE908AF8EE9F
:10214800677A27EE800A2FF09BFC002847D02E499B
:102158002E4B4862C1F82C805F62C3F82C80EFF3E5
:102168001182502080F312880E80D2B21E8082F332
:102178001188274ACE60DE601368B4F8401119440C
:10218800294413689942FCD81F49204A0B88D4F87F
:10219800C40023F001031B041B0C0B80138823F0DD
:1021A80001031B0400241B0C1380CC60D460BDE821
:1021B800F04120F041B8D4ED347AF8EE677A27EE92
:1021C800800A2FF05DFCD4F8C820114B10601B6802
:1021D800B4F8401119442944C4F84811A9E7FEF796
:1021E8006BFCB4F8400128441FF04EF8BDE8F041FC
:1021F800FEF76EBC58220020F42803080AD7233CB7
:10220800CA269B3E5C460020001000400014004097
:10221800985B002008B5FEF74FFC024B00221A61BC
:1022280008BD00BF0014004008B5FEF751FC024B82
:1022380000221A6108BD00BF00100040064B074A83
:1022480005288CBF58785870054B00EBC00003EB8D
:102258004000106028F002BBB4770020FC42002048
:10226800582E00201F4B187810B31F4A138903B348
:102278001E4A9FED1F6AD2ED026A07EE903AF8EE09
:10228800E66AF8EE677A07EE103A77EEE66AB8EE95
:10229800C77A66EE866AC6EE877AFDEEE77A17EEAB
:1022A800900A6428A8BF642020EAE070C0B2704792
:1022B800704710B40F4B54781B88117804FB103208
:1022C800091B642300FB01F003FB02F3B3FBF0F0EE
:1022D8006428A8BF642020EAE070C0B25DF8044B0F
:1022E800704700BF0478002034770020EC77002086
:1022F8000000C842E47700202DE9F04F824D81B0FC
:102308001FF066F8D5F850410022C5F84C21002C82
:1023180000F0AD80237D062B064617D12369216A7C
:102328000B44C31A934280F29F8005F5A87109E017
:10233800137D062B0AD1136A12691344F31A002B72
:1023480080F2928051F8042F002AF1D14FF0010851
:1023580000231F46C5F84C319B469A46DFF8B891D2
:10236800334646469846A368002B3ED0217D072970
:102378005DD1216A4046A8EB01019847002834D175
:10238800E28A2083934506D2002E3CD1217D06297E
:1023980004BF9346A246D5F84C31013305EB8302BE
:1023A800C5F84C31D2F85041002CDCD1D5E92923AD
:1023B800564901321F444646C5E92927C1F800A0FD
:1023C800BAF1000F5AD0DAF8203095F8A821AAF807
:1023D8001640F31ACAE90738002A7BD1DAF80C301C
:1023E800404601B0BDE8F04F1847236A2269A8EBC0
:1023F8000303B3FBF2F39BB223833BB9E28A934511
:10240800C9D2002EC2D09346A246C4E7217D11FB53
:1024180003F20132013792B2BFB2E2829345BAD2D7
:10242800002EF0D1012BB2D99346A246B3E7E28A37
:10243800002A3ED1216A4046A8EB010198470028AE
:102448009ED095F8A831E3B9217DC4F824804A1CB0
:10245800013701235A45BFB2E28223839BD9002E5C
:1024680095D09346A24696E74FF0000870E7D5F856
:10247800A430264A0133C5F8A430146001B0BDE881
:10248800F08F1EF0A5FFD9F80010214BA0EB080033
:102498001A68204BA1EB511101441B68C9F80010C0
:1024A8001B49024483420A601A4A38BF0346136034
:1024B800CAE7636A2269A8EB0303B3FBF2F30133AB
:1024C8009BB211FB03F20132013792B2BFB22383F0
:1024D800E282A3E71EF07CFFDAF80C300446984746
:1024E8001EF076FFDAE90B21DAF82830001BA3EB9F
:1024F800531390420344014438BF1046CAF82830A9
:10250800CAE90B01BAE700BF58220020D44D0020C9
:10251800B0490020B8490020B4490020F0B4342361
:10252800184F194A03FB00F3FD18D2F8AC61FB58A9
:102538000B60002E6B684B600EDDD2F850319D4267
:102548001ED002F5A872002303E052F8044FA542FA
:1025580016D00133B342F8D10022342303FB0070B4
:102568000A720369CB60037D4B72D0E90A35046BAC
:10257800C2690A615B094D61C1E90643F0BC704755
:102588000122EAE7081E0020582200202DE9F04128
:10259800234ED6F8AC51142D26DC002D3BDDD6F8A1
:1025A8005031984220D006F5A87706F5A6713B462B
:1025B80001EB850103E053F8042F904214D08B42BD
:1025C800F9D1D6F850419CB1237D017D8B420ED3C1
:1025D800144A002405E052F8043F4BB11B7D8B429E
:1025E80006D30134A542F6DA0020BDE8F0810024C4
:1025F8008046601C80002A1B011F06EB84043944B6
:1026080038449200013530F0EBF8C4F85081C6F830
:10261800AC510120E9E7E7D106F5A877D1E700BF7B
:1026280058220020A8230020164A342303FB002048
:1026380009B1C368B3B970B5134DD5F8AC41002CD6
:102648000FDDD5F8503198420DD005F5A876334600
:10265800002203E053F8041F884207D00132944255
:10266800F8D170BD92E7002205F5A8769000011D0B
:10267800A21A920031443044013C30F0B1F8C5F858
:10268800AC4170BD081E0020582200202DE9F043FF
:1026980087B0D1E900640F46154680460E22002116
:1026A8000DF10A0030F0B5F824238DF80830624B9C
:1026B8002B44A41B93F82C308DF80930B7F90C3053
:1026C8005A1C14BF3E2321238DF80A30002D49D10E
:1026D8003B898DF80C30FE2C39DDADF80D40FF2319
:1026E80007258DF80B3002AB5A190DF10B010023A9
:1026F80091422FD132463019811A00292EDC8DF8EB
:1027080004304FF001092F19D8F800004F441EF08B
:10271800F1FF002800F08780D8F800001EF0C0FF05
:102728002A4602A9D8F800001EF0C0FF224631460A
:10273800D8F800001EF0BAFFD8F800004A4601A9F0
:102748001EF0B4FFD8F800001EF0A4FF4FE0E3B27B
:102758000525C6E711F8010B4340C9E712F8011B2C
:102768004B40C9E7012D3FD1A21DFE2A4FF0FF03C0
:102778008DF80C30D8BFD3B28DF80B30BB7AC8BFF8
:10278800ADF812208DF80D304FF005023B89ADF8F9
:102798000E300DF10D014FF00000CCBF0C250A25BD
:1027A800ADF8104021F0BAFA2246314621F0B6FAC7
:1027B80002AB59198DF804000DF10B020023914268
:1027C8000AD132463719B91A002909DC58408DF860
:1027D80005004FF0020996E712F8017B7B40EEE70F
:1027E80012F8011B4B40EEE7022D04D000273846B3
:1027F80007B0BDE8F083BB7A8DF80B3005223B8922
:10280800ADF80C300DF10B010020ADF80E4021F0B1
:1028180085FA2246314621F081FA4FF001098DF8F8
:10282800040008256FE7D8F800001EF06BFF874208
:102838007FF772AFDAE700BFF428030810B5044643
:1028480020461EF057FF00B110BD0A201EF01CFDE7
:10285800F6E7094B1A68904208D09A68904204D06B
:102868001A69904206D1103300E008330022C26290
:102878009A801A60704700BF847800202DE9F04FD5
:10288800A04C9B4694F906308FB083420646894691
:1028980001929DF864709DF8685000F0F98094F9F1
:1028A8000E30834200F0F38094F91630834200F032
:1028B80027814FF0000A1FE12B463A461899F0B2DB
:1028C80022F032FC8246002800F01681019B077135
:1028D800C0E90B3B0122189B80F858204571C0E9DC
:1028E8000788C0E909888360406D026815F0040F05
:1028F80022F0010202600CBF00224FF480520492C1
:102908002A032D0205F4806502F40052069517F09B
:102918000105059216BF04220795079217F00207D2
:102928000393CDF8208003D0079A42F0080207925B
:1029380003A919F03FFB9AF804209AF805C012F091
:10294800020F0CBF00214FF400310CF00100D20738
:1029580048BF41F48031DAF85420002800F0848020
:1029680050680143516091681CF0080F14BF41F092
:10297800080121F008019160116841F0010111601E
:10298800002D36D0DAF83810002972D003A818F0D4
:10299800EDFFDAF8502003924FF480530022802193
:1029A800CDE90C320792099208910A92DAF80C10D4
:1029B800059220220B92DAF83800DAF814200492F3
:1029C800ADF8181018F0FEFF03A9DAF8380018F06F
:1029D800DAFFDAF83820DAF85400116841F001011A
:1029E8001160816841F040018160526892B2CAF872
:1029F8004820002F31D0DAF83C20002A40D003A824
:102A080018F0B4FFDAF84C20039200254FF48052F6
:102A1800CDE90C2580220892DAF81020ADF81820AC
:102A2800DAF83C0007951022059209950A950B954E
:102A380018F0C8FF03A9DAF83C0018F0A4FFDAF888
:102A48003C20116841F002011160DAF85410556019
:102A580055608A6842F080028A60DAF854100A6881
:102A680042F001020A6041E0506820EA0101516029
:102A780079E720211162116841F020011160B8E75F
:102A8800DAF854100A6842F080020A60E5E7083470
:102A9800B4F80480B8F1000F7FF40BAF002EFFF6F6
:102AA80008AF012E7FF708AF142E7FF402AF19F09C
:102AB80020FB154B154AC3F80080D369144943F429
:102AC8000003D361134A144B136002221A72134A8B
:102AD800134B1360134A1B681160984719F050F89C
:102AE800114B124AC3F8B02103F5D87A8AF834603A
:102AF800A4F80490C4F800A050460FB0BDE8F08FC9
:102B08001034C5E784780020D80042420010024003
:102B180000000020C83D0020D43D002020460020B1
:102B2800C01C0020F83D002058220020242903085A
:102B380038B1038813EA010003D08B420CBF01208F
:102B4800022070470E4A0F491388184210B50C46E8
:102B58000DD1138918420DD1138A18404FF0030381
:102B68000BD0022002EBC00084F8003210BD002018
:102B78000123F7E701200223F4E781F80032F5E7A3
:102B88009C780020582200202DE9F043012085B0D0
:102B9800FFF7D8FF294E2A4F05460024002D3BD0C9
:102BA800022C39D8DC236343F35813B10134E4B25F
:102BB800F4E7032295F9020002930192EA7857F8A4
:102BC8002220009201211A46FFF758FE8146C8B11B
:102BD8002B88DC2504FB056013F40F7805FB04F54E
:102BE8004FF0D8024FF0000100F1040018BF03F0C5
:102BF80001082FF00EFE7319013446F8059083F88A
:102C0800DA80E4B20F49104891F800228C46D3B21A
:102C1800022B04D98CF8003205B0BDE8F08302F12C
:102C2800010E00EBC20530F832200133D207DBB2C7
:102C380002D581F80032B1E77246E8E75065002016
:102C48006C3A0308582200209C7800202DE9F04FA8
:102C5800854B2DED028B1B68DA048FB0044601F119
:102C68001E80824B1B78022B01F02780042B00F07A
:102C7800BF84012B00F0E1837D4B01937D4E7E4B99
:102C880004937E4B7E4A9C42927800F20C84002A80
:102C980040F00C847B4B0093DFF818B27A4B029318
:102CA800714B1D68019BB3F90670EB0400F1648653
:102CB800049B9B8ABB42CCBF00210121FF1A4FF025
:102CC800640CC3F5FA630CFB07FC9CFBF3FCBCF13A
:102CD800640FA8BF4FF0640C2CEAEC7C5FFA8CFC04
:102CE8006A4A029B12681B7812F4000203F001037F
:102CF80000F0AC82002B00F0AC820498007F6045A5
:102D080041F2D380002940F0AA8296F80D020028EB
:102D180040F0A5825E4F5F483F684FF0000EC0F854
:102D28002CE097F82C70C0F804E0C0F818E0002FE9
:102D380040F09582584886F80E720078002B40F0D3
:102D480096829BF801209FED557A07EE902AF8EEBF
:102D5800E77A202867EE877AFCEEE77A00F00685A6
:102D680017EE903A1C44C6F828414D4B1B78002BAF
:102D780040F08484049B019A998AB2F90000DA8AA7
:102D88008142B4BF8023002382420198B0F9020037
:102D9800C8BF43F040039B088142BCBF63F07F0378
:102DA800DBB282420198B0F90400C8BF43F0400387
:102DB8009B088142BCBF63F07F03DBB2824201986B
:102DC800B0F90600C8BF43F040039B088142BCBF6E
:102DD80063F07F03DBB2824296F81122C8BF43F04A
:102DE80040039A4201F004819BF8021086F81132E0
:102DF8000022A6F8122286F81422002901F0E580A4
:102E08005F2B00F03B846F2B00F03884254B0022A9
:102E18001A60029A144B12781B68D20703F0040355
:102E280007D496F8142222B9B6F91222322A01F3ED
:102E380017851D4A0392002B40F029841B4FDFF8A9
:102E48004C909FED1B8A0DF1280808AC0023042242
:102E5800C8F8043008930A930C93636007F1780567
:102E6800BB460D9230E000BF14680020562F0020AA
:102E7800F045002058220020C8760020404B4C0026
:102E8800403F0020F44200203C3F0020E83700206B
:102E9800F8420020AC3A00206878002000247449E9
:102EA800EF4500204846002000430020A8340020B9
:102EB8008096984A4C380020BAF1280F40F20B84CB
:102EC8000BF1060B5D454FD09BF80530002BF7D171
:102ED8009BF800A00CA8514620F012FE0028EBD069
:102EE8005146484620F00CFE002840F0FB8351462E
:102EF800BF4820F005FE002840F0ED831EF068FA78
:102F080007EE900AF8EE677AF4EEC87AF1EE10FA56
:102F1800D6DB9BF802209BF8030082421BD29BF869
:102F280001300199043340F6330C31F9133063450D
:102F3800A8BF6346B3F5617F4FF0190140F2833CA7
:102F4800B8BF4FF4617311FB02C29A4203DA11FB56
:102F580000C19942B4DA9BF80010A5480BF1060BA2
:102F680020F0BEFD5D45AFD19DF821109DF82900E8
:102F78009DF820C09DF828209DF8225048409DF8D3
:102F88002A108DF821008CEA020269408DF8202071
:102F98009DF823509DF82B208DF822106A40954DFE
:102FA8008DF823204FF0010C6B790EA95A0901EB1B
:102FB800820203F01F010CFA01F1A3B12B7852F839
:102FC80018EC580903F01F0354F8202011EA0E0FDB
:102FD8000CFA03F343EA02010ABF22EA030344F8A6
:102FE800201044F820300635AB45DDD1824B834AAA
:102FF8001B7894E8030082E80300002B00F0FA84B1
:1030080001217E4820F07CFD009B1C88002840F0B0
:1030180088837B4BDB78002B40F0838324F001040A
:10302800009B7648A4B202211C8020F069FD00288C
:1030380000F07E83A30740F14E87724A724B1178E5
:103048005868A40701F0020100F08A83003118BF14
:1030580001211FF0F7F81F21684820F051FD30B911
:10306800029A1378590744BF23F004031370039B93
:10307800009A1B68148813F00A0F10D007215F48C4
:1030880020F03EFD002800F04186630640F1AA8743
:103098000C215A4820F034FD002840F0318657486A
:1030A800082120F02DFD002800F0568344F4807399
:1030B800564A009912780B80082A00F05E830E2A7F
:1030C80000F05B83524B1B685C0500F15F83029B39
:1030D8001B78D80700F13C834E4B93F80080B8F179
:1030E800000F63D14C4B1B68002B5FD04B4DDFF8B2
:1030F800589115F8030C99F824402946EF1E27F03B
:1031080013FB002800F07086002C40F0C18607F100
:103118000801787927F008FB002841F06E844049BF
:10312800B87A27F001FB002800F07086022C41F0E5
:1031380087843C49F87B27F0F7FA002841F07B8424
:103148003949387D27F0F0FA002800F07086042C01
:1031580041F06C843549787E27F0E6FA002841F082
:1031680060843349B87F27F0DFFA002800F07086C2
:10317800062C41F051842F4997F8230027F0D4FA00
:10318800002841F044842C4997F8280027F0CCFA0D
:10319800002800F07086082C41F03484274997F8FD
:1031A8002D0027F0C1FA002840F070862821134826
:1031B80020F0A6FC96F87B32002840F0A582002B70
:1031C80040F0AB830B210D4820F09AFC002800F05A
:1031D800AE831B4B1A78824203D01A4A4FF07E51B5
:1031E8001160187001200FB0BDEC028BBDE8F08FA4
:1031F80078240020A8340020C0400020E8370020B0
:10320800403F0020845B0020885B0020A23400201F
:10321800146800203C4000200C400020E7360020C5
:10322800F1360020F6360020FB360020003700205B
:10323800053700200A3700200F37002014370020F8
:10324800114D0020781D00200000002068023FF585
:1032580051AD002086F80D0200293FF45BAD012036
:1032680086F80E02A8480078002B3FF46AADDFF814
:10327800F0E29EF80170002F00F07E8196F81C7134
:10328800002F40F07981A14F3F78002F40F07481E2
:1032980096F80F72002F40F06F819D4F3F78FF0620
:1032A80000F16A81D6F830310393EF0601F180838B
:1032B8009EF804300593634560D8019B049AB3F9DE
:1032C8000050578A934B6FF47A7293F8008093F802
:1032D8000190AB18C7F5FA629BB2924640F2E6320B
:1032E800934254D807EB0803AB42069381F22C842F
:1032F800EB1B6422A3EB080302FB03F3AAEB08020F
:1033080093FBF2F3DBB20E2B41D8019BB3F90250C9
:103318006FF47A73EB189BB240F2E632934236D8D8
:10332800069B9D4241F3F984ED1BA5EB0805642338
:10333800AAEB080203FB05F393FBF2F3DBB20E2BB7
:1033480025D8019BB3F904306FF47A755A1992B2F3
:1033580040F2E635AA421AD807EB0902934241F334
:10336800CC84DB1BA3EB09056423AAEB090203FB4E
:1033780005F393FBF2F3DBB20E2B08D8059B5B0039
:103388004B2BA8BF4B23DBB2634501F21A83624B78
:10339800DFED627A93ED097AB0EEC77AB4EEE77A98
:1033A800F1EE10FA41F10D8393ED047AB0EEC77A8D
:1033B800B4EEE77AF1EE10FA41F1038393ED0E7A59
:1033C800B0EEC77AB4EEE77AF1EE10FA41F1F9827D
:1033D800039B0BB9C6F83041BEF80250D6F83071DD
:1033E800D6F83431BCF14A0F88BF6D084FF47A72B1
:1033F800DB1B234402FB05F2934202D9012286F823
:103408001C21002F01F0E8829BF801209FED597ADA
:1034180007EE902AF8EEE77A202867EE877AFCEE26
:10342800E77A07D13E4D3F48A5FB03239B090125B9
:10343800C38085803C4B1D68ADE03C4ED6F8043215
:10344800E31A002BC0F2DE80394A3A4B527C3A49E3
:1034580033F812004A7C049104F59C432033800819
:10346800C6F804321AB1C0F57F73033398B2334DEE
:1034780033492A78334F31F812C03B6821F81200DB
:10348800A3EB0C03034430493B601B0901320B805A
:103498002E4B019302F00F022D4B2A702D4A9C42AD
:1034A80092787FF6F4AB002A00F010852A4B294A5F
:1034B8001F780293092092F8215027F06DF907F040
:1034C80001070390002840F05D84A5F10105B5FAD5
:1034D80085F56D091F4B214A93F82030DFF884B039
:1034E800DFF88480DFF884A0DFF884900092062B50
:1034F8003FF6D6ABDFE813F0AA0143055B01710183
:103508007F019701E60100BF687800204C46002043
:103518006C46002034380020AC3A00200000C84235
:10352800D34D6210F877002014680020582200203C
:103538005C5B00207C5B0020C8760020572F0020B1
:103548005C2F0020582F00207C2F0020F045002001
:10355800404B4C00403F00203C3F0020F4420020FC
:103568002C3800204C380020985B0020DC4C0020D0
:10357800F0420020002474499BF801201FED037AD3
:1035880007EE902AF8EEE77A202867EE877AFCEEB5
:10359800E77A00F0EB80E8067FF5E2ABBD4B1B78DD
:1035A800DA063FF5DDABEB043FF5DAABBA4B1B6847
:1035B8001F023FF5D5AB68023FF5D2AB009B1B88D5
:1035C8001A053FF5CDAB9BF80230002B01F0AF8216
:1035D800002941F0E78217EE903A23B1D6F8283156
:1035E8009C4201F27B83012386F81032FFF7BDBBB2
:1035F800AA4E1DF0EDFED6F80832A94AC31A934226
:1036080000F3E983A74B0193A74B0493FFF739BB5A
:103618009E2A03D1002101202EF0CAF896F8113213
:103628009D2B03D10021FF202EF0C2F896F811320D
:10363800AE2B03D1012100202EF0BAF896F81132F2
:10364800AD2B03D1FF2100202EF0B2F896F81132ED
:10365800EF2B01F01C83FD2B01F01683FB2B01F0EF
:103668001083FE2B01F00A83F72B01F0C5827B2B18
:1036780004D14FF4FA610220FEF726FD8B4B8C4AE9
:103688001B68039203F00403002B3FF4D7AB96F8B2
:1036980016325BB1029B1B78DC0707D5019BB3F997
:1036A8000620049B9B8A9A4200F31B8510217A48C6
:1036B80020F026FA002800F06D8396F81C322BB90A
:1036C80096F8173213B93223A6F81A32012386F86E
:1036D8001C32FFF7B3BB22464146584626F0D8FFB6
:1036E800FFF7EEBB4FEA5A1C0AF01F0158F82C30BE
:1036F80001228A4023EA02035146204648F82C302A
:1037080020F0EEF9FFF7DCBB039A126891077FF50A
:1037180056AD002B7FF456ADC6F82031C6F82431DB
:10372800FCE0039B1B689A077FF578AC44F0010422
:1037380024F00204009BA4B21C807EE4029B1B7848
:10374800DB0740F1058196F87A32002B00F00084FF
:10375800584B01221A7029E524F480739BB2A7E420
:10376800B1FA81F149091EF06DFD74E45248002553
:103778004560002B3FF4F4AA5CE6009A23F040036E
:1037880013804A4B1B685C057FF5A1AC4B4B02E0EC
:1037980006339D42D2D01A78122AF9D19978DA786C
:1037A8009142C0F0D5805A79002AF1D0D0E01DB1FD
:1037B800434A052382F82030002F40F06784404AAE
:1037C800D8F8003052699A4280F050843C4947F258
:1037D80030520323CA6181F82030022009F056FFD5
:1037E800FDF75CFD3649D8F80020CB691344042264
:1037F8008B6181F82020002D01F03F81304AD8F8F4
:10380800003092699A42BFF44BAA9BF8020020B993
:1038180026F0C2FF00287FF443AAD9F8003023F02D
:103828000203C9F80030D8F80010BAF80220009B4B
:10383800642000FB021222481B880261009A0021C2
:1038480023F48063138080F82010C170002F01F0EA
:103858001C8126F0A7FF012800F02B84039B002B76
:1038680040F0AA82002D7FF41BAA154AD8F8003030
:1038780012699A4234D29AF80730022B30D026F0D7
:10388800C3FE0F49032240F6B83381F82020CB61EC
:10389800A3E700BF6C460020E8370020582200202C
:1038A80060E31600F0450020C87600201468002068
:1038B800004300203C400020F8770020A834002076
:1038C800403F002015B3B74A052382F82030002F67
:1038D8003FF47CAF26F07EFEB24B93F8203006E62C
:1038E800B04A012382F820309AF80730012B00F003
:1038F800EB83C0F09A87022BF6D126F085FEA94902
:10390800062240F6B83381F82020CB61002F3FF41F
:103918005DAF26F05FFEFFF7C3B9002086F87B0293
:103928000B21A14820F0ECF800287FF452AC9F4B03
:103938001868C0F300704CE4BA78FB789A42C0F07B
:10394800FB827B79002B40F0F7820637AF4205D027
:103958003B78122BF0D00637AF42F9D196F87A327D
:10396800002B3FF4B4AB1AF0E9F9FFF70DF9002387
:1039780086F87A32FFF7ABBB18218B4820F0C0F8E5
:1039880080BB8B4B1A7B6ABB049AD988528A501A1F
:10399800B84280F2A4830A44BA42CCBF0021012174
:1039A8006FF47A7C07EB0C0292B240F2E630824266
:1039B80000F2D487DA88049B5B8A9818B842C0F270
:1039C800A8879B1ABB4240F3CD87DF1B4FF0640CDE
:1039D8000CFB07FCA3F57A739CFBF3F35FFA83FCFB
:1039E800FFF77EB9049B9B8A9F42B4BF0021012147
:1039F800FFF764B9DFF8D0B1DFF8D0910BF1FF34ED
:103A08000BF196084FF0010A059459461BF8010C72
:103A180026F08AFE10B3BBF80540FCB99BF80400F9
:103A28009BF8023000EB400106EB8101013BD1F825
:103A38002C2203EB43034B4493420FD096F85822B1
:103A4800C1F82C320AFA00F022EA00009BF8033091
:103A5800C1F8304286F8580281F828320BF10A0B77
:103A6800D845D2D1534A544B5449059CD2F800B09A
:103A78001B7809680593DFF8588106912B464FF0AB
:103A880000095D46A2469B46D8F80430002B75D045
:103A98001C78002C72D0D8F80810691A00290CDBA1
:103AA80096F85812012000FA09F021EA000105F5FC
:103AB800FA7086F85812C8F80800059A002A5DD0EE
:103AC80098F8001058780431C9B2002840F02581D0
:103AD800049A508A019A32F911C096F8581200F1E6
:103AE800C80EF44540F3E68141FA09F1C8079B780E
:103AF80044D4611E1F2900F24083DFE811F043031C
:103B08001D034A056303390521050905F104C303AB
:103B1800AF039B033E036303730321050905F10407
:103B2800890474045F044E0420040A043E0343031A
:103B380053031D0330033E032004B5049E04204BA9
:103B48001B79002B00F01C87C8231D4A91FBF3F159
:103B58005078CCB2A04209D02046FEF76FFB194B33
:103B68009B781BB121460C2026F050FE96F858127F
:103B7800012303FA09F30B4386F8583209F10109C6
:103B8800B9F1040F08F10C087FF47EAF54465D4686
:103B98000796DFF840A0019E04F1960BCDE9047565
:103BA8001DE000BF403F0020E837002014680020D7
:103BB800E44C0020985B0020E8310020FC42002003
:103BC800B47700206E460020993500205429030858
:103BD80080240020B22400200A345C455AD022797F
:103BE8003AF9021F0432D2B236F91270B942F3D050
:103BF800E588002DF0D094F80390BA4B09F1FF380E
:103C080008EB4801194491F861100029E4D1611CBE
:103C1800207826F089FD0028DED0B34BAAF8007082
:103C28001868069B2189002B00F0CC81002800F041
:103C3800C981A7F2DC57AD4B01FB07F783FB0731BE
:103C4800FF17C7EB61110D44B8F11F0F00F2BA81DD
:103C5800DFE818F099013E032D03D805C805B00523
:103C680095057E056C055A054805B801D805350542
:103C7800B00595057E0520050B05F604E704CE047E
:103C8800BC04B8019901B6043E032404B801CE046B
:103C98000D042D04DDE90475079EFFF7B1B9002175
:103CA80093481FF02DFF00287EF4DBAFFDF7F6FAEE
:103CB800904B1B78022B7EF4D9AF8F4A8F49D37B68
:103CC8000492013B527C019131F913301AB1C3F5CA
:103CD8003B6308331BB2A3F57A7307EE903A9FED66
:103CE800887A884A884EF8EEE77A67EE877AFDEE9A
:103CF800E77A17EE903A83F30A031380FEF7C1BF01
:103D080026F05CFA009B1C88FFF7C9B924F0400331
:103D18009CB2009B1C80FFF7BBB901287FF426AF3B
:103D2800019A987832F9111040F633039942A8BFE6
:103D38001946B1F5617FB8BF4FF461710C2CA1F53C
:103D480061713FF4FCAE182C4FF4966393FBF0F3CB
:103D580091FBF3F17FF40AAF634B1B68C9B2C82922
:103D680093F81CC00846A8BFC82084453FF4FEAE9F
:103D7800664A18779278002A3FF4F8AE204626F073
:103D880045FDF3E6624B9B79022B7FF49EAB002541
:103D9800FFF7A0BB96F81732002B3FF44FA8029B01
:103DA8001B7813F001037FF449A8012286F8173223
:103DB80086F81822FFF742B89AF80630012B7FF4EC
:103DC80051AD26F021FC534903224FF47A7381F850
:103DD8002020CB6101E5494A4A4B0192464A0492A8
:103DE80000221A80FEF74DBF691D787926F09CFCE9
:103DF80000283FF494A9012C40F0FF8507F10D013C
:103E0800B87A26F091FC002840F01A864249F87BDF
:103E180026F08AFC00283FF493A9032C40F00B8677
:103E28003E49387D26F080FC002840F0FF853C495B
:103E3800787E26F079FC00283FF493A9052C40F001
:103E4800F0853849B87F26F06FFC002840F0E485FB
:103E5800354997F8230026F067FC00283FF493A91A
:103E6800072C40F0D485314997F8280026F05CFCEF
:103E7800002840F0C7852E4997F82D0026F054FCFD
:103E880000283FF493A9092C3FF490A94FF00908A2
:103E9800434603EB83031F44264B7978BA7889F8A5
:103EA800248019705A70FFF781B9012086F80D0235
:103EB800FFF7D5B9C838844580F2BE8441FA09F1C4
:103EC800C9079B783FF55AAE5B4212E6114A0123B7
:103ED8009370FFF7EBBA009B44F002041C80FFF7D5
:103EE800ACB800BFF4280308F8420020D34D621094
:103EF800E8370020562F0020C8760020F045002023
:103F0800AAF1823F7C2F0020582200206E46002014
:103F1800DC4C0020403F0020F6360020FB36002015
:103F280000370020053700200A3700200F3700200F
:103F380014370020323F00201221B2481FF0E0FD64
:103F480000283FF40BAD96F87A32002B7FF4BFA817
:103F5800AD4C94F8DA30002B40F0D18094F8B631AB
:103F6800002B40F0DF8094F89232002B40F0D08094
:103F780019F0E4FE012386F87A32FFF7A8B8002D7D
:103F88007FF451ACB0E4A14F069BB97885F30805DE
:103F98005FFA85F883F8038019B12946192026F0BD
:103FA80035FCB9F1190F00F09081069BBA7883F8B7
:103FB8000480002A00F089811A20294626F026FC70
:103FC800934B186825F0F6F806E600218D481FF097
:103FD80097FD00285ED0002386F81532FDF796FD80
:103FE800FEF717BF009B44F040041C80FFF750B851
:103FF800884889490068B6F91252C46981FB0401EE
:104008008911E417601A00F5FF407F30854240F3BC
:1040180020849BF802100029D7D05F2A00F08884FA
:104028006F2B7EF4F3AEB5F5FA7FFFF627AB96F863
:104038001422002A7FF422AB029B1B78012113EA89
:10404800010486F8141240F09184FDF75FFD734B6C
:104058001B68002B3FF412AB714B724A1B6886F841
:10406800144203F004030392FEF7E5BE96F80C32FF
:10407800002B7FF4ABAB002F3FF4A8AB002D3EF430
:104088000FAE694B93F82030FFF731BA26F0A2FA49
:10409800FFF795BB029B614A1B78C6F82C01D9072C
:1040A800106000F11F845E4B1B6803F00403FEF7E9
:1040B800B8BED8F80020BAF80230642101FB032307
:1040C800594A1361FFF7CABB26F09EFA56490322E4
:1040D80040F6B83381F82020CB61FFF77EBB012181
:1040E8005EE4002147481FF00BFD00287FF4DEAA9C
:1040F800322386F81602A6F81A32FFF7D7BA2068D4
:10410800FEF7A7FBDC22002120462EF082FB25E7E4
:10411800D4F8B801FEF79DFBDC22002143482EF0BD
:1041280078FB25E7D4F8DC00FEF793FBDC220021BE
:104138003F482EF06EFB16E7069A3448917980784E
:1041480019446429A8BF642121EAE171917120B161
:104158001B20079326F05AFB079B1B2C0DD0069AB1
:104168002A48D179807819446429A8BF642121EAB2
:10417800E171D171002840F0A184254B186825F021
:1041880019F8F3E4069A2148D1788078194481F324
:104198000801D17020B11920079326F037FB079B3F
:1041A800192CEAD0069A194811798078194481F3B4
:1041B800080111710028E0D01A2026F027FB144BC3
:1041C8001868DCE7069A1148917A8078194481F3D7
:1041D8000801917220B10D20079326F017FB079B69
:1041E8000D2CCAD0069A0948517A8078194481F36F
:1041F800080151720028C0D00E2026F007FB044B9E
:104208001868BCE7E8370020506500206E4600209B
:10421800F8420020D44D0020D34D621048460020BB
:104228001468002000430020403F00200867002059
:104238002C660020A84A1068A84A817D9478194401
:10424800C829A8BFC82121EAE1718175002C96D040
:104258000B2026F0DBFAA04B186890E79E4A1068FE
:104268009E4A417D94781944C829A8BFC82121EAEB
:10427800E1714175002C82D00A2026F0C7FA964BCE
:1042880018687CE7944A1068944A017D9478194428
:10429800C829A8BFC82121EAE1710175002C3FF4A3
:1042A8006EAF092026F0B2FA8B4B186867E7642DC9
:1042B800A8BF6425069B894F25EAE5755D7026F041
:1042C800CDFABA78002A40F0F183834B186879E672
:1042D800642D824F069BB978A8BF642525EAE57549
:1042E8005FFA85F883F8068019B129461B2026F065
:1042F8008DFAB9F11B0FE8D0069BBA7883F80780CE
:10430800002AE2D01C20294626F080FA724B186851
:1043180058E6714A1068714A90F84B10947819441D
:104328006429A8BF64210129B8BF012180F84B1076
:10433800002C3FF424AF172026F068FA1DE7664AE0
:104348001068664A418A92781944B1F5FA6FA8BF95
:104358004FF4FA6121EAE171418232B11E200793DC
:1043680026F054FA5C4B1868079B1E2C3FF407AFE5
:1043780081895A4A1944B1F5FA6FA8BF4FF4FA6116
:10438800947821EAE1718181002C3FF4F8AE1F2076
:1043980026F03CFA504B1868F1E6069A4F485179D6
:1043A8008078194481F30801517100283FF4E5AE83
:1043B800152026F02BFA484B1868E0E6464A1068A4
:1043C800817A464A1944C829A8BFC821947821EAA5
:1043D800E1718172002C3FF4D2AE142026F016FA57
:1043E8003D4B1868CBE63C4A1068417A3B4A194471
:1043F800C829A8BFC821947821EAE1714172002C2C
:104408003FF4BDAE132026F001FA334B1868B6E628
:10441800314A1068017A314A1944C829A8BFC8210D
:10442800947821EAE1710172002C3FF4A8AE1220C1
:1044380026F0ECF9284B1868A1E6274A1068274AA5
:10444800018B94781944B1F5FA6FA8BF4FF4FA615B
:1044580021EAE1710183002C3FF491AE202026F07F
:10446800D5F91D4B18688AE61B4A106880E7B5F530
:10447800FA6FA8BF4FF4FA6525EAE575174F1FFADA
:1044880085F8BA78A0F80C80002A3FF49BAD1F206D
:10449800294626F0BBF9104B186893E5642DA8BF90
:1044A800642525EAE5755FFA85F80C4F24E70B4F7C
:1044B800B5F5FA6F2946BA78A8BF4FF4FA6121EA30
:1044C800E1710183002A3FF47DAD202026F09EF99A
:1044D800014B186876E500BFF84200206E460020C0
:1044E800B24A1068B24A017C92781944C829A8BF18
:1044F800C82121EAE171017432B11120079326F035
:1045080085F9AA4B1868079B112C7FF459AF36E63A
:10451800A64A1068A64AC17B92781944C829A8BF40
:10452800C82121EAE171C17332B11020079326F046
:104538006DF99E4B1868079B102C7FF456AF1EE64A
:104548009A4A10689A4A817B92781944C829A8BF68
:10455800C82121EAE171817332B10F20079326F057
:1045680055F9924B1868079B0F2C7FF453AF06E65A
:10457800069A8F48D17A8078194481F30801D1725C
:1045880000283FF4FAAD052026F040F9874B18685B
:10459800F5E5069A54781C44642CA8BF642424EAE0
:1045A800E474547026F05AF9814B9B78002B3FF441
:1045B800E4AD0320214626F029F97C4B1868DEE596
:1045C80085F308055FFA85F8794FEEE4642D784F96
:1045D8002946A8BF64210129BA78B8BF012180F80B
:1045E8004B10002A3FF4EEAC172026F00FF96CE6CA
:1045F800B5F5FA6F6E4FA8BF4FF4FA6525EAE57571
:10460800B9781FFA85F8A0F8128029B11E2029462A
:1046180026F0FCF8654B1868B9F11E0F7FF431AF2E
:10462800D0E4634F069BBA7885F308015971002AD4
:104638003FF4C8AC152026F0E9F85C4B1868C1E4D3
:10464800C82DA8BFC82525EAE575594F5FFA85F832
:10465800BA7880F80A80002A3FF4B4AC14202946BE
:1046680026F0D4F8514B1868ACE4C82DA8BFC8256B
:1046780025EAE5754E4F5FFA85F8BA7880F8098023
:10468800002A3FF49FAC1320294626F0BFF8474B79
:10469800186897E4C82DA8BFC82525EAE575444FD2
:1046A8005FFA85F8BA7880F80880002A3FF48AAC67
:1046B8001220294626F0AAF83C4B186882E485F3B4
:1046C80008053B4F5FFA85F8069BBA7883F809809E
:1046D800002A3FF4FAAD0E20294626F097F8334B0E
:1046E80018686FE4324FC82D2946BA78A8BFC82188
:1046F80021EAE1718175002A3FF464AC0B2026F0B1
:1047080085F82A4B18685DE4294FC82D2946BA78E0
:10471800A8BFC82121EAE1714175002A3FF452ACD3
:104728000A2026F073F8214B18684BE4204FC82D57
:104738002946BA78A8BFC82121EAE1710175002A83
:104748003FF440AC092026F061F8184B186839E4AA
:10475800C82D174FA8BFC82525EAE575B9785FFAAF
:1047680085F880F8108029B11120294626F04EF8E6
:104778000E4B1868B9F1110F7FF46AAF22E4C82D07
:104788000B4FA8BFC82525EAE575B9785FFA85F803
:1047980080F80F8029B11020294626F037F8034BFE
:1047A8001868B9F1100F7FF468AF0BE4F8420020E5
:1047B8006E460020C82DC54FA8BFC82525EAE57557
:1047C800B9785FFA85F880F80E8029B10F2029465C
:1047D80026F01CF8BE4B1868B9F10F0F7FF462AFD2
:1047E800FFF7F0BBB94F069BBA7885F30801D97279
:1047F800002A3FF4E7AB052026F008F8B44B186808
:10480800FFF7E0BBB14F069BB97885F308055FFA5F
:1048180085F883F80A8019B129460D2025F0F6FF9E
:10482800B9F10D0F7FF450AF4FE525F0EDFEA94B20
:1048380093F82030FEF75BBE012303FA09F321EA5F
:10484800030105F5FA7386F85812C8F80830FFF71F
:1048580095B9091B0D442DB2A6F81252FFF7D9BB22
:104868009D4A116811F020017EF4E3AA96F81122FE
:104878000120572A86F8140200F0E78013B15A2A5B
:1048880000F01F825D2A00F083815E2A00F07681A5
:104898005B2A00F06981562A00F08F81972A00F080
:1048A8000482A72A00F0F681009B1B889D0740F030
:1048B8008981A2F1B703072B3EF6AAAE01A151F8F0
:1048C80023F000BF614D00081936000819360008AA
:1048D80019360008574D0008193600084D4D0008D4
:1048E800434D00087D4B1B78002B3EF4C7AE794B37
:1048F800DB78002B7EF4C2AE96F815320133DBB2BA
:10490800032B86F815327EF6B9AEFCF7C7FCFEF726
:1049180080BAF81A801AC3F5FA634FF0640C9B1A30
:104928000CFB00FC9CFBF3FC5FFA8CFCFEF7D8B98F
:10493800B5F5FA7FFEF6A2AE96F81432002B7EF497
:104948009DAE029A664912780B6001231A4086F8D8
:1049580014321BD0FCF7A2FCFEF790BE4FF0640C9B
:10496800FEF7BEB94FF0000CFEF7BAB95D4BC6F8BA
:104978002C211B685C4A039203F00403FEF75BBA20
:104988004FF4966393FBF0F3FFF7DFB8524986F8CC
:104998001422544B0A681B6822F02002FA3D0A6070
:1049A800514AA6F8125203F004030392FEF743BAE1
:1049B800002A7EF47DAC6D023EF57AAC00297EF4C7
:1049C80077AC039A2AB1D6F834319B1A2344C6F837
:1049D80034310023C6F830319BF801309FED437A1B
:1049E800202807EE903A00F08980F8EEE77A67EE23
:1049F800877AFCEEE77AFEF71DBD4FF001084346C3
:104A0800FFF747BA4FF008084346FFF742BA4FF09E
:104A180007084346FFF73DBA4FF006084346FFF73D
:104A280038BA4FF005084346FFF733BA4FF0040889
:104A38004346FFF72EBA4FF003084346FFF729BA5B
:104A48004FF002084346FFF724BA294A264D948BB3
:104A5800284A29491068039542F2107202FB04F2B1
:104A6800B2FBF0F2C1F8B4202A6857077EF5E3A933
:104A78000A22A6F81221FEF7DEB91649D8F8002056
:104A8800CB6913448B61FEF70BB9039B43B14FF419
:104A9800806008F0F3FD0F4A00231361FEF700B9A8
:104AA800009A138823F480631380F4E703202946CF
:104AB80025F0ACFE064B1868FFF784BA1C2025F0D9
:104AC800A5FE034B1868FFF75ABB00BF6E460020CF
:104AD800F8420020403F0020F0420020E83100204A
:104AE8004846002014680020004300200024744930
:104AF800345B0020245B0020D84D0020D6F83431E8
:104B08009848994DA0FB0330029BF8EEE77A1B7892
:104B1800800967EE877AE88003F001030020FCEE45
:104B2800E77AA880002B3EF41BA9FEF783BC002976
:104B38003EF459AD96F81032002B3EF416A9002326
:104B480086F81032FEF711B9A7EB0802AA427EF7E1
:104B5800DCAB551B6423A2F57A7203FB05F393FBC8
:104B6800F2F3DBB2FEF7CFBB804A8148814B10607D
:104B780001221A7023F04CFFFEF780BD7B4A7E4865
:104B88007C4B106002221A7023F042FFFEF776BDBC
:104B9800764A7A48774B106000221A7023F038FF63
:104BA800FEF76CBD17EE902A96F810321444C6F83A
:104BB8002841002B3EF4D9A8C1E70AF009FD96F870
:104BC80011226BE60021A2F1B7030C91072B3EF6E8
:104BD8001FAD01A151F823F07B4C000819360008DD
:104BE8001936000819360008734C000819360008F1
:104BF800694C0008294C000800210420FDF764FADC
:104C0800B6F812225E4B5F491B680391963AA6F8E4
:104C18001222002203F0040386F81422FEF70BB9CF
:104C28000223ADF83030584BBDF830409989DA8905
:104C3800BDF83200214402449981DA810AF0C8FCA7
:104C48004F4BB6F812224F491B680391FA3A0021DC
:104C5800A6F8122203F0040386F81412FEF7EBB844
:104C68004FF6FE73ADF83030DDE70223ADF8323091
:104C7800D9E74FF6FE73ADF83230D4E700210320B0
:104C8800BCE700210220B9E700210120B6E7002196
:104C98000846B3E73D493A4B0A781B6842F00402DC
:104CA8000A7003F00403FEF7C4B8354B354A1B6895
:104CB80003924FF47A7203F00403A6F81421FEF766
:104CC800BAB896F8172296F8163272B983F001032B
:104CD80086F816322B4B0393FEF7D9BCFCF7DEFAA5
:104CE800002386F81032FEF740B8264B86F81712D4
:104CF80086F818020393FEF7CABCA7EB0902934291
:104D0800BEF63CABD51A6423A2F57A7203FB05F311
:104D180093FBF2F3DBB2FEF72FBBA7EB0802AA4224
:104D28007EF70FAB551B6423A2F57A7203FB05F3DC
:104D380093FBF2F3DBB2FEF702BB0220FDF77EFA2B
:104D4800FEF79CBC0320FDF779FAFEF797BC00201C
:104D5800FDF774FAFEF792BC0120FDF76FFAFEF733
:104D68008DBC00BFD34D6210F8770020F8420020B8
:104D7800622D0020B4770020C62D0020FE2C0020D4
:104D88001468002000430020DC3200206C4600201C
:104D98002DE9F04FDFF85CB28D4EDBF87C223368EA
:104DA8008C4CCBF87C022DED0C8B821A95B01344F9
:104DB8000690336020466368079298470890002859
:104DC80000F0AE80DBF87C2233680699D4F8B45042
:104DD800CBF87C129B1A0B440022336084F86320C2
:104DE800DFF81482002D40F0E98698F81600B4F92F
:104DF800501094ED086AD4ED096AB4F95430B4F946
:104E08005220002800F0708607EE901AB8EEE77A74
:104E180007EE902AF8EEE77A37EE467A77EEE67AEA
:104E280084ED0B7AC4ED0C7A07EE903A94ED0A7A89
:104E380094F85E106848F8EEE77A77EEC77AC4ED22
:104E48000D7A13F02BFA654B1D78002D00F00886BB
:104E5800634B644FDFF880A1059339681B78D4ED64
:104E6800077ACDF828800AF58C690AF50366BAEC4A
:104E7800018A002501F00051132BA84628EE278A45
:104E88000D4645D0062B08D1B0EE480A09932CF000
:104E9800F7FD554B23F81800099B1DB1B8F1000F19
:104EA80004F06F83B0EE480AD4F88834484698472F
:104EB800D4F8B830A9F574709847D4F85838304603
:104EC8009847D4F8C83806F1700098473D6805F04F
:104ED8000055B0EE408A08F101082A46002D41F03D
:104EE8008580059B1B78032B01F06A80B8F1030FBE
:104EF8008AED028A01F07780BAEC018AD4ED077A4C
:104F0800132B09F5A27906F1240628EE278AB9D1D0
:104F180004EB48023449B2F8502021F81820BCE7C5
:104F28002F4B0593314E1B78D4ED0E7AD4ED0F6AD2
:104F380094ED107A94F8AC2994F8B419C6ED017A76
:104F4800C6ED026A86ED037A8BF890228BF89112EF
:104F580052BBDBEDA54A264ACBEDA57A77EEA47ABB
:104F6800DDED074ADBEDA63A9BEDA74A92ED005A24
:104F780092ED026AD2ED015ACBEDA66AFAEEEF4A3B
:104F880076EEA33A37EE044AA4EEA75AF0EE467A34
:104F9800E4EEA35AE4EE247A82ED005AC2ED015AF7
:104FA800C2ED027A8BEDA77A052B00F0EF84DBF8CF
:104FB800A032099313B3581E059BCBF8A0021B78A7
:104FC800012B00F0868415B0BDEC0C8BBDE8F08F8A
:104FD80068490020D84D0020044E0020EE33002000
:104FE8006878002014680020F8770020245B0020EF
:104FF8006C49002058220020345B0020D14ADBF89D
:10500800A4321278511ECBF8A012002B00F016849F
:10501800013BCBF8A432CC4B0893059B1A78052AA0
:1050280000F0338400230A93C84BC9491B780968E8
:105038000F4623B9C74B1B78002B40F0E586C64BBB
:105048002B2AD3ED009A01F02984C44AC44BD2ED2F
:10505800007A93ED006A9FEDC3AAC34BDFF8609313
:10506800D3ED006AC14BDFF85C83B3F800A0DFED35
:10507800C0AA9FEDC0CADFEDC0BA9FEDC0BAC04C50
:105088000796B7EE007A77EE677AB0EE4ADA67EEFF
:10509800867A0025F4EEC77AF1EE10FA88BFF0EEB2
:1050A800477AF4EECA7AF1EE10FAB8BFF0EE4A7A0F
:1050B80067EEA67A3E4667EEA99AB24BAF003B442C
:1050C800D3ED007A089BF5EE407A3B44F1EE10FAF6
:1050D800D3ED00CA17D0AC4B3B4493ED007A7CEE7D
:1050E800C76AB0EEE66AF4EEC67AF1EE10FA08D5B1
:1050F800F5EEC06AF1EE10FACCBF77EE87CA77EE0C
:1051080067CAC3ED00CA40F6030C1AEA0C0C00F09B
:105118007783022D00F0778396F82D209B4B07EEBE
:10512800902A3B4493ED007A5342F8EEE76A07EE83
:10513800903A26EE877AF8EEE77AB4EEE77AF1EE5F
:1051480010FA0AD407EE902AF8EE677AF4EEC77AD6
:10515800F1EE10FA88BFF0EE477A8D4B8D4903EBDC
:10516800450331F91520B3F90C30D21A07EE102A8D
:1051780040F60103B8EEC77A1AEA030FE7EE6A7A37
:1051880000F0D082844BD3ED00CA67EEACCA079B0F
:105198009BF87B029BF80C223B4493ED018A002884
:1051A80000F01882002A00F096813CEEC88A7B4BFA
:1051B800DBF8C42206991B688A1A9A423ADD784BB2
:1051C800022D186840F09283764BD3ED007AB1EE49
:1051D800677AB4EEC78AF1EE10FA00F13B86B4EEB6
:1051E800E78AF1EE10FA88BFB0EE678A824284ED52
:1051F80001DA40F39D836C4B1B68980740F13386B6
:105208006449634BB1F90020B3F90CC06748A2EBBD
:105218000C02002A0068B8BF524282420ADAB1F989
:105228000220B3F90E30D31A002BB8BF5B42984264
:1052380000F319865E4BF0EE6C1A1B68B0EE4D1A3F
:10524800F0EE690AB0EE480A29463046984796F8C3
:105258005230002B40F01782444BB3F800A01AF4E8
:10526800006F0DD09BF8903253B9524B9BF80C222B
:105278001B7813F0010340F0EE860AB18BF80C326C
:10528800BAF1000F00F0AC8184ED03DA9BF891329B
:10529800E9EC01CA4BB1022D84ED01DA05D084EDA9
:1052A80000DA84ED02DA84ED03DA9BF80E32002B83
:1052B80040F0ED81B0EE4A6A84ED00DA84ED01DA5F
:1052C80084ED02DA84ED03DAD4ED007AD4ED016AD4
:1052D80094ED027A77EEA67A013577EE877A032D78
:1052E80077EE867A08F12408C4ED047A04F11404F0
:1052F8007FF4E3AE059B079E1B78052B01F0228304
:105308002C4B93F8008018F0010804D02A4B1B7826
:10531800D90640F10D85294C059B1B780022202BCE
:10532800CBF8382100F09186012B01F0F582052B8E
:1053380000F0F5851F4B93F800804FF0000908F046
:10534800010841E02C380020804D00203C4B002013
:10535800F8420020114D0020781D00202048002030
:10536800104B00200000000068790020F442002063
:10537800CDCCCC3D6F12033B00007A4400007AC4C8
:10538800AC3A0020044B002010250020A44D00203A
:10539800DC320020B0420020EC4A00201C4B0020E8
:1053A800184B0020344B002000430020204B0020E5
:1053B800404B00203C3F00206C4600204C4600201B
:1053C80004250020847900202378002B40F0B48540
:1053D800BB4BBC4F1D683B68BB4A95F84AA092ED91
:1053E800038ABA4CDB0440F1AF86668AB8F1000F35
:1053F80001D1ABF8D4621821B5481EF081FB20B961
:10540800B44B1A7B002A02F0C181A38AA3F57A73F0
:1054180003EBD373C3F34F03F21A1E4492B2B6B22E
:1054280007EE902AF8EEE77AA2F57A73C6F5FA61E4
:1054380007EE103A06EE901AF4EEC87AF1EE10FA7A
:10544800B8EEC77AF8EEE66A9BF9D63283F289811C
:1054580007EE906AF8EEE77AF4EEC87AF1EE10FA01
:1054680002F201809C4A9BEDBB7A92ED006A8BEDBB
:10547800B67A76EE475A012B8BEDB86ACBEDB35A64
:105488008BEDB47A03F0F384069BCBF8E432002268
:1054980078EE677ABCEEC88A012318EE101ACBEDB5
:1054A800BA7AB0EE667AABF8D4128BF8D6328B4B58
:1054B8009A4200F265868A4ADBEDBA7A92F8008051
:1054C8007F4A1568874A002353609361D36208F0C6
:1054D800010800F055BEBCF1000F40F0F781824B87
:1054E8008249DFF838A231F91510DFF834E25AF8AA
:1054F80007C0DEED006A03EB4503F5EEC0CAB3F959
:105508000C30C91A07EE901AB8EEE70AF1EE10FA55
:1055180020EE2A0AB7EE007AFFEE007AB5EEC00A4E
:10552800D4BFF0EE675AF0EE475ACCBF01234FF0D4
:10553800FF33F1EE10FAC8BFF0EE477ACCBF012175
:105548004FF0FF31B0EEC07ABCF1000F03D09C459C
:1055580010D04AF80720B4EEE67AF1EE10FA41F3DB
:10556800B8878B4241F0B5874AF807300246002BCE
:1055780001F0AF87F0EE40CAD7EEA6CA5C49D1ED7C
:10558800007A6CEEA7CAF0EE4D8AF4EEEBCAF1EEA3
:1055980010FA88BFF0EE6BCAF4EECBCAF1EE10FA3F
:1055A800B8BFF0EE4BCA002A43F01381514A127873
:1055B800954240F08B81059A1278272A00F06C8179
:1055C800022D40F083819BF89132002B44F09B849C
:1055D8009BF80C223CEEC88A002A3FF42BAEE6E585
:1055E800454B03EB051393ED039AB5EEC09AF1EE24
:1055F80010FA7FF749AE414BD3ED007AF5EEC07A49
:10560800F1EE10FA4BDCB7EE008A3D4BD9ED008A7B
:105618001F78BD427CEEE88A00F00281394B1B7886
:1056280053B1394B1B78012B00F05085022B00F049
:105638008E82BD4200F0B482344A354BD2ED007AF6
:105648001B7829EE279A29EE088A68EE288AC4ED85
:10565800038A002B3FF41AAED4ED007A28EEA77A1D
:10566800B5EEC07AF1EE10FA7FF710AEF0EEE88AE8
:10567800F0EEE77AF4EEE78AF1EE10FA7FF704AE7F
:1056880084ED00DA02E6234BB3F800A0EAE59BF8C4
:105698009032002B7FF40EAE94ED036A14E61E4B95
:1056A8001F4497ED008A27EE888AF7EE007AB4EE59
:1056B800E78AF1EE10FA88BFB0EE678AA5E700BF67
:1056C800F842002014680020E83A0020C87600203C
:1056D800E8370020E44C0020183800208FD0030061
:1056E8003C3F0020AC3A0020DC320020B0420020D1
:1056F800504B00204C4B0020EC470020E84A00208B
:1057080065790020677900206679002030480020FC
:105718003D4B0020F4420020B04D002078230020AB
:10572800444B0020B34AB1F9003092ED007AD2ED33
:10573800016AB1F90210B04AF4EEC76AF1EE10FA44
:10574800B4BFB0EE476AB0EE666A002BB8BF5B42E2
:105758000029B8BF49428B42B8BF0B4607EE103A42
:105768001378A64AB8EEC77A92ED005A27EE2A7A3D
:10577800002B00F01581B5EEC05AF1EE10FA40F397
:10578800D8839F4BD3ED004AF5EEC04AF1EE10FAEC
:1057980040F3CF8334EEC77ADFED9A5AC7EE246A16
:1057A80066EE255AB7EE007A85EE856AF4EEC76A8A
:1057B800F1EE10FA88BFF0EE476AF5EEC06AF1EE36
:1057C80010FA36EE077AB8BFF0EE4D6A26EE877A01
:1057D800B7EE006AB4EEC67AF1EE10FA88BFB0EE02
:1057E800467AB5EEC07AF1EE10FAB8BFB0EE4D7A4F
:1057F800854BD3ED006A67EEA67AE7EE87CAC6E462
:10580800022D7FF4C4AC9BF891329BF80C22002B3C
:10581800079B3B4493ED018A18BFF0EE4DCAD9E6C9
:10582800059B1B78282B7FF4F9AE9FED780A28EEAC
:10583800800A2CF025F9764B5880EFE6754B99795C
:1058480019B19B78012B01F03B86734B9B789BB178
:10585800724A734BB2F906209B8A9A420CDC714B50
:105868001B780E2B08D0082B06D06F496F4A089179
:10587800002393608B6001E06B4B089325F00AFAD4
:10588800059B1A78052A7FF4CDAB1BF0A1FD059B7B
:105898000A901A78FFF7C8BBB2EE049A20EE090AFC
:1058A8000B932CF0EDF8DFF868A10B9BAAF80230F7
:1058B800B0EE6C0AAAF800002CF0E2F828EE890A8B
:1058C800AAF804002CF0DCF8AAF806003CEEC88A16
:1058D800B0E4574B574A196812884D4BC96919806B
:1058E8005A8015B0BDEC0C8BBDE8F08F524B1B688D
:1058F8009B0740F1B382514B5149DFF860A131F960
:1059080015E0DAED00CA84ED01DA03EB450C6CEE24
:10591800AACABCF90CC0ACEB0E0C07EE90CAF8EEA4
:10592800E77A824267EEACCA3CEEC88A3FF76AACB7
:10593800444B93ED007AF7EE007AB4EEE77AF1EE95
:1059480010FA7FF577AC079A3F4BD2ED017A93EDC9
:10595800007AF0EEE77AF4EEC77AF1EE10FA7FF506
:1059680069ACD2ED027AF0EEE77AB4EEE77AF1EEBE
:1059780010FA7FF75FACD2ED037AF0EEE77AB4EE77
:10598800E77AF1EE10FA3FF736AC53E41BF020FD4E
:10599800069BDFF87C90C01AA9F80000FFF707BB48
:1059A8002A4BDFED2B6AD3ED005AF4EEE65AF1EEFE
:1059B80010FA0FD5F7EE004A34EEE54ADFED256A16
:1059C800DFED254A36EEC77A64EE244AE7EE245A1C
:1059D80025EE255AB5EEC05AF1EE10FA40F2A9822A
:1059E8009FED0A7AC7EE056AB7EE007AA6EE667AE8
:1059F800EEE600BFB04D0020F84A0020F44A00202F
:105A0800FC4A00200000C8C2F04A00200000C8423A
:105A1800F8770020345B00204C380020F045002047
:105A2800C8760020A2340020804D0020E83A0020EB
:105A3800D44D0020C249002000430020DC32002061
:105A4800B042002020480020244B0020004B0020BA
:105A5800AE47813F00003443610BB63BEC4A00205F
:105A6800DFF8A093DB4F09F58C6609F5036AD4EDDE
:105A7800077AB9EC010AD4F8883420EE270A3046B0
:105A88009847D4F8B830A6F574709847D4F85838C1
:105A98000AEB05009847D04AD4F8C83850199847F7
:105AA8003B689A0000F1BB8224356C2D89ED020A0F
:105AB80006F5A276DBD1C94B3A6805931B7802F04C
:105AC800005298F8161021B1C5490D78002D01F043
