:020000040800F2
:10000000F0FF0010B5BA0408C543030831F7020831
:1000100051BB040851BB040851BB04080000000098
:10002000000000000000000000000000D1430308B1
:10003000CD43030800000000C9430308DDEE0208B9
:1000400051BB040851BB040851BB040851BB040850
:1000500051BB040851BB04083DF802087DF90208B1
:100060003DF90208FDF80208BDF80208E1B80208EF
:10007000D1B80208C1B80208B1B802089DB8020898
:1000800089B8020875B8020851BB040851BB0408BE
:1000900051BB040851BB040851BB04087DF8020899
:1000A00051BB040851BB040851BB040851BB0408F0
:1000B00051BB04088DE20208CDE10208D1C002085C
:1000C000D7C00208C7C00208CDC0020851BB04084F
:1000D00051BB04088DF1020851BB0408F1F002087D
:1000E000FDF7020851BB04084189030851BB04080D
:1000F00075DF020851BB040841E0020861B802083C
:1001000051BB040851BB04080DE1020851BB0408AF
:1001100055F00208B9EF020859910108459101080C
:100120004DB8020839B8020825B8020811B802080B
:10013000FDB7020851BB040851BB040851BB0408B9
:1001400051BB040851BB040851BB0408E9780308FB
:10015000E9B70208D5B70208C1B702081DEF0208C7
:10016000BDC00208C3C0020851BB040851BB04084B
:1001700051BB040851BB040851BB040851BB04081F
:0801800051BB040851BB040847
:080188005CB604000100000058
:1001900016000800B4250020C02500200000000043
:1001A000CC0600082C001000103400200034002081
:1001B00000000000990601082B00240044340020B0
:1001C0002034002000000000690601082910780092
:1001D00014330020683400200000000000000000FC
:1001E00023001000C02E0020E0340020000000009A
:1001F00041EA00082810100020320020F0340020CE
:100200000000000029EA0008140003000C3200205E
:100210000035002000000000D40600080E502C011C
:10022000662800200435002000000000253B04085B
:100230000C101401DC2900203036002000000000E2
:10024000DD81010801020500EA2700204437002073
:100250000000000059E2000818020200003C0020E3
:100260006C3C0020000000000000000017020B00A2
:10027000F53B0020703C00200000000069C8020827
:1002800007020200283C00207C3C00200000000007
:10029000D806000802000C00103C0020803C002022
:1002A000000000000000000006020C00023C0020DC
:1002B0008C3C00200000000045CC02080812090018
:1002C000EC3B0020983C002000000000ADC8020874
:1002D000F7010600E23B0020A43C002000000000E3
:1002E000DA0600080A020A00FC3A0020AC3C0020B2
:1002F00000000000E006000803000100D83B0020D9
:10030000B83C0020000000000000000010100300B6
:100310001C3B0020BC3C002000000000EA06000856
:100320001B0208000C440020CC56002000000000F6
:100330005DC802080120080058550020D45600204E
:1003400000000000EE06000819000500E45500203A
:10035000DC56002000000000F606000837001E00F2
:10036000BC550020E456002000000000FC060008F8
:100370001E000500EC410020045700200000000092
:100380001A0700081B00F400DC3D00200C57002079
:1003900000000000B11F02080E0202003C480020CD
:1003A0000058002000000000200700082F00110066
:1003B00070560020045800200000000022070008AA
:1003C00026000E00285800201858002000000000C9
:1003D000DD0602081F201C00B43D00205C580020F0
:1003E00000000000340700080502040074440020E7
:1003F000785800200000000050070008100201009B
:10040000D85C0020D45C00200000000054070008E5
:100410001A023C00BC5D0020405F0020000000008C
:100420002DD2020827000400805F00207C5F00209E
:10043000000000005607000803010A00FC720020BB
:1004400094730020000000005A0700080510060001
:100450008C720020A07300200000000064070008D8
:1004600013020300B0670020A87300200000000002
:100470006A07000804008000DCA5002094A6002084
:1004800000000000000000000D00340078A50020EE
:1004900014A7002000000000518000081300040091
:1004A000C8A4002048A70020000000007007000832
:1004B000F6210C00CCA400204CA700200000000076
:1004C00074070008F531700004A4002058A700202C
:1004D00000000000D94702080B201000F4A3002000
:1004E000C8A70020000000008007000801010400E8
:1004F000F0A30020D8A700200000000000000000AA
:1005000000010400ECA30020DCA700200000000094
:100510009007000802010300E8A30020E0A70020E4
:100520000000000065820108FD011E00ACA3002050
:10053000E4A700200000000041C3020818202C009E
:100540007CA3002004A80020000000006DD6020853
:1005500006101800D896002030A8002000000000E7
:10056000893B0408FB010100D496002048A8002024
:100570000000000051E50208FC010900A0950020E0
:100580004CA800200000000061E50208F901040009
:100590009895002058A8002000000000B9C3020868
:1005A0000A402600AC8300205CA800200000000068
:1005B0009407000834001000C494002084A8002090
:1005C000000000005D3B0408110208009C9400201C
:1005D00094A8002000000000BA07000812120400CE
:1005E000949400209CA8002000000000C20700088E
:1005F00012200F0084940020A0A80020000000001A
:10060000C6070008FF01080004940020B0A80020DD
:1006100000000000CDD6020802020300F48300208F
:10062000B8A8002000000000000000000C02030039
:10063000E0830020BCA8002000000000CDC8020814
:10064000FE010900E0850020C0A800200000000095
:10065000D9C80208F82106003EBB002074C1002062
:1006600000000000D60700080312330052BE00202D
:10067000FAC0002000000000DC07000825009600FA
:1006800086BE002064C000200000000000000000C2
:100690001500700024BF0020F4BF002000000000FF
:1006A000000000002A00600050BB002094BF002022
:1006B00000000000013904081A000E0094C3002055
:0C06C000D8C40020000000001008000852
:1006CC00651B0D001901282803000000033C3100B4
:1006DC000100000000004A01B400D6010000000532
:1006EC000000E8036400040A000100002801000077
:1006FC0020003200C800D0079600140032002800F9
:10070C00B00440060005500014000F000801000062
:10071C0001000000000000000000000000000000CC
:10072C0000000000000000000000000000010000BC
:10073C0000050000010203000000000000000000A2
:10074C000000000000000000000020030000040175
:10075C0001006C16000000002000020100000000E7
:10076C000000000001000430000000000100000047
:10077C00020200002B21231E640101000000010075
:10078C000A012900E803000000300100000000000D
:10079C0000005A00000000000000000000000202EF
:1007AC0000019E077D0046329001200000000000F1
:1007BC00000001010101FFFFFFFF0000000100002C
:1007CC00054B524F4F5A580000000400F401190019
:1007DC00000000000000000000000000000000000D
:1007EC0000000000000000000000000000000000FD
:1007FC0000000000000000000000000000000000ED
:10080C00000001007E05EA05B4053200E803D007BC
:02081C000000DA
:10081E00010102FFFF000000685E0C00C13E0308EC
:10082E00AD3D0308F170030800000000D537030842
:10083E00A96C0308FD3C0308216C030800000000AE
:10084E000000000091370308A53503089935030809
:10085E0079380308953803085D38030841380308D2
:10086E0025380308793E0308893D030831700308D3
:10087E0000000000A9370308256C0308D13C0308CB
:10088E00816B030800000000000000009D37030884
:10089E00E00101010100000085E3000800000000F6
:1008AE00FC0100204032050800000000000000009E
:1008BE000000000000000000F83B050800000000EA
:1008CE00000000008102002004000000C431050871
:1008DE000D000000111501083C1C00200000000056
:1008EE00342B05080D00000039150108301C0020BE
:1008FE0000000000B42C05080800000000000000F5
:10090E00241C002004000000A02B05080D00000090
:10091E0039E40008181C002000000000642C0508B3
:10092E0003000000411901080C1C0020000000000B
:10093E00503205080300000041190108001C002078
:10094E0000000000702705080100000000000000F4
:10095E000000000000000000000000000E0000007B
:10096E0000000000000000000000000040320508FA
:10097E000000000000000000000000000000000069
:10098E00F83B050800000000000000008102002076
:10099E00040000007031050803000000550A01082C
:1009AE00F41B002008000000A02B05080D0000001D
:1009BE0039E40008181C002000000000642C050813
:1009CE0003000000411901080C1C0020000000006B
:1009DE00503205080300000041190108001C0020D8
:1009EE000000000070270508010000000000000054
:1009FE000000000000000000000000000E000000DB
:100A0E000000000000000000000000005832050841
:100A1E0000000000000000000000000000000000C8
:100A2E00F83B0508000000000000000081020020D5
:100A3E000400000078310508030000004119010888
:100A4E00481C00200000000070270508010000006F
:100A5E000000000000000000000000000000000088
:100A6E000E0000000000000000000000000000006A
:100A7E0020700020702D7200D601010000010101CE
:100A8E00000800000000000000000000B017002069
:100A9E00012D202D2D202D2D2D2D202D2D2D000025
:100AAE000000000000000000000000000000000038
:100ABE00FFFFFFFFFA000000010000000100000030
:100ACE00010000004027050848270508682705088B
:100ADE000000000000000000000000000000000008
:100AEE00EA26050804000000D912010800000000E3
:100AFE000000000070270508010000000000000043
:100B0E000000000000000000000000000E000000C9
:100B1E000000000000000000000000007CA6002085
:100B2E000100C409000000007AA600200100C409DB
:100B3E000000000078A600200100C409000000009B
:100B4E0076A600200100C4090000000072A6002055
:100B5E000100C4090000000074A600200100C409B1
:100B6E000000000070A600200100C4090000000073
:100B7E006EA600200100C40900000000FC27002022
:100B8E000100C80001000000FA2700203200307575
:100B9E0032000000F8270020055A0500F527002036
:100BAE0000FF0100F727002001000000B402002022
:100BBE00F32700200200000080F50408F42700202F
:100BCE0000FF0100F627002001000000B402002003
:100BDE00F22700200200000080F50408E82700201C
:100BEE0080C1803E05000000E627002080C1803EC7
:100BFE0005000000E427002080C1803E05000000B3
:100C0E00E227002080C1803E05000000E127002081
:100C1E0000FF0100E02700200A320100DF2700203C
:100C2E0004000000C8EA0408DE27002002000000CD
:100C3E00DCEA04080000000000000000BC020020F6
:100C4E00407300209CFF2C01000000008200002059
:100C5E000A000000E8EA0408D4270020E0150C176B
:100C6E0000000000840000200800000084F7040843
:100C7E00830000200500000018EC0408D627002091
:100C8E000200000000EB04080E2B00200100FF7F85
:100C9E00010000000D2B0020020000000CEB0408E8
:100CAE00A029002003004000010000009E29002022
:100CBE000000803E010000009C2900200000F4018D
:100CCE00010000009A2900200000F401010000003C
:100CDE00982900200000F401010000009629002050
:100CEE000000F40101000000942900200000803E65
:100CFE0001000000922900200000803E010000004B
:100D0E00BC290020E803D0070A000000BA29002001
:100D1E00006401000A000000AF29002000640100F9
:100D2E00AE29002000640100B629002000640100F5
:100D3E000A000000B5290020006401000A0000002E
:100D4E00B4290020006401000A000000B929002027
:100D5E00006401000A000000B829002000640100B0
:100D6E000A000000B7290020006401000A000000FC
:100D7E00B329002000FF01000A000000B229002064
:100D8E0000FF01000A000000B129002000FF010051
:100D9E000A000000622800200000F401010000009B
:100DAE00602800200000F401010000005E280020F1
:100DBE000000F401010000005C2800200000F40196
:100DCE00010000005A2800200000F401010000007C
:100DDE00AC29002000640100AA2900201400E803B9
:100DEE0001000000A8290020E80330750A00000069
:100DFE00A629002000C80100A529002000C8010076
:100E0E00A429002000C80100A329002000640100CD
:100E1E000A000000F32A002001C80100F22A002077
:100E2E00010A0100022B00200000D0070100000083
:100E3E00FC2A002000C80100FB2A002000C8010087
:100E4E00FA2A002000C80100002B00200000D00765
:100E5E0001000000F92A002000C80100F82A002035
:100E6E0000C80100F72A002000C80100FE2A002059
:100E7E000000D00701000000F62A002000C8010083
:100E8E00F52A002000C80100F42A002000C8010045
:100E9E00F12A0020010000001CEB0408A42705081D
:100EAE000000000000000000000000000000000034
:100EBE00B4270508090000000000000060030020B0
:100ECE0004000000BC270508090000000000000017
:100EDE005403002004000000682F050809000000DC
:100EEE00000000004803002004000000CC3D05086F
:100EFE0009000000000000003C0300200400000078
:100F0E00C42705080900000000000000300300207F
:100F1E0004000000CC2705080900000000000000B6
:100F2E002403002004000000D42705080900000057
:100F3E00000000001803002004000000DC27050854
:100F4E0009000000000000000C0300200400000057
:100F5E0070270508010000000000000000000000DE
:100F6E0000000000000000000E0000000000000065
:100F7E0000000000000000001C2A05080000000010
:100F8E000000000000000000000000004C71050889
:100F9E000700000000000000840300200000000095
:100FAE002C2A05080800000000000000780300202D
:100FBE0000000000382A05080800000000000000AC
:100FCE006C030020000000007027050801000000DF
:100FDE000000000000000000000000000000000003
:100FEE000E000000000000000000000000000000E5
:100FFE00402A05080000000000000000000000006C
:10100E0000000000502A05080D000000000000003E
:10101E00C003002000000000582A05080D00000043
:10102E0000000000B403002000000000602A050844
:10103E000700000000000000AC03002000000000CC
:10104E00682A05080D00000000000000A003002023
:10105E0000000000702A05080D00000000000000CE
:10106E009403002000000000782A05080700000005
:10107E00000000008C03002000000000702705080F
:10108E000100000000000000000000000000000051
:10109E00000000000E000000000000000000000034
:1010AE0000000000802A050800000000000000007B
:1010BE0000000000000000004C7105080C0000004C
:1010CE0000000000FE27002000000000942A050802
:1010DE000C000000000000000028002000000000AE
:1010EE00A42A05080C00000000000000362800208D
:1010FE0000000000B42A05080C00000000000000EB
:10110E002A28002000000000C82A05080C00000054
:10111E000000000002280020000000004C230508FB
:10112E000C00000000000000042800200000000059
:10113E00D42A05080C00000000000000062800203C
:10114E0000000000E82A05080C0000000000000066
:10115E000828002000000000F02A05080C000000FE
:10116E00000000000A28002000000000F82A0508F0
:10117E000C000000000000004828002000000000C5
:10118E00102B05080C000000000000000C280020A9
:10119E00000000001C2B05080C00000000000000E1
:1011AE000E28002000000000242B05080C00000073
:1011BE00000000001028002000000000302B050861
:1011CE000C000000000000001228002000000000AB
:1011DE003C2B05080C000000000000001428002025
:1011EE0000000000482B05080C0000000000000065
:1011FE001628002000000000542B05080C000000EB
:10120E00000000001828002000000000602B0508D8
:10121E000C000000000000001A2800200000000052
:10122E006C2B05080C000000000000002E2800208A
:10123E0000000000742B05080C00000000000000E8
:10124E002C280020000000007C2B05080C0000005C
:10125E00000000003A28002000000000882B05083E
:10126E000C000000000000003C28002000000000E0
:10127E00942B05080C0000000000000042280020FE
:10128E00000000008C2805080C0000000000000083
:10129E001C28002000000000A02B05080C000000F8
:1012AE00000000002428002000000000A82B0508E4
:1012BE000C000000000000001E28002000000000AE
:1012CE00B42B05080C0000000000000020280020B0
:1012DE0000000000C02B05080C00000000000000FC
:1012EE002228002000000000C82B05080C0000007A
:1012FE00000000002628002000000000D42B050866
:10130E000C0000000000000030280020000000004B
:10131E00DC2B05080C00000000000000282800202F
:10132E0000000000E82B05080C0000000000000083
:10133E003828002000000000F42B05080C000000E7
:10134E00000000003228002000000000FC2B0508E1
:10135E000C000000000000003428002000000000F7
:10136E00042C05080C000000000000003E280020A0
:10137E00000000000C2C05080C000000000000000E
:10138E004028002000000000142C05080C0000006E
:10139E000000000052280020000000007027050801
:1013AE00010000000000000000000000000000002E
:1013BE00000000000E000000000000000000000011
:1013CE00000000001C2C05080000000000000000BA
:1013DE000000000000000000282C05080D00000091
:1013EE00000000001804002000000000302C05084A
:1013FE000D000000000000000C04002000000000A2
:10140E00382C05080700000000000000040400202E
:10141E0000000000442C050807000000000000003A
:10142E00FC03002000000000502C050809000000FD
:10143E0000000000F0030020000000005C2C0508F6
:10144E000900000000000000E4030020000000007E
:10145E00682C05080900000000000000D8030020D9
:10146E0000000000782C05080900000000000000B4
:10147E00CC030020000000007027050801000000CA
:10148E00000000000000000000000000000000004E
:10149E000E00000000000000000000000000000030
:1014AE008C2C050800000000000000000000000069
:1014BE00000000009C2C0508050000000000000044
:1014CE0059280020000000007027050801000000C8
:1014DE0000000000000000000000000000000000FE
:1014EE000E000000000000000000000000000000E0
:1014FE00A42C050800000000000000000000000001
:10150E0000000000F83B050800000000000000008D
:10151E00581F002004000000B02C05080D0000002C
:10152E003D1301086C04002000000000C4310508C2
:10153E000D0000003DE300086004002000000000E4
:10154E00342B05080D00000021E300085404002090
:10155E0000000000B42C0508080000000000000088
:10156E004804002004000000A02B05080D00000018
:10157E006BE200083C04002000000000BC2C0508B3
:10158E0009000000000000003004002004000000EC
:10159E00642C0508030000004119010824040020F2
:1015AE000000000070270508010000000000000088
:1015BE000000000000000000000000000E0000000F
:1015CE00000000000000000000000000C42C050810
:1015DE0000000000000000000000000000000000FD
:1015EE00D42C05080D00000000000000840400202B
:1015FE0000000000DC2C05080A00000000000000BE
:10160E002A2F002000000000E82C05080A00000028
:10161E0000000000322F002000000000F02C050812
:10162E000A000000000000003A2F00200000000019
:10163E00F82C0508080000000000000078040020C7
:10164E0000000000702705080100000000000000E7
:10165E000000000000000000000000000E0000006E
:10166E00000000000000000000000000002D050832
:10167E00000000000000000000000000000000005C
:10168E00142D05080800000000000000E4040020EE
:10169E0000000000202D05080800000000000000DA
:1016AE00D8040020000000002C2D050808000000C2
:1016BE0000000000CC04002000000000382D0508BA
:1016CE000800000000000000C00400200000000020
:1016DE00442D05080800000000000000B40400209E
:1016EE0000000000502D050808000000000000005A
:1016FE00A8040020000000005C2D05080800000072
:10170E00000000009C04002000000000682D050869
:10171E0008000000000000009004002000000000FF
:10172E007027050801000000000000000000000006
:10173E0000000000000000000E000000000000008D
:10174E000000000000000000742D050800000000DD
:10175E00000000006302002000000000802D05083C
:10176E000B000000000000007805002000000000C3
:10177E008C2D05080B000000000000006C050020F9
:10178E0000000000982D05080B000000000000006E
:10179E006005002000000000A42D05080B000000CD
:1017AE00000000005405002000000000B02D0508C8
:1017BE000B000000000000004805002000000000A3
:1017CE00BC2D05080B000000000000003C050020A9
:1017DE0000000000C82D05080B00000000000000EE
:1017EE003005002000000000D42D05080B0000007D
:1017FE00000000002405002000000000E02D050878
:10180E000B00000000000000180500200000000082
:10181E00EC2D050807000000000000001005002058
:10182E0000000000F42D0508070000000000000075
:10183E000805002000000000002E05080B00000027
:10184E0000000000FC040020000000000C2E050823
:10185E000800000000000000F0040020000000005E
:10186E0070270508010000000000000000000000C5
:10187E0000000000000000000E000000000000004C
:10188E000000000000000000182E050800000000F7
:10189E000000000000000000000000002C2E0508D3
:1018AE000800000000000000B40500200000000049
:1018BE00382E05080800000000000000A8050020D2
:1018CE0000000000442E0508080000000000000083
:1018DE009C05002000000000502E050808000000A6
:1018EE000000000090050020000000005C2E05089E
:1018FE000800000000000000840500200000000029
:10190E007027050801000000000000000000000024
:10191E0000000000000000000E00000000000000AB
:10192E000000000000000000642E0508000000000A
:10193E00000000006002002000000000742E050868
:10194E000B00000000000000F80500200000000061
:10195E00802E05080700000000000000F0050020A2
:10196E00000000008C2E050807000000000000009B
:10197E00E805002000000000982E05080700000072
:10198E0000000000E005002000000000A42E050865
:10199E000800000000000000D40500200000000038
:1019AE00AC2E05080800000000000000C80500204D
:1019BE0000000000B42E0508070000000000000023
:1019CE00C00500200000000070270508010000007F
:1019DE0000000000000000000000000000000000F9
:1019EE000E000000000000000000000000000000DB
:1019FE00C02E05080000000000000000600200205C
:101A0E0000000000CC2E05080D00000000000000B4
:101A1E008006002000000000D82E050807000000F8
:101A2E00000000007806002000000000E02E0508EF
:101A3E0007000000000000007006002000000000FB
:101A4E00E82E0508070000000000000068060020D0
:101A5E0000000000F02E0508080000000000000045
:101A6E005C06002000000000F82E050807000000AC
:101A7E00000000005406002000000000002F0508A2
:101A8E0007000000000000004C06002000000000CF
:101A9E00082F050807000000000000004406002083
:101AAE0000000000102F05080800000000000000D4
:101ABE003806002000000000182F0508070000005F
:101ACE00000000003006002000000000202F050856
:101ADE0007000000000000002806002000000000A3
:101AEE00282F050807000000000000002006002037
:101AFE0000000000302F0508080000000000000064
:101B0E001406002000000000382F05080700000012
:101B1E00000000000C06002000000000402F050809
:101B2E000700000000000000040600200000000076
:101B3E0070270508010000000000000000000000F2
:101B4E00000000004C2F050802000000ED170108F0
:101B5E000100000000000000000000000E00000068
:101B6E000000000000000000000000000000000067
:101B7E00BDE600088C060020572800202C0000002F
:101B8E0024EB04085628002000C801005428002029
:101B9E00E803D007010000004B524F4F5A58000087
:101BAE00F127002000030100F027002000030100B0
:101BBE0005E60008DDE500086807002099E5000845
:101BCE004DE50008E007002045E600082DE6000878
:101BDE0094080020B1E400085DE40008B40B002076
:101BEE00D3E6000861150108900C0020A9E2000858
:101BFE0000000000E00C00209D1601088DE9000891
:101C0E00BC0D0020A9E7000869E700085C0E002063
:101C1E0045E8000891E80008380F0020AD290020A3
:101C2E00010601002DE70008F9E6000878100020F3
:101C3E00E9E700089115010818110020C1E8000815
:101C4E00ED150108E0110020A2290020010301007A
:101C5E00582F0508000000000000000000000000E2
:101C6E0000000000642F05080800000000000000BE
:101C7E007C130020000000006C2F050807000000F8
:101C8E000000000074130020000000007C2F0508E7
:101C9E000D0000000000000068130020000000008E
:101CAE00882F050803000000411901085C1300206D
:101CBE000000000070270508010000000000000071
:101CCE000000000000000000000000000E000000F8
:101CDE00000000000000000000000000902F05082A
:101CEE0000000000000000000000000000000000E6
:101CFE00A02F05080A00000000000000A82F05080C
:101D0E0000000000B02F05080A00000000000000CF
:101D1E006E26050800000000B82F05080A00000016
:101D2E0000000000042B002000000000C02F05085A
:101D3E000A000000000000008813002000000000D0
:101D4E0070270508010000000000000000000000E0
:101D5E0000000000000000000E0000000000000067
:101D6E000000000000000000C82F05080000000061
:101D7E00000000000000000000000000D42F050845
:101D8E000300000041190108B813002000000000F4
:101D9E00E02F05080300000041190108AC130020D4
:101DAE0000000000E82F050803000000411901089B
:101DBE00A013002000000000F02F05080500000011
:101DCE0000000000EF27002000000000F82F05089B
:101DDE000700000000000000981300200000000023
:101DEE0004300508070000000000000090130020DA
:101DFE000000000070270508010000000000000030
:101E0E000000000000000000000000000E000000B6
:101E1E000000000000000000000000001030050867
:101E2E0000000000000000000000000000000000A4
:101E3E00F82305080300000041190108E8130020EB
:101E4E0000000000243005080300000041190108BD
:101E5E0088000020000000002C3005080300000060
:101E6E0041190108DC130020000000003430050881
:101E7E000300000041190108D013002000000000EB
:101E8E00A02B05080300000041190108C41300200F
:101E9E00000000007027050801000000000000008F
:101EAE000000000000000000000000000E00000016
:101EBE000000000000000000000000004030050897
:101ECE000000000000000000000000000000000004
:101EDE005030050807000000651601083814002070
:101EEE0000000000C42B0508030000004119010882
:101EFE002C140020000000005C30050803000000D8
:101F0E00411901082014002000000000643005086B
:101F1E000300000041190108141400200000000005
:101F2E006C30050807000000491601080C1400204B
:101F3E00000000000C3E05080300000041190108D6
:101F4E000014002000000000783005080300000097
:101F5E0041190108F4130020000000007027050845
:101F6E000100000000000000000000000000000062
:101F7E00000000000E000000000000000000000045
:101F8E00000000008DE600085DE600084014002009
:101F9E0059E9000800000000CC14002029E50008D3
:101FAE0005E50008581500200000000000000000A4
:101FBE000C16002031E9000881160108AC1600202D
:101FCE008430050800000000000000000000000042
:101FDE0000000000903005080300000041190108C0
:101FEE00A417002000000000983005080300000030
:101FFE00411901089817002000000000A4300508C0
:10200E0003000000411901088C1700200000000099
:10201E00A8300508030000004119010880170020B0
:10202E0000000000B430050803000000411901084B
:10203E007417002000000000BC30050802000000EC
:10204E00ED17010800000000000000004C2F0508ED
:10205E0002000000ED170108010000000000000062
:10206E00C430050802000000ED1701080200000050
:10207E0000000000000000000E0000000000000044
:10208E000000000000000000DA27002088136F1700
:10209E0001000000DC27002088136F1700000000ED
:1020AE00D030050800000000000000000000000015
:1020BE0000000000E03005080800000000000000ED
:1020CE008418002004000000EC3005080800000011
:1020DE00000000007818002000000000642C0508A5
:1020EE00040000006513010800000000000000005D
:1020FE00702705080100000000000000000000002D
:10210E0000000000000000000E00000000000000B3
:10211E000000000000000000D827002088136F1771
:10212E00010000008273002088136F17000000006A
:10213E00EDE300080000000090180020292F002079
:10214E0001000000D8EB0408847300200100000099
:10215E00E4EB04087A73002002000000ECEB0408A4
:10216E00827200200000000000000000807200203B
:10217E0000000000000000007E7200200000000041
:10218E00000000007C720020000000000000000033
:10219E007A7200200000000000000000787200201B
:1021AE000000000000000000901F00200000000052
:1021BE0000000000D727002002000000F8EB040802
:1021CE00283105080000000000000000000000009B
:1021DE0000000000E03005080800000000000000CC
:1021EE001419002004000000EC300508080000005F
:1021FE00000000000819002000000000642C0508F3
:10220E0004000000BDE30008000000000000000014
:10221E00702705080100000000000000000000000B
:10222E0000000000000000000E0000000000000092
:10223E00000000000000000038310508000000001A
:10224E0000000000000000000000000048310508FA
:10225E000D000000B5140108441900200400000010
:10226E00543105080D00000015E40008381900204F
:10227E0004000000603105080D000000791401080B
:10228E002C190020000000006C310508030000002E
:10229E00750A010820190020080000007831050891
:1022AE000300000041190108481C00200000000036
:1022BE00702705080100000000000000000000006B
:1022CE0000000000000000000E00000000000000F2
:1022DE000000000000000000682705080000000054
:1022EE00000000000000000000000000EA260508C3
:1022FE00040000007D130108000000000000000033
:10230E00702705080100000000000000000000001A
:10231E0000000000000000000E00000000000000A1
:10232E000000000000000000CC3105080000000095
:10233E00000000000000000000000000F456050838
:10234E000D00000000000000A41900200400000091
:10235E00DC3105080800000000000000981900207C
:10236E0004000000E831050808000000000000002D
:10237E008C19002004000000F03105080800000050
:10238E00000000008019002004000000F83105084C
:10239E000800000000000000741900200400000076
:1023AE000032050808000000000000006819002037
:1023BE0004000000083205080800000000000000BC
:1023CE005C1900200400000010320508080000000F
:1023DE0000000000501900200400000070270508BE
:1023EE0001000000000000000000000000000000DE
:1023FE00000000000E0000000000000000000000C1
:10240E0000000000D5E3000800000000B019002015
:10241E000000000000000000281A0020000000004C
:10242E0000000000C81A0020807300200400000085
:10243E0004EC04087E730020E0150C170000000069
:10244E007D7300200800000084F704087C730020D0
:10245E000500000018EC0408000000000000000059
:10246E00181B0020000000005C3C0020080000004B
:10247E00000000004C3C002008000000FF0000009F
:10248E00A0F10408050804000000000018EC040880
:10249E0084F7040804EC04080000000000000000AB
:1024AE00CCF1040805080A000000000018EC04082E
:1024BE0084F70408E8EA04080000000000000000A9
:1024CE0001000000000001FFFF0100000000803F3E
:1024DE00FF1FFF1F3858002000000000041D0020C1
:1024EE00040000000000803F00000000000000001B
:1024FE0000000000000000000000000000000000CE
:10250E0000000000000000000000000001000000BC
:10251E00FFFFFFFF000200051002700B010000001C
:10252E005001000007000000020000000000000043
:10253E000000000001020304060708090403090451
:10254E0012010002EF020140830456320002010222
:10255E0003010000120100020202004083044057F2
:10256E0000020102030100001A0300000000000037
:10257E00000000000000000000000000000000004D
:10258E0000000000040309041201000200000040D4
:10259E0083042057000201020301000009022000FB
:1025AE00010104C0320904000002080650050705A7
:1025BE00810240000007050102400000090264008C
:1025CE00030100C0320904000001030000000921CC
:1025DE00110100012226000705830308000A080BDB
:1025EE0001020202010009040100010202010005BC
:1025FE002400100105240100020424020205240611
:10260E000102070582030800FF09040200020A0006
:10261E00000007050102400000070581024000008E
:10262E0009024300020100C0320904000001020247
:10263E0001000524001001052401000104240202FA
:10264E000524060001070582030800FF09040100A6
:10265E00020A000000070501024000000705810282
:10266E0040000000FF00000000FFFF00000000001F
:10267E00AA5505010000000039620308D53503088C
:10268E0029620308D1350308E5610308996103083F
:10269E00CD350308981F002015630308693D030814
:1026AE00556E03080000000000000000596B03087F
:1026BE00756A030800000000000000000000000022
:1026CE004D3703086D36030861360308E9380308F1
:1026DE000539030819360308CD380308B138030845
:1026EE0005010905A101A1000501093009310932D1
:1026FE00093309350934094009381581257F7508D4
:10270E0095088102C0C0000009022200010100E00C
:10271E003209040000010301020009211101000128
:10272E002226000705830308000A000000000000AF
:10273E00010203040102030406070809B96D030828
:10274E00BD6C03081571030865390308DD3E0308E7
:10275E0075390308913903083D3903082D390308EB
:10276E0000000000000000002D202D2D202D2D2D0D
:10277E002D202D2D2D2D000000000000000000004A
:10278E0000000000000000AA550B010000AA55072A
:10279E00010000AA5509020000000000010000001F
:1027AE00C012AA5503009F00008002021F00000005
:1027BE0053544D202020202050726F6475742020B9
:1027CE002020202020202020302E30310800000034
:1027DE0095350308913503088D35030881350308B7
:1027EE007D350308893503088535030800600240EE
:1027FE00106002400000000000000000000B00000E
:10280E000000000000000000000000000060024018
:10281E00286002400100000000000000060C0000CD
:10282E0000000000000000000000000000600240F8
:10283E00406002400200000000000000100D000089
:10284E0000000000000000000000000000600240D8
:10285E00586002400300000000000000160E000049
:10286E0000000000000000000000000000600240B8
:10287E00706002400400000000000000200F000005
:10288E000000000000000000000000000060024098
:10289E0088600240050000000000000026100000C5
:1028AE000000000000000000000000000060024078
:1028BE00A060024006000000000000003011000081
:1028CE000000000000000000000000000060024058
:1028DE00B86002400700000000000000362F000024
:1028EE000000000000000000000000000064024034
:1028FE0010640240000000000000000000380000DC
:10290E000000000000000000000000000064024013
:10291E00286402400100000000000000063900009B
:10292E0000000000000000000000000000640240F3
:10293E00406402400200000000000000103A000057
:10294E0000000000000000000000000000640240D3
:10295E00586402400300000000000000163B000017
:10296E0000000000000000000000000000640240B3
:10297E00706402400400000000000000203C0000D3
:10298E000000000000000000000000000064024093
:10299E00886402400500000000000000264400008C
:1029AE000000000000000000000000000064024073
:1029BE00A064024006000000000000003045000048
:1029CE000000000000000000000000000064024053
:1029DE00B864024007000000000000003646000008
:1029EE0000000000000000000000000001000000D8
:1029FE00FFFF0000FFFFFFFF1F852B3F0000803F02
:102A0E000000000000000000000000000000803FF9
:102A1E000000000000000000000000000000803FE9
:102A2E000000000000000000000000000000803FD9
:102A3E002422002000000000000000000000000022
:102A4E000000000000000000000000000000000078
:102A5E000000000000000000000000000000000068
:102A6E000000000000000000000000000000000058
:102A7E000000000000000000000000000000000048
:102A8E000000000000000000000000000000000038
:082A9E0000000000010000002F
:1080000003680A7A591C01601A7070470C4B1B7880
:10801000DB0700D570470B4A1368002BFAD04FF4EA
:108020007A7101FB03F39842F4D3074B1B781BB919
:10803000064B99681B690B6000231360704700BFF3
:10804000F4720020083B0020FC3A00200438002095
:10805000F8B5322204460021023046F0E1F80C4F18
:1080600000222346052104251046D65D9E7001326C
:10807000062AD9701D719871597103F10803F4D162
:1080800001232380522384F8323064232386F8BDF1
:10809000B4F0040830B484B0002340F2012540F26B
:1080A000034440F2056140F60822ADF804300B238A
:1080B000ADF80650ADF80840ADF80A10ADF80C2048
:1080C0008DF80E3088B10A28034615D804AA134447
:1080D0000B4A13F80C1C128801238B40134214BF67
:1080E0000120002004B030BC7047064B187800F027
:1080F000010004B030BC704704B030BC40F036BB67
:10810000F0400020F472002038B5084D002415F826
:10811000013BFF2B184605D0FFF7BCFF0146204668
:1081200027F050FB0134042CF1D138BD9894002085
:108130002DE9F84F4F014FF0000B184E8246914643
:1081400007F120085D4605E001350BF1010BBBF19D
:10815000290F1ED0594630465FFA8BF428F034FEC2
:108160000028F2D0AF42EFD8A845EDD900220C4844
:10817000114604E0013129290DD010F80C2FA2423C
:10818000F8D1074B01EB410103EB81015046C84791
:10819000DAE7BDE8F88F0021F8E700BF8822002069
:1081A000FCE2040810B5044649682BF07FF8236808
:1081B0003B22591C21601A7010BD00BF08B540F069
:1081C000FFFC074B1B7A012B07D004D3022B01D1F4
:1081D0002CF060F9FEE723F049F922F0A9F800BF7E
:1081E00088220020014B1B7813B17047684400209F
:1081F000C44B1B685B05F8D52DE9F04F2DED028BC4
:10820000C14B1B7899B005460BB90CF061FDBF4B13
:108210001B78012B00F07382BD4B1B78002B39D0EB
:10822000BC4CBD4AD4F83031EB1A934200F2C882FC
:10823000DFF83C9399F80070002F00F0C683B74E2A
:1082400037683FB3D4F8403140F6B732EB1A934267
:1082500020D994F83C31002B00F0FA8694F845219F
:10826000AF4994F844C10868013BDBB2013284F89D
:108270003C31D2B2002B00F0E08617F8011B84F8E5
:10828000452101EB0C03376084F8443127F022F8D4
:10829000C4F8405126F0CEFCA24B93F8008000F5C4
:1082A0007A70B8F1010F109000F0F1819E4B1B78AD
:1082B000002B00F0C6809D4F3B68002B00F0C18072
:1082C0009B4B944CD3F80080D4F84C31A8EB0303BB
:1082D000632B40F2B680DFF89C92964EDFF898A2AE
:1082E00041201BF073F9B9F9023086FB0320DB173C
:1082F000C3EBA00080B21BF04DF9B9F9003086FB4A
:108300000320DB17C3EBA00080B21BF043F9B9F9DF
:10831000043086FB0320DB17C3EBA00080B21BF008
:1083200039F99AF80010386826F0D4FF94F85061B3
:1083300016F0010B00F0A486DFF84092D9F8003067
:10834000980670D57C4B7D4E1B78990742F12B82A5
:10835000B37C042B8CBF03230223029347201BF022
:1083600035F930681BF0E2F870681BF0DFF8744AEA
:10837000B3893868A2FB0323C3F3471B594626F091
:10838000A9FF9AF80010D9F800208BEA010312F037
:10839000140F8AF8003002F0AD826A4B18681BF0A7
:1083A000C5F8029BB67C386843EA8606F6B23146C9
:1083B00026F090FF9AF8003038685E4031468AF81F
:1083C000006026F087FF94F8506166BBDFF8B0913B
:1083D0004F201BF0FBF8D9F800001BF0A7F8D9F8E4
:1083E00004001BF0A3F830461BF0A0F80121386808
:1083F00026F070FF504A9AF800301678386806F078
:108400000106314683F001038AF8003026F062FF4E
:108410009AF8003038685E4031468AF8006026F0ED
:1084200059FF94F85061484AC4F84C81731CDBB280
:10843000A2FB0312D20802EB8202A3EB420384F8F0
:108440005031424F97F80080B8F1020F00F08E8350
:108450003F4CA378032B00F09D833E4B1B78002BF1
:108460003CD03D4F3B68CBB32A4C26F0E3FBD4F81D
:108470005831029044F61F62C31A93422ED994F8E1
:108480005E31002B01F0CA83013B84F85E3194F821
:108490005F61002E01F09E82013E84F85F6194F8D6
:1084A0006231002B00F07687013B84F8623194F84A
:1084B00066C1BCF1000F00F070860CF1FF3C84F83F
:1084C00066C194F86791B9F1000F01F0A58409F134
:1084D000FF3984F86791029BC4F858311F4B1B7811
:1084E000002B40F0D6821E4E3378002B00F089809E
:1084F0001C4B1B78002B56D0064F1B4C1B4D07F511
:1085000030763FE094950020A12F00201D470020E9
:108510002A470020882200203F0D030094460020B7
:108520008C4600202B470020384700206046002062
:108530003884002067666666883F0020743F00200C
:108540001F85EB516C460020CDCCCCCCB72E002043
:10855000000000204047002044470020B44700208E
:10856000C52C00204A4700205047002054470020D7
:1085700098460020F440002064460020643D00201E
:10858000E4410020206826F0A1FE60B1206826F0BA
:1085900095FE2B7880465BB1013B20682B7026F05E
:1085A00095FE0028F2D119B0BDEC028BBDE8F08F2A
:1085B00072490322304645F01AFE97F8C01287F838
:1085C000C382023911F0FF0100F08D82314432463E
:1085D0004FF6FF7312F8010B1B1A91429BB2F9D1AF
:1085E0001A0A1FFA88F89045CCD197F8C222DBB25C
:1085F0009A42C7D162481AF04DFD2B781844287072
:10860000C0E7604C94F8A532012B40F2148294F834
:10861000A6125D485D4A4F1C194400EB8101A2FB84
:1086200007C25B48D1F890920178520802EB4202EF
:10863000BA1A84F8A62229B15649574A09689142C4
:1086400000F0FF81B9F1000F16D0544F11970DF1D2
:108650006008A7F1120A48F820AD48F2A5021523D8
:1086600029464046A4F8A82284F8AA32C847002820
:1086700040F0408494F8A532444A0133A2FB03122F
:10868000520802EB42029B1A84F8A53230E7444FAD
:10869000386800283FF40AAE4FF000098DF8389092
:1086A00026F014FE30B33F4E364C386826F006FEF6
:1086B00083B27E2B00F0728472783968002A40F011
:1086C000618394F847C1BCF1000F00F0BD811B2B02
:1086D00084F8472140F05D83084626F0F7FD002826
:1086E00000F04F85386886F8018026F0EFFD0028FD
:1086F000DBD1002010AA0EA91AF082FFD6E52A4B82
:108700001B68002B3FF488AD1E4C284AD4F8243156
:10871000EB1A93427FF780ADDFF8A09094F82831F0
:10872000D9F80020C4F824510133910784F8283186
:1087300001F1A68612F0140F41F079861C4B1D49F9
:10874000B3F9043081FB0321DB17C3EBA10109B2AC
:1087500014201BF085FC00211C201BF081FC94F8E8
:10876000283113F0070601F0BB85282B01F0D487D0
:10877000114B5E201B6898474EE500BF492500203D
:108780004825002088220020FCE20408ABAAAAAAFF
:108790005F560020FC2F00203C3C00204525002097
:1087A0008046002000000020EC40002047E8010047
:1087B000F440002067666666D03D0020643D0020DE
:1087C000CB4FCC4ACC4BD4F8341138681B8892F884
:1087D00009E0CA4A401A4FF47A71DEB201FB0EF189
:1087E0001B0A9677167588424FF00006D3775375AB
:1087F0009670167180F01284C14BC2481B68DFF876
:108800004CC3C14E0168DFF848E380689EF800E081
:108810008CFB0387DB17C3EB671303F5FA7386FB47
:108820000179C91786FB00689FB2C1EBA901C01787
:10883000B64E9776C0EBA8003F0AB54B11770912E8
:10884000D7765177071296F812B082F82000782177
:1088500047F230501EF0020F82F8217083F81AB0F0
:10886000508482F8241000F04283D6F80080A94991
:10887000D6F804E0A84ADFF8DCA281FB08704FEAD2
:10888000E87781FB0E91C7EBA0574FEAEE70C0EB83
:10889000A15002FB078102FB00E202EB4202520000
:1088A00001EB4101029249008AFB0129029A8AFBED
:1088B000022A4FEAAA4200EB8000B6F80CA03689E3
:1088C000059200EB80000690029AACFB060607EBCF
:1088D000870707EB870776090497C817D7174FEA6A
:1088E000A94906F5FA724FEAD878039283F809800D
:1088F0008A4AA9EB0008404602FB1010164604996C
:10890000059A4FFA88F808EB8108D11B3246029E7F
:108910000F4602FB1161069A039E5E757FB207EB5C
:108920008207BBF1050F8CFB0029DFF82CB28CFB12
:10893000012C0AEBCA0A7A4A4FEADE7E4FEA8A0A1B
:1089400083F80EE01FFA88F8A2FB0AE2BFB2BBF878
:1089500000E0DFF808A283F80A804FEAE0704FEAEF
:10896000E171C0EB6910C1EB6C114FEA17294FEAB6
:10897000182B4FEA9212BAF800C083F8109083F8CF
:108980000BB0DF734FEA16264FEA202A4FEA212860
:108990004FEA122B4FEA1E2734BF4FF032094FF037
:1089A0003309187383F80DA0597483F812809E75EB
:1089B000DA7183F808B083F813E01F7583F81B9011
:1089C00083F81CC0C4F8305132E4DFF89481D8F841
:1089D000000026F07BFCC0B201280ED90228514EBF
:1089E00040F0B3833378002B41F07285D4F83831EE
:1089F000EB1AB3F57A6F81F0DE864B4E3768002FA5
:108A00003FF448AC99F80030002B7FF41BAC474B87
:108A1000D8F800001B689B781E3B012B41F2538560
:108A2000343002211BF0CAFA0122002389F8002009
:108A300084F844312CE43E4A02EB8302D2F890924F
:108A400000E6DFF8209100E67D2B01F0468594F8E2
:108A50004A2122B180F02003DBB284F84AC1B4F885
:108A6000482194F846C11A44BCF1060F92B22BD8A3
:108A700004EB0C0E08460CF1010CA4F848218EF80A
:108A80000C3084F846C126F021FC00287FF40DAE9E
:108A90002FE6284C227832B1274B2849186826F057
:108AA000E5FB00232370264F3C78002C00F08280E9
:108AB000DFF8B4A0DAF86060002E40F07F82214B2E
:108AC0003E70C3F8A0520EE5D3B203EB1222FF2A88
:108AD00086F80180A4F8482140F05481084626F029
:108AE000F5FB194806E6FF224FF6FF7379E500BF54
:108AF00038840020B43D0020B4A400205847002052
:108B00006C460020BCA4002067666666743F0020A7
:108B1000844700206BCA5F6B806967FF40420F008B
:108B2000D34D6210000000209446002090460020A3
:108B3000FCE204081C470020B0470020DC4600206F
:108B4000B647002088220020942200201F85EB5188
:108B5000883F002083DE1B437C4600203C550020DC
:108B60008C46002005160208D047002026F062F847
:108B7000934B1B68C01A40F6B833984200F2158137
:108B8000DFF870A29AF804303A2B01F0B084002389
:108B90003B7062E48B4E306826F08CFB00283FF47B
:108BA0005CAC3068012126F081FB02220023A27018
:108BB0003B7052E4844E3278002A40F02181834F8A
:108BC00097F82B41002C40F0C582814B814A1B68ED
:108BD00012689A422DD897F82031002B41F06D850C
:108BE00097F82131002B41F0748797F82231002B40
:108BF00041F0A68797F82331002B41F09F8797F823
:108C00002431002B41F0A08797F82531002B41F04B
:108C1000998797F82631002B41F09C8797F82731E8
:108C2000002B41F0498597F828310824002B41F0AA
:108C30004485694C694FD4F8A0223978684B93FB7E
:108C4000F1F313449D42FFF44EAC664A94F8A4320B
:108C5000C4F8A052D65CF10745D5DFF89C919FED92
:108C6000628AB9F9023007EE903AF8EEE77A5F4B84
:108C7000119367EE887A0DF16008FDEEE77AA3F1B3
:108C80003D0248F8202D17EE902A91B240F6C80216
:108C900023F8402C1E2203F83E2C40462AF038FBD5
:108CA000B9F9003007EE903AF8EEE77A404667EE01
:108CB000887AFDEEE77A17EE903A99B22AF028FB0F
:108CC000B9F9043007EE903AF8EEE77A404667EEDD
:108CD000887AFDEEE77A17EE903A99B22AF018FBFF
:108CE00040461BF021FAB2073AD5404B404ADFF824
:108CF0000C91118811930DF16008A3F13D0248F821
:108D0000202D40F6C82C082223F840CC03F83E2C36
:108D100040462AF0FDFA0A22D9F8003093FBF2F31C
:108D2000404699B22AF0F4FA10F036FAD9F80890D1
:108D3000109B4FEA1942591C10911A70109B4FEA70
:108D40001922591C10911A70109B5A1C109283F80A
:108D50000090109B5A1C1092187040461BF0E4F9CA
:108D6000730701F17C86300701F1348694F8A43250
:108D70003978013393FBF1F201FB123384F8A4320A
:108D8000FFF7B1BB084626F0A1FA00287FF48DACAE
:108D9000AFE40D2B7FF4A6AC0846A4F8482126F0DA
:108DA00095FA00287FF481ACA3E40B4AB2F8523163
:108DB00000210133A2F852313970FFF74EBB00BFDA
:108DC000BC2E0020D4330020B5470020B83F00203F
:108DD000388400206456002088220020CC470020E0
:108DE000A0860100C847002058A08B41DC46002027
:108DF000B4A400207C2E0020F4400020BCA400205D
:108E0000954F964B0093A7F13F014FF0C808CDE96D
:108E10000E1707F8408C924B924A934910A828F0FD
:108E200077FF0E9F7B1C0E933C700E9B2922591CD2
:108E30000E911A700E9BEA22591C0E911A700E9B0D
:108E40005A1C0E9210A883F8008041F07BFF00F1BD
:108E5000010810A942460E9842F0B0FE0E9A02EBAD
:108E6000080301330E9302F808400E9B5A1C0E9221
:108E70001C700E9B5A1C0E921C700E9B5A1C0E925C
:108E80001C700E9B5A1C0E921C700E9B5A1C0E924C
:108E90001C700E9B5A1C0E921C700E9B5A1C0E923C
:108EA0001C700E9B5A1C0E921C700E9B5A1C0E922C
:108EB0001C700E9B5A1C0E921C700E9B5A1C0E921C
:108EC0001C700E9B5A1C0E921C700E9B012299184E
:108ED00018A80E911A7050F8283DDB1B3B701BF050
:108EE00023F9624B3470C3F8A052FFF7FCBA2D226D
:108EF000DA7667E5109B534541F29584A7F113009C
:108F000000215F1E41F2210510F8012F81EA0222A3
:108F100012B293B2002AACBF5B0085EA43039BB256
:108F20001A0454BF5B0085EA43039BB2190454BF83
:108F30005B0085EA43039BB21A0454BF5B0085EAD9
:108F400043039BB2190454BF5B0085EA43039BB201
:108F50001A0454BF5B0085EA43039BB2190454BF53
:108F60005B0085EA43039BB21A0454BF5B0085EAA9
:108F70004303874299B2C7D140462AF0EFF93C49F2
:108F8000109D3C486D1A152DA8BF15252A4642F0A4
:108F900015FE94F8A5323570FFF76EBB38688DF872
:108FA000389084F8469184F8478186F8019026F03D
:108FB0008DF900287FF479ABFFF79BBB0024DFF825
:108FC000BC9026464FF050080BE01C44EFF3118391
:108FD00088F31288DAF86020944218DADBB283F35F
:108FE00011881AF804B0601C5946504400221AF047
:108FF00097F90BF101030028E7D049463A201AF00F
:10900000F1F80BF1010B0643F6B25C44DEE70022F7
:10901000DBB2CAF8602083F3118850E5164B39683B
:109020001B78C4F83411013B012B3FF6E5AB10214E
:10903000022391701371FFF7DFBB0CF1010361464E
:1090400084F8452184F8443126F044F9FFF720B92B
:109050001AF0EAFFFFF71CB9DC4600208B940020D1
:10906000AC220508B4220508C42205088822002085
:1090700030250020B02C0020D9A400205D4102083A
:10908000B64B1B88DA0515D4DE0601F190839806ED
:1090900001F13884590601F11E851A0701F15F8537
:1090A000DE0701F1538613F0020F0CBF4FF0040BE3
:1090B0004FF00C0BAA4AAB4B92F80090DB7809F00A
:1090C00001090BB149F0020953201AF07FFAA64BAF
:1090D0001B8803EB830303EB8303980080B21AF031
:1090E00059FA00201AF056FA0DF0E4FA9F4BC0EB43
:1090F000002083FB00231A18C317C3EB6223FF2B46
:10910000A8BFFF23DEB23146386826F0E3F89AF8AC
:109110000030386873404BEA090900218AF80030B2
:1091200026F0D8F84946386826F0D4F89AF8003086
:10913000386889EA0303DBB219468AF8003026F062
:10914000C9F894F85061FFF740B91AF05DFF0123A8
:10915000337052E48649874C41F8404C18A8A1F17D
:109160003A0340F8203D4FF4327321F83C3C87F835
:109170002B2111911AF0D8FF7F4BC3F8A052FFF7B3
:10918000B2B938688DF8388086F8018026F09EF8EC
:1091900000287FF48AAAFFF7ACBA784B94F86EE106
:1091A000B3F90210B3F90020B3F904309FED746AEB
:1091B00084F819C007EE103A724B84F818E01B6867
:1091C00010938EF06A0383EA031306EE902ADAB254
:1091D000130983F0D50343EA022383EAC2031BB2D7
:1091E00083EA031AC3F307264B425FFA8AFA07EEB3
:1091F000903A86EA1A1646EA0A26F8EEE77AF8EE78
:10920000E66AB8EEC77A86EACA060FFA86FA67EE09
:10921000867A66EE866A27EE067A00208AF0C8060D
:10922000CDED127ACDED116A8DED137A1490159073
:10923000169086EA06180DF14009B9E80F005FFAAA
:1092400088F8CAF3072686EA181646EA082686EA48
:10925000C806DFF8348136B2A8E80F0086F01E0C8D
:1092600099E807008CEA0C1A5FFA8AFAC6F3072C11
:109270008CEA1A1C4CEA0A2C88E807000EF101035C
:1092800041F6FE418CEACA0CA8F110064FF0050920
:109290004FF01E0EC822E18284F8669184F81BE02C
:1092A000A27606F11C0184F86E31A4F814C016F8F9
:1092B000013B83EA0C0383EA0313DBB21A0982EA57
:1092C0001C2242EA032282EAC3031BB21FFA83FC78
:1092D0008E42A4F814C0EAD183F0270383EA031373
:1092E000DBB24FEA1C2282EA131282EA032282EAEC
:1092F000C3031BB29AB24FEA122EDEB2DFF88CA083
:10930000A28284F839E084F8386004F1160904F187
:109310003608D9F80000D9F80410D9F80820D9F88F
:109320000C30D446ACE80F0009F11009C145E24603
:10933000EFD1DFF85C80B9F80030ACF8003008F10C
:10934000240984F8BA6184F8BBE118F8011F386871
:1093500025F0C0FFC145F8D1FFF7B3B8F0400020B9
:10936000F47200208C3F0020B4A400200308208069
:10937000DC460020C8057DEA88220020F440002059
:1093800088C3E43A38840020A4220020202400204E
:109390001F240020DFF89093D9F800301922990695
:1093A00084F862217FF583A8D74BD84E1B789A07A3
:1093B00041F18F82B37C042B8CBF4FF003084FF038
:1093C000020825F037FCF389B168109003EB8303A2
:1093D0005B00ADF85A304FF47A7033688DF85C80DA
:1093E0001293B6F80CE0B27C7368ADF858E000FB5D
:1093F00001F14FF0000C4FF0FF300DF14008CDF8B7
:1094000044C0149113938DF85D201590C246BAE8BC
:109410000F00DFF810E3AEE80F009AE80F00AEE8A7
:1094200007007146182221F81C39039194F86E1137
:10943000E27681F0780383EA0313DAB2130983F04A
:10944000F60343EA022383EAC2031BB283EA031250
:10945000D2B2C3F3072383EA121343EA022383EA57
:10946000C2031BB283F0C80282EA0212D2B2C3F373
:10947000072383EA121343EA022383EAC2031BB2DF
:1094800084F819C083F0180C8CEA0C1C5FFA8CFC71
:10949000C3F30722481C82EA1C1242EA0C2284F819
:1094A0006E010398217682EACC0CC82341F6FE6255
:1094B0000146A4F814C01E30E282A37611F8013BE5
:1094C00083EA0C0383EA0313DBB21A0982EA1C2243
:1094D00042EA032282EAC3031BB21FFA83FC8142E1
:1094E000A4F814C0EAD183F0180383EA0313DBB2B3
:1094F0004FEA1C2282EA131282EA032282EAC303A1
:109500001BB29AB28249A282DBB2120A049106927D
:10951000059384F83B2084F83A308A4604F1160C0F
:1095200004F1360BDCF80000DCF80410DCF808204D
:10953000DCF80C30D646AEE80F000CF1100CDC4520
:10954000F246EFD1DCF80000CEF80000059BDFF812
:10955000DCB184F8BC31069B84F8BD31DA461AF8D8
:10956000011F386825F0B6FE6A4B5345F7D125F048
:1095700061FBD9F80030B268D6E9001C13F0140F73
:109580004FF47A7606FB02F601F0EA81624B1B6823
:1095900003EB83034FEA430E94F86EA110908AF018
:1095A0006A0383EA0313DBB2180980F0D50040EAAE
:1095B000032080EAC303594A11911BB2B2F9042077
:1095C0005748CDF850E083EA0311C9B2C3F307232B
:1095D00080FB029083EA1113D217CDE912C6C2EBC9
:1095E000A00243EA0123ADF85A2083EAC103002216
:1095F0001592ADF858201EB2C446BCE80F0086F0A4
:10960000C80989EA09195FFA89F9C6F30726DDF85E
:109610000CE084F818A086EA191646EA0926AEE896
:109620000F0086EAC9069CE8070033B283F02106E2
:1096300086EA0616F6B2C3F307238EE8070083EA2C
:1096400016130AF1010143EA0623364A84F86E1123
:109650004FF0000033490392607683EAC60621206A
:1096600041F6FE42C823A6828C46E076E2821C3197
:10967000A3761CF8013B734083EA0313DBB21A099B
:1096800082EA162242EA032282EAC3031BB29EB296
:109690008C45A682EDD183F0680383EA0313DBB225
:1096A000360A86EA131A8AEA032A8AEAC30A0FFAF2
:1096B0008AFA1FFA8AF34FEA13295FFA8AFAA38219
:1096C000DFF84CE084F8399004F1360384F838A0D0
:1096D00004F116060593F36830687168B268F446C1
:1096E000ACE80F00059B10369E42E646F3D1338866
:1096F000ACF80030049B84F8BB9103F1230684F896
:10970000BAA1D94614E000BF883F0020743F002072
:1097100020240020452400206C460020F440002036
:1097200067666666A4220020643D00201F24002096
:1097300019F8011F386825F0CDFD4E45F8D1A34A30
:1097400094F86EE1A24E84F818E0D2E90023119358
:109750008EF0EB0383EA0313D9B20B0983F0C50340
:1097600043EA012383EAC1031BB283EA0311C9B2AE
:10977000C3F3072383EA111343EA012383EAC103F6
:109780001BB283F0C80C8CEA0C1C5FFA8CFC4FF007
:109790000009C3F30723CDF8489083EA1C13109205
:1097A00098E8070043EA0C2383EACC030FFA83F816
:1097B000039B84F8199088F0310C83E807008CEA49
:1097C0000C1C5FFA8CFCC8F3072383EA1C1343EAE2
:1097D0000C2383EACC0394F81CC0607FA17FE27F56
:1097E0001BB28CEA030C8CEA0C1C5FFA8CFCC3F3F2
:1097F000072383EA1C1343EA0C2383EACC030FFA02
:1098000083FC80EA0C0383EA0310C0B2CCF3072385
:1098100083EA101343EA002383EAC0031BB25940D2
:1098200081EA0111C9B2C3F3072383EA111343EAA2
:10983000012383EAC1031BB25A4082EA0212D2B268
:10984000C3F3072383EA121343EA022383EAC20322
:1098500094F820C094F8210094F8221094F8232062
:109860001BB28CEA030C8CEA0C1C5FFA8CFCC3F371
:10987000072383EA1C1343EA0C2383EACC031BB2BD
:10988000584080EA0010C0B2C3F3072383EA1013E4
:1098900043EA002383EAC0031BB2594081EA011165
:1098A000C9B2C3F3072383EA111343EA012383EA0E
:1098B000C1031BB25A4082EA0212D2B2C3F3072399
:1098C00083EA121343EA022383EAC20394F824C012
:1098D00094F8250094F8261094F827201BB28CEAFF
:1098E000030C8CEA0C1C5FFA8CFCC3F3072383EA9D
:1098F0001C1343EA0C2383EACC031BB2584080EAD2
:109900000010C0B2C3F3072383EA101343EA002315
:1099100083EAC0031BB2594081EA0111C9B2C3F303
:10992000072383EA111343EA012383EAC1031BB22D
:109930005A4082EA0212D2B2C3F3072383EA121317
:1099400043EA022383EAC2031BB283F0270C8CEAAA
:109950000C12D2B2C3F3072C8CEA121C4CEA022C74
:109960008CEAC20C0FFA8CFC1FFA8CF34FEA132915
:109970000EF1010E5FFA8CFC312040F6FE41C82248
:1099800084F86EE1A382E076E18284F828C0A276B2
:1099900084F829903068F3687168B268B6F810E00E
:1099A00006F5C1760FC6049BA6F800E003F1130884
:1099B00084F8AAC184F8AB911BF8011F386825F020
:1099C00089FCD845F8D1FEF772BD00BFE441002004
:1099D0009E2200208B4A8C4B1178D3F800900A23EA
:1099E00084F85F31002900F0BE86884B01291A886F
:1099F000079241F2C2815A880492022900F0A78797
:109A00009A880592032901F0CC81DA88039204290F
:109A100001F0C28105291A8901F0A2810629B3F853
:109A20000AB001F09A810729B3F80C8000D0DE89D2
:109A300006920CF03FFE94F86EC1DFF8D4E1CDF849
:109A400040908CF0300383EA0313DBB2C0EB0020BC
:109A500019098EFB002E81F07A01079A84F818C04C
:109A600041EA03214FF0000981EAC30362F30F09C1
:109A7000059A0FFA83FA8644C3170020C3EB6E23BE
:109A800062F30F00069AFF2B4FF0000162F30F0103
:109A9000A8BFFF23002268F30F029846049B8DF8AD
:109AA000558063F31F49039B66F31F4263F31F4016
:109AB0006BF31F41CDE91190CDE913128AEA0A1E1A
:109AC0005FFA8EFE0026CAF3072A8AEA1E1A8DF86C
:109AD00054600DF14009B9E80F004AEA0E2888EAFF
:109AE000CE0E0FFA8EFE8EF0C80ADFF82881667659
:109AF0008AEA0A1AA8E80F005FFA8AFACEF3072E5C
:109B00008EEA1A1399E8030043EA0A2383EACA0398
:109B10001BB248F8040B83F0230E8EEA0E1E5FFA88
:109B20008EFE4046C3F3072282EA1E1242EA0E224C
:109B300020F8141982EACE0E0CF1010C4FF0230824
:109B400041F2FE62C82384F86EC1A4F814E084F8E0
:109B50001B80E28200F11601A37610F8013B83EA34
:109B60000E0383EA0313DBB21A0982EA1E2242EAD9
:109B7000032282EAC3031BB21FFA83FE8842A4F8C1
:109B800014E0EAD183F0F40383EA0313DBB24FEA73
:109B90001E2686EA131686EA032686EAC306A6462A
:109BA00036B21FFA86F85EF8160FDFF86CC0A4F81C
:109BB00014804FEA182AF6B284F8326084F833A091
:109BC000DEF80410DEF80820DEF80C30ACE80F00F8
:109BD000DEF81000DEF81410DEF8182004F29718F2
:109BE000ACE8070004F2B51984F8B5A184F8B461B3
:109BF00018F8011F386825F06DFBC145F8D1FEF754
:109C00004EBC00BFDC2D0020388400206EA6002052
:109C100003082080A422002020240020794B1B6808
:109C200003F00802002A4AF60B4048F6034149F6C1
:109C300007484BF60F4204BF8846024613F0040F54
:109C400018BF90469806704B1B7848BF48F4804870
:109C50004FF0190148BF48F02008022B84F85E112C
:109C600040F2CB8564204FF0FF3B4FF0000A94F8A0
:109C70006EC1CDF840808CF0F10383EA0313DBB2B0
:109C80001E0986F0E706C8F3090246EA0326CDE975
:109C9000118286EAC3064FF0000936B2ADF84EA035
:109CA000ADF850B08DF85E00ADF84C90CDF8529004
:109CB000CDF85690CDF85A9086EA061E0DF1400870
:109CC000B8E80F005FFA8EFEC6F3072686EA1E1676
:109CD00046EA0E2686EACE06DFF834E184F81990CB
:109CE000AEE80F0098E80F0036B286F0C80888EAA0
:109CF00008185FFA88F8C6F30726AEE8070086EA78
:109D0000181646EA082181EAC80109B22EF8023B7A
:109D100081F0010686EA0616F6B2C1F30722714603
:109D200082EA16121B0C01F81E3942EA06224FF095
:109D3000010E82EAC60641F6FE70C8220CEB0E0345
:109D4000E08284F81BE0A27601F11F0084F818C0BD
:109D5000A68284F86E3111F8013B734083EA031345
:109D6000DBB21A0982EA162242EA032282EAC3031C
:109D70001BB29EB28142A682EDD183F07C0383EABE
:109D80000313DBB2320A82EA131282EA032282EA66
:109D9000C3031BB29AB24FEA122EDEB2DFF86CA0F8
:109DA000A28284F83CE084F83B6004F1160904F1D7
:109DB0003608D9F80000D9F80410D9F80820D9F8E5
:109DC0000C30D446ACE80F0009F11009C145E24659
:109DD000EFD1D9F80000CCF80000DFF8388099F80E
:109DE00004308CF8043008F1270984F8BD6184F848
:109DF000BEE118F8011F386825F06CFAC145F8D1AA
:109E0000FEF745BB643D0020D9A40020202400209B
:109E1000A42200201F240020944B1B68052203F07D
:109E200014019B0684F8672140F1A784904BDFED75
:109E3000917A9A8907EE102AB8EEC77A27EE277A28
:109E4000002900F05D868C4BDFED8A6AD3ED007A45
:109E5000F8EEE77A67EEA67A94F86EA1874B884A07
:109E6000B3F90410B2F90620864E87488DED117AB9
:109E70008AF0220383EA03135FFA83FC4FEA1C1380
:109E8000B2F5FA6F83F05903A8BF4FF4FA6243EAC0
:109E90000C2383EACC03B2F57A7F1BB2B8BF4FF430
:109EA0007A72A2F57A7E83EA031C64225FFA8CFC44
:109EB000C3F3072302FB0EF283EA1C1EA6FB023249
:109EC00080FB0130CB174FF0000B4EEA0C26C2F39B
:109ED0008F12C3EBA0030DF14008CDF840B0CDF8D0
:109EE0004CB0CDED127A86EACC06ADF85220ADF832
:109EF0005030C346BBE80F0036B286F0C80C8CEA7F
:109F00000C1C5FFA8CFCC6F30726DFF894E1DBF843
:109F100000B084F818A086EA1C16AEE80F0046EAE6
:109F20000C2686EACC031BB283F04A0686EA0611A9
:109F30007046C9B2C3F3072282EA111242EA012233
:109F400040F810B982EAC1060AF1010A4FF04A0E40
:109F500041F2FE4C0022C8230390014684F86EA112
:109F6000A682143084F81BE0A4F816C06276A376AB
:109F700011F8013B734083EA0313DBB21A0982EA4A
:109F8000162242EA032282EAC3031BB29EB2814236
:109F9000A682EDD183F0140383EA0313DBB2360A01
:109FA00086EA131686EA032686EAC306A24636B276
:109FB0001FFA86FC5AF8160F344B0493F6B24FEA98
:109FC0001C2E84F8306084F831E0DAF80410DAF8F6
:109FD0000820DAF80C30A4F814C0DFF8B0C0BAF8E2
:109FE00018B0ACE80F00DAF81000DAF81410ACE89A
:109FF000030004F2971AACF800B084F8B261D346BB
:10A0000084F8B3E104F2B3161BF8011F386825F099
:10A0100061F95E45F8D11E4B1E4A1B781278013B50
:10A0200012F00100DBB214BFC0224022172B03D86C
:10A0300019490B4493F87892184B19888E071ABF68
:10A04000002342F01002012311F0080F18BF022371
:10A0500011F0100F18BF062311F0200F18BF1023A6
:10A06000002840F0D98303211CE000BF643D00209C
:10A07000743F00200AD7233C6C460020F4400020A7
:10A080006EA60020D34D621067666666202400200D
:10A090000C320020F4720020FCE20408F0400020A2
:10A0A000A422002094F86E61109386F0460383EAA0
:10A0B0000313D8B2030983F0920343EA002383EA2F
:10A0C000C0031BB283EA0310C0B2C3F3072E8EEAAB
:10A0D000101E4EEA002E8EEAC00E0FFA8EFE8EF093
:10A0E000C80383EA03134FF0000CDBB20320CEF366
:10A0F000072E8DF844908DF845C08DF846208DF8D8
:10A1000047108DF848008EEA131E98E807004EEAC3
:10A11000032E8EEAC3031BB2DDF80CE084F81BC0EB
:10A1200083EA0318AEE803005FFA88F8C3F3072355
:10A1300083EA181343EA082383EAC80394F81C80CF
:10A14000607FA17F8EF800201BB288EA030888EAAE
:10A1500008185FFA88F8C3F3072383EA181343EA61
:10A16000082383EAC8031BB2584080EA0010C0B23B
:10A17000C3F3072383EA101343EA002383EAC003EF
:10A180001BB2594081EA0111C9B2C3F3072383EA24
:10A19000111343EA012383EAC10394F81FE094F802
:10A1A000208094F8210094F8221094F8232084F859
:10A1B00019C01BB28EEA030E8EEA0E1E5FFA8EFEE7
:10A1C000C3F3072383EA1E1343EA0E2383EACE0375
:10A1D0001BB288EA030E8EEA0E1E5FFA8EFEC3F3F0
:10A1E000072383EA1E1343EA0E2383EACE031BB23E
:10A1F000584080EA0010C0B2C3F3072383EA10136B
:10A2000043EA002383EAC0031BB2594081EA0111EB
:10A21000C9B2C3F3072383EA111343EA012383EA94
:10A22000C1031BB25A4082EA0212D2B2C3F307231F
:10A2300083EA121343EA022394F82480DFF864E4EB
:10A24000267683EAC2031BB288EA030282EA02127C
:10A25000D2B2C3F3072383EA121343EA022383EA49
:10A26000C2031BB283F0320282EA0212D2B2C3F3FB
:10A27000072383EA121343EA022383EAC2031BB2D1
:10A280009AB240F6FE10C8214FEA122CA176DBB23A
:10A290000136E082DEF8000084F86E6184F826C0A2
:10A2A00084F82530A282DEF80410DEF80820BEF81B
:10A2B0000C90049E0EF5C17EAEE8070010368EF8B5
:10A2C0000280AEF8009084F8A8C184F8A7311AF88B
:10A2D000011F386824F0FEFFB245F8D1FEF7FBB845
:10A2E000FF2018F05DFE002800F002830378FF2BAA
:10A2F00000F0068390F90110022019F0B1FEFF2052
:10A3000018F04EFE002800F005820378FF2B00F0C5
:10A310000182B0F90C30D249D24A897D03EB830324
:10A3200003EB830349089B0093FBF1F382FB0312C9
:10A33000D917C1EBA20109B2CB4E032019F090FE50
:10A340007379002B40F07282D9F800309A0640F100
:10A350001D82C64FC64E3B789B0700F1D782002175
:10A36000012019F07DFE0021092019F079FE318AC3
:10A3700094F82821B37CB1F5967F08D902F00F023A
:10A38000072A04D842F20F738B4228BF0B46DFF82E
:10A39000188398F80720CAB1203B07EE903A9FED4A
:10A3A000B57AF8EEE77AF6EE006A67EE877ABEEEE7
:10A3B000007AF5EEC07AF1EE10FA58BFB0EE667A88
:10A3C00077EE877AFDEEE77A17EE903A19B205201C
:10A3D00019F046FE3A7800239207CDE90E3300F1DA
:10A3E0007C8294F82C31012B00F07782B8F9003090
:10A3F000DFEDA16A07EE103AB8F9023007EE903AA5
:10A40000B8EEC77AF8EEE77A27EE267A67EEA67AF4
:10A41000BDEEC77AFDEEE77A10A88DED107ACDED8E
:10A42000117A19F035FE94F82831FEF79EB9002113
:10A43000302019F015FE94F8283113F003037EF450
:10A440007DA98E4AD4F824118D489142066840F2C5
:10A450008582002EB8BF764236B28A4BF71783FB4F
:10A460000623C7EB631739B2102019F0F9FD6421F8
:10A4700001FB176109B2212019F0F2FDFEF75EB968
:10A48000DFF828822427A8F12406B38AF8EC016AB1
:10A4900007EE103AB8EEC77A3846C6EE877A01372B
:10A4A000FFB2FDEEE77A17EE903AC3EB431103EBF0
:10A4B0008103D90009B219F0D3FD272FE5D1D9F8CE
:10A4C0000020FEF737B9022124F0F0FEFEF7ACBA07
:10A4D000C4F838513770FEF790BA084684F84A81BC
:10A4E00024F0F4FE00287EF4E0A8FEF702B99AF802
:10A4F000021050460DF0A0FA00287EF448AB624BE3
:10A50000186824F0E3FE00287DF4A2AF5E4B5F4E96
:10A5100018685F4C414624F0C9FE9AF80330039353
:10A5200096F8039094F8543102930423B370B9F170
:10A53000000F00F01C8396F80480564BDFF870A1E2
:10A5400008F101085FFA88F808EB480903EB89096C
:10A550005FFA88F3092B41465046337108F1010830
:10A5600000F2058426F030FC28B999F80830FF2B5A
:10A5700009F10C09ECD13279474B06924FF00C09E6
:10A5800009FB0239DFF81881D9F8F4110591084662
:10A5900040F0D8FBD9F8F83104935FFA80F91846F7
:10A5A00040F0D0FB5FFA80FB069A059909EB0B009F
:10A5B000083088F8070022F00F0088F80A0002F03F
:10A5C0000F020BEBC90088F80D2088F80E004A46F0
:10A5D00008F10F0041F0F2FA049B08F1060A09F1B4
:10A5E000090019465A46504441F0E8FA98F80730F5
:10A5F00003F1010EC3B1013B08F1070CDFF8B49081
:10A600005CFA83FC5046002310F8012F5A40930057
:10A61000D10883EA420301F01801534049FA01F2DC
:10A6200053408445DBB2EFD10EF80A30039832F084
:10A63000B5FFF378013BDBB2F37013B9174B1B780E
:10A640000293114B98F802201868154924F00EFE69
:10A650000323029A84F85421B3703B70FDF7FDBECA
:10A66000D896002067666666F4A30020883F002025
:10A67000743F0020E4380E3F0050C3473F4B4C006E
:10A680006C4600201F85EB51D433002000000020D1
:10A6900088220020F0E40408FCE204088846002038
:10A6A00050A500209E220020B43D00202C11001057
:10A6B000844600200007090E0724B54B97F82A218D
:10A6C00011930DF16008A3F13901A3F1400648F898
:10A6D000201DC821101D03F8401C4FF4E4734EF6F2
:10A6E0007D2170707180404602FB0471B380B471AB
:10A6F00028F0ECFD109B721C9B1A7370404619F0F9
:10A7000013FD3B19A34A002183F82011C2F8A0527F
:10A71000FDF7E9BE00210FE69F4AA04B1768A04E47
:10A72000A3FB07239B0BA6FB03214909C1EB0111E6
:10A73000A3EB8103190209B20023172084F8283102
:10A7400019F08EFC974BA3FB07239B09A6FB031272
:10A750005209C2EB0212A3EB820319B2182019F0BE
:10A760007FFCFEF705B888468B460A460391CDE983
:10A77000041107910E46FFF75BB99FED8B7A002914
:10A780007FF461ABF0EE477AFFF766BB1B077FF5FE
:10A790004AAE864B93E8030010AB83E803001846EB
:10A7A00019F076FC3FE601230293FDF7D7BD4FF089
:10A7B000340BFEF77FBC0123D8F80000337024F07F
:10A7C0007DFD0646D8F8000024F078FD77067EF47B
:10A7D00014A98A2800F083818E287EF40EA999F8A6
:10A7E0000030002B7DF42BAD714E724B33602D2366
:10A7F00084F83C313768FEF705B96F4A537992798E
:10A80000002B40F0B080002A40F0BF8292466420C6
:10A810004FF0FF3BFFF72BBA6849C97800290CBFFE
:10A82000042105213EE40021FEF7A6BBDFF8A0814C
:10A8300098F80030002B40F06981614F19461A46A4
:10A840000620A4F82A2119F00BFC5E4AB4F82A016C
:10A8500092F808C0398898F80030D27A0130BCF1FB
:10A86000010FA4F82A0100F02B8101EB81018FB2C6
:10A8700012B10BB197FBF3F74FF0640A3A20B7FB24
:10A88000FAF80FFA88F119F0EBFB0AFB187189B29C
:10A8900005310A233B2091FBF3F109B219F0E0FBEB
:10A8A000B379002B3FF450AD474F0A223B6893FB2E
:10A8B000F2F3282019B219F0D3FB3389002B40F0B2
:10A8C0004581B96881F3100109B2042019F0C8FB71
:10A8D0003AE54FF00108FEF774BDD6E900230121E7
:10A8E0000EA884F82C11CDE90E2319F0D1FB9AE5BE
:10A8F000014601E5B368642000FB03F0FDF74FBD9E
:10A900003146F9E44FF0240BFEF7D4BBB1892F4B4D
:10A910004FF4F368112008FB01F191FBF3F109B248
:10A9200019F09EFBB389642108FB03F393FBF1F359
:10A9300093FBF1F201FB123109B2192019F090FBDF
:10A940003B78B16898077FF50AAD09B208E5B046D3
:10A95000B346324603960596FFF76AB81E467CE575
:10A96000B646FEF719BE164B1B8803EB830303EBB9
:10A9700083034FEA830A1FFA8AFA002A00F0F4815F
:10A98000114BB3F900B00EF007FC40B2FFF76FB9FE
:10A99000DC460020882200203884002073B2E7457E
:10A9A00089888888D34D621000000000E8E404081C
:10A9B0009446002058470020F4A300208C3F00203C
:10A9C000B4A40020B43D0020BCA40020A086010057
:10A9D000D8A40020AE4BAF4E11930DF16008A3F147
:10A9E0003D0248F8202D41F2C811022203F83E2C06
:10A9F00023F8401C4046316828F072FC40467168DC
:10AA000028F06EFCB389242101FB03F140460A23A0
:10AA1000053191FBF3F189B228F07AFCF38903EB5D
:10AA20008303590089B2404628F072FC9A4B1B7888
:10AA3000990740F19180B368642193FBF1F101F52E
:10AA40007A7189B2404628F063FC109BB27C591C95
:10AA5000109140461A7019F067FBFEF787B98C4BCE
:10AA60001193A3F140082122C820A3F13D0123F84E
:10AA7000400C88F8022010913EF020F8874B88495E
:10AA8000884A1B88002808BF114658056BD4DA078E
:10AA90006BD4854A13F0020F18BF114610A828F096
:10AAA00005FC109B814A591C109100211970109BC4
:10AAB0009B1A10A888F8013019F036FBFEF753B93D
:10AAC00012B10BB191FBF3F109B2392019F0C8FAB8
:10AAD000E6E60124F1E54FF0100BFEF7EBBA744BFC
:10AAE0001B689E067DF589AF99F80030002B7DF438
:10AAF000A6AB704E704B33602D2384F83C3179E661
:10AB0000D3ED027AF8EEE77AFFF7A6B96B4FB4F807
:10AB10002A01398890FBF3F24FF0640C03FB120218
:10AB20000CFB013192B25B00B1FBF3F10B0243EA83
:10AB30000213C1F303210B4319B281E60324BCE5E0
:10AB40000224BAE50524B8E50424B6E50EF024FB9A
:10AB500001B2BAE60624B0E54FF47A7172E74FF01D
:10AB6000200BFEF7A7BA564998E7564996E7534B8C
:10AB7000554A588853680493544B92680A92B3F923
:10AB8000042053490892B3F902200792B3F9002038
:10AB900006920A680299DFF848810B9001F0F003F1
:10ABA000844603F110010498DDF808B0099288F892
:10ABB0000A30484ACBB20CFB00FC08F10D0A6420B5
:10ABC00005939CFBF0F00C905846059B83424ED9B0
:10ABD0000C2303FB0021431E91F8FCC14CEA001139
:10ABE0008AF800100AF10101082B00F2B380DFE8B7
:10ABF00003F0A7ABA9A5A3A19F9D05000023944442
:10AC00009CF86CC2BCF1010F10D9ACF1020C5FFAD8
:10AC10008CFC0CF1020EF2448E460EF8013BD64538
:10AC20004FEA1323F9D10CF1010C61444FF00C0BE6
:10AC30000BFB002C23F060039CF8FDC10D9243EA4E
:10AC40000C030B7001F1010A19F09EF9224BAAEBDB
:10AC50000301029B83420AD20D9A0BFB002393F857
:10AC6000FC31134493F86C320B44122BADDD1A4BBC
:10AC7000AAEB03020632D2B242F04003834688F8C0
:10AC8000073002F1010EDFF85CA01448002140E01B
:10AC9000DC460020743F0020883F0020F040002068
:10ACA0009822050890220508A82205089D46002044
:10ACB000643D00209446002084470020B4A4002076
:10ACC0009C220508A0220508BCA40020F440002016
:10ACD0006C460020FCE204085DA500200007090E78
:10ACE00050A5002056A500209CF807C089EA0C0C4E
:10ACF0004FEA8C094FEADC0389EA4C0903F0180398
:10AD000089EA0C0940FA03F389EA030901315FFA81
:10AD100089F9CBB29A4208EB010CE5D803980EF8FA
:10AD20000A9032F03BFCCDF808B08AE4089B66E755
:10AD3000079B64E7069B62E70C9B60E70A9B5EE764
:10AD40000B9B5CE7099B5AE7049B58E74FF0080B05
:10AD5000FEF7B0B94FF0FF3351E7B046FEF768BEDB
:10AD6000B046B346FEF764BE4FF0FF3B0BE60A2B3E
:10AD700004BF00233371FFF7FEBBB046B346324633
:10AD80000396CDE90466FEF753BE094A9A46B2F926
:10AD900000B06420FEF76BBFB046B3463246FEF704
:10ADA00047BEB046B34632460396FEF741BE00BFEB
:10ADB000BCA400202DE9F8438C4DD5F8C43246F2EE
:10ADC000A712C31A93422DED028B03D8BDEC028B60
:10ADD000BDE8F883864BC5F8C4021C6814F004066D
:10ADE00068D1304614F020042BD1DFED827A27465B
:10ADF000814B824A1B78117813F0010347D1002957
:10AE00004ED0D5F8D4C2D5F8D8121370A0EB0C00F0
:10AE1000791A2CBB0EB17A4B18607A4B1B780E2B2B
:10AE2000D4D19FED797A794B67EE877ABDEC028BAE
:10AE3000FDEEE77A588017EE902A99801A80BDE8D7
:10AE4000F883734B1C7814F0020478D0714A138A8B
:10AE50009768002B40F0B280DFED667A0124C7E7E7
:10AE60002EB3B7EE007A77EE676A07EE100AB8EEF7
:10AE7000C77A634B27EE267A06EE901AF8EEE66A5A
:10AE8000A6EEA77ABDEEC77A83ED007AC5E739B999
:10AE90000123C5F8D402C5F8D87208461370B8E784
:10AEA000D5F8D432D5F8D812C01A791AB1E7544B74
:10AEB0001960B2E7DFF87C91DFF87C8199F8063001
:10AEC000B8F80060D5F8C872013BB7FBF3F7D6B30A
:10AED000514A9FED520A9368002B1946B8BFD91DFD
:10AEE000A3EBE1031F44002F3B46B8BFFB1DDB1063
:10AEF00007EE903AF8EEE77A976027EE800A27F09F
:10AF000009FCDFED477A20EE270A27F049FCF7EE2F
:10AF1000007A77EEC07A9FED430AD5F8D03267EE1B
:10AF2000807A9F42FDEEE77AC5EDB37A58D0731E62
:10AF30000026A8F80030C5F8D072304652E7DFEDA1
:10AF40002D7A274654E707EE907A9FED340A364E65
:10AF5000F8EE677AB7EE008A27EE800A27F0DAFB70
:10AF6000DFED2F7A20EE270A27F01AFCDFED2D7A8D
:10AF700038EE400A20EE270A40F0F4FFB9F8083016
:10AF8000DFED2A6A07EE103AD5F8CC32C01AB8EED7
:10AF9000C77A07EE900AA7EE668AB8EEE70AD6ED02
:10AFA000097AF8EEE77A20EE080A67EEA67AA7EEAD
:10AFB000270A40F0D7FF7062012613E707EE903AA8
:10AFC0009FED116ADFED1A6AB8EEE77AC6EE077AEE
:10AFD000F4EEE67AF1EE10FA88BFF0EE667A3DE71D
:10AFE00000231E46A8F800301846FBE68822002001
:10AFF000643D00209A99993EF4720020A0550020EB
:10B000006C460020E48300200000C842E883002052
:10B01000883F0020743F002000000020089425375E
:10B02000B1DC423ED048874A683D00206F12833A27
