:020000040800F2
:10000000F0FF0010BD7C040801D002084D65010816
:10001000597D0408597D0408597D0408000000003A
:100020000000000000000000000000000DD00208E9
:1000300009D002080000000005D0020805330108BD
:10004000597D0408597D0408597D0408597D040828
:10005000597D0408597D0408C9790108097B010804
:10006000C97A0108897A0108497A0108B17203083E
:10007000A172030891720308817203086D7203086C
:100080005972030845720308597D0408597D040814
:10009000597D0408597D0408597D0408097A01082E
:1000A000597D040869250108597D0408292601089D
:1000B000597D0408597D0408A92401085D780308C6
:1000C000657803085178030859780308597D0408B6
:1000D000597D0408B5350108193501087D3401083A
:1000E00089790108597D0408A11E03085D220108D1
:1000F00029230108597D0408E92301083172030806
:10010000597D0408597D0408597D0408597D040867
:10011000E13301084533010861FA01084DFA01088D
:100120001D72030809720308316B0308F571030897
:10013000E1710308597D0408597D0408597D0408BC
:10014000597D0408597D0408597D040805E9020811
:10015000CD710308B9710308A5710308597D04081E
:10016000457803084D780308597D0408597D040833
:10017000597D0408597D0408597D0408597D0408F7
:08018000597D0408597D0408B3
:0801880064780400010000008E
:10019000031233004C2B0020B4310020000000007B
:1001A000F40600082500960068300020FE3000208C
:1001B000000000000000000015007000102F00205B
:1001C000802F002000000000000000002A006000D6
:1001D000502E0020B02E002000000000DD03040897
:1001E0002C00100094310020A431002000000000F9
:1001F000359C00082B0024000B320020E731002042
:1002000000000000059C00082910780096280020B6
:10021000F02F002000000000000000001400030088
:10022000642D00204D2E002000000000280700084B
:1002300010100300D82B00207432002000000000B2
:100240002C07000828101000002800207832002019
:100250000000000001800008230010007827002023
:10026000883200200000000019800008F8210600F4
:100270007E2800209832002000000000300700088F
:100280001A023C00B4320020EC36002000000000CE
:10029000112B0308270004002C37002028370020EA
:1002A000000000003607000807020200003A0020A4
:1002B000443A0020000000003A07000802000C0049
:1002C000D4390020483A002000000000000000005F
:1002D00006020C00C8390020543A0020000000003B
:1002E000A92B0308081209004C390020603A0020AD
:1002F0000000000005230308F7010600463900202E
:100300006C3A0020000000003C0700080A020A00C6
:10031000B8380020743A00200000000042070008AE
:1003200003000100A0380020803A002000000000F7
:10033000000000000E502C01764B002034540020A9
:1003400000000000010604080902010068530020B3
:1003500060550020000000004C0700080C1014013C
:10036000F84C00206455002000000000B9960108F8
:1003700001020500FA4A0020785600200000000023
:10038000313D020800020500D850002080560020B0
:1003900000000000000000001B020800B450002014
:1003A0008856002000000000B52203080120080044
:1003B0004C52002090560020000000004E0700081C
:1003C00019000500D85200209856002000000000B7
:1003D0005607000837001E00B0520020A05600202B
:1003E000000000005C0700081E000500904E002081
:1003F000C0560020000000007A0700081B00F4002F
:10040000903A0020C856002000000000614E02080B
:100410000E020200E4510020BC5700200000000042
:10042000800700082F00110015540020C05700203D
:100430000000000082070008051006006C6D002017
:1004400058720020000000009407000826000E00EB
:100450007072002060720020000000001DC30208BE
:100460001F201C00B8610020A472002000000000C2
:100470009A07000805020400046D0020C0720020E5
:1004800000000000B607000803010A00206A0020EF
:10049000C472002000000000BA0700081302030025
:1004A00000600020D072002000000000C407000897
:1004B00010020100788C0020748C002000000000E5
:1004C000C80700081600080008AC002010AC002087
:1004D00000000000CA0700080400800018DA0020AD
:1004E000D0DA002000000000000000000D00340001
:1004F000B4D9002050DB002000000000D9790308A7
:10050000130004009CD0002084DB002000000000C9
:10051000D4070008F6210C00A0D0002088DB0020C2
:1005200000000000D8070008F5317000D8CF002087
:1005300094DB002000000000214802080B2010007E
:10054000C8CF002004DC002000000000E407000801
:1005500001010400C4CF002014DC002000000000D2
:100560000000000000010400C0CF002018DC0020C3
:1005700000000000F407000802010300BCCF0020C7
:100580001CDC00200000000041970108FD011E0056
:1005900088CF002020DC002000000000B9120108F4
:1005A00018202C0058CF002040DC00200000000064
:1005B000492E030806101800B4C200206CDC00208D
:1005C000000000005D060408FB010100B0C200202D
:1005D00084DC002000000000AD2E0308FC010900AF
:1005E0007CC1002088DC002000000000BD2E030834
:1005F00034001000A4C0002094DC002000000000A3
:1006000031060408110208007CC00020A4DC002090
:1006100000000000F80700081212040074C0002057
:10062000ACDC0020000000000008000812200D00D3
:1006300064C00020B0DC00200000000004080008B6
:10064000F90104002CB50020C0DC002000000000EF
:10065000311301081802020030AF0020C4DC002072
:10066000000000000000000017020B0024AF002073
:10067000C8DC002000000000C1220308FA010200CB
:1006800000AF0020D4DC0020000000003924030863
:100690000202030044AC0020D8DC0020000000006F
:1006A000000000000C02030030AC0020DCDC002065
:1006B000000000003D230308FE010900D0AE002029
:1006C000E0DC0020000000004D2303080A40360053
:1006D00084AE0020ECDC00200000000012080008BE
:1006E0001A000E00684501200446012000000000A9
:0406F00048080008AE
:1006F40000000000000000000000000000000000F6
:1007040000000000000000000000000000000000E5
:1007140000000000000000000000000000000000D5
:100724000000010003000000000500000200F401C5
:10073400190020030000023C3F01000000000000FB
:100744004A01B400D60126000000E8036400040A4C
:10075400000100002801000020003200C800D0077A
:100764009600140032002800B00440060005500032
:1007740014000F0008010000010000000000000048
:100784000000000000000000000000000000000065
:10079400200001010000000000000001000000052D
:1007A400000001020300000000000000000000003F
:1007B400000000000000040101006C1600000000AD
:1007C400000000000000651B0D001901282800002E
:1007D4000804443000000000010000000202000090
:1007E4002B21231E64010100000001000A012900DD
:1007F400FA0000000000000001010101FFFFFFFFFB
:10080400000000010000054845535000000000307E
:1008140001000000010000000000000000000000D2
:1008240000000000020000019E077D00000030006F
:100834000300B80BB80BB80B200046004600460076
:10084400280000007E05EA05B4053200E803D0075D
:020854000000A2
:10085600D60101006A000101FFFF0000FFFFFFFF54
:10086600010102FFFF000000FF0000000000000081
:10087600343A00200800000000000000243A00205E
:1008860008000000ECCB0408050804000000000086
:1008960030D4040808D504081CD40408000000005D
:1008A6000000000018CC040805080A00000000003B
:1008B60030D4040808D5040800D30408000000005A
:1008C6000000000000000100E0010101010000003D
:1008D6000541020800000000F4010020D443050889
:1008E6000000000000000000000000000000000002
:1008F600E43805080000000000000000B2020020F5
:1009060004000000804305080D000000516D020838
:10091600BC1D002000000000943C05080D000000EE
:10092600796D0208B01D002000000000FC3D05089E
:100936000800000000000000A41D002004000000C4
:10094600003D05080D000000B9410208981D002071
:1009560000000000B03D050803000000916F02088A
:100966008C1D002000000000E44305080300000081
:10097600916F0208801D0020000000002C39050838
:100986000100000000000000000000000000000060
:10099600000000000E000000000000000000000043
:1009A60000000000D443050800000000000000001D
:1009B6000000000000000000E43805080000000008
:1009C60000000000B2020020040000002C430508CD
:1009D6000300000011490208741D002008000000F1
:1009E600003D05080D000000B9410208981D0020D1
:1009F60000000000B03D050803000000916F0208EA
:100A06008C1D002000000000E443050803000000E0
:100A1600916F0208801D0020000000002C39050897
:100A260001000000000000000000000000000000BF
:100A3600000000000E0000000000000000000000A2
:100A460000000000EC430508000000000000000064
:100A56000000000000000000E43805080000000067
:100A660000000000B2020020040000003443050824
:100A760003000000916F0208C81D0020000000005E
:100A86002C390508010000000000000000000000ED
:100A960000000000000000000E0000000000000042
:100AA600000000000000000020700020702D720081
:100AB600FFFFFFFF010000000000803F080000006C
:100AC600000000000000000030190020FA000000BD
:100AD60001000000010000000000803F000000004F
:100AE6000000000000000000000000000000000000
:100AF60000000000000000000000000000000000F0
:100B0600FFFF2D202D2D202D2D2D2D202D2D2D00BF
:100B160000000000000000000000000000000000CF
:100B260000000000FFFFFFFF00390508083905082F
:100B36002439050800000000000000000000000045
:100B460000000000D336050804000000196B0208F7
:100B560000000000000000002C390508010000001C
:100B6600000000000000000000000000000000007F
:100B76000E00000000000000000000000000000061
:100B8600B8DA00200100C40900000000B6DA00202F
:100B96000100C40900000000B4DA00200100C40905
:100BA60000000000B2DA00200100C40900000000C5
:100BB600AEDA00200100C40900000000B0DA00200F
:100BC6000100C40900000000ACDA00200100C409DD
:100BD60000000000AADA00200100C409000000009D
:100BE6000C4B00200100C800010000000A4B002049
:100BF6003200307532000000084B0020055A05000F
:100C0600054B002000FF0100074B002001000000FB
:100C1600D8020020034B00200200000034D504084F
:100C2600044B002000FF0100064B002001000000DD
:100C3600D8020020024B00200200000034D5040830
:100C4600F84A002080C1803E05000000F64A0020D8
:100C560080C1803E05000000F44A002080C1803E2D
:100C660005000000F24A002080C1803E0500000019
:100C7600F14A002000FF0100F04A00200A3201007C
:100C8600EF4A002004000000E0D20408EE4A0020EB
:100C960002000000F4D2040800000000000000007A
:100CA600E0020020B06C00209CFF2C010000000038
:100CB6007A0000200A00000000D30408E44A00205D
:100CC600E0150C17000000007C0000200800000062
:100CD60008D504087B0000200500000030D4040875
:100CE600E64A00200200000018D304082A4E00201D
:100CF6000100FF7F01000000294E002002000000D5
:100D060024D30408B04C00200000C20101000000FA
:100D1600AE4C00200000C20101000000AC4C0020D7
:100D26000000C20101000000AA4C00200000C20120
:100D360001000000A64C00200000803E32000000AA
:100D4600A44C00200000803E32000000A24C00208F
:100D56000000803E32000000A84C00200000000485
:100D660001000000BC4C00200000F401010000005E
:100D7600BA4C00200000F40101000000B84C00202D
:100D86000000F40101000000B64C00200000F40150
:100D960001000000B44C00200000803E010000006D
:100DA600B24C00200000803E01000000D84C00201C
:100DB600E803D0070A000000D64C002000640100BA
:100DC6000A000000CB4C002000640100CA4C002041
:100DD60000640100D24C0020006401000A000000FB
:100DE600D14C0020006401000A000000D04C002015
:100DF600006401000A000000D54C002000640100D8
:100E06000A000000D44C0020006401000A00000023
:100E1600D34C0020006401000A000000CF4C0020E3
:100E260000FF01000A000000CE4C002000FF010078
:100E36000A000000CD4C002000FF01000A0000005F
:100E4600724B00200000F40101000000704B0020EE
:100E56000000F401010000006E4B00200000F401C8
:100E6600010000006C4B00200000F40101000000AE
:100E76006A4B00200000F40101000000C84C00206D
:100E860000640100C64C00201400E80301000000C5
:100E9600C44C0020E80330750A000000C24C002054
:100EA60000C80100C14C002000C80100C04C002051
:100EB60000C80100BF4C0020006401000A000000C9
:100EC6000F4E002001C801000E4E0020010A01004D
:100ED6001E4E00200000D00701000000184E002022
:100EE60000C80100174E002000C80100164E002061
:100EF60000C801001C4E00200000D00701000000C1
:100F0600154E002000C80100144E002000C8010044
:100F1600134E002000C801001A4E00200000D00722
:100F260001000000124E002000C80100114E0020F2
:100F360000C80100104E002000C801000D4E002020
:100F46000100000034D304085439050800000000ED
:100F56000000000000000000000000003C0705083B
:100F660009000000000000008403002004000000C7
:100F7600440705080900000000000000780300206F
:100F860004000000284105080900000000000000D8
:100F96006C03002004000000CD370508090000009E
:100FA600000000006003002004000000643905080A
:100FB60009000000000000005403002004000000A7
:100FC6006C390508090000000000000048030020F5
:100FD6000400000074390508090000000000000044
:100FE6003C030020040000007C39050809000000CD
:100FF6000000000030030020040000002C39050822
:1010060001000000000000000000000000000000D9
:10101600000000000E0000000000000000000000BC
:1010260000000000803B05080000000000000000F2
:101036000000000000000000FC2605080700000074
:1010460000000000A803002000000000903B0508F7
:1010560008000000000000009C03002000000000C3
:101066009C3B0508080000000000000090030020DB
:10107600000000002C3905080100000000000000F7
:101086000000000000000000000000000E0000004C
:10109600000000000000000000000000A43B05085E
:1010A600000000000000000000000000000000003A
:1010B600B43B05080D00000000000000E40300201A
:1010C60000000000BC3B05080D0000000000000009
:1010D600D803002000000000C43B050807000000FC
:1010E60000000000D003002000000000CC3B0508F3
:1010F6000D00000000000000C403002000000000F6
:10110600D43B05080D00000000000000B8030020D5
:1011160000000000DC3B050807000000000000009E
:10112600B0030020000000002C3905080100000073
:1011360000000000000000000000000000000000A9
:101146000E0000000000000000000000000000008B
:10115600E43B05080000000000000000000000005D
:1011660000000000FC2605080C000000000000003E
:101176000E4B002000000000F83B05080C000000A4
:1011860000000000104B002000000000083C05088D
:101196000C00000000000000464B0020000000008C
:1011A600183C05080C000000000000003A4B002027
:1011B600000000002C3C05080C00000000000000A8
:1011C600124B002000000000383C05080C0000000F
:1011D60000000000144B002000000000403C050801
:1011E6000C00000000000000164B0020000000006C
:1011F600543C05080C00000000000000184B0020BD
:10120600000000005C3C05080C0000000000000027
:101216001A4B002000000000643C05080C0000008A
:1012260000000000584B0020000000007C3C050830
:101236000C000000000000001C4B00200000000015
:10124600883C05080C000000000000001E4B002032
:10125600000000004C0705080C000000000000001C
:10126600204B002000000000903C05080C00000008
:1012760000000000224B0020000000009C3C0508F6
:101286000C00000000000000244B002000000000BD
:10129600A83C05080C00000000000000264B0020BA
:1012A60000000000B43C05080C000000000000002F
:1012B600284B002000000000C03C05080C00000080
:1012C600000000002A4B002000000000CC3C05086E
:1012D6000C000000000000003E4B00200000000053
:1012E600D43C05080C000000000000003C4B002028
:1012F60000000000DC3C05080C00000000000000B7
:101306004A4B002000000000E83C05080C000000E5
:10131600000000004C4B002000000000F43C0508D3
:101326000C00000000000000524B002000000000EE
:10133600203A05080C000000000000002C4B00209D
:1013460000000000003D05080C0000000000000041
:10135600344B002000000000083D05080C0000008A
:10136600000000002E4B002000000000143D050880
:101376000C00000000000000304B002000000000C0
:10138600203D05080C00000000000000324B002044
:1013960000000000283D05080C00000000000000C9
:1013A600364B0020000000001C2705080C0000003A
:1013B60000000000404B002000000000343D0508FE
:1013C6000C00000000000000384B00200000000068
:1013D6006C3805080C00000000000000484B002097
:1013E60000000000403D05080C0000000000000061
:1013F600424B002000000000483D05080C0000009C
:1014060000000000444B002000000000503D05088D
:101416000C000000000000004E4B00200000000001
:10142600583D05080C00000000000000504B00204D
:1014360000000000603D05080C00000000000000F0
:10144600624B0020000000002C3905080100000056
:101456000000000000000000000000000000000086
:101466000E00000000000000000000000000000068
:10147600683D0508000000000000000000000000B4
:1014860000000000743D05080D000000000000008B
:101496003C040020000000007C3D05080D00000013
:1014A600000000003004002000000000843D050814
:1014B60007000000000000002804002000000000D3
:1014C600903D0508070000000000000020040020F1
:1014D600000000009C3D0508090000000000000017
:1014E6001404002000000000A83D050809000000C3
:1014F600000000000804002000000000B43D0508BC
:101506000900000000000000FC03002000000000AD
:10151600C43D05080900000000000000F00300209B
:10152600000000002C390508010000000000000042
:101536000000000000000000000000000E00000097
:10154600000000000000000000000000D83D050873
:101556000000000000000000000000000000000085
:10156600E83D05080500000000000000694B00206A
:10157600000000002C3905080100000000000000F2
:101586000000000000000000000000000E00000047
:10159600000000000000000000000000F03D05080B
:1015A6000000000000000000000000000000000035
:1015B600E43805080000000000000000641F002059
:1015C60004000000C93705080D0000007D6B020805
:1015D6009004002000000000804305080D00000074
:1015E600BD4002088404002000000000943C050869
:1015F6000D000000A1400208780400200000000051
:10160600FC3D050808000000000000006C040020F6
:1016160004000000003D05080D000000E93F020837
:101626006004002000000000043E050809000000D8
:10163600000000005404002004000000B03D05082E
:1016460003000000916F020848040020000000001B
:101656002C39050801000000000000000000000011
:1016660000000000000000000E0000000000000066
:1016760000000000000000000C3E0508000000000D
:101686000000000000000000000000001C3E0508ED
:101696000D00000000000000A8040020000000006B
:1016A600243E05080A00000000000000AC5100209E
:1016B60000000000303E05080A000000000000009F
:1016C600B451002000000000383E05080A00000062
:1016D60000000000BC51002000000000403E05084C
:1016E60008000000000000009C040020000000002C
:1016F600483E050804000000C5700208000000000E
:10170600000000002C390508010000000000000060
:101716000000000000000000000000000E000000B5
:10172600000000000000000000000000543E050814
:1017360000000000000000000000000000000000A3
:10174600683E0508000000000000000000000000E0
:1017560000000000883E05080800000000000000A8
:101766000805002000000000903E05080800000063
:1017760000000000FC04002000000000983E050860
:101786000800000000000000F00400200000000037
:10179600A03E05080800000000000000E404002048
:1017A60000000000A83E0508080000000000000038
:1017B600D804002000000000B43E05080800000020
:1017C60000000000CC04002000000000C03E050818
:1017D6000800000000000000C00400200000000017
:1017E600C83E05080800000000000000B404002000
:1017F600000000002C390508010000000000000070
:101806000000000000000000D43E050802000000B1
:10181600197102080200000000000000000000002C
:101826000E000000000000000000000000000000A4
:10183600E03E050800000000000000000000000077
:1018460000000000F43E050808000000000000004B
:101856005005002000000000003F050808000000B9
:101866000000000044050020000000000C3F0508B1
:1018760008000000000000003805002000000000FD
:10188600183F050808000000000000002C05002095
:1018960000000000243F05080800000000000000CA
:1018A6002005002000000000303F05080800000069
:1018B6000000000014050020000000002C39050877
:1018C6000100000000000000000000000000000011
:1018D600000000000E0000000000000000000000F4
:1018E600000000003C3F050800000000000000006A
:1018F6005B02002000000000483F05080B000000C6
:1019060000000000E405002000000000543F050828
:101916000B00000000000000D805002000000000B9
:10192600603F05080B00000000000000CC05002009
:10193600000000006C3F05080B00000000000000DE
:10194600C005002000000000783F05080B000000DD
:1019560000000000B405002000000000843F0508D8
:101966000B00000000000000A80500200000000099
:10197600903F05080B000000000000009C050020B9
:10198600000000009C3F05080B000000000000005E
:101996009005002000000000A83F05080B0000008D
:1019A600000000008405002000000000B43F050888
:1019B60007000000000000007C0500200000000079
:1019C600BC3F050807000000000000007405002069
:1019D60000000000C83F05080B00000000000000E2
:1019E6006805002000000000D43F0508080000003C
:1019F600000000005C050020000000002C390508EE
:101A060001000000000000000000000000000000CF
:101A1600000000000E0000000000000000000000B2
:101A260000000000E03F0508000000000000000084
:101A36000000000000000000F43F05080800000058
:101A460000000000200600200000000000400508FD
:101A5600080000000000000014060020000000003E
:101A66000C400508080000000000000008060020E1
:101A760000000000184005080800000000000000F3
:101A8600FC05002000000000C03E0508080000001C
:101A960000000000F0050020000000002C390508B9
:101AA600010000000000000000000000000000002F
:101AB600000000000E000000000000000000000012
:101AC600000000002440050800000000000000009F
:101AD6005802002000000000344005080B000000FA
:101AE60000000000640600200000000040400508D9
:101AF60007000000000000005C0600200000000057
:101B06004C400508070000000000000054060020B5
:101B16000000000058400508070000000000000013
:101B26004C06002000000000644005080800000084
:101B36000000000040060020000000006C40050880
:101B4600080000000000000034060020000000002D
:101B56007440050807000000000000002C06002065
:101B6600000000002C3905080100000000000000FC
:101B76000000000000000000000000000E00000051
:101B86000000000000000000000000008040050882
:101B960000000000000000005802002000000000C5
:101BA6008C4005080D00000000000000EC06002037
:101BB6000000000098400508070000000000000033
:101BC600E406002000000000A04005080700000011
:101BD60000000000DC06002000000000A840050808
:101BE6000700000000000000D406002000000000EE
:101BF600B04005080800000000000000C8060020EC
:101C060000000000B84005080700000000000000C2
:101C1600C006002000000000C040050807000000C4
:101C260000000000B806002000000000C8400508BB
:101C36000700000000000000B006002000000000C1
:101C4600D04005080800000000000000A40600209F
:101C560000000000D8400508070000000000000052
:101C66009C06002000000000E04005080700000078
:101C7600000000009406002000000000E84005086F
:101C860007000000000000008C0600200000000095
:101C9600F040050808000000000000008006002053
:101CA60000000000F84005080700000000000000E2
:101CB600780600200000000000410508070000002B
:101CC6000000000070060020000000002C39050806
:101CD60001000000000000000000000000000000FD
:101CE6000C410508020000001971020801000000FD
:101CF60000000000000000000E00000000000000D0
:101D06000000000000000000000000003D44020842
:101D1600F8060020674B00202C0000003CD3040886
:101D2600664B002000C80100644B0020E803D00782
:101D36000100000048454C494F535052494E470058
:101D4600014B002000030100004B002000030100AE
:101D5600854302085D430208D407002019430208A0
:101D6600CD4202084C080020C5430208AD430208D4
:101D76000009002031420208DD410208200C002043
:101D860053440208A16D0208FC0C002029400208F9
:101D9600000000004C0D0020A17002086D470208EB
:101DA600280E002029450208E9440208DC0E00201E
:101DB6009D45020869450208E00F002025460208F5
:101DC6007146020894100020C94C0020010601004B
:101DD600AD44020879440208D4110020D145020816
:101DE600D16D020874120020A1460208216E020875
:101DF6003C130020BE4C00200103010018410508D9
:101E060000000000000000000000000000000000CC
:101E1600244105080800000000000000D814002036
:101E2600000000002C41050807000000000000002B
:101E3600D0140020000000003C4105080D00000001
:101E460000000000C41400200000000048410508FE
:101E560003000000916F0208B81400200000000083
:101E66002C390508010000000000000000000000F9
:101E760000000000000000000E000000000000004E
:101E860000000000000000005041050800000000AE
:101E9600000000000000000000000000604105088E
:101EA6000A0000000000000068410508000000006C
:101EB600704105080A00000000000000C7F304088E
:101EC60000000000784105080A000000000000003C
:101ED600204E002000000000804105080A00000096
:101EE60000000000E4140020000000002C39050862
:101EF60001000000000000000000000000000000DB
:101F0600000000000E0000000000000000000000BD
:101F160000000000884105080000000000000000E5
:101F260000000000000000009441050803000000C6
:101F3600916F02081815002000000000A041050856
:101F460003000000916F02080C150020000000003D
:101F5600A841050803000000916F02080015002043
:101F660000000000B0410508050000000000000068
:101F7600FF4A002000000000B841050807000000E5
:101F860000000000F814002000000000C44105080D
:101F96000700000000000000F01400200000000010
:101FA6002C390508010000000000000000000000B8
:101FB60000000000000000000E000000000000000D
:101FC6000000000000000000D041050800000000ED
:101FD600000000000000000000000000E4410508C9
:101FE60003000000916F0208481500200000000061
:101FF600F041050803000000916F020880000020F0
:1020060000000000F841050803000000916F020877
:102016003C150020000000000042050803000000F7
:10202600916F02083015002000000000003D0508F1
:1020360003000000916F0208241500200000000034
:102046002C39050801000000000000000000000017
:1020560000000000000000000E000000000000006C
:1020660000000000000000000C420508000000000F
:102076000000000000000000000000001C420508EF
:1020860007000000996E0208A41500200000000059
:10209600243D050803000000916F020898150020F2
:1020A600000000002842050803000000916F0208A6
:1020B6008C150020000000003042050803000000D7
:1020C600916F0208801500200000000038420508C4
:1020D600070000007D6E0208781500200000000051
:1020E6001846050803000000916F02086C150020D1
:1020F600000000004442050803000000916F02083A
:102106006015002000000000504205080300000092
:10211600916F020854150020000000002C390508B4
:1021260001000000000000000000000000000000A8
:10213600000000000E00000000000000000000008B
:10214600000000000D440208DD430208AC15002023
:10215600394702080000000038160020A94202088C
:1021660085420208C416002000000000000000009E
:102176007817002011470208B56E020818180020CB
:1021860058420508000000000000000000000000A2
:1021960000000000740D050803000000916F02089E
:1021A6002419002000000000644205080300000016
:1021B600916F020818190020000000001428050875
:1021C60003000000916F02080C19002000000000B7
:1021D6007042050803000000916F020800190020F4
:1021E600000000007C42050803000000916F020811
:1021F600F4180020000000008442050802000000D8
:102206001971020800000000000000000C410508DA
:102216000200000019710208010000000000000021
:10222600D43E0508020000001971020802000000F1
:1022360000000000000000000E000000000000008A
:102246000000000000000000EA4A002088136F1713
:1022560001000000EC4A002088136F170000000000
:102266008C4205080000000000000000000000008D
:10227600000000009C420508080000000000000065
:10228600041A002004000000A84205080800000007
:1022960000000000F819002000000000B03D05080D
:1022A60004000000A56B020800000000000000000A
:1022B6002C390508010000000000000000000000A5
:1022C60000000000000000000E00000000000000FA
:1022D6000000000000000000E84A002088136F1785
:1022E60001000000F06C002088136F17000000004A
:1022F6006D41020800000000101A00205151002014
:1023060001000000F0D30408F26C00200100000078
:10231600FCD30408E86C00200200000004D4040882
:102326000A62002000000000000000000862002091
:10233600000000000000000006620020000000000F
:102346000000000004620020000000000000000001
:102356000262002000000000000000000062002071
:1023660000000000000000009C1F0020000000008C
:1023760000000000E74A00200200000010D4040814
:10238600E442050800000000000000000000000014
:10239600000000009C420508080000000000000044
:1023A600941A002004000000A84205080800000056
:1023B60000000000881A002000000000B03D05085B
:1023C600040000003D41020800000000000000007B
:1023D6002C39050801000000000000000000000084
:1023E60000000000000000000E00000000000000D9
:1023F6000000000000000000F44205080000000094
:102406000000000000000000000000000443050872
:102416000D000000F56C0208C41A0020040000003C
:10242600104305080D00000095410208B81A002067
:10243600040000001C4305080D000000B96C0208EA
:10244600AC1A002000000000284305080300000025
:1024560031490208A01A002008000000344305088C
:1024660003000000916F0208C81D00200000000054
:102476002C390508010000000000000000000000E3
:1024860000000000000000000E0000000000000038
:1024960000000000000000002439050800000000CC
:1024A600000000000000000000000000D336050810
:1024B60004000000BD6B02080000000000000000E0
:1024C6002C39050801000000000000000000000093
:1024D60000000000000000000E00000000000000E8
:1024E600000000000000000088430508000000000E
:1024F600000000000000000000000000500C05086D
:102506000D00000000000000241B00200400000055
:10251600984305080800000000000000181B002072
:1025260004000000A44305080800000000000000A5
:102536000C1B002004000000AC4305080800000046
:1025460000000000001B002004000000B443050842
:102556000800000000000000F41A0020040000003B
:10256600BC4305080800000000000000E81A00202F
:1025760004000000C4430508080000000000000035
:10258600DC1A002004000000CC4305080800000007
:1025960000000000D01A0020040000002C390508B5
:1025A6000100000000000000000000000000000024
:1025B600000000000E000000000000000000000007
:1025C600000000005541020800000000301B0020FA
:1025D6000000000000000000A81B00200000000012
:1025E60000000000481C0020EE6C002004000000E3
:1025F6001CD40408EC6C0020E0150C170000000049
:10260600EB6C00200800000008D50408EA6C0020E6
:102616000500000030D4040800000000000000009F
:10262600981C00200403090412010002EF02014075
:102636008304563200020102030100001201000267
:102646000202004083044057000201020301000019
:1026560009022000010104C0320904000002080634
:1026660050050705810240000007050102400000F1
:1026760009026400030100C03209040000010300DE
:102686000000092111010001222600070583030825
:10269600000A080B010202020100090401000102FE
:1026A6000201000524001001052401000204240291
:1026B600020524060102070582030800FF09040239
:1026C60000020A000000070501024000000705811C
:1026D6000240000009024300020100C03209040062
:1026E6000001020201000524001001052401000179
:1026F600042402020524060001070582030800FFE0
:1027060009040100020A000000070501024000005A
:102716000705810240000000FF00000000FFFF00E7
:1027260000000000AA550501000001000501090589
:10273600A101A10005010930093109320933093522
:102746000934094009381581257F750895088102E5
:10275600C0C0000009022200010100E032090400A5
:1027660000010301020009211101000122260007D0
:1027760005830308000A00000000000001020304AC
:10278600010203040607080945DC020849DB0208C2
:10279600A1DF02086DB70208E5BC02087DB7020892
:1027A60099B7020845B7020835B7020800000000CD
:1027B600000000002D202D2D202D2D2D2D202D2D1E
:1027C6002D2D0000000000000000000000000000A9
:1027D600000000AA550B010000AA5507010000AA37
:1027E600550902000000000001000000C012AA55B1
:1027F60003009F00FF1FFF1F0100000080720020E2
:1028060000000000BC1F00200400000000020005BC
:102816001002700B1A030000000000000000000008
:1028260000000000000000000000000000000000A2
:10283600040309041201000200000040830420572B
:102846000002010203010000DD4E03089523030880
:10285600912303088D230308D92E0308892303082F
:10286600852303081CD80408A1D1020871BB0208FD
:10287600E1DC02080000000000000000E5D90208C3
:1028860001D902080000000000000000000000005E
:10289600A9B602082D24030821240308413403089D
:1028A6005D340308D92303082534030809340308D3
:1028B60001000000500100000700000002000000B7
:1028C60000000000000000000102030406070809DA
:1028D600C9BC0208B5BB02087DDF02080000000083
:1028E60031B7020835DB020805BB0208ADDA02087B
:1028F6000000000000000000EDB6020881B60208E4
:1029060075B60208B1D00208CDD0020895D00208EB
:1029160079D002085DD0020881BC020891BB02088A
:10292600BDDE02080000000005B70208B1DA0208A1
:10293600D9BA02080DDA0208000000000000000003
:10294600F9B602080800000071B602086DB6020862
:1029560069B602085DB6020859B6020865B60208ED
:1029660061B60208010000000060024010600240EB
:102976000000000000000000000B00000000000046
:1029860000000000000000000060024028600240D5
:102996000100000000000000060C0000000000001E
:1029A600000000000000000000600240406002409D
:1029B6000200000000000000100D000000000000F2
:1029C6000000000000000000006002405860024065
:1029D6000300000000000000160E000000000000CA
:1029E600000000000000000000600240706002402D
:1029F6000400000000000000200F0000000000009E
:102A060000000000000000000060024088600240F4
:102A16000500000000000000261000000000000075
:102A2600000000000000000000600240A0600240BC
:102A36000600000000000000301100000000000049
:102A4600000000000000000000600240B860024084
:102A56000700000000000000362F00000000000004
:102A66000000000000000000006402401064024004
:102A76000000000000000000003800000000000018
:102A860000000000000000000064024028640240CC
:102A960001000000000000000639000000000000F0
:102AA6000000000000000000006402404064024094
:102AB6000200000000000000103A000000000000C4
:102AC600000000000000000000640240586402405C
:102AD6000300000000000000163B0000000000009C
:102AE6000000000000000000006402407064024024
:102AF6000400000000000000203C00000000000070
:102B060000000000000000000064024088640240EB
:102B16000500000000000000264400000000000040
:102B2600000000000000000000640240A0640240B3
:102B36000600000000000000304500000000000014
:102B4600000000000000000000640240B86402407B
:102B560007000000000000003646000000000000EC
:102B660000000000000000000000803F00000000A0
:102B760000000000000000000000803F0000000090
:102B860000000000000000000000803F0000000080
:102B960000000000000000000000803F50230020DD
:102BA600000000000000000000000000000000001F
:102BB600000000000000000000000000000000000F
:102BC60000000000000000000000000000000000FF
:102BD60000000000000000000000000000000000EF
:102BE60000000000000000000000000000000000DF
:102BF60000000000000000000000000000000000CF
:042C060001000000C9
:1080000000230122C2708370038003714371837166
:10801000C37103724372704700231E2203604360E2
:10802000C381C0F80630C0F80A300280704700BF34
:108030002DE9F843704CE279237A9A427FD0E279B5
:10804000E379C2EBC20204EB8202C3EBC30304EB8D
:10805000830392F82B101E7C8B1E9E422CD0674A05
:10806000B4F864301278E16801339BB21B2AA4F89B
:10807000643067D00025E379614A0133A2FB030233
:10808000520802EB42029B1ADBB2E37100293BD09B
:108090000AF0D4FFD4F89830C01AB0F5FA7F04DBA8
:1080A000002345F0040584F89630D4F89030002B76
:1080B00032D12846BDE8F883E37904F11007C3EB19
:1080C000C30307EB830361B11944002213F8015B7A
:1080D0002A44994292B2F9D1D3B203EB1222FF2A79
:1080E00038D0464AB4F864301278E16801339BB264
:1080F0001B2AA4F86430BDD1424BB4F864205A80E6
:1081000004229A800025B6E794F89630002BBFD160
:10811000D4F89030002BCCD03B4A1268D31AB3F578
:10812000FA7FC6D994F86630032B04BF0023A4F865
:108130008C300023C4F890302846BDE8F883E1680D
:108140000025A3E72F4BB4F864205A8003229A80BD
:10815000002590E7E37901221C2101FB0323FA1893
:10816000FD5C5DB3012D15D1082E3CD0234AB4F837
:1081700064301278E16801339BB21B2AA4F86430A2
:108180007FF478AF1F4BB4F864205A8006229A809F
:10819000002570E7194AB4F864301278E1680133B9
:1081A0009BB21B2AA4F864307FF464AF154BB4F87B
:1081B00064205A8005229A8000255CE7192EE16828
:1081C00024D00E4AB4F86430127801339BB21B2AD3
:1081D000A4F864307FF44FAF0A4BB4F864205A809F
:1081E00006229A8047E794F89430002B40F0E9800B
:1081F0001D46E1683FE700BFB823002034AC0020F3
:10820000ABAAAAAA38AC0020D4AD002092F802C0D4
:108210005578036992F8038092F804909679D7799B
:1082200092F808E00CF0070C45EA0C2508F03F082E
:1082300092F80AC01D8095784FEA481848EAD50898
:10824000957BA3F8028092F803804FEA890040EA08
:10825000981092F8058008F0010840EA882098807C
:1082600006F00F06507992F80780F60146EA5000B2
:10827000567AD8804FEA4E0E4EEAD81E06F0030614
:1082800092F80680D07A07F07F074EEA462E3F012B
:10829000567BA3F80AE047EA18171F8106F0070784
:1082A000967A92F809E0C00040EA5610167B0CF06E
:1082B0001F0C46EA072605F03F05577BD8816D0164
:1082C0004FEA8C1C45EAD7004CEA9E0CA3F80CC080
:1082D0001E825882D07B92F80EE0D77C92F81280F2
:1082E00092F811C0967C557D800040EA9E1092F86D
:1082F00010E07F000EF0010E47EAD8170CF00F0CCB
:1083000092F8108040EA8E204FEACC1C92F814E0DC
:1083100098824CEA580C907DA3F816C006F07F06B0
:1083200092F811C00EF0030E47EA4E27360146EAD6
:108330001C165F8392F814C0577D1E8305F01F053D
:10834000AD01C00045EA9C0540EA5710D8839D83E3
:10835000D57D40F2147015F0010F14BF0646AD260E
:1083600015F0020F08BFAD201E8458842B0759D486
:1083700015F0040F0CBF0125092594F86630032B76
:108380001AD194F86700137E2B4FA26E04EB4006BF
:10839000C3EB8323A7FB0373B6F86C705B09D21B96
:1083A00001301A4400F00F0084F867001009A6F8A5
:1083B0006C30A266A4F88C00204B1B68C4F8903087
:1083C00059E65378102B14D01ED8D3B994F89530B1
:1083D000E168002B7FF44EAE94F89730012B23D93F
:1083E00019B10A78303A012A1ED9002584F897502D
:1083F00041E694F895300BB984F89550012384F840
:108400009630E168002536E6303B012BF9D852F86A
:10841000010FE46091889379A1802060A3710849DD
:10842000002528E60325A8E70133012284F89730C8
:1084300084F8962000251EE61F85EB51D4AD002060
:10844000B823002010B504460AF0F8FD514B002275
:1084500083F89C2093F89D20012A19D9D3F8A020F5
:1084600040F6AC51821A8A4212DD4B49B3F86420BF
:108470000978013292B21B29A3F8642005D1474A3A
:10848000B3F86410518001219180002283F89D206F
:10849000E2B27E2A27D093F89D1019B393F89D106D
:1084A0001B2956D893F8AC1000296CD0002182F01B
:1084B000200283F8AC1093F89D10022903D1012A01
:1084C00008BF83F8A420197A93F89D4093F89D0083
:1084D000C1EBC10103EB810121440130C0B2CA7379
:1084E00083F89D0010BD93F89D20012A2BD91A7A9C
:1084F0002B49DC790132A1FB02C1490801EB4101A2
:10850000521AD2B294420AD093F89D40197A1A7244
:10851000C1EBC10103EB8101621E81F82B2093F8AE
:10852000A4203AB10121002283F89C1083F8A420F2
:10853000C3F89800184A12781B2A1ED00022C3F8EC
:10854000A80083F8AC20012283F89D20C3F8A00086
:1085500010BD002283F89D200F49B3F864200978EC
:10856000013292B21B29A3F86420BBD10B4AB3F8A5
:10857000643053800223938010BDD3F8A8200749AC
:10858000821A0A80DAE77D2A95D1012283F8AC208D
:1085900010BD00BFB823002034AC002038AC002050
:1085A000ABAAAAAA03788B4283BF034B03EB41011A
:1085B000B1F8B00000207047B8230020044B93F8B6
:1085C000C80018B1002283F8C8200120704700BFFE
:1085D000B8230020F0B4C24D95F8EF6005F1CC024D
:1085E0000244B41E1444A24200F07881013A013CD6
:1085F000002341F2210112F8017F83EA07231FB211
:10860000BBB2002FACBF5B0081EA43039BB21F04E7
:1086100054BF5B0081EA43039BB21F0454BF5B005D
:1086200081EA43039BB21F0454BF5B0081EA43030A
:108630009BB21F0454BF5B0081EA43039BB21F043B
:1086400054BF5B0081EA43039BB21F0454BF5B002D
:1086500081EA43039BB21F0454BF5B0081EA4303DA
:10866000A2429BB2C7D10644B21E013E2A442E4408
:1086700092F8CC1096F8CC2002EB012292B29A42EA
:1086800001D0F0BC704795F8F020002A00F021815D
:10869000431CDBB25C1C2C442B444FF4AF6193F8B9
:1086A000CC6094F8CC3003EB06239BB201FB03F3C0
:1086B0001B1303F54873012AA5F8B03000F00981B7
:1086C000C31CDBB25C1C2C442B44022A93F8CC6004
:1086D00094F8CC3003EB06239BB201FB03F34FEA83
:1086E000233303F54873A5F8B23000F0F280431D40
:1086F000DBB25C1C2C442B44032A93F8CC6094F826
:10870000CC3003EB06239BB201FB03F34FEA233388
:1087100003F54873A5F8B43000F0DB80C31DDBB26D
:108720005C1C2C442B44042A93F8CC6094F8CC3085
:1087300003EB06239BB201FB03F34FEA233303F55C
:108740004873A5F8B63000F0C48000F10903DBB22D
:108750005C1C2C442B44052A93F8CC6094F8CC3054
:1087600003EB06239BB201FB03F34FEA233303F52C
:108770004873A5F8B83000F0AC8000F10B03DBB211
:108780005C1C2C442B44062A93F8CC6094F8CC3023
:1087900003EB06239BB201FB03F34FEA233303F5FC
:1087A0004873A5F8BA3000F0948000F10D03DBB2F5
:1087B0005C1C2C442B44072A93F8CC6094F8CC30F2
:1087C00003EB06239BB201FB03F34FEA233303F5CC
:1087D0004873A5F8BC307CD000F10F03DBB25C1C01
:1087E0002C442B44082A93F8CC6094F8CC3003EB4B
:1087F00006239BB201FB03F34FEA233303F54873CF
:10880000A5F8BE3065D000F11103DBB25C1C2C442E
:108810002B44092A93F8CC6094F8CC3003EB062360
:108820009BB201FB03F34FEA233303F54873A5F82A
:10883000C0304ED000F11303DBB25C1C2C442B443F
:108840000A2A93F8CC6094F8CC3003EB06239BB251
:1088500001FB03F34FEA233303F54873A5F8C23055
:1088600037D000F11503DBB25C1C2C442B440B2ADF
:1088700093F8CC6094F8CC3003EB06239BB201FB59
:1088800003F34FEA233303F54873A5F8C43020D02F
:1088900000F11703DBB25C1C2C442B440C2A93F828
:1088A000CC6094F8CC3003EB06239BB201FB03F3BE
:1088B0004FEA233303F54873A5F8C63009D000F119
:1088C0001903DBB25A1C2A442B4493F8CC3092F89B
:1088D000CC30012385F8C830F0BC70470023C2E6D5
:1088E000B823002070B55C4C06460AF0A7FBD4F80C
:1088F000F430C4F8F400C01AB0F5FA5F1AD90023B6
:1089000084F8F83084F8F930A12E2FD0A22E00F090
:108910009C8094F8F92094F8EF300025A2B16A1CED
:108920006119D5B2F6B29D4281F8CC6084F8F85056
:108930000CD070BD94F8F850002DE5D094F8F920D3
:1089400094F8EF30002AEAD19D42F2D194F8FA303F
:10895000052B72D0062B03D194F8CD301E2B0DD0F1
:10896000002384F8F93084F8F83070BD01221B230D
:1089700084F8F92084F8EF300025D0E76A1E002A39
:108980004FF0000150DD08460B462344013093F8B8
:10899000CC30DBB283EA0105ED074FEA530348BF51
:1089A00083F08C0383EA5105EE074FEA530348BF77
:1089B00083F08C0383EA9105ED074FEA530344BF2C
:1089C00083F08C03DBB283EAD105EE074FEA530351
:1089D00044BF83F08C03DBB283EA1115ED074FEA45
:1089E000530344BF83F08C03DBB283EA5115EE07D7
:1089F0004FEA530344BF83F08C03DBB283EA911543
:108A0000ED074FEA530344BF83F08C03DBB283EAE4
:108A1000D1155908EB0748BF81F08C01C0B248BF9F
:108A2000C9B282420346B0DC224492F8CC308B4279
:108A300096D10320FFF7CEFD92E70020FFF7CAFD95
:108A400094F8CD301E2B8BD198E70122232384F894
:108A5000F92084F8EF308FE7B823002007299DBF65
:108A6000034B03EB8101B1F8FC000020704700BF0D
:108A7000B82300201A4B93F81C2132B193F820211F
:108A80000021A82A83F81C1101D00020704793F818
:108A90003321002AF9D110B4DFED126A03F5907189
:108AA00003F1F80003F59872B4EE047ACC780B79F0
:108AB00003EB042307EE903AF8EEE77AB0EE666A2D
:108AC000A7EE876A02318A42FCEEC67A17EE903A28
:108AD00040F8043FEAD101205DF8044B704700BF25
:108AE000B82300200080BBC310B504460AF0A6FAE4
:108AF0000F4BD3F83821C3F83801801A41F288327D
:108B00009042E4B205D983F82041012283F83C2148
:108B100010BD93F83C219918142A81F8204103D103
:108B2000012283F81C2110BD0132D2B2EEE700BF52
:108B3000B8230020034B03EB4101B1F84001C0080A
:108B4000704700BFB8230020724B93F86021002AC1
:108B500000F0C28070B493F86141B3F8625103EB46
:108B60004401002091F8676191F8682183F8600161
:108B700042EA0622954202D0002070BC704793F86A
:108B80006521012A00F0AA80812AF6D10320102C49
:108B900040F2A68093F8694193F8675193F8681101
:108BA00093F86A2141EA052142EA04221024A3F83D
:108BB0004011A3F8422183F8614193F86B1193F8B7
:108BC0006C21032C42EA0122A3F84421D5D093F86A
:108BD0006D1193F86E21042C42EA0122A3F846217C
:108BE000CBD093F86F1193F87021052C42EA012243
:108BF000A3F84821C1D093F8711193F87221062C83
:108C000042EA0122A3F84A21B7D093F8731193F8EE
:108C10007421072C42EA0122A3F84C21ADD093F82D
:108C2000751193F87621082C42EA0122A3F84E210F
:108C3000A3D093F8771193F87821092C42EA012206
:108C4000A3F8502199D093F8791193F87A210A2C3E
:108C500042EA0122A3F852218FD093F87B1193F8B6
:108C60007C210B2C42EA0122A3F8542185D093F8F1
:108C70007D1193F87E210C2C42EA0122A3F85621A3
:108C80003FF47BAF93F87F1193F880210D2C42EADB
:108C90000122A3F858213FF470AF93F8811193F8A3
:108CA00082210E2C42EA0122A3F85A213FF465AF3B
:108CB00093F8831193F88421102C42EA0122A3F83F
:108CC0005C217FF45AAF93F8851193F8862142EA2C
:108CD0000122A3F85E2150E700207047104656E7B6
:108CE000002C3FF44AAF93F8671193F86821012CE8
:108CF00042EA0122A3F840213FF43FAF93F8691103
:108D000093F86A21022C42EA0122A3F842217FF45F
:108D100054AF32E7B823002038B504460AF08EF984
:108D2000444AD2F88C31C31AB3F57A6F16D892F848
:108D30009031C2F88C01B3B1022B1FD0242B92F8D2
:108D4000611175D901330231DBB249008B4282F8DF
:108D500090311BDB01318B4263D038BD0023C2F858
:108D60008C0182F89031A82CF7D1002382F8603171
:108D7000A2F8623192F86111204603E0E0B282F875
:108D800061010146D51885F86401DBE7B2F862316C
:108D9000E4B283EA042424B2002CB8BF41F22101DA
:108DA000A3B2B4BF81EA43035B009BB21C0446BF7D
:108DB00041F2210181EA43035B009BB2180446BFE4
:108DC00041F2210181EA43035B009BB2190446BFD3
:108DD00041F2210181EA43035B009BB21D0446BFBF
:108DE00041F2210181EA43035B009BB21C0446BFB0
:108DF00041F2210181EA43035B009BB2180446BFA4
:108E000041F2210181EA43035B009BB2190446BF92
:108E100041F2210181EA43035B009BB2A2F8623177
:108E200038BD0021012382F8901182F8603138BDED
:108E3000E0B2A7E7B8230020F8B5134D95F8A921B3
:108E40000AB90120F8BD114B1C6823685E6A46B15F
:108E5000204605F5CA71B047002385F8A9310120E5
:108E6000F8BD05F5CA77BE1800E023689B68204668
:108E700098470028F9D0236817F8011B1B68204683
:108E80009847B742F1D1E7E7B82300205472002099
:108E900003788B4210D9094B03EB810193F8DC3145
:108EA000D1F8AC011BB900F5777080B2704740086B
:108EB00000F5777080B2704700207047B82300201B
:108EC0002DE9F8430AF0BAF8CD4C054694F8DD01D7
:108ED00080B9042294F8A93153B1D4F800323BB1DF
:108EE000ED1AB5F57A7F03DB00231046C4F8003293
:108EF000BDE8F88394F8DE11002384F8DD31002901
:108F000000F0308194F8E031BE4F94F8F0215BB26C
:108F100013F1630FB8BF97F90030002A41D013F165
:108F2000310F80F2B18113F1380F80F2B18113F16A
:108F30003D0F80F2B18113F1420F80F2B18113F144
:108F4000450F80F2B18113F1470F80F2B18113F127
:108F5000490F80F2B18113F14A0F00F0B18113F192
:108F60004B0F00F0B08113F14C0F00F0B08113F102
:108F70004D0F00F0AF8113F15C0FB8BF642680F293
:108F80004981D4F8F401DFF888C200FB06F08CFBBD
:108F900000C6C017C0EB661004EB820680B2C6F8AC
:108FA000AC013B7094F8EC7194F8ED3194F8EE015B
:108FB00094F8EF611B0443EA0763334343EA002359
:108FC00003F0F020B0F1E02F00F0C380102794F8F8
:108FD000040294F8E231D4F8086294F80CC23678AE
:108FE000034103F00F039E4210D90B2B0ED8002A29
:108FF00040F0F38094F8E28194F8E3E104EB83031A
:109000000CEA08080EEB082EC3F8ACE194F8E43142
:10901000034103F00F039E4210D90B2B0ED8002AF8
:1090200040F0DF8094F8E48194F8E5E104EB8303F9
:109030000CEA08080EEB082EC3F8ACE194F8E63110
:10904000034103F00F039E4210D90B2B0ED8002AC8
:1090500040F0CB8094F8E68194F8E7E104EB8303D9
:109060000CEA08080EEB082EC3F8ACE194F8E831DE
:10907000034103F00F039E4210D90B2B0ED8002A98
:1090800040F0B78094F8E88194F8E9E104EB8303B9
:109090000CEA08080EEB082EC3F8ACE194F8EA31AC
:1090A000034103F00F039E423ED80D2F32DD94F8AA
:1090B000EC31034103F00F039E4210D90B2B0ED865
:1090C0000AB19A420BD094F8EC8194F8EDE104EBEC
:1090D00083030CEA08080EEB082EC3F8ACE1102F4E
:1090E00018D194F8EE3143FA00F000F00F008642F8
:1090F00010D90B280ED80AB190420BD094F8EE216B
:1091000094F8EF3104EB800002EA0C0C03EB0C2323
:10911000C0F8AC31D1B194F8E2311B0616D4C4F8D2
:10912000005205220120D5E60B2BBED80AB19A4287
:10913000BBD094F8EA8194F8EBE104EB83030CEAEA
:1091400008080EEB082EC3F8ACE1AEE705220120BB
:10915000C0E694F8E20100063FF538AF2A480C2734
:10916000036034E709F06AFF2649284B4A78A3FBDD
:1091700000035B0C12B394F8E00194F8E121D2B241
:10918000122A18BF012A08D002F0EF02A2F1A202AF
:10919000B2FA82F2520902B94A70D4F8F81194F87E
:1091A000F02199B18B4228D0591A012956D094F850
:1091B000DE11A4F8FC01C4F8F831F3E694F8E021DC
:1091C00094F8E10100EB022080B2E6E7A4F8FC018C
:1091D000C4F8F83194F8DE11E4E693427FF40AAF64
:1091E00014E793427FF41EAF28E793427FF432AF37
:1091F0003CE793427FF446AF50E794F8DE11D1E6A6
:10920000B823002000000020A41F002083DE1B43A1
:109210001F85EB516FF05B080C26304806F1FF39D3
:1092200000EB490E00EB46069EF801E096F801C0FF
:1092300010F91960ACEB0E0C981B00FB0CF0A8EBBE
:10924000060690FBF6F0704440B2002801DA0026D2
:1092500097E66428A8BF6420064692E6002AA6D0B6
:10926000B4F8FC61D4F8F4111D4F861B143E01FBC9
:1092700006F187FB0176C917A1EBE60104EB820634
:1092800089B2C6F8AC1192E76FF030080126C4E746
:109290006FF037080226C0E76FF03C080326BCE7F2
:1092A0006FF041080426B8E76FF044080526B4E7DC
:1092B0006FF046080626B0E76FF048080726ACE7CF
:1092C00098460826A9E76FF04A080926A5E79846B8
:1092D0000A26A2E798460B269FE700BF04A50408CC
:1092E00067666666344B5B68C3F3080370B4CBB93A
:1092F000EFF31183B3B9314A314E324D1368AC6884
:1093000011688B42FAD131688C42F7D82E4A156821
:109310004FF47A7101FB05F2141BB4FBF5F401FB69
:10932000034321E0EFF31181102383F3128803F14B
:10933000E023C9B29D681A6812F4803F234A1EBF19
:10934000012414609D681D4B1E68136881F3118809
:109350001D4A14684FF47A71334401FB04F2521B26
:10936000B2FBF4F201FB0323194AD2F81012C2F83F
:1093700010325B1A41F288318B420AD9C0B2012304
:1093800082F8E00182F81432002382F8DD3170BCEB
:10939000704792F814320F2BF9D8D1180133DBB291
:1093A000C0B2102B81F8E00182F81432ECD1012315
:1093B00082F8DD3170BC704700ED00E0D4AD0020D4
:1093C000BCBD002010E000E0B8BD0020B4BD00200E
:1093D000B8230020036933F8110000EB8000C010AF
:1093E00000F55C7080B27047436993F82320002A2F
:1093F00000F0CF802DE9F0477B4ADE7D1278002116
:109400001A2A06F0040506F0080483F8231000F079
:10941000C280002D40F0CC80002C40F0D980254641
:1094200093F802A093F8068093F801E00269DF78D0
:1094300093F8049093F807C00AF0070008F00F01B2
:109440004FEAC1184EEA002107F03F07187A118051
:10945000997893F805A093F80AE07F0147EAD107CD
:10946000D97857804FEA890949EA9119997B0AF01E
:10947000010A01F03F014F0149EA8A21918059799F
:1094800048EA5101D1800CF07F0C997993F807805C
:109490004FEA0C1C4CEA111C597AA2F808C0400093
:1094A00040EAD81001F0030140EA412093F80DC0D2
:1094B000D97A50810EF01F0E587A4FEA8E1E4EEA6E
:1094C00090009081187B93F80AE00CF0070C40EABA
:1094D0000C20C90093F80DC0108241EA5E11D181C1
:1094E00047EADC01518293F80FE093F80E80597C33
:1094F000DF7C93F812C0587D4FEA8E0E4EEA981E1C
:1095000093F8108008F001084EEA882E01F00F0150
:1095100093F81280A2F814E093F810E07F00C901DC
:1095200041EA5E0147EAD81793F814E093F81180F6
:10953000D1820CF07F0C4FEA0C1C997D0EF0030ECB
:109540004CEA181C47EA4E2716F0010F93F814E076
:10955000A2F818C000F01F0093F815C0578340F21E
:10956000147314BF1F46AD278001C90016F0020F07
:1095700040EA9E0041EA5C1108BFAD239083D1838D
:10958000178453840CBB002D0CBF01200920BDE8BB
:10959000F0871046704715491F8C0E8075B147F053
:1095A00002021A8412B274B147F003021A8409E06D
:1095B0001A8C94B942F002021A8431E78CB147F058
:1095C00001021A8412B24A802AE70320BDE8F0871C
:1095D0001A8C42F001021A8422E742F003021A8434
:1095E0001EE73AB22546EEE734AC002038AC002046
:1095F0003B4B5B68C3F30803F0B42BBBEFF3118361
:1096000013BB384A384F394E1368B5681468A34203
:10961000FAD13C68A542F7D8354A16684FF47A74F7
:1096200004FB06F2551BCA69B5FBF6F504FB0353B0
:109630009A1A40F6AC54A2422EDC91F8224074B340
:10964000182C38D9F0BC7047EFF31184102383F342
:10965000128803F1E023E4B29E681A6812F4803F96
:10966000244A1EBF012515609E681E4B1F681368A3
:1096700084F311881E4A15684FF47A7404FB05F2CE
:109680003B44921BB2FBF5F204FB0323CA6940F68C
:10969000AC549A1AA242D0DD002281F822200F2871
:1096A000D0D10122CB61087081F82220002381F8FB
:1096B0002330F0BC7047631CDBB2192B81F82230D9
:1096C0000855F3D10C4B1B781A2B08BF0B4B4FF0EE
:1096D000010081F8230008BF9A80F0BC704700BFEA
:1096E00000ED00E0D4AD0020BCBD002010E000E0A3
:1096F000B8BD0020B4BD002034AC002038AC002040
:10970000094BDFED0A6ADFED0A7A03EB810191ED87
:10971000867AB8EE477AE7EE267AFCEEE77A17EE1D
:10972000903A98B2704700BFB823002001F11F3F64
:1097300000405C44714A92F8583233B192F85E327C
:109740000021162B82F8581201D00020704792F8A1
:109750005D32022BF0B440F2CE8002F5177018444F
:1097600002F25E21D32311F8014F634013F0800F02
:109770004FEA430318BF83F0D503DBB213F0800F29
:109780004FEA430318BF83F0D503DBB213F0800F19
:109790004FEA430318BF83F0D503DBB213F0800F09
:1097A0004FEA430318BF83F0D503DBB213F0800FF9
:1097B0004FEA430318BF83F0D503DBB213F0800FE9
:1097C0004FEA430318BF83F0D503DBB213F0800FD9
:1097D0004FEA430318BF83F0D503DBB213F0800FC9
:1097E0004FEA430318BF83F0D5038842DBB2BAD1F6
:1097F00092F87512994202D00020F0BC704792F89E
:10980000640292F8636292F8681292F86C3292F8ED
:10981000704292F86052B2F860C2D2F8607200F002
:109820000F00C00140EA560001F01F0192F8676284
:10983000C2F82402890141EA960103F03F0392F83D
:109840006B6292F86F02C2F830125B0143EAD603F2
:1098500092F85F12C2F83C3204F07F04B2F864322E
:10986000D2F86462240105F0070544EA101041EAC9
:109870000521C3F30A13C2F84802B2F86852C2F8CD
:109880001812B2F86A42D2F86C02B2F86E12C2F83C
:109890002832D2F87032C0F38A10C1F34A01C3F300
:1098A000CA13CCF3CA0CC7F38A37C6F3CA366D099C
:1098B000C4F30A04C2F84002C2F84412C2F81CC23F
:1098C000C2F82072C2F82C62C2F83452C2F8384290
:1098D000C2F84C3292F8743292F87302B2F87212F3
:1098E000DB0043EA5013C1F38A01C2F85432C2F8D4
:1098F0005012012081E7D3237AE700BFB82300206C
:10990000F8B5674B1C68E707054616D5654B93F815
:109910009C2293F89D1291423BD1D3F8A022AA42F7
:1099200002D8614A00211170D3F8C002281A002819
:1099300021DD012083F8C402F8BD14F4005449D19C
:109940005A4883689847C6071CD5594A554BC0F3F7
:10995000400110F00A0F917093F866202AD0052A72
:109960006BD04207D9D5012283F8C522D3F8A022B3
:10997000AA42D9D8D5E793F8C4020028DCD193F8DD
:10998000C502F8BD4107474BC7D5012283F8C52260
:10999000ECE7D3F8A402464C434983F89D222844BF
:1099A00001220025C3F8A0020120A5700A7083F8E7
:1099B000C402C1E7D3F8A412052A0D44C3F8A0528B
:1099C00051D0400767D4384A01210120117083F833
:1099D000C402B1E7334BB3F8A82212BBB3F8AA22F2
:1099E000FAB9B3F8AC22E2B9B3F8AE22CAB9B3F807
:1099F000B022B2B9B3F8B2229AB9B3F8B42282B99C
:109A0000B3F8B6226AB9B3F8B82252B9B3F8BA2299
:109A10003AB9B3F8BC2222B9B3F8BE22002A3FF407
:109A20007CAFD3F8A42222481F492A440024C3F85B
:109A3000A022012284700A7076E793F86720996E5D
:109A400003EB42060132B6F86C70A6F86C40C91BF5
:109A50000C0902F00F02A3F88C40440783F867203A
:109A6000996680D459E793F867109A6E03EB410426
:109A700002F2FF32B4F86C500131521B01F00F01B9
:109A800040F2FF3583F867101109A4F86C509A660C
:109A9000A3F88C1095E7012283F8C52293E700BF55
:109AA000A8CF0020B82300200D3C00204453002004
:109AB0000000002000207047002070470120704700
:109AC000024B03EB4101B1F8C8027047B8230020F4
:109AD000044B93F8EC0218B1002283F8EC22012029
:109AE000704700BFB8230020024B03EB8101B1F89F
:109AF000F0027047B823002003788B4283BF034BEA
:109B000003EB4101B1F8280300207047B82300207F
:109B100038B5394C054609F091FAD4F87C33C4F8CD
:109B20007C03C01AB0F57A7F1CDD0023282284F85C
:109B3000803384F8823384F8833384F881233D2D85
:109B400042D03E2D0DD12D4AC4F88423012384F840
:109B500082330123157084F8803394F881239A426C
:109B600020D038BD94F88023002AE8D0531CDBB203
:109B7000D4F8841384F88033062B8D54EDD194F8F7
:109B80008233012B27D094F88333012B27D0002375
:109B9000282284F8803384F8823384F8833384F86D
:109BA000812338BD94F88233012B04BF022384F84B
:109BB000823394F88333012B15D00022282384F8B4
:109BC000802384F8813338BD0D4AC4F884230123EF
:109BD00084F88333BDE78B78282BD4D8F1E78B78D2
:109BE000092BD4D8EDE7022384F8833309F026FA51
:109BF000C4F88803E1E700BFB82300200C27002049
:109C00000027002030B40246002305251E2400E072
:109C10000232032BD4BF0021012100F813100133BD
:109C2000042B04D0122B5470F2D130BC7047557005
:109C3000EEE700BF024B036043608360C360704780
:109C4000E803D007024B03EB4101B1F8A8027047CB
:109C5000B8230020024B03EB4101B1F8A802704782
:109C6000B823002030B4264C94F88233022B02D063
:109C7000002030BC704794F85653EDB1013D04F21A
:109C8000553353FA85F504F55570002210F8013B61
:109C9000534083EA0313DBB2120AD90042EA0322DB
:109CA000854281EA131382EA0302EFD122B1002038
:109CB00084F8820330BC7047B4F854335BBA9BB26B
:109CC00043F60162934209D043F60362934205D002
:109CD000002384F88233012030BC7047094AA2F186
:109CE0002E0102F12005D0799379023203EB002393
:109CF000C3F3CC03AA4221F8023FF4D1E8E700BF46
:109D0000B82300200C270020504B5B68C3F30803E6
:109D100070B4CBB9EFF31183B3B94D4A4D4E4E4DEC
:109D20001368AC6811688B42FAD131688C42F7D85D
:109D30004A4A15684FF47A7101FB05F2141BB4FB13
:109D4000F5F401FB034321E0EFF31181102383F3CA
:109D5000128803F1E023C9B29D681A6812F4803FAB
:109D60003F4A1EBF012414609D68394B1E6813686A
:109D700081F31188394A14684FF47A71334401FB36
:109D800004F2521BB2FBF4F201FB0323354AD2F872
:109D90008C13591AB1F5FA7F14D90021C2F88C330B
:109DA00082F8901382F89113C3B2042B26D0202B93
:109DB00024D092F8941309B9552838D0814216D18D
:109DC000002109E092F8911399B992F89013C2F822
:109DD0008C33C3B20029E8D092F8920354180138AA
:109DE000814284F89C331DD0013182F8901370BCFD
:109DF0007047013982F8911370BC7047002102242A
:109E00004FF6FF7082F89843A2F896035418581E34
:109E1000814282F8943382F8923382F8931384F863
:109E20009C33E1D1012382F8BC3370BC704701241C
:109E30001F2582F89403A2F8961382F89C3382F8C7
:109E4000934382F8984382F89253CDE700ED00E007
:109E5000D4AD0020BCBD002010E000E0B8BD002063
:109E6000B4BD0020B82300200D49B1F8BD3330B592
:109E700008224AF2010580EA030414F0010F4FEAB8
:109E8000530318BF6B4002F1FF3218BF9BB212F0B0
:109E9000FF024FEA5000EED1A1F8BD3330BD00BF44
:109EA000B8230020F8B5021F0446064600F1080753
:109EB000002152F8043F03F120003F2803F1080578
:109EC00003F1020340D80F2D19D8032B02D9002922
:109ED00008BF01219742ECD1012923D0022910D1DA
:109EE000206800F03F0040F0800020F065FC207901
:109EF00020F062FC207ABDE8F84020F05DBC022131
:109F0000E8E7D4E90030A2681B01800000F00C00F3
:109F100003F03003034302F003001843BDE8F840A8
:109F200020F04ABC206800F00F0040F0400020F014
:109F300043FCD4E9013000F00F0040EA0310C0B246
:109F4000BDE8F84020F038BC04F10C073A46002583
:109F500052F8043D03F18001FF2903F500404FEA68
:109F6000850506D9B0F5803F03F500031AD245F008
:109F70000105A242ECD165F03F00C0B220F01CFC0C
:109F800005F00303022B327828D0032B104617D09C
:109F9000012B0FD020F010FC0436B7424FEAA50584
:109FA000EED1F8BDB3F1807F34BF45F0020545F036
:109FB0000305DEE720F000FC707820F0FDFBEBE706
:109FC00020F0FAFB707820F0F7FBB6F90200C0B27F
:109FD00020F0F2FB96F90300C0B2DBE7104620F058
:109FE000EBFB707820F0E8FBB6F90200C0B220F07D
:109FF000E3FBD1E7084620F0DFBB00BF0FB400B59C
:10A0000083B004AB054953F8042B0193002029F0D9
:10A01000B9FD03B05DF804EB04B07047F59F00088C
:10A020000EB470B583B007AC0646482054F8045B04
:10A0300020F0C2FB202020F0BFFB304620F02EFB9A
:10A040003A2020F0B9FB2A46234609490194002012
:10A0500029F098FD04460A2020F0AEFB054A13685B
:10A0600003341B1B136003B0BDE8704003B070479E
:10A07000F59F000888530020F8B52A4C2A4D382255
:10A080000021204640F0D0F9284B95F8C373B3F86F
:10A090006020228410330FCB95F8C46384F82460C9
:10A0A000102F04F1080686E80F0009D80123204884
:10A0B000BB40184020B90FB93846F8BD012FFCD07D
:10A0C0001C4A1D491368216043F002034FF480715C
:10A0D0001A4E144813606660218328F0D1F9B5F850
:10A0E000D0330BB90120F8BD07EE903A9FED146A0A
:10A0F000DFED146AF8EEE77A002386EE277A012076
:10A10000C5F8D433C5F8DC33C5F8E43337EE267A26
:10A11000C6EE877AC5EDF67AC5EDF87AC5EDFA7A1E
:10A12000F8BD00BFA0100010B823002004130010D9
:10A13000011D01006C6A00208124030851240308DA
:10A1400083F9223E6F12833A2DE9F04F6F4F704C26
:10A150007B79704AB97DDFF8E091DFF8E08111701A
:10A16000003318BF0123FA7984F8683020210023D6
:10A170008FB0232089F8ED2389F8EC3384F862301E
:10A18000C8E90033C8E9023384F86C1009F016F806
:10A19000614AA369626102222274002B00F0B08040
:10A1A0001420A36108F032F899F8EE53E061002D15
:10A1B0005FD05A4E94F86030E26DC9F8F0230D2B51
:10A1C0003ED15749FA780B685648206043F00103A6
:10A1D0000B604FF07E53544923620F23E16584F8EE
:10A1E0006E30B879002A38D1BB7850495D1E84F8AA
:10A1F0006B5000283AD04FF08441C4F8631007EE4A
:10A20000903AD4F86330424884F86920B8EEE77A8F
:10A2100007EE903A67EE277A3B7984F86A30FCEED5
:10A22000E77AC8ED007A2CF0CDF9B079002384F8F4
:10A230006D3008B901200023B3710FB0BDE8F08F75
:10A24000B079002384F86E300028F4D094F86D00C3
:10A250000028F0D018460123EEE7072AC4D00023D7
:10A2600084F86B30324901230028C4D1C4F863104C
:10A27000C5E731F093F910B12023C57183714021F6
:10A280000CF09AF8642008F02BFFA06918B11C228A
:10A2900000238271C37109210CF08EF8A0691F4E52
:10A2A000DFF86CA00CF02AF9012389F8EE334FF0A7
:10A2B000000B204B05251C60002301AA7921504684
:10A2C0002CF0E2F828B1BDF80C30B380B388692BCC
:10A2D00012D8013DF0D10BF1010B42F20F73BBF12B
:10A2E000030FB3803FF466AF2CF00AFBC82000FBDD
:10A2F0000BF008F063FFDCE70D2384F8603059E7CA
:10A30000212007F083FF03464AE700BF84AE002008
:10A310000413001058050010003001400000002018
:10A320006C6A0020C5650308D13303080000FA42B7
:10A3300000007A44E8100010B823002044100010F8
:10A340002DE9F8439F4C0546D4F8003404F57D719F
:10A3500004F57F709847B4F9F43394F8182407EEA5
:10A36000903AB4F9F63307EE103AB4F9F83306EE42
:10A37000903AF8EEE77A944BB8EEC77AF8EEE66AD0
:10A38000023AC3ED007A83ED017AC3ED026A062A30
:10A3900014D8DFE812F0E400EB00F400FB00040145
:10A3A0000D010700B1EE477AF1EE677AF1EE666AC9
:10A3B00083ED007AC3ED017AC3ED026A834AD27954
:10A3C00082BB834AD3ED017AD2ED036A92ED047A1F
:10A3D00092ED052AD3ED005AD2ED002A92ED013A12
:10A3E000D2ED023A93ED026A92ED064AD2ED074AA7
:10A3F00092ED085A67EEA66A27EE877A67EE827AB0
:10A40000E5EEA26AA5EE837AE5EEA37AE6EE046AAB
:10A41000A6EE247AE6EE057AC3ED006A83ED017AB2
:10A42000C3ED027ADFF8BCE19EF80060720775D4D4
:10A43000D4F8442494F8661419B3B4F9521493ED83
:10A44000005A93ED016A93ED027A05EE901AB4F981
:10A45000541406EE901AB4F9561407EE901AF8EE5A
:10A46000E55AF8EEE66AF8EEE77A75EE655A76EEAA
:10A47000666A77EE677AC3ED005AC3ED016AC3EDF1
:10A48000027A002A48D0534BAD1A9D4217D9524A3E
:10A49000002302F10800911F951DC4F8443432F9DD
:10A4A000023B30F9024B234403EBD3735B10AA4207
:10A4B00021F8023BF3D1BDE8F8430DF08DBE00203A
:10A4C00008F06CFE404B454A03F10C0002F1080114
:10A4D00032F9024FF3EC017A07EE104AB8EEC77A70
:10A4E000FDEEE76AF4EEC77AF1EE10FA44BF16EE1D
:10A4F000904A148031F9024F07EE104AB8EEC77A3D
:10A50000FDEEE76AF4EEC77AF1EE10FAC4BF16EE7C
:10A51000904A0C808342DBD1BDE8F88330482A4959
:10A52000C4F8445400F1060C00F10E0701F10C09C7
:10A530004FF00008F1EC017A20F8028BFDEEE77A8B
:10A54000494517EE902A12B22CF8022B27F8022B5D
:10A55000F0D126F004068EF800602A466AE7F1EE94
:10A56000677AC3ED017A83ED007A27E7F1EE677A27
:10A57000B1EE477AC3ED007A83ED017A1EE7B1EEC2
:10A58000477A83ED007AC3ED017A17E7F1EE677A37
:10A59000F1EE666AC3ED007AC3ED026A0EE7F1EEF2
:10A5A000666AC3ED026A83ED007AC3ED017A05E7BE
:10A5B000B1EE477AF1EE666A83ED017AC3ED026A85
:10A5C000FCE600BFB82300202C5100200000002032
:10A5D000D82700207FC3C901102800200E280020A2
:10A5E0000A2800205C6D0020F0B5184E002383B0CF
:10A5F00004460821D6F8680486F89D3002AD09F0BB
:10A600007DF8D6F86804812109F078F88923D6F816
:10A61000686425F8023DE71D14F8010B324629460F
:10A6200026F0C0FFBC42F7D1BDF806301A0A52FA34
:10A6300083F3C3F1FF039BB23246D8B20021ADF8D9
:10A64000063026F0AFFF03B0F0BD00BFB8230020F6
:10A6500038B5384B5B68C3F30803CBB9EFF311830C
:10A66000B3B9354A354D364C1368A06811688B4232
:10A67000FAD129688842F7D8324A11684FF47A72C1
:10A6800002FB01F4241AB4FBF1F402FB034421E0C1
:10A69000EFF31181102383F3128803F1E023C9B291
:10A6A00098681A6812F4803F274A1EBF0120106084
:10A6B0009868214B1D68136881F31188214A11683D
:10A6C0004FF47A7404FB01F22B44121AB2FBF1F23C
:10A6D00004FB03241D4DD5F89830E31AB3F5FA6F47
:10A6E000C4BF002385F89C3095F89C301BB900232B
:10A6F000EB60012038BD00221549E86826F094FA85
:10A7000095F89C3073B9134B1B781B2B04D1D5F8EB
:10A710006C34114AE31AD3800023C5F86C44EB6013
:10A72000012038BD0D48FFF75FFF002385F89C30FE
:10A73000E9E700BF00ED00E0D4AD0020BCBD002083
:10A7400010E000E0B8BD0020B4BD0020B823002018
:10A750005424002034AC002038AC002020A504088C
:10A7600038B50D4C05460146D4F8700408F0C6FF14
:10A77000B4F87404082380EA052041F2210210F4A1
:10A78000004F4FEA400018BF5040013B80B2F6D165
:10A79000A4F8740438BD00BFB823002070B582B09F
:10A7A000044608F04BFC964AD2F8783403F24C4346
:10A7B00083420CD392F87C344BB1022B8ABF92F8BF
:10A7C0005D020520023098420DDC02B070BD01210F
:10A7D0000023C2F8780482F85C4282F87C1482F884
:10A7E000583202B070BD591CC9B288421344D4BF5C
:10A7F0000125002582F87C1483F85C4282F85852C7
:10A80000E3DC92F85E520023162D82F87C34DCD013
:10A810006B00290648BF83F0D503DBB213F0800F2D
:10A820004FEA430318BF83F0D503DBB213F0800F68
:10A830004FEA430318BF83F0D503DBB213F0800F58
:10A840004FEA430318BF83F0D503DBB213F0800F48
:10A850004FEA430318BF83F0D503DBB213F0800F38
:10A860004FEA430318BF83F0D503DBB213F0800F28
:10A870004FEA430318BF83F0D503DBB292F85D4281
:10A8800013F0800F4FEA430318BF83F0D503022C67
:10A89000DBB247D95B490C44023111F8016F7340B8
:10A8A00013F0800F4FEA430318BF83F0D503DBB2E8
:10A8B00013F0800F4FEA430318BF83F0D503DBB2D8
:10A8C00013F0800F4FEA430318BF83F0D503DBB2C8
:10A8D00013F0800F4FEA430318BF83F0D503DBB2B8
:10A8E00013F0800F4FEA430318BF83F0D503DBB2A8
:10A8F00013F0800F4FEA430318BF83F0D503DBB298
:10A9000013F0800F4FEA430318BF83F0D503DBB287
:10A9100013F0800F4FEA430318BF83F0D5038C4236
:10A92000DBB2BAD1104490F85B1299427FF44DAF7C
:10A930007A2D2AD022D97C2D27D07D2D7FF445AFCA
:10A9400092F86132042B4AD0052B34D0032B7FF4CC
:10A950003CAF92F8633292F862222B482B49202BAD
:10A96000A8BF2023092AA8BF092280F8292180F83E
:10A970002A310A724B721EF0A9FF26E7282D7FF4B8
:10A9800024AF234B01221A701FE7224A136E572B64
:10A990003FF71BAF204921480D684C6808219954A6
:10A9A00013440121C3F80150C3F80540136E017030
:10A9B0000933136609E71A4B1B78EBB1124C0121DE
:10A9C00094F8292104F590703FF02EFD154B164A9E
:10A9D0001B6801212D3384F82B111360F5E6104B11
:10A9E0001B78002B3FF4F1AE02A9002301F8013DD2
:10A9F00006481CF091FBE8E61EF068FFE5E600BFA4
:10AA0000B823002014260020A8700020D471002054
:10AA1000A5700020EC71002019260020A6700020EF
:10AA2000C4510020D4AD0020584E00202DE9F04F35
:10AA3000DE4C94F8BC338BB023B9002318460BB01E
:10AA4000BDE8F08F94F8933394F892030022012B21
:10AA500084F8BC2345D094F89C53023D15F0FF05C3
:10AA600000F09F8104F567710D444FF6FF7311F8F4
:10AA7000012B9B1AA9429BB2F9D11A0A204490F8E3
:10AA80009B139142D9D190F89A23DBB29A42D4D148
:10AA900094F89433202B40F07D8194F898138B1C0C
:10AAA00009938B1D019301F10803029301F10A033D
:10AAB000039301F10C03049301F10E03059301F1DB
:10AAC0001003069301F11603079301F1180301F136
:10AAD000040A01F1120801F11407089301F11A0B9D
:10AAE000AFE094F89813B4F896E38B1C671854FA07
:10AAF00083F6099301F1040A97F89C3397F89DC3F4
:10AB000096F89C5396F89D7354FA8AF673448A1DFE
:10AB100096F89DE301921D4496F89C3354FA82F610
:10AB200005EB0C2501F1080296F89DC302922B4417
:10AB300096F89C5354FA82F603EB072301F10A02BC
:10AB400054FA82F72B4496F89C53039203EB0E239E
:10AB500001F10C0297F89DE396F89D6304921D4461
:10AB600097F89C3354FA82F705EB0C2501F10E029D
:10AB700054FA82FC1D4497F89C33059205EB062598
:10AB800001F110029CF89C6397F89D739CF89DC39B
:10AB900006922B4454FA82F503EB0E2301F11208BE
:10ABA00095F89DE3334495F89C6354FA88F503EBDC
:10ABB000072301F1140795F89D93334495F89C639E
:10ABC00054FA87F501F1160203EB0C23334495F890
:10ABD0009CC3079254FA82F603EB0E2301F118028C
:10ABE00095F89D530892634496F89CE396F89DC3AC
:10ABF00003EB092354FA82F6734401F11A0B96F819
:10AC00009CE396F89D6303EB052354FA8BF52044EF
:10AC1000734495F89CE390F89B9395F89D5390F8B6
:10AC20009A0303EB0C239E440EEB062E0EEB052E2F
:10AC300000EB09291FFA8EFE1FFA89F9F1457FF40E
:10AC4000FCAE099B54FA83F2019B54FA83FC029BED
:10AC50009CF89D939CF89CC354FA83F30193039B47
:10AC600054FA83F6049B54FA83F5059B54FA83F057
:10AC7000069B54FA83F3029354FA88F30393079BD9
:10AC800092F89D8392F89C2354FA83F32144059310
:10AC9000089B54FA8AFE54FA87F791F89DA391F81D
:10ACA0009C13049754FA83F39EF89D7306939EF8C1
:10ACB0009CE3019B01EB0A2102EB08220EEB072E1D
:10ACC00093F89D8393F89C73C4F8F01296F89D3323
:10ACD00001930CEB0921C4F8FC1295F89DC396F87A
:10ACE0009C6395F89C53019BC4F8F42206EB032661
:10ACF000049B029AC4F8F8E293F89DE393F89C331E
:10AD000092F89D9392F89C13039A019603EB0E23FD
:10AD1000C4F81833059B90F89DA3019E90F89C03FE
:10AD2000C4F8046307EB082701EB092192F89D831F
:10AD300092F89C2393F89D63C4F8101354FA8BFB8C
:10AD400093F89C13069BC4F8007305EB0C2500EBED
:10AD50000A2002EB0822C4F80853C4F80C0393F845
:10AD60009D539BF89D03C4F8142393F89C239BF8F0
:10AD70009C3301EB062103EB0023C4F81C13C4F839
:10AD80002433012302EB05221846C4F820230BB01C
:10AD9000BDE8F08F064825F07DFC002384F8910380
:10ADA0004CE6FF224FF6FF7368E600BFB823002091
:10ADB00054270020F8B508F041F9274E054600F168
:10ADC000FA07344696F8A03406EB8303D3F88004E0
:10ADD0000CF0D0FD38BB94F8A03404EB8303D3F817
:10ADE00080040CF0C7FD28B308F028F9D4F8A83483
:10ADF000401B9842C4F8A4042BD805F5FA7594F8C2
:10AE0000A03404EB8303D3F880040CF0B3FDB0B995
:10AE100094F8A03404EB8303D3F880040CF0AAFD6B
:10AE200090B1002005E008F009F9B842CAD94FF006
:10AE3000FF30F8BD08F002F9B842CCD9F7E708F0C6
:10AE4000FDF8A842DBD9F2E708F0F8F8A842DFD90C
:10AE5000EDE70120EDE700BFB823002038B500245E
:10AE600005460470FFF7A6FF431C11D0012803D14B
:10AE70002B78A040184328700134082CF2D1054AE1
:10AE80002B7892F8AC144B4082F8AC34012038BDDA
:10AE90000020FCE7B82300202DE9F843204C214D89
:10AEA000266807460236A84695F8A03405EB8303CA
:10AEB000D3F880040CF05EFD10BB08F0BFF800F181
