:020000040800F2
:1000000000200010F5250308C9AC010891E40008A0
:10001000C7AC0108C5AC0108C3AC01080000000072
:10002000000000000000000000000000C1AC01085A
:10003000BFAC010800000000BDAC0108912302081C
:100040005D2603085D2603085D2603085D26030878
:100050005D2603085D2603086D2B0208992C020813
:100060005D2C0208212C0208E52B0208FD45020840
:10007000ED450208DD450208CD450208BD450208F0
:10008000A9450208954502085D2603085D26030878
:1000900061F601085D2603085D260308A92B020806
:1000A0005D260308DD1602080913020899170208E5
:1000B00021160208651502085D2603085D2603085F
:1000C0005D2603085D2603085D2603085D260308F8
:1000D0005D260308C92402084D240208D123020822
:1000E000312B02085D260308ADAC01085D2603082C
:1000F000D51302085D2603089D1402085D26030837
:100100000000000000000000000000005D26030861
:100110005D2603085D2603088567000871670008EF
:10012000814502086D450208594502084545020807
:10013000314502085D2603080000000000000000B1
:100140005D2603085D2603085D2603080000000005
:10015000000000000000000000000000000000009F
:1001600000000000000000005D2603085D26030873
:100170005D260308000000000000000000000000F1
:08018000000000005D260308E9
:10018800F0B45D4E5D4832785D4B5E4DDC6B2D788A
:100198000132A0FB0270000900EB8000A2EB800096
:1001A8001A683070914201EB04005C6811D293F830
:1001B8004520002A4ED000F58030B0FBF5F084428F
:1001C8000BD2041B4FF4803292FBF5F2A21A9A600C
:1001D8000AE0B0FBF5F0844244D34FF4803292FB3E
:1001E800F5F2121B02449A6040F68C240025A242C4
:1001F800C3E9001083F8455017D993F8402093F9C4
:1002080042108A4256B241D0002093F9411083F837
:1002180043008A4247D00121002283F8426083F8D4
:10022800441083F84020F0BC704793F8441000292C
:10023800F9D0A2F2EF2040F2DA5188421AD893F8A6
:1002480040100B2916D803EB81000131C26083F8F6
:100258004010E8E7B0FBF5F08442BED2041BA21AB6
:100268009A60C1E793F84520002AAAD1041BA21A74
:100278009A60B9E7244A002102F1300083F844105B
:1002880042F8041F8242FBD1F0BC7047111F0829B5
:10029800BAD893F84310182926D8013183F84310A7
:1002A80093F94110B5E793F844100029B3D0FAB197
:1002B8001649154C0FFA82FC084601EB4C0754F816
:1002C800045F20F8025BB842F9D10B2A07DC10481A
:1002D80001EB4C02002122F8021B9042FBD10D4990
:1002E8000A7801320A7096E783F84160314690E750
:1002F80094460649EBE700BF901C0020CDCCCCCC3F
:10030800405A002048070020485A0020D0290020E1
:10031800E8290020C029002030B40E4D0E4B2A7861
:100328000E4C0132A3FB02031B09E06B03EB8303B2
:10033800A2EB83034FF6FF72914200F101002B708C
:10034800084408BF0123E06308BF84F8453030BC87
:10035800704700BF901C0020CDCCCCCC405A002068
:10036800002800F02581B74B1A7CF0B4002A40F031
:1003780095801968002201280A6043D093F8281054
:10038800002941D19969002202280A603AD093F8DD
:10039800401000295DD1196B002203280A6031D072
:1003A80093F85810002940F09E80996C0022042888
:1003B8000A6027D093F87010002940F0FA80196E6F
:1003C800002205280A601DD093F88810002940F003
:1003D8001481996F002206280A6013D093F8A010A0
:1003E800002940F03981D3F89010002207280A60CC
:1003F80008D093F8B810002940F0B480D3F8A8309A
:1004080000221A60F0BC7047D9698F4D8C0AAC4243
:100418000AD000F29D80B4F5801F00F08A818B4AD3
:10042800944240F07A810222EFF31184502585F33B
:100438001288874E4F6A4D6902EB820206EBC202B0
:10044800013745F001059762E4B24D6184F31188E4
:1004580098E7596B7C4D8C0AAC420AD000F21F8198
:10046800B4F5801F00F06981784A944240F05781C2
:100478000222EFF31184502585F31288744E4F6AD7
:100488004D6902EB820206EBC202013745F0010515
:100498009762E4B24D6184F311887CE759686A4C2D
:1004A8008A0AA24200F0418148D8B2F5801F00F0C4
:1004B8003A814A3CA24240F02A810222EFF3118499
:1004C800502585F31288624E4F6A4D6902EB82020D
:1004D80006EBC202013745F001059762E4B24D61AF
:1004E80084F3118845E7D96C574D8C0AAC420AD081
:1004F80000F2DD80B4F5801F00F00381534A944276
:1005080040F01D810222EFF31184502585F31288F3
:100518004F4E4F6A4D6902EB820206EBC202013769
:1005280045F001059762E4B24D6184F31188996C36
:10053800002204280A607FF43DAF63E7454CA242DD
:1005480000F0EF800534A24240F0E1800422B5E7D4
:10055800404A944200F0EB800532944240F0DD803E
:10056800042261E7D3F8AC10374C880AA0420AD0BD
:1005780000F2BD80B0F5801F00F0ED80334A904254
:1005880040F0ED800222EFF31180502484F31288AA
:100598002F4D4E6A4C6902EB820205EBC20501360B
:1005A80044F00104AE62C2B24C6182F3118825E7BF
:1005B8007047596E244D8C0AAC4209D07FD8B4F5E7
:1005C800801F00F0A280214A944240F0BA800222A3
:1005D800EFF31184502585F312881D4E4F6A4D693B
:1005E80002EB820206EBC202013745F00105976271
:1005F800E4B24D6184F31188E1E6D96F124D8C0A9B
:10060800AC4209D063D8B4F5801F00F082800F4A4D
:10061800944240F098800222EFF31184502585F32C
:1006280012880B4E4F6A4D6902EB820206EBC2023A
:10063800013745F001059762E4B24D6184F31188F2
:10064800C7E600BF8C5A00204B00100001001000C4
:10065800901C00204D001000D3F89410414D8C0AD6
:10066800AC4207D03BD8B4F5801F70D03E4A9442C4
:100678006BD10222EFF31184502585F312883B4E8B
:100688004F6A4D6902EB820206EBC202013745F060
:1006980001059762E4B24D6184F31188A3E6344AF8
:1006A800944248D00532944239D10422E1E6304AD6
:1006B800944224D00532944241D1042223E72C4AA3
:1006C800944220D0053294423BD1042280E7284A44
:1006D800944220D00532944235D104229CE7244A22
:1006E800944236D0053294422FD10422C2E7204AE0
:1006F800904232D00532904231D1042243E703229E
:1007080001E70122FFE6032262E7012260E7FE22F9
:10071800D4E6012280E703227EE7FE2284E6FE2259
:10072800A7E60322CAE60122C8E60022C6E603229B
:100738007AE6012278E603229BE6012299E6FE2268
:10074800E1E6FE2244E7FE2266E7FE2292E7012266
:1007580090E703228EE7012215E7032213E7FE2222
:1007680011E700BF4B00100001001000901C002092
:100778004D001000704700BF70B4150BC2F303247E
:10078800064605EB450504EB44044800C2F3031391
:100798001835183402F00F02356003EB430346F8AE
:1007A800214002EB420201441833183246F8203047
:1007B800062046F8212070BC704700BF2DE9F04F95
:1007C80012F4004F14BF4FF00E0B4FF0070B12F44A
:1007D800804F14BF4FF00E0A4FF0070A12F4005F63
:1007E80014BF4FF00E094FF0070912F4805F14BFD1
:1007F8004FF00E084FF007084FEA410C12F4006F53
:1008080083B001EB0C0714BF4FF00E0E4FF0070E2C
:1008180012F4806F01EB070614BF0E2307238D190E
:100828000193034612F4007F01EB0504C3F800B0FE
:1008380018BF0E2043F821A008BF072043F82C90CA
:1008480012F4807F01EB040C43F8278043F826E07C
:1008580001EB0C0714BF4FF00E084FF00708019E7C
:1008680043F8256012F0800F01EB070614BF4FF024
:100878000E0E4FF0070E12F0400F43F8240001EB64
:10088800060514BF0E20072012F0200F43F82C8015
:1008980001EB050414BF4FF00E0C4FF0070C12F0DB
:1008A800100F43F827E043F8260018BF0E2701EB86
:1008B800040008BF072712F0080F43F825C018BF27
:1008C8000E2643F8247008BF07260C1812F0040FF0
:1008D80043F8206018BF0E2501EB040008BF072568
:1008E80012F0020F43F82450014414BF0E240724C9
:1008F80012F0010F43F8204014BF0E2207221220E5
:1009080043F8212003B0BDE8F08F00BF704700BF57
:10091800024B1A889B7802808370704794380308CA
:1009280070B4104A104BB2F90060B2F902501C784A
:100938000E4940F6E44202FB00F2120B42F2107339
:1009480003FB02F393FBF6F32B4481FB0310222CE9
:100958004FEAE373C3EBA00002D1054B1A8058801D
:1009680070BC70476C6A0020986B002067666666EA
:100978001C6B00200A4BD3F8CC1081B130B4D3F8EB
:10098800D050084C0020642202FB05F2C3F8CC00CA
:10099800B2FBF1F2C3F8D000228030BC7047704738
:1009A800901C0020F82D002070B505466C0032F030
:1009B80037F82A49631901EB43131E7B06B970BD4A
:1009C800274AD2F8D46080B22EB192F8DC6016B90A
:1009D80092F8DD6066BB2C4401EB4414214B227D68
:1009E800208142EA400290B2021282EA101242408A
:1009F80002F00F0242EA00121B781B4800262675F7
:100A080092B20668E3B9602000FB05101830012196
:100A1800B04721696368B1F82C216489DB682243F7
:100A2800A1F82C2158601A6842F001021A6070BDC2
:100A38002A4492F8DE000028CDD001221A75CAE7B0
:100A4800636820695B7903F0FC030C3318440421C4
:100A5800B04723698000188170BD00BF585C002032
:100A6800901C0020545C00204C5C002038B500EB42
:100A78004000084DC4002B1993ED027AD3ED037A98
:100A8800E7EE007AB0EE670A31F0CAFF2B5918601A
:100A980038BD00BF8C5A002070B4044600F16C06C3
:100AA800064D0FCD2D88258220606160A260E3602D
:100AB8001234B442F4D170BC704700BF98380308B0
:100AC80010B5292020F0F4FB044618B111220023A8
:100AD8008271C3712021204621F038FE0A2021F0BE
:100AE80051FB204622F016F8034B002814BF0222BF
:100AF80001221A7010BD00BF7C970020044B93F8A8
:100B0800FC20D3F8EC000AB921F09ABF21F09EBF6F
:100B1800901C0020044B93F8FC20D3F8EC000AB991
:100B280021F094BF21F08CBF901C00202DE9F043E8
:100B3800012085B00BF0B0FA294E2A4F0546002453
:100B4800002D3BD0022C39D8DC236343F35813B172
:100B58000134E4B2F4E7032295F90200029301920A
:100B6800EA7857F82220009201211A460BF034F94E
:100B78008146C8B12B88DC2504FB056013F40F7887
:100B880005FB04F54FF0D8024FF0000100F1040016
:100B980018BF03F0010832F00CFE7319013446F84F
:100BA800059083F8DA80E4B20F49104891F80021E3
:100BB8008C46D3B2032B04D98CF8003105B0BDE8BC
:100BC800F08302F1010E00EBC20530F83220013348
:100BD800D207DBB202D581F80031B1E77246E8E707
:100BE8004C570020E8400308901C0020187400208F
:100BF8006D4B1B78002B3AD070B56C4B6C4A9B79C7
:100C0800D2F80441C2F80401013B041B032B00F293
:100C18008480DFE803F04602312B30F0C5FA654BDB
:100C2800654D19786B8801F0010100287BD0634875
:100C3800634AD0ED037A9360002940F08A8003FB71
:100C480004F007EE900ADFED5F6A5F49B8EEE77AD5
:100C5800D2ED017AE7EE267AC1E90033BDEEE77AF4
:100C6800C2ED017A82ED007A81ED027A70BD564AB2
:100C7800C2E9003393607047544B1B681B01F5D5DC
:100C8800FF201DF00BF918B103780A2B6FD900204B
:100C980003464D4A4E499060C1E90003C2E900335A
:100CA80070BD4C4A4C4BD2794C4D33F81260B6B2F9
:100CB8003046FFF735FE07EE906AE860B8EE670A3F
:100CC80047481FF011FBBCEEC00A10EE103A98B26C
:100CD800FFF726FEE968D5ED017ADFED3A6A3A4B6F
:100CE800404AA86001FB04F407EE104AB8EEC77A40
:100CF8001860E7EE267A107859602228BDEEE77A68
:100D0800C5ED017A17EE102A83ED027A85ED007A97
:100D1800ACD1354B9980DA8070BD2B4B0022C3E9EA
:100D280000229A6070BD294A1268D2067FF57FAF0B
:100D3800234A9360002982D0B5F900502B4900FB63
:100D480005F081FB0051C017C0EBA110034493606C
:100D580075E7FDEEE77A264E17EE900AA0F57A7051
:100D680000FB00F1A6FB016100EB1110E4E7214A4A
:100D7800214B51881A68D0ED027ADFED206A204CA9
:100D8800436802FB01F207EE102AF8EEE77AB8EEA4
:100D9800477AA4FB0121E7EE267A03EBD103FDEEA7
:100DA800E77A17EE900A74E7346B0020746A002023
:100DB800901C002024360020706A0020903100200A
:100DC8009C6B00202FE33E31106B00203C5A002022
:100DD800A86B0020344B0020544B0020886B002067
:100DE800981D0020986B00201C6B0020D34D6210CA
:100DF8001F85EB5190370020884E00207D219534C7
:100E0800CDCCCCCCF8B5424B5B79012B2FD0022B43
:100E18000ED0404B00221A603F4B1B78022B00D0AB
:100E2800F8BD3C4A3D4B5188128819805A80F8BD5C
:100E38003B4B1B681B01EFD5FF201DF02FF8002846
:100E480062D003780A2B51D99FED360A0023364C1D
:100E5800201D63801FF048FABCEEC00A10EE103A5D
:100E68009BB223802B4A618851801380D4E72F4A94
:100E78002F4B92782F4C33F812102F4F8DB207EE6C
:100E8800905A2046B8EE670A1FF02EFABCEEC00A48
:100E98003978DFF8ACC07E781E4810EE103A40F67C
:100EA800E44202FB01F29BB202FB05F102FB03F3F1
:100EB800ACFB0323ACFB011244F6FB71BD7801EBDC
:100EC800531301EB5211C6EB0632B3FBF2F3B1FB3D
:100ED800F2F2B3FBF5F3B2FBF5F29BB292B224F84F
:100EE800043C24F8022C0380428095E7B0F90220E4
:100EF8001249D31781FB0212C3EBA2039BB207EE80
:100F0800903AB8EE670AA2E7074C2388AAE700BF21
:100F1800746A0020086B0020986B00201C6B00206E
:100F28003C5A002000000000606B0020344B002079
:100F3800544B00203C6B0020686A00206766666698
:100F48001F85EB5170B5294D294C2A496A792A4EDB
:100F58002A4804230B7084F82C3100216423012AC9
:100F680084F83531A4F82E11A4F8301184F834111E
:100F7800C4F83811317001601ED0022A10D0A97946
:100F88001F4A00230129136084F83C31C2E9013368
:100F98001ED0022903D11B4AC2E90033936070BDF9
:100FA8002822194832F005FC44F620619FED170A03
:100FB800174822F0FBFEE2E72822164832F0F9FB38
:100FC80044F620619FED110A134822F0EFFED6E7A0
:100FD800124A9FED130A1360C2E90133D360114826
:100FE80044F62061BDE8704022F0E0BE746A00203B
:100FF800901C0020356B0020346B0020086B00200B
:10100800106B00209C6B0020606B0020CDCCCC3D89
:10101800646B0020386B00203C6B0020886B00203C
:10102800CDCCCC3E981D00202DE9F843954E346870
:10103800E00500F1CD80944D944B95F84281002253
:101048001A70B8F1000F00F0B3800921904822F01F
:10105800DFFA002800F0A78044F010048D4A8E4B78
:101068001768346017F48057B3F9069060D18B4B3A
:101078009B8A4B456FDC44F04004894B34601B78F5
:10108800190706D41E21824822F0C2FA002800F06F
:10109800C18024F08004834B1B88642BB5F844314D
:1010A8008CBF44F4806424F480641BB17E4B1B68BD
:1010B8009A0704D47D4BD3F8B430002B4ED044F4B7
:1010C80000647B4B346003F1780102E006338B4205
:1010D80016D01A781F2AF9D19878DA78904202D374
:1010E8005A79002AF2D01F21694822F091FA20B1DA
:1010F800704B1B785B0740F1948044F400743460B3
:101108002221634822F084FA58BBB8F1000F2ED090
:10111800002C46D1002385F8463120F0E1FFD5F8B0
:101128004831C01A002841DBBDE8F8430AF012BE76
:101138001821574822F06CFA002898D15E4B1A7B88
:10114800002A94D15549DA884B8A991A494592DA86
:1011580013444B458FDD24F040048EE724F40064EB
:10116800AFE744F400343460B8F1000F19D195F8B2
:101178004031002B3AD19846002F41D100214448F4
:1011880022F046FA002856D0002CC3D0B8F1000F40
:1011980007D1002F49D020B924F400243460002C52
:1011A800B8D00223B7E724F0100457E7BDE8F88366
:1011B800424A95F8433117787BBB7FB341463448A0
:1011C80022F026FA00284AD124F00804346025E0E9
:1011D8003B4A3C4B91791A684FF47A7303FB01F34D
:1011E80093429CBF24F48074346024E724F40028DC
:1011F80028F40068B8FA88F84FEA5818002FBDD0CC
:101208001821234822F004FA18BB2B4B1B7B53B33D
:101218000746B3E744F080043DE767BB85F84371B0
:1012280013E724F4007434606AE70028B4D044F467
:1012380000243460B5E724F02004014614483460E3
:1012480022F0E6F93CB1B8F1000FA4D1002FA2D1E9
:10125800EBE7002792E700287FF45CAF9CE744F0B7
:1012680008043460DAE724F4002727F04007B7FAC7
:1012780087F77F0982E74146054822F0C9F9002827
:10128800CCD1A1E7C8370020901C0020F89400209A
:10129800A42A00203C5A0020FC370020106A0020B5
:1012A800DC370020F82D002030380020B03D002029
:1012B800FA2D0020243600205C990020CC2900203B
:1012C800F86A0020884E0020F8B5734A1378D807CA
:1012D80000D4F8BD23F00103137020F001FF6F4B19
:1012E8006F4D9A78C5F84C01002A2CD16D4B1B889C
:1012F800002B4FD16C4A6D4B1178186881F00101B1
:1013080021F0AAFB6A4E6B4C33782BB123781BB1C2
:10131800694B1B68D9045BD5684B1B680022227097
:101328009A06D6D4664B1B689B0300F1AB806549CF
:1013380000220B461878042803F10C0333D001323D
:10134800182AF7D1C5E71B79022BCFD05E4C23783A
:101358000B2B18D801229A4040F6030112EA010625
:10136800C4D112F4C06F0ED0093B012B0BD8452015
:101378002BF084FEFF202BF081FE54482BF04EFE0C
:1013880030462BF07BFE524A524B12685A600B23B0
:101398002370ABE7504B5A69002AB3D01968002272
:1013A8000A605A74AEE74D4D2C68530034B1981852
:1013B80001EB800064784078A0428AD21A44484CF5
:1013C8004848002301EB8201296023800360F8BDAF
:1013D800454B1F7820F084FE3378002B9CD0D5F83D
:1013E800D420002A98D100F51C5010300A214FF45F
:1013F8007A72C5F8D40085F8DD10C5F8D820002F1A
:101408003BD03A461421394832F0D3F9384A138987
:10141800012FB3FA83F34FEA53132ED0B2F86810B2
:10142800002918BF0023022F27D0B2F8C8100029BE
:1014380018BF0023032F20D0B2F82811002918BFA5
:101448000023042F19D0B2F88811002918BF0023EF
:10145800052F12D0B2F8E811002918BF0023062F73
:101468000BD0B2F84812002918BF0023072F04D068
:10147800B2F8A822002A18BF002383F0010385F8D8
:10148800DC3049E71B4B1B78032B7FF450AFBDE8DA
:10149800F8400AF02FBE00BF24360020DE370020B7
:1014A800901C0020604E0020624E0020644E0020F8
:1014B800445C0020F89400203C5A0020C8370020E3
:1014C800286B0020E8420308DC900020F064030841
:1014D800884E0020742E0020684E00200031002025
:1014E8002031002024310020366B00206E1D0020A2
:1014F800585C0020356B00202DE9F04F2DED0C8B4A
:1015080095B0059014F01AFA0B4B1B78052B00F0D8
:10151800DB840A4DD5F8503107938BB1013BC5F8F0
:101528005031054B1B78012B00F0718415B0BDECD0
:101538000C8BBDE8F08F00BF986B0020901C00203A
:10154800D14AD5F854311278511EC5F85011002BE4
:1015580000F07582013BC5F85431CC4B0693CC4B57
:101568001A78052A00F0928200230893C94BCA49C9
:101578001B78D1F8009023B9C84B1B78002B40F09A
:10158800A285C74B2B2AD3ED009A01F06D82C54A7C
:10159800C54BD2ED007A93ED006A9FEDC4AAC44B07
:1015A800DFF870A3D3ED006AC24BDFF86C83B3F8A1
:1015B80000B0DFEDC1AA9FEDC1CADFEDC1BA9FED52
:1015C800C1BAC14CB7EE007A77EE677AB0EE4ADA64
:1015D80067EE867A0026F4EEC77AF1EE10FA88BF35
:1015E800F0EE477AF4EECA7AF1EE10FAB8BFF0EEF0
:1015F8004A7A67EEA67A67EEA99AB44BB7003B44DD
:10160800D3ED007A069BF5EE407A3B44F1EE10FAF2
:10161800D3ED00CA17D0AE4B3B4493ED007A7CEE75
:10162800C76AB0EEE66AF4EEC67AF1EE10FA08D5AB
:10163800F5EEC06AF1EE10FACCBF77EE87CA77EE06
:1016480067CAC3ED00CA40F603031BEA030C00F0A7
:10165800A683022E00F0A68399F82D209D4B07EE55
:10166800902A3B4493ED007A5342F8EEE76A07EE7E
:10167800903A26EE877AF8EEE77AB4EEE77AF1EE5A
:1016880010FA0AD407EE902AF8EE677AF4EEC77AD1
:10169800F1EE10FA88BFF0EE477A8F4B8F4903EBD3
:1016A800460331F91620B3F90C30D21A07EE102A86
:1016B80040F60103B8EEC77A1BEA030FE7EE6A7A31
:1016C80000F01683864BD3ED00CA67EEACCA854B93
:1016D80095F8740195F875213B4493ED018A00282B
:1016E80000F05B82002A00F0D7813CEEC88A99F8A6
:1016F80052107D4BD5F8802105981B68821A9A42B2
:101708003DDD022901F08582784B022E186840F0F1
:101718008B83774BD3ED007AB1EE677AB4EEC87A53
:10172800F1EE10FA00F3F384B4EEE78AF1EE10FA62
:1017380088BFB0EE678A824284ED01DA40F396836F
:101748006C4B1B689B0740F1EB846449624BB1F911
:101758000020B3F90CC06848A2EB0C02002A00680C
:10176800B8BF524282420ADAB1F90220B3F90E3008
:10177800D31A002BB8BF5B42984200F3D1845F4B69
:10178800F0EE6C1A1B68B0EE4D1AF0EE690AB0EE76
:10179800480A31464846984799F852302BB9454B84
:1017A800B3F800B01BF4006F10D0554B1B7853B939
:1017B800544B95F875211B7813F0010340F01685FA
:1017C800002A40F05E853B4BB3F800B0BBF1000F38
:1017D80000F0EB8184ED03DA4B4BEAEC01CA1B788D
:1017E8004BB1022E84ED01DA05D084ED00DA84EDE8
:1017F80002DA84ED03DA95F88431002B40F0288270
:10180800B0EE4A6A84ED00DA84ED01DA84ED02DA9A
:1018180084ED03DAD4ED007AD4ED016A94ED027A0E
:1018280077EEA67A013677EE877A032E77EE867AF8
:1018380008F12408C4ED047A04F114047FF4DDAE41
:10184800134B1B78052B01F063812E4B93F800A0F6
:101858001AF0010A04D02D4B1B78D80640F1E28318
:101868002B4C0B4B1B780022202BC5F8882100F04D
:10187800B784012B01F03681052B00F06384214BDE
:1018880093F800A04AE000BFE22A0020F89900205F
:10189800986B0020B4980020443A002089990020D1
:1018A80060090020F89600208898002000000000B9
:1018B8000C7500203E3A0020CDCCCC3D6F12033B86
:1018C80000007A4400007AC4543100207C9800203B
:1018D800F81D00201C9A002028310020003A002022
:1018E80064980020FC4A00209498002090980020DA
:1018F800AC9800203038002098980020B898002034
:10190800043100202436002005310020DC37002077
:10191800F8940020EC1D0020287500204FF0000BE3
:101928000AF0010A2378002B40F01984CC4BCD4CE7
:101938001E68CD4A236892ED038A96F84A70DFF84C
:101948004493DA0440F1E884B9F81280BAF1000F40
:1019580001D1A5F898811821C44821F059FE20B971
:10196800C34B1A7B002A01F04787B9F81430A3F556
:101978007A7303EBD373C3F34F03A8EB03029844C2
:1019880092B21FFA88F807EE902AF8EEE77AC8F5BF
:10199800FA61A2F57A7306EE901A07EE103AF4EEA1
:1019A800C87AF1EE10FAB8EEC77AF8EEE66A95F959
:1019B8009A1182F2498307EE908AF8EEE77AF4EEFC
:1019C800C87AF1EE10FA41F2A286B5F8983193423E
:1019D80004D8A74B1B7B002B02F0B08395F8B831D5
:1019E800002B42F0AB83D5ED6C7A95ED6D7AC5EDA1
:1019F800677A37EE676A0129C5ED657A85ED646A0D
:101A080085ED697A02F0B785059BC5F8A8310022F3
:101A18000123B0EE667AC5F8AC2185F89A31954A6B
:101A2800D5ED6B7A92F800A0934A00235360936136
:101A3800D3628B4B0AF0010A1E6800F089BC8F4BF9
:101A4800997919B19B78012B01F0948695F8423168
:101A58009BB18B4A8B4BB2F906209B8A9A420CDCCD
:101A6800894B1B780E2B08D0082B06D087497E4A55
:101A78000691002393608B6001E0844B06932FF05E
:101A88000BFE834B1A78052A7FF46EAD20F028FBF5
:101A98007F4B08901A7869E5BCF1000F40F0B481DB
:101AA8007C4B7D49DFF820C231F91610DFF81CB2F3
:101AB8005CF807E0DBED006A03EB4603F5EEC0CA0D
:101AC800B3F90C30C91A07EE901AB8EEE70AF1EE2E
:101AD80010FA20EE2A0AB7EE007AFFEE007AB5EE89
:101AE800C00AD4BFF0EE675AF0EE475ACCBF4FF0A9
:101AF800010B4FF0FF3BF1EE10FAC8BFF0EE477A4A
:101B0800CCBF01234FF0FF33B0EEC07ABEF1000F17
:101B180003D0DE4511D04CF80720B4EEE67AF1EE9A
:101B280010FA41F330869B4541F02D864CF807B0FA
:101B38000246BBF1000F01F02686F0EE40CAD7EE50
:101B4800A6CA564BD3ED007A6CEEA7CAF0EE4D8AC2
:101B5800F4EEEBCAF1EE10FA88BFF0EE6BCAF4EEC1
:101B6800CBCAF1EE10FAB8BFF0EE4BCA002A42F029
:101B7800A8824B4B1B78B34240F04681444B1B78FC
:101B8800272B00F02A81022E40F03E81454B1B781E
:101B9800002B43F03E8595F875213CEEC88A002A53
:101BA8003FF4EDAD99F85210A3E53F4B03EB061354
:101BB80093ED039AB5EEC09AF1EE10FA7FF70AAEEC
:101BC8003A4BD3ED007AF5EEC07AF1EE10FA7FDCED
:101BD800B7EE008A364BDAED008A1F78B7427CEE02
:101BE800E88A00F0EC80334B1B7853B1324B1B78FA
:101BF800012B00F03683022B00F0AF81B74200F0D2
:101C0800D5812E4A2E4BD2ED007A1B7829EE279AE1
:101C180029EE088A68EE288AC4ED038A002B3FF46F
:101C2800DBADD4ED007A28EEA77AB5EEC07AF1EEF6
:101C380010FA7FF7D1ADF0EEE88AF0EEE77AF4EE2D
:101C4800E78AF1EE10FA7FF7C5AD84ED00DAC3E557
:101C58001C4B1B78002B7FF4D3AD94ED036AD9E5B8
:101C6800443A00203C5A002090310020A42A002049
:101C78005C99002024360020543100200C4B0020B1
:101C8800FC370020106A002014300020F89900204A
:101C9800986B002028310020003A0020C8980020C6
:101CA800C498002005310020C496002060980020C8
:101CB800097500200B7500200A7500200897002080
:101CC800B598002004310020081E0020BC98002090
:101CD800BD4B1F4497ED008A27EE888AF7EE007AFD
:101CE800B4EEE78AF1EE10FA88BFB0EE678A71E7C2
:101CF800B54AB1F9003092ED007AD2ED016AB1F936
:101D08000220B249F4EEC76AF1EE10FAB4BFB0EEA1
:101D1800476AB0EE666A002BB8BF5B42002AB8BFBC
:101D280052429342B8BF134607EE103AA84A0B78BE
:101D380092ED005AB8EEC77A27EE2A7A002B00F007
:101D4800CB80B5EEC05AF1EE10FA40F30582A14BF4
:101D5800D3ED004AF5EEC04AF1EE10FA40F3FC81EB
:101D680034EEC77ADFED9C5AC7EE246A66EE255A30
:101D7800B7EE007A85EE856AF4EEC76AF1EE10FADE
:101D880088BFF0EE476AF5EEC06AF1EE10FA36EE5B
:101D9800077AB8BFF0EE4D6A26EE877AC4E0022EC5
:101DA8007FF495AC8D4B95F875211B78002B8C4BE7
:101DB8003B4493ED018A18BFF0EE4DCAEDE6894B1E
:101DC8001B78282B7FF40FAF9FED870A28EE800A37
:101DD80030F026FE854B588005E7B2EE049A20EED7
:101DE800090A30F01DFE814B0993B0EE6C0A188089
:101DF800A3F802B030F014FE099B28EE890A9880F7
:101E080030F00EFE099BD8803CEEC88AB7E4784BC8
:101E1800784A19681288754BC96919805A8015B0B3
:101E2800BDEC0C8BBDE8F08F734B1B68990740F134
:101E38007281724B7249DFF8E8B131F916E0DBEDD7
:101E480000CA84ED01DA03EB460C6CEEAACABCF9B1
:101E58000CC0ACEB0E0C07EE90CAF8EEE77A8242A3
:101E680067EEACCA3CEEC88A3FF771AC654B93EDA0
:101E7800007AF7EE007AB4EEE77AF1EE10FA7FF521
:101E88007EAC574A604BD2ED017A93ED007AF0EEC2
:101E9800E77AF4EEC77AF1EE10FA7FF570ACD2ED7E
:101EA800027AF0EEE77AB4EEE77AF1EE10FA7FF70D
:101EB80066ACD2ED037AF0EEE77AB4EEE77AF1EEAB
:101EC80010FA3FF73DAC5AE420F00AF9059B474C5D
:101ED800C01A2080FFF71DBB4C4BDFED4D6AD3EDD8
:101EE800005AF4EEE65AF1EE10FA0FD5F7EE004A72
:101EF80034EEE54ADFED476ADFED474A36EEC77A4A
:101F080064EE244AE7EE245A25EE255AB5EEC05A67
:101F1800F1EE10FA40F220819FED337AC7EE056AA0
:101F2800B7EE007AA6EE667AB7EE006AB4EEC67A25
:101F3800F1EE10FA88BFB0EE467AB5EEC07AF1EE4F
:101F480010FAB8BFB0EE4D7A344BD3ED006A67EEA5
:101F5800A67AE7EE87CAFFF7BABB98ED027AD8ED02
:101F6800067A98ED056AD8ED015AD8ED076A88ED2A
:101F7800066A67EE277A98ED037AC8ED058AE5EEDA
:101F8800867AB74298ED086AD8ED045AC8ED086A0F
:101F9800E7EE667A98ED007AE5EEC67AE8EE877A9B
:101FA800F0EE678AC8ED077A7FF42BAE0D4B1B78ED
:101FB800282B7FF426AE9FED0C0A28EE800A30F01D
:101FC8002FFD0A4B98801CE6289A00207098002064
:101FD8006C980020749800200000C8C205310020C9
:101FE800FC4A0020986B00200000C8421C6B0020AF
:101FF800E8300020F82D002030380020283100205B
:10200800003A0020F89600209C980020789800203C
:10201800AE47813F00003443610BB63B689800200F
:10202800649800209F4B5B78002B3FF419AC95F81F
:1020380085319D4C002B7FF414AC2378002B7FF462
:1020480010AC95F88631002B7FF40BAC974B1B68CE
:10205800D90602F1C085964B9FED967AD3ED097AA1
:10206800F0EEE77AF4EEC77AF1EE10FA82F2FD8329
:10207800D3ED047AF0EEE77AF4EEC77AF1EE10FACF
:1020880082F2F383D3ED0E7AF0EEE77AF4EEC77AB4
:10209800F1EE10FA82F2E9830023C5F88831864B05
:1020A8001B78202B7FF4E5ABD5F888318349844A27
:1020B80091F800A0003318BF012353800123138037
:1020C8000AEA030A8EE07F4BD5ED566A1B889FED1E
:1020D8007E6A7E49A3F57A7307EE903AB0EEE67A07
:1020E800F8EEE77A27EE067AF7EE009AE7EE879A97
:1020F8002B2AC1ED009A7FF44AAA9FED750A704C0D
:1021080026EE800A30F08CFC608000F0AEBCB0EEA9
:10211800478AFFF710BB824284ED01DA7FF7A6AE4B
:102128006C4B1A88002385F87531002A41F0F8872E
:10213800694A6A4B1178186881F0010120F08CFC1B
:10214800FFF71DBB1FF0CCFF5C4B93F800A0834644
:102158000AF0010AFFF7E6BB9FED617AF4E6614EEB
:102168003778BAF1000F41F05F80002F01F0AD879A
:10217800BA005D495D4831F0F8FA5D4B1B7893B1C0
:10218800DFF86881DFF88C910024E0B2D9F80030DC
:10219800B8EC010A984737780134BC42F5DB554B57
:1021A80038461B689847444B1B78052B00F066841B
:1021B800514A1478002C7FF4B6A9504FBA78002AF7
:1021C80040F042853C4B1B78052B7FF4ACA91FF0EF
:1021D80087FF3B4A384B001B1B78D080FFF7A3B919
:1021E800374B1A604FF0000BFFF79CBB444B93ED45
:1021F800007AF7EE007AB4EEE77AF1EE10FAC0F260
:102208008F84002A40F08F843E4BD3ED007AB0EEE5
:10221800C00AB4EEE70AF1EE10FA7FF7D4AA3A4BF7
:10222800D3ED007AB0EEC87AB4EEE77AF1EE10FAA0
:102238007FF7C9AA069B35493B44D3ED007A91ED57
:10224800007AF0EEE77AF4EEC77AF1EE10FA7FF54D
:10225800BAAA01230599C5F8801185F8753100F0EF
:1022680066BC2B4B03EBC603D3ED007A93ED017AE2
:1022780078EEE78AE7EE287AF0EE678AC3ED007A0F
:10228800BCE4144A85F875311288002A41F0C786E3
:10229800114A124B1178186881F0010120F0DCFB1B
:1022A800FFF791BAE22A0020F89400203C5A002057
:1022B8005431002000001644986B0020243600207A
:1022C8001C6B00208C9800200AD7233C6009002052
:1022D80000007A44604E0020624E0020644E0020C8
:1022E80000000000366B0020F42A0020A0310020F6
:1022F8000C6A0020505C002084370020DE37002064
:10230800F8960020A4980020A0980020A898002003
:1023180010750020485C0020B9F81420E84B95EDB2
:102328006D6AD3ED006A95ED6F7AC5ED676A07EEC1
:10233800902AF8EEE77A76EE665A012378EE677A05
:10234800C5ED656AC5ED645A85ED696A85F89A3107
:10235800C7EE876A338D5A42B7EE007AF4EEC76A41
:10236800F1EE10FA07EE902AD64A88BFF0EE476AD7
:10237800F5EEC06A9FEDD47A92ED045AF8EEE77A4A
:10238800F1EE10FAB8BFF0EE476AB4EEE75A07EE7E
:10239800103AF1EE10FAC5ED6B6AB8EE477A00F123
:1023A8005D83B4EEC75AF1EE10FA88BFB0EE475A13
:1023B800C44B9FEDC66AD3ED094AF4EEE47AF1EE18
:1023C80010FA25EE065A00F34C83B4EEE47AF1EEE7
:1023D80010FA98BFF0EE474ABA4BDFEDBC5A93EDBE
:1023E8000E6AF4EEC67AF1EE10FA64EEA54A08DC3D
:1023F800B4EEC67AF1EE10FA8CBFF0EE467AF0EE43
:10240800477AB34BDFEDB15A5B7867EEA55A0BB943
:10241800F1EE655A002F40F0C083F7EE003AAD4B5D
:102428001B681A7CC2B15B7C632B13D807EE903A09
:102438009FEDA97AF8EEE77A012A67EE877A01F02C
:102448007684022A06D1F4EEE76AF1EE10FA88BF24
:10245800F0EE676AC5ED6B6AA04BA14A1B6812785B
:1024680003F40003002A40F0C8839E4E3778002FFB
:1024780001F0E2859C499FED946AD1ED027A91EDD5
:10248800014A91ED037A64EEA77AE5EE047AE5EE67
:10249800877A63EEA77AF4EEC67AF1EE10FA8CBF6B
:1024A800B0EE464AB0EE674AC8BFB0EE676A012F81
:1024B800CDED0C7A00F0D98091ED067A91ED053AD0
:1024C800D1ED077A24EE877AA3EE057AA7EEA57AEE
:1024D80027EE237AB4EEC67AF1EE10FA00F3E3821F
:1024E800B4EEC74AF1EE10FA88BFB0EE474A022FA1
:1024F8008DED0D7A00F0B98091ED0A7A91ED093AE7
:10250800D1ED0B7A24EE877AA3EE057AA7EEA57AA9
:1025180027EE237AB4EEC67AF1EE10FA00F33A8386
:10252800B4EEC74AF1EE10FA88BFB0EE474A032F5F
:102538008DED0E7A00F0998091ED0E7A91ED0D3ABD
:10254800D1ED0F7A24EE877AA3EE057AA7EEA57A65
:1025580027EE237AB4EEC67AF1EE10FA00F3BC83C4
:10256800B4EEC74AF1EE10FA88BFB0EE474A042F1E
:102578008DED0F7A79D0D1ED127A91ED113A91ED76
:10258800137A64EEA77AE3EE057AE7EE257A67EE2A
:10259800A37AF4EEC67AF1EE10FA01F38C80B4EE69
:1025A800E74AF1EE10FA88BFB0EE674A052FCDED85
:1025B800107A5AD0D1ED167A91ED153A91ED177A35
:1025C80064EEA77AE3EE057AE7EE257A67EEA37A5A
:1025D800F4EEC67AF1EE10FA01F38D80B4EEE74A14
:1025E800F1EE10FA88BFB0EE674A062FCDED117AEA
:1025F8003BD0D1ED1A7A91ED193A91ED1B7A64EE40
:10260800A77AE3EE057AE5EE877A63EEA77AB4EE69
:10261800E76AF1EE10FA01F17680B4EEE74AF1EEDE
:1026280010FA88BFB0EE674A072FCDED127A1CD09A
:10263800D1ED1E7A91ED1D3A91ED1F7A64EEA74A0D
:10264800E5EE034AE5EE874A63EEA43AF4EEC63AAD
:10265800F1EE10FA01F32285B4EEE34AF1EE10FA36
:1026680088BFB0EE634ACDED133A76EE447A1F4A3E
:10267800127872B91E4A92ED007A92ED015A76EEFE
:10268800C75AA5EE257A76EEC75A82ED007AC5EDCF
:10269800565A184A9FED0C5AD2ED005AF4EEC55A14
:1026A800F1EE10FA40DD144A92ED007A92ED013A0B
:1026B80076EEC73AF7EE004AA3EE237A1EE000BF93
:1026C800C031002054310020000000006F12833A0E
:1026D80014300020483A00200AD7233CA42A0020BE
:1026E80005310020366B0020D4980020B4980020D3
:1026F80058980020B09800204C98002076EEC73AF1
:1027080082ED007AE5EEA36AF4EEE46AF1EE10FADF
:1027180088BFF0EE646AF4EEC56AF1EE10FAB8BF4D
:10272800F0EE456AC5ED6B6AF7EE005ADF4AF4EE43
:10273800E57AF1EE10FAC2ED007A40F3C487FFB3F0
:1027480085EEA77A012FDDED0C7A67EE877ACDED5D
:102758000C7A35D0DDED0D7A67EE877A022FCDED54
:102768000D7A2DD0DDED0E7A67EE877A032FCDED49
:102778000E7A25D0DDED0F7A67EE877A042FCDED3E
:102788000F7A1DD0DDED107A67EE877A052FCDED33
:10279800107A15D0DDED117A67EE877A062FCDED28
:1027A800117A0DD0DDED127A67EE877A072FCDED1D
:1027B800127A05D0DDED137A27EE877A8DED137A3C
:1027C800002B00F08C82F6EE006AC5ED6B6A002FD4
:1027D80000F03A81B648226890ED006AB54C95F948
:1027E8009A01B54995ED677A2488D5ED695ADFF8DD
:1027F800F0C2C978B9F814809CF800C0D5ED644AD5
:1028080095ED655A07EE900AAC48FDEEC73AB0F967
:10281800069004F40060069002F4805402F0100060
:1028280002F4800EBDEEC64AF8EEE77A13EE902A5F
:10283800FDEEE55A002940F07F82A14910B1002C35
:1028480001F0B58491ED007A9DED0C6A26EE877A49
:10285800A7EE867AB0EE456AA4EE876ABDEEC67A20
:1028680017EE103A9A4200F3228715EE900A834237
:10287800A8BF034607EE103AB8EEC77A914B012F6E
:1028880083ED007A00F0D88091ED047A9DED0D6A11
:1028980026EE877AA7EE867AB0EE456AA4EE876AB6
:1028A800BDEEC67A17EE100A824200F3088715EECD
:1028B800904AA042A8BF204607EE100AB8EEC77A91
:1028C800022F83ED017A00F0B78091ED087A9DED33
:1028D8000E6A26EE877AA7EE867AB0EE456AA4EEEF
:1028E800876ABDEEC67A17EE100A824200F30787A0
:1028F80015EE904AA042A8BF204607EE100AB8EE8F
:10290800C77A032F83ED027A00F0968091ED0C7A56
:102918009DED0F6A26EE877AA7EE867AB0EE456AB5
:10292800A4EE876ABDEEC67A17EE100A824240F31B
:10293800188707EE102AB8EEC77A042F83ED037ABA
:102948007AD091ED107A9DED106A26EE877AA7EE7F
:10295800867AB0EE456AA4EE876ABDEEC67A17EEAF
:10296800100A824201F39E8315EE904AA042A8BF46
:10297800204607EE100AB8EEC77A052F83ED047AD1
:102988005AD091ED147A9DED116A26EE877AA7EE5A
:10299800867AB0EE456AA4EE876ABDEEC67A17EE6F
:1029A800100A824201F3C68315EE904AA042A8BFDE
:1029B800204607EE100AB8EEC77A062F83ED057A8F
:1029C8003AD091ED187A9DED126A26EE877AA7EE35
:1029D800867AB0EE456AA4EE876ABDEEC67A17EE2F
:1029E800100A824201F3DF8315EE904AA042A8BF85
:1029F800204607EE100AB8EEC77A072F83ED067A4D
:102A08001AD091ED1C7A9DED136A66EE876AE7EE9F
:102A1800866AA4EEA65AFDEEC57A17EE901A8A4287
:102A280004DC15EE902A8A42A8BF0A4607EE902ACF
:102A3800F8EEE77AC3ED077ABAF1000F04D1BA00CD
:102A48002149204830F091FE204B1B78002B3FF4A1
:102A5800AAAB002F7FF494ABFFF7A1BBB0EE675A87
:102A6800A6E4F0EE674AB7E4194C9FED1A0A29EE7E
:102A7800800A2FF0D5FF2080FEF789BD1FF030FBBC
:102A8800154B134A1B78A0EB0B00052B908040F0E8
:102A9800D1801FF025FB114B1B780446002B7FF4D7
:102AA80091ABFFF78ABBB0EE476A20E5F8960020A5
:102AB800CC9800203E3A002028360020FC37002021
:102AC800D4980020A0310020F42A00200C6A0020AD
:102AD8001C6B002000007A44986B0020843700208B
:102AE800445C00201FF0FCFA7F4AD5F88C3112684C
:102AF8007E4983467E48C5F88CB1ABEB030390F85A
:102B080000A08B809A1ACA800AF0010AFEF70ABF51
:102B18001FF0E6FA089A754B801A5880FEF795BEA2
:102B2800002A3EF450AED5F88021059B9A1A714BC5
:102B38001B6893427EF747AE6F4BD3ED007AB0EE39
:102B4800C88AB4EEE78AF1EE10FA0ED4069B6B4AF7
:102B58003B44D3ED007A92ED007AF0EEE77AF4EE9A
:102B6800C77AF1EE10FA7EF72EAE654B1B8800226D
:102B780085F87521002B3FF48BAB624B6249B3F8A3
:102B880000B04B69002B3EF421AE0B681A604A7402
:102B9800FEF71CBEB0EE476AC9E45C4B5A79002ABE
:102BA8003FF43BAC5A4A1278002A3FF436AC1B7803
:102BB8009FED584A07EE903A574BB8EE677A1B8854
:102BC80007EE902A06EE103AF8EEE77AB8EE466A73
:102BD80067EE277AB7EE007AC7EE863AF4EEC43A83
:102BE800F1EE10FA88BFF0EE443AF4EEC73AF1EE8F
:102BF80010FAB8BFF0EE473A11E4002B7FF435AC79
:102C0800226850023FF531ACF6EE006AC5ED6B6AFA
:102C18002BE43B4B1B88002B41F0B2823F4A404BD0
:102C2800117818681FF018FFD5F88021059B9A1AAB
:102C3800FEF76ABD3B4A1478002C7EF474AC3A4F18
:102C4800BA78002A3EF46FACDFF8E48098F80030D8
:102C5800013B0A2B28D8DFE813F00B00D209A8099A
:102C6800B509270027005209E708B008940969093F
:102C78001F4B1B78DE0717D526F06AF9064680B188
:102C8800DFF8B090D9F80030984202F04581D9F8C1
:102C9800DC30B34202F0EA80D9F8B8319E4202F043
:102CA800B98011F0A3FFBA78022A01F057813B7965
:102CB800012B01F04E80022B7FF484AA98F8003093
:102CC800012B7FF47FAA194B1B78002B7FF47AAA7B
:102CD8002AF01CFBFFF776BAB0EE476A47E4226891
:102CE80051023FF570AD72E55C7400201C6B00204A
:102CF8002436002094980020A0980020A89800204E
:102D0800604E00203E3A0020684E0020746A002081
:102D1800346B0020713DAA3F086B0020624E0020F2
:102D2800644E002084370020DE370020C594002040
:102D3800DC9000204C570020A249002800F0468172
:102D4800002C40F04381002B01F0268491ED006AAD
:102D5800DDED0C3A26EE866AA7EEA36AF0EE453A58
:102D6800E4EE863AB0EE636ABCF1000F01F0168714
:102D7800B4EEE37AF1EE10FA41F3108714EE103A4C
:102D880015EE902A9342A8BF134606EE103AB8EE05
:102D9800C66A8D4B012F83ED006A3FF44DAE91ED6D
:102DA800046ADDED0D3A26EE866AA7EEA36AF0EE18
:102DB800453AE4EE863AB0EE636ABCF1000F01F0E2
:102DC800FA86B4EEE37AF1EE10FA41F3F48614EEE3
:102DD800102A15EE900A8242A8BF024606EE102A73
:102DE800B8EEC66A022F83ED016A3FF425AE91ED75
:102DF800086ADDED0E3A26EE866AA7EEA36AF0EEC3
:102E0800453AE4EE863AB0EE636ABCF1000F01F091
:102E1800EE86B4EEE37AF1EE10FA41F3E88614EEAA
:102E2800102A15EE900A8242A8BF024606EE102A22
:102E3800B8EEC66A032F83ED026A3FF4FDAD91ED4B
:102E48000C6ADDED0F3A26EE866AA7EEA36AF0EE6D
:102E5800453AE4EE863AB0EE636ABCF1000F01F041
:102E6800D386B4EEE37AF1EE10FA41F3CD8614EE90
:102E7800102A15EE900A8242A8BF024606EE102AD2
:102E8800B8EEC66A042F83ED036A3FF4D5AD91ED21
:102E9800106ADDED103A26EE866AA7EEA36AF0EE18
:102EA800453AE4EE863AB0EE636ABCF1000F01F0F1
:102EB800D086B4EEE37AF1EE10FA41F3CA8614EE46
:102EC800102A15EE900A8242A8BF024606EE102A82
:102ED800B8EEC66A052F83ED046A3FF4ADAD91EDF7
:102EE800146ADDED113A26EE866AA7EEA36AF0EEC3
:102EF800453AE4EE863AB0EE636ABCF1000F01F0A1
:102F0800E686B4EEE37AF1EE10FA41F3E08614EEC9
:102F1800102A15EE900A8242A8BF024606EE102A31
:102F2800B8EEC66A062F83ED056A3FF485AD91EDCC
:102F3800186ADDED123A26EE866AA7EEA36AF0EE6D
:102F4800453AE4EE863AB0EE636ABCF1000F01F050
:102F5800B186B4EEE37AF1EE10FA41F3AB8614EEE3
:102F6800102A15EE900A8242A8BF024606EE102AE1
:102F7800B8EEC66A072F83ED066A3FF45DAD91EDA2
:102F88001C6ADDED133A66EE866AE7EEA36AA4EEE4
:102F9800A65ABCF1000F00F0BF86B4EEC57AF1EE78
:102FA80010FA40F3B98614EE102A15EE901A9142E1
:102FB800A8BF114604EE101AB8EEC44A83ED074ABA
:102FC8003AE500BFD4980020A0310020BCF1000FE2
:102FD80000F0A28591ED006ADDED0C3A26EE866AD6
:102FE800A7EEA36AF0EE453AE4EE863AB4EEE37A49
:102FF800F1EE10FA01F31A82BDEEE36A14EE102A1C
:1030080016EE103A9A42C8BFB0EE446A41F31082F5
:10301800B8EEC66A834B012F83ED006A3FF40CAD0E
:1030280091ED046ADDED0D3A26EE866AA7EEA36AF5
:10303800F0EE453AE4EE863AB4EEE37AF1EE10FAB1
:1030480001F31482BDEEE36A14EE100A16EE102A9C
:103058009042C8BFB0EE446A41F30A82B8EEC66A2D
:10306800022F83ED016A3FF4E7AC91ED086ADDEDCC
:103078000E3A26EE866AA7EEA36AF0EE453AE4EE2B
:10308800863AB4EEE37AF1EE10FA01F3FE81BDEE72
:10309800E36A14EE100A16EE102A9042C8BFB0EE8A
:1030A800446A41F3F481B8EEC66A032F83ED026ADD
:1030B8003FF4C2AC91ED0C6ADDED0F3A26EE866A5C
:1030C800A7EEA36AF0EE453AE4EE863AB4EEE37A68
:1030D800F1EE10FA01F3F881BDEEE36A14EE100A7E
:1030E80016EE102A9042C8BFB0EE446A41F3EE8152
:1030F800B8EEC66A042F83ED036A3FF49DAC91EDE8
:10310800106ADDED103A26EE866AA7EEA36AF0EEA5
:10311800453AE4EE863AB4EEE37AF1EE10FA01F3BA
:10312800ED81BDEEE36A14EE100A16EE102A904205
:10313800C8BFB0EE446A41F3E381B8EEC66A052F12
:1031480083ED046A3FF478AC91ED146ADDED113A31
:1031580026EE866AA7EEA36AF0EE453AE4EE863AD2
:10316800B4EEE37AF1EE10FA01F3DF81BDEEE36A23
:1031780014EE100A16EE102A9042C8BFB0EE446A48
:1031880041F3D581B8EEC66A062F83ED056A3FF490
:1031980053AC91ED186ADDED123A26EE866AA7EE79
:1031A800A36AF0EE453AE4EE863AB4EEE37AF1EE3D
:1031B80010FA01F3D581BDEEE36A14EE100A16EE9B
:1031C800102A9042C8BFB0EE446A41F3CB81B8EEF2
:1031D800C66A072F83ED066A3FF42EAC91ED1C6A90
:1031E800DDED133A66EE866AE7EEA36AA4EEA65A08
:1031F800B4EEC57AF1EE10FA0ADCFDEEC57A14EEEB
:10320800101A17EE902A91423FF7D6AEB0EE674AF1
:1032180014EE102A15EE901A8A42A8BF0A4604EE48
:10322800102AC9E6A0310020E44AE54BD2ED017A24
:1032380093ED006A92ED005AD3ED016A92ED027A9D
:10324800E04A93ED024A5178F5EEC07AF1EE10FAB1
:10325800B5EEC05A26EE065AF7EE007AA6EEA65A42
:10326800FFEE005A54BFF0EE654AF0EE674AF1EE01
:1032780010FAB5EEC07A54BFB0EE657AB0EE677A50
:10328800F1EE10FA54BFF0EE653AF0EE673A58BF27
:10329800F0EE675AF1EEC57A0029B4EEE66A18BF77
:1032A800F0EE635AF1EE10FAB4BFF0EE663AF0EEC3
:1032B800463AF4EEC43AF1EE10FA9FEDC35A4ABF0B
:1032C8009FEDC27ADFEDC15AF0EE447A27EE855AB7
:1032D80036EE263A9FEDBE4AC3EE053A48BFF0EEF9
:1032E800474AF4EEC43AF1EE10FA00F178829FED05
:1032F800B95ADFEDB66A9FEDB86A77EEC57AF4EE93
:10330800E67AF1EE10FAB8BFF0EE667A27EE866A32
:10331800002F00F0DA869378DFEDB06AB04AD5ED79
:10332800657AB04992ED004AD5ED643A05EE103A57
:10333800B8EE453AB3EE045A23EE263A37EE855AEC
:10334800D1ED016A002B40F06082D1ED022A91EDA7
:10335800033AA54B67EE266AE4EEA26AE5EE836AB5
:10336800B7EE003AF5EEC06AF1EE10FA48BFF0EE9B
:10337800446A66EE266AF4EEC36AF1EE10FA88BF74
:10338800F0EE436AB0EE673AA3EEA63AB4EEC35A3B
:10339800F1EE10FAF0EE436A9ABFB3EE043A76EE15
:1033A800C36AF0EE446A012FC3ED006A3EF4E5AE4D
:1033B800D1ED056AD1ED062A91ED073A67EE266A46
:1033C800E4EEA26AE5EE836AB7EE003AF5EEC06A6B
:1033D800F1EE10FA48BFF0EE446A66EE266AF4EEA3
:1033E800C36AF1EE10FA88BFF0EE436AB0EE673AAE
:1033F800A3EEA63AB4EEC35AF1EE10FAF0EE436A21
:103408009ABFB3EE043A76EEC36AF0EE446A022F2E
:10341800C3ED016A3EF4B1AED1ED096AD1ED0A2AD5
:1034280091ED0B3A67EE266AE4EEA26AE5EE836A4E
:10343800B7EE003AF5EEC06AF1EE10FA48BFF0EECA
:10344800446A66EE266AF4EEC36AF1EE10FA88BFA3
:10345800F0EE436AB0EE673AA3EEA63AB4EEC35A6A
:10346800F1EE10FAF0EE436A9ABFB3EE043A76EE44
:10347800C36AF0EE446A032FC3ED026A3EF47DAEE0
:10348800D1ED0D6AD1ED0E2A91ED0F3A67EE266A5D
:10349800E4EEA26AE5EE836AB7EE003AF5EEC06A9A
:1034A800F1EE10FA48BFF0EE446A66EE266AF4EED2
:1034B800C36AF1EE10FA88BFF0EE436AB0EE673ADD
:1034C800A3EEA63AB4EEC35AF1EE10FAF0EE436A50
:1034D8009ABFB3EE043A76EEC36AF0EE446A042F5C
:1034E800C3ED036A3EF449AED1ED116AD1ED122A5B
:1034F80091ED133A67EE266AE4EEA26AE5EE836A76
:10350800B7EE003AF5EEC06AF1EE10FA48BFF0EEF9
:10351800446A66EE266AF4EEC36AF1EE10FA88BFD2
:10352800F0EE436AB0EE673AA3EEA63AB4EEC35A99
:10353800F1EE10FAF0EE436A9ABFB3EE043A76EE73
:10354800C36AF0EE446A052FC3ED046A3EF415AE73
:10355800D1ED156AD1ED162A91ED173A67EE266A74
:10356800E4EEA26AE5EE836AB7EE003AF5EEC06AC9
:10357800F1EE10FA48BFF0EE446A66EE266AF4EE01
:10358800C36AF1EE10FA88BFF0EE436AB0EE673A0C
:10359800A3EEA63AB4EEC35AF1EE10FAF0EE436A7F
:1035A8009ABFB3EE043A76EEC36AF0EE446A062F89
:1035B800C3ED056A3EF4E1AD18E000BF1C9A002097
:1035C800289A002014300020F304B53F00000000C2
:1035D800D7B35D3F9A99193E9696963F0AD723BC72
:1035E800CC980020D4980020A0310020D1ED196A91
:1035F800D1ED1A2A91ED1B3A67EE266AE4EEA26A2B
:10360800E3EE256AB7EE003AF5EEC06AF1EE10FA7D
:1036180048BFF0EE446A66EE266AF4EEC36AF1EE3D
:1036280010FA88BFF0EE436AB0EE673AA6EEA33A06
:10363800B4EEC53AF1EE10FAF0EE436AA6BFB3EE67
:10364800043A76EEC36AF0EE446A072FC3ED066AC1
:103658003EF493ADD1ED1D6AD1ED1E2A91ED1F3ACE
:1036680027EE267AA4EEA27AA5EE837AB5EEC07A82
:10367800F1EE10FA01D5B0EE447A26EE077AF7EEAD
:10368800006AB4EEE67AF1EE10FA88BFB0EE667A18
:10369800E3EE877AB4EEE75AF1EE10FA9CBFB3EE88
:1036A800044A37EEC44A83ED074AFEF766BD07EEC3
:1036B800102AFFF7E1B8B0EE676AFEF777BF07EEAA
:1036C800102AFFF7FBB8002B00F03583B1EE444A0F
:1036D800B4EEE64AF1EE10FA00F3A086F7EE007AAF
:1036E80077EEC67AF4EEE76AF1EE10FA88BFF0EEEC
:1036F800676AFFF76AB8B0EE676AFEF776BF07EE4B
:10370800102AFFF7FCB8B0EE676AFEF78DBF95ED9B
:103718006C7A95ED6D6A85ED677A76EE475A0129E0
:1037280085ED657AC5ED645A85ED696A00F089868C
:10373800059BC5F8A831002378EE677ABCEEC88AE5
:10374800012218EE101AC5ED6B7AB0EE667AA5F86C
:10375800981185F89A21EC4A93423EF6F9ADFEF7A6
:103768005EB915EE904AA042A8BF204607EE100A9F
:10377800FFF7E1B8012A00F07486022A08BFC5F8ED
:103788005431FEF763B9E14BF0EEC87A67EE8C7AF4
:1037980093ED007AB7EE006AF4EEC67AF1EE10FA0D
:1037A80028EE077A88BFF0EE467AF0EE408AE7EE18
:1037B800278AF5EEC08AF0EEE87AF1EE10FAF4EE18
:1037C800E67ACCBF01234FF0FF33F1EE10FA02DDA9
:1037D8009B4500F06B844FF0000BFEF7C7B9B4EEC1
:1037E800E66ADFEDCB6AF1EE10FAD8BFB0EE667A82
:1037F80088BFF0EE664A7AE5DB88A8EB03029844B6
:1038080092B21FFA88F8FEF7BEB891ED022AD1ED00
:10381800032AC04B67EE266AE4EE826AE5EEA26AE6
:10382800F7EE002AF5EEC06AF1EE10FA48BF66EE30
:10383800836A66EE266AF4EEE26AF1EE10FA88BF51
:10384800F0EE626AF0EE672AE3EEA62AF4EEC52AE5
:10385800F1EE10FAF0EE626AA6BFF3EE042A76EEF5
:10386800E26AF0EE446A012FC3ED006A3EF485ACCB
:10387800D1ED056A91ED062AD1ED072A67EE266A91
:10388800E4EE826AE5EEA26AF7EE002AF5EEC06A77
:10389800F1EE10FA48BF66EE836A66EE266AF4EE29
:1038A800E26AF1EE10FA88BFF0EE626AF0EE672A7B
:1038B800E3EEA62AB4EEE25AF1EE10FAF0EE626AEE
:1038C8009ABFF3EE042A76EEE26AF0EE446A022F1B
:1038D800C3ED016A3EF451ACD1ED096A91ED0A2AB3
:1038E800D1ED0B2A67EE266AE4EE826AE5EEA26A5B
:1038F800F7EE002AF5EEC06AF1EE10FA48BF66EE60
:10390800836A66EE266AF4EEE26AF1EE10FA88BF80
:10391800F0EE626AF0EE672AE3EEA62AB4EEE25A07
:10392800F1EE10FAF0EE626A9ABFF3EE042A76EE30
:10393800E26AF0EE446A032FC3ED026A3EF41DAC5E
:10394800D1ED0D6A91ED0E2AD1ED0F2A67EE266AA8
:10395800E4EE826AE5EEA26AF7EE002AF5EEC06AA6
:10396800F1EE10FA48BF66EE836A66EE266AF4EE58
:10397800E26AF1EE10FA88BFF0EE626AF0EE672AAA
:10398800E3EEA62AB4EEE25AF1EE10FAF0EE626A1D
:103998009ABFF3EE042A76EEE26AF0EE446A042F48
:1039A800C3ED036A3EF4E9ABD1ED116A91ED122A39
:1039B800D1ED132A67EE266AE4EE826AE5EEA26A82
:1039C800F7EE002AF5EEC06AF1EE10FA48BF66EE8F
:1039D800836A66EE266AF4EEE26AF1EE10FA88BFB0
:1039E800F0EE626AF0EE672AE3EEA62AB4EEE25A37
:1039F800F1EE10FAF0EE626A9ABFF3EE042A76EE60
:103A0800E26AF0EE446A052FC3ED046A3EF4B5ABF2
:103A1800D1ED156A91ED162AD1ED172A67EE266ABF
:103A2800E4EE826AE5EEA26AF7EE002AF5EEC06AD5
:103A3800F1EE10FA48BF66EE836A66EE266AF4EE87
:103A4800E26AF1EE10FA88BFF0EE626AF0EE672AD9
:103A5800E3EEA62AB4EEE25AF1EE10FAF0EE626A4C
:103A68009ABFF3EE042A76EEE26AF0EE446A062F75
:103A7800C3ED056A3EF481ABD1ED196A91ED1A2ABE
:103A8800D1ED1B2A67EE266AE4EE826AE5EEA26AA9
:103A9800F7EE002AF5EEC06AF1EE10FA48BF66EEBE
:103AA800836A66EE266AF4EEE26AF1EE10FA88BFDF
:103AB800F0EE626AF0EE672AE3EEA62AB4EEE25A66
:103AC800F1EE10FAF0EE626A9ABFF3EE042A76EE8F
:103AD800E26AF0EE446A072FC3ED066A3EF44DAB86
:103AE80091ED1D2AD1ED1E2AD1ED1F6A27EE027A2B
:103AF800A4EEA27AA5EEA67AB5EEC07AF1EE10FA97
:103B080048BF27EE037AB8E58FD00300C09800209D
:103B180000000000A031002091ED007A9DED0C6AB4
:103B280026EE877A14EE102AA7EE867AB0EE456A5A
:103B3800A4EE876ABDEEC67A17EE103A9A4200F3F1
:103B4800718415EE902A9342A8BF134607EE103AE7
:103B5800B8EEC77AAB4B012F83ED007A3EF46CAF19
:103B680091ED047A9DED0D6A26EE877A14EE100A1F
:103B7800A7EE867AB0EE456AA4EE876ABDEEC67AED
:103B880017EE102A904200F37C8415EE900A8242C8
:103B9800A8BF024607EE102AB8EEC77A022F83EDB7
:103BA800017A3EF449AF91ED087A9DED0E6A26EE52
:103BB800877A14EE100AA7EE867AB0EE456AA4EE6C
:103BC800876ABDEEC67A17EE102A904200F3688421
:103BD80015EE900A8242A8BF024607EE102AB8EEF8
:103BE800C77A032F83ED027A3EF426AF91ED0C7A63
:103BF8009DED0F6A26EE877A14EE100AA7EE867AF4
:103C0800B0EE456AA4EE876ABDEEC67A17EE102AB2
:103C1800904200F3558415EE900A8242A8BF0246EE
:103C280007EE102AB8EEC77A042F83ED037A3EF424
:103C380003AF91ED107A9DED106A26EE877A14EEA7
:103C4800100AA7EE867AB0EE456AA4EE876ABDEE42
:103C5800C67A17EE102A904200F35B8415EE900A9C
:103C68008242A8BF024607EE102AB8EEC77A052F8F
:103C780083ED047A3EF4E0AE91ED147A9DED116A7D
:103C880026EE877A14EE100AA7EE867AB0EE456A19
:103C9800A4EE876ABDEEC67A17EE102A904200F3AA
:103CA8003C8415EE900A8242A8BF024607EE102A0D
:103CB800B8EEC77A062F83ED057A3EF4BDAE91EDD6
:103CC800187A9DED126A26EE877A14EE100AA7EE8E
:103CD800867AB0EE456AA4EE876ABDEEC67A17EE1C
:103CE800102A904200F3388415EE900A8242A8BF49
:103CF800024607EE102AB8EEC77A072F83ED067A38
:103D08003EF49AAE91ED1C7A9DED136A66EE876AD1
:103D1800E7EE866AA4EEA65AFDEEC57A14EE101AEE
:103D280017EE902A91423FF747A9FFF73EB966EE92
:103D3800A76AFEF78FBB226852023FF5C7ACF6EEC2
:103D4800007AF4EEE76AF1EE10FA3FF7BFACFEF73F
:103D58003EBD2D4B98F800601B78DB0704D42CF08F
:103D6800CDFE002840F0EC83284FD5F8C8213B68E9
:103D78009A4200F2EC83012E3EF424AA244D2B78BB
:103D8800002B3EF41FAA0B2E0DD80123B34040F69A
:103D9800030213EA02090CD113F4C06F03D0093EE1
:103DA800012E41F26B821B4B3A685A600B2388F84C
:103DB800003000232B70FEF705BA16202DF0EEF91F
:103DC800D8B1154B1B88C3B9144B45201E6829F080
:103DD80055F90E2029F052F9304629F034FA059E9B
:103DE800304629F030FA0E4A0E4B12681A603046F7
:103DF8000A2388F8003013F029FA10F0EDFDBA789C
:103E0800FEF752BFA031002024360020884E002043
:103E1800C5940020742E0020CC940020C894002063
:103E2800DC940020D494002029F09CF8AA4B93ED50
:103E3800000A2EF0F5FD95ED6D0A81462EF0F0FD95
:103E48008246402029F070F8002840F0B880A34E40
:103E5800A34932684B784E2A00F27E86DFE812F0DA
:103E6800FE09F3097E0C780C720C6A0CE60AE00A6B
:103E7800D90AD20ACB0AC20AB40AAD0A980B910B26
:103E8800820B7B0B740B6D0B630B590B4F0B450BA4
:103E9800330B210B0F0B040BF90AEE0AB809AF0913
:103EA800A6099E0995098D0985097D0974096B097B
:103EB8006209590951094909400935092D09250996
:103EC8001D0916090F0908090109FA08C508BE08DD
:103ED800B608AE089B0894088D088108FC0CF40C01
:103EE800EC0CE40CDC0CD40CCC0CC40C1C0D150D27
:103EF8000D0D040D2F0D240D380DB90C020C29F0F1
:103F080031F8784B052000210090A3F10802CDE993
:103F18000111532010F09AFD002850D16F4BBA7848
:103F28001860082388F80030FEF7BEBE022A40F069
:103F3800D2856D4BDFF8E4911B78D9F80060002B2F
:103F480040F0BC85002E00F0C0853378002B00F0CF
:103F5800BC8596F82830002B00F0A687634A41F20A
:103F6800B513D35C002B3EF4A2AE614B1A78012145
:103F780088F80010002A3EF425A900221A70FEF7DE
:103F880021B95C4B1B78002B00F0CB8216202DF05A
:103F980005F9002840F0C582554B1B78002B40F0EE
:103FA800C082092388F8003027E74C4E28F0DAFF52
:103FB800514A7368126864339342C0F0A185BA7895
:103FC800FEF772BE28F0CEFF4C4A0292A2F10C0313
:103FD800282101930091A2F10A035021163A4920A1
:103FE80010F034FD0028EAD13C4BBA7818604FF045
:103FF800FF315960072388F80030FEF755BE022AC2
:1040080000F076843C4B35491B684B603C480023E4
:104018000B600321036088F80010FEF745BE394A9B
:104028003949B2F800B04A69002A3DF4CFAB0A68B2
:1040380013604B74FDF7CABBDFED347AB0EE674A04
:10404800B0EE676AFEF713BB234A314BD2ED006A24
:1040580095ED686A1B78C5ED676A85ED696A002B7E
:1040680000F0D78176EE665A0131C5ED645AC5ED88
:10407800656A00F0EC81059BC5F8A831002377EE4E
:10408800C87ABCEEC88AFF2218EE101AC5ED6B7A02
:10409800A5F8981185F89A21FFF75DBBB0EE636A21
:1040A800FEF7E1BA07EE102AFEF765BCF0EE68CA23
:1040B800D5EEA6CA174BD3ED007A6CEEA7CA4FF01F
:1040C800000B84ED01DAFDF754BD134B1B78002B70
:1040D8007EF465A8FEF767B8C0310020742E002072
:1040E800F86A0020E43A030824300020C078002051
:1040F800C594002017300020884E0020123903088C
:10410800BC9400203E3A0020684E002000000000C9
:10411800445C0020C89800200C6A0020E437002086
:10412800EF494A69002A3DF42AAB0A6813604B74C8
:10413800FDF725BB07EE102AFEF73DBCE94AEA4B1E
:10414800D2ED007AD5ED686A1B78C5ED677AC5EDC2
:10415800696A002B00F0808136EEE76A4B1C85ED1A
:10416800646AC5ED657A00F09F81059BC5F8A831A2
:104178000022FF23C5F8AC2185F89A31FDF74FBC22
:10418800D7494B69002B3DF4BFAAD8480B68B0F853
:1041980000C0D74890FBFCF04FF0010C186081F884
:1041A80011C0FDF7B1BA07EE102AFEF724BC002BA8
:1041B8007EF448AB91ED007A9DED0C4A26EE877AA5
:1041C800A7EE847AB0EE454AA4EE874ABDEEC47ADB
:1041D80017EE103A9A4200F3DC8115EE900A8342FA
:1041E800A8BF034607EE103AB8EEC77ABAF1000F37
:1041F80040F0FA85BF4B012F83ED007A3EF41FACE7
:1042080091ED047A9DED0D4A26EE877AA7EE847A21
:10421800B0EE454AA4EE874ABDEEC47A17EE100AFE
:10422800824200F31F8315EE904AA042A8BF2046A1
:1042380007EE100AB8EEC77ABAF1000F40F02A86E6
:10424800022F83ED017A3EF4FAAB91ED087A9DEDE9
:104258000E4A26EE877AA7EE847AB0EE454AA4EE97
:10426800874ABDEEC47A17EE100A824200F33483FF
:1042780015EE904AA042A8BF204607EE100AB8EEF5
:10428800C77ABAF1000F40F0E785032F83ED027A71
:104298003EF4D5AB91ED0C7A9DED0F4A26EE877A68
:1042A800A7EE847AB0EE454AA4EE874ABDEEC47AFA
:1042B80017EE100A824200F3FE8315EE904AA042E0
:1042C800A8BF204607EE100AB8EEC77ABAF1000F69
:1042D80040F09585042F83ED037A3EF4B0AB91ED61
:1042E800107A9DED104A26EE877AA7EE847AB0EE12
:1042F800454AA4EE874ABDEEC47A17EE100A8242F8
:1043080000F3398415EE904AA042A8BF204607EE74
:10431800100AB8EEC77ABAF1000F41F04A81052FAA
:1043280083ED047A3EF48BAB91ED147A9DED114A3E
:1043380026EE877AA7EE847AB0EE454AA4EE874A3D
:10434800BDEEC47A17EE100A824200F3188415EE07
:10435800904AA042A8BF204607EE100AB8EEC77AD6
:10436800BAF1000F41F03D81062F83ED057A3EF446
:1043780066AB91ED187A9DED124A26EE877AA7EE84
:10438800847AB0EE454AA4EE874ABDEEC47A17EEA9
:10439800100A824200F31C8415EE904AA042A8BF7E
:1043A800204607EE100AB8EEC77ABAF1000F40F0BF
:1043B8005B87072F83ED067A3EF441AB91ED1C7ABB
:1043C8009DED134A66EE876AE7EE846AA4EEA65A64
:1043D800FDEEC57A17EE901A8A4204DC15EE902A93
:1043E8008A42A8BF0A4607EE902AF8EEE77ABAF1A1
:1043F800000F3EF41FABBEF1000F7EF41BAB069A14
:10440800002A7EF417ABC145B8BFF0EE467AFEF736
:1044180011BB76EEC65AF0EE466A25E6F0EE446A1F
:10442800FEF7D3B9B0EE447AFFF792BB14EE103A18
:1044380015EE902A9342A8BF134606EE103AFEF7EF
:10444800E7BDD5F8A831059AD31AFFF775B9D5F89D
:10445800A831059AD31A12E637EEE66AF0EE667AC4
:104468007CE60323C5F85431FDF7F0BA14EE102AA0
:1044780015EE900A8242A8BF024606EE102AFEF701
:10448800EDBDB0EE447AFFF787BB14EE102A15EEA7
:10449800900A8242A8BF024606EE102AFEF703BE23
:1044A800B0EE447AFFF79BBBDFED137AD5F8A8315D
:1044B800059A85F89A11D31AC5ED6B7AFFF74BB9AF
:1044C800B0EE447AFFF7AEBB14EE102A15EE900A50
:1044D8008242A8BF024606EE102AFEF709BE00BFB8
:1044E800684E0020C0310020445C0020804E00202F
:1044F80020A10700A03100200000000014EE102ABF
:1045080015EE900A8242A8BF024606EE102AFEF770
:1045180014BEB0EE447AFFF7A8BBB0EE447AFFF7BA
:10452800C7BB059812F092FE67E414EE102A15EE48
:10453800900A8242A8BF024606EE102AFEF722BE63
:10454800E74B1B6803F59C530833C5F8C831012EA7
:104558007DF438AEFEF7B7BBB0EE447AFFF7CBBBBD
:1045680014EE102A15EE900A8242A8BF024606EE03
:10457800102AFEF72CBEDFEDDB7AD5F8A831059AB4
:1045880085F89A11B0EE667AD31AC5ED6B7AFFF703
:10459800E2B8B0EE637A27E6D1ED003A9DED0C3A29
:1045A80066EEA33AE7EE833AB0EE453AA4EEA33AB4
:1045B800F0EE433ABCF1000F00F03383B4EEC37A57
:1045C800F1EE10FA40F32D8314EE103A15EE902A0E
:1045D8009342A8BF134603EE903AF8EEE33ABAF1D5
:1045E800000F40F06286C04B012FC3ED003A3EF445
:1045F80026AAD1ED043A9DED0D3A66EEA33AE7EE10
:10460800833AB0EE453AA4EEA33AF0EE433ABCF151
:10461800000F00F01283B4EEC37AF1EE10FA40F303
:104628000C8314EE102A15EE900A8242A8BF0246A7
:1046380003EE902AF8EEE33ABAF1000F40F04F8605
:10464800022FC3ED013A3EF4FAA9D1ED083A9DEDE7
:104658000E3A66EEA33AE7EE833AB0EE453AA4EE98
:10466800A33AF0EE433ABCF1000F00F01783B4EE22
:10467800C37AF1EE10FA40F3118314EE102A15EE06
:10468800900A8242A8BF024603EE902AF8EEE33A67
:10469800BAF1000F40F0A785032FC3ED023A3EF4AC
:1046A800CEA9D1ED0C3A9DED0F3A66EEA33AE7EEAE
:1046B800833AB0EE453AA4EEA33AF0EE433ABCF1A1
:1046C800000F00F01E83B4EEC37AF1EE10FA40F347
:1046D800188314EE102A15EE900A8242A8BF0246EB
:1046E80003EE902AF8EEE33ABAF1000F40F0858520
:1046F800042FC3ED033A3EF4A2A9D1ED103A9DED83
:10470800103A66EEA33AE7EE833AB0EE453AA4EEE5
:10471800A33AF0EE433ABCF1000F00F00A83B4EE7E
:10472800C37AF1EE10FA40F3048314EE102A15EE62
:10473800900A8242A8BF024603EE902AF8EEE33AB6
:10474800BAF1000F41F01180052FC3ED043A3EF491
:1047580076A9D1ED143A9DED113A66EEA33AE7EE4B
:10476800833AB0EE453AA4EEA33AF0EE433ABCF1F0
:10477800000F00F0D282B4EEC37AF1EE10FA40F3E3
:10478800CC8214EE102A15EE900A8242A8BF024687
:1047980003EE902AF8EEE33ABAF1000F40F0F887FA
:1047A800062FC3ED053A3EF44AA9D1ED183A9DED1E
:1047B800123A66EEA33AE7EE833AB0EE453AA4EE33
:1047C800A33AF0EE433ABCF1000F00F0C882B4EE11
:1047D800C37AF1EE10FA40F3C28214EE102A15EEF5
:1047E800900A8242A8BF024603EE902AF8EEE33A06
:1047F800BAF1000F40F02387072FC3ED063A3EF4C5
:104808001EA9D1ED1C3A9DED133A66EEA36AE7EEB8
:10481800836AA4EEA65ABCF1000F00F09682B4EEAB
:10482800C57AF1EE10FA40F3908214EE102A15EED4
:10483800901A9142A8BF114604EE101AB8EEC44A65
:10484800BAF1000F3EF4BAABBEF1000F7EF4B6AB7E
:10485800069A002A7EF4B2ABC145B8BFB0EE464A0C
:10486800FEF7ACBB07EE102AE4E42049D1ED027A4A
:10487800F0EEE77AFCEEE77A4FF6EF7217EE903A31
:10488800103B9BB293421AD9D1ED017AF0EEE77A48
:10489800FCEEE77A17EE903A103B9BB293420ED9A2
:1048A800D1ED037AF0EEE77AFCEEE77A4FF6CC72B8
:1048B80017EE903A333B9BB293423DF6EDABD5F8F9
:1048C8008831002B40F05F81059B03F59233F83364
:1048D800C5F88831FDF7E3BB07EE102ACFE400BF27
:1048E800884E002000000000A0310020FC4A002073
:1048F800DFF89493059409F1080B99F81430052B07
:1049080000F2D680DFE803F03FD403C7643BDFF84A
:104918007CA3D64ED9F804000BAA594616F0D2FC4F
:10492800012851464FF0030240F0C2800B9C2046FC
:10493800002C00F030822378002B00F02C822EF01F
:1049480064FF032231460028E4D104F108002EF068
:104958005CFF03460028DDD154F8030F0C90227940
:104968008DF834200CA88DF835301FF0A5F9D9F84A
:104978001030834238BF0346C9F81030CAE7059C97
:10498800BA78FFF73FBBDFF808C3059C9CF80130F5
:10499800032B7FF414AB41F2A40201231CF802207C
:1049A80089F81430002A00F0EA8641F2E8021CF87F
:1049B8000220002A00F0348641F22C131CF8033040
:1049C800002B00F02C86002389F81430FFF7F7BA83
:1049D800A74BD9F81060DFF8B8C2059C0FCB41F29D
:1049E800A40E0DF1300BABE8070006F1010A0A220C
:1049F800BAFBF2F0B0FBF2F606961CF80E600596CC
:104A0800069E8BF8003002FB160602FB10A030361B
:104A18003030069064218DF83660BAFBF1F142F22D
:104A28001076B1FBF2FEBAFBF6F602FB1E1E4FF43F
:104A38007A71BAFBF1F1B1FBF2F002FB1010B6FB90
:104A4800F2F102FB116630368DF83360059E069947
:104A58008DF837100EF1300E303001228DF835E028
:104A68008DF8340089F81420002E00F0848141F27A
:104A7800E8031CF80330002B00F07E8141F22C1370
:104A880002221CF80330002B00F07681042389F8F9
:104A98001430FFF794BA774B1B784BB9D9F8041048
:104AA800002900F07F8591F82830002B00F0BC81A8
:104AB800059CFFF784BA07EE102A05E4304600216A
:104AC80016F014FD00283FF47AAA00220423C9F83E
:104AD800002089F81430684B684A5B681268C8334C
:104AE800934204D328F07CFA00283FF468AABA78E5
:104AF800032A00F0F980012388F80030FEF7D4B8C3
:104B0800402028F011FA00287FF459AA3368DFF80A
:104B18008491DFF884B14FF0400A0DE028F0AEFA36
:104B2800DBF800203368013A0133BAF1010ACBF807
:104B38000020336000F0A4814B441B7E1846002BF4
:104B4800ECD100234FF0FF3233600423726088F801
:104B58000030BA78FEF7A8B828F042FA00283FF4E7
:104B68002EAA474A474B12681A600A2388F8003071
:104B7800BA78FEF799B807EE102AFFF7CABB07EE16
:104B8800102AFFF7EBBB059A9A427DF688AA2020E7
:104B980008F09CFEFCF798FBFDF781BABDEEC66AEB
:104BA80014EE102A16EE103A9A427EF7E9A8B0EEF3
:104BB800446AFEF7ECB8BDEEC66A14EE100A16EEAB
:104BC800102A90427EF705A9B0EE446AFEF708B9AC
:104BD8001046FFF7E6BB2CF0D3FA00287DF43BAA79
:104BE8002CF0E2FA00283CF43CAEFDF734BABDEEF6
:104BF800C66A14EE100A16EE102A90427EF711A922
:104C0800B0EE446AFEF714B9BDEEC66A14EE100A97
:104C180016EE102A90427EF72CA9B0EE446AFEF7F1
:104C28002FB9FDEEE33A14EE102A13EE903A9A42A9
:104C38007FF7CCACF0EE443ACFE4FDEEE33A14EE65
:104C4800100A13EE902A90427FF7EDACF0EE443A4A
:104C5800F0E4BDEEC66A14EE100A16EE102A904271
:104C68007EF72FA9B0EE446AFEF732B9086503084B
:104C7800CC6A0308A08A0020742E0020884E0020E9
:104C8800DC940020D4940020E43700200465030855
:104C9800C078002094380308BC940020FDEEE33A65
:104CA80014EE100A13EE902A90427FF7E8AC14EE47
:104CB800102AE9E4BDEEC66A14EE100A16EE102AB0
:104CC80090427EF74EA914EE102AFEF74FB9BDEEBA
:104CD800C66A14EE100A16EE102A90427EF719A939
:104CE80014EE102AFEF71AB9C34E306807F05FF8C1
:104CF800C24B1B780022022B326000F0C880BA78C1
:104D0800F9E6FDEEE33A14EE100A13EE902A90420B
:104D18007FF7E1AC14EE102AE2E4FDEEE33A14EE7C
:104D2800100A13EE902A90427FF72DAD14EE102A48
:104D38002EE5FDEEE33A14EE100A13EE902A9042A7
:104D48007FF7F5AC14EE102AF6E4FDEEC57A14EE02
:104D5800101A17EE902A91423FF770AD67E5FDEE05
:104D6800E33A14EE100A13EE902A90427FF737AD1B
:104D780014EE102A38E5059A442303FB02C202F513
:104D880085509F4B00930CA93C23202204301BF034
:104D98008DF8FFF714B9D9F8041091F91A20541CAA
:104DA8000AD0984B02F5817203EB0213FF20DA79DF
:104DB8006FF30002DA71887691F91B30581C0FD016
:104DC800904803F5817300EB0310FF26C379C3F302
:104DD8004502013A22EAE27262F34603C371CE76D3
:104DE800032389F8143088E5BEF1000F2CD0864BD8
:104DF800012F83ED007A7FF403AAFDF71DBEBEF1F3
:104E0800000F00F08280042F83ED037A7FF467AAF5
:104E1800FDF712BE304606F0CAFFDC2200217B48AF
:104E28002EF0C7FCFDF73DBF442279482EF09DFCCB
:104E38000021D9F8040016F059FB00220423C9F810
:104E4800042089F8143058E5069B002B4ED1C14543
:104E5800B8BFB0EE467ACAE7BEF1000F6CD0032F98
:104E680083ED027A7FF416AAFDF7E6BD304606F018
:104E78009EFFDC22002167482EF09BFCFDF70CBF4B
:104E88004B44BA781B7E002B7DF40EAF59E6FBF736
:104E98004DFE34E7BEF1000F30D0022F83ED017ACA
:104EA8007FF4D3A9FDF7C8BD327EB36386F83C30E2
:104EB800042386F82830736A1207C6E90B3304D531
:104EC800504A41F29413D3580793079B73634FF0EA
:104ED800000AC6F824A0C6E902AA304623F096FACA
:104EE8000523C6F840A086F82830EEE5464B012F8A
:104EF80083ED007A3DF4A8ADFFF782B90698A0B912
:104F0800C145B8BFB0EE467AC7E70698D8B9C145DB
:104F1800B8BFB0EE467A76E706F049FFDC220021FA
:104F280048462EF046FCFDF7B2BE022F83ED017A0B
:104F38003DF48AADFFF789B9069858B9C145B8BF9D
:104F4800B0EE467A8BE7042F83ED037A3DF47CAD0F
:104F5800FFF7C5B9032F83ED027A3DF475ADFFF76E
:104F680099B92D4B2D49DA782D4828F08EF93368F8
:104F7800BA7801333360FDF797BE2A4B27495A792F
:104F8800294828F082F9F2E7284B2449DA7828489A
:104F980028F07BF9EBE7254B9FED267A1B881F4904
:104FA800254807EE903AF8EEE77A67EE877AFDEE45
:104FB800E77A17EE902A28F068F9D8E71F4A2049BF
:104FC800538A2048D28928F060F9D0E71B4A1C4947
:104FD800138A1D48928928F058F9C8E7174B0F49DA
:104FE8005A891A4828F051F9C1E7144B0B491A7E1F
:104FF800174828F04AF9BAE7C0940020842E002008
:1050080035A60208C0780020A031002004590020ED
:10501800788A0020285800205C340020606A030841
:1050280044690308C43C002034690308283100207F
:10503800246903080000C842186903080C4B0020C3
:105048003066030804690308F4680308E068030885
:10505800CC680308A74BA8491A89A84828F015F96D
:1050680085E7A44BA449DA7DA54828F00EF97EE728
:10507800A04BA149DA78A34828F007F977E795F813
:10508800C1219D49A04828F000F970E795F8C02192
:1050980099499E4828F0F9F869E79D4B96491B689D
:1050A8009C481A8D28F0F1F861E7994B92491B68E2
:1050B80099489A8F28F0E9F859E7954B8E491B686B
:1050C80096485A8F28F0E1F851E7914B94491868AF
:1050D800438A8289008B0090924828F0D6F846E7E8
:1050E8008B4B85491B68904893F84B2028F0CDF8E6
:1050F8003DE7874B80491B688C489A8E28F0C5F895
:1051080035E7834B7C491B6889485A8E28F0BDF8DF
:105118002DE77F4B78491B68864893F8302028F0A4
:10512800B4F824E77A4B74491B68834893F82C2019
:1051380028F0ABF81BE7764B6F491B687F4893F85C
:105148004A2028F0A2F812E7714B6B491B687C488B
:1051580093F8272028F099F809E76D4B66491B68F2
:105168007848DA8828F091F801E7694B62491B68AA
:1051780075489A8828F089F8F9E6654B5E491B68F6
:1051880072481A8828F081F8F1E6614B5A491B6881
:105198006F48B3F8502028F078F8E8E65C4B564999
:1051A8001B686C485A8828F070F8E0E6584B52495A
:1051B8001B68694893F8262028F067F8D7E6544B0F
:1051C8004D491B68654893F8202028F05EF8CEE624
:1051D8004F4B53491868C37E827E007F0090604819
:1051E80028F053F8C3E6BEF1000F10D0032FC3ED2B
:1051F800023A7FF456AAFDF71FBCBEF1000F0DD08E
:10520800042FC3ED033A7FF478AAFDF715BC069A7C
:105218005AB9C145B8BFF0EE463AE7E7069A5AB917
:10522800C145B8BFF0EE463AEAE7032FC3ED023AAC
:105238007FF437AAFDF708BC042FC3ED033A7FF4C7
:105248005CAAFDF701BC474A474B48494848CDE9A5
:105258000032484B484A28F018F888E6474A484937
:10526800484828F012F882E6BEF1000F14D0072F44
:1052780083ED067A7FF4A2A8FDF7DEBB452027F070
:10528800FDFEFF2027F0FAFE3F4827F0C7FE4846FC
:1052980027F0F4FEFEF787BD0698002840F08680C8
:1052A800C145B8BFB0EE467AE1E7BEF1000F07D0BE
:1052B800364B012FC3ED003A7FF49BA9FDF7BCBB29
:1052C800069B23B9C145B8BFF0EE463AF0E72F4B2D
:1052D800012FC3ED003A3DF4B7ABFFF78AB9BEF131
:1052E800000F55D0022FC3ED013A7FF4AEA9FDF7A8
:1052F800A3BB00BF0C4B0020606A0308BC6803080E
:10530800A868030894680308846803088868030881
:10531800443A00207468030868680308586803085A
:10532800F0660308446803082C6803081868030833
:1053380000680308EC670308D8670308C867030810
:10534800B8670308A4670308946703088467030819
:10535800706703085C670308486703084067030829
:105368003467030868650308706503084465030823
:10537800546503082C650308346503080C650308A5
:10538800186503081C650308F0640308A0310020B1
:10539800069A22B9C145B8BFF0EE463AA2E7022FF5
:1053A800C3ED013A3DF450ABFFF74FB9072F83ED3A
:1053B800067A7FF403A8FDF747BBAE4B1B68D904F8
:1053C80009D40F233360D2E5AB4BAC499A8AAC4879
:1053D80027F05BFFCBE5AB4BA8491A78AA4827F022
:1053E80054FFC4E51FFA8AF31FFA89F2A749A848AF
:1053F80027F04BFFBBE54FF07E52A649A64827F0A1
:1054080044FFB4E5A54BA6495A8AA64827F03DFFB4
:10541800ADE5A24BA2491A8AA34827F036FFA6E5B4
:105428003A889F49A14827F030FFA0E5A04B9C4946
:10543800B3F900209F4827F028FF98E59E4B9F4925
:105448001868437D027D807D00909D4827F01DFFF0
:105458008DE5994B99491868C37B827B007C009045
:10546800984827F012FF82E5934B94491868437ACD
:10547800027A807A0090944827F007FF77E5934AEC
:105488008E4993484FF0120C0CFB032C9CF80A3001
:105498009CF809209CF80BC0CDF800C027F0F5FE59
:1054A80065E58A4A85498B484FF0120C0CFB032CA2
:1054B8009CF807309CF806209CF808C0CDF800C07E
:1054C80027F0E3FE53E5814A7C4983484FF0120CEC
:1054D8000CFB032C9CF804309CF803209CF805C0B6
:1054E800CDF800C027F0D1FE41E578486C4912227A
:1054F80002FB03037948DA8927F0C7FE37E57348CA
:105508006749122202FB030375481A7B27F0BDFE88
:105518002DE56E486249122202FB030371485A784E
:1055280027F0B3FE23E5122202FB03F3674A5C4926
:10553800D25C6D4827F0A9FE19E56C4B58491A78DA
:105548006B4827F0A2FE12E56A4B55499A786A48DB
:1055580027F09BFE0BE5694B51491A68684827F00C
:1055680094FE04E5674B9B79012B7FF400AD664AF6
:105578004649B2F900306548B2F9022027F085FEA5
:10558800F5E4634B3D491A88624827F07EFEEEE455
:105598005C48614983784278007800905F4827F03A
:1055A80074FEE4E415F08DFB00287FF441ACFFF7AE
:1055B8007FBABEF1000F06D0052F83ED047A7EF482
:1055C800B3AEFDF739BA069820B9C145B8BFB0EEF9
:1055D800467AF1E7052F83ED047A3DF435AAFEF704
:1055E800A3BEBEF1000F06D0062F83ED057A7EF428
:1055F800C0AEFDF721BA069820B9C145B8BFB0EED4
:10560800467AF1E7062F83ED057A3DF41DAAFEF7E9
:10561800B0BEB1EE488ADFED42CAFCF7B0B802234B
:10562800442202FB03C303F585503E4B009310222E
:1056380013233D4904301AF039FCFEF7C0BCBEF113
:10564800000F06D0072FC3ED063A7FF4DAA8FDF75E
:10565800F3B9069A002A40F0A580C145B8BFF0EE1C
:10566800463AEFE7314B0E49D3F89820304827F0F7
:105678000CFE7CE4802E0020083A002044660308D3
:1056880048660308686A0020506603083066030805
:10569800386603081C660308246603082C5C00208F
:1056A800606A03081066030804660308FC650308BB
:1056B800DA940020F0650308443A0020F0660308F5
:1056C8002C67030820670308186703085490002014
:1056D8001067030808670308FC660308E066030808
:1056E800D4660308C8660308C0660308E22A0020D7
:1056F800AC6603080C4B00209C660308FC4A00209B
:1057080090660308746A00206C6A002080660308AB
:1057180010300020786603085C6603086866030892
:105728000000000085C20208FC64030860740020C1
:10573800B46A03086F4B7049B3F900206F4827F02B
:10574800A4FD14E46E4A6F496F4827F09EFD0EE4ED
:105758006E4A6C496E4827F098FD08E46D4B6E4A16
:105768006E496F4827F091FD01E4BEF1000F08D0A3
:10577800052FC3ED043A7EF4ECAFFDF75DB913468F
:105788004EE7069AAAB9C145B8BFF0EE463AEFE728
:10579800BEF1000F14D0062FC3ED053A7FF405A81B
:1057A800FDF74AB9072FC3ED063A7FF42AA8FDF79B
:1057B8004BB9052FC3ED043A7EF4CBAFFDF744B9DE
:1057C800069A002A40F08F80C145B8BFF0EE463AED
:1057D800E1E7544A5449B2F896305448B2F8942054
:1057E80027F053FDFFF7C3BB514B43491A88514873
:1057F80027F04BFDFFF7BBBB4D4B3F499A784E480E
:1058080027F043FDFFF7B3BB494B3B491A794B4897
:1058180027F03BFDFFF7ABBB494B37491A7A49489C
:1058280027F033FDFFF7A3BB454B33491A7F4648A2
:1058380027F02BFDFFF79BBB414B2F499A7E43482E
:1058480027F023FDFFF793BB3D4B2B491A7E4048B9
:1058580027F01BFDFFF78BBB95F8402126493D48F3
:1058680027F013FDFFF783BB354B234993F8252019
:10587800394827F00AFDFFF77ABB384B1E491A68EA
:10588800374827F002FDFFF772BB8A7835481A4976
:1058980027F0FBFCFFF76BBB254B1749DA89324829
:1058A80027F0F3FCFFF763BB254A1F4992F827301E
:1058B8002E4892F8262027F0E8FCFFF758BB204B2B
:1058C8000D4993F828202A4827F0DFFCFFF74FBB43
:1058D8001B4A154992F82A30264892F8292027F0C1
:1058E800D4FCFFF744BB062FC3ED053A7EF45DAF49
:1058F800FDF7AAB8D8940020606A0308E465030895
:10590800E094002018650308D8650308AC6503080F
:10591800C46503087C650308886503089465030863
:105928009C650308607400205C6A0308986A030891
:105938002C5C0020F4690308E0690308CC690308BB
:10594800106A0020B86903089C6903088069030885
:105958006C69030854690308306A0308246B002043
:10596800246A0308186A0308046A0308646A0308B7
:10597800446A03087C6A0308F8B5204F05461CF002
:10598800AFFB97F8DC607EB10DB31D4A31460023AA
:1059980014890133002C18BF0021AB4202F16002C8
:1059A800F6D1A1B93046F8BDD7F8D430C31A002BC8
:1059B800F8DB97F8DD30A3B1013BDBB287F8DD30C7
:1059C800A3B100F57A70C7F8D4000126EAE700F51C
:1059D8001C5010300023C7F8D40087F8DC3030465C
:1059E800F8BDC7F8D46001263046F8BDD7F8D830DE
:1059F8001844C7F8D4000126D4E700BF901C002043
:105A0800585C00202DE9F04F83B01C4606468846B6
:105A180017461CF065FBBF4B1B78002B72D02F2F4D
:105A280070D8DFF81CA3DAF8D430002B6AD1152F10
:105A38006BD80123B84903FA07F20A4240F02182E1
:105A4800B64912F03E0F9B460CBF4FF47A730B46D3
:105A58000193002C5FD100F51C501030019BCAF84F
:105A6800D4008AF8DDB0CAF8D830B8F1000F47D0B2
:105A780042463946AA482DF09CFEAA4A1389B8F135
:105A8800010FB3FA83F34FEA531335D0B2F8681015
:105A9800002918BF0023B8F1020F2DD0B2F8C810A2
:105AA800002918BF0023B8F1030F25D0B2F8281138
:105AB800002918BF0023B8F1040F1DD0B2F88811CF
:105AC800002918BF0023B8F1050F15D0B2F8E81166
