:020000040800F2
:10000000F0FF0010858804089D130308CD3C02080A
:1000100021890408218904082189040800000000BE
:10002000000000000000000000000000A31303080F
:10003000A1130308000000009F130308E53602081F
:1000400021890408218904082189040821890408D8
:100050002189040821890408D53D0208013F0208CE
:10006000C53E0208893E02084D3E0208ADEE00087A
:100070009DEE00088DEE00087DEE000869EE000898
:1000800055EE000841EE0008218904082189040882
:10009000218904082189040821890408113E0208E5
:1000A0009528020821890408218904082189040867
:1000B0007D2C0208BD2B020821890408218904082F
:1000C0002189040821890408218904082189040858
:1000D000218904085D38020821890408C137020813
:1000E000993D020821890408EB510308218904087D
:1000F0006529020821890408312A02082DEE00082A
:100100002189040821890408FD2A0208218904089C
:10011000218904082189040841DB01082DDB01083D
:1001200019EE000805EE0008F1ED0008DDED00080D
:10013000C9ED0008218904082189040821890408DF
:100140002189040821890408218904080528030855
:10015000B5ED0008A1ED00088DED00082537020877
:1001600021890408218904082189040821890408B7
:1001700021890408218904082189040821890408A7
:0801800021890408218904080B
:080188002C84040001000000BA
:1001900010020100442C0020402C00200000000030
:1001A000CC0600080E020200F84F0020145A00206E
:1001B00000000000CE060008F8210600E64F0020EF
:1001C000185A002000000000D00600080312330077
:1001D000205900205359002000000000D6060008D6
:1001E00025009600D45700206A5800200000000027
:1001F00000000000150070007C560020EC56002026
:1002000000000000000000002A006000BC55002033
:100210001C5600200000000079B503082F001100D3
:1002200078500020A5550020000000000A070008B3
:100230002C00100000590020105900200000000080
:10024000790D01082B002400AA59002086590020AE
:1002500000000000490D010829107800005000201E
:100260005C57002000000000000000002300100088
:100270007C4F0020205A00200000000071F100088F
:1002800028101000405A0020305A002000000000C2
:1002900059F100081400030088540020B6550020CE
:1002A000000000001C07000802000C00A0600020F5
:1002B000F4600020000000000000000008120900A7
:1002C0009060002000610020000000000983000809
:1002D000F7010600866000200C610020000000008D
:1002E000200700080A020A00F45F002014610020C1
:1002F000000000002607000803000100045B002046
:100300002061002000000000000000001010030029
:10031000BC5A0020246100200000000030070008C3
:100320001A023C00386100207465002000000000C3
:10033000818A000827000400B4650020B065002011
:10034000000000003407000805100600867A00202F
:100350001081002000000000380700080C10140174
:10036000547900201881002000000000B19301089A
:100370000E502C01DE7700202C82002000000000AF
:100380009DB70308090201009C7F002058830020CC
:10039000000000003E07000801020500627700200F
:1003A0005C83002000000000D59B020800020500CD
:1003B000447D002064830020000000000000000055
:1003C0001B0208002C7D00206C8300200000000030
:1003D000B982000801200800887E00207483002074
:1003E000000000004007000819000500147F0020ED
:1003F0007C830020000000004807000837001E0032
:10040000EC7E002084830020000000004E070008DE
:100410001E0005000C7B0020A483002000000000CB
:100420006C0700081B00F400C0650020AC830020AE
:10043000000000003DAB020826000E00B084002042
:10044000A084002000000000D99402081F201C0096
:100450001886002068940020000000007207000841
:100460000502040040910020849400200000000058
:100470008E07000803010A00428E002088940020A5
:10048000000000009207000813020300E48400202B
:1004900094940020000000009C07000804008000E5
:1004A0009CC20020E4CB00200000000000000000FF
:1004B0000D00340038C2002064CC00200000000091
:1004C000BD4204081300040020B9002098CC00208D
:1004D00000000000A0070008F6210C0024B900204D
:1004E0009CCC002000000000A4070008F53170003B
:1004F0005CB80020A8CC00200000000079AA000809
:100500000B2010004CB8002018CD00200000000087
:10051000B00700080101040048B8002028CD0020E1
:1005200000000000000000000001040044B80020AA
:100530002CCD002000000000C007000802010300CD
:1005400040B8002030CD00200000000039940108A0
:10055000FD0124000CB8002034CD00200000000074
:100560003518020818202C00DCB7002058CD0020D8
:1005700000000000018D00080610180034AB0020B8
:1005800084CD00200000000001B80308FB01010039
:1005900030AB00209CCD0020000000005D8E0008E4
:1005A000FC010900FCA90020A0CD002000000000F3
:1005B0006D8E00080A402600A0940020ACCD0020DB
:1005C00000000000C40700083400100024A9002027
:1005D000D4CD002000000000D5B7030811020800A8
:1005E000FCA80020E4CD002000000000EA0700087D
:1005F00012120400F4A80020ECCD0020000000003E
:10060000F207000812200D00E4A80020F0CD002021
:1006100000000000F6070008F9010400209D0020FA
:1006200000CE002000000000AD18020818020200F1
:100630002897002004CE00200000000000000000E9
:1006400017020B001C97002008CE002000000000BD
:10065000C5820008FA010200F896002014CE00209E
:10066000000000004984000802020300E894002012
:1006700018CE002000000000000000000C02030063
:10068000D49400201CCE002000000000418300080C
:10069000FE0109008C96002020CE00200000000002
:1006A000518300081A000E0048E000208CE1002071
:1006B000000000000408000816000800FC110120DA
:0C06C000041201200000000012080008D5
:1006CC00000000000400F40119000000000000000C
:1006DC00000000000000000000000000000000000E
:1006EC0000000000000000000000000000000000FE
:1006FC0000000000000000000000000001000000ED
:10070C0000000000000000000000000000000000DD
:10071C000300000018000100000000004A01B400B2
:10072C00D60100000005000020030000200003019A
:10073C0000001300E8036400040A00010000280113
:10074C00000020003200C800D007960014003200D0
:10075C002800B00440060005500014000F000801EA
:10076C000000010000000000000000010000000576
:10077C000000010203000000000000000000000067
:10078C00000000000000040101006C1600000000D5
:10079C000000000008000430000000000100000010
:1007AC00020200002B21231E640102000000010044
:1007BC000A012900BC01000000300100000000000B
:1007CC0000005A00000000000000000000000202BF
:1007DC0000019E077D0046329001200000000000C1
:1007EC00000001010101FFFFFFFF000000010000FC
:1007FC00054B4957490000007E05EA05B405320057
:0E080C00E803D0070000651B0D001901282825
:10081A001A030000000000000000000000000000B1
:10082A0000000000000000000000000004030904AA
:10083A001201000200000040830420570002010256
:10084A000301000031A60008A5830008A18300085F
:10085A009D830008898E0008998300089583000803
:10086A00D8B30408211D0308E50003080D1E030878
:10087A00000000000000000039200308491F030897
:10088A00000000000000000000000000D5FD020882
:10089A003D84000831840008B9930008D593000804
:1008AA00E98300089D930008819300080101000074
:1008BA0050010000070000000200000000000000D4
:1008CA00000000000102030406070809D60101001E
:1008DA00000101010001FFFFFFFFFFFF010000000F
:1008EA00FFFFFFFFFF00000000000000E46000209F
:1008FA000800000000000000D4600020080000008A
:10090A0004E30408050804000000000044E80408A1
:10091A0004E9040830E804080000000000000000B0
:10092A0030E3040805080A000000000044E804084F
:10093A0004E9040814E704080000000000000000AD
:10094A00010102FFFF00000000000100E0010101B7
:10095A0001000000A59F020800000000B802002064
:10096A00484B0508000000000000000000000000DD
:10097A0000000000AC400508000000000000000074
:10098A007603002004000000F44A05080D00000068
:10099A00CDC10208341D0020000000008044050873
:1009AA000D000000F5C10208281D0020000000000B
:1009BA00F845050808000000000000001C1D002082
:1009CA0004000000EC4405080D00000059A00208CC
:1009DA00101D002000000000A845050803000000C3
:1009EA0019C40208041D002000000000584B050825
:1009FA000300000019C40208F81C002000000000CF
:100A0A001841050801000000000000000000000075
:100A1A0000000000000000000E00000000000000BE
:100A2A000000000000000000484B0508000000001C
:100A3A00000000000000000000000000AC400508B3
:100A4A0000000000000000007603002004000000FF
:100A5A00A04A05080300000055B70208EC1C002054
:100A6A0008000000EC4405080D00000059A0020827
:100A7A00101D002000000000A84505080300000022
:100A8A0019C40208041D002000000000584B050884
:100A9A000300000019C40208F81C0020000000002E
:100AAA0018410508010000000000000000000000D5
:100ABA0000000000000000000E000000000000001E
:100ACA000000000000000000604B05080000000064
:100ADA00000000000000000000000000AC40050813
:100AEA00000000000000000076030020040000005F
:100AFA00A84A05080300000019C40208401D002086
:100B0A000000000018410508010000000000000074
:100B1A000000000000000000000000000E000000BD
:100B2A00000000000000000000000000207000200B
:100B3A00702D7200FFFFFFFF010000000000803FE0
:100B4A00080000000000000000000000A8180020B3
:100B5A00FA00000001000000010000000000803FD0
:100B6A00000000000000000000000000000000007B
:100B7A00000000000000000000000000000000006B
:100B8A0000000000FFFF2D202D2D202D2D2D2D20C2
:100B9A002D2D2D00000000000000000000000000C4
:100BAA000000000000000000C8400508D040050809
:100BBA0010410508000000000000000000000000CD
:100BCA00000000004F4005080400000097BF02081B
:100BDA0000000000000000001841050801000000A4
:100BEA0000000000000000000000000000000000FB
:100BFA000E000000000000000000000000000000DD
:100C0A00EA7A00200100C40900000000E87A002006
:100C1A000100C40900000000E67A00200100C409AE
:100C2A0000000000E47A00200100C409000000006E
:100C3A00E07A00200100C40900000000E27A0020E6
:100C4A000100C40900000000DE7A00200100C40986
:100C5A0000000000DC7A00200100C4090000000046
:100C6A00747700200100C80001000000727700209C
:100C7A00320030753200000070770020055A0500F6
:100C8A006D77002000FF01006F770020010000004F
:100C9A00980300206B77002002000000E8E60408B1
:100CAA006C77002000FF01006E7700200100000031
:100CBA00980300206A77002002000000E8E6040892
:100CCA006077002080C1803E050000005E7700202A
:100CDA0080C1803E050000005C77002080C1803E14
:100CEA00050000005A77002080C1803E0500000000
:100CFA005977002000FF0100587700200A320100CE
:100D0A005777002004000000F4E604085677002014
:100D1A000200000008E704080000000000000000CC
:100D2A00A0030020EC9000209CFF2C010000000092
:100D3A003E0100200A00000014E704084C77002056
:100D4A00E0150C1700000000400100200800000018
:100D5A0004E904083F0100200500000044E80408F3
:100D6A004E770020020000002CE704088C7A00204D
:100D7A000100FF7F01000000857A002002000000C8
:100D8A0038E7040818790020030040000100000039
:100D9A00167900200000803E01000000147900202E
:100DAA000000F40101000000127900200000F401A3
:100DBA0001000000107900200000F4010100000089
:100DCA000E7900200000F401010000000C790020D7
:100DDA000000803E010000000A7900200000803EE9
:100DEA000100000034790020E803D0070A0000005F
:100DFA0032790020006401000A00000027790020EF
:100E0A000064010026790020006401002E79002088
:100E1A00006401000A0000002D790020006401002E
:100E2A000A0000002C790020006401000A0000007A
:100E3A0031790020006401000A00000030790020A6
:100E4A00006401000A0000002F79002000640100FC
:100E5A000A0000002B79002000FF01000A000000B0
:100E6A002A79002000FF01000A00000029790020E9
:100E7A0000FF01000A000000DA7700200000F401F8
:100E8A0001000000D87700200000F40101000000F2
:100E9A00D67700200000F40101000000D47700207A
:100EAA000000F40101000000D27700200000F401E4
:100EBA00010000002479002000640100227900204A
:100ECA001400E8030100000020790020E8033075CF
:100EDA000A0000001E79002000C801001D790020C8
:100EEA0000C801001C79002000C801001B790020FD
:100EFA00006401000A0000006B7A002001C80100AA
:100F0A006A7A0020010A01007A7A00200000D007DC
:100F1A0001000000747A002000C80100737A0020E2
:100F2A0000C80100727A002000C80100787A002007
:100F3A000000D00701000000717A002000C80100FB
:100F4A00707A002000C801006F7A002000C80100F2
:100F5A00767A00200000D007010000006E7A002097
:100F6A0000C801006D7A002000C801006C7A0020D8
:100F7A0000C80100697A00200100000048E704085F
:100F8A0040410508000000000000000000000000C9
:100F9A0000000000280E05080900000000000000FB
:100FAA004404002004000000300E05080900000077
:100FBA0000000000380400200400000098480508DA
:100FCA0009000000000000002C04002004000000BA
:100FDA009CFF040809000000000000002004002013
:100FEA00040000005041050809000000000000004C
:100FFA0014040020040000005841050809000000FC
:10100A0000000000080400200400000060410508F8
:10101A000900000000000000FC030020040000009A
:10102A00684105080900000000000000F0030020E4
:10103A00040000001841050801000000000000003B
:10104A000000000000000000000000000E00000088
:10105A000000000000000000000000006C430508CA
:10106A000000000000000000000000000000000076
:10107A00242F050807000000000000006804002073
:10108A00000000007C430508080000000000000082
:10109A005C040020000000008843050808000000E6
:1010AA00000000005004002000000000184105085C
:1010BA000100000000000000000000000000000025
:1010CA00000000000E000000000000000000000008
:1010DA000000000090430508000000000000000026
:1010EA000000000000000000A04305080D000000F9
:1010FA0000000000A404002000000000A843050826
:10110A000D0000000000000098040020000000000C
:10111A00B04305080700000000000000900400200A
:10112A0000000000B84305080D00000000000000A0
:10113A008404002000000000C04305080D000000E0
:10114A00000000007804002000000000C8430508E1
:10115A0007000000000000007004002000000000EA
:10116A00184105080100000000000000000000000E
:10117A0000000000000000000E0000000000000057
:10118A000000000000000000D04305080000000035
:10119A00000000000000000000000000242F0508E5
:1011AA000C0000000000000076770020000000001C
:1011BA00E44305080C0000000000000078770020D6
:1011CA0000000000F44305080C00000000000000C5
:1011DA00AE77002000000000044405080C0000005F
:1011EA0000000000A2770020000000001844050853
:1011FA000C000000000000007A77002000000000C8
:10120A00244405080C000000000000007C77002040
:10121A00000000002C4405080C000000000000003B
:10122A007E77002000000000404405080C00000002
:10123A0000000000807700200000000048440508F4
:10124A000C0000000000000082770020000000006F
:10125A00504405080C00000000000000C077002080
:10126A0000000000684405080C00000000000000AF
:10127A008477002000000000744405080C00000078
:10128A00000000008677002000000000380E0508E4
:10129A000C00000000000000887700200000000019
:1012AA007C4405080C000000000000008A7700203A
:1012BA0000000000884405080C000000000000003F
:1012CA008C77002000000000944405080C00000000
:1012DA00000000008E77002000000000A0440508EE
:1012EA000C000000000000009077002000000000C1
:1012FA00AC4405080C0000000000000092770020B2
:10130A0000000000B84405080C00000000000000BE
:10131A00A677002000000000C04405080C00000069
:10132A0000000000A477002000000000C84405085F
:10133A000C00000000000000B2770020000000004E
:10134A00D44405080C00000000000000B477002017
:10135A0000000000E04405080C0000000000000046
:10136A00BA770020000000000C4205080C000000BB
:10137A00000000009477002000000000EC440508FB
:10138A000C000000000000009C7700200000000014
:10139A00F44405080C0000000000000096770020C5
:1013AA0000000000004505080C00000000000000D5
:1013BA0098770020000000000C4505080C0000008A
:1013CA00000000009A77002000000000144505087C
:1013DA000C000000000000009E77002000000000C2
:1013EA00442F05080C00000000000000A877002028
:1013FA0000000000204505080C0000000000000065
:10140A00A0770020000000002C4505080C00000011
:10141A0000000000B07700200000000038450508F1
:10142A000C00000000000000AA7700200000000065
:10143A00404505080C00000000000000AC770020C1
:10144A0000000000484505080C00000000000000EC
:10145A00B677002000000000504505080C00000087
:10146A0000000000B8770020000000005845050879
:10147A000C00000000000000CA77002000000000F5
:10148A0018410508010000000000000000000000EB
:10149A0000000000000000000E0000000000000034
:1014AA000000000000000000604505080000000080
:1014BA000000000000000000000000006C45050864
:1014CA000D00000000000000FC04002000000000E5
:1014DA00744505080D00000000000000F00400201B
:1014EA00000000007C45050807000000000000001D
:1014FA00E8040020000000008845050807000000F5
:10150A0000000000E00400200000000094450508E7
:10151A000900000000000000D404002000000000C0
:10152A00A04505080900000000000000C8040020CA
:10153A0000000000AC45050809000000000000009A
:10154A00BC04002000000000BC450508090000009A
:10155A0000000000B0040020000000001841050847
:10156A000100000000000000000000000000000070
:10157A00000000000E000000000000000000000053
:10158A0000000000D045050800000000000000002F
:10159A000000000000000000E0450508050000000A
:1015AA0000000000D1770020000000001841050863
:1015BA000100000000000000000000000000000020
:1015CA00000000000E000000000000000000000003
:1015DA0000000000E84505080000000000000000C7
:1015EA000000000000000000AC40050800000000F8
:1015FA0000000000DC1E002004000000F44505087D
:10160A000D000000F9BF020850050020000000008C
:10161A00F44A05080D0000005D9F020844050020F9
:10162A0000000000804405080D000000419F0208E8
:10163A003805002000000000F845050808000000F1
:10164A00000000002C05002004000000EC440508FE
:10165A000D000000899E02082005002000000000FD
:10166A0000460508090000000000000014050020DB
:10167A0004000000A84505080300000019C4020878
:10168A0008050020000000001841050801000000BC
:10169A000000000000000000000000000000000040
:1016AA000E00000000000000000000000000000022
:1016BA0008460508000000000000000000000000C5
:1016CA0000000000184605080D0000000000000098
:1016DA006805002000000000204605080A000000F6
:1016EA0000000000ED7D0020000000002C460508E7
:1016FA000A00000000000000F57D00200000000044
:10170A00344605080A00000000000000FD7D0020A4
:10171A00000000003C460508080000000000000028
:10172A005C05002000000000444605080400000093
:10173A00B1C50208000000000000000018410508B9
:10174A00010000000000000000000000000000008E
:10175A00000000000E000000000000000000000071
:10176A0000000000504605080000000000000000CC
:10177A0000000000000000006446050808000000A0
:10178A0000000000C805002000000000704605089F
:10179A000800000000000000BC0500200000000056
:1017AA007C4605080800000000000000B005002083
:1017BA00000000008846050808000000000000003C
:1017CA00A405002000000000944605080800000057
:1017DA00000000009805002000000000A04605084F
:1017EA0008000000000000008C0500200000000036
:1017FA00AC46050808000000000000008005002033
:10180A0000000000B84605080800000000000000BB
:10181A0074050020000000001841050801000000BE
:10182A0000000000000000000000000000000000AE
:10183A000E00000000000000000000000000000090
:10184A00C446050800000000000000001F03002035
:10185A0000000000D04605080B0000000000000050
:10186A005C06002000000000DC4605080B000000B2
:10187A00000000005006002000000000E8460508AD
:10188A000B000000000000004406002000000000D9
:10189A00F44605080B00000000000000380600208E
:1018AA0000000000004705080B00000000000000CF
:1018BA002C060020000000000C4705080B00000061
:1018CA00000000002006002000000000184705085C
:1018DA000B000000000000001406002000000000B9
:1018EA00244705080B00000000000000080600203D
:1018FA0000000000304705080B000000000000004F
:10190A00FC050020000000003C4705080700000015
:10191A0000000000F405002000000000444705080C
:10192A000700000000000000EC0500200000000095
:10193A00504705080B00000000000000E0050020E9
:10194A00000000005C4705080800000000000000D5
:10195A00D40500200000000018410508010000001D
:10196A00000000000000000000000000000000006D
:10197A000E0000000000000000000000000000004F
:10198A006847050800000000000000000000000091
:10199A00000000007C470508080000000000000065
:1019AA00980600200000000088470508080000008B
:1019BA00000000008C060020000000009447050883
:1019CA00080000000000000080060020000000005F
:1019DA00A047050808000000000000007406002067
:1019EA0000000000AC4705080800000000000000E5
:1019FA0068060020000000001841050801000000E8
:101A0A0000000000000000000000000000000000CC
:101A1A000E000000000000000000000000000000AE
:101A2A00B447050800000000000000001C03002065
:101A3A0000000000C44705080B0000000000000079
:101A4A00DC06002000000000D0470508070000005F
:101A5A0000000000D406002000000000DC47050852
:101A6A000700000000000000CC0600200000000073
:101A7A00E84705080700000000000000C40600202F
:101A8A0000000000F44705080800000000000000FC
:101A9A00B806002000000000FC4705080800000006
:101AAA0000000000AC060020000000000448050801
:101ABA000700000000000000A4060020000000004B
:101ACA0018410508010000000000000000000000A5
:101ADA0000000000000000000E00000000000000EE
:101AEA000000000000000000104805080000000087
:101AFA00000000001C030020000000001C4805082C
:101B0A000D00000000000000640700200000000033
:101B1A002848050807000000000000005C070020B4
:101B2A00000000003048050807000000000000001F
:101B3A00540700200000000038480508070000008C
:101B4A00000000004C070020000000004048050883
:101B5A00080000000000000040070020000000000C
:101B6A0064FF040807000000000000003807002096
:101B7A00000000006CFF04080700000000000000DD
:101B8A00300700200000000074FF0408070000006E
:101B9A0000000000280700200000000020000508BF
:101BAA0008000000000000001C07002000000000E0
:101BBA00484805080700000000000000140700203C
:101BCA00000000005048050807000000000000005F
:101BDA000C07002000000000584805080700000014
:101BEA00000000000407002000000000604805080B
:101BFA000800000000000000F806002000000000B5
:101C0A00684805080700000000000000F0060020F0
:101C1A0000000000704805080700000000000000EE
:101C2A00E806002000000000184105080100000035
:101C3A000000000000000000000000007C480508C9
:101C4A000200000005C602080100000000000000B2
:101C5A00000000000E00000000000000000000006C
:101C6A000000000000000000DDA20208700700204A
:101C7A00CF7700202C00000050E70408CE77002020
:101C8A0000C80100CC770020E803D007010000005B
:101C9A004B49574946340000697700200003010088
:101CAA00687700200003010025A20208FDA10208AE
:101CBA004C080020B9A102086DA10208C40800203E
:101CCA0065A202084DA2020878090020D1A00208E4
:101CDA007DA00208980C0020F3A202081DC2020887
:101CEA00740D0020C99E020800000000C40D0020E7
:101CFA0091C50208ADA50208A00E0020C9A30208DA
:101D0A0089A30208540F002065A40208B1A402089E
:101D1A003010002025790020010601004DA3020899
:101D2A0019A302087011002009A402084DC2020872
:101D3A0010120020E1A40208A9C20208D812002049
:101D4A001A790020010301008848050800000000F4
:101D5A000000000000000000000000009448050890
:101D6A0008000000000000007414002000000000B9
:101D7A009C48050807000000000000006C140020C1
:101D8A0000000000AC4805080D000000000000003B
:101D9A006014002000000000B84805080300000095
:101DAA0019C4020854140020000000001841050854
:101DBA000100000000000000000000000000000018
:101DCA00000000000E0000000000000000000000FB
:101DDA0000000000C04805080000000000000000E4
:101DEA000000000000000000D04805080A000000BA
:101DFA0000000000D848050800000000E048050877
:101E0A000A00000000000000043B05080000000072
:101E1A00E84805080A000000000000007C7A00205B
:101E2A0000000000F04805080A0000000000000059
:101E3A00801400200000000018410508010000007D
:101E4A000000000000000000000000000000000088
:101E5A000E0000000000000000000000000000006A
:101E6A00F84805080000000000000000000000001B
:101E7A0000000000044905080300000019C4020814
:101E8A00B0140020000000001049050803000000FB
:101E9A0019C40208A414002000000000184905080B
:101EAA000300000019C40208981400200000000072
:101EBA00204905080500000000000000677700209F
:101ECA000000000028490508070000000000000083
:101EDA0090140020000000003449050807000000A3
:101EEA0000000000881400200000000018410508C6
:101EFA0001000000000000000000000000000000D7
:101F0A00000000000E0000000000000000000000B9
:101F1A000000000040490508000000000000000021
:101F2A0000000000000000005449050803000000FA
:101F3A0019C40208E01400200000000060490508E6
:101F4A000300000019C40208440100200000000038
:101F5A00684905080300000019C40208D4140020C7
:101F6A0000000000704905080300000019C40208B7
:101F7A00C814002000000000EC440508030000001B
:101F8A0019C40208BC14002000000000184105080A
:101F9A000100000000000000000000000000000036
:101FAA00000000000E000000000000000000000019
:101FBA00000000007C490508000000000000000045
:101FCA0000000000000000008C490508070000001E
:101FDA0021C3020830150020000000001045050842
:101FEA000300000019C402082415002000000000A4
:101FFA00984905080300000019C4020818150020B2
:10200A0000000000A04905080300000019C40208E6
:10201A000C15002000000000A84905080700000070
:10202A0005C302080415002000000000DCFF0408B4
:10203A000300000019C40208F81400200000000080
:10204A00B44905080300000019C40208EC14002072
:10205A00000000001841050801000000000000000F
:10206A000000000000000000000000000E00000058
:10207A00000000000000000000000000ADA20208FD
:10208A007DA202083815002079A502080000000088
:10209A00C415002049A1020825A1020850160020F3
:1020AA0000000000000000000417002051A50208EB
:1020BA003DC30208A4170020C0490508000000001B
:1020CA000000000000000000000000006413050882
:1020DA000300000019C402089C1800200000000038
:1020EA00CC4905080300000019C402089018002012
:1020FA0000000000A42E05080300000019C402080D
:10210A008418002000000000D849050803000000D8
:10211A0019C402087818002000000000E4490508E4
:10212A000300000019C402086C1800200000000017
:10213A00EC4905080200000005C60208000000007C
:10214A00000000007C4805080200000005C60208DD
:10215A000100000000000000F44905080200000028
:10216A0005C602080200000000000000000000008E
:10217A000E00000000000000000000000000000047
:10218A005277002088136F1701000000547700204F
:10219A0088136F1700000000004A050800000000BD
:1021AA00000000000000000000000000104A0508BE
:1021BA0008000000000000007C1900200400000054
:1021CA001C4A0508080000000000000070190020E1
:1021DA0000000000A84505080400000021C002080C
:1021EA00000000000000000018410508010000007E
:1021FA0000000000000000000000000000000000D5
:10220A000E000000000000000000000000000000B6
:10221A005077002088136F17010000002C910020CE
:10222A0088136F17000000000DA0020800000000CC
:10223A0088190020927D00200100000004E80408AB
:10224A002E9100200100000010E8040824910020CB
:10225A000200000018E8040862C300200000000021
:10226A000000000060C30020000000000000000021
:10227A005EC3002000000000000000005CC30020D4
:10228A0000000000000000005AC300200000000007
:10229A000000000058C300200000000000000000F9
:1022AA00141F002000000000000000004F770020EB
:1022BA000200000024E80408584A0508000000004B
:1022CA00000000000000000000000000104A05089D
:1022DA0008000000000000000C1A002004000000A2
:1022EA001C4A05080800000000000000001A00202F
:1022FA0000000000A845050804000000DD9F020850
:10230A00000000000000000018410508010000005C
:10231A0000000000000000000000000000000000B3
:10232A000E00000000000000000000000000000095
:10233A00684A0508000000000000000000000000D4
:10234A0000000000784A05080D00000071C102086B
:10235A003C1A002004000000844A05080D00000011
:10236A0035A00208301A002004000000904A05082F
:10237A000D00000035C10208241A002000000000E8
:10238A009C4A05080300000075B70208181A0020C5
:10239A0008000000A84A05080300000019C4020842
:1023AA00401D00200000000018410508010000003F
:1023BA000000000000000000000000000000000013
:1023CA000E000000000000000000000000000000F5
:1023DA001041050800000000000000000000000095
:1023EA00000000004F4005080400000039C0020840
:1023FA00000000000000000018410508010000006C
:10240A0000000000000000000000000000000000C2
:10241A000E000000000000000000000000000000A4
:10242A00FC4A05080000000000000000000000004F
:10243A0000000000401205080D0000000000000026
:10244A009C1A0020040000000C4B0508080000003C
:10245A0000000000901A002004000000184B050834
:10246A000800000000000000841A00200400000098
:10247A00204B05080800000000000000781A002020
:10248A0004000000284B05080800000000000000B6
:10249A006C1A002004000000304B050808000000F8
:1024AA0000000000601A002004000000384B0508F4
:1024BA000800000000000000541A00200400000078
:1024CA00404B05080800000000000000481A0020E0
:1024DA000400000018410508010000000000000087
:1024EA000000000000000000000000000E000000D4
:1024FA00000000000000000000000000F59F020834
:10250A0000000000A81A00200000000000000000DF
:10251A00201B00200000000000000000C01B00205B
:10252A002A9100200400000030E8040828910020C5
:10253A00E0150C1700000000279100200800000099
:10254A0004E90408269100200500000044E8040874
:10255A000000000000000000101C00200403090411
:10256A0012010002EF020140830456320002010206
:10257A0003010000120100020202004083044057D6
:10258A00000201020301000009022000010104C047
:10259A0032090400000208065005070581024000BE
:1025AA00000705010240000009026400030100C09F
:1025BA003209040000010300000009211101000191
:1025CA002226000705830308000A080B01020202FB
:1025DA0001000904010001020201000524001001A2
:1025EA00052401000204240202052406010207054B
:1025FA0082030800FF09040200020A00000007051E
:10260A000102400000070581024000000902430060
:10261A00020100C03209040000010202010005247F
:10262A000010010524010001042402020524060009
:10263A0001070582030800FF09040100020A0000DD
:10264A000007050102400000070581024000000062
:10265A00FF00000000FFFF0000000000AA5505016E
:10266A000000010005010905A101A10005010930C9
:10267A000931093209330935093409400938158104
:10268A00257F750895088102C0C000000902220052
:10269A00010100E0320904000001030102000921DE
:1026AA00110100012226000705830308000A000021
:1026BA0000000000010203040102030406070809DE
:1026CA00AD220308D12103085118030857FE020856
:1026DA00F101030867FE020883FE020831FE0208C0
:1026EA0023FE020800000000000000002D202D2D0E
:1026FA00202D2D2D2D202D2D2D2D00000000000028
:10270A000000000000000000000000AA550B0100B4
:10271A0000AA5507010000AA55090200000000009E
:10272A0001000000C012AA5503009F00FF1FFF1FEF
:10273A004494002000000000301F00200400000024
:10274A00000200051002700B080000009DFD02083F
:10275A009BFD020899FD020893FD020891FD0208FB
:10276A0097FD020895FD0208010000000060024082
:10277A00106002400000000000000000000B000092
:10278A00000000000000000000000000006002409D
:10279A00286002400100000000000000060C000052
:1027AA00000000000000000000000000006002407D
:1027BA00406002400200000000000000100D00000E
:1027CA00000000000000000000000000006002405D
:1027DA00586002400300000000000000160E0000CE
:1027EA00000000000000000000000000006002403D
:1027FA00706002400400000000000000200F00008A
:10280A00000000000000000000000000006002401C
:10281A008860024005000000000000002610000049
:10282A0000000000000000000000000000600240FC
:10283A00A060024006000000000000003011000005
:10284A0000000000000000000000000000600240DC
:10285A00B86002400700000000000000362F0000A8
:10286A0000000000000000000000000000640240B8
:10287A001064024000000000000000000038000060
:10288A000000000000000000000000000064024098
:10289A002864024001000000000000000639000020
:1028AA000000000000000000000000000064024078
:1028BA00406402400200000000000000103A0000DC
:1028CA000000000000000000000000000064024058
:1028DA00586402400300000000000000163B00009C
:1028EA000000000000000000000000000064024038
:1028FA00706402400400000000000000203C000058
:10290A000000000000000000000000000064024017
:10291A008864024005000000000000002644000010
:10292A0000000000000000000000000000640240F7
:10293A00A0640240060000000000000030450000CC
:10294A0000000000000000000000000000640240D7
:10295A00B86402400700000000000000364600008C
:10296A000000000000000000000000001F852B3F4F
:10297A000000803F0000000000000000000000008E
:10298A000000803F0000000000000000000000007E
:10299A000000803F0000000000000000000000006E
:1029AA000000803FB52103082701030849210308D5
:1029BA000000000021FE0208411703088D200308C9
:1029CA00C51603080000000000000000E1FD02082F
:1029DA00ADFD02089FFD020875140308911403084F
:1029EA00591403083D140308231403086D2103082E
:1029FA00050103088F20030800000000F9FD020802
:102A0A00C7160308612003083316030800000000F4
:102A1A0000000000EDFD02080C220020000000006A
:102A2A00000000000000000000000000000000009C
:102A3A00000000000000000000000000000000008C
:102A4A00000000000000000000000000000000007C
:102A5A00000000000000000000000000000000006C
:102A6A00000000000000000000000000000000005C
:102A7A00000000000000000000000000010000004B
:108000002DE9F04714461D4606464FF47A720023C8
:108010002046294640F06AFA4D4BDFF848814D4A28
:108020004D4F034488FB03101844D91782FB032CDF
:10803000C1EB601088FB002887FB03279C44474A5C
:10804000C1EBEC2CC0EB001E82FB0C29A3EB8E0EC7
:108050001F44434A86F806E0C1EB27474FEAEC7E0F
:1080600008EB000ACEEBA90E82FB07824FEAE0780C
:108070000EEB4E0EC8EB6A18ACEBCE0CC8EB081832
:10808000DFF8E4E086F804C0A0EB880070718EFB96
:108090000303F817C0EBE21240F2B55000FB127276
:1080A000C1EBE353B2F5896F4FEA83073CDA40F244
:1080B000DA239A4242DCB2F5B77FB4BF4FF0000E2C
:1080C0004FF0010E4FEA4E09DFF8A08009EB0E03D6
:1080D00008EBC3031FFA8EFCD88A09EB0E0108EBEC
:1080E000C10116310B2301E031F8020D904218DD79
:1080F000013BF9D1CE44012338F83E00B37007F5B7
:10810000FA670132121ABC44F270A6F800C0204689
:1081100029464FF47A72002340F0E8F93281BDE835
:10812000F0870133DBB2E9E74FF0030CE64640F29B
:108130009650DFF838804FF00609CEE74FF0020C7A
:10814000DFF82880E64640F229404FF00409C4E7F2
:1081500080BC92C7C5B3A29107452EC2ABAAAA2A7A
:1081600073B06D1689888888792D0311CCB0040806
:1081700030B403888278C478154DA3F5FA6303F010
:10818000030101EB4101013A02EB81029B0835F842
:1081900012500279611E40F2B55404FB03132B44C4
:1081A00003EB430302EBC303427984790949008955
:1081B000C3EB031302EB83032144C3EB031301EB73
:1081C00083034FF47A720021C2FB030130BC704775
:1081D000CCB0040880436D3890ED057A90ED004AEC
:1081E000D0ED066AD0ED014AD0ED047A90ED035A45
:1081F000D0ED025AA4EE007AB0EE406AB0EE470A23
:10820000B0EE667AA4EE867A67EEC07AA5EE407A82
:10821000E5EE867A80ED057AC0ED067A704700BFFC
:10822000D0ED057A90ED013AD0ED003AD0ED064A56
:1082300090ED024A90ED077A90ED035A90ED086AAE
:10824000D0ED045AC0ED067AF0EE406A27EE830ABC
:10825000C0ED056AA3EEA60A80ED087AA4EE240A12
:10826000A5EE470AA5EEC60A80ED070A704700BFD3
:10827000D0ED007A90ED017A30EE670AE7EE007AF1
:10828000B0EE670AC0ED007A704700BF80ED010ACA
:10829000704700BF07EE900ADFED056AB8EEE77A97
:1082A000C6EE877A77EE807A80EE270A704700BFA5
:1082B00083F9223E704700BF06224FF47A730270A2
:1082C00043607047F0B400250E4E00F1FF3C2F468E
:1082D000142165B103788B420BD003460CEB0504E7
:1082E00003E013F8012F8A4203D0A342F9D1C1550C
:1082F000013701350B2D02D016F8011FE9E7F0BC5C
:10830000704700BF2CB104080C4AF0B4002302F1FE
:10831000080717261625152403EB4303C118BA4294
:10832000C4544D708E7006D092F90430547995790A
:10833000D6790432F0E7F0BC704700BF38B10408CA
:1083400001212C220223017042708370704700BF0C
:10835000012310B433213124322244704171C270A0
:1083600003720370037183705DF8044B704700BFA4
:1083700030B41D6995420AD314460A4621448D4201
:10838000996938BF2A1B214430BC40F0FFBA30BC89
:10839000704700BF002070470120704701207047E0
:1083A000002070474FF40070024B10609B680B6018
:1083B00000207047289D0020013A30B4D2B28C1CB6
:1083C00004EB42040025020F092AD3B203F1300264
:1083D0008ABF37330A700B704D7002318C424FEAFE
:1083E0000010F0D130BC70470B4A0C4B10681B6872
:1083F0001A22C0180A8001D10948704710B5094BEC
:1084000009491C680822FFF7D7FF204604220749C4
:10841000FFF7D2FF024810BDE8F7FF1FECF7FF1F80
:1084200000000020EAF7FF1F0200002012000020D9
:1084300004230B80004870471C00002012230B808F
:1084400000487047200000201F2203230270437061
:10845000704700BF08307047704700BF81617047A8
:10846000034B93F85B30002B0CBF46204320704732
:108470005CB80020054B93F85B302BB94FF4A47324
:108480005843642390FBF3F0704700BF5CB80020B2
:108490000E4B1B78022B17D00D4A5378127803EB42
:1084A00083035B00C01A02EB8202C3EB4203C0EB02
:1084B000C00090FBF3F00628A8BF062020EAE07079
:1084C000C0F19600C0B270479720704731B90020C4
:1084D0004CB80020034B93F85B30002B0CBF0F20EF
:1084E0000C2070475CB800200022082302754375F9
:1084F0007047012806D003D3022806D00020704719
:108500001AF09CBF024B18687047014B58687047BF
:1085100070220020012380F857307047F0B4037CAC
:10852000456902681F2B37D9203B202154689940A8
:108530000C4223D010249C40D160D4605168D940B3
:10854000CE074ED4EFF31183502282F31288EA6BE8
:108550001168C90709D45468002C52D1D5E90961C2
:108560008E4243D1012285F86020DBB283F311886B
:10857000037C02681F2B194614D9203B0821506840
:108580009940084200D0D1600421506801FA03F3F9
:10859000184223D1F0BC7047202416689C40264224
:1085A0000FD11946082310688B40184200D0936001
:1085B0000423106803FA01F10842EBD09160F0BC8B
:1085C000704710219940946091601168D940CC07A0
:1085D000B8D5012101FA03F39360B3E7D360F0BC8F
:1085E0007047012101FA03F3D360ABE7AF690F4491
:1085F000D7600ED82E69711A5160AC62002185F8DF
:108600006010116841F00101DBB2116083F3118841
:10861000AEE7711A5160AE62F0E700BF70B4037C40
:1086200001681F2B26D9A3F1200520224C68AA40FF
:10863000224214BF01220022D2B142691B481C4CC5
:1086400002EB420200EB4212257854682068CDB953
:10865000E56856892C6824F001042C6082891F2B60
:1086600022EA060282811AD8202202FA03F38B60E2
:1086700070BC704720220C689A40224214BF01222D
:108680000022D9E7A469226822F0010222608289CF
:1086900022F480721204120C1F2B8281E4D9A3F100
:1086A000200220239340CB6070BC704750AB002069
:1086B000D40D001070B59D4C2368002B40F005814F
:1086C0009B4B1A78002A68D09A4B19789A4B00294C
:1086D00064D11868B3F82C5141628489012A44EAB4
:1086E00005048481A3F82C1157D0D3F83001B3F8D6
:1086F0005C5241628489022A44EA05048481A3F819
:108700005C124AD0D3F86002B3F88C53416284897A
:10871000032A44EA05048481A3F88C133DD0D3F8DE
:108720009003B3F8BC5441628489042A44EA0504E6
:108730008481A3F8BC1430D0D3F8C004B3F8EC554E
:1087400041628489052A44EA05048481A3F8EC1572
:1087500023D0D3F8F005B3F81C5741628489062A68
:1087600044EA05048481A3F81C1716D0D3F8200727
:10877000B3F84C5841628489072A44EA050484818D
:10878000A3F84C1809D0D3F85028B3F87C495162AB
:10879000908920439081A3F87C1970BD5C68198989
:1087A00061602568186845F0010540F20D312560CB
:1087B000A0F848108489012A44F480748481ECD0A4
:1087C000D3F83441B3F83851D3F8300165602568E7
:1087D00045F001052560A0F848108489022A44F478
:1087E00080748481D9D0D3F86442B3F86852D3F846
:1087F00060026560256845F001052560A0F8481015
:108800008489032A44F480748481C6D0D3F89443C5
:10881000B3F89853D3F890036560256845F00105D7
:108820002560A0F848108489042A44F48074848167
:10883000B3D0D3F8C444B3F8C854D3F8C0046560C7
:10884000256845F001052560A0F848108489052AAF
:1088500044F480748481A0D0D3F8F445B3F8F8557B
:10886000D3F8F0056560256845F001052560A0F89E
:1088700048108489062A44F4807484818DD0D3F80A
:108880002447B3F82857D3F820076560256845F0DA
:1088900001052560A0F848108489072A44F48074F3
:1088A00084813FF47AAFD3F85428B3F85808D3F84A
:1088B00050385060106840F001001060A3F8481074
:1088C0009A8942F480729A8170BD05461AF0B6FD0D
:1088D000217AA9B16DB1194A002316890133002EFE
:1088E00018BF0021AB4202F16002F6D100293FF42B
:1088F000E7AE00F51C501030002320602372DFE645
:108900002368C31A002BFFF648AF637A3BB1013BE3
:10891000DBB263722BB100F57A702060D0E6236081
:10892000CEE6636803442360CAE600BF545A0020C1
:1089300050AE0020D40D001054AE002050AB0020EB
:1089400010B5027C01681F2A4FF020030ED94C6835
:10895000203A93401C4208D00B4A4068002414700F
:10896000026822F001020260CB6010BD0C689340E7
:108970001C42FAD0044A406800241470026822F0B5
:10898000010202608B60F0E7886A00200C4B10B592
:10899000044600F8011B92FBF3F103FB1123002BAB
:1089A000B8BF5B420A4607491DF0D8FB20230130BF
:1089B0000C2802DD0023637310BD23540130F7E758
:1089C0008096980034FB040837B504461C4800EB39
:1089D0004303B3F85C5005F00F0039B1611CD8B106
:1089E00002288CBF20239C2323700C46B2B1C5F310
:1089F0000315FFF77EFD3C23012D1249B0FBF1F179
:108A000091FBF3F203FB12130AD00F49204603B087
:108A1000BDE830401DF0A2BB9B23E5E71546E8E723
:108A2000642542F21071B0FBF1F0B0FBF5F105FBEB
:108A300011000090054920461DF090FB03B030BDA9
:108A40005CB8002040420F003CFB040846FB0408D1
:108A500010B504460846FFF70DFD0146FFF73AFD45
:108A60000A22034691FBF2F2204604491DF076FBF0
:108A7000237963712E23237110BD00BF55FB0408B9
:108A800038B51D4B1B78044600F1250593B104222F
:108A90001A49203042F0EAFA28461422184942F0D6
:108AA000E5FA012384F83A30164B1B7873B984F841
:108AB0003B3038BD28461422134942F0D7FA01232F
:108AC00084F83A300F4B1B78002BF0D00F4B18680E
:108AD00059689A68DD68E56020606160A260DD69C0
:108AE000186959699A69A2610123E5612061616190
:108AF00084F83B3038BD00BFA1DE0020E4B8002080
:108B0000CCB80020A0DE002064FD0408ECB80020F2
:108B100070B504462DED028BD0F83004B0EE408ADB
:108B20003BF04EF8D4ED047AF0EE405A94ED050A8D
:108B300037EEC00AF5EE405A30EE270AF1EE10FA91
:108B400084ED040A84ED050A05D0F5EE407AF1EED5
:108B500010FA40F0BC80664BF7EE007AB0EE676A20
:108B6000C3ED067A94ED017AD4ED037AD4ED026A6E
:108B7000E7EE067A04F23442104678EE404A77EE89
:108B8000A66AB0EE677A87EE265AF7EE007A77EE9D
:108B9000C57AA4EE850A67EE877A84ED040AC4EDEF
:108BA000037AFFF765FB04F21C4191ED007AD4F8DB
:108BB0002C34256884ED040A04F22440D0ED007AB8
:108BC000A8EE087A04EB8306013378EE277AAB42ED
:108BD00086ED068AC0ED007A81ED007AC4F82C3467
:108BE00024BF0023C4F82C3404EB8303D3ED066ABE
:108BF000404D04F5856393ED005A77EEE67AA6EED4
:108C0000E67A04F58463C0ED007A67EE857A81ED3B
:108C1000007A67EEE76AC3ED007AF0EE667AE7EE77
:108C2000057A354995ED007A0878F5EEC07AF1EECF
:108C300010FAD8BFF1EE677AF1EEE76A04F58363C4
:108C4000C3ED007A67EE267AC4ED027A70B1F5EED4
:108C5000405AF1EE10FA0CD1D4F83034022B09BF8F
:108C6000002394ED040A94ED040A0B70BDEC028B12
:108C700070BD04F23C45D5ED007AF4EE657AF1EE74
:108C800010FAE9D0DFED1D7A26EE276A04F5886038
:108C9000FDEEC67A90ED000A17EE903AB3F5FA7F32
:108CA000A8BF4FF4FA730A2BB8BF0A2307EE903A15
:108CB000B8EEE76ABCEEC66A16EE103A98B2FFF755
:108CC000E9FA1046FFF7E2FAC5ED005AC4E785EE6F
:108CD000A77A074BB7EE006A36EE476AB5EEC06A70
:108CE000F1EE10FAD8BFB1EE466A83ED066A39E7B5
:108CF000702200205C21002080E1002000008C42D6
:108D000038B52C22002142F073F90346642140F269
:108D1000DC5240F2022019745A821321202240F2C0
:108D20001A4540F26C74188399760E2002211A7746
:108D300001229D82DC8240F2753540F6430483F8BF
:108D40002200197283F82A109A7383F82920DD8390
:108D50001C8419460248BDE838400DF0B5BC00BF80
:108D60006CFD04082DE9F84FDDE90A6489461746D1
:108D7000002120229846054642F03AF95EB1D6E934
:108D800000327189EB81C3F30F432B82C2F30F438F
:108D9000EA822B83698248463EF0BCFE17F0100B36
:108DA00010D1431E70B119F803202E2A18BF09EB09
:108DB000030104D14AE011F8016D2E2E3ED013F1CB
:108DC000FF33F8D208280246CA46A8BF08224FF04F
:108DD000000B4FF020336B602B60C5F8073049461D
:108DE000284605F108063FF0D1FD5A465146304667
:108DF0003FF0CCFD6B1EE81D13F8012FA2F16101BD
:108E000019299CBF203A1A708342F5D105F10B0154
:108E100016F8013BA3F16102192A9CBF203B06F81A
:108E2000013CB142F4D11823C8F30F42EF722B7307
:108E3000A5F81A80AA82EC61BDE8F88FC01A00F18B
:108E4000FF3BBBF1030FA8BF4FF0030B082B03F14F
:108E5000010AA8BF0823CA441A46BAE710B5002180
:108E6000044601201AF060F9207010BD38B50024C6
:108E70000472451EE1B202201AF056F90134082CA2
:108E800005F8010FF6D138BD2DE9F04F002087B06D
:108E90000C461D46012192461AF0FEFE002D63D0BD
:108EA00005EB0A03DFF8D094DFF8D0B403935546FE
:108EB0001CE0002D00F0C581D9F81430AB4264D01D
:108EC000D9F81030AB4200F09780D9E90631AB42B7
:108ED00052D8A94200F26F81691A20462EF074FA26
:108EE000039B01359D4204F500743DD0D9F8206004
:108EF000AE42DED8D9F83080AE1B4FEAD60AD8F899
:108F000030300AF1020A9A4506F0070603D3D8F872
:108F100038309A4509D9414650462EF023FA80460A
:108F2000002800F04D81C9F8300098F80430002B7B
:108F300040F0E280D8F82870002F00F0DF81D8F8E8
:108F40003030D8F80C20AAEB030A06EBCA0A4346D5
:108F5000204602EB4A224FF40071B847039B0135CB
:108F60009D4204F50074C1D1002108461AF094FE18
:108F7000002007B0BDE8F08FA942ADD94FF40072D0
:108F80000021204642F034F8AAE752226120412312
:108F9000002622706270A070722284F8E70184F8C3
:108FA000E631D9F82800E3704FF0FF33314684F8FA
:108FB000E42184F8E521C4F8E8014FF4F07284F864
:108FC000EC3184F8ED3184F8EE3184F8EF31201D76
:108FD00042F00EF855216FF05502C4F8F061C4F864
:108FE000F461C4F8F86184F8FC6184F8FD6184F8E8
:108FF000FE1184F8FF2173E74FF400720021204630
:1090000041F0F6FFD44BD54F03CBEB230222237064
:109010004FF0080C9026F8234FF0580EC4F80300C8
:10902000227484F80DC0C4F8071084F801E0A6701B
:109030006375D9F81010D9F80830D9F81C6022737C
:10904000591A21624FF0FF3100233F20A1763E21C3
:10905000A273E372E3736374A374E3742375A3755B
:10906000E3756376E3766377A377E37720762177FA
:1090700084F82C2007CFD9F8187084F82830F61B14
:1090800084F8293084F82A3084F82B3084F82D3085
:1090900084F82E3084F82F3084F8313084F8323060
:1090A00084F8333080236662C4F8470004F1470631
:1090B00084F8403029209423A94F84F846C084F8CE
:1090C000420084F843300E200D234FF0010C84F849
:1090D000440084F8453084F830C0716003CF3346D3
:1090E0005527AA269A60C4F85200C4F8561084F88E
:1090F000FE7184F8FF61F3E64FF400720021204610
:1091000041F076FFD8F84030002E61D104F12007FD
:10911000002B77D0D8F8303092491122CDE9006683
:109120002046FFF71FFED8F840301A6C04F1400AC1
:10913000002A79D01B6B8C49CDE900663846112294
:10914000FFF710FED8F84460002E3FF4C9AE4FF48C
:10915000E078CDE904450CE00024CDE900C4FFF738
:1091600001FEB66CBA46A8F120080EB3B8F11F0F85
:109170001ED93468356B96F804E011222B4621463F
:1091800050460AF1200706F11C0CBEF1000FE3D196
:1091900072793369019342F021022B46CDF800C069
:1091A000FFF7E0FDB66CBA46A8F12008002EDDD12D
:1091B000DDE9044594E6E91A20462EF005F98FE62C
:1091C000231F04F5FE7243F804BF9A42FBD187E6E1
:1091D000002BD8F844200CBF01230223C3EB061355
:1091E000002A3FF47DAE966C013B002E3FF478AE32
:1091F000013BB66CF9D1002E3FF472AEA2464FF49B
:109200000078A6E7CDE900663346D9F80C100822AD
:109210002046FFF7A7FDD8F84460002E3FF460AE6B
:10922000BA464FF4F07894E7CDE900663346384605
:1092300011224D49FFF796FDD8F84460002E86D1E3
:109240004EE64FF400722946204641F0D1FE8022BE
:109250000C2384F8BE2184F8C231D9F81000434BA6
:10926000D9F8086084F8B85183FB0032C117C1EB0C
:109270002232B2F5806F84F8B95184F8BA5184F87B
:10928000BB5184F8BC5184F8BD51C4F8C601C4F880
:10929000CA6142DBFF2384F8BF3184F8C13184F80E
:1092A000C031324B711E83FB0132CE17C6EB223226
:1092B000B2F5806F29DA2E4B84F8C52183FB0103B8
:1092C0000B442C48C6EB6313C3EB831680FB03707F
:1092D000891B1844DE17921022F03F020131C6EBC1
:1092E000E0100A43034484F8C42184F8C3315522B2
:1092F000AA2384F8FE2184F8FF31F1E539464FF4C2
:109300000072204641F074FEEAE5FF2384F8C33181
:1093100084F8C53184F8C431E9E7154B84F8C121DC
:1093200083FB00730344134FC1EB631387FB0317E5
:10933000C3EB831C9110A0EB0C02F818DF1721F08F
:109340003F010132C7EBE0100A43034484F8C02117
:1093500084F8BF31A5E700BF80FD04088CFD040838
:109360009CFD040878FD04087CFD040897554541E0
:109370008320088281808080289D0020DEADBEEFA2
:1093800010B5044C04480A46214628F025F820462A
:1093900010BD00BF8C220020A8FD040810B5044CAD
:1093A00004480A46214628F017F8204610BD00BFA1
:1093B0008C220020B8FD040810B5044C04480A466D
:1093C000214628F009F8204610BD00BF8C2200205D
:1093D000C4FD04080A4608B5054920B1054827F030
:1093E000FBFF034808BD044827F0F6FF004808BD0E
:1093F0008C220020F0FD0408D8FD040870B50B4C49
:10940000054616460B460246022120681AF0CCFD9E
:109410002A46074B206814211AF0C6FD33462A4617
:1094200020681621BDE870401AF0BEBDAC60002077
:109430000D020508084B93F85B3007EE900A4BB914
:10944000F8EEE77A9FED057A9FED050AA7EE870A09
:109450003FF070BC704700BF5CB800206766E63F15
:1094600000000042F0B5876983B0064617B13B683B
:10947000BA885A837069DFF8A8E08389C3244FF45F
:109480007A734FF0060C6D464FF6FF710EF1010E28
:1094900003E0013B9BB28B4220D002899207F8D5B2
:1094A000A3B283814FF47A7302E0A3B28B4215D04A
:1094B0000289D20703F1FF34F7D5828992B20DB148
:1094C0002A700135BCF1000F0BD00CF1FF3CFF24DA
:1094D000BEF1000FE1D09EF80040D7E71AF0B4FDCE
:1094E000B76917B13B68BA881A839DF805009DF8E3
:1094F00001509DF802109DF803409DF804209DF84E
:10950000063041EA052143EA002342EA0422012011
:10951000A6F85010A6F85220A6F8543003B0F0BDBB
:1095200044B10408037A022B01D000207047F0B543
:10953000036983B013B11A689B885383044640F2D1
:10954000E933C06801E0002B5DD00289013B12F0D5
:10955000020F9BB2F7D0BB23838140F2E93301E0D5
:10956000002B50D00289013B12F0010F9BB2F7D0C3
:1095700083898389038999074FF005076E464FF465
:109580007A724FF0FF0C4FF6FF7506D4531E9BB254
:10959000D2B11A4603899907F8D5A0F80CC04FF448
:1095A0007A7302E08BB2AB420ED00289D20703F18C
:1095B000FF31F7D5828992B20EB1327001367A1E30
:1095C00027B117461A46E5E71AF03EFD236913B1A5
:1095D0001A689B8813839DF804009DF800609DF82D
:1095E00001109DF802509DF803209DF8053041EAD6
:1095F000062143EA002342EA05220120E182228378
:10960000638303B0F0BD1AF01FFDE068B1E700BF4F
:109610000A44914215D030B40139551E41F221025D
:1096200011F8014F082380EA042004044CBF82EAA9
:1096300040004000013B80B2F7D18D42F0D130BCF8
:10964000704770472DE90048FEF792FD054A064B2A
:109650001268B0EB020B61F1000CC3E900BC012001
:10966000BDE80088DC960020A07B00200F4B2DE990
:109670003048D3E9004554EA05020AD1034640F2D6
:10968000011200201880988098715A801881BDE8D6
:109690003088074B1A6814EB020B45F1000C5A4650
:1096A0006346FEF7ADFC0120BDE83088A07B0020BA
:1096B000DC9600202DE9F04707468CB01E46924606
:1096C000002A5CD1154614460A88B2F5FA6F36D3E3
:1096D0008B78581E0B2832D891F803C00CF1FF305C
:1096E0001E282CD891F804E0BEF1170F27D891F866
:1096F0000590B9F13B0F22D888793B281FD8B1F8E3
:109700000880B8F57A7F1AD24FF001085EBB09894C
:109710000491002CB4BF2D212B21002CB8BF644232
:10972000CDE90290CDE905140795CDE900CE384684
:109730002A491CF013FD40460CB0BDE8F087002319
:109740002749ADF828304FF0010C18468DF82A3023
:10975000ADF82C3099469E461A46984609916346C4
:1097600009A9002ED3D0CDE90290CDE900CE38462C
:109770001C491CF0F3FC40460CB0BDE8F0871A4CC5
:1097800084FB0234A318D417C4EB6314C4EB041590
:10979000A2EB85052DB2002D0846B8BF6D42FEF73D
:1097A000E7FC4FF47A720023804689463EF09EFE25
:1097B0003C230AFB030A4FF47A72002340464946D1
:1097C0003EF094FE4FF47A7192B20023C1FB0A235B
:1097D00009A8FEF715FC24B209A975E728FE0408BC
:1097E0000000010108FE0408898888880378202B7E
:1097F000024600F10100F9D0092BF7D02D2B00F023
:10980000A4802B2B03BF5378B7EE000A0246B7EEB5
:10981000000AA3F13001C8B209289FED577A10D889
:10982000F2EE046A07EE901AF8EEE77A12F8013FBA
:10983000E7EE267AA3F13001C8B20928B0EE677AC4
:10984000F0D92E2B63D003F0DF03452B02D020EE9E
:10985000070A704710B451782D294FD02B2979D0A1
:10986000A1F13003092B02F101027AD80024002370
:1098700003EB830301EB430312F8011FA1F1300056
:109880000928A3F13003F3D9B3F59A7F1A4628BF0C
:109890004FF49A72072B6CD9DFED386A1346F7EE56
:1098A000007A083B072B67EEA67AFAD802F0070287
:1098B000DAB1F2EE046A012A67EEA67A15D0022A1E
:1098C00067EEA67A11D0032A67EEA67A0DD0042A95
:1098D00067EEA67A09D0052A67EEA67A05D067EE6C
:1098E000A67A062A18BF67EEA67A002C3BD087EE30
:1098F000277A5DF8044B20EE070A70479178A1F1B2
:109900003003092B02F1020230D80124AFE753786B
:10991000A3F13001C8B2092802F1010293D8F2EE96
:10992000046AF0EE665A07EE901AF8EEE77A12F83B
:10993000013F87EEA66AA3F13001C8B2092866EE9E
:10994000A56A37EE067AEED97DE75378BFEE000AB6
:1099500002465EE79178A1F13003092B02F1020281
:1099600084D9F7EE007A27EE277AC2E7F7EE007A7D
:10997000BDE7F7EE007A9BE70000000020BCBE4C7C
:10998000F8B5064615460846B6FBF2F434B905FBB1
:1099900014640C4B1B5D00F8013BF8BDB4FBF2F7FF
:1099A0005FB905FB1747074B05FB1464DA5D00F848
:1099B000012B1B5D00F8013BF8BD3846FFF7E0FFC7
:1099C000EFE700BF58FE0408B5EEC00ADFED677A86
:1099D000674AF1EE10FACCBF30EE270A30EE670A84
:1099E000DFED647A20EE270A2DE9F047FDEEC07A1C
:1099F00088B017EE904A84EAE4760023A6EBE4767A
:109A0000CDE902330493A2FB06325FEAD208054691
:109A100041D105AF58483946554BA3FB0623DB0817
:109A200003EB8303A6EB4303002CC35C0B704FF0E6
:109A30000002ACBF20232D234A7038468DF8083031
:109A40003EF068F80128394639D0022842D0032870
:109A500005BF302302A802A88DF8093041F0D0FAE2
:109A600002A83EF057F80338C4B2224602A928469D
:109A700041F0FCFA00232B5528463EF04BF82E22ED
:109A8000431C02A92A542144E81841F0D5FA28467B
:109A900008B0BDE8F087394BA3FB06235B0922D150
:109AA00005AF35483946324AA2FB0832D20802EBEC
:109AB0008202A8EB4202835C01F8013BACE7302351
:109AC00002A88DF809308DF80A308DF80B3041F07E
:109AD00097FAC5E7302302A88DF809308DF80A30CF
:109AE00041F08EFABCE7264AA2FB06125FEA921901
:109AF0000ED105AF204839461D4AA2FB03C2D20849
:109B000002EB8202A3EB4203C35C01F8013BCAE70C
:109B10001C4AA2FB06125FEA523A0ED105AF164864
:109B20003946134AA2FB09C2D20802EB8202A9EB12
:109B30004202825C01F8012BDEE71348B6FBF0F02D
:109B400058B905AF39460A20BAFBF0F200FB12A261
:109B50000948825C01F8012BE3E705AF39460A2288
:109B60000193FFF70DFF019B0146ECE76F12033AEB
:109B7000CDCCCCCC00007A4458FE04081F85EB51B4
:109B8000D34D62105917B7D1A08601000028F0B458
:109B900003DA2D230B7040420131092804464FF0AF
:109BA000010307DD03EB83035B00B0FBF3F2092A3B
:109BB000F8D883B10F48A0FB0326B4FBF3F2092ABF
:109BC00002F1570C02F1300709DD03FB1244F308E0
:109BD00001F801CBEFD100230B70F0BC704703FB01
:109BE0001244F30801F8017BE5D100230B70F0BCAF
:109BF000704700BFCDCCCCCC884270B44FF001048C
:109C000042D301FB04F4B0FBF4F58D42F9D2ECB180
:109C100042BB092D04FB150005F1570605F1300282
:109C20000EDDB4FBF1F403F8016B7CB1B0FBF4F58D
:109C3000092D04FB150005F1570605F13002F0DC93
:109C4000B4FBF1F403F8012B002CEFD100221A70C1
:109C500070BC704703F8016BB4FBF1F4002CF5D035
:109C6000B0FBF4F5092D04FB150005F1370605F1ED
:109C70003002EFDCB4FBF1F403F8012B002CEFD140
:109C800000221A7070BC70470546002AEAD1C0E76E
:109C900002B370B48E1803E0121B14D1B14215D078
:109CA00010F8012BA2F14103192B11F8013BA3F18C
:109CB000410598BF2032192D03F12004ECD9D21AA6
:109CC00001D1002BEAD1104670BC7047002210462B
:109CD00070BC70471046704770B5044608460D4684
:109CE0003DF018FF064602E014F8013F43B132464A
:109CF00029462046FFF7CCFF0028F5D1204670BD4D
:109D00001C46204670BD00BF4FF0FF32FFF7C0BFBA
:109D1000A0F16103192B98BF20387047A0F14103CF
:109D2000192B98BF20307047202805D00938042807
:109D30008CBF002001207047012070472DE9F041C1
:109D40001F46064603461C782046FFF7EDFF1D46DA
:109D500001330028F7D12B2C51D02D2C24D0102AE0
:109D6000804628D04FF0FF33B3FBF2F302FB03FC35
:109D70006FEA0C0C5FFA8CFC013500200BE0303CE4
:109D8000E4B2944225DA98422E461DD81AD002FB3E
:109D9000004015F8014B392CF1D944F02004602C17
:109DA00017D9573CE4B2ECE74FF00108102A6C7861
:109DB00005F10105D6D1302C23D06FF070434FF060
:109DC0000F0CD9E76445E2D907EA08084FF0FF30E5
:109DD000DFE701B10E60B8F1000F08D027B1B0F194
:109DE000004F28BF4FF000404042BDE8F081002FF7
:109DF000FBD06FF00043984228BF1846F5E7804635
:109E0000D4E76C782046FFF789FF782805F1010632
:109E100005D035466FF070434FF00F0CACE7AC78CF
:109E20006FF0704302354FF00F0CA5E701230A22B3
:109E3000002183E7613819288CBF0020012070477A
:109E4000413819288CBF002001207047303809287C
:109E50008CBF002001207047A0F13003092B07D9E7
:109E600020F02000413819288CBF002001207047C5
:109E70000120704707EE901AF8EE677A9FED837A1B
:109E800027EE800A20EE070AFDEEC07A17EE903A20
:109E90002033402B00F28180DFED7D7AB4EEE70ABB
:109EA000F1EE10FA40F3E680B0EE407A9FED796A69
:109EB000DFED796A01E0B0EE677AB4EEE67AF1EEB2
:109EC00010FA77EE467AF6DC9FED747AF4EEC77AF4
:109ED000F1EE10FA40F1D1809FED6E6ADFED706A0D
:109EE00001E0F0EE477AF4EEE67AF1EE10FA37EEA2
:109EF000867AF6D4DFED6B7AB4EEE77AF1EE10FAFB
:109F000040F3A780DFED627A37EEC77A27EE076A63
:109F1000DFED655ADFED657ADFED656A9FED655A25
:109F2000E6EE257A67EE065AE6EE276AF7EE007A45
:109F3000A5EEA67AF0EE675AE7EE055AE7EE457A07
:109F400087EEA55ADFED577A30EE277AFDEEC76A25
:109F500016EE903A2033402B24D99FED577AF6EE37
:109F6000006AB7EE006AF7EE004AC4EEA57A002355
:109F7000836143610362C36180ED045A67EEA66AA0
:109F800027EE866A27EE877AC0ED006AC0ED026A86
:109F900080ED016A80ED037A7047B7EE005AF0EE6B
:109FA000455ACFE7B4EEE70AF1EE10FA6BDD9FED0C
:109FB000396ADFED396A01E0B0EE677AB4EEE67A2D
:109FC000F1EE10FA77EE467AF6DC9FED347AF4EE95
:109FD000C77AF1EE10FA53D59FED2E6ADFED306AA5
:109FE00001E0F0EE477AF4EEE67AF1EE10FA37EEA1
:109FF000867AF6D4DFED2B7AB4EEE77AF1EE10FA3A
:10A0000033DCDFED2E7AB4EEE77AF1EE10FA44BFDE
:10A01000DFED227A37EEC77A27EE076ADFED224AB4
:10A02000DFED226ADFED227AE6EE246A67EE064A69
:10A03000E6EE267AB7EE006AA4EEA77AF6EE006A9C
:10A0400036EE476AF8EE007A27EE277A66EE266A41
:10A0500089E7DFED1A7AB4EEE77AF1EE10FA44BF41
:10A06000DFED0E7A37EEC77A50E7DFED097A37EE8B
:10A07000C77AD1E7F0EE407A26E7B0EE677A39E7A3
:10A08000B0EE677AB6E7F0EE477A9EE727D4D2368D
:10A09000DB0F4940DB0FC940E4CB1641DB0F49C061
:10A0A000E4CB16C1DB0FC93F92E741B99730083CBA
:10A0B00015A82ABEF304353F00000000DB0FC9BF1E
:10A0C00030B402681146531C036011F8024B016062
:10A0D000D31C517803609378151D05601B0443EA77
:10A0E0000123D078234343EA006030BC704700BFAF
:10A0F0000368591C1A46016012F8021B0260587866
:10A1000041EA0020704700BF03685A1C02601878BB
:10A11000704700BF70B5044608460E463DF0FAFC95
:10A1200031460546024620683EF030FC206828444F
:10A13000206070BD38B50446006815463EF026FC28
:10A1400022682A44226038BD036810B40A0E5C1CE1
:10A1500004601A7003680A0C5C1C04601A700368BF
:10A160000A0A5C1C04601A7003685A1C02601970A9
:10A170005DF8044B704700BF036810B40A0A5C1C0A
:10A1800004601A7003685A1C026019705DF8044B71
:10A19000704700BF03685A1C026010B4197003684E
:10A1A0000A0A5C1C04601A7003680A0C5C1C0460D8
:10A1B0001A700368090E5A1C026019705DF8044B8E
:10A1C000704700BF03685A1C026019700368090ACF
:10A1D0005A1C02601970704770B544880546C4F374
:10A1E0000B04224608460E46002140F001FF2B6971
:10A1F000094A934202D3094A934205D35BB12146EF
:10A200003046BDE870401847224630461946BDE842
:10A2100070403EF0BBBB70BDCC0600081A080008B9
:10A2200038B5064C064DAC4206D26168204614345F
:10A23000FFF7D2FFAC42F8D338BD00BF9001000851
:10A24000CC060008084B09498B4203D309E01433BC
:10A250008B4206D21A88C2F30B029042F7D11846FD
:10A26000704700231846704790010008CC0600088C
:10A2700008B5064B186838B119F084FD044B9B787B
:10A2800013B180F00100C0B208BD00BF9C60002087
:10A29000E484002008B52DF01FF827F059F81B20A2
:10A2A00018F0D0FA18B1232200238271C3712BF069
:10A2B0005DFA18B1232200238271C371094B9B7888
:10A2C000012B01D0012008BD074B084A03F12001F2
:10A2D00003F14C0013602CF0FBFD054B002083F8CC
:10A2E000230008BD867A002034000020B0C300207F
:10A2F00000ED00E008B5054B4FF0FF321A60012079
:10A3000019F04CF972B63EF013FB00BFF0FF0120CC
:10A3100008B5FFF7ADFF0028FBD1142019F03EF976
:10A3200000BFFFF7A5FF0028FAD0FFF7E3FF00BF4B
:10A3300008B5054B1B6803B19847044B044A1A60E3
:10A3400072B63EF0F5FA00BFB04F0020F0FF0120DA
:10A350001010DDDD074A084B10781B78074A83424E
:10A3600096BFC31AC3F1800300201268184410443A
:10A37000704700BF0C810020898000200C53002012
:10A38000064A074B10781B7883428ABFC3F18003CB
:10A39000C01AC018C0F17F00704700BF0C810020B8
:10A3A00089800020064808B54368DB68984705485F
:10A3B0000549064A002303700B70136008BD00BFF7
:10A3C000FC9600200C810020898000200C53002086
:10A3D0000348436813B19B6A03B1184701487047AB
:10A3E000FC9600204CB104082DE9F04784B0FFF73B
:10A3F000EFFF8568ED0A1BD0DFF840800026C146DC
:10A4000004AFD8F80430AC196410D3F824A0E102EA
:10A4100010236A464846D0470F2809DD6B4653F89B
:10A42000042B013208D19F42F9D12546B542E8DC20
:10A43000E80204B0BDE8F087661CF7E7FC96002050
:10A440002DE9F04F87B001EB820201930491039054
:10A450008946002359F8041B91450B44FAD1059312
:10A46000019B2BB9404843681B689847002860D07F
:10A47000FFF7AEFF43880293059B002B4BD0DFF81C
:10A48000F4B0394EDBF80030DDF814A00299B3FBCC
:10A49000F1F801FB183303EB0A028A428CBFA1EBEF
:10A4A0000308D046FFF794FFDBF8001083688B4267
:10A4B00045D973682C481B699847DDE903547168D6
:10A4C0004746D4F800C030466246BCF1000F0ED0BB
:10A4D000D5F800E04B69BC45714620D29847226808
:10A4E0002B68716813442B600023BF1A2360043467
:10A4F000A14505F10405E4D18B6930469847DBF8A6
:10A500000030019A4344AAEB080ACBF800301AB392
:10A51000BAF1000FBAD1059807B0BDE8F08F3A46FE
:10A5200098472A68236871683A44DF1B2A602760CD
:10A53000E2E7019B0593059807B0BDE8F08F059809
:10A540000A490B4AA0EB0A000590059800230B70FE
:10A55000137007B0BDE8F08F059BA3EB0A030593CA
:10A56000059807B0BDE8F08FFC9600200C81002014
:10A57000898000200C53002070B5104D104E2B78B0
:10A5800031788B4284B016D00E4A03921A4402925C
:10A590008CBF0C46CA1A04A98CBFC3F180020024E8
:10A5A000012341F8102D02A802220194FFF748FF71
:10A5B000002333702B7004B070BD00BF8980002071
:10A5C0000C8100208C80002010B5FFF701FF83680C
:10A5D00003B910BDFFF708FF0446FFF7CDFF014B9D
:10A5E0001C6010BD0C5300202DE9F04105461446B7
:10A5F0000F46FFF7EDFE83682A199A4203D9FFF749
:10A60000E7FE8468641BFFF7B7FF054846682346EA
:10A61000746A3A462946A446BDE8F041604700BF47
:10A62000FC96002013460A4601461846DCE700BFA8
:10A630002DE9F04F012189B0002019F02DFB2CF0FD
:10A640000FFBFFF7C1FF41F62C720021BE48BF4D42
:10A6500040F0CEFC0024BC4B4C222919181914449C
:10A660003EF094F9E42CF6D1FFF7BEFE82460028B6
:10A6700000F0B8800026B64FDFF8F0B23546344619
:10A68000122203A92846FFF7AFFF1222594603A85A
:10A6900040F0DAFC28BBAF4BAF49DFF8C48206EBD1
:10A6A000860206EB420203EB0209AC42A5EB04036F
:10A6B0004846019315D0013632461BF04FFD019BF1
:10A6C000C7F80090C7E90433A44BFC600122642E54
:10A6D000C7E90733C7E90938BA6000F085804C370D
:10A6E0002C4605F50065AA45CAD8642EA04600F0A0
:10A6F0000A81A54272D006EB8602964C984B964989
:10A70000019306EB420214442046721C1BF026FD06
:10A71000924A019B3C600121C7E90218C7E9072260
:10A72000A5EB0805C7E904557A62351DBB620536FD
:10A730004FF04C080193844B884FDFF8349208FBAC
:10A7400005F55C1942460021204640F051FC424686
:10A750000021204640F04CFC7B4B012243F8059041
:10A76000019BA362A260C4E907776762FFF73CFE22
:10A77000C4E904004C27744B784DDFF8F88107FBDF
:10A7800006F69C193A460021204640F031FC3A4634
:10A790000021204640F02CFC6B490222012341F8A5
:10A7A00006800F46C4E9075565626271A360FFF732
:10A7B0001BFEBD68C0F100604000C4E904000DB993
:10A7C0003A79AAB94FF47A7018F0E8FE00210846E9
:10A7D00019F062FA002009B0BDE8F08FF51C002ED8
:10A7E00040F0E6800326C5E74346682667259FE7D5
:10A7F0003B68002BE6D0FB6C3D64C7E91155FD6357
:10A8000043B3384629462A46466DC0F88C204C1E74
:10A81000A6420346C0E92422C0F8882000F14C007B
:10A8200000F0AA804F1CBE426FD08E42CAD11C4697
:10A830000029C7D0266CF76B0137F763C3F88C602B
:10A84000A064C36C002BDFD13F4B1C68002C00F0D0
:10A850009D801A793C4C002006460223114612E0E6
:10A86000E16B236349011CBF01F6FF7107EB113354
:10A87000C4E90D33C4E9046654F84C2F1946013578
:10A880000133E2B121795F1E0029E9D121692363F7
:10A89000002944D001F6FF7107EB11326169626350
:10A8A00019B101F6FF7307EB1333821AD018A363B3
:10A8B00054F84C2F194601350133002AE2D1294BB7
:10A8C000294ADA6001394FEA91794FEA810840223A
:10A8D0003E2498629A613F2058EA090259625D63FA
:10A8E0004FEAC101C3E904401BD14231CC0D4D02F6
:10A8F00042224120C3E90702134A9960C3E90B22AF
:10A90000C3E900545EE7164B6FE71C462179002926
:10A910003FF458AF60643946C3F88C4091E71A465B
:10A92000BCE740F2FF1418EB04064FF0000549EBBA
:10A930000507720A42EAC75202F14000024411447C
:10A94000CC0D4D02D6E700BF482C00205CB10408B6
:10A950002C2D00208C23002094FE04080068214C3C
:10A9600025A60008289D0020C0FE040880FE0408DB
:10A97000A4FE0408B4FE040800293FF423AF8E426D
:10A980001C6C01D0314653E70F46BFE70A4B0B4E14
:10A990005C633E253F2040224221C3E90502C3E912
:10A9A0000365C3E909440A464FF404454120A1E781
:10A9B000034B0436BCE600BF289D0020C0FE0408FF
:10A9C00025A6000870B5194C194D237829789942AD
:10A9D00084B027D0174A03921A44029234BF0E461D
:10A9E000CA1A04A934BFC3F180020026002341F82B
:10A9F000102D02A802220196FFF722FD23781844A9
:10AA0000C0B203062B7848BF80F0800083422070DC
:10AA100002D0002004B070BD002301202B702370F1
:10AA200004B070BD012004B070BD00BF898000205B
:10AA30000C8100208C80002008B5FFF7C9FC8068DD
:10AA4000003018BF012008BD08B5FFF7C1FC8068C1
:10AA500000B908BD024843681B68984708BD00BF9D
:10AA6000FC960020034A012303FA00F0536E0343CF
:10AA7000536670475CB8002008B50146831E00F19C
:10AA80005402EA2023F8020F9342FBD140F6491307
:10AA90004B85234B4B60CE230B8100234B66032059
:10AAA000FFF7E0FF0520FFF7DDFF0820FFF7DAFFE3
:10AAB0000920FFF7D7FF0A20FFF7D4FF0C20FFF78C
:10AAC000D1FF0D20FFF7CEFF0220FFF7CBFF0123C0
:10AAD000144A81F85B30B2F860306FEA53236FEAB2
:10AAE0004323A2F86030104BCB65142381F85A3011
:10AAF00040F69803A1F856306423A1F8583080231B
:10AB000081F868304FF6FF73A1F86A30A1F86C3015
:10AB1000462381F86E3042F61403A1F8623008BD76
:10AB2000CD004E005CB80020000A010A30B585B0A7
:10AB3000054601A8FEF79AFD044618B9287020467C
:10AB400005B030BD044A0123B2F9002001A928460E
:10AB5000FEF7B0FDF3E700BFF84F00202DE9F04FFE
:10AB6000A64E36F81030044613F4006091B000F0A1
:10AB7000A58204F01F0101228A406009A04951F812
:10AB800020100A4205D09F4A92F89C20002A40F0EB
:10AB9000EE8503F01F050021C3F344131C2209A80E
:10ABA0000293089140F024FA2A2C00F2E085DFE8B5
:10ABB00014F03A00480034023C0288021D011D01D5
:10ABC0009701E301FB0117026200730085007B001F
:10ABD0000F01AF02FF020C03190327033103B8046E
:10ABE000A700A000D304E404E40401053D05AE0081
:10ABF000D90053056C05F6009205A8055701C0055C
:10AC0000C505DA05D2012B0000231A467E4908A8A3
:10AC10001BF0A4FA7D48029A006808AB294619F097
:10AC2000C3F901204AE20BF061F9642343439B120C
:10AC3000632BA8BF63230122754908A81BF08EFA75
:10AC4000E8E7744B1C88744B0A2101FB04F01B7865
:10AC500090FBF3F0FDF71CFCB4FBF1F201FB124397
:10AC600006218DF8200000919BB26C490DF1210066
:10AC70001BF074FACEE76A4B1B68002BB8BF5B422F
:10AC800064219A2093FBF1F2009001FB123308A893
:10AC900064491BF063FABDE7614A63499268072380
:10ACA00008A81BF05BFAB5E7604B61499B7C0093F9
:10ACB0001E221F2308A81BF051FAABE75B4B96F846
:10ACC0005B209B8952B942F210725A4359495A4B40
:10ACD00092FBF3F208A81BF041FA9BE724225A43A7
:10ACE00056494FF47A7308A892FBF3F21BF036FA38
:10ACF00090E74E4B68211A6808A8FDF747FE89E7E0
:10AD00004A4B64215A6808A8FDF740FE82E74C4B85
:10AD10001B7803F00303032B20D14A4B1B88CBB1D4
:10AD2000494B4A4AB3F90030B2F904200A2192FB98
:10AD3000F1F29B1A1B0103F5B95314334FF4B472AB
:10AD4000B3FBF2F3C3F1080303F00F0360338DF894
:10AD500020305FE705238DF820305BE72D238DF849
:10AD6000203057E7364B1B7803F00303032B0CD13D
:10AD7000344B1888FDF77EFB0246FDF7ABFB3449E8
:10AD8000034608A81BF0EAF944E72D238DF820308C
:10AD90004FF02033CDF82130ADF825303AE72B4B7A
:10ADA0000A22B3F9043093FBF2F31B0103F5B95304
:10ADB0004FF4B4721433B3FBF2F3264A03F00F03DB
:10ADC000134408AA186859681B7A03C2137021E754
:10ADD000214B1B689B06D8D5194B1B789F07D4D5F0
:10ADE0001E4B08A81968FDF733FE13E70122631F05
:10ADF000114608A8FDF7E8FD0CE700BF5CB800208D
:10AE00007C6A0020000000205CFB0408AC6000208D
:10AE100084FB04080CB9002030B9002067FB04084B
:10AE200014B9002071FB04087CFB0408489300203F
:10AE300082FB04088AFB040840D206008FFB04084A
:10AE400044930020689300206C7E00208C8E0020AC
:10AE500094FB0408D8B20408948E00203893002094
:10AE6000B24B9FEDB37A9A68B6F8563007EE902A47
:10AE7000F8EEE76A07EE903AF8EEE77A67EE877A3F
:10AE8000F4EEE76AF1EE10FA04D8AA4908A81BF01C
:10AE900065F9BFE6934204DAA74908A81BF05EF9FA
:10AEA000B8E69B1A07EE903AA44BA54AB8EEE77AAB
:10AEB000D3ED007AF8EE677A3C2167EE277A08A88E
:10AEC00087EEA67AFDEEC77A17EE903AB3FBF2F35F
:10AED00093FBF1F201FB12339A491BF03FF999E61B
:10AEE000994B1B885E0504D5984908A840F0A4F842
:10AEF00090E61C0504D5964908A840F09DF889E61F
:10AF0000580604D5934908A840F096F882E6D90778
:10AF100004D5914908A840F08FF87BE69A0704D53C
:10AF20008E4908A840F088F874E6282036F054FDD1
:10AF300020B18B4908A840F07FF86BE636F0F4FEAC
:10AF400020B1884908A840F077F863E6864908A848
:10AF500040F072F85EE6854B93ED007A844BD3EDBA
:10AF6000007AB4EEE77AF1EE10FA7FF753AE81493A
:10AF700008A840F061F84DE67F490A7808AC22B98C
:10AF80007E49204640F058F844E60022885C28B10B
:10AF9000FEF7BEFEA0540132102AF7D110AB1A44BE
:10AFA000002302F8203C35E640F20453ADF820308F
:10AFB000734B7449B3F90620B2F5FA6FA8BF4FF48A
:10AFC000FA62B2F57A7FB8BF4FF47A720A23A2F51B
:10AFD0007A720DF1220092FBF3F21BF0BFF819E632
:10AFE00069496A4A0B78D45C694B4A7853F8226005
:10AFF0008B788DF81430674B186820B10B7A13B139
:10B0000005A923F0A2FE9DF8143000932246334692
:10B01000614908A81BF0A2F8FCE547F62663ADF8E5
:10B02000203027238DF82230F4E596F863205B4921
:10B0300096F86230B1F9000002EB820252005742EA
:10B0400003EB8303B8424FEA430303DB9042A8BFFC
