:020000040800F2
:1000000000200010B5410308F9F40108A93A0008DE
:10001000F7F40108F5F40108F3F40108000000000A
:10002000000000000000000000000000F1F40108E2
:10003000EFF4010800000000EDF40108953300081A
:100040001D4203081D4203081D4203081D42030808
:100050001D4203081D420308B13B0008DD3C0008B7
:10006000A13C0008653C0008293C0008DD9600081A
:10007000CD960008BD960008AD9600089D96000834
:1000800089960008759600081D4203081D42030862
:10009000813E02081D4203081D420308ED3B000893
:1000A0001D4203084D270008A922000875270008F3
:1000B00091260008D52500080D2500081D420308DB
:1000C0001D4203081D4203081D4203081D42030888
:1000D0001D420308CD34000851340008D533000810
:1000E000753B00081D420308DDF401081D420308AA
:1000F000752300081D420308412400081D4203081F
:100100000000000000000000000000001D42030885
:100110001D4203081D42030801670208ED6602083C
:10012000619600084D96000839960008259600084B
:10013000119600081D4203080000000000000000A6
:100140001D4203081D4203081D4203080000000071
:10015000000000000000000000000000000000009F
:1001600000000000000000001D4203081D420308BB
:100170001D42030800000000000000000000000015
:08018000000000001D4203080D
:100188000C4B1B78DB0700D570470B4A1368002B14
:10019800FAD04FF47A7101FB03F39842F4D3074B7A
:1001A8001B781BB9064B99681B690B600023136009
:1001B800704700BF08310020543D0020483D002012
:1001C80018380020D0ED007A90ED017A30EE670AF9
:1001D800E7EE007AB0EE670AC0ED007A704700BF1C
:1001E80070B50C4C23689BB15A68821A002A0FDB41
:1001F8000546002603E05A68AA1A002A08DB99680F
:100208001E731A682160184690472368002BF2D1A4
:1002180070BD00BF701C0020436A8269D154436AD4
:100228000169C26B01338B4228BF002343623AB392
:1002380070B4EFF31183502282F31288C66B3268D0
:10024800D20704D5DBB283F3118870BC704771689C
:1002580069B9D0E90942944218D085691544F56016
:1002680018D9A21A72608462002280F85820326875
:1002780042F00102DBB2326083F3118870BC704730
:10028800426D136843F0800313607047012280F8C1
:100298005820D7E70469A21A72608162E4E700BFB8
:1002A800034610B4846BD968406954B19A6C8C1AAF
:1002B800013A005D5DF8044B08BF0A46C0B29A6473
:1002C80070471A6A805C01328A4228BF2246C0B24F
:1002D8001A625DF8044B7047C36B13B190F858006D
:1002E8007047D0E90903181AB0FA80F0400970473E
:1002F800D0E909120369914238BFC9188A1AC16B3B
:10030800013B19B149680A449A4201D2981A7047C8
:1003180000207047836B43B1826C5B689A4291BF3F
:10032800981AC0689B1AC0187047D0E907239A42E8
:100338002FBFD01AC0688018C01A70470A4B30B552
:1003480003F1140493F900205D78072AC8BF143A12
:10035800811804330D7313F8025C855413F8012CCB
:100368000A769C42EED130BD5454030803682DE947
:10037800F0415D6A1DB12B46BDE8F0411847002ADF
:10038800174611DD04460E460F4400E023689B68BB
:10039800204698470028F9D0236816F8011B1B68E7
:1003A80020469847BE42F1D1BDE8F08103681B6939
:1003B800184700BF00233E22027043708370C37049
:1003C800704700BF03685A1C02601970704700BF6D
:1003D8002DE9F047089C2578002B804689460CBFFC
:1003E8004FF0200A4FF0300A661C25B3002A26DD9C
:1003F800334601E0024698B113F8011B501E00294C
:10040800F8D1971E60B13D46013D51464046C84768
:100418006B1C002BF8DC257827EAE770013045B122
:10042800041B29464046C847301916F8015B002DC1
:10043800F7D1BDE8F087002A03DC2846F9E7002059
:10044800EEE7571EDFE700BF0A44914215D030B4EB
:100458000139551E41F2210211F8014F082380EAA3
:10046800042004044CBF82EA40004000013B80B2F3
:10047800F7D18D42F0D130BC704770470028F0B4F6
:1004880003DA2D230B7040420131092804464FF04E
:10049800010307DD03EB83035B00B0FBF3F2092ADA
:1004A800F8D883B10F48A0FB0326B4FBF3F2092A5E
:1004B80002F1570C02F1300709DD03FB1244F3087F
:1004C80001F801CBEFD100230B70F0BC704703FBA0
:1004D8001244F30801F8017BE5D100230B70F0BC4E
:1004E800704700BFCDCCCCCC884270B44FF001042B
:1004F80042D301FB04F4B0FBF4F58D42F9D2ECB120
:1005080042BB092D04FB150005F1570605F1300221
:100518000EDDB4FBF1F403F8016B7CB1B0FBF4F52C
:10052800092D04FB150005F1570605F13002F0DC32
:10053800B4FBF1F403F8012B002CEFD100221A7060
:1005480070BC704703F8016BB4FBF1F4002CF5D0D4
:10055800B0FBF4F5092D04FB150005F1370605F18C
:100568003002EFDCB4FBF1F403F8012B002CEFD1DF
:1005780000221A7070BC70470546002AEAD1C0E70D
:1005880090ED057A90ED004AD0ED066AD0ED014A6B
:10059800D0ED047A90ED035AD0ED025AA4EE007A19
:1005A800B0EE406AB0EE470AB0EE667AA4EE867AFC
:1005B80067EEC07AA5EE407AE5EE867A80ED057A98
:1005C800C0ED067A704700BFD0ED057A90ED013A8C
:1005D800D0ED003AD0ED064A90ED024A90ED077A48
:1005E80090ED035A90ED086AD0ED045AC0ED067AF2
:1005F800F0EE406A27EE830AC0ED056AA3EEA60A6C
:1006080080ED087AA4EE240AA5EE470AA5EEC60AEC
:1006180080ED070A704700BF80ED010A704700BFF0
:1006280007EE900ADFED056AB8EEE77AC6EE877A3C
:1006380077EE807A80EE270A704700BF83F9223E62
:10064800704700BF10EE103AC3F3160242F07E5214
:1006580007EE102ADFED167ADFED164A9FED165ADF
:10066800DFED165A9FED166ADFED163ADFED166AD2
:100678009FED164AE7EE274ADB1507EE903AA4EEFF
:10068800875AF8EEE77AE5EE075A67EEA37AA5EE01
:10069800876AB5EEC00AE6EE077AF1EE10FAD4BF23
:1006A800B0EE440AB0EE660A37EE800A704700BF23
:1006B800DACDFE3CB9D593BE5CB8903FAA841DC084
:1006C80022E061401872313F07F1B3C2000080FF99
:1006D800DFED1D3ADFED1D7A9FED1D7A9FED1D4A76
:1006E800DFED1D4A9FED1D5ADFED1D5A9FED1D6A76
:1006F800DFED1D6AE0EE237AF4EEC77AF1EE10FA28
:1007080088BFF0EE477AF4EEC47AF1EE10FAB8BF7B
:10071800F0EE447AFDEEE77A17EE903AC3F316024C
:1007280042F07E5207EE102AA7EE245A03F0FF4348
:1007380000EE103AE5EE075AA5EE876AE6EE076A7C
:1007480026EE800A704700BF3BAA384B00007E4E59
:100758000000FF4E00000000ED185E3C81900FBBCA
:10076800AF9D2A3EB2D19F3EE886023F06224FF453
:100778007A7302704360704723230370704700BF89
:10078800F0B400250E4E00F1FF3C2F46142165B150
:1007980003788B420BD003460CEB050403E013F8F7
:1007A800012F8A4203D0A342F9D1C155013701353F
:1007B8000B2D02D016F8011FE9E7F0BC704700BF07
:1007C8006854030830B41523162517242D212E222A
:1007D80003702F2345708470C1700271437130BC5F
:1007E80070476D4B2DE9F04F5C686C4BB3F80AE02D
:1007F800B3F804809A894FEA0E2AB4EB0A044FEA48
:100808001E6B4FF0000587B065EB0B05CDE9004581
:100818000746009C1889019EA0FB044500FB06556D
:10082800E00940EA45604FEA08448C46E9114FEA7E
:10083800184510EB0408D888009C41EB0509CDE960
:100848000489A0FB0445B3F8028000FB0655200A82
:1008580040EA05604FEAC83429124FEA584510EBC0
:10086800040841EB05090099A2FB010102FB0611EE
:100878004FEAD05A4AEA412A1AF5FA634FEAE15B8D
:100888004BF10004B3F5FA6FCDE9023474F10003BB
:10089800414E64DA0524AAFB040104FB0B1100FB9A
:1008A8000BF40AFB0144DDE90423A0FB0A012144FF
:1008B8004D104FEA3004121B4FEA900463EB050316
:1008C80044EA8174B8EB0408CDE90423DDE9023475
:1008D80033484FEAA10569EB05094FF0FF31834220
:1008E80074EB010326DA40F6AC501AEB00024FF025
:1008F80000014BEB010302FB03F1A2FB022303EB14
:100908004103D400DD00101B45EA527563EB050175
:10091800DDE9044524184D41CDE904450B24A2FB2B
:10092800040104FB031149104FEA3000B8EB00083A
:1009380069EB0109DDE900325343009ADDE9020160
:10094800A2FB02AB0BEB430B4FEADA7242EA4B0213
:10095800801A4FEAEB7361EB0301CDE9020197B10D
:10096800B168A1FB082301FB0933540D5D1544EA66
:10097800C324DDE90423A21A65EB03031D46D30B48
:1009880043EA45433B60BCF1000F02D0029BCCF820
:10099800003007B0BDE8F08F701C002048440020EC
:1009A80024FAFFFF012380F85730704700220823FC
:1009B80002754375704700BF00220823027543750E
:1009C800704700BF0022082302754375704700BFB7
:1009D8000022082302754375704700BF70B4D0E940
:1009E8000041057B02690223AB4063600B684FF648
:1009F800FE7003400B60EFF31183502181F31288DE
:100A0800D66B3168C9071CD4706870B9D2E909413E
:100A18008C4213D095690D44F56017D81469611A92
:100A280071609062002182F85810326842F0010229
:100A3800DBB2326083F3118870BC7047012182F801
:100A48005810DBB283F3118870BC7047611A71606B
:100A58009462E7E770B40468037B2268022101FA14
:100A680003F31A4217D002691249134802EB4202F3
:100A780001EB421205785068016875B9C56852895A
:100A880028684FF6FE7630402860C868D24392B294
:100A98000240CA60636070BC7047406902684FF6E4
:100AA800FE752A400260CA684FF6FF600240CA60BD
:100AB800F0E700BF9C6100209861002010B4292154
:100AC800282401220023047041708270C3705DF8ED
:100AD800044B704770B544880546C4F30B0422469E
:100AE80008460E46002134F044FC2B69094A93421B
:100AF80002D3094A934205D35BB121463046BDE88B
:100B080070401847224630461946BDE8704034F018
:100B18000CBC70BDFCC403081FC603082DE9F047D0
:100B28008C4A8D4B12781C78D207064648D58B4DD7
:100B3800012C00F091801ED3022C40F09B80884944
:100B4800884A09881288884F914201D901241C706B
:100B5800EB7AFBB12B89EBB1844B1B78D3B125F031
:100B6800E9FD002800F0E2802B7B83422CBF0123A3
:100B780000233B700FE0DFF8E8C17B4F7C4CBCF8EA
:100B880000002288697B521A8242DFDAEB7A00245D
:100B9800002BDFD13B782A79632A07D87549022CC4
:100BA800087800F0B880002840F0A0807249AA7A3E
:100BB8009C4238BF1C460C70002A44D1BDE8F0871F
:100BC800DFF89CC1654DBCF80000BCF8021095F830
:100BD80003E06A4F411A0029A4F10302B8BF494251
:100BE800704597F80080D2B211D32F7887420ED380
:100BF800012A45D9B8F1020F9AD15C48604A0078B9
:100C080090800229CCBF00210121D18090E7B0EB70
:100C18004E0FEDDC012A40F28C800229EADC032425
:100C2800514F524852494F4A1C70B8F1020F4FF0C9
:100C380000033C7003700B80138089D1504A012156
:100C48009380D18084E7012C6BD0022CB6D1072089
:100C5800BDE8F04726F0BCBA424A41491288687B91
:100C68000988121A914207DD414A12888A423CBF1C
:100C780000241C703C4F6BE702241C703A4F67E756
:100C88000229B7DC95F800E090FBFEFE0EF1010E9C
:100C9800BEF1080FDFF8D4A0AA786978DFF8C4900D
:100CA800334C314FA8BF4FF0080E8AF800E01FFA06
:100CB8008EFA11FB0AF112FB0AF2DFF8B8A0A9F8C4
:100CC800001092B200214FF06409B8F1020F22809F
:100CD80039701970CAF804108AF801907FF452AF7D
:100CE800274A0121A2F804E0D18048E74868301A71
:100CF800244EB042C8BF4A703FF758AFC2F16402F1
:100D0800214E00FB02F086FB0062C017A0EBA25048
:100D1800643048704AE70028E8D101274E600F7018
:100D2800ECE70820BDE8F04726F052BA02233B70F2
:100D380031E7032C7FF471AFB8F1020F9AD10B4A57
:100D48000F4B12789A800229CCBF00210121D9804B
:100D5800054FFDE60831002058380020CC6F0020F0
:100D68005C7000205C380020683800208870002003
:100D78005A3800206038002089700020EC7000206C
:100D8800707000207F9698006BCA5F6B70B55B4CE3
:100D9800E36846F2A712C31A93422DED028B02D8DC
:100DA800BDEC028B70BD564BE0601B6813F004036A
:100DB80028D11846534A217F127812F0010215D023
:100DC800D9B90125C4E908010A46084625770BB1B7
:100DD8004D4B18604D4B1B780E2BE1D1BDEC028BAF
:100DE8004B4B1E2158809A80198070BD29B1D4E9D7
:100DF80008512277401B4A42E9E7D4E90812401A11
:100E08005242E4E7434E4448B37905882169013BDF
:100E1800B1FBF3F19DB3414A9FED410A1368002BE2
:100E28001E46B8BFDE1DA3EBE603194400290B4696
:100E3800B8BFCB1DDB1007EE903AF8EEE77A1160E9
:100E480027EE800AFFF7FEFBDFED367A20EE270A51
:100E5800FFF73EFCF7EE007A77EEC07A9FED320A94
:100E6800A36967EE807A9942FDEEE77AC4ED057AC8
:100E78003ED0013D00230580A16118469AE707EEA0
:100E8800901A9FED270A294DF8EE677AB7EE008A87
:100E980027EE800AFFF7D6FBDFED227A20EE270A3D
:100EA800FFF716FCDFED207A38EE400A20EE270A1D
:100EB80033F096FB3389DFED1E6A07EE103A63695B
:100EC800C01AB8EEC77A07EE900AA7EE668AB8EE9F
:100ED800E70AD5ED097AF8EEE77A20EE080A67EE18
:100EE800A67AA7EE870A33F07BFB0123686261E7E5
:100EF80000220280134610465CE700BF701C0020E9
:100F08001833002008310020B4320020EC70002093
:100F180070700020AC3700207622002000000020EE
:100F280008942537B1DC423ED048874A542D00202A
:100F38006F12833A2DE9F8432E4B1B685B0701D4E7
:100F4800BDE8F8832C4C2D4D94F82890B9F1010F89
:100F58003CD1EB69284698472B69284698472B6A65
:100F680004F12C0104F130009847254A266991794B
:100F7800D4E90D83D4E90B2008F10107AA625A1CB1
:100F88008F4208BF0027032AE8622AD01D49A263BE
:100F980094F83C2041F823004ABB04EB880804EB92
:100FA8008703C8F840001A6CAB896763B61A3044E7
:100FB8000022206184F82820002BC1D0124A642B1B
:100FC8001268B8BF64231361BDE8F8836B692846CB
:100FD8009847AB69284698470122EB8984F828206E
:100FE800EAE7084A84F83C9000239060A3632CF059
:100FF80027FED2E718330020701C0020542D002053
:10100800AC370020B46F0020389700200269C3680D
:101018002DE9F04712EA030927D00E4605464FF09E
:1010280000474FF00008B9FA89F327FA03F2D243D0
:101038001B3B2A6109EA0209042B13D8DFE803F0F5
:10104800322920170300736A002B34D1EB6A1FFA88
:1010580083FA346A34B12368204651469847646855
:10106800002CF8D1B9F1000FDDD1BDE8F087306868
:10107800696B036889B29847B9F1000FD3D1F4E7D7
:101088007068A96B036889B29847B9F1000FCAD193
:10109800EBE7B068E96B036889B29847B9F1000FCC
:1010A800C1D1E2E7F068296C036889B29847B9F1C1
:1010B800000FB8D1D9E703F1FF3A1FFA8AFAC6F848
:1010C8002480C6E7012310B4122110241122447091
:1010D8004171C27003720370037183705DF8044B31
:1010E800704700BF30B50446406D21710368A2689F
:1010F80023F00103036087B06379009213F0040FB3
:101108004FEA03324FEA032314BF4FF480550025FA
:1011180003F4806302F400520195CDE9022300250F
:1011280011F0010305952ED1049308238D07694614
:1011380048BF049320F04CFB2079636D617900F07F
:101148000202002A15BF4FF440324FF480324FF4A8
:101158000034002410F0010F586808BF2246CC075D
:101168004CBF024320EA02025A609A6809074CBF42
:1011780042F0080222F008029A601A6842F001025E
:101188001A6007B030BD042304930C23CEE700BFD8
:1011980030B50446406DA160036823F00103036085
:1011A8006379257987B013F0040F4FEA03324FEAC9
:1011B800032303F4806302F40052CDE90223009173
:1011C80014BF4FF480510021EB0748BF042301915D
:1011D8004FF00001CDE9041154BF08230493694678
:1011E80048BF0C23AD0748BF049320F0F1FA2079DB
:1011F800636D617900F00202002A15BF4FF4403296
:101208004FF480324FF40034002410F0010F586876
:1012180008BF2246CC074CBF024320EA02025A60AC
:101228009A6809074CBF42F0080222F008029A6047
:101238001A6842F001021A6007B030BD2DE9F34187
:10124800056906460F467DBBD0F80080C8F30A033F
:1012580023B30023D6F8008001932AF0BBFE0428AC
:1012680019D1224C236943F001032361BBB2A8F8CA
:1012780000302AF0AFFE04282ED108F102030193B2
:10128800019B3F0C1F802AF0A5FE2369042823F048
:101298000103236125D06FF0010505E02AF09AFECD
:1012A800042805D04FF0FF35284602B0BDE8F0818C
:1012B8000E4C236943F002032361C4F814802369A8
:1012C80043F0400323612AF085FE2369042823F0B4
:1012D80002032361BDD0E5E7236923F001032361FD
:1012E800D9E7336804333360DEE700BF00200240EB
:1012F800F8B504460D468E180027B54201D120697D
:10130800F8BDE368591CE160234415F8012B1A72F3
:101318000429F2D1A1682046FFF790FFC4E90370C1
:10132800EBE700BF10B504462DED028BD0F8300175
:10133800B0EE408A0DF048FBD4ED047AF0EE405A46
:1013480094ED050A37EEC00AF5EE405A30EE270A4A
:10135800F1EE10FA84ED040A84ED050A05D0F5EEE5
:10136800407AF1EE10FA40F0AE805F4BF7EE007A6B
:10137800F0EE676AC3ED407A94ED017AD4ED037A12
:1013880094ED026AE7EE267A04F59A71084678EE3B
:10139800404A37EE866AB0EE677A87EE065AF7EE6D
:1013A800007A77EEC57AA4EE850A67EE877A84ED2F
:1013B800040AC4ED037AFEF705FFD4F82C3122683D
:1013C800D4ED477A94ED497A84ED040A04EB83005E
:1013D8000133934280ED068AC4F82C3124BF0023E0
:1013E800C4F82C3104EB830393ED066A94ED4A5A52
:1013F8003E483F4AE8EE087A137838EE077AC4ED9B
:10140800477A84ED497A37EE467AE6EE467A27EE51
:10141800056A84ED497A26EE467AC4ED477AA7EE46
:10142800857A84ED486AB5EEC07AF1EE10FAF0EEEE
:10143800477AD8BFF1EE477AB1EEE76A90ED007AC5
:10144800C4ED467A67EE067AC4ED027A73B1F5EE1A
:10145800405AF1EE10FA0CD1D4F83031022B09BF02
:10146800002394ED040A94ED040A1370BDEC028B7A
:1014780010BDD4ED4F7AF4EE657AF1EE10FAEBD0A8
:10148800DFED1C7A94ED500A66EEA76AFDEEE67A67
:1014980017EE903AB3F5FA7FA8BF4FF4FA730A2B08
:1014A800B8BF0A2307EE903AF8EEE76AFCEEE66A60
:1014B80016EE903A98B2FFF7B3F80846FFF7ACF883
:1014C800C4ED4F5AC8E785EEA77A074BF7EE006AD6
:1014D80076EEC76AF5EEC06AF1EE10FAD8BFF1EE03
:1014E800666AC3ED406A47E7701C00205800002078
:1014F8001C21002000008C4238B52C22002133F03A
:1015080038FF0346642140F2DC5240F2022019748D
:101518005A821321202240F21A4540F26C74188333
:1015280099760E2002211A7701229D82DC8240F2F0
:10153800753540F6430483F8220083F82A109A731D
:1015480083F82920DD831C8419460248BDE8384009
:101558001CF08EB9508003081B4B1B6870B56BBB21
:101568001A4B1D784DB31A4A1A4B11784FF49872DA
:1015780002FB053540F20D3610E058681C894460BE
:10158800046844F001040460A2F84860D06803F5D8
:10159800987340F48070AB42D0600ED01A6800296E
:1015A800EBD15162B3F82C01D4682043D06003F525
:1015B800987323F8041CAB42F0D170BD24F08CFB67
:1015C8000028CDD170BD00BFA4220020D465002022
:1015D80098610020D865002010B5094C238823EABB
:1015E80000009842208009D0064B41F20241FF22B8
:1015F80019809A700E2025F0EBFD2388184610BD3F
:1016080026350020F496002010B5094C238818438D
:101618009842208009D0074B41F20241FF221980ED
:101628009A700E2025F0D4FD2388184610BD00BFFF
:1016380026350020F4960020024A136818431060EB
:10164800704700BFAC320020F8B5624B624E634869
:10165800634D01245C2200211C7033F08AFE614A2C
:101668006149002330460B60136025F0F5F92146E7
:10167800204625F03FFA2146062025F03BFA6C79F2
:101688005A4B211C1A8E5A4B93FBF2F318BF0121B7
:10169800642BB8BF64230820C6F8483125F02AFA1D
:1016A800AF79391C4FF0090018BF012125F022FA43
:1016B800AB7A002B59D04F4D002C60D1391C18BF84
:1016C80001214D4C0A2025F015FA2368D80758D473
:1016D800990771D40121052025F00CFA0021072073
:1016E80025F008FA01210B2025F004FA21680C20C6
:1016F800C1F3800125F0FEF923685A0756BF29680F
:101708000121C1F3C0110D2025F0F4F929684B051A
:1017180043D411F4802104D0384B1968003118BF24
:1017280001210F2025F0E6F929681020C1F3C061D6
:1017380025F0E0F90121152025F0DCF9012111201F
:1017480025F0D8F90121122025F0D4F90121132020
:1017580025F0D0F92A4B196800314FF0140018BF52
:101768000121BDE8F84025F0C5B9EB7A214D002BE1
:10177800A2D1296811F48021A3D0002C9ED0012188
:101788009FE7204B1B68642BB8BF6423012102200C
:10179800B36725F0AFF923689AE701210E2025F0F9
:1017A800A9F9194B29681B7A083B012B9CBF4FF4F8
:1017B800FA63C6F8E832ACE70121032025F09AF96C
:1017C8004FF47A7301210420C6F8AC3025F092F961
:1017D80080E700BFB83D0020F81700205C3D0020DE
:1017E800CC6F0020BC3D0020583D00206C790020C3
:1017F80040420F00805F002018330020D8310020BD
:101808004C290020005200205C6F0020D1ED002AF6
:1018180090ED014A91ED015AD0ED025A91ED023A4C
:1018280090ED002AD1ED034AD0ED033A25EE446A43
:1018380062EE846A22EEA57A64EE037AA2EE226A48
:10184800E2EE056AA2EE037AE2EE247AA5EEC36A16
:10185800E5EEA46AA5EE237AE2EEA37AA3EEE46AA3
:10186800E3EE636AA4EE647AE5EE657A82ED006AD7
:10187800C2ED016A82ED027AC2ED037A704700BFB9
:10188800022838B504460DD800EB8003084A094DF4
:10189800094903EB830302EB830318462B600C70A2
:1018A8000CF086F8601CC0B2BDE8384025F072BD67
:1018B800EE2300202C3500204C70002038B5284A33
:1018C8002848137852782849284C294D03EB83037C
:1018D80003EB830302EBC20200EB830301EB42023A
:1018E80023602A600CF054FE30220021214833F096
:1018F80040FD20680CF05CF81F4A20491079204A06
:10190800204BC2F80411C822642111FB00210022D7
:10191800C3E90112C3E90322C3E90522DA6183F8A6
:10192800202083F821201BF023FB174ADFED176ADC
:101938001388517907EE103A5388127907EE903AD6
:10194800B8EEC77AF8EEE77A114B27EE267A67EEFB
:10195800A67A19725A7283ED017AC3ED007A38BDFE
:101968004C700020EE230020482500202C35002054
:1019780030350020DC220020A81F00204A2A002041
:10198800701C00200C310020203E002017B7D138F1
:101998006C2000202DE9F84F4FF48C72DFF830B23C
:1019A8008148824E824FDFF82C82DFF82C92DFF8D4
:1019B8002CA2002133F0DDFC7E48DFF824C2DFF8DA
:1019C80024E20BF1E0055C462368B34200F0D080C6
:1019D800B3F1804F00F0CE80BB4200F0CD8063456C
:1019E80000F0D880734500F0D780434500F0D680DA
:1019F8004B4500F0D580534500F0D4806E4A9342A1
:101A080000F0978002F58062934208BF092300F036
:101A180091801C34A542D7D1684E694D4FF0030917
:101A28004FF002089BF80630002B7BD09BF804305F
:101A38001F09013F052F03F00F0373D836F817006D
:101A480040FA03F2D2076DD54FF0010A0AFA03F300
:101A5800013B184032F096FB5A4BDB5D184415EBFE
:101A6800C0075FD055F8303057489BF8081003F18D
:101A78003842920A825C02F01F005209022A0AFACE
:101A880000FA00F08180032A78D0012A04D149485D
:101A980042694AEA02024261B7F804C0BCFA8CF211
:101AA800C2F11F0292B2D00803EB800002F00702D5
:101AB800076A92004FF00F0E0EFA02FE27EA0E0791
:101AC8000762076A01FA02F23A4302624FF0010E16
:101AD80000220EFA02F737EA0C0120D15000D3F8A1
:101AE80008A009FA00F1C9430AEA010AC3F808A0E4
:101AF800D3F808A0C3F808A0B3F804A02AEA070797
:101B08009F809F88BFB29F801F680F401F601F681B
:101B180008FA00F038431860D8680140D9600132EB
:101B2800102AD6D10BF11C0B5C457FF47BAFBDE8C6
:101B3800F88F0823254A02EBC303012293F82430C7
:101B480003F01F015B09022B02FA01F208D0032BF4
:101B58000AD0012B7FF45DAF43691A43426158E70D
:101B680083691A43826154E7C3691A43C26150E723
:101B78000023DFE70123DDE70223DBE70D48C26925
:101B88004AEA0202C26187E70A4882694AEA02020F
:101B9800826181E70323CDE70423CBE70523C9E767
:101BA8000623C7E70723C5E7045B0020002C014094
:101BB800000400400010024000440140EC630308A8
:101BC8009C640020D0620308B062030854540308E0
:101BD800D86203080014004000340140004001406E
:101BE800000800400010004000B9704703682DE964
:101BF800F04F03F138449C4EA40A0125345D04F0EB
:101C08001F066409022C05FA06F500F07481032CFE
:101C180000F06C81012C00F022818088B0FA80F4F9
:101C2800C4F11F04A4B2E50803EB850504F007041A
:101C38002E6AA4000F27A74026EA07062E622E6AFE
:101C480001F00307A2407C1E3243012CC1F3810E30
:101C5800C1F300182A62C1F3411140F20981C60795
:101C68000BD51A6822F003021A601A683A431A6000
:101C7800DA6822F003020A43DA6085070DD51A688C
:101C880022F00C021A601A6842EA87021A60DA68BF
:101C980022F00C0242EA8102DA6044070DD51A6884
:101CA80022F030021A601A6842EA07121A60DA68EB
:101CB80022F0300242EA0112DA6002070DD51A68F2
:101CC80022F0C0021A601A6842EA87121A60DA68BB
:101CD80022F0C00242EA8112DA60C6060DD51A68FF
:101CE80022F440721A601A6842EA07221A60DA6817
:101CF80022F4407242EA0122DA6085060DD51A689C
:101D080022F440621A601A6842EA87221A60DA6886
:101D180022F4406242EA8122DA6044060DD51A684C
:101D280022F440521A601A6842EA07321A60DA68E6
:101D380022F4405242EA0132DA6002060DD51A68EE
:101D480022F440421A601A6842EA87321A60DA6856
:101D580022F4404242EA8132DA60C6050DD51A689B
:101D680022F440321A601A6842EA07421A60DA68B6
:101D780022F4403242EA0142DA6085050DD51A683C
:101D880022F440221A601A6842EA87421A60DA6826
:101D980022F4402242EA8142DA6044050DD51A68ED
:101DA80022F440121A601A6842EA07521A60DA6886
:101DB80022F4401242EA0152DA6002050DD51A688F
:101DC80022F440021A601A6842EA87521A60DA68F6
:101DD80022F4400242EA8152DA60C6040DD51A683C
:101DE80022F040721A601A6842EA07621A60DA68DA
:101DF80022F0407242EA0162DA6085040DD51A6861
:101E080022F040621A601A6842EA87621A60DA6849
:101E180022F0406242EA8162DA6044040DD51A6811
:101E280022F040521A601A6842EA07721A60DA68A9
:101E380022F0405242EA0172DA6002040DD51A68B3
:101E480022F040421A601A6842EA87771F60DA680F
:101E580022F0404242EA8171D960BDE8F08F034C1C
:101E6800666935436561D8E6B06203080010024030
:101E780000224FF0010C4FF003090CFA02F636EA83
:101E880000042ED15400D3F808A009FA04F5ED4354
:101E980005EA0A0AC3F808A0D3F808B00EFA04FA4B
:101EA8004AEA0B0AC3F808A0B3F804A02AEA06060F
:101EB8009E80B3F804A008FA02F646EA0A06B6B20B
:101EC8009E801E682E401E60D3F800A007FA04F614
:101ED80046EA0A061E60DE6801FA04F435402C431F
:101EE800DC600132102AC8D1BDE8F08F044CE669E5
:101EF8003543E56191E6024CA6693543A5618CE658
:101F08000010024003682DE9F04F03F13845A94E4F
:101F1800AD0A0124755D05F01F066D09022D04FA4E
:101F280006F400F08D81032D00F08581012D00F06D
:101F38003B818088B0FA80F4C4F11F04A4B2E5089C
:101F480003EB850504F007042E6AA4000F27A740B9
:101F580026EA07062E622E6A01F0030702FA04F445
:101F68007A1E3443012AC1F3810EC1F300182C6292
:101F7800C1F3411140F22281C60700F108818507AB
:101F880000F1F680440700F1E480020700F1D280F6
:101F9800C60600F1C080850600F1AE80440600F157
:101FA8009C80020600F18A80C60578D4850567D42E
:101FB800440556D4020545D4C60434D4850423D434
:101FC800440412D4020401D4BDE8F08F1A6822F048
:101FD80040421A601A6842EA87771F60DA6822F07E
:101FE800404242EA8171D960EEE71A6822F0405215
:101FF8001A601A6842EA07721A60DA6822F04052D8
:1020080042EA0172DA60DDE71A6822F040621A607B
:102018001A6842EA87621A60DA6822F0406242EA85
:102028008162DA60CCE71A6822F040721A601A6896
:1020380042EA07621A60DA6822F0407242EA0162F4
:10204800DA60BBE71A6822F440021A601A6842EAAA
:1020580087521A60DA6822F4400242EA8152DA6052
:10206800AAE71A6822F440121A601A6842EA07526C
:102078001A60DA6822F4401242EA0152DA6099E7FB
:102088001A6822F440221A601A6842EA87421A60E3
:10209800DA6822F4402242EA8142DA6088E71A6864
:1020A80022F440321A601A6842EA07421A60DA6873
:1020B80022F4403242EA0142DA6077E71A6822F4F1
:1020C80040421A601A6842EA87321A60DA6822F4D3
:1020D800404242EA8132DA6066E71A6822F44052E6
:1020E8001A601A6842EA07321A60DA6822F4405223
:1020F80042EA0132DA6054E71A6822F440621A6050
:102108001A6842EA87221A60DA6822F4406242EAD0
:102118008122DA6042E71A6822F440721A601A686B
:1021280042EA07221A60DA6822F4407242EA01227F
:10213800DA6030E71A6822F0C0021A601A6842EAC8
:1021480087121A60DA6822F0C00242EA8112DA6065
:102158001EE71A6822F030021A601A6842EA07126B
:102168001A60DA6822F0300242EA0112DA600CE7FB
:102178001A6822F00C021A601A6842EA87021A608A
:10218800DA6822F00C0242EA8102DA60FAE61A689A
:1021980022F003021A601A683A431A60DA6822F0D9
:1021A80003020A43DA60EAE6034D6E6934436C6160
:1021B800BFE600BFB06203080010024000224FF0E3
:1021C800010C4FF003090CFA02F636EA00042ED18E
:1021D8005400D3F808A009FA04F5ED4305EA0A0A01
:1021E800C3F808A0D3F808B00EFA04FA4AEA0B0AB2
:1021F800C3F808A0B3F804A02AEA06069E80B3F83C
:1022080004A008FA02F646EA0A06B6B29E801E68DC
:102218002E401E60D3F800A007FA04F646EA0A0624
:102228001E60DE6801FA04F435402C43DC6001329C
:10223800102AC8D1C8E6054DEE693443EC6178E64A
:10224800024DAE693443AC6173E600BF0010024032
:1022580010B50409013C052C17D80E4B33F814208F
:1022680000F00F0042FA00F313F001030FD001232E
:1022780003FA00F00138104031F084FF064A074B9A
:10228800125D104403EBC00010BD002010BD1846BD
:1022980010BD00BFEC630308D06203089C640020F3
:1022A8002DE9F8432F4D2A69EB6812EA030826D076
:1022B8002D4E4FF00047B8FA88F327FA03F2D243BD
:1022C8001B3B2A6108EA0208042B15D8DFE803F053
:1022D800372D23190300D6F81431002B39D1EB6AB6
:1022E8001FFA83F9D6F8104134B1236820464946CD
:1022F80098476468002CF8D1B8F1000FDBD1BDE82D
:10230800F883D6F8F000696B036889B29847B8F18A
:10231800000FD0D1F3E7D6F8F400A96B036889B2AF
:102328009847B8F1000FC6D1E9E7D6F8F800E96B8D
:10233800036889B29847B8F1000FBCD1DFE7D6F837
:10234800FC00296C036889B29847B8F1000FB2D134
:10235800D5E703F1FF3900231FFA89F9C6F81431CC
:10236800C0E700BF00480140045B00202DE9F843A6
:102378002F4D2A69EB6812EA030826D02D4E4FF03C
:102388000047B8FA88F327FA03F2D2431B3B2A61C5
:1023980008EA0208042B15D8DFE803F0372D2319C3
:1023A8000300D6F8C430002B39D1EB6A1FFA83F941
:1023B800D6F8C04034B12368204649469847646837
:1023C800002CF8D1B8F1000FDBD1BDE8F883D6F8BE
:1023D800A000696B036889B29847B8F1000FD0D1A3
:1023E800F3E7D6F8A400A96B036889B29847B8F157
:1023F800000FC6D1E9E7D6F8A800E96B036889B2EF
:102408009847B8F1000FBCD1DFE7D6F8AC00296CCB
:10241800036889B29847B8F1000FB2D1D5E703F144
:10242800FF3900231FFA89F9C6F8C430C0E700BF96
:1024380000340140045B00202DE9F8432F4D2A6940
:10244800EB6812EA030826D02D4E4FF00047B8FA81
:1024580088F327FA03F2D2431B3B2A6108EA0208F1
:10246800042B15D8DFE803F0372D23190300D6F81D
:10247800C430002B39D1EB6A1FFA83F9D6F8C04073
:1024880034B123682046494698476468002CF8D13F
:10249800B8F1000FDBD1BDE8F883D6F8A000696B6E
:1024A800036889B29847B8F1000FD0D1F3E7D6F89E
:1024B800A400A96B036889B29847B8F1000FC6D188
:1024C800E9E7D6F8A800E96B036889B29847B8F13C
:1024D800000FBCD1DFE7D6F8AC00296C036889B2DD
:1024E8009847B8F1000FB2D1D5E703F1FF390023BF
:1024F8001FFA89F9C6F8C430C0E700BF00340140AC
:10250800045B00202DE9F8432E4D2A69EB6812EA96
:10251800030826D02C4E4FF00047B8FA88F327FA64
:1025280003F2D2431B3B2A6108EA0208042B15D8A0
:10253800DFE803F0352B22190300D6F89C30002B76
:1025480037D1EB6A1FFA83F9D6F8984034B123687B
:102558002046494698476468002CF8D1B8F1000F26
:10256800DBD1BDE8F883B06F696B036889B298471F
:10257800B8F1000FD1D1F4E7F06FA96B036889B205
:102588009847B8F1000FC8D1EBE7D6F88000E96B9F
:10259800036889B29847B8F1000FBED1E1E7D6F8D1
:1025A8008400296C036889B29847B8F1000FB4D148
:1025B800D7E703F1FF3900231FFA89F9C6F89C30E1
:1025C800C2E700BF00080040045B00202DE9F84383
:1025D8002B4D2A69EB6812EA030824D0294E4FF0E4
:1025E8000047B8FA88F327FA03F2D2431B3B2A6163
:1025F80008EA0208042B13D8DFE803F03229201771
:102608000300736F002B34D1EB6A1FFA83F9346F20
:1026180034B123682046494698476468002CF8D1AD
:10262800B8F1000FDDD1BDE8F883306D696B036840
:1026380089B29847B8F1000FD3D1F4E7706DA96B50
:10264800036889B29847B8F1000FCAD1EBE7B06DBB
:10265800E96B036889B29847B8F1000FC1D1E2E786
:10266800F06D296C036889B29847B8F1000FB8D1AA
:10267800D9E703F1FF3900231FFA89F97367C6E721
:1026880000040040045B00202DE9F8434FF080452A
:102698002A69EB6812EA030824D0294E4FF0004754
:1026A800B8FA88F327FA03F2D2431B3B2A6108EAF7
:1026B8000208042B13D8DFE803F03229201703009F
:1026C800F36C002B34D1EB6A1FFA83F9B46C34B184
:1026D80023682046494698476468002CF8D1B8F129
:1026E800000FDDD1BDE8F883B06A696B036889B271
:1026F8009847B8F1000FD3D1F4E7F06AA96B0368E3
:1027080089B29847B8F1000FCAD1EBE7306BE96B93
:10271800036889B29847B8F1000FC1D1E2E7706B3E
:10272800296C036889B29847B8F1000FB8D1D9E786
:1027380003F1FF3900231FFA89F9F364C6E700BFE4
:10274800045B002010B5064C06482146FEF75EFCE7
:1027580004F1C8010448BDE81040FEF757BC00BFAB
:10276800045B0020002C0140004401402DE9F8439F
:102778002B4D2A69EB6812EA030824D0294E4FF042
:102788000047B8FA88F327FA03F2D2431B3B2A61C1
:1027980008EA0208042B13D8DFE803F032292017CF
:1027A8000300736A002B34D1EB6A1FFA83F9346A89
:1027B80034B123682046494698476468002CF8D10C
:1027C800B8F1000FDDD1BDE8F8833068696B0368A4
:1027D80089B29847B8F1000FD3D1F4E77068A96BB4
:1027E800036889B29847B8F1000FCAD1EBE7B0681F
:1027F800E96B036889B29847B8F1000FC1D1E2E7E5
:10280800F068296C036889B29847B8F1000FB8D10D
:10281800D9E703F1FF3900231FFA89F97362C6E784
:10282800002C0140045B0020F0B506684D4CB30A4B
:10283800A34200F094800AD94B4CA34200F089804F
:102848000134A34266D0053CA34267D0F0BD4A3CA0
:10285800A34200F081800134A34205D0B3F5801F64
:10286800F4D14827012501E09827032590F805C0F1
:1028780002232CFA03F084468340A800002955D08F
:10288800D6F80CE044190CEB440C9BB2374C43EAE5
:102898000E030CF1040E44F82C1044F82E20F360BB
:1028A800E319EFF31181502282F31288421904EBE5
:1028B800C202D2F810C0BCF1000F03D044F807C020
:1028C80013690433421904EBC202576917B11F6038
:1028D80053690433421904EBC202976917B11F60A8
:1028E80093690433421904EBC202D76917B11F6018
:1028F800D36904330022C9B21A6081F311882844CD
:1029080004EBC004236A63B9F3684FF6FE72134000
:10291800F360F0BD4FF488770625A7E7C0270425A4
:10292800A4E7F36843F00103F360F0BDD6F80CE0C8
:102938000E4CDB439BB203EA0E0300EB050E0CEBD7
:102948004E0CF3600CF1040344F82C1044F82320D7
:10295800A6E7E827052589E77027022586E72027C7
:10296800002583E74B00100051001000045B002095
:1029780030B503685A4D18885A4CB4FBF2F2013945
:10298800013AAB4294B283B089B282B20DD05648B4
:1029980083420AD0B3F1804F07D0A0F59830834224
:1029A80003D000F58060834202D122F0700292B217
:1029B8004E4883426AD000F58060834241D022F4B9
:1029C800407200F58C3092B283421A80D9621C851D
:1029D80065D100221A8601225A611A88404942F0BC
:1029E80001028B421A806AD0B3F1804F69D0404A05
:1029F800934268D002F58062934266D002F5006285
:102A0800934264D002F58062934262D002F590321C
:102A1800934260D002F5406293425ED002F5806234
:102A2800934217D002F58062934208BF092212D060
:102A380002A84FF0012340F8043D1EF0E7FB03B065
:102A480030BD01201A80D9621C8558611A8802435A
:102A58001A80C9E70822274B03EBC20301A893F8A1
:102A680025408DF80440012300228DF805308DF8AB
:102A780007308DF806201EF0C9FB1B2CDFD11E4B3A
:102A8800019301A81EF0C2FB03B030BD01201A80DB
:102A9800D9621C8558611A8802431A80A7E7124A2E
:102AA800934296D002F54062934292D002F580623A
:102AB80093428ED002F5806293428AD08BE700223F
:102AC800C9E70122C7E70222C5E70322C3E70422B8
:102AD800C1E70522BFE70622BDE70722BBE700BF23
:102AE800002C014000A24A040034014000100040BC
:102AF800000400405454030819010001204B984277
:102B08002DD0B0F1804F2CD0A3F5943398422AD021
:102B180003F58063984228D003F50063984226D0D5
:102B280003F58063984224D003F59033984222D06D
:102B380003F54063984220D003F58063984207D09C
:102B480003F58063984208BF092202D0002070472D
:102B580008220C4B03EBC20393F8240070470022B1
:102B6800F7E70122F5E70222F3E70322F1E704225F
:102B7800EFE70522EDE70622EBE70722E9E700BFCA
:102B8800002C01405454030868B10A4A2321002349
:102B980001E012F81C1C884202F11C0204D0013327
:102BA800082BF6D1002070470348C3EBC30300EBA2
:102BB80083007047F8620308D86203082DE9F04FD4
:102BC800013085B0C3B20393994C9A4FDFF874A2D1
:102BD800994D9A4E0A23029328F098F94FF4FA7304
:102BE800DFF86CE201934FF01008DAF80430C3F311
:102BF8000803002B40F0D980EFF31183002B40F03D
:102C0800D4802068AA6823689842FAD133689A4227
:102C1800F7D8D7F800C04FF47A7101FB0CF39B1A70
:102C2800B3FBFCF301FB00304FF47A7C4FF0010951
:102C3800DAF80430C3F30803002B40F09880EFF370
:102C48001183002B40F093802368A968226893427F
:102C5800FAD132689142F7D83A680CFB02FBABEB29
:102C68000101B1FBF2F10CFB03131B1AB3F57A7FD8
:102C7800DED3019B013B0193B7D1039827F09AFF5C
:102C88004FF47A73DFF8C8E101934FF01008DAF8CF
:102C98000430C3F30803002B40F0A880EFF311833E
:102CA800002B40F0A3802068AA6823689842FAD1D4
:102CB80033689A42F7D8D7F800C04FF47A7101FB0D
:102CC8000CF39B1AB3FBFCF301FB00304FF47A7C46
:102CD8004FF00109DAF80430C3F308034BBBEFF3F4
:102CE800118333BB2368A96822689342FAD13268FA
:102CF8009142F7D83A680CFB02FBABEB0101B1FB40
:102D0800F2F10CFB03131B1AB3F57A7FE2D3019B94
:102D1800013B0193BBD1029B013B02937FF45CAF63
:102D28004749484B4848494A0860DA6005B0BDE859
:102D3800F08FEFF3118188F31288D5F808B02B686B
:102D4800DB0344BFCEF80090D5F808B02368DEF85E
:102D58000020C9B281F31188396813440CFB01F2D1
:102D6800A2EB0B02B2FBF1F20CFB0323CBE7EFF370
:102D7800118188F31288D5F808B02B68DB0344BFAB
:102D8800CEF80090D5F808B02368DEF80020C9B264
:102D980081F31188396813440CFB01F2A2EB0B0292
:102DA800B2FBF1F20CFB03235FE7EFF3118388F327
:102DB8001288D5F808C02A68D20304D50122CEF8B3
:102DC8000020D5F808C02068DEF80090DBB283F355
:102DD800118839684FF47A72484402FB01F3A3EB77
:102DE8000C03B3FBF1F302FB00301DE7EFF3118393
:102DF80088F31288D5F808C02A68D20304D50122BE
:102E0800CEF80020D5F808C02068DEF80090DBB2C4
:102E180083F3118839684FF47A72484402FB01F34E
:102E2800A3EB0C03B3FBF1F302FB00304EE700BF4A
:102E3800985200209C52002010E000E0A052002090
:102E4800FC9F002000ED00E0EFBEADDE0400FA05B7
:102E5800945200202DE9F04F85B0CDE902109B4D2A
:102E6800DFF878A2029B013B0293013300F02A812C
:102E780028F04CF8964C974FDFF864E2964E4FF4E2
:102E8800FA7301934FF01008DEF80430C3F3080317
:102E9800002B40F0F680EFF31183002B40F0F18017
:102EA8002068AA6823689842FAD133689A42F7D80A
:102EB800D7F800C04FF47A7101FB0CF39B1AB3FBEF
:102EC800FCF301FB00304FF47A7C4FF00109DEF887
:102ED8000430C3F30803002B40F0B580EFF31183EF
:102EE800002B40F0B0802368A96822689342FAD189
:102EF80032689142F7D83A680CFB02FBABEB010150
:102F0800B1FBF2F10CFB03131B1AB3F57A7FDED386
:102F1800019B013B0193B7D1039B6F4E581CC0B274
:102F280027F048FEDFF8B8E14FF47A730193DEF832
:102F38000430C3F308034FF01008002B44D1EFF31B
:102F48001183002B40D12068AA6823689842FAD1DF
:102F580033689A42F7D8D7F800C04FF47A7101FB6A
:102F68000CF39B1AB3FBFCF301FB00304FF47A7CA3
:102F78004FF00109DEF80430C3F30803002B44D1F5
:102F8800EFF31183002B40D12368A968226893428C
:102F9800FAD132689142F7D83A680CFB02FBABEBE6
:102FA8000101B1FBF2F10CFB03131B1AB3F57A7F95
:102FB800E0D3019B013B01933FF454AFDEF80430AA
:102FC800C3F30803002BBAD0EFF3118388F31288F8
:102FD800D5F808C02A68D20304D50122CAF800200F
:102FE800D5F808C02068DAF80090DBB283F31188BE
:102FF80039684FF47A72484402FB01F3A3EB0C03DF
:10300800B3FBF1F302FB0030B0E7EFF3118188F373
:103018001288D5F808B02B68DB0344BFCAF80090C3
:10302800D5F808B02368DAF80020C9B281F311880E
:10303800396813440CFB01F2A2EB0B02B2FBF1F26C
:103048000CFB0323B1E7EFF3118188F31288D5F85D
:1030580008B02B68DB0344BFCAF80090D5F808B065
:103068002368DAF80020C9B281F31188396813445B
:103078000CFB01F2A2EB0B02B2FBF1F20CFB0323F7
:1030880042E7EFF3118388F31288D5F808C02A685D
:10309800D20304D50122CAF80020D5F808C0206858
:1030A800DAF80090DBB283F3118839684FF47A724A
:1030B800484402FB01F3A3EB0C03B3FBF1F302FB5F
:1030C800003000E705B0BDE8F08F00BF10E000E079
:1030D800985200209C520020A052002094520020B8
:1030E80000ED00E0224B5B68C3F3080330B4D3B9AA
:1030F800EFF31183BBB91F4A1F4D2048136884683A
:1031080011688B42FAD129688C42F7D81C4A116899
:103118004FF47A7202FB01F0001B30BCB0FBF1F0F7
:1031280002FB03007047EFF31182102383F3128828
:1031380003F1E023D2B29C68196811F4803F114969
:103148001EBF012008609C680A4B18680B6882F350
:1031580011880B4A11684FF47A72034402FB01F09C
:10316800001B30BCB0FBF1F002FB0300704700BF4E
:1031780000ED00E098520020A052002010E000E08E
:103188009C520020945200202DE9F84F8046274C8D
:10319800274DDFF8A490274EFFF7A4FFDFF89CE047
:1031A800DFF89CC04FF0100A4FF47A77DCF804304F
:1031B800C3F30803CBB9EFF31183B3B92368A96844
:1031C80022689342FAD132689142F7D8DEF800209B
:1031D80007FB02FBABEB0101B1FBF2F107FB0313A9
:1031E8001B1A4345E2D3BDE8F88FEFF311818AF348
:1031F8001288D5F808B02B68DB0304D50123C9F879
:103208000030D5F808B02368D9F80020C9B281F396
:103218001188DEF80010134407FB01F2A2EB0B0241
:10322800B2FBF1F207FB0323DAE700BF9852002054
:1032380010E000E0A0520020945200209C52002090
:1032480000ED00E02DE9F04FDFF834C1494CDFF81C
:1032580034E1DFF83481484E824648481AF1FF3A93
:10326800C0F08680DCF80430C3F30803002B5ED17D
:10327800EFF31183002B5AD10568A26803689D42B9
:10328800FAD133689A42F7D8DEF800704FF47A71B1
:1032980001FB07F39B1AB3FBF7F301FB0535DCF8D9
:1032A8000430C3F308034FF010094FF47A77F3B9E9
:1032B800EFF31183DBB90368A16802689342FAD17E
:1032C80032689142F7D8DEF8002007FB02FBABEB2F
:1032D8000101B1FBF2F107FB03135B1BB3F57A7F26
:1032E800BCD2DCF80430C3F30803002BE0D0EFF3C2
:1032F800118189F31288D4F808B02368DB0304D558
:103308000123C8F80030D4F808B00368D8F80020C2
:10331800C9B281F31188DEF80010134407FB01F2EB
:10332800A2EB0B02B2FBF1F207FB0323D5E7EFF3A5
:103338001183102282F31288A1682268D20303D570
:103348000122C8F80020A168D0F80090D8F80050F1
:10335800DBB283F31188DEF800704FF47A724D44C3
:1033680002FB07F35B1AB3FBF7F302FB053596E79D
:10337800BDE8F08F10E000E0A05200209852002035
:1033880000ED00E09C5200209452002030B4EFF38E
:103398001183102282F31288084809490268094DEE
:1033A800094C013202608A682A6000222260DBB27E
:1033B8000A6883F3118830BC704700BF9852002018
:1033C80010E000E0A0520020945200201D4B70B580
:1033D8009C68636DA26BDD69CAB1E36B33B12B07DF
:1033E80000D470BD636D08221A6270BD2A06F6D536
:1033F800D4E909028242616D11D0501CA669A0620D
:10340800B25C26690A85B042E9D3A362E7E7A90658
:10341800E3D5E26A42B1988C216B9047DDE70B68EF
:1034280023F080030B60DAE7E1699B8C6069DBB20B
:103438004E1CE6614354E169E368994228BFE261A2
:10344800CBE700BFE44300201D4B70B55C68636D9B
:10345800A26BDD69CAB1E36B33B12B0700D470BD31
:10346800636D08221A6270BD2A06F6D5D4E90902EE
:103478008242616D11D0501CA669A062B25C2669B7
:103488000A85B042E9D3A362E7E7A906E3D5E26A71
:1034980042B1988C216B9047DDE70B6823F08003DD
:1034A8000B60DAE7E1699B8C6069DBB24E1CE66170
:1034B8004354E169E368994228BFE261CBE700BF62
:1034C800E44300201D4B70B51C68636DA26BDD6979
:1034D800CAB1E36B33B12B0700D470BD636D08220A
:1034E8001A6270BD2A06F6D5D4E909028242616DD6
:1034F80011D0501CA669A062B25C26690A85B04248
:10350800E9D3A362E7E7A906E3D5E26A42B1988C5A
:10351800216B9047DDE70B6823F080030B60DAE747
:10352800E1699B8C6069DBB24E1CE6614354E1693A
:10353800E368994228BFE261CBE700BFE44300207B
:10354800002A12DD70B504460D468E182368204601
:103558009B6898470028F9D0236815F8011B1B6859
:1035680020469847B542F1D170BD70470368DB6AC1
:1035780003B11847704700BF03689B6A03B1184737
:10358800704700BF03682DE9F0415D6A1DB12B4605
:10359800BDE8F0411847002A174611DD04460E46DB
:1035A8000F4400E023689B68204698470028F9D01C
:1035B800236816F8011B1B6820469847BE42F1D1C4
:1035C800BDE8F08103685B69184700BF0368DB68E2
:1035D800184700BF03689B68184700BF03685B680B
:1035E800184700BF03681B68184700BF014BD3F892
:1035F8000801F7E7701C0020054B53F8203033B161
:103608001A689B88918A0B4218BF1B049361704704
:10361800645200202DE9F04F4A484B4B4B4C4FF079
:1036280090414FF0010A4FF002094FF004084FF0A3
:10363800080E4FF0100C20274026802530F8022B6A
:1036480012F0010F03D01960A3F804A0083312F098
:10365800020F03D01960A3F80490083312F0040F86
:1036680003D01960A3F80480083312F0080F03D0C0
:103678001960A3F804E0083312F0100F03D01960A2
:10368800A3F804C0083312F0200F02D019609F80FD
:10369800083312F0400F02D019609E80083312F0F0
:1036A800800F02D019609D80083312F4807F05D006
:1036B8004FF4807B1960A3F804B0083312F4007F3C
:1036C80005D04FF4007B1960A3F804B0083312F456
:1036D800806F05D04FF4806B1960A3F804B00833ED
:1036E80012F4006F05D04FF4006B1960A3F804B012
:1036F800083312F4805F05D04FF4805B1960A3F89B
:1037080004B0083312F4005F05D04FF4005B196071
:10371800A3F804B0083312F4804F05D04FF4804B5F
:103728001960A3F804B00833D20B04D04FF4004258
:1037380019609A80083301F58061A1427FF47EAF59
:10374800BDE8F08FEC6303089C6400200018004873
:1037580000B97047036803F138422DE9F04F920A27
:10376800B24DAA5C02F01F0552090124022A04FA8C
:1037780005F400F05F81032A00F05381012A00F06C
:103788000D8101F003077A1E012AC1F3810EC1F3EE
:1037980000188488C1F3411140F20581E6070BD572
:1037A8001A6822F003021A601A683A431A60DA6843
:1037B80022F003020A43DA60A5070DD51A6822F041
:1037C8000C021A601A6842EA87021A60DA6822F064
:1037D8000C0242EA8102DA6060070DD51A6822F00D
:1037E80030021A601A6842EA07121A60DA6822F090
:1037F800300242EA0112DA6022070DD51A6822F077
:10380800C0021A601A6842EA87121A60DA6822F05F
:10381800C00242EA8112DA60E6060DD51A6822F47F
:1038280040721A601A6842EA07221A60DA6822F4BB
:10383800407242EA0122DA60A5060DD51A6822F420
:1038480040621A601A6842EA87221A60DA6822F42B
:10385800406242EA8122DA6060060DD51A6822F4D5
:1038680040521A601A6842EA07321A60DA6822F48B
:10387800405242EA0132DA6022060DD51A6822F473
:1038880040421A601A6842EA87321A60DA6822F4FB
:10389800404242EA8132DA60E6050DD51A6822F420
:1038A80040321A601A6842EA07421A60DA6822F45B
:1038B800403242EA0142DA60A5050DD51A6822F4C1
:1038C80040221A601A6842EA87421A60DA6822F4CB
:1038D800402242EA8142DA6060050DD51A6822F476
:1038E80040121A601A6842EA07521A60DA6822F42B
:1038F800401242EA0152DA6022050DD51A6822F414
:1039080040021A601A6842EA87521A60DA6822F49A
:10391800400242EA8152DA60E6040DD51A6822F0C4
:1039280040721A601A6842EA07621A60DA6822F07E
:10393800407242EA0162DA60A5040DD51A6822F0E5
:1039480040621A601A6842EA87621A60DA6822F0EE
:10395800406242EA8162DA6060040DD51A6822F09A
:1039680040521A601A6842EA07721A60DA6822F04E
:10397800405242EA0172DA6022040DD51A6822F038
:1039880040421A601A6842EA87771F60DA6822F0B4
:10399800404242EA8171D960BDE8F08F244A5569F6
:1039A8002C435461EDE600224FF0010C4FF003095F
:1039B8000CFA02F636EA04002ED15000D3F808A01B
:1039C80009FA00F5ED430AEA050AC3F808A0D3F896
:1039D80008B00EFA00FA4AEA0B0AC3F808A0B3F8CE
:1039E80004A02AEA06069E80B3F804A008FA02F6A4
:1039F80046EA0A06B6B29E801E682E401E60D3F8BC
:103A080000A007FA00F646EA0A061E60DE6801FA18
:103A180000F035402843D8600132102AC8D1BDE8EB
:103A2800F08F034AD5692C43D461AAE6B062030833
:103A380000100240024A95692C439461A1E600BF38
:103A48000010024010B1036882881A85704700BFD1
:103A580010B1036882889A61704700BF18B18388E3
:103A680011B10268936170471B04FAE710B40A4B5E
:103A78000A4A1C7801238340234052F8200029B9C0
:103A8800B3FA83F149095DF8044BE7E7191C18BF3D
:103A980001215DF8044BE1E76052002064520020E8
:103AA80008B501210220FFF7E1FF0C4B1B7803F05A
:103AB8000503052B0ED000210120FFF7D7FF0021B9
:103AC8000846FFF7D3FF3220FFF7BCFB0220FFF7C1
:103AD80093FDF8E70AF08EFAEDE700BFE043002017
:103AE8000E4B1B8801463BB90D4B0E4A1B781068DC
:103AF8000BB981F00101B1E70B4B5A691AB11A6889
:103B080010B910605874704708480949008891FB3B
:103B1800F0F1012011605874704700BF7052002006
:103B280072520020745200207852002090520020D7
:103B380020A1070038B5074B03EBC0052C796A793B
:103B48004C40A24205D053F830002146FFF786FFCB
:103B58006C7138BD605F002030B102688388128ABA
:103B68001A4214BF01200020704700BF2DE9F04120
:103B78000B4E346873691C400FD0DFF8288001278A
:103B8800B4FA84F3C3F11F0307FA03F558F82300C6
:103B980003689847AC437561F2D1BDE8F08100BF76
:103BA80000040140A45200202DE9F0410B4E346876
:103BB80073691C400FD0DFF828800127B4FA84F31A
:103BC800C3F11F0307FA03F558F823000368984761
:103BD800AC437561F2D1BDE8F08100BF000401403B
:103BE800A45200202DE9F0410B4E346873691C4043
:103BF8000FD0DFF828800127B4FA84F3C3F11F033C
:103C080007FA03F558F8230003689847AC43756131
:103C1800F2D1BDE8F08100BF00040140A4520020A9
:103C28002DE9F0410B4E346873691C400FD0DFF862
:103C380028800127B4FA84F3C3F11F0307FA03F5B8
:103C480058F8230003689847AC437561F2D1BDE882
:103C5800F08100BF00040140A45200202DE9F0418A
:103C68000B4E346873691C400FD0DFF82880012799
:103C7800B4FA84F3C3F11F0307FA03F558F82300D5
:103C880003689847AC437561F2D1BDE8F08100BF85
:103C980000040140A45200202DE9F0410B4E346885
:103CA80073691C400FD0DFF828800127B4FA84F329
:103CB800C3F11F0307FA03F558F823000368984770
:103CC800AC437561F2D1BDE8F08100BF000401404A
:103CD800A45200202DE9F0410B4E346873691C4052
:103CE8000FD0DFF828800127B4FA84F3C3F11F034B
:103CF80007FA03F558F8230003689847AC43756141
:103D0800F2D1BDE8F08100BF00040140A4520020B8
:103D18000B490C4A0C4808B58B6943F001038B61C9
:103D2800136843F4805313600021402231F021FBD3
:103D3800064B4FF0FF321A60C3F8032008BD00BFDE
:103D48000010024000000140A4520020E45200206C
:103D580003681B6A184700BF70B44E1C0568C2721E
:103D68008672AC69A44670BC604700BF2DE9F0417B
:103D7800044618460D4616461F4630F0FBF92844FF
:103D8800A0722068E672294645693B4632462046BD
:103D9800AC46BDE8F0416047036810B504461B68AF
:103DA8009847236820469B689847A37B0133A373F1
:103DB80010BD00BF10B5036804469B689847FF23F1
:103DC80001226373227310BD0B4B984211D0A3F5E7
:103DD8007843984202D04FF0FF3070470122074BDA
:103DE80003EB02135A89013292B25A81588980B280
:103DF80070470022F3E700BF003001408C5C0020D0
:103E080008B540F2E93300E09BB10289013B12F0AA
:103E1800020F9BB2F8D0017340F2E93300E043B1DE
:103E28000289013B12F0010F9BB2F8D0007BC0B2AF
:103E380008BDFFF7C9FFC0B208BD00BF2DE9F04FAC
:103E480085B0009090F86800002840F0B785009B86
:103E580058699A69038823F040031B041B0C0380EC
:103E680003889BB223F0380343F0380303800388A8
:103E780043F04003038012B1136892881A856B21BE
:103E8800FFF7BEFF009C80216069FFF7B9FFA369B7
:103E980013B11A689B8893616423AE4CAE4EDFF869
:103EA800C8E2AE48DFF8C482AD4F01934FF0100965
:103EB800DEF80430C3F30803002B40F01184EFF35D
:103EC8001183002B40F00C842568826823689D428A
:103ED800FAD13B689A42F7D8D6F800C04FF47A7105
:103EE80001FB0CF39B1AB3FBFCF301FB05354FF404
:103EF8007A7C4FF0010ADEF80430C3F30803002B84
:103F080040F0D083EFF31183002B40F0CB8323687C
:103F1800816822689342FAD13A689142F7D83268A8
:103F28000CFB02FBABEB0101B1FBF2F10CFB031341
:103F38005B1BB3F57A7FDED3019B013B0193B7D1BD
:103F4800009B9B6913B11A689B881385009D6821A3
:103F58006869FFF755FF03216869FFF751FFAB69EF
:103F680013B11A689B8893616423DFF8FCE17B48EE
:103F7800DFF8F8817A4F01934FF01009DEF804302A
:103F8800C3F30803002B40F03084EFF31183002BB8
:103F980040F02B842568826823689D42FAD13B68EB
:103FA8009A42F7D8D6F800C04FF47A7101FB0CF3A7
:103FB8009B1AB3FBFCF301FB05354FF47A7C4FF0F9
:103FC800010ADEF80430C3F30803002B40F04C83E9
:103FD800EFF31183002B40F0478323688168226840
:103FE8009342FAD13A689142F7D832680CFB02FB47
:103FF800ABEB0101B1FBF2F10CFB03135B1BB3F557
:104008007A7FDED3019B013B0193B7D1009B9B696B
:1040180013B11A689B881385009D6B216869FFF7A7
:10402800EFFE01216869FFF7EBFEAB6913B11A686F
:104038009B8893610F23DFF830E14848DFF82C8133
:10404800474F01934FF01009DEF80430C3F308031B
:10405800002B40F0A983EFF31183002B40F0A483D9
:104068002568826823689D42FAD13B689A42F7D84E
:10407800D6F800C04FF47A7101FB0CF39B1AB3FB1E
:10408800FCF301FB05354FF47A7C4FF0010ADEF8AA
:104098000430C3F30803002B40F0C882EFF3118308
:1040A800002B40F0C3822368816822689342FAD1CA
:1040B8003A689142F7D832680CFB02FBABEB01017E
:1040C800B1FBF2F10CFB03135B1BB3F57A7FDED374
:1040D800019B013B0193B7D1009ADFED227AD2F818
:1040E8005F3007EE103AB4EEE77AF1EE10FA40F3DB
:1040F800618492F86630012B14BF1A2519251346DE
:104108009B6913B11A689B881385009F1B217869E6
:10411800FFF776FE29467869FFF772FEBB6913B18F
:104128001A689B8893610F23DFF83CE00B48DFF89F
:104138003C800B4F01934FF01009DEF80430C3F3B5
:104148000803002B40F00F83EFF31183002B40F09E
:104158000A830DE0985200209C52002010E000E0F5
:10416800A05200200000FA4200ED00E09452002026
:104178002568826823689D42FAD13B689A42F7D83D
:10418800D6F800C04FF47A7101FB0CF39B1AB3FB0D
:10419800FCF301FB05354FF47A7C4FF0010ADEF899
:1041A8000430C3F30803002B40F02282EFF311839D
:1041B800002B40F01D822368816822689342FAD15F
:1041C8003A689142F7D832680CFB02FBABEB01016D
:1041D800B1FBF2F10CFB03135B1BB3F57A7FDED363
:1041E800019B013B0193A8D1009B9B6913B11A68FD
:1041F8009B881385009D1C216869FFF701FE182123
:104208006869FFF7FDFDAB6913B11A689B88936174
:104218000F23DFF8CCE2AF48DFF8C882AE4F019336
:104228004FF01009DEF80430C3F30803002B40F008
:104238007982EFF31183002B40F07482256882683D
:1042480023689D42FAD13B689A42F7D8D6F800C055
:104258004FF47A7101FB0CF39B1AB3FBFCF301FBDF
:1042680005354FF47A7C4FF0010ADEF80430C3F3C9
:104278000803002B40F09E81EFF31183002B40F0E0
:1042880099812368816822689342FAD13A689142F9
:10429800F7D832680CFB02FBABEB0101B1FBF2F182
:1042A8000CFB03135B1BB3F57A7FDED3019B013B49
:1042B8000193B7D1009ADFED897AD2F85F3007EE23
:1042C800103AB4EEE77AF1EE10FA00F3708392F840
:1042D8006550012D00F0AB82A5F10205B5FA85F510
:1042E8006D0913469B6913B11A689B881385009F53
:1042F8001A217869FFF784FD29467869FFF780FD60
:10430800BB6913B11A689B8893610F23DFF8D0E16A
:104318007048DFF8D081704F01934FF01009DEF834
:104328000430C3F30803002B40F0FF82EFF311833E
:10433800002B40F0FA822568826823689D42FAD1F2
:104348003B689A42F7D8D6F800C04FF47A7101FB5F
:104358000CF39B1AB3FBFCF301FB05354FF47A7C95
:104368004FF0010ADEF80430C3F30803002B40F0D5
:104378009D82EFF31183002B40F0988223688168B7
:1043880022689342FAD13A689142F7D832680CFB16
:1043980002FBABEB0101B1FBF2F10CFB03135B1B5E
:1043A800B3F57A7FDED3019B013B0193B7D1009A25
:1043B800936992F8675013B11A689B881385009F18
:1043C80019217869FFF71CFD29467869FFF718FD60
:1043D800BB6913B11A689B8893616423DFF800E115
:1043E8003C48DFF800813C4F01934FF01009DEF89C
:1043F8000430C3F30803002B40F07682EFF31183F7
:10440800002B40F071822568826823689D42FAD1AA
:104418003B689A42F7D8D6F800C04FF47A7101FB8E
:104428000CF39B1AB3FBFCF301FB05354FF47A7CC4
:104438004FF0010ADEF80430C3F30803002B40F004
:104448001782EFF31183002B40F0128223688168F2
:1044580022689342FAD13A689142F7D832680CFB45
:1044680002FBABEB0101B1FBF2F10CFB03135B1B8D
:10447800B3F57A7FDED3019B013B0193B7D1009B53
:104488009B6913B11A689B881385009D3721686959
:10449800FFF7B6FC10216869FFF7B2FCAB6913B1EE
:1044A8001A689B8893610F23DFF834E00948DFF826
:1044B8003480094F01934FF01009DEF80430C3F33C
:1044C8000803002B40F05282EFF31183002B40F0D9
:1044D8004D8209E010E000E0A05200200000FA42FE
:1044E80000ED00E0945200202568826823689D4210
:1044F800FAD13B689A42F7D8D6F800C04FF47A71DF
:1045080001FB0CF39B1AB3FBFCF301FB05354FF4DD
:104518007A7C4FF0010ADEF80430C3F30803002B5D
:1045280040F08881EFF31183002B40F083812368EA
:10453800816822689342FAD13A689142F7D8326882
:104548000CFB02FBABEB0101B1FBF2F10CFB03131B
:104558005B1BB3F57A7FDED3019B013B0193ACD1A2
:10456800009B9B6913B11A689B881385009C3821AE
:104578006069FFF745FC01216069FFF741FCA36909
:1045880013B11A689B889361009B5A69138823F0BA
:1045980040031B041B0C138013889BB223F03803C1
:1045A80043F008031380138843F04003138005B0D9
:1045B800BDE8F08FEFF3118189F31288D0F808B0C5
:1045C8000368DB0344BFC8F800A0D0F808B023682C
:1045D800D8F80020C9B281F31188316813440CFB64
:1045E80001F2A2EB0B02B2FBF1F20CFB032359E63A
:1045F800EFF3118189F31288D0F808B00368DB0360
:1046080044BFC8F800A0D0F808B02368D8F8002044
:10461800C9B281F31188316813440CFB01F2A2EB93
:104628000B02B2FBF1F20CFB0323D5E5EFF311818A
:1046380089F31288D0F808B00368DB0344BFC8F8D0
:1046480000A0D0F808B02368D8F80020C9B281F3D8
:104658001188316813440CFB01F2A2EB0B02B2FB88
:10466800F1F20CFB03232FE5EFF3118189F3128894
:10467800D0F808B00368DB0344BFC8F800A0D0F83E
:1046880008B02368D8F80020C9B281F311883168CE
:1046980013440CFB01F2A2EB0B02B2FBF1F20CFB90
:1046A8000323ABE4EFF3118189F31288D0F808B043
:1046B8000368DB0344BFC8F800A0D0F808B023683B
:1046C800D8F80020C9B281F31188316813440CFB73
:1046D80001F2A2EB0B02B2FBF1F20CFB032327E47D
:1046E800EFF3118389F31288D0F808C00268D20367
:1046F80004D50122C8F80020D0F808C02568D8F8E9
:1047080000A0DBB283F3118831684FF47A72554404
:1047180002FB01F3A3EB0C03B3FBF1F302FB05353A
:10472800FFF7E5BBEFF3118389F31288D0F808C0CF
:104738000268D20304D50122C8F80020D0F808C0C6
:104748002568D8F800A0DBB283F3118831684FF4EC
:104758007A72554402FB01F3A3EB0C03B3FBF1F3AC
:1047680002FB05357DE5EFF3118389F31288D0F854
:1047780008C00268D20304D50122C8F80020D0F886
:1047880008C02568D8F800A0DBB283F31188316827
:104798004FF47A72554402FB01F3A3EB0C03B3FB0D
:1047A800F1F302FB0535F6E4EFF3118389F3128880
:1047B800D0F808C00268D20304D50122C8F8002046
:1047C800D0F808C02568D8F800A0DBB283F31188B8
:1047D80031684FF47A72554402FB01F3A3EB0C03E2
:1047E800B3FBF1F302FB05354DE4EFF3118389F3D5
:1047F8001288D0F808C00268D20304D50122C8F88C
:104808000020D0F808C02568D8F800A0DBB283F3F0
:10481800118831684FF47A72554402FB01F3A3EB17
:104828000C03B3FBF1F302FB0535FFF7C6BB072505
:10483800134657E5EFF3118189F31288D0F808B0D1
:104848000368DB0344BFC8F800A0D0F808B02368A9
:10485800D8F80020C9B281F31188316813440CFBE1
:1048680001F2A2EB0B02B2FBF1F20CFB03236FE6A1
:10487800EFF3118189F31288D0F808B00368DB03DD
:1048880044BFC8F800A0D0F808B02368D8F80020C2
:10489800C9B281F31188316813440CFB01F2A2EB11
:1048A8000B02B2FBF1F20CFB0323E0E5EFF31181FD
:1048B80089F31288D0F808B00368DB0344BFC8F84E
:1048C80000A0D0F808B02368D8F80020C9B281F356
:1048D8001188316813440CFB01F2A2EB0B02B2FB06
:1048E800F1F20CFB03235AE5EFF3118389F31288E5
:1048F800D0F808C00268D20304D50122C8F8002005
:10490800D0F808C02568D8F800A0DBB283F3118876
:1049180031684FF47A72554402FB01F3A3EB0C03A0
:10492800B3FBF1F302FB053580E5EFF3118389F35F
:104938001288D0F808C00268D20304D50122C8F84A
:104948000020D0F808C02568D8F800A0DBB283F3AF
:10495800118831684FF47A72554402FB01F3A3EBD6
:104968000C03B3FBF1F302FB0535F7E4EFF3118316
:1049780089F31288D0F808C00268D20304D501224E
:10498800C8F80020D0F808C02568D8F800A0DBB225
:1049980083F3118831684FF47A72554402FB01F3AE
:1049A800A3EB0C03B3FBF1F302FB0535AFE5019D67
:1049B800134697E418251346FFF7A2BBFDF748FCFA
:1049C8000446002837D00068A588038A2B407FF466
:1049D8003EAA00F138422349E371920A01238A5C16
:1049E80002F01F0652092021022A03FA06F3A171D8
:1049F80033D0032A2CD0012A25D0002302A9CDE9DF
:104A080002531CF03FFF0099174B41F80C3F20461A
:104A180026F00AFDA388B3FA83F3C3F11F03591CD8
:104A28003FF415AA012202FA03F310490A68134356
:104A38000B60FFF70CBA00990B4B41F80C3F26F0BE
:104A4800F3FC0123F1E70A4A51690B435361D4E7A8
:104A5800074AD1690B43D361CFE7054A91690B43F4
:104A68009361CAE7B0620308AD0900080004014079
:104A78000010024038B583680446154613B11A6819
:104A88009B881385606840F2E93300E07BB30289B4
:104A9800013B12F0020F9BB2F8D0017340F2E933E8
:104AA80000E023B30289013B12F0010F9BB2F8D05A
:104AB800037B606840F2E93300E0DBB10189013B28
:104AC80011F0020F9BB2F8D0057340F2E93300E011
:104AD80083B10289013B12F0010F9BB2F8D0037B2E
:104AE800A36813B11A689B889361012038BDFFF74A
:104AF8006BF9DEE7FFF768F9F2E700BFF0B5836905
:104B080083B0064613B11A689B8813857069DFF86D
:104B1800A0C08389C3244FF47A7306276D464FF6E5
:104B2800FF710CF1010C03E0013B9BB28B421CD0DE
:104B380002899207F8D504734FF47A7302E0A3B29E
:104B48008B4212D00289D20703F1FF34F7D5027BDA
:104B5800D2B20DB12A7001354FB1013FFF24BCF12B
:104B6800000FE5D09CF80040DBE7FFF72DF9B369AB
:104B780013B11A689B8893619DF805009DF8015050
:104B88009DF802109DF803409DF804209DF806301A
:104B980041EA052143EA002342EA04220120A6F85B
:104BA8005010A6F85220A6F8543003B0F0BD00BF4C
:104BB800C4540308F8B50378012B19D0022B1DD172
:104BC800836801F07F0113B11C689B882385044624
:104BD80015464068FFF714F929466068FFF710F991
:104BE800A368002B6ED01A689B8893610120F8BDDA
:104BF80090F904305C1C01D0022B01DD0020F8BDC7
:104C0800444C03EB830304EB83035B68002B6FD0F6
:104C18004579414E6D004FF42040EDB2C6F80C01C5
:104C28009C69270400F1FF3041D45C683B4F45F094
:104C380080703C4040F4903020434FF4204458604A
:104C4800C6F80C4101E0671C54D0986910F00200C6
:104C580004F1FF34F7D04FF420409962C6F80C01F4
:104C6800014601E04F1C1AD0986910F0800001F14C
:104C7800FF31F7D05968294845F00075014045F4DF
:104C880080350D434FF420415D60C6F80C119869DA
:104C980010F0020001F1FF3116D14C1CF7D1204A67
:104CA800C6F80C11138801339BB21380F8BD441C5D
:104CB800B6D11B4AC6F80C01138801339BB2138086
:104CC8000020F8BD0120F8BD4FF420419A62C6F8D3
:104CD8000C110A4602E012F1FF3213D3986910F062
:104CE8002000F8D02021C6F80C21D9610120F8BD98
:104CF8001846F8BD0A4AC6F80C41138801339BB21E
:104D08001380F8BD0649C6F80C210B8801339BB205
:104D18000B80F8BD18440020701C0020009800FC8F
:104D28000E9400200122482144E70122582141E73E
:104D38002DE9F04F89B0039090F86800002840F002
:104D48004886039B93F85C30072B00F038861823BD
:104D5800CDE90433039BC34CC34EDFF81C83C34F18
:104D68001033184680226B210293FFF723FF642338
:104D7800DFF808E3BE4801934FF01009DEF804306D
:104D8800C3F30803002B40F07384EFF31183002B67
:104D980040F06E842568826823689D42FAD13B689A
:104DA8009A42F7D8D6F800C04FF47A7101FB0CF399
:104DB8009B1AB3FBFCF301FB05354FF47A7C4FF0EB
:104DC800010ADEF80430C3F30803002B40F00F8417
:104DD800EFF31183002B40F00A842368816822686E
:104DE8009342FAD13A689142F7D832680CFB02FB39
:104DF800ABEB0101B1FBF2F10CFB03135B1BB3F549
:104E08007A7FDED3019B013B0193B7D1072268214A
:104E18000298DFF86482954FFFF7CCFE6423DFF831
:104E28005CE2934801934FF01009DEF80430C3F3B5
:104E38000803002B40F0FA83EFF31183002B40F0B6
:104E4800F5832568826823689D42FAD13B689A42B7
:104E5800F7D8D6F800C04FF47A7101FB0CF39B1A0F
:104E6800B3FBFCF301FB05354FF47A7C4FF0010AE4
:104E7800DEF80430C3F30803002B40F09A83EFF305
:104E88001183002B40F09583236881682268934240
:104E9800FAD13A689142F7D832680CFB02FBABEBC7
:104EA8000101B1FBF2F10CFB03135B1BB3F57A7F35
:104EB800DED3019B013B0193B7D11A466B210298BF
:104EC800DFF8B481694FFFF775FE6423DFF8ACE1C2
:104ED800674801934FF01009DEF80430C3F3080364
:104EE800002B40F00884EFF31183002B40F003847B
:104EF8002568826823689D42FAD13B689A42F7D8B0
:104F0800D6F800C04FF47A7101FB0CF39B1AB3FB7F
:104F1800FCF301FB05354FF47A7C4FF0010ADEF80B
:104F28000430C3F30803002B40F02583EFF311830B
:104F3800002B40F020832368816822689342FAD1CD
:104F48003A689142F7D832680CFB02FBABEB0101DF
:104F5800B1FBF2F10CFB03135B1BB3F57A7FDED3D5
:104F6800019B013B0193B7D101226B210298DFF825
:104F780008813E4FFFF71EFE0F23DFF800E13C4893
:104F880001934FF01009DEF80430C3F30803002B37
:104F980040F09083EFF31183002B40F08B8325685A
:104FA800826823689D42FAD13B689A42F7D8D6F8BE
:104FB80000C04FF47A7101FB0CF39B1AB3FBFCF3AE
:104FC80001FB05354FF47A7C4FF0010ADEF8043016
:104FD800C3F30803002B40F0B082EFF31183002BDA
:104FE80040F0AB822368816822689342FAD13A681C
:104FF8009142F7D832680CFB02FBABEB0101B1FB25
:10500800F2F10CFB03135B1BB3F57A7FDED3019B34
:10501800013B0193B7D1039ADFED167AD2F85F30DE
:1050280007EE103AB4EEE77AF1EE10FA09DD92F8DD
:105038006630012B049B0CBF43F0010343F00203CD
:1050480004939DF810200298DFF82C80074F1B214D
:10505800FFF7B0FD0F23DFF824E0054801934FF078
:1050680010090DE0985200209C520020A052002008
:1050780010E000E00000FA429452002000ED00E049
:10508800DEF80430C3F30803002B40F07783EFF316
:105098001183002B40F072832568826823689D4243
:1050A800FAD13B689A42F7D8D6F800C04FF47A7123
:1050B80001FB0CF39B1AB3FBFCF301FB05354FF422
:1050C8007A7C4FF0010ADEF80430C3F30803002BA2
:1050D80040F01582EFF31183002B40F01082236813
:1050E800816822689342FAD13A689142F7D83268C7
:1050F8000CFB02FBABEB0101B1FBF2F10CFB031360
:105108005B1BB3F57A7FDED3019B013B0193B7D1DB
:10511800059A0298DFF82483C54F1C21FFF74AFD42
:105128000F23DFF81CE3C34801934FF01009DEF8A2
:105138000430C3F30803002B40F0FF82EFF3118320
:10514800002B40F0FA822568826823689D42FAD1D4
:105158003B689A42F7D8D6F800C04FF47A7101FB41
:105168000CF39B1AB3FBFCF301FB05354FF47A7C77
:105178004FF0010ADEF80430C3F30803002B40F0B7
:10518800A081EFF31183002B40F09B812368816895
:1051980022689342FAD13A689142F7D832680CFBF8
:1051A80002FBABEB0101B1FBF2F10CFB03135B1B40
:1051B800B3F57A7FDED3019B013B0193B7D1039A04
:1051C800DFED9D7AD2F85F3007EE103AB4EEE77A59
:1051D800F1EE10FA00F3F18392F86520012A00F04D
:1051E800EE82A2F10202B2FA82F252091A21029860
:1051F800DFF848828E4FFFF7DDFC0F23DFF840E22F
:105208008C4801934FF01009DEF80430C3F308030B
:10521800002B40F04E83EFF31183002B40F04983BD
:105228002568826823689D42FAD13B689A42F7D87C
:10523800D6F800C04FF47A7101FB0CF39B1AB3FB4C
:10524800FCF301FB05354FF47A7C4FF0010ADEF8D8
:105258000430C3F30803002B40F00D83EFF31183F0
:10526800002B40F008832368816822689342FAD1B2
:105278003A689142F7D832680CFB02FBABEB0101AC
:10528800B1FBF2F10CFB03135B1BB3F57A7FDED3A2
:10529800019B013B0193B7D1039B029893F86720C8
:1052A800DFF89881624F1921FFF784FC6423DFF847
:1052B80090E1604801934FF01009DEF80430C3F321
:1052C8000803002B40F03783EFF31183002B40F0E5
:1052D80032832568826823689D42FAD13B689A42E6
:1052E800F7D8D6F800C04FF47A7101FB0CF39B1A7B
:1052F800B3FBFCF301FB05354FF47A7C4FF0010A50
:10530800DEF80430C3F30803002B40F09682EFF375
:105318001183002B40F091822368816822689342B0
:10532800FAD13A689142F7D832680CFB02FBABEB32
:105338000101B1FBF2F10CFB03135B1BB3F57A7FA0
:10534800DED3019B013B0193B7D11022372102988C
:10535800DFF8E880364FFFF72DFC0F23DFF8E0E099
:10536800344801934FF01009DEF80430C3F3080302
:10537800002B40F0BF82EFF31183002B40F0BA827C
:105388002568826823689D42FAD13B689A42F7D81B
:10539800D6F800C04FF47A7101FB0CF39B1AB3FBEB
:1053A800FCF301FB05354FF47A7C4FF0010ADEF877
:1053B8000430C3F30803002B40F02182EFF311837C
:1053C800002B40F01C822368816822689342FAD13E
:1053D8003A689142F7D832680CFB02FBABEB01014B
:1053E800B1FBF2F10CFB03135B1BB3F57A7FDED341
:1053F800019B013B0193B7D10298DFF840800C4F25
:1054080001223821FFF7D6FB0F23DFF834E00948E3
:1054180001934FF01009DEF80430C3F30803002BA2
:1054280040F0AA82EFF31183002B40F0A58209E037
:10543800A052002010E000E00000FA429452002040
:1054480000ED00E02568826823689D42FAD13B6838
:105458009A42F7D8D6F800C04FF47A7101FB0CF3E2
:105468009B1AB3FBFCF301FB05354FF47A7C4FF034
:10547800010ADEF80430C3F30803002B40F0A181D1
:10548800EFF31183002B40F09C8123688168226828
:105498009342FAD13A689142F7D832680CFB02FB82
:1054A800ABEB0101B1FBF2F10CFB03135B1BB3F592
:1054B8007A7FDED3019B013B0193ACD109B0BDE8F3
:1054C800F08FEFF3118189F31288D0F808B00368E0
:1054D800DB0344BFC8F800A0D0F808B02368D8F8A8
:1054E8000020C9B281F31188316813440CFB01F222
:1054F800A2EB0B02B2FBF1F20CFB032357E6EFF32E
:10550800118189F31288D0F808B00368DB0344BF1F
:10551800C8F800A0D0F808B02368D8F80020C9B2AD
:1055280081F31188316813440CFB01F2A2EB0B02E2
:10553800B2FBF1F20CFB0323E2E5EFF3118189F3EF
:105548001288D0F808B00368DB0344BFC8F800A08D
:10555800D0F808B02368D8F80020C9B281F31188C0
:10556800316813440CFB01F2A2EB0B02B2FBF1F21F
:105578000CFB032347E5EFF3118189F31288D0F878
:1055880008B00368DB0344BFC8F800A0D0F808B02F
:105598002368D8F80020C9B281F311883168134410
:1055A8000CFB01F2A2EB0B02B2FBF1F20CFB0323A2
:1055B800D2E4EFF3118189F31288D0F808B00368B8
:1055C800DB0344BFC8F800A0D0F808B02368D8F8B7
:1055D8000020C9B281F31188316813440CFB01F231
:1055E800A2EB0B02B2FBF1F20CFB03235DE4EFF339
:1055F800118189F31288D0F808B00368DB0344BF2F
:10560800C8F800A0D0F808B02368D8F80020C9B2BC
:1056180081F31188316813440CFB01F2A2EB0B02F1
:10562800B2FBF1F20CFB0323FFF7E8BBEFF31183A6
:1056380089F31288D0F808C00268D20304D5012281
:10564800C8F80020D0F808C02568D8F800A0DBB258
:1056580083F3118831684FF47A72554402FB01F3E1
:10566800A3EB0C03B3FBF1F302FB0535FFF7FCBB1F
:10567800EFF3118389F31288D0F808C00268D203C7
:1056880004D50122C8F80020D0F808C02568D8F849
:1056980000A0DBB283F3118831684FF47A72554465
:1056A80002FB01F3A3EB0C03B3FBF1F302FB05359B
:1056B800FFF783BBEFF3118389F31288D0F808C092
:1056C8000268D20304D50122C8F80020D0F808C027
:1056D8002568D8F800A0DBB283F3118831684FF44D
:1056E8007A72554402FB01F3A3EB0C03B3FBF1F30D
:1056F80002FB053566E4EFF3118389F31288D0F8CD
:1057080008C00268D20304D50122C8F80020D0F8E6
:1057180008C02568D8F800A0DBB283F31188316887
:105728004FF47A72554402FB01F3A3EB0C03B3FB6D
:10573800F1F302FB0535FFF7EEBBEFF3118389F3B5
:105748001288D0F808C00268D20304D50122C8F82C
:105758000020D0F808C02568D8F800A0DBB283F391
:10576800118831684FF47A72554402FB01F3A3EBB8
:105778000C03B3FBF1F302FB0535F7E4EFF31183F8
:1057880089F31288D0F808C00268D20304D5012230
:10579800C8F80020D0F808C02568D8F800A0DBB207
:1057A80083F3118831684FF47A72554402FB01F390
:1057B800A3EB0C03B3FBF1F302FB05357FE40722EF
:1057C80014E5EFF3118189F31288D0F808B0036863
:1057D800DB0344BFC8F800A0D0F808B02368D8F8A5
:1057E8000020C9B281F31188316813440CFB01F21F
:1057F800A2EB0B02B2FBF1F20CFB032356E6EFF32C
:10580800118189F31288D0F808B00368DB0344BF1C
:10581800C8F800A0D0F808B02368D8F80020C9B2AA
:1058280081F31188316813440CFB01F2A2EB0B02DF
:10583800B2FBF1F20CFB0323D6E5EFF3118189F3F8
:105848001288D0F808B00368DB0344BFC8F800A08A
:10585800D0F808B02368D8F80020C9B281F31188BD
:10586800316813440CFB01F2A2EB0B02B2FBF1F21C
:105878000CFB032361E5EFF3118189F31288D0F85B
:1058880008B00368DB0344BFC8F800A0D0F808B02C
:105898002368D8F80020C9B281F31188316813440D
:1058A8000CFB01F2A2EB0B02B2FBF1F20CFB03239F
:1058B800EAE4EFF3118389F31288D0F808C002688C
:1058C800D20304D50122C8F80020D0F808C0256802
:1058D800D8F800A0DBB283F3118831684FF47A72EC
:1058E800554402FB01F3A3EB0C03B3FBF1F302FBFA
:1058F8000535A8E4EFF3118389F31288D0F808C0BE
:105908000268D20304D50122C8F80020D0F808C0E4
:105918002568D8F800A0DBB283F3118831684FF40A
:105928007A72554402FB01F3A3EB0C03B3FBF1F3CA
:1059380002FB053537E5EFF3118389F31288D0F8B8
:1059480008C00268D20304D50122C8F80020D0F8A4
:1059580008C02568D8F800A0DBB283F31188316845
:105968004FF47A72554402FB01F3A3EB0C03B3FB2B
:10597800F1F302FB0535BFE4EFF3118389F31288D5
:10598800D0F808C00268D20304D50122C8F8002064
:10599800D0F808C02568D8F800A0DBB283F31188D6
:1059A80031684FF47A72554402FB01F3A3EB0C0300
:1059B800B3FBF1F302FB053557E5019A16E4039BA7
:1059C80093F86430002B41D11023CDE90433FFF75D
:1059D800C1B9FCF73DFC044600283DD00068A58805
:1059E800038A2B407FF4ADA900F138422649E371C0
:1059F800920A01238A5C02F01F0652092021022A1A
:105A080003FA06F3A17139D0032A32D0012A2BD028
:105A1800002306A9CDE906531BF034FF03991B4B5D
:105A280041F80C3F204625F0FFFCA388B3FA83F326
:105A3800C3F11F03581C3FF484A9012202FA03F39F
:105A480013490A6813430B60FFF77BB91823102129
:105A5800CDE90431FFF77EB903990C4B41F80C3FAF
:105A680025F0E2FC0123EBE70A4A51690B43536135
:105A7800CEE7084AD1690B43D361C9E7054A916962
:105A88000B439361C4E700BFB0620308AD09000887
:105A980000040140001002402DE9F04F83B001904E
:105AA8004269138823F040031B041B0C13801388DE
:105AB8009BB223F0380343F030031380138843F07C
:105AC80040031380FDF70EFB0446FDF70BFB8442F1
