:020000040800F2
:10000000F0FF012001580408B11B03083DB70008A8
:100010007558040875580408755804080000000055
:10002000000000000000000000000000BD1B0308ED
:10003000B91B030800000000B51B030841B000080D
:10004000755804087558040875580408755804084C
:10005000755804087558040875580408755804083C
:100060007558040875580408755804088DFB000875
:100070007DFB00086DFB00085DFB000849FB0008E4
:1000800035FB000821FB000875580408000000003B
:100090000000000000000000000000007558040887
:1000A00075580408B99F00087558040879A000081D
:1000B000F99E0008399E00086D9D0008190201088C
:1000C000210201080D0201081502010875580408F3
:1000D00075580408B9B100081DB1000800000000FF
:1000E00075580408755804088D5F03080000000067
:1000F0000000000000000000000000000DFB0008F0
:100100000000000075580408755804087558040864
:1001100000000000000000000000000000000000DF
:10012000F9FA0008E5FA0008D1FA0008BDFA00085B
:10013000A9FA000800000000000000000000000014
:10014000000000000000000000000000312A030849
:1001500095FA000881FA00086DFA000881B00008DD
:10016000010201080902010800000000000000006F
:10017000000000000000000000000000000000007F
:100180000000000075580408000000000000000096
:080190007558040875580408B5
:0801980098530400010000006F
:1001A0000202030000280020FC27002000000000BD
:1001B00000000000100201000C2800200828002088
:1001C00000000000C80600081A023C00BB26002000
:1001D00010280020000000002190000827000400E3
:1001E000502800204C28002000000000CA0600080B
:1001F000F8210600362D0020E43700200000000022
:10020000CE06000803123300343700206737002081
:1002100000000000D406000825009600E835002004
:100220007E36002000000000000000001500700075
:100230009034002000350020000000000000000085
:100240002A006000D033002030340020000000007D
:100250002D6003082C0010001437002024370020E4
:1002600000000000411F01082B002400BE370020C1
:100270009A37002000000000111F010829107800A3
:100280004E2D00207035002000000000000000000E
:1002900023001000B42C0020EC37002000000000E8
:1002A0002503010828101000E0310020403800200C
:1002B000000000000D03010814000300CC310020F1
:1002C000CD330020000000000807000818020200DB
:1002D000C840002044410020000000000000000051
:1002E00017020B00BD400020484100200000000024
:1002F00099860008070202000041002054410020B6
:10030000000000000C07000802000C00D84000208C
:1003100058410020000000000000000006020C0010
:10032000CA40002064410020000000004D8F0008FA
:1003300008120900B44000207041002000000000B5
:10034000DD860008F7010600AE4000207C41002059
:10035000000000000E0700080A020A0068390020A9
:100360008441002000000000140700080300010081
:10037000C43A00209041002000000000000000006E
:1003800010100300003A00209441002000000000FB
:100390001E07000816000800B8440020C0440020D2
:1003A00000000000220700080E502C01AA53002074
:1003B000D45B00200000000049620308090201002C
:1003C0008C5B0020005D0020000000002A07000870
:1003D0000C10140120550020045D002000000000D6
:1003E00069A501080002050018590020185E0020C8
:1003F00000000000000000001B020800F45800206C
:10040000205E0020000000008D860008012008000A
:10041000705A0020285E0020000000002C07000811
:1004200019000500FC5A0020305E0020000000008A
:100430003407000837001E00D45A0020385E002020
:10044000000000003A0700081E000500D0560020FA
:10045000585E002000000000580700081B00F40050
:10046000D8440020605E002000000000619B02086C
:100470000E020200085A0020545F00200000000015
:100480005E0700082F001100B55B0020585F0020B8
:10049000000000006007000805100600CC74002072
:1004A000B8790020000000007207000826000E0046
:1004B000D0790020C079002000000000A90E0308B8
:1004C0001F201C000C6A0020047A0020000000009D
:1004D000780700080502040064740020207A0020D8
:1004E000000000009407000803010A007472002055
:1004F000247A00200000000098070008130203007F
:1005000098680020307A002000000000A207000850
:100510001A000E00247E0020D07F00200000000082
:10052000A607000804008000F4DF0020ACE00020F3
:1005300000000000000000000D00240078DE002014
:100540002CE1002000000000C12602081300040076
:100550005CD5002050E1002000000000B407000836
:10056000F6210C0060D5002054E1002000000000BE
:10057000B807000812200D00F0D4002060E1002030
:1005800000000000C4070008F531700080D400208E
:1005900070E1002000000000C99402080B20100048
:1005A00070D40020E0E1002000000000D207000825
:1005B000010104006CD40020F0E1002000000000E4
:1005C000000000000001040068D40020F4E10020D5
:1005D00000000000E20700080201030064D40020CC
:1005E000F8E1002000000000F1A50108F901040075
:1005F00050D40020FCE1002000000000F981000838
:10060000FD011E0030D4002000E2002000000000A8
:100610008181000818202C0000D4002020E2002056
:1006200000000000C5930008061018004CC7002009
:100630004CE2002000000000AD620308FB01010055
:1006400084C6002064E2002000000000A1A400088D
:10065000FC01090050C5002068E2002000000000F5
:10066000B1A400080A402600F0AF002074E2002088
:1006700000000000E60700083400100078C40020E5
:100680009CE20020000000008162030811020800C3
:1006900050C40020ACE20020000000000C0800085C
:1006A0001212040048C40020B4E200200000000040
:1006B00014080008FE010900ACB20020B8E20020D6
:0806C00000000000ED860008B7
:1006C8000000200300000200F401190000000000EF
:1006D8000000000000000000000000000000000012
:1006E8000000000000000000000000000000000002
:1006F80000000000000000000000000000000100F1
:1007080003000000013C4C000100D00700004A0132
:10071800B400D601000000050000651B0D0019019A
:1007280028282800E8036400040A000100002801C2
:10073800000020003200C800D007960014003200E4
:100748002800B00440060005500014000F000801FE
:100758000000010000000000000000000000000090
:10076800000000000000000000002000030100005D
:100778000000000000010000000500000102030065
:100788000000000000000000000000000000000061
:10079800040101006C1600000000000000007E0546
:1007A800EA05B4053200E803D0070000080000306D
:1007B800000000000100000002020000000000012B
:1007C800000005533431310000002B21231E640141
:1007D8000100000001000A0129009001000000301A
:1007E80003000000000000005A00000000000000A4
:1007F80000000000020200019E077D0046329001C1
:10080800200000000000000001010101FFFFFFFFC0
:100818008001000008000000040000000000000043
:10082800000000000102030406070809D6010100C0
:10083800000101010001FFFFFFFFFFFF01000000B1
:100848000000000034410020080000000000000003
:100858002441002008000000FF00000050A6040802
:10086800050804000000000084B1040844B204082C
:1008780070B1040800000000000000007CA6040815
:1008880005080A000000000084B1040844B2040806
:1008980054B004080000000000000000010102FF3D
:1008A800FF0000006D08030811060308192103085A
:1008B800000000000D030308E91D0308D907030819
:1008C800611D03080000000000000000C9020308C1
:1008D800DD070308D10503085920030800000000BC
:1008E800E1020308651D0308AD070308C11C0308DE
:1008F8000000000000000000D5020308000001010C
:1009080001010000458E0208000000006802002076
:10091800900B050800000000000000000000000027
:100928000000000048010508000000000000000069
:1009380022030020040000003C0B05080D00000005
:1009480099B90208981C002000000000F00405086E
:100958000D000000C1B902088C1C00200000000036
:10096800580605080800000000000000801C002050
:10097800040000005C0505080D000000F98E02085F
:10098800741C0020000000000C060508030000008D
:1009980089BC0208681C002000000000A00B0508A4
:1009A8000300000089BC02085C1C00200000000055
:1009B8009001050801000000000000000000000090
:1009C80000000000000000000E0000000000000011
:1009D8000000000000000000900B05080000000067
:1009E80000000000000000000000000048010508A9
:1009F80000000000000000002203002004000000A6
:100A0800E80A050803000000B9950208501C0020F8
:100A1800080000005C0505080D000000F98E0208BA
:100A2800741C0020000000000C06050803000000EC
:100A380089BC0208681C002000000000A00B050803
:100A48000300000089BC02085C1C002000000000B4
:100A580090010508010000000000000000000000EF
:100A680000000000000000000E0000000000000070
:100A78000000000000000000A80B050800000000AE
:100A88000000000000000000000000004801050808
:100A98000000000000000000220300200400000005
:100AA800F00A05080300000089BC0208A41C002005
:100AB800000000009001050801000000000000008F
:100AC8000000000000000000000000000E00000010
:100AD800000000000000000000000000207000205E
:100AE800702D7200FFFFFFFF010000000000803F33
:100AF80000000000000000000C180020FA000000B0
:100B080001000000010000000000803F000000001C
:100B180000000000000000000000000000000000CD
:100B280000000000000000000000000000000000BD
:100B3800FFFF2D202D2D202D2D2D2D202D2D2D008D
:100B4800000000000000000000000000000000009D
:100B5800000000000000803F0000803FFFFFFFFF13
:100B6800640105086C0105088801050800000000FB
:100B78000000000000000000000000003AFF040828
:100B88000400000061B70208000000000000000037
:100B980090010508010000000000000000000000AE
:100BA80000000000000000000E000000000000002F
:100BB800000000000000000094E000200100C409CB
:100BC8000000000092E000200100C40900000000BD
:100BD80090E000200100C409000000008EE0002021
:100BE8000100C409000000008AE000200100C409D7
:100BF800000000008CE000200100C4090000000093
:100C080088E000200100C4090000000086E0002000
:100C18000100C40900000000405300200100C80082
:100C2800010000003E530020320030753200000001
:100C38003C530020055A05003953002000FF0100ED
:100C48003B530020010000005003002037530020D0
:100C58000200000070B204083853002000FF0100B1
:100C68003A530020010000005003002036530020B2
:100C78000200000070B204083453002080C1803E96
:100C8800050000003253002080C1803E05000000AE
:100C98003053002080C1803E050000002E53002004
:100CA80080C1803E050000002D53002000FF010098
:100CB8002C5300200A3201002B53002004000000AE
:100CC80034B004082A5300200200000048B0040889
:100CD80000000000000000005803002010740020ED
:100CE8009CFF2C0100000000EF0000200A0000001B
:100CF80054B0040820530020E0150C170000000031
:100D0800F10000200800000044B20408F0000020B0
:100D18000500000084B104082253002002000000EE
:100D28006CB00408525600200100FF7F010000004B
:100D3800515600200200000078B00408E454002056
:100D48000300400001000000E25400200000803E43
:100D580001000000E05400200000F4010100000040
:100D6800DE5400200000F40101000000DC540020E3
:100D78000000F40101000000DA5400200000F40132
:100D880001000000D85400200000803E010000004F
:100D9800D65400200000803E0100000000550020CD
:100DA800E803D0070A000000FE5400200064010098
:100DB8000A000000F354002000640100F2540020EF
:100DC80000640100FA540020006401000A000000D9
:100DD800F9540020006401000A000000F8540020C3
:100DE800006401000A000000FD54002000640100B6
:100DF8000A000000FC540020006401000A00000002
:100E0800FB540020006401000A000000F754002091
:100E180000FF01000A000000F654002000FF010056
:100E28000A000000F554002000FF01000A0000003D
:100E3800A65300200000F40101000000A453002084
:100E48000000F40101000000A25300200000F4019A
:100E580001000000A05300200000F4010100000080
:100E68009E5300200000F40101000000F05400200F
:100E780000640100EE5400201400E80301000000A3
:100E8800EC540020E80330750A000000EA54002002
:100E980000C80100E954002000C80100E8540020FF
:100EA80000C80100E7540020006401000A000000A7
:100EB8003756002001C8010036560020010A0100FB
:100EC800465600200000D0070100000040560020D0
:100ED80000C801003F56002000C801003E5600200F
:100EE80000C80100445600200000D007010000009F
:100EF8003D56002000C801003C56002000C80100F3
:100F08003B56002000C80100425600200000D007D0
:100F1800010000003A56002000C8010039560020A0
:100F280000C801003856002000C8010035560020CE
:100F38000100000088B00408B8010508000000009E
:100F4800000000000000000000000000ECCB0408D6
:100F58000900000000000000FC030020040000005D
:100F6800F4CB04080900000000000000F003002092
:100F7800040000000C09050809000000000000003A
:100F8800E403002004000000340005080900000004
:100F980000000000D803002004000000C801050874
:100FA8000900000000000000CC030020040000003D
:100FB800D00105080900000000000000C00300205F
:100FC80004000000D8010508090000000000000026
:100FD800B403002004000000E00105080900000037
:100FE80000000000A803002004000000900105088C
:100FF80001000000000000000000000000000000E8
:10100800000000000E0000000000000000000000CA
:1010180000000000E40305080000000000000000D4
:101028000000000000000000ACEA0408070000000F
:10103800000000002004002000000000F403050860
:101048000800000000000000140400200000000058
:101058000004050808000000000000000804002043
:1010680000000000900105080100000000000000D9
:101078000000000000000000000000000E0000005A
:10108800000000000000000000000000080405083F
:101098000000000000000000000000000000000048
:1010A800180405080D000000000000005C04002082
:1010B80000000000200405080D00000000000000EA
:1010C8005004002000000000280405080700000064
:1010D800000000004804002000000000300405085B
:1010E8000D000000000000003C040020000000008B
:1010F800380405080D00000000000000300400203E
:10110800000000004004050807000000000000007F
:1011180028040020000000009001050801000000DC
:1011280000000000000000000000000000000000B7
:101138000E00000000000000000000000000000099
:10114800480405080000000000000000000000003E
:1011580000000000ACEA04080C00000000000000D9
:1011680042530020000000005C0405080C00000049
:101178000000000044530020000000006C04050833
:101188000C000000000000007A530020000000005E
:101198007C0405080C000000000000006E530020CD
:1011A80000000000900405080C000000000000008A
:1011B800465300200000000018FC04080C00000042
:1011C8000000000048530020000000009C040508AF
:1011D8000C000000000000004A530020000000003E
:1011E800B00405080C000000000000004C5300206B
:1011F80000000000B80405080C0000000000000012
:101208004E53002000000000C00405080C00000038
:10121800000000008C53002000000000D8040508DE
:101228000C000000000000005053002000000000E7
:10123800E40405080C0000000000000052530020E0
:1012480000000000FCCB04080C00000000000000B7
:101258005453002000000000EC0405080C000000B6
:10126800000000005653002000000000F8040508A4
:101278000C0000000000000058530020000000008F
:10128800040505080C000000000000005A53002067
:1012980000000000100505080C0000000000000018
:1012A8005C530020000000001C0505080C0000002D
:1012B800000000005E53002000000000280505081B
:1012C8000C00000000000000725300200000000025
:1012D800300505080C0000000000000070530020D5
:1012E80000000000380505080C00000000000000A0
:1012F8007E53002000000000440505080C00000093
:101308000000000080530020000000005005050880
:101318000C000000000000008653002000000000C0
:10132800840205080C000000000000006053002043
:10133800000000005C0505080C000000000000002B
:101348006853002000000000640505080C00000038
:10135800000000006253002000000000700505082E
:101368000C00000000000000645300200000000092
:101378007C0505080C0000000000000066530020F2
:1013880000000000840505080C00000000000000B3
:101398006A53002000000000CCEA04080C0000009A
:1013A80000000000745300200000000090050508AC
:1013B8000C000000000000006C530020000000003A
:1013C800D30005080C000000000000007C5300203A
:1013D800000000009C0505080C000000000000004B
:1013E8007653002000000000A40505080C0000004A
:1013F800000000007853002000000000AC0505083C
:101408000C000000000000008253002000000000D3
:10141800B40505080C0000000000000084530020FB
:1014280000000000BC0505080C00000000000000DA
:1014380096530020000000009001050801000000FC
:101448000000000000000000000000000000000094
:101458000E00000000000000000000000000000076
:10146800C40505080000000000000000000000009E
:1014780000000000D00505080D0000000000000075
:10148800B404002000000000D80505080D00000085
:1014980000000000A804002000000000E005050886
:1014A8000700000000000000A00400200000000069
:1014B800EC05050807000000000000009804002063
:1014C80000000000F8050508090000000000000001
:1014D8008C04002000000000040605080900000034
:1014E800000000008004002000000000100605082D
:1014F8000900000000000000740400200000000043
:10150800200605080900000000000000680400200B
:101518000000000090010508010000000000000024
:101528000000000000000000000000000E000000A5
:10153800000000000000000000000000340605085C
:101548000000000000000000000000000000000093
:101558004406050805000000000000009D53002017
:1015680000000000900105080100000000000000D4
:101578000000000000000000000000000E00000055
:101588000000000000000000000000004C060508F4
:101598000000000000000000000000000000000043
:1015A800480105080000000000000000201E00207F
:1015B80004000000300005080D000000C5B702084F
:1015C80008050020000000003C0B05080D00000085
:1015D800FD8D0208FC04002000000000F00405084E
:1015E8000D000000E18D0208F0040020000000005A
:1015F800580605080800000000000000E404002068
:10160800040000005C0505080D000000298D020893
:10161800D80400200000000060060508090000004A
:1016280000000000CC040020040000000C0605089F
:101638000300000089BC0208C0040020000000006C
:1016480090010508010000000000000000000000F3
:1016580000000000000000000E0000000000000074
:1016680000000000000000006806050800000000F7
:1016780000000000000000000000000078060508D7
:101688000D00000000000000200500200000000000
:10169800800605080A000000000000007E560020B1
:1016A800000000008C0605080A0000000000000089
:1016B8008656002000000000940605080A00000075
:1016C800000000008E560020000000009C0605085F
:1016D80008000000000000001405002000000000C1
:1016E8009001050801000000000000000000000053
:1016F80000000000000000000E00000000000000D4
:101708000000000000000000A4060508000000001A
:10171800000000000000000000000000B8060508F6
:101728000800000000000000800500200000000004
:10173800C406050808000000000000007405002029
:1017480000000000D00605080800000000000000A6
:101758006805002000000000DC06050808000000FD
:10176800000000005C05002000000000E8060508F5
:1017780008000000000000005005002000000000E4
:10178800F4060508080000000000000044050020D9
:101798000000000000070508080000000000000025
:1017A80038050020000000000C07050808000000AC
:1017B800000000002C050020000000009001050832
:1017C8000100000000000000000000000000000010
:1017D800000000000E0000000000000000000000F3
:1017E80000000000180705080000000000000000C5
:1017F800CF02002000000000240705080B000000AD
:101808000000000014060020000000003007050852
:101818000B00000000000000080600200000000087
:101828003C0705080B00000000000000FC05002034
:1018380000000000480705080B0000000000000039
:10184800F005002000000000540705080B00000008
:1018580000000000E4050020000000006007050803
:101868000B00000000000000D80500200000000068
:101878006C0705080B00000000000000CC050020E4
:1018880000000000780705080B00000000000000B9
:10189800C005002000000000840705080B000000B8
:1018A80000000000B40500200000000090070508B3
:1018B8000700000000000000AC0500200000000048
:1018C800980705080700000000000000A405002094
:1018D80000000000A40705080B000000000000003D
:1018E8009805002000000000B00705080800000067
:1018F800000000008C050020000000009001050891
:1019080001000000000000000000000000000000CE
:10191800000000000E0000000000000000000000B1
:1019280000000000BC0705080000000000000000DF
:101938000000000000000000D007050808000000B3
:10194800000000005006002000000000DC07050829
:10195800080000000000000044060020000000000D
:10196800E80705080800000000000000380600200D
:1019780000000000F407050808000000000000004F
:101988002C060020000000000008050808000000E0
:10199800000000002006002000000000900105085B
:1019A800010000000000000000000000000000002E
:1019B800000000000E000000000000000000000011
:1019C80000000000080805080000000000000000F2
:1019D800CC02002000000000180805080B000000D9
:1019E80000000000940600200000000024080508FC
:1019F80007000000000000008C0600200000000026
:101A080030080508070000000000000084060020D8
:101A1800000000003C080508070000000000000066
:101A28007C060020000000004808050808000000A7
:101A380000000000700600200000000050080508A3
:101A480008000000000000006406002000000000FC
:101A58005808050807000000000000005C06002088
:101A680000000000900105080100000000000000CF
:101A78000000000000000000000000000E00000050
:101A880000000000000000000000000064080508D5
:101A98000000000000000000CC0200200000000050
:101AA800700805080D000000000000001C07002059
:101AB800000000007C080508070000000000000086
:101AC8001407002000000000840805080700000033
:101AD800000000000C070020000000008C0805082A
:101AE80007000000000000000407002000000000BC
:101AF800940805080800000000000000F80600200F
:101B0800000000009C080508070000000000000015
:101B1800F006002000000000A408050807000000E7
:101B280000000000E806002000000000AC080508DE
:101B38000700000000000000E00600200000000090
:101B4800B40805080800000000000000D4060020C2
:101B580000000000BC0805080700000000000000A5
:101B6800CC06002000000000C4080508070000009B
:101B780000000000C406002000000000CC08050892
:101B88000700000000000000BC0600200000000064
:101B9800D40805080800000000000000B006002076
:101BA80000000000DC080508070000000000000035
:101BB800A806002000000000E4080508070000004F
:101BC80000000000A00600200000000090010508A9
:101BD80001000000000000000000000000000000FC
:101BE800F00805080200000039BB020801000000E7
:101BF80000000000000000000E00000000000000CF
:101C08000000000000000000000000003D910208F4
:101C1800280700209B5300202C00000090B00408E7
:101C28009A53002000C8010098530020E803D00709
:101C38000100000053544D33324634313144495386
:101C4800434F564552590000859002085D9002089E
:101C58000408002019900208CD8F02087C08002093
:101C6800C5900208AD90020830090020718F020863
:101C78001D8F0208500C002053910208E9B9020890
:101C88002C0D0020698D0208000000007C0D00204A
:101C9800FD95020819940208580E0020299202089E
:101CA800E9910208F80E0020CD9202081593020867
:101CB800D40F0020F154002001060100AD91020864
:101CC80079910208141100206992020819BA0208D1
:101CD800B41100204193020879BA02087C1200204E
:101CE800E654002001030100FC080508000000007C
:101CF80000000000000000000000000008090508BE
:101D08000800000000000000181400200000000077
:101D1800100905080700000000000000101400204A
:101D280000000000200905080D0000000000000068
:101D380004140020000000002C090508030000001E
:101D480089BC0208F8130020000000009001050873
:101D5800010000000000000000000000000000007A
:101D6800000000000E00000000000000000000005D
:101D78000000000034090508000000000000000011
:101D88000000000000000000440905080A000000E7
:101D9800000000004C09050800000000540905086F
:101DA8000A00000000000000E9BE0408000000006E
:101DB8005C0905080A0000000000000048560020E1
:101DC80000000000640905080A0000000000000087
:101DD8002414002000000000900105080100000004
:101DE80000000000000000000000000000000000EB
:101DF8000E000000000000000000000000000000CD
:101E08006C09050800000000000000000000000048
:101E180000000000780905080300000089BC0208DA
:101E28005014002000000000840905080300000089
:101E380089BC020844140020000000008C09050831
:101E48000300000089BC02083814002000000000CC
:101E580090010508010000000000000000000000DB
:101E680000000000000000000E000000000000005C
:101E780000000000000000009409050800000000B0
:101E8800000000000000000000000000A8FC04089A
:101E98000300000089BC0208801400200000000034
:101EA800A80905080300000089BC0208F400002006
:101EB80000000000B00905080300000089BC020802
:101EC8007414002000000000B80905080300000091
:101ED80089BC020868140020000000005C050508A1
:101EE8000300000089BC02085C1400200000000008
:101EF800900105080100000000000000000000003B
:101F080000000000000000000E00000000000000BB
:101F18000000000000000000C409050800000000DF
:101F2800000000000000000000000000D4090508BF
:101F380007000000F1BA0208D014002000000000D9
:101F4800800505080300000089BC0208C4140020AD
:101F580000000000E00905080300000089BC020831
:101F6800B814002000000000E8090508030000007C
:101F780089BC0208AC14002000000000F009050824
:101F880007000000D5BA0208A414002000000000D1
:101F9800D40D05080300000089BC0208981400202D
:101FA80000000000FC0905080300000089BC0208C5
:101FB8008C140020000000009001050801000000BA
:101FC8000000000000000000000000000000000009
:101FD8000E000000000000000000000000000000EB
:101FE8000D910208DD900208D8140020E59302083C
:101FF8000000000064150020C98F0208C58F020880
:10200800F015002000000000000000006816002005
:10201800B593020815BB020808170020080A05082E
:1020280000000000000000000000000000000000A8
:10203800E0CF04080300000089BC02080018002053
:1020480000000000140A05080300000089BC02080B
:10205800F417002000000000C4EB0408030000008F
:1020680089BC0208E817002000000000200A0508C3
:102078000300000089BC0208DC17002000000000F3
:102088002C0A05080300000089BC0208D0170020AC
:1020980000000000340A05080200000039BB0208ED
:1020A8000000000000000000F00805080200000021
:1020B80039BB020801000000000000003C0A0508C6
:1020C8000200000039BB0208020000000000000006
:1020D800000000000E0000000000000000000000EA
:1020E800000000002653002088136F17010000002D
:1020F8002853002088136F1700000000480A0508BD
:1021080000000000000000000000000000000000C7
:10211800580A05080800000000000000E018002028
:1021280004000000640A0508080000000000000020
:10213800D4180020000000000C0605080400000068
:10214800EDB702080000000000000000900105083B
:102158000100000000000000000000000000000076
:10216800000000000E000000000000000000000059
:10217800000000002453002088136F17010000009E
:102188005074002088136F1700000000AD8E0208FD
:1021980000000000EC180020915900200100000008
:1021A80044B10408527400200100000050B1040832
:1021B800487400200200000058B104085E6A00203C
:1021C80000000000000000005C6A00200000000021
:1021D800000000005A6A0020000000000000000013
:1021E800586A00200000000000000000566A002025
:1021F8000000000000000000546A002000000000F9
:1022080000000000581E0020000000000000000030
:10221800235300200200000064B10408A00A050846
:1022280000000000000000000000000000000000A6
:10223800580A050808000000000000007019002076
:1022480004000000640A05080800000000000000FF
:1022580064190020000000000C06050804000000B6
:102268007D8E0208000000000000000090010508B3
:102278000100000000000000000000000000000055
:10228800000000000E000000000000000000000038
:1022980000000000B00A050800000000000000006F
:1022A8000000000000000000C00A05080D00000042
:1022B8003DB90208A019002004000000CC0A050856
:1022C8000D000000D58E02089419002004000000BB
:1022D800D80A05080D00000001B902088819002075
:1022E80000000000E40A050803000000D995020870
:1022F8007C19002008000000F00A0508030000000F
:1023080089BC0208A41C00200000000090010508F8
:1023180001000000000000000000000000000000B4
:10232800000000000E000000000000000000000097
:1023380000000000880105080000000000000000FF
:1023480000000000000000003AFF0408040000003C
:1023580005B8020800000000000000009001050810
:102368000100000000000000000000000000000064
:10237800000000000E000000000000000000000047
:1023880000000000440B05080000000000000000E9
:10239800000000000000000020F604080D00000006
:1023A80000000000001A002004000000540B05087B
:1023B8000800000000000000F419002004000000DC
:1023C800600B05080800000000000000E819002064
:1023D80004000000680B0508080000000000000069
:1023E800DC19002004000000700B0508080000003C
:1023F80000000000D019002004000000780B050838
:102408000800000000000000C419002004000000BB
:10241800800B05080800000000000000B819002023
:1024280004000000880B05080800000000000000F8
:10243800AC1900200400000090010508010000000C
:102448000000000000000000000000000000000084
:102458000E00000000000000000000000000000066
:10246800958E0208000000000C1A002000000000F1
:1024780000000000841A0020000000000000000096
:10248800241B00204E7400200400000070B10408D2
:102498004C740020E0150C17000000004B7400205D
:1024A8000800000044B204084A7400200500000037
:1024B80084B104080000000000000000741B002024
:1024C8000403090412010002EF020140830456329A
:1024D8000002010203010000120100020202004092
:1024E800830440570002010203010000090264004E
:1024F800030100C0320904000001030000000921A3
:10250800110100012226000705830308000A080BB1
:102518000102020201000904010001020201000592
:1025280024001001052401000204240202052406E7
:102538000102070582030800FF09040200020A00DD
:102548000000070501024000000705810240000065
:1025580009024300020100C032090400000102021E
:1025680001000524001001052401000104240202D1
:102578000524060001070582030800FF090401007D
:10258800020A000000070501024000000705810259
:1025980040000000FF00000000FFFF0000000000F6
:1025A800AA5505010000010005010905A101A100C6
:1025B800050109300931093209330935093409405F
:1025C80009381581257F750895088102C0C000006B
:1025D80009022200010100E03209040000010301A0
:1025E80002000921110100012226000705830308C2
:1025F800000A0000000000000102030401020304B5
:1026080006070809F91E0308FD1D03083D210308F4
:10261800490303088D0603085903030875030308D3
:102628002103030811030308000000000000000054
:102638002D202D2D202D2D2D2D202D2D2D2D000043
:10264800000000000000000000000000000000AAD8
:10265800550B010000AA5507010000AA5509020000
:102668000000000001000000C012AA5503009F00EE
:10267800FF1FFF1F01000000E0790020000000009C
:10268800C023002004000000F8EA0408600E0508D2
:102698000000000005A60108A08601000400000053
:1026A8000000000000000000000000000000000022
:1026B800000000000000000000000000F8EA040824
:1026C800780F0508000000001D800008E8030000DE
:1026D80004000000000000000000000000000000EE
:1026E80000000000000000000000000000000000E2
:1026F8008005050808CC040800000000DDEE01088C
:102708007D0000000600000000000000000000003E
:1027180000000000000000000000000000000000B1
:102728000000000050EA040800000000000000005B
:10273800CDF20008E80300000300000000000000DC
:102748000000000000000000000000000000000081
:102758000000000000000000800F050800000000D5
:10276800000000004D6B0308C409000005000000CC
:102778000000000000000000000000000000000051
:10278800000000000000000000000000CC0B05085D
:10279800000000000D1C010809CA00086A180000A2
:1027A800050000000000000000000000000000001C
:1027B8000000000000000000000000000000000011
:1027C800B8EC0408000000000000000019E8000848
:1027D80010270000010000000000000000000000B9
:1027E80000000000000000000000000000000000E1
:1027F800000000008C0F0508000000000000000029
:1028080021800008E8030000050000000000000027
:1028180000000000000000000000000000000000B0
:102828000000000000000000980F050800000000EC
:102838000000000091B80108204E000003000000CD
:102848000000000000000000000000000000000080
:10285800000000000000000000000000A80F0508AC
:1028680000000000000000007DB60108204E0000B6
:10287800030000000000000000000000000000004D
:102888000000000000000000000000000000000040
:10289800B80F05080000000000000000DD8C0008EB
:1028A800400D0300030000000000000000000000CD
:1028B8000000000000000000000000000000000010
:1028C80000000000BCEB040800000000000000004D
:1028D80069570208102700000100000000000000EE
:1028E80000000000000000000000000000000000E0
:1028F800000000000000000068EA04080000000072
:1029080000000000D5D102081027000003000000D5
:1029180000000000000000000000000000000000AF
:10292800000000000000000000000000C80F0508BB
:102938000000000000000000A96F0108A086010047
:10294800010000000000000000000000000000007E
:10295800000000000000000000000000000000006F
:10296800840205080000000000000000C9250208D4
:10297800A861000001000000000000000000000045
:10298800000000000000000000000000000000003F
:1029980000000000D00F0508000000000000000043
:1029A800BDED0208A0860100010000000000000043
:1029B800000000000000000000000000000000000F
:1029C8000000000000000000C0EC04080000000047
:1029D800000000005D280208A00F000001000000B0
:1029E80000000000000000000000000000000000DF
:1029F800000000000000000000000000DC0F0508D7
:102A080000000000000000004597020810270000A1
:102A180001000000000000000000000000000000AD
:102A2800000000000000000000000000000000009E
:102A3800C4EB04080000000000000000993F0308F0
:102A48001A41000001000000000000000000000022
:102A5800000000000000000000000000000000006E
:102A68000000000020ED0408000000000000000045
:102A78005D0B0308102700000100000000000000A3
:102A8800000000000000000000000000000000003E
:102A980000000000000000006C0E050800000000A7
:102AA80000000000FDBD02081A41000001000000FE
:102AB800000000000000000000000000000000000E
:102AC800000000000000000000000000E80F0508FA
:102AD8000000000000000000153B0308400D030043
:102AE80000000000000000000000000000000000DE
:102AF80000000000000000000000000000000000CE
:102B0800F00F0508000000000000000085250208FD
:102B1800400D03000000000000000000000000005D
:102B2800000000000000000000000000000000009D
:102B380000000000F80F0508000000000000000079
:102B48007DDF020850C30000030000000000000001
:102B5800000000000000000000000000000000006D
:102B6800000000000000000004100508000000003C
:102B780000000000F1B5010840420F00000000000D
:102B8800000000000000000000000000000000003D
:102B98000000000000000000000000001010050800
:102BA80000000000000000007927020850C3000060
:102BB800000000000000000000000000000000000D
:102BC80000000000000000000000000000000000FD
:102BD800000200051002700B898600081F852B3F34
:102BE800898600080000803F000000000000000007
:102BF800000000000000803F00000000000000000E
:102C0800000000000000803F0000000000000000FD
:102C1800000000000000803F2D020308290203087D
:102C280025020308190203081502030821020308F4
:102C38001D020308A1020308950203086D02030898
:102C480081020308590203084502030831020308F8
:102C58000100000000600240106002400000000017
:102C680000000000000B0000000000000000000051
:102C780000000000006002402860024001000000DF
:102C880000000000060C000000000000000000002A
:102C980000000000006002404060024002000000A6
:102CA80000000000100D00000000000000000000FF
:102CB800000000000060024058600240030000006D
:102CC80000000000160E00000000000000000000D8
:102CD8000000000000600240706002400400000034
:102CE80000000000200F00000000000000000000AD
:102CF80000000000006002408860024005000000FB
:102D08000000000026100000000000000000000085
:102D18000000000000600240A060024006000000C1
:102D2800000000003011000000000000000000005A
:102D38000000000000600240B86002400700000088
:102D480000000000362F0000000000000000000016
:102D5800000000000064024010640240000000000F
:102D68000000000000380000000000000000000023
:102D780000000000006402402864024001000000D6
:102D880000000000063900000000000000000000FC
:102D9800000000000064024040640240020000009D
:102DA80000000000103A00000000000000000000D1
:102DB8000000000000640240586402400300000064
:102DC80000000000163B00000000000000000000AA
:102DD800000000000064024070640240040000002B
:102DE80000000000203C000000000000000000007F
:102DF80000000000006402408864024005000000F2
:102E08000000000026440000000000000000000050
:102E18000000000000640240A064024006000000B8
:102E28000000000030450000000000000000000025
:102E38000000000000640240B8640240070000007F
:102E480000000000364600000000000000000000FE
:102E580000000000482600200000000000000000DC
:102E6800000000000000000000000000000000005A
:102E7800000000000000000000000000000000004A
:102E8800000000000000000000000000000000003A
:102E9800000000000000000000000000000000002A
:102EA800000000000000000000000000000000001A
:0C2EB8000000000000000000010000000D
:10800000D0ED007A90ED017A30EE670AE7EE007A63
:10801000B0EE670AC0ED007A704700BF704700BF3E
:1080200070B50C4C23689BB15A68821A002A0FDB8A
:108030000546002603E05A68AA1A002A08DB996858
:108040001E731A682160184690472368002BF2D1EE
:1080500070BD00BFB0260020436A8269D154436AD4
:108060000169C26B01338B4228BF00234362DAB13E
:10807000EFF31183502282F31288C26B1168C90793
:108080000ED470B45468FCB9D0E909518D4211D1B5
:10809000012280F86020DBB283F3118870BC704746
:1080A000DBB283F311887047C26DD36843F080035D
:1080B000D360704786690E44D6600ED9691A516044
:1080C0008562002180F86010116841F00101DBB287
:1080D000116083F3118870BC70470569691A51609B
:1080E0008462EEE7034610B4846BD968406954B1EA
:1080F0001A6D8C1A013A005D5DF8044B08BF0A4600
:10810000C0B21A6570471A6A805C01328A4228BF81
:108110002246C0B21A625DF8044B7047C36B13B1BC
:1081200090F860007047D0E90903181AB0FA80F09F
:1081300040097047D0E909120369914238BFC91854
:108140008A1AC16B013B19B149680A449A4201D2AB
:10815000981A704700207047836B43B1026D5B68CB
:108160009A4291BF981AC0689B1AC0187047D0E90C
:1081700007239A422FBFD01AC0688018C01A7047D0
:108180000A4B30B503F10C0493F900205D78072AFF
:10819000C8BF143A811804338D7213F8025C8554F9
:1081A00013F8012C0A759C42EED130BD24800408DE
:1081B00003682DE9F0415D6A1DB12B46BDE8F04131
:1081C0001847002A174611DD04460E460F4400E00A
:1081D00023689B68204698470028F9D0236816F842
:1081E000011B1B6820469847BE42F1D1BDE8F081D3
:1081F00003681B69184700BF00234F214D220170FF
:1082000042708370C3707047064B984202D04FF0A3
:10821000FF307047044A538901339BB25381508920
:1082200080B270470030014034B3002003685A1C0C
:1082300002601970704700BF2DE9F047089C25784F
:10824000002B804689460CBF4FF0200A4FF0300AC1
:10825000661C25B3002A26DD334601E0024698B1AC
:1082600013F8011B501E0029F8D1971E60B13D463E
:10827000013D51464046C8476B1C002BF8DC257871
:1082800027EAE770013045B1041B29464046C8473C
:10829000301916F8015B002DF7D1BDE8F087002AF0
:1082A00003DC2846F9E70020EEE7571EDFE700BFB2
:1082B0000A44914215D030B40139551E41F22102D1
:1082C00011F8014F082380EA042004044CBF82EA1D
:1082D00040004000013B80B2F7D18D42F0D130BC6C
:1082E000704770472DE9F04714461D4606464FF487
:1082F0007A720023204629463DF0B6F84D4BDFF850
:1083000050814D4A4D4F034488FB03101844D91740
:1083100082FB032CC1EB601088FB002887FB03273E
:108320009C44474AC1EBEC2CC0EB001E82FB0C299D
:10833000A3EB8E0E1F44434A86F806E0C1EB2747A5
:108340004FEAEC7E08EB000ACEEBA90E82FB078217
:108350004FEAE0780EEB4E0EC8EB6A18ACEBCE0C91
:10836000C8EB0818DFF8ECE086F804C0A0EB880042
:1083700070718EFB0303F817C0EBE21240F2B550A8
:1083800000FB1272C1EBE353B2F5896F4FEA83072A
:108390003FDA40F2DA239A4243DCB2F5B77FB4BF4A
:1083A0004FF0000E4FF0010E4FEA4E08264B08EB3F
:1083B0000E0103EBC1031FFA8EFC588C234908EB16
:1083C0000E0301EBC30116310B2301E031F8020D5E
:1083D00090421BDD013BF9D11B4BC64403EBCE0E93
:1083E0000123BEF80C00B37007F5FA670132121AC8
:1083F000BC44F270A6F800C0204629464FF47A72B9
:1084000000233DF031F83281BDE8F0870133DBB263
:10841000E9E74FF0030CE64640F296504FF00608AD
:10842000CCE74FF0020CE64640F229404FF004083A
:10843000C4E700BF80BC92C7C5B3A29107452EC256
:10844000ABAAAA2A73B06D162480040830800408F1
:1084500089888888792D031130B403888278174D74
:10846000C478A3F5FA6303F0030101EB4101013A7B
:1084700002EB810205EB4202611E9589027940F20E
:10848000B5549B0804FB03132B4403EB430302EB9B
:10849000C303427984790A490089C3EB031302EBD1
:1084A00083032144C3EB031301EB83034FF47A727C
:1084B0000021C2FB030130BC704700BF24800408C8
:1084C00080436D380028F0B403DA2D230B7040424E
:1084D0000131092804464FF0010307DD03EB830354
:1084E0005B00B0FBF3F2092AF8D883B10F48A0FB78
:1084F0000326B4FBF3F2092A02F1570C02F130070C
:1085000009DD03FB1244F30801F801CBEFD100238E
:108510000B70F0BC704703FB1244F30801F8017BB9
:10852000E5D100230B70F0BC704700BFCDCCCCCCA4
:10853000884270B44FF0010442D301FB04F4B0FB55
:10854000F4F58D42F9D2ECB142BB092D04FB1500C4
:1085500005F1570605F130020EDDB4FBF1F403F826
:10856000016B7CB1B0FBF4F5092D04FB150005F19E
:10857000570605F13002F0DCB4FBF1F403F8012BEF
:10858000002CEFD100221A7070BC704703F8016B09
:10859000B4FBF1F4002CF5D0B0FBF4F5092D04FB8D
:1085A000150005F1370605F13002EFDCB4FBF1F4FC
:1085B00003F8012B002CEFD100221A7070BC704719
:1085C0000546002AEAD1C0E790ED057A90ED004A11
:1085D000D0ED066AD0ED014AD0ED047A90ED035A51
:1085E000D0ED025AA4EE007AB0EE406AB0EE470A2F
:1085F000B0EE667AA4EE867A67EEC07AA5EE407A8F
:10860000E5EE867A80ED057AC0ED067A704700BF08
:10861000D0ED057A90ED013AD0ED003AD0ED064A62
:1086200090ED024A90ED077A90ED035A90ED086ABA
:10863000D0ED045AC0ED067AF0EE406A27EE830AC8
:10864000C0ED056AA3EEA60A80ED087AA4EE240A1E
:10865000A5EE470AA5EEC60A80ED070A704700BFDF
:1086600080ED010A704700BF07EE900ADFED056A52
:10867000B8EEE77AC6EE877A77EE807A80EE270A40
:10868000704700BF83F9223E704700BF06224FF4B7
:108690007A73027043607047F0B400250E4E00F10B
:1086A000FF3C2F46532165B103788B420BD0034624
:1086B0000CEB050403E013F8012F8A4203D0A34218
:1086C000F9D1C155013701350B2D02D016F8011F24
:1086D000E9E7F0BC704700BF90800408152116221E
:1086E0001723017042708370704700BF012331214E
:1086F000322241704271037203700371704700BFF0
:108700002DE9F041364B5F6882B0804617B13B6877
:10871000BA885A8340F2E933324901E0002B5AD03B
:108720000A89013B12F0020F9BB2F7D0E8238B813C
:1087300040F2E9332B4901E0002B4CD00A89013B80
:1087400012F0010F9BB2F7D08B8926496D460DF1CF
:108750000606002440F2E93301E0002B36D00A89F6
:10876000013B12F0020F9BB2F7D08C8140F2E9334B
:1087700000E05BB30A89013B12F0010F9BB2F8D015
:108780008889C0B205F8010BAE42E3D117B13B684E
:10879000BA881A839DF804009DF800509DF80110D6
:1087A0009DF802409DF803209DF8053041EA05211F
:1087B00043EA002342EA04220120A8F85010A8F856
:1087C0005220A8F8543002B0BDE8F0810846FFF707
:1087D0001BFDC0B2D6E70348FFF716FDB5E700BFA3
:1087E000B026002000300140F0B4037C45690268E7
:1087F0001F2B37D9203B2021546899400C4223D0AD
:1088000010249C40D160D4605168D940CE074ED42A
:10881000EFF31183502282F31288EA6B1168C907C3
:1088200009D45468002C52D1D5E909618E4243D154
:10883000012285F86020DBB283F31188037C026893
:108840001F2B194614D9203B082150689940084233
:1088500000D0D1600421506801FA03F3184223D1FB
:10886000F0BC7047202416689C4026420FD1194660
:10887000082310688B40184200D0936004231068CE
:1088800003FA01F10842EBD09160F0BC704710216F
:108890009940946091601168D940CC07B8D5012106
:1088A00001FA03F39360B3E7D360F0BC7047012192
:1088B00001FA03F3D360ABE7AF690F44D7600ED87A
:1088C0002E69711A5160AC62002185F86010116840
:1088D00041F00101DBB2116083F31188AEE7711A38
:1088E0005160AE62F0E700BF70B4037C01681F2BDB
:1088F00026D9A3F1200520224C68AA40224214BFA9
:1089000001220022D2B142691B481C4C02EB4202F8
:1089100000EB4212257854682068CDB9E568568985
:108920002C6824F001042C6082891F2B22EA0602A5
:1089300082811AD8202202FA03F38B6070BC704740
:1089400020220C689A40224214BF01220022D9E75B
:10895000A469226822F001022260828922F48072D6
:108960001204120C1F2B8281E4D9A3F120022023D0
:108970009340CB6070BC704778C7002074C700205C
:1089800010B5027C01681F2A4FF020030ED94C68F5
:10899000203A93401C4208D00B4A406800241470CF
:1089A000026822F001020260CB6010BD0C689340A7
:1089B0001C42FAD0044A406800241470026822F075
:1089C000010202608B60F0E75F4600202DE9F04174
:1089D000C40023189B00B749CA585268958AADB2A3
:1089E000EFB2FE070B4461D4BE0737D5BFF35F8FEC
:1089F0001D7EEDB2012D00F0BB80AF4E138BBFF397
:108A00005F8F231801EB83031D7E022D00F0CE80C3
:108A1000231801EB83031D7E032D05D19B7E1BB123
:108A2000737A002B40F01A81938896F908C043F4BA
:108A300080639380231801EB83031B7E013363451E
:108A40000AD1B37A00257572002B40F08A80204449
:108A500001EB800000234375BDE8F081964E17F0CE
:108A6000040F96F908C04DD117F0400700F0B2800E
:108A7000178A1D6AFFB205F80C705FFA8CF56F1C3F
:108A800093F818E07BB2DF1CBE4533729C4600F0C1
:108A90000981271801EB87073F7EBB42CAD105F148
:108AA000020C4FFA8CFC86F808C0C3E71588824E8A
:108AB00025F400652D042D0C1580158845F480657E
:108AC00015809D7E00273772002D3DD0757A002DD0
:108AD00037D0231801EB830301251B7E7572022B0F
:108AE00003D1138843F400631380231801EB83033D
:108AF0009B7D43F001031382204401EB8000037E41
:108B0000BDE8F0819F7E757A4FF0010E86F80AE08D
:108B1000002F5CD0002D78D1231801EB83035B7EFE
:108B2000002B00F0A48013880CF1010C4FFA8CFC90
:108B300043F4007386F808C013801388DF05FCD463
:108B400078E7DB7DFF2BC4D0231801EB83039D7DE9
:108B500005F0FE051582DB7DFF2BCDD0FF233372A0
:108B6000CAE7938823F440731B041B0C93806EE7C1
:108B70009B7E514E002B3FF441AF737A002B3FF4A4
:108B80003DAF138823F480631B041B0C1380BFF3D9
:108B90005F8F138B1388B57243F40073138093882F
:108BA00096F908C043F48063938043E79B7E002BD3
:108BB0003FF42EAF737A002B3FF42AAF138896F957
:108BC00008C023F480631B041B0C138016E0002DE7
:108BD000A2D0A8E72D067FF52DAFBCF1FF3F6DD0E9
:108BE000DD6915F80C5015820CF1010C1D7E4FFA51
:108BF0008CF39D429C4633727FF41CAF938823F420
:108C000080631B041B0C938014E71F7ED3F8208025
:108C10005FFA8CF5AE44022F4FFA8EFE17882DD9DD
:108C200027F480673F043F0C1780178AFFB208F8CB
:108C30000C701788D3F820C047F400731380138A90
:108C4000DBB20CF80E30938805F1020C4FFA8CFC65
:108C500043F4806386F808C093806EE7938896F9A2
:108C600008C023F480631B041B0C9380E2E6138886
:108C7000012543F48073138075725EE747F4007733
:108C80001780178AFFB208F80C70178AD3F8208073
:108C900005F1030C4FFA8CFCFBB286F808C008F80B
:108CA0000E304AE7978827F480673F043F0C97808F
:108CB000EFE600BFC4B20020B0260020DD7D1582A3
:108CC0009D7E37721DB91B7E002B7FF415AF9388F4
:108CD00023F480631B041B0C93800DE72DE9F04700
:108CE0008C4A8D4B12781C78D207064648D58B4D9E
:108CF000012C00F091801ED3022C40F09B8088490B
:108D0000884A09881288884F914201D901241C7031
:108D1000EB7AFBB12B89EBB1844B1B78D3B112F00A
:108D200083FB002800F0E2802B7B83422CBF0123D1
:108D300000233B700FE0DFF8E8C17B4F7C4CBCF8B0
:108D400000002288697B521A8242DFDAEB7A002423
:108D5000002BDFD13B782A79632A07D87549022C8A
:108D6000087800F0B880002840F0A0807249AA7A04
:108D70009C4238BF1C460C70002A44D1BDE8F087E5
:108D8000DFF89CC1654DBCF80000BCF8021095F8F6
:108D900003E06A4F411A0029A4F10302B8BF494217
:108DA000704597F80080D2B211D32F7887420ED346
:108DB000012A45D9B8F1020F9AD15C48604A00787F
:108DC00090800229CCBF00210121D18090E7B0EB37
:108DD0004E0FEDDC012A40F28C800229EADC0324EC
:108DE000514F524852494F4A1C70B8F1020F4FF090
:108DF00000033C7003700B80138089D1504A01211D
:108E00009380D18084E7012C6BD0022CB6D107204F
:108E1000BDE8F0471CF066BC424A41491288687BB5
:108E20000988121A914207DD414A12888A423CBFE2
:108E300000241C703C4F6BE702241C703A4F67E71C
:108E40000229B7DC95F800E090FBFEFE0EF1010E62
:108E5000BEF1080FDFF8D4A0AA786978DFF8C490D3
:108E6000334C314FA8BF4FF0080E8AF800E01FFACC
:108E70008EFA11FB0AF112FB0AF2DFF8B8A0A9F88A
:108E8000001092B200214FF06409B8F1020F228065
:108E900039701970CAF804108AF801907FF452AF43
:108EA000274A0121A2F804E0D18048E74868301A37
:108EB000244EB042C8BF4A703FF758AFC2F16402B7
:108EC000214E00FB02F086FB0062C017A0EBA2500F
:108ED000643048704AE70028E8D101274E600F70DF
:108EE000ECE70820BDE8F0471CF0FCBB02233B7018
:108EF00031E7032C7FF471AFB8F1020F9AD10B4A1E
:108F00000F4B12789A800229CCBF00210121D98011
:108F1000054FFDE67E7200201039002070D400203D
:108F200040D5002014390020203900206CD50020C5
:108F300012390020183900206DD50020D0D500202E
:108F400054D500207F9698006BCA5F6B10B429211E
:108F5000262401220023047041708270C3705DF8E2
:108F6000044B704770B544880546C4F30B04224691
:108F700008460E4600213EF0E7FF2B69094A93425E
:108F800002D3094A934205D35BB121463046BDE87E
:108F900070401847224630461946BDE870403CF004
:108FA0009FBC70BDC80600081808000810B5154C15
:108FB00094F84530002B144B14BF012200221A7084
:108FC0000BD0042204F12B0110483EF0FBFF1422C9
:108FD00004F130010E483EF0F5FF94F84630002BC6
:108FE0000C4B14BF012200221A7009D00A4B0B4A05
:108FF00003F1200153F8040B42F8040B8B42F9D122
:1090000010BD00BFB0260020057C002018D5002030
:1090100000D50020047C0020BB26002020D50020A5
:1090200038B51D4B1B78044600F1250593B1042289
:109030001A4920303EF0C6FF2846142218493EF057
:10904000C1FF012384F83A30164B1B7873B984F8BA
:109050003B3038BD2846142213493EF0B3FF0123AC
:1090600084F83A300F4B1B78002BF0D00F4B186868
:1090700059689A68DD68E56020606160A260DD691A
:10908000186959699A69A2610123E56120616161EA
:1090900084F83B3038BD00BF057C002018D5002087
:1090A00000D50020047C002064BD040820D50020E9
:1090B00030B50446C06D21718389A26823F4005342
:1090C0001B041B0C838185B06379009213F0040F9D
:1090D0004FEA03324FEA03230CBF00254FF48055BB
:1090E00003F4806302F40052ADF80450ADF8083088
:1090F000002511F00103ADF80620ADF80C501CD18D
:10910000ADF80A3008238A07694648BFADF80A302F
:1091100029F0A8FF637913F0080FE36D9A8A05BF61
:1091200022F00802120442F00802120C9A829A8974
:1091300042F400529A8105B030BD0423ADF80A30E4
:109140000C23E0E730B50446C06DA160838923F4A9
:1091500000531B041B0C8381637985B013F0040F4B
:10916000009108BF0025217918BF4FF48055ADF854
:1091700004501A0300251B0203F48063ADF80A5063
:10918000ADF80C50CD07ADF8083002F4005244BFE2
:109190000423ADF80A30ADF806204CBF0C23082399
:1091A0008A07694648BFADF80A3029F05BFF63794A
:1091B00013F0080FE36D9A8A05BF22F0080212042B
:1091C00042F00802120C9A829A8942F400529A8163
:1091D00005B030BD70B504462DED028BD0F83004DB
:1091E000B0EE408A35F0ECFCD4ED047AF0EE405A53
:1091F00094ED050A37EEC00AF5EE405A30EE270A24
:10920000F1EE10FA84ED040A84ED050A05D0F5EEBE
:10921000407AF1EE10FA40F0BC80664BF7EE007A2F
:10922000B0EE676AC3ED127A94ED017AD4ED037A59
:10923000D4ED026AE7EE067A04F23442104678EE84
:10924000404A77EEA66AB0EE677A87EE265AF7EEC6
:10925000007A77EEC57AA4EE850A67EE877A84ED08
:10926000040AC4ED037AFEF7CBFE04F21C4191ED33
:10927000007AD4F82C34256884ED040A04F22440E2
:10928000D0ED007AA8EE087A04EB8306013378EE7D
:10929000277AAB4286ED068AC0ED007A81ED007A2E
:1092A000C4F82C3424BF0023C4F82C3404EB83030B
:1092B000D3ED066A404D04F5856393ED005A77EED1
:1092C000E67AA6EEE67A04F58463C0ED007A67EEEE
:1092D000857A81ED007A67EEE76AC3ED007AF0EEF9
:1092E000667AE7EE057A354995ED007A0878F5EE6D
:1092F000C07AF1EE10FAD8BFF1EE677AF1EEE76AC4
:1093000004F58363C3ED007A67EE267AC4ED027A32
:1093100070B1F5EE405AF1EE10FA0CD1D4F83034B9
:10932000022B09BF002394ED040A94ED040A0B708C
:10933000BDEC028B70BD04F23C45D5ED007AF4EE35
:10934000657AF1EE10FAE9D0DFED1D7A26EE276A94
:1093500004F58860FDEEC67A90ED000A17EE903AAB
:10936000B3F5FA7FA8BF4FF4FA730A2BB8BF0A23EC
:1093700007EE903AB8EEE76ABCEEC66A16EE103A0F
:1093800098B2FFF771F91046FFF76AF9C5ED005A78
:10939000C4E785EEA77A074BB7EE006A36EE476A58
:1093A000B5EEC06AF1EE10FAD8BFB1EE466A83EDB1
:1093B000126A39E7B0260020CC230020C47F0020A9
:1093C00000008C4238B52C2200213EF0BDFD034642
:1093D000642140F2DC5240F2022019745A821321B7
:1093E000202240F21A4540F26C74188399760E20C0
:1093F00002211A7701229D82DC8240F2753540F607
:10940000430483F82200197283F82A109A7383F8B0
:109410002920DD831C8419460248BDE838400EF03F
:10942000E1BA00BF78BD0408022838B504460DD85B
:1094300000EB8003084A094D094903EB830302EB63
:10944000830318462B600C7030F020FA601CC0B209
:10945000BDE838401CF070BAAA530020C87600203E
:10946000F0D4002038B52C4A2C48137852782C4977
:109470002C4C2D4D03EB830303EB830300EB8303A1
:1094800002EB4200C2EBC00201EB420223602A6001
:1094900034F0C6F83022002124483EF055FD206803
:1094A00030F0F4F9224A23491079234A234BD1643E
:1094B000C822642111FB00210022C3E90112C3E983
:1094C0000322C3E90522DA6183F8202083F82120F2
:1094D0000DF03EFE1A4ADFED1B6A138854791A49D3
:1094E0001A48086007EE103A5388127907EE903A4E
:1094F000B8EEC77AF8EEE77A154B27EE267A67EED4
:10950000A67A1C725A7283ED017AC3ED007ABDE827
:10951000384023F077B900BFF0D40020AA530020D0
:1095200020550020C8760020CC760020443A002048
:10953000705A0020BA2C0020B02600208072002033
:10954000B844002017B7D138E87B00203661023DCF
:10955000C07B00200B4B1B7810B58BB90A4B0B4A14
:1095600003F1200153F8040B42F8040B8B42F9D1AC
:10957000074B012483F84640FFF718FD204610BD35
:109580000020FCE7047C002020D50020BB26002022
:10959000B0260020074B1B7853B9074B00F120027F
:1095A00050F8041B43F8041B9042F9D10120704786
:1095B00000207047047C002020D5002038B50C4BDB
:1095C0001B789BB90B4D0C49042205F12B003EF092
:1095D000F9FC01241422094905F130003EF0F2FCA7
:1095E00085F84540FFF7E2FC204638BD0020FCE747
:1095F000057C0020B026002018D5002000D50020D2
:10960000F0B50C2934D8DFE801F08A3333335F3307
:109610003333343333330700048C9689B2F802C0F5
:109620001788744D24F480542404240C0484038C7F
:109630008488818B23F4005321F4E6411B04090440
:109640001B0C46EA0C06090C43EA063341EA0721E3
:10965000A8429BB2A4B289B200F09E8005F5806555
:10966000A84200F099809268848081830264038418
:10967000F0BD048C9589B2F802E017885D4E24F4A1
:1096800080742404240C0484038CB0F804C0818BFF
:1096900023F400731B0421F0730145EA0E041B0C34
:1096A000090443EA0423090CB0429BB21FFA8CF56B
:1096B00041EA07015BD0504CA04258D092688580A7
:1096C0008183C2630384F0BD048C9589B2F802E003
:1096D000B2F800C0474E24F010042404240C048483
:1096E000038C8788018B23F0200321F4E6411B04BF
:1096F00009041B0C45EA0E04090C43EA041341EA71
:109700000C21B0429BB2BFB289B25BD03A4CA042AE
:1097100058D092688780018382630384F0BD048CF3
:109720009589B2F802C01788324E24F0010424044F
:10973000240C0484018C8488038B21F0020123F023
:10974000730309041B04090C45EA0C051B0CB04209
:1097500041EA0501A4B243EA070324D0264DA842FA
:1097600021D092688480038342630184F0BDD48950
:10977000168A578A23F4006343EA04234FF6FF3422
:109780001C40938825F440553E4344EA032345EAB0
:1097900006149BB2A5B291E7158A24F4804444EAEA
:1097A0008514A4B25FE7D689158A578A21F008018B
:1097B0003143968824F4407421F004013D43314341
:1097C0002C43CEE7D489168AB2F812C023F0800366
:1097D00043EA04134FF6BF741C40938827F4406596
:1097E00046EA0C0644EA031345EA86049BB2A7B294
:1097F0008FE700BF00000140000401402DE9F84F51
:10980000A022DFF834B28248824E834FDFF82C82E8
:10981000DFF82C92DFF82CA200213EF095FB7F4868
:10982000DFF824C2DFF824E20BF590755C4623686C
:10983000B34200F0D080B3F1804F00F0CE80BB4245
:1098400000F0CD80634500F0D880734500F0D780EC
:10985000434500F0D6804B4500F0D580534500F0DD
:10986000D4806F4A934200F0988002F58062934260
:1098700008BF092300F092802434A542D7D1694E55
:10988000694D4FF003094FF002089BF80630002B9A
:109890007CD09BF804301F09013F042F03F00F0315
:1098A00074D836F8170040FA03F2D2076ED54FF09D
:1098B000010A0AFA03F3013B18403BF025FE5B4B1B
:1098C000DB5D184415EBC00760D055F830305848C0
:1098D0009BF8081003F13F4202F57E02920A825C77
:1098E00002F01F005209032A0AFA00FA7FD0042A64
:1098F00077D0022A04D14948426C4AEA0202426403
:10990000B7F804C0BCFA8CF2C2F11F0292B2D008C0
:1099100003EB800002F00702076A92004FF00F0E7F
:109920000EFA02FE27EA0E070762076A01FA02F240
:109930003A4302624FF0010E00220EFA02F737EAB4
:109940000C0120D15000D3F800A009FA00F1C9435E
:109950000AEA010AC3F800A0D3F800A008FA00F050
:1099600040EA0A0018609868084098609868986013
:10997000586820EA07075F6058685860D868014057
:10998000D960D968D9600132102AD6D10BF1240BE5
:109990005C457FF47AAFBDE8F88F0823254A02EBD7
:1099A000C30301221B7903F01F015B09032B02FA99
:1099B00001F208D0042B0AD0022B7FF45DAF436C78
:1099C0001A43426458E7036C1A43026454E7036B7A
:1099D0001A43026350E70023E0E70123DEE7022396
:1099E000DCE70E48026B4AEA0202026388E70B4892
:1099F000026C4AEA0202026482E70323CEE70423F0
:109A0000CCE70523CAE70623C8E70723C6E700BF5C
:109A1000543800200000014000040040003802409B
:109A20000044014098B6040818B00020A4B6040809
:109A300060B50408ACB6040878B50408001000400E
:109A4000001400400040014000080040000C0040AD
:109A500000B9704703682DE9F04F03F13F4404F566
:109A60007E04534EA40A0125345D04F01F066409E8
:109A7000032C05FA06F500F09580042C00F08D808B
:109A8000022C45D08588B5FA85F0C0F11F0080B260
:109A9000C40803EB840400F00700266A80000F2747
:109AA000874026EA07062662276A01F003068240FD
:109AB000701E3A4301282262C1F3810EC1F30018DF
:109AC0004FF000024FEA51114FF0010C25D94FF031
:109AD000030E0CFA02F0A84315D150001F680EFACD
:109AE00000F4E44327401F60D3F8008006FA00F733
:109AF00047EA08071F60DF683C40DC60DC6801FA69
:109B000000F02043D8600132102AE2D1BDE8F08F86
:109B1000284C666C35436564B4E74FF003090CFAD2
:109B200002F737EA050033D15000D3F800A009FA54
:109B300000F4E4430AEA040AC3F800A0D3F800B032
:109B400006FA00FA4AEA0B0AC3F800A0D3F808A004
:109B500004EA0A0AC3F808A0D3F808B00EFA00FA1B
:109B60004AEA0B0AC3F808A0D3F804A02AEA0707B8
:109B70005F60D3F804A008FA02F747EA0A075F60BB
:109B8000DF683C40DC60DC6801FA00F02043D8600C
:109B90000132102AC3D1BDE8F08F064C266B354345
:109BA00025636FE7034C266C354325646AE700BFE5
:109BB00060B504080038024003682DE9F04F03F156
:109BC0003F4404F57E04534EA40A0125345D04F09D
:109BD0001F066409032C05FA06F500F09580042C95
:109BE00000F08D80022C46D08588B5FA85F0C0F152
:109BF0001F0080B2C40803EB840400F00700266A4B
:109C000080000F27874026EA07062662276A01F0B0
:109C1000030602FA00F0721E3843012AC1F3810ED6
:109C2000C1F3001820624FEA51114FF000024FF0CB
:109C3000010C25D94FF0030E0CFA02F0A84315D100
:109C400050001F680EFA00F4E44327401F60D3F869
:109C5000008006FA00F747EA08071F60DF683C400B
:109C6000DC60DC6801FA00F02043D8600132102A81
:109C7000E2D1BDE8F08F284C666C35436564B3E7EC
:109C80004FF003090CFA02F737EA050033D1500010
:109C9000D3F800A009FA00F4E4430AEA040AC3F87E
:109CA00000A0D3F800B006FA00FA4AEA0B0AC3F89B
:109CB00000A0D3F808A004EA0A0AC3F808A0D3F861
:109CC00008B00EFA00FA4AEA0B0AC3F808A0D3F863
:109CD00004A02AEA07075F60D3F804A008FA02F795
:109CE00047EA0A075F60DF683C40DC60DC6801FA35
:109CF00000F02043D8600132102AC3D1B9E7064CE6
:109D0000266B354325636FE7034C266C354325648A
:109D10006AE700BF60B504080038024010B50409C6
:109D2000013C042C17D80E4B33F8142000F00F0020
:109D300042FA00F313F001030FD0012303FA00F0FD
:109D4000013810403BF0E0FB064A074B125D10441F
:109D500003EBC00010BD002010BD184610BD00BFB1
:109D600098B60408A4B6040818B000202DE9F843FA
:109D70002F4D2B8AB5F80C8018EA030827D02D4EFA
:109D80004FF00047B8FA88F327FA03F2D24391B2B2
:109D90001B3B08EA02082982042B15D8DFE803F0F0
:109DA000352B22190300D6F89C30002B37D1EB6AF3
:109DB0001FFA83F9D6F8984034B123682046494603
:109DC00098476468002CF8D1B8F1000FDAD1BDE8EB
:109DD000F883B06F696B036889B29847B8F1000FD8
:109DE000D0D1F4E7F06FA96B036889B29847B8F156
:109DF000000FC7D1EBE7D6F88000E96B036889B2A2
:109E00009847B8F1000FBDD1E1E7D6F88400296C7E
:109E1000036889B29847B8F1000FB3D1D7E703F1CF
:109E2000FF3900231FFA89F9C6F89C30C2E700BF4A
:109E300000080040543800202DE9F8432C4D2B8AAF
:109E4000B5F80C8018EA030825D02A4E4FF00047D9
:109E5000B8FA88F327FA03F2D24391B21B3B08EA1F
:109E600002082982042B13D8DFE803F032292017D7
:109E70000300736F002B34D1EB6A1FFA83F9346F40
:109E800034B123682046494698476468002CF8D1CD
:109E9000B8F1000FDCD1BDE8F883306D696B036861
:109EA00089B29847B8F1000FD2D1F4E7706DA96B71
:109EB000036889B29847B8F1000FC9D1EBE7B06DDC
:109EC000E96B036889B29847B8F1000FC0D1E2E7A7
:109ED000F06D296C036889B29847B8F1000FB7D1CB
:109EE000D9E703F1FF3900231FFA89F97367C6E741
:109EF00000040040543800202DE9F8434FF080451D
:109F00002B8AB5F80C8018EA030825D0294E4FF0AB
:109F10000047B8FA88F327FA03F2D24391B21B3B09
:109F200008EA02082982042B13D8DFE803F032295B
:109F300020170300F36C002B34D1EB6A1FFA83F96E
:109F4000B46C34B123682046494698476468002CB5
:109F5000F8D1B8F1000FDCD1BDE8F883B06A696BC5
:109F6000036889B29847B8F1000FD2D1F4E7F06ADC
:109F7000A96B036889B29847B8F1000FC9D1EBE724
:109F8000306BE96B036889B29847B8F1000FC0D114
:109F9000E2E7706B296C036889B29847B8F1000F4B
:109FA000B7D1D9E703F1FF3900231FFA89F9F36428
:109FB000C6E700BF543800202DE9F8432C4D2B8A0A
:109FC000B5F80C8018EA030825D02A4E4FF0004758
:109FD000B8FA88F327FA03F2D24391B21B3B08EA9E
:109FE00002082982042B13D8DFE803F03229201756
:109FF0000300736A002B34D1EB6A1FFA83F9346AC9
:10A0000034B123682046494698476468002CF8D14B
:10A01000B8F1000FDCD1BDE8F8833068696B0368E4
:10A0200089B29847B8F1000FD2D1F4E77068A96BF4
:10A03000036889B29847B8F1000FC9D1EBE7B0685F
:10A04000E96B036889B29847B8F1000FC0D1E2E725
:10A05000F068296C036889B29847B8F1000FB7D14E
:10A06000D9E703F1FF3900231FFA89F97362C6E7C4
:10A0700000000140543800202DE9F8432C4D2B8A74
:10A08000B5F80C8018EA030825D02A4E4FF0004797
:10A09000B8FA88F327FA03F2D24391B21B3B08EADD
:10A0A00002082982042B13D8DFE803F03229201795
:10A0B0000300736A002B34D1EB6A1FFA83F9346A08
:10A0C00034B123682046494698476468002CF8D18B
:10A0D000B8F1000FDCD1BDE8F8833068696B036824
:10A0E00089B29847B8F1000FD2D1F4E77068A96B34
:10A0F000036889B29847B8F1000FC9D1EBE7B0689F
:10A10000E96B036889B29847B8F1000FC0D1E2E764
:10A11000F068296C036889B29847B8F1000FB7D18D
:10A12000D9E703F1FF3900231FFA89F97362C6E703
:10A130000000014054380020F0B506683F4CB30AD7
:10A14000A3426CD065D93E4CA3425AD03E34A342C0
:10A1500056D1202700254379B6F80CE0022023FAD7
:10A1600000F4A0401FFA80FCA8002346441903EB2A
:10A170004403344C002955D04CEA0E0C03F1040E74
:10A1800044F8231044F82E20A6F80CC0E319EFF38E
:10A190001181502282F31288421904EBC202D2F8D4
:10A1A00010C0BCF1000F03D044F807C0136904339A
:10A1B000421904EBC202576917B11F605369043397
:10A1C000421904EBC202976917B11F609369043307
:10A1D000421904EBC202D76917B11F60D369043377
:10A1E0000027CAB21F6082F31188284404EBC00420
:10A1F000236A4BB9B38923F001031B041B0CB38101
:10A20000F0BD98270325A6E7B38943F00103B38186
:10A21000F0BDB3F5801FF3D1482701259BE77027D8
:10A22000022598E72EEA0C0C03F1040EA6F80CC0E8
:10A2300044F8231044F82E20A8E700BF01001000C6
:10A24000020010005438002030B50368584C594DB6
:10A2500018882468B4FBF2F20139013AAB4294B297
:10A2600083B089B282B211D0534883420ED0B3F189
:10A27000804F0BD0A0F58030834207D000F580607E
:10A28000834203D000F58060834202D122F0700245
:10A2900092B24A48834269D000F58060834241D03F
:10A2A00022F4407200F56C4092B283421A80D96267
:10A2B0001C8564D10122002119869A821A883D48A2
:10A2C00042F0010283421A8036D0B3F1804F60D051
:10A2D0003B4A93425FD002F5806293425DD002F523
:10A2E000806293425BD002F58062934259D002F5BE
:10A2F0008062934257D002F59632934255D002F5D0
:10A300008062934217D002F58062934208BF092110
:10A3100012D002A84FF0012340F8043D35F06CF94B
:10A3200003B030BD01201A80D9621C8598821A883A
:10A3300002431A80C9E70821224B03EBC101002226
:10A340004C798DF80440012301A88DF805308DF873
:10A3500007308DF8062035F04FF91B2CE0D11A4B51
:10A36000019301A835F048F903B030BD01201A80EF
:10A37000D9621C8598821A8802431A80A8E70E4A7F
:10A38000934297D001229A821A8842F001021A80E1
:10A390009BE70121D0E70221CEE70321CCE704218E
:10A3A000CAE70521C8E70621C6E70721C4E700BFC1
:10A3B00048C7002000000140000401400010004098
:10A3C00000040040ACB60408190100011F4B98427C
:10A3D0002CD0B0F1804F2BD0A3F57C43984229D0EC
:10A3E00003F58063984227D003F58063984225D017
:10A3F00003F58063984223D003F58063984221D00F
:10A4000003F5963398421FD003F58063984207D036
:10A4100003F58063984208BF092202D000207047EC
:10A4200008220B4B03EBC203187970470022F8E7B0
:10A430000122F6E70222F4E70322F2E70422F0E722
:10A440000522EEE70622ECE70722EAE700000140DA
:10A45000ACB60408002330B40F4A1D46112404E0B2
:10A460000133082B0DD012F8244C30EA040402F119
:10A470002402F5D1A94207D001330135082BEDB2F2
:10A48000F1D1002030BC7047044A03EBC30302EB58
:10A49000830330BC18797047A2B5040878B5040866
:10A4A00010B5002104460120FFF7D4FF207010BD35
:10A4B00038B500240472451EE1B20220FFF7CAFF3E
:10A4C0000134082C05F8010FF6D138BD68B10A4AED
:10A4D0002821002301E012F8241C884202F1240202
:10A4E00004D00133082BF6D100207047034803EB5A
:10A4F000C30300EB83007047A0B5040878B50408D7
:10A50000224B5B68C3F3080330B4D3B9EFF3118374
:10A51000BBB91F4A1F4D20481368846811688B42DD
:10A52000FAD129688C42F7D81C4A11684FF47A7224
:10A5300002FB01F0001B30BCB0FBF1F002FB03009A
:10A540007047EFF31182102383F3128803F1E023A5
:10A55000D2B29C68196811F4803F11491EBF0120D6
:10A5600008609C680A4B18680B6882F311880B4AD4
:10A5700011684FF47A72034402FB01F0001B30BCF7
:10A58000B0FBF1F002FB0300704700BF00ED00E0FC
:10A59000A4B30020B0C1002010E000E0ACC1002056
:10A5A000A8C100202DE9F84F8046274C274DDFF841
:10A5B000A490274EFFF7A4FFDFF89CE0DFF89CC0D3
:10A5C0004FF0100A4FF47A77DCF80430C3F3080335
:10A5D000CBB9EFF31183B3B92368A968226893421A
:10A5E000FAD132689142F7D8DEF8002007FB02FB6F
:10A5F000ABEB0101B1FBF2F107FB03131B1A43455F
:10A60000E2D3BDE8F88FEFF311818AF31288D5F811
:10A6100008B02B68DB0304D50123C9F80030D5F856
:10A6200008B02368D9F80020C9B281F31188DEF898
:10A630000010134407FB01F2A2EB0B02B2FBF1F294
:10A6400007FB0323DAE700BFA4B3002010E000E01B
:10A65000B0C10020A8C10020ACC1002000ED00E086
:10A660002DE9F04F85B004AB802203F8012D019055
:10A6700024221921002035F00DFA874C874EDFF88F
:10A680002882874DDFF82492864F64230093FFF7DA
:10A6900037FF4FF0010A4FF0100E4FF47A7CD8F8D4
:10A6A0000430C3F30803002B40F0D880EFF311838C
:10A6B000002B40F0D3802368A96822689342FAD126
:10A6C0003A689142F7D832680CFB02FBABEB010110
:10A6D000B1FBF2F10CFB03131B1AB3F57A7FDED347
:10A6E000009B013B0093D2D1184604AB972203F89C
:10A6F000022D1921202235F0CDF9DFF8AC81684D0B
:10A70000DFF8A891674F0A230093FFF7F9FE4FF097
:10A71000010A4FF0100E4FF47A7CD8F80430C3F3DE
:10A720000803002B7CD1EFF31183002B78D1236831
:10A73000A96822689342FAD13A689142F7D8326800
:10A740000CFB02FBABEB0101B1FBF2F10CFB0313C1
:10A750001B1AB3F57A7FE0D3009B013B0093D4D161
:10A76000184604AB102203F8032D1921232235F0DB
:10A7700091F9DFF834814A4DDFF83091494F642375
:10A780000093FFF7BDFE4FF0010A4FF0100E4FF49B
:10A790007A7CD8F80430C3F308031BBBEFF31183B2
:10A7A00003BB2368A96822689342FAD13A689142B0
:10A7B000F7D832680CFB02FBABEB0101B1FBF2F105
:10A7C0000CFB03131B1AB3F57A7FE2D3009B013B0A
:10A7D0000093D6D1019A184610231075537505B011
:10A7E000BDE8F08FEFF311818EF31288D5F808B031
:10A7F0002B68DB0344BFC9F800A0D5F808B0236874
:10A80000D9F80020C9B281F31188316813440CFBD8
:10A8100001F2A2EB0B02B2FBF1F20CFB0323D1E736
:10A82000EFF311818EF31288D5F808B02B68DA03A4
:10A8300044BFC9F800A0D5F808B02368D9F80020B3
:10A84000C9B281F31188316813440CFB01F2A2EB09
:10A850000B02B2FBF1F20CFB032379E7EFF311815A
:10A860008EF31288D5F808B02B68DB0344BFC9F813
:10A8700000A0D5F808B02368D9F80020C9B281F348
:10A880001188316813440CFB01F2A2EB0B02B2FBFE
:10A89000F1F20CFB03231FE7A4B30020ACC100209E
:10A8A00010E000E0B0C1002000ED00E0A8C10020F1
:10A8B000944A95492DE9F04FA2F50674934DD4F8CA
:10A8C00018326A6003F13F4202F57E02920A1C20B0
:10A8D000895C84F81E0201F01F004909002501224D
:10A8E000032983B084F81F5202FA00F200F0948129
:10A8F000042900F09681022900F08981B4F81CC275
:10A90000002201274FF003084FF0020E07FA02F56C
:10A9100035EA0C0120D150001E6808FA00F1C94345
:10A920000E401E60D3F8009007FA00F646EA0906CA
:10A930001E609E680E409E609E680EFA00F03043D6
:10A940009860586820EA05055D6058685860D868C6
:10A950000140D960D968D9600132102AD6D16C493A
:10A96000A3F818C00A8822F040021204120C0A80D0
:10A970000A8892B222F0380242F010020A800A8855
:10A9800042F040020A80A3F81AC040F2E93302E024
:10A99000002B00F038810A89013B12F0020F9BB2B4
:10A9A000F6D024238B8140F2E933594902E0002B91
:10A9B00000F029810A89013B12F0010F9BB2F6D009
:10A9C0008B89534840F2E93302E0002B00F01781F5
:10A9D0000289013B12F0020F9BB2F6D080238381E3
:10A9E0004B4940F2E93302E0002B00F008810A896C
:10A9F000013B12F0010F9BB2F6D08B89D4F81832CC
:10AA0000B4F81C221A836420FFF7CCFDD4F8183266
:10AA1000B4F81C225A833E4840F2E93302E0002B8E
:10AA200000F0E9800289013B12F0020F9BB2F6D0E0
:10AA300020238381364940F2E93302E0002B00F005
:10AA4000DA800A89013B12F0010F9BB2F6D08B89A4
:10AA50002F4840F2E93302E0002B00F0C880028961
:10AA6000013B12F0020F9BB2F6D0AF23838128493D
:10AA700040F2E93302E0002B00F0B9800A89013B83
:10AA800012F0010F9BB2F6D08B89D4F81832B4F8CB
:10AA90001C221A830120FFF785FDD4F81832B4F880
:10AAA0001C225A831A4840F2E93302E0002B00F0DE
:10AAB0009A800289013B12F0020F9BB2F6D0232349
:10AAC0008381134940F2E93302E0002B00F08B80D0
:10AAD0000A89013B12F0010F9BB2F6D08B890C481A
:10AAE00040F2E93301E0002B79D00289013B12F0FA
:10AAF000020F9BB2F7D060238381054940F2E9330E
:10AB00000AE000BF30B2002060B50408B026002083
:10AB100000300140002B62D00A89013B12F0010F86
:10AB20009BB2F7D08B89D4F81832B4F81C221A8360
:10AB30003E4CDFF80C91DFF80C813D4DDFF808A1A9
:10AB40003C4E64230193FFF7DBFC4FF47A774FF020
:10AB5000100C4FF0010ED8F80430C3F30803FBB912
:10AB6000EFF31183E3B92368A96822689342FAD10D
:10AB700032689142F7D8D9F8002007FB02FBABEB13
:10AB80000101B1FBF2F107FB03131B1AB3F57A7F46
:10AB9000E1D3019B013B0193D5D103B0BDE8F08F18
:10ABA000EFF311818CF31288D5F808B02B68DB0322
:10ABB00044BFCAF800E0D5F808B02368DAF80020EE
:10ABC000C9B281F31188D9F80010134407FB01F2D0
:10ABD000A2EB0B02B2FBF1F207FB0323D5E7164809
:10ABE000FDF712FB9FE71448FDF70EFB77E71248CD
:10ABF000FDF70AFB49E71048FDF706FB28E70E487A
:10AC0000FDF702FBFAE60C48FDF7FEFAD9E60B4920
