:020000040800F2
:1000000000200010B90E030805A2010851DB00080A
:1000100003A2010801A20108FFA1010800000000DD
:10002000000000000000000000000000FDA1010829
:10003000FBA1010800000000F9A10108A90F0208B6
:10004000210F0308210F0308210F0308210F0308C4
:10005000210F0308210F0308FD1A0208291C0208BA
:10006000ED1B0208B11B0208751B0208754302084C
:100070006543020855430208454302083543020818
:10008000214302080D430208210F0308210F030832
:10009000D5D20108210F0308210F0308391B0208DC
:1000A000210F030881050208210F03083D060208FD
:1000B000C5040208210F030809040208210F0308E0
:1000C000210F0308210F0308210F0308210F030844
:1000D000210F0308E110020865100208E90F020869
:1000E000C11A0208210F0308E9A10108210F030822
:1000F00079020208210F030841030208210F0308B7
:10010000000000000000000000000000210F0308B4
:10011000210F0308210F03083D6700082967000825
:10012000F9420208E5420208D1420208BD42020833
:10013000A9420208210F030800000000000000008F
:10014000210F0308210F0308210F030800000000FE
:10015000000000000000000000000000000000009F
:100160000000000000000000210F0308210F030819
:10017000210F030800000000000000000000000044
:0801800000000000210F03083C
:10018800D0E90920101AB0FA80F04009704700BF82
:100198000171704703799B070AD5436A8269D15474
:1001A800436A01690133B3FBF1F201FB1233436285
:1001B800704700BF037913F0010317D0D0E9073166
:1001C800C26810B45B1A541E23400BD043694C1C00
:1001D8005B5CB4FBF2F102FB114202625DF8044B76
:1001E800D8B2704718465DF8044B704718467047F8
:1001F800037913F0020308D0D0E909210369581ED6
:10020800531A0340DBB2C01A70471846704700BF44
:10021800037913F0010306D0D0E90731C268581AF0
:10022800531E184070471846704700BF10F8113C1D
:100238000133DBB20A2B00F8113C07D9044A10F845
:10024800131C002322F8113000F8113C704700BF3E
:10025800DC360020F0B45D4E5D4832785D4B5E4D73
:10026800DC6B2D780132A0FB0270000900EB8000E6
:10027800A2EB80001A683070914201EB04005C68C0
:1002880011D293F84520002A4ED000F58030B0FBFB
:10029800F5F084420BD2041B4FF4803292FBF5F246
:1002A800A21A9A600AE0B0FBF5F0844244D34FF4F6
:1002B800803292FBF5F2121B02449A6040F68C24BD
:1002C8000025A242C3E9001083F8455017D993F8D6
:1002D800402093F942108A4256B241D0002093F947
:1002E800411083F843008A4247D00121002283F855
:1002F800426083F8441083F84020F0BC704793F8BC
:1003080044100029F9D0A2F2EF2040F2DA518842D5
:100318001AD893F840100B2916D803EB8100013145
:10032800C26083F84010E8E7B0FBF5F08442BED223
:10033800041BA21A9A60C1E793F84520002AAAD1A3
:10034800041BA21A9A60B9E7244A002102F130007E
:1003580083F8441042F8041F8242FBD1F0BC704776
:10036800111F0829BAD893F84310182926D8013143
:1003780083F8431093F94110B5E793F84410002926
:10038800B3D0FAB11649154C0FFA82FC084601EBB6
:100398004C0754F8045F20F8025BB842F9D10B2AE5
:1003A80007DC104801EB4C02002122F8021B9042A6
:1003B800FBD10D490A7801320A7096E783F841604B
:1003C800314690E794460649EBE700BF1822002023
:1003D800CDCCCCCCCC6C002010220020D46C0020DA
:1003E800DC360020F4360020CC36002030B40E4D28
:1003F8000E4B2A780E4C0132A3FB02031B09E06B5B
:1004080003EB8303A2EB83034FF6FF72914200F1E3
:1004180001002B70084408BF0123E06308BF84F87B
:10042800453030BC704700BF18220020CDCCCCCC62
:10043800CC6C0020002800F01781B04B1A7CF0B477
:10044800002A40F095801968002201280A6043D0EC
:1004580093F82810002941D19969002202280A60DE
:100468003AD093F8401000295DD1196B0022032877
:100478000A6031D093F85810002940F09E80996C9A
:10048800002204280A6027D093F87010002940F051
:10049800EC80196E002205280A601DD093F8881098
:1004A800002940F00781996F002206280A6013D0BE
:1004B80093F8A010002940F02B81D3F89010002267
:1004C80007280A6008D093F8B810002940F0A080E7
:1004D800D3F8A83000221A60F0BC7047D969884D5B
:1004E8008C0AAC4200F04C8140F23581854DAC421B
:1004F80004D0854A944240F04C810322EFF31184E2
:10050800502585F31288814E4F6A4D6902EB8202AD
:1005180006EBC202013745F001059762E4B24D616E
:1005280084F3118898E7596B754D8C0AAC4200F03A
:10053800298140F21581734DAC4204D0724A94422D
:1005480040F029810322EFF31184502585F31288A6
:100558006E4E4F6A4D6902EB820206EBC20201370A
:1005680045F001059762E4B24D6184F311887CE798
:100578005A68634C910AA14200F0F7806ED9614C29
:10058800A14200F0F6800234A14240F0F08003213D
:10059800EFF31184502585F312885C4E576A55692C
:1005A80001EB810106EBC101013745F001058F62BE
:1005B800E4B2556184F3118845E7D96C504D8C0A33
:1005C800AC4200F0F68040F2D6804E4DAC4204D0EA
:1005D8004D4A944240F0E1800322EFF31184502504
:1005E80085F31288494E4F6A4D6902EB820206EB89
:1005F800C202013745F001059762E4B24D6184F308
:100608001188996C002204280A607FF43DAF63E7E3
:10061800D3F8AC103A4C880AA04200F0DF8040F2D0
:10062800B380384CA04204D0374A904240F0D4807E
:100638000322EFF31180502484F31288334D4E6A5D
:100648004C6902EB820205EBC205013644F0010455
:10065800AE62C2B24C6182F3118839E7B1F5801FEE
:1006680040F08580012193E77047596E244D8C0A2C
:10067800AC4200F0A58040F29280224DAC4204D0FA
:10068800214A944240F09E800322EFF311845025C2
:1006980085F312881D4E4F6A4D6902EB820206EB04
:1006A800C202013745F001059762E4B24D6184F357
:1006B8001188EEE6D96F124D8C0AAC4200F08480A6
:1006C80072D9104DAC4203D00F4A94427ED1032216
:1006D800EFF31184502585F312880C4E4F6A4D694B
:1006E80002EB820206EBC202013745F00105976270
:1006F800E4B24D6184F31188D5E600BF186D00207F
:10070800020010004B0010004D00100018220020BD
:10071800D3F89410324D8C0AAC4259D04BD9314D94
:10072800AC4203D0304A944254D10322EFF31184EF
:10073800502585F312882D4E4F6A4D6902EB8202CF
:1007480006EBC202013745F001059762E4B24D613C
:1007580084F31188B1E6B4F5801F1AD10122CDE6E1
:10076800B4F5801F17D10122EDE6022110E7FE2122
:100778000EE700210CE7B4F5801F0ED101222CE70B
:100788000222BBE60222DEE6B0F5801F24D1012258
:100798004FE7FE22B2E6FE22D5E6FE221DE7B4F5BB
:1007A800801F0FD1012270E7B4F5801F0ED10122FE
:1007B8008EE7022211E7B4F5801F0BD10122B5E7BD
:1007C800022262E7FE2260E7022281E7FE227FE73B
:1007D8000222ABE7FE22A9E7FE222AE7022228E747
:1007E800020010004B0010004D00100018220020DD
:1007F800704700BF70B4150BC2F30324064605EB1F
:10080800450504EB44044800C2F3031318351834B3
:1008180002F00F02356003EB430346F8214002EB78
:10082800420201441833183246F82030062046F8B0
:10083800212070BC704700BF2DE9F04F12F4004F23
:1008480014BF4FF00E0B4FF0070B12F4804F14BF7C
:100858004FF00E0A4FF0070A12F4005F14BF4FF072
:100868000E094FF0070912F4805F14BF4FF00E080D
:100878004FF007084FEA410C12F4006F83B001EB08
:100888000C0714BF4FF00E0E4FF0070E12F4806FD6
:1008980001EB070614BF0E2307238D1901930346A6
:1008A80012F4007F01EB0504C3F800B018BF0E2056
:1008B80043F821A008BF072043F82C9012F4807F4A
:1008C80001EB040C43F8278043F826E001EB0C0702
:1008D80014BF4FF00E084FF00708019E43F825603B
:1008E80012F0800F01EB070614BF4FF00E0E4FF009
:1008F800070E12F0400F43F8240001EB060514BF61
:100908000E20072012F0200F43F82C8001EB05047D
:1009180014BF4FF00E0C4FF0070C12F0100F43F8F5
:1009280027E043F8260018BF0E2701EB040008BF94
:10093800072712F0080F43F825C018BF0E2643F802
:10094800247008BF07260C1812F0040F43F8206023
:1009580018BF0E2501EB040008BF072512F0020F8F
:1009680043F82450014414BF0E24072412F0010F49
:1009780043F8204014BF0E220722122043F82120FA
:1009880003B0BDE8F08F00BF704700BF10B54379D2
:1009980003F0200113F0010F036C04461A7A806BF0
:1009A80016D000290CBF422102211FF005F9216C45
:1009B800012384F84C32A4F848320A684879116A4D
:1009C800834021EA03011162116A0B43136210BDCF
:1009D80000290CBF222102211FF0EEF8E7E700BF33
:1009E800024B1A889B78028083707047582103084D
:1009F80070B4104A104BB2F90060B2F902501C787A
:100A08000E4940F6E44202FB00F2120B42F2107368
:100A180003FB02F393FBF6F32B4481FB0310222C18
:100A28004FEAE373C3EBA00002D1054B1A8058804C
:100A380070BC7047187C0020607D00206766666681
:100A4800E47C00200A4BD3F8A41081B130B4D3F869
:100A5800A850084C0020642202FB05F2C3F8A40049
:100A6800B2FBF1F2C3F8A800228030BC704770478F
:100A780018220020F44C002070B505466C0030F0B8
:100A880031FC2A49631901EB43131E7B06B970BD7B
:100A9800274AD2F8AC6080B22EB192F8B46016B989
:100AA80092F8B56066BB2C4401EB4414214B227DBF
:100AB800208142EA400290B2021282EA10124240B9
:100AC80002F00F0242EA00121B781B480026267526
:100AD80092B20668E3B9602000FB051018300121C6
:100AE800B04721696368B1F82C216489DB68224327
:100AF800A1F82C2158601A6842F001021A6070BDF2
:100B08002A4492F8B6000028CDD001221A75CAE707
:100B1800636820695B7903F0FC030C3318440421F3
:100B2800B04723698000188170BD00BF046E0020A3
:100B380018220020006E0020F86D002038B500EB68
:100B48004000084DC4002B1993ED027AD3ED037AC7
:100B5800E7EE007AB0EE670A30F0C4FB2B59186054
:100B680038BD00BF186D0020F8B5A0F519742379B9
:100B78006179DB0746D594F84832206C0BBB94F8B2
:100B88004B32012B3FD0002B41D194F84A3294F8D4
:100B980049629E420CD9B4F85222012707FA03F59C
:100BA80001332A43DDB2AE4292B2F7D8A4F85222FA
:100BB8000123C94384F84B321940BDE8F8402CF0B2
:100BC80095BC0268D36A5B08536294F85932012BCA
:100BD80007D094F84D3223B1B4F854320133A4F855
:100BE8005432C94301F001012CF080FC002301229A
:100BF80084F84B2284F8493284F84A32A4F85232F5
:100C080084F84832F8BD94F8493284F84A3200230F
:100C180084F84B3201F00101BDE8F8402CF066BCC5
:100C28000F4AB2FBF1F3B3F5803F10B44FF01B0449
:100C380007D3013C0BD05208B2FBF1F3B3F5803F68
:100C4800F7D299B2064A5DF8044B1FF0DFBD0123C5
:100C5800034AB3FBF1F35DF8044B99B21FF0D6BD1C
:100C680000A24A048160006CDAE700BF436CC06BE5
:100C78001BB11A7A01211EF09FBF2BF015B900BFD6
:100C88004379C06BDB0748BF81F0010109B920F047
:100C98009FBE20F0A3BE00BF38B5A0F51774237916
:100CA800990745D4D80700D438BD94F84832002BAA
:100CB800FAD194F849320133DBB2092B84F849326E
:100CC8006ED00A2BF0D194F84B52B4F85232002D62
:100CD80000F0A780990503F0010200F1A980002A1D
:100CE80000F0A6801A46E36A5208002B00F0AC8098
:100CF800D0B2216B984794F84B52012200239542B9
:100D080084F8493284F84822CED1617984F84B328C
:100D18001140206C2CF0EAFB226C136851791A6A96
:100D28008D4022EA05021A621A6A15431D6238BD0F
:100D380094F84D226ABBD4E90950854294F84C12C4
:100D480046D0451CA369A5621B5C2069DBB28542BD
:100D58004FEA430328BFA26243F400730A2001222A
:100D6800A4F8503284F84E0284F84D2211B161790A
:100D78000D073FD45A08A4F8502203F00101204679
:100D8800FFF77EFF94F84E222379013A84F84E2229
:100D980088E794F94E22002A65D184F84D2281E72C
:100DA80094F84B32002B7FF47FAF94F84A32082B2B
:100DB8003FF67AAFB4F85222012000FA03F101336A
:100DC8000A43D9B2082992B2F7D9A4F8522238BDF9
:100DD80000297FF467AF627912077FF563AF636C10
:100DE800E06B5BB31A7A1EF0E7FE2046FFF7CEFDF4
:100DF800237957E7216CA06B0B684D79196AAA40D3
:100E080021EA02021A621A6A1A6210B1002120F05D
:100E18000FFA002384F84C322046FFF727FF237986
:100E280040E743F001029B05A4F852227FF55BAF2F
:100E3800B4F856320133A4F856325EE70028D4D00D
:100E4800194620F0F5F9D0E7E3696169D2B2CA54CE
:100E5800E369E16894F84B520133B3FBF1F201FB0B
:100E68001233E36149E7B4F8503283E7044B93F84F
:100E7800D420D3F8C4000AB920F0AABD20F0AEBD32
:100E880018220020044B93F8D420D3F8C4000AB9E0
:100E980020F0A4BD20F09CBD1822002010B5282009
:100EA8001FF0BEF9044618B1112200238271C371E4
:100EB8002021204620F012FC0A201FF06FFF204658
:100EC80020F0F0FD034B002814BF022201221A7003
:100ED80010BD00BF044C002070B4044600F16C063D
:100EE800064D0FCD2D88258220606160A260E360E9
:100EF8001234B442F4D170BC704700BF5C210308BF
:100F08006D4B1B78002B3AD070B56C4B6C4A9B79B3
:100F1800D2F8D840C2F8D800013B041B032B00F2DA
:100F28008480DFE803F04602312B28F04DFC654B46
:100F3800654D19786B8801F0010100287BD0634862
:100F4800634AD0ED037A9360002940F08A8003FB5E
:100F580004F007EE900ADFED5F6A5F49B8EEE77AC2
:100F6800D2ED017AE7EE267AC1E90033BDEEE77AE1
:100F7800C2ED017A82ED007A81ED027A70BD564A9F
:100F8800C2E9003393607047544B1B681B01F5D5C9
:100F9800FF201AF031FD18B103780A2B6FD9002011
:100FA80003464D4A4E499060C1E90003C2E9003347
:100FB80070BD4C4A4C4BD2794C4D33F81260B6B2E6
:100FC8003046FFF715FD07EE906AE860B8EE670A4D
:100FD80047481EF013F9BCEEC00A10EE103A98B25A
:100FE800FFF706FDE968D5ED017ADFED3A6A3A4B7D
:100FF800404AA86001FB04F407EE104AB8EEC77A2D
:101008001860E7EE267A107859602228BDEEE77A54
:10101800C5ED017A17EE102A83ED027A85ED007A84
:10102800ACD1354B9980DA8070BD2B4B0022C3E9D7
:1010380000229A6070BD294A1268D2067FF57FAFF8
:10104800234A9360002982D0B5F900502B4900FB50
:1010580005F081FB0051C017C0EBA1100344936059
:1010680075E7FDEEE77A264E17EE900AA0F57A703E
:1010780000FB00F1A6FB016100EB1110E4E7214A37
:10108800214B51881A68D0ED027ADFED206A204C96
:10109800436802FB01F207EE102AF8EEE77AB8EE91
:1010A800477AA4FB0121E7EE267A03EBD103FDEE94
:1010B800E77A17EE900A74E7FC7C0020207C002079
:1010C80018220020D04200201C7C0020F03C002088
:1010D800647D00202FE33E31D87C0020D86B0020AF
:1010E800707D00202860002048600020507D00208E
:1010F800F4220020607D0020E47C0020D34D6210A3
:101108001F85EB5164440020886000207D219534C0
:10111800CDCCCCCCF8B5424B5B79012B2FD0022B30
:101128000ED0404B00221A603F4B1B78022B00D098
:10113800F8BD3C4A3D4B5188128819805A80F8BD49
:101148003B4B1B681B01EFD5FF201AF055FC00280C
:1011580062D003780A2B51D99FED360A0023364C0A
:10116800201D63801EF04AF8BCEEC00A10EE103A4B
:101178009BB223802B4A618851801380D4E72F4A81
:101188002F4B92782F4C33F812102F4F8DB207EE59
:10119800905A2046B8EE670A1EF030F8BCEEC00A36
:1011A8003978DFF8ACC07E781E4810EE103A40F669
:1011B800E44202FB01F29BB202FB05F102FB03F3DE
:1011C800ACFB0323ACFB011244F6FB71BD7801EBC9
:1011D800531301EB5211C6EB0632B3FBF2F3B1FB2A
:1011E800F2F2B3FBF5F3B2FBF5F29BB292B224F83C
:1011F800043C24F8022C0380428095E7B0F90220D1
:101208001249D31781FB0212C3EBA2039BB207EE6C
:10121800903AB8EE670AA2E7074C2388AAE700BF0E
:10122800207C0020D07C0020607D0020E47C002011
:10123800D86B002000000000287D002028600020D6
:1012480048600020047D0020147C002067666666E4
:101258001F85EB5170B5294D294C2A496A792A4EC8
:101268002A4804230B7084F8003100216423012AE2
:1012780084F80931A4F80211A4F8041184F80811BB
:10128800C4F80C11317001601ED0022A10D0A9795F
:101298001F4A00230129136084F81031C2E9013381
:1012A8001ED0022903D11B4AC2E90033936070BDE6
:1012B8002822194830F0DFFE44F620619FED170A16
:1012C800174822F029FAE2E72822164830F0D3FE20
:1012D80044F620619FED110A134822F01DFAD6E763
:1012E800124A9FED130A1360C2E90133D360114813
:1012F80044F62061BDE8704022F00EBA207C002040
:1013080018220020FD7C0020FC7C0020D07C0020DE
:10131800D87C0020647D0020287D0020CDCCCC3DE9
:101328002C7D0020007D0020047D0020507D0020C1
:10133800CDCCCC3EF42200202DE9F843954E3468FC
:10134800E00500F1CD80944D944B95F8168100226C
:101358001A70B8F1000F00F0B3800921904821F00D
:1013680017FD002800F0A78044F010048D4A8E4B2A
:101378001768346017F48057B3F9069060D18B4B27
:101388009B8A4B456FDC44F04004894B34601B78E2
:10139800190706D41E21824821F0FAFC002800F023
:1013A800C18024F08004834B1B88642BB5F8183166
:1013B8008CBF44F4806424F480641BB17E4B1B68AA
:1013C8009A0704D47D4BD3F8B430002B4ED044F4A4
:1013D80000647B4B346003F1780102E006338B42F2
:1013E80016D01A781F2AF9D19878DA78904202D361
:1013F8005A79002AF2D01F21694821F0C9FC20B18E
:10140800704B1B785B0740F1948044F4007434609F
:101418002221634821F0BCFC58BBB8F1000F2ED044
:10142800002C46D1002385F81A311FF065FCD5F849
:101438001C31C01A002841DBBDE8F84309F072BE30
:101448001821574821F0A4FC002898D15E4B1A7B3C
:10145800002A94D15549DA884B8A991A494592DA73
:1014680013444B458FDD24F040048EE724F40064D8
:10147800AFE744F400343460B8F1000F19D195F89F
:101488001431002B3AD19846002F41D1002144480D
:1014980021F07EFC002856D0002CC3D0B8F1000FF4
:1014A80007D1002F49D020B924F400243460002C3F
:1014B800B8D00223B7E724F0100457E7BDE8F88353
:1014C800424A95F8173117787BBB7FB341463448B9
:1014D80021F05EFC00284AD124F00804346025E09D
:1014E8003B4A3C4B91791A684FF47A7303FB01F33A
:1014F80093429CBF24F48074346024E724F40028C9
:1015080028F40068B8FA88F84FEA5818002FBDD0B8
:101518001821234821F03CFC18BB2B4B1B7B53B3F1
:101528000746B3E744F080043DE767BB85F81771C9
:1015380013E724F4007434606AE70028B4D044F454
:1015480000243460B5E724F02004014614483460D0
:1015580021F01EFC3CB1B8F1000FA4D1002FA2D19C
:10156800EBE7002792E700287FF45CAF9CE744F0A4
:1015780008043460DAE724F4002727F04007B7FAB4
:1015880087F77F0982E74146054821F001FC0028DA
:10159800CCD1A1E78446002018220020E44900208D
:1015A800A4390020D86B002084490020BC7B00208F
:1015B800084A0020F44C002094460020A452002041
:1015C800743D0020D0420020E0500020D836002092
:1015D800A07C002088600020F8B5734A1378D807EB
:1015E80000D4F8BD23F0010313701FF085FB6F4B87
:1015F8006F4D9A78C5F82001002A2CD16D4B1B88B5
:10160800002B4FD16C4A6D4B1178186881F001019D
:1016180020F0EAF96A4E6B4C33782BB123781BB172
:10162800694B1B68D9045BD5684B1B680022227084
:101638009A06D6D4664B1B689B0300F1AB806549BC
:1016480000220B461878042803F10C0333D001322A
:10165800182AF7D1C5E71B79022BCFD05E4C237827
:101668000B2B18D801229A4040F6030112EA010612
:10167800C4D112F4C06F0ED0093B012B0BD8452002
:1016880013F022F8FF2013F01FF8544812F08EFFD1
:10169800304613F019F8524A524B12685A600B231D
:1016A8002370ABE7504B5A69002AB3D0196800225F
:1016B8000A605A74AEE74D4D2C68530034B198183F
:1016C80001EB800064784078A0428AD21A44484CE2
:1016D8004848002301EB8201296023800360F8BD9C
:1016E800454B1F781FF008FB3378002B9CD0D5F8AA
:1016F800AC20002A98D100F51C5010300A214FF474
:101708007A72C5F8AC0085F8B510C5F8B020002F7E
:101718003BD03A461421394830F0ADFC384A138999
:10172800012FB3FA83F34FEA53132ED0B2F868109F
:10173800002918BF0023022F27D0B2F8C8100029AB
:1017480018BF0023032F20D0B2F82811002918BF92
:101758000023042F19D0B2F88811002918BF0023DC
:10176800052F12D0B2F8E811002918BF0023062F60
:101778000BD0B2F84812002918BF0023072F04D055
:10178800B2F8A822002A18BF002383F0010385F8C5
:10179800B43049E71B4B1B78032B7FF450AFBDE8EF
:1017A800F84009F009BF00BFD04200200A4A0020D3
:1017B8001822002060600020626000206460002021
:1017C800F06D0020E4490020D86B002084460020FA
:1017D800F07C0020A42D030820340020B05003081A
:1017E80088600020D039002068600020603C00201C
:1017F800803C0020843C0020FE7C0020CE2200207B
:10180800046E0020FD7C00202DE9F04F2DED0C8B9F
:1018180097B0049014F0AEF90B4B1B78052B00F031
:10182800DB840A4DD5F8243106938BB1581E064B3C
:10183800C5F824011B78012B00F0718417B0BDECAA
:101848000C8BBDE8F08F00BF607D002018220020BF
:10185800D14AD5F828311278511EC5F82411002B29
:1018680000F07582013BC5F82831CC4B0593CC4B71
:101878001A78052A00F0928200230793C94BCA49B7
:101888001B78D1F8009023B9C84B1B78002B40F087
:10189800A285C74B2B2AD3ED009A01F07782C54A5F
:1018A800C54BD2ED007A93ED006A9FEDC4AAC44BF4
:1018B800DFF870A3D3ED006AC24BDFF86C83B3F88E
:1018C80000B0DFEDC1AA9FEDC1CADFEDC1BA9FED3F
:1018D800C1BAC14CB7EE007A77EE677AB0EE4ADA51
:1018E80067EE867A0026F4EEC77AF1EE10FA88BF22
:1018F800F0EE477AF4EECA7AF1EE10FAB8BFF0EEDD
:101908004A7A67EEA67A67EEA99AB44BB7003B44C9
:10191800D3ED007A059BF5EE407A3B44F1EE10FAE0
:10192800D3ED00CA17D0AE4B3B4493ED007A7CEE62
:10193800C76AB0EEE66AF4EEC67AF1EE10FA08D598
:10194800F5EEC06AF1EE10FACCBF77EE87CA77EEF3
:1019580067CAC3ED00CA40F603031BEA030C00F094
:10196800A683022E00F0A68399F82D209D4B07EE42
:10197800902A3B4493ED007A5342F8EEE76A07EE6B
:10198800903A26EE877AF8EEE77AB4EEE77AF1EE47
:1019980010FA0AD407EE902AF8EE677AF4EEC77ABE
:1019A800F1EE10FA88BFF0EE477A8F4B8F4903EBC0
:1019B800460331F91620B3F90C30D21A07EE102A73
:1019C80040F60103B8EEC77A1BEA030FE7EE6A7A1E
:1019D80000F01683864BD3ED00CA67EEACCA854B80
:1019E80095F8480195F849213B4493ED018A002870
:1019F80000F05B82002A00F0D7813CEEC88A99F893
:101A080052107D4BD5F8542104981B68821A9A42CB
:101A18003DDD022901F08F82784B022E186840F0D4
:101A28008B83774BD3ED007AB1EE677AB4EEC87A40
:101A3800F1EE10FA00F3F384B4EEE78AF1EE10FA4F
:101A480088BFB0EE678A824284ED01DA40F396835C
:101A58006C4B1B68980740F1EB846449624BB1F901
:101A68000020B3F90CC06848A2EB0C02002A0068F9
:101A7800B8BF524282420ADAB1F90220B3F90E30F5
:101A8800D31A002BB8BF5B42984200F3D1845F4B56
:101A9800F0EE6C1A1B68B0EE4D1AF0EE690AB0EE63
:101AA800480A31464846984799F852302BB9454B71
:101AB800B3F800B01BF4006F10D0554B1B7853B926
:101AC800544B95F849211B7813F0010340F0198510
:101AD800002A40F061853B4BB3F800B0BBF1000F22
:101AE80000F0EB8184ED03DA4B4BEAEC01CA1B787A
:101AF8004BB1022E84ED01DA05D084ED00DA84EDD5
:101B080002DA84ED03DA95F85831002B40F0288288
:101B1800B0EE4A6A84ED00DA84ED01DA84ED02DA87
:101B280084ED03DAD4ED007AD4ED016A94ED027AFB
:101B380077EEA67A013677EE877A032E77EE867AE5
:101B480008F12408C4ED047A04F114047FF4DDAE2E
:101B5800134B1B78052B01F06D812E4B93F800A0D9
:101B68001AF0010A04D02D4B1B78D90640F1E28304
:101B78002B4C0B4B1B780022202BC5F85C2100F066
:101B8800BA84012B01F04081052B00F06384214BBE
:101B980093F800A04AE000BFDC4C00207C510020F4
:101BA800607D0020384F00208C4600200D51002019
:101BB800442000205C4B00200C4F00200000000057
:101BC800907E002088460020CDCCCC3D6F12033B90
:101BD80000007A4400007AC4B43C0020004F002082
:101BE80054230020A0510020883C002044460020B7
:101BF800E84E0020F05F0020184F0020144F00200E
:101C0800304F0020944600201C4F00203C4F0020FD
:101C1800643C0020D0420020653C0020084A002097
:101C2800E449002048230020AC7E00204FF0000B40
:101C38000AF0010A2378002B40F01984CC4BCD4CD4
:101C48001E682368CC4A96F84A7092ED038ADFF83A
:101C58004493DB0440F1EC84B9F81280BAF1000F28
:101C680001D1A5F86C811821C44821F091F820B958
:101C7800C34B1A7B002A01F04F87B9F81430A3F53B
:101C88007A7303EBD373C3F34F03A8EB03029844AF
:101C980092B21FFA88F807EE902AF8EEE77AC8F5AC
:101CA800FA61A2F57A7306EE901A07EE103AF4EE8E
:101CB800C87AF1EE10FAB8EEC77AF8EEE66A95F946
:101CC8006E1182F2A68307EE908AF8EEE77AF4EEB8
:101CD800C87AF1EE10FA41F2AA86B5F86C3193424F
:101CE80004D8A74B1B7B002B02F0E98395F88C31B5
:101CF800002B42F0E483D5ED617A95ED627AC5ED6B
:101D08005C7A37EE676A0129C5ED5A7A85ED596A1A
:101D180085ED5E7A02F01886049BC5F87C310022B6
:101D28000123B0EE667AC5F8802185F86E31954AB0
:101D3800D5ED607A92F800A0934A0023536093612E
:101D4800D3628B4B0AF0010A1E6800F08DBC8F4BE2
:101D5800997919B19B78012B01F09C8695F8163179
:101D68009BB18B4A8B4BB2F906209B8A9A420CDCBA
:101D7800894B1B780E2B08D0082B06D087497E4A42
:101D88000591002393608B6001E0844B059327F055
:101D980093FF834B1A78052A7FF46EAD1EF0ACFFD3
:101DA8007F4B07901A7869E5BCF1000F40F0B481C9
:101DB8007C4B7D49DFF820C231F91610DFF81CB2E0
:101DC8005CF807E0DBED006A03EB4603F5EEC0CAFA
:101DD800B3F90C30C91A07EE901AB8EEE70AF1EE1B
:101DE80010FA20EE2A0AB7EE007AFFEE007AB5EE76
:101DF800C00AD4BFF0EE675AF0EE475ACCBF4FF096
:101E0800010B4FF0FF3BF1EE10FAC8BFF0EE477A36
:101E1800CCBF01234FF0FF33B0EEC07ABEF1000F04
:101E280003D0DE4511D04CF80720B4EEE67AF1EE87
:101E380010FA41F338869B4541F035864CF807B0D7
:101E48000246BBF1000F01F02E86F0EE40CAD7EE35
:101E5800A6CA564BD3ED007A6CEEA7CAF0EE4D8AAF
:101E6800F4EEEBCAF1EE10FA88BFF0EE6BCAF4EEAE
:101E7800CBCAF1EE10FAB8BFF0EE4BCA002A42F016
:101E880005834B4B1B78B34240F04681444B1B788B
:101E9800272B00F02A81022E40F03E81454B1B780B
:101EA800002B42F07C8795F849213CEEC88A002A2D
:101EB8003FF4EDAD99F85210A3E53F4B03EB061341
:101EC80093ED039AB5EEC09AF1EE10FA7FF70AAED9
:101ED8003A4BD3ED007AF5EEC07AF1EE10FA7FDCDA
:101EE800B7EE008A364BDAED008A1F78B7427CEEEF
:101EF800E88A00F0EC80334B1B7853B1324B1B78E7
:101F0800012B00F03983022B00F0AF81B74200F0BB
:101F1800D5812E4A2E4BD2ED007A1B7829EE279ACE
:101F280029EE088A68EE288AC4ED038A002B3FF45C
:101F3800DBADD4ED007A28EEA77AB5EEC07AF1EEE3
:101F480010FA7FF7D1ADF0EEE88AF0EEE77AF4EE1A
:101F5800E78AF1EE10FA7FF7C5AD84ED00DAC3E544
:101F68001C4B1B78002B7FF4D3AD94ED036AD9E5A5
:101F78008C460020D86B0020F03C0020A4390020BB
:101F8800E0500020D0420020B43C00200060002037
:101F980084490020BC7B0020743B00207C51002039
:101FA800607D0020883C0020444600204C4F0020E3
:101FB800484F0020653C0020284B0020E44E0020BC
:101FC8008D7E00208F7E00208E7E00206C4B0020AE
:101FD800394F0020643C002064230020404F00203B
:101FE800BD4B1F4497ED008A27EE888AF7EE007AEA
:101FF800B4EEE78AF1EE10FA88BFB0EE678A71E7AF
:10200800B54AB1F9003092ED007AD2ED016AB1F922
:102018000220B249F4EEC76AF1EE10FAB4BFB0EE8E
:10202800476AB0EE666A002BB8BF5B42002AB8BFA9
:1020380052429342B8BF134607EE103AA84A0B78AB
:1020480092ED005AB8EEC77A27EE2A7A002B00F0F4
:10205800CB80B5EEC05AF1EE10FA40F30582A14BE1
:10206800D3ED004AF5EEC04AF1EE10FA40F3FC81D8
:1020780034EEC77ADFED9C5AC7EE246A66EE255A1D
:10208800B7EE007A85EE856AF4EEC76AF1EE10FACB
:1020980088BFF0EE476AF5EEC06AF1EE10FA36EE48
:1020A800077AB8BFF0EE4D6A26EE877AC4E0022EB2
:1020B8007FF495AC8D4B95F849211B78002B8C4B00
:1020C8003B4493ED018A18BFF0EE4DCAEDE6894B0B
:1020D8001B78282B7FF40FAF9FED870A28EE800A24
:1020E8002FF000F9854B588005E7B2EE049A20EEF0
:1020F800090A2FF0F7F8814B0893B0EE6C0A1880A4
:10210800A3F802B02FF0EEF8089B28EE890A988011
:102118002FF0E8F8089BD8803CEEC88AB7E4784BE3
:10212800784A19681288754BC96919805A8017B09E
:10213800BDEC0C8BBDE8F08F734B1B689B0740F11F
:102148007281724B7249DFF8E8B131F916E0DBEDC4
:1021580000CA84ED01DA03EB460C6CEEAACABCF99E
:102168000CC0ACEB0E0C07EE90CAF8EEE77A824290
:1021780067EEACCA3CEEC88A3FF771AC654B93ED8D
:10218800007AF7EE007AB4EEE77AF1EE10FA7FF50E
:102198007EAC574A604BD2ED017A93ED007AF0EEAF
:1021A800E77AF4EEC77AF1EE10FA7FF570ACD2ED6B
:1021B800027AF0EEE77AB4EEE77AF1EE10FA7FF7FA
:1021C80066ACD2ED037AF0EEE77AB4EEE77AF1EE98
:1021D80010FA3FF73DAC5AE41EF08EFD049B474CC5
:1021E800C01A2080FFF71DBB4C4BDFED4D6AD3EDC5
:1021F800005AF4EEE65AF1EE10FA0FD5F7EE004A5F
:1022080034EEE54ADFED476ADFED474A36EEC77A36
:1022180064EE244AE7EE245A25EE255AB5EEC05A54
:10222800F1EE10FA40F220819FED337AC7EE056A8D
:10223800B7EE007AA6EE667AB7EE006AB4EEC67A12
:10224800F1EE10FA88BFB0EE467AB5EEC07AF1EE3C
:1022580010FAB8BFB0EE4D7A344BD3ED006A67EE92
:10226800A67AE7EE87CAFFF7BABB98ED027AD8EDEF
:10227800067A98ED056AD8ED015AD8ED076A88ED17
:10228800066A67EE277A98ED037AC8ED058AE5EEC7
:10229800867AB74298ED086AD8ED045AC8ED086AFC
:1022A800E7EE667A98ED007AE5EEC67AE8EE877A88
:1022B800F0EE678AC8ED077A7FF42BAE0D4B1B78DA
:1022C800282B7FF426AE9FED0C0A28EE800A2FF00B
:1022D80009F80A4B98801CE6AC510020F44E002007
:1022E800F04E0020F84E00200000C8C2653C0020D7
:1022F800F05F0020607D00200000C842E47C0020E0
:10230800483C0020F44C002094460020883C0020E3
:10231800444600205C4B0020204F0020FC4E00204B
:10232800AE47813F00003443610BB63BEC4E0020C2
:10233800E84E0020A14B5B78002B3FF419AC95F8D0
:1023480059319F4C002B7FF414AC2378002B7FF479
:1023580010AC95F85A31002B7FF40BAC994B1B68E5
:10236800DA0602F1D683984B9FED987AD3ED097A75
:10237800F0EEE77AF4EEC77AF1EE10FA82F23D83D6
:10238800D3ED047AF0EEE77AF4EEC77AF1EE10FABC
:1023980082F23383D3ED0E7AF0EEE77AF4EEC77A61
:1023A800F1EE10FA82F229830023C5F85C31884BDC
:1023B8001B78202B7FF4E5ABD5F85C318549864A3C
:1023C80091F800A0003318BF012353800123138024
:1023D8000AEA030A91E0814BD5ED4B6A1B889FED11
:1023E800806A8049A3F57A7307EE903AB0EEE67AF0
:1023F800F8EEE77A27EE067AF7EE009AE7EE879A84
:102408002B2AC1ED009A7FF44AAA9FED770A724CF5
:1024180026EE800A2EF066FF608000F0B8BCB0EEB1
:10242800478AFFF710BB824284ED01DA7FF7A6AE38
:102438006E4B1A88002385F84931002A42F02A8019
:102448006B4A6C4B1178186881F001011FF0CCFAC7
:10245800FFF71DBB1EF050FC5E4B93F800A08346AF
:102468000AF0010AFFF7E6BB9FED637AF4E6634ED4
:102478003778BAF1000F41F07F80002F02F0148006
:10248800BA005F495F482FF0D2FD5F4B1B7893B1CC
:10249800DFF87081DFF894910024E0B2D9F80030B9
:1024A800B8EC010A984737780134BC42F5DB574B42
:1024B80038461B689847464B1B78052B00F07084FC
:1024C800534A1278002A7FF4B6A9524C94F8028035
:1024D800B8F1000F40F04C853D4B1B78052B7FF47D
:1024E800AAA91EF009FC06993B4A394B401A1B78E9
:1024F800D080FFF7A0B9384B1A604FF0000BFFF7F8
:1025080099BB454B93ED007AF7EE007AB4EEE77A83
:10251800F1EE10FAC0F29684002A40F096843F4B00
:10252800D3ED007AB0EEC00AB4EEE70AF1EE10FA85
:102538007FF7D1AA3A4BD3ED007AB0EEC87AB4EE61
:10254800E77AF1EE10FA7FF7C6AA059B35493B44B6
:10255800D3ED007A91ED007AF0EEE77AF4EEC77ADF
:10256800F1EE10FA7FF5B7AA01230499C5F85411C2
:1025780085F8493100F06DBC2B4B03EBC603D3ED56
:10258800007A93ED017A78EEE78AE7EE287AF0EEA2
:10259800678AC3ED007AB9E4144A85F8493112888C
:1025A800002A41F02187124A124B1178186881F0ED
:1025B80001011FF019FAFFF78EBA00BFDC4C0020AA
:1025C800E4490020D86B0020B43C002000001644E9
:1025D800607D0020D0420020E47C0020104F0020C5
:1025E8000AD7233C4420002000007A446060002081
:1025F800626000206460002000000000FE7C002073
:10260800E44B0020003D0020B87B0020FC6D00203A
:10261800584400200A4A00205C4B0020284F002024
:10262800244F00202C4F0020947E0020F46D0020C1
:10263800B9F81420E84B95ED626AD3ED006A95ED80
:10264800647AC5ED5C6A07EE902AF8EEE77A76EED2
:10265800665A012378EE677AC5ED5A6AC5ED595A6C
:1026680085ED5E6A85F86E31C7EE876A338D5A420A
:10267800B7EE007AF4EEC76AF1EE10FA07EE902A88
:10268800D64A88BFF0EE476AF5EEC06A9FEDD47A65
:1026980092ED045AF8EEE77AF1EE10FAB8BFF0EED0
:1026A800476AB4EEE75A07EE103AF1EE10FAC5EDB4
:1026B800606AB8EE477A00F16383B4EEC75AF1EE68
:1026C80010FA88BFB0EE475AC44B9FEDC66AD3EDE7
:1026D800094AF4EEE47AF1EE10FA25EE065A00F310
:1026E8005283B4EEE47AF1EE10FA98BFF0EE474A5E
:1026F800BA4BDFEDBC5A93ED0E6AF4EEC67AF1EEF2
:1027080010FA64EEA54A08DCB4EEC67AF1EE10FAC7
:102718008CBFF0EE467AF0EE477AB34BDFEDB15A54
:102728005B7867EEA55A0BB9F1EE655A002F40F0B9
:10273800C683F7EE003AAD4B1B681A7CC2B15B7CCE
:10274800632B13D807EE903A9FEDA97AF8EEE77A53
:10275800012A67EE877A01F09A84022A06D1F4EEFC
:10276800E76AF1EE10FA88BFF0EE676AC5ED606AB5
:10277800A04AA14B11681B7801F40001002B40F01E
:10278800CE839E4E3778002F01F03B869C4B9FED01
:10279800946AD3ED027A93ED014A93ED037A64EEDD
:1027A800A77AE5EE047AE5EE877A63EEA77AF4EE87
:1027B800C67AF1EE10FA8CBFB0EE464AB0EE674A20
:1027C800C8BFB0EE676A012FCDED0E7A00F0D98050
:1027D80093ED067A93ED053AD3ED077A24EE877ADE
:1027E800A5EE037AA5EEA77A23EE877AB4EEC67A29
:1027F800F1EE10FA00F3E982B4EEC74AF1EE10FAEE
:1028080088BFB0EE474A022F8DED0F7A00F0B980ED
:1028180093ED0A7A93ED093AD3ED0B7A24EE877A91
:10282800A5EE037AA7EEA57A27EE237AB4EEC67A48
:10283800F1EE10FA00F34083B4EEC74AF1EE10FA55
:1028480088BFB0EE474A032F8DED107A00F09980CB
:1028580093ED0E7A93ED0D3AD3ED0F7A24EE877A45
:10286800A3EE057AA7EEA57A27EE237AB4EEC67A08
:10287800F1EE10FA00F3CC83B4EEC74AF1EE10FA89
:1028880088BFB0EE474A042F8DED117A79D0D3ED89
:10289800127A93ED113A93ED137A64EEA77AE3EE88
:1028A800057AE7EE257A67EEA37AF4EEC67AF1EEBA
:1028B80010FA01F39080B4EEE74AF1EE10FA88BFFF
:1028C800B0EE674A052FCDED127A5AD0D3ED167ABD
:1028D80093ED153A93ED177A64EEA77AE3EE057A4D
:1028E800E7EE257A67EEA37AF4EEC67AF1EE10FAEF
:1028F80001F39180B4EEE74AF1EE10FA88BFB0EE2A
:10290800674A062FCDED137A3BD0D3ED1A7A93EDB3
:10291800193A93ED1B7A64EEA77AE3EE057AE7EEAF
:10292800257A67EEA37AF4EEC67AF1EE10FA01F38F
:102938007A80B4EEE74AF1EE10FA88BFB0EE674A43
:10294800072FCDED147A1CD0D3ED1E7A93ED1D3AE6
:1029580093ED1F7A64EEA74AE5EE034AE5EE874A4F
:1029680063EEA43AB4EEE36AF1EE10FA01F17B8566
:10297800B4EEE34AF1EE10FA88BFB0EE634ACDED4B
:10298800153A76EE447A1F4B1B7873B91E4B93EDBC
:10299800007A93ED015A76EEC75AA5EE257A76EEBF
:1029A800C75A83ED007AC5ED4B5A184B9FED0C5A68
:1029B800D3ED005AF4EEC55AF1EE10FA40DD144B8F
:1029C80093ED007A93ED013A76EEC73AF7EE004AB6
:1029D800A3EE237A1EE000BF203D0020B43C002077
:1029E800000000006F12833A743B002090460020DC
:1029F8000AD7233CA4390020653C0020FE7C002037
:102A080058500020384F0020DC4E0020344F002062
:102A1800D04E002076EEC73A83ED007AE5EEA36A41
:102A2800F4EEE46AF1EE10FA88BFF0EE646AF4EEB0
:102A3800C56AF1EE10FAB8BFF0EE456AC5ED606AF6
:102A4800F7EE005AE24BF4EEE57AF1EE10FAC3ED38
:102A5800007A40F3C887FFB385EEA77A012FDDED32
:102A68000E7A67EE877ACDED0E7A35D0DDED0F7AE6
:102A780067EE877A022FCDED0F7A2DD0DDED107A33
:102A880067EE877A032FCDED107A25D0DDED117A28
:102A980067EE877A042FCDED117A1DD0DDED127A1D
:102AA80067EE877A052FCDED127A15D0DDED137A12
:102AB80067EE877A062FCDED137A0DD0DDED147A07
:102AC80067EE877A072FCDED147A05D0DDED157AFC
:102AD80027EE877A8DED157A002900F09C82F6EEB4
:102AE800006AC5ED606A002F00F04081B948BA4A13
:102AF8002368DFF808C3C47895ED5C6A95F96E0120
:102B08001288DCED005ADFF8F882DFF8F8C295ED9C
:102B18005E5A9CF800E095ED594AD5ED5A4A07EE01
:102B2800900AFDEEC63AB9F81400079002F4006264
:102B3800B8F906900592BDEEE57A03F0100C03F49F
:102B4800805803F48000F8EEE77A13EE902ABDEE81
:102B5800C55A002C40F09282A04B9DED0E6A93ED71
:102B6800007A26EE877AA7EE867AB0EE646AA4EE3B
:102B7800076ABDEEC67ABCF1000F03D0B8F1000FAA
:102B880001F00F8517EE101A8A4200F3208715EE20
:102B9800100A8142A8BF014607EE101AB8EEC77A9C
:102BA8008F49012F81ED007A00F0D88093ED047AE7
:102BB8009DED0F6A26EE877AA7EE867AB0EE646AF4
:102BC800A4EE076ABDEEC67A17EE100A824200F339
:102BD800068715EE104AA042A8BF204607EE100A45
:102BE800B8EEC77A022F81ED017A00F0B78093ED35
:102BF800087A9DED106A26EE877AA7EE867AB0EEFF
:102C0800646AA4EE076ABDEEC67A17EE100A82421D
:102C180000F3058715EE104AA042A8BF204607EE2C
:102C2800100AB8EEC77A032F81ED027A00F0968079
:102C380093ED0C7A9DED116A26EE877AA7EE867AD7
:102C4800B0EE646AA4EE076ABDEEC67A17EE100A03
:102C5800824240F3168707EE102AB8EEC77A042F8F
:102C680081ED037A7AD093ED107A9DED126A26EE03
:102C7800877AA7EE867AB0EE646AA4EE076ABDEE9C
:102C8800C67A17EE100A824201F3F18315EE104A54
:102C9800A042A8BF204607EE100AB8EEC77A052F53
:102CA80081ED047A5AD093ED147A9DED136A26EEDD
:102CB800877AA7EE867AB0EE646AA4EE076ABDEE5C
:102CC800C67A17EE100A824201F3F58315EE104A10
:102CD800A042A8BF204607EE100AB8EEC77A062F12
:102CE80081ED057A3AD093ED187A9DED146A26EEB7
:102CF800877AA7EE867AB0EE646AA4EE076ABDEE1C
:102D0800C67A17EE100A824201F3478415EE104A7C
:102D1800A042A8BF204607EE100AB8EEC77A072FD0
:102D280081ED067A1AD093ED1C7A9DED156A66EE50
:102D3800876AE7EE866AE4EE264AFDEEE47A17EE45
:102D4800903A9A4204DC15EE102A9A42A8BF1A4615
:102D580007EE902AF8EEE77AC1ED077ABAF1000F8C
:102D680004D1BA001F491E482FF061F91E4B1B7889
:102D7800002B3FF4A0AB002F7FF48AABFFF797BB83
:102D8800B0EE675AA0E4F0EE674AB1E4174C9FED45
:102D9800180A29EE800A2EF0A5FA2080FEF77FBDDA
:102DA8001DF0AAFF134B114A1B78A0EB0B00052B53
:102DB800908040F0D1801DF09FFF0F4B06901B784C
:102DC800002B7FF489ABFFF780BBB0EE476A1AE5AA
:102DD8005C4B0020D4420020884600205850002038
:102DE800003D0020E44B0020B87B0020E47C00205C
:102DF80000007A44607D002058440020E04B002009
:102E080084490020F06D00201DF076FF844AD5F833
:102E180060311268834983468348C5F860B1ABEBDB
:102E2800030390F800A08B809A1ACA800AF0010A5E
:102E3800FEF700BF1DF060FF079A7A4B801A588092
:102E4800FEF78BBE002A3EF446AED5F85421049B0B
:102E58009A1A764B1B6893427EF73DAE744BD3EDBE
:102E6800007AB0EEC88AB4EEE78AF1EE10FA0ED412
:102E7800059B704A3B44D3ED007A92ED007AF0EE60
:102E8800E77AF4EEC77AF1EE10FA7EF724AE6A4BD1
:102E98001B88002285F84921002B3FF484AB674B3F
:102EA8006749B3F800B04B69002B3EF417AE0B68C6
:102EB8001A604A74FEF712BEB0EE476AC3E4614B6B
:102EC8005A79002A3FF435AC5F4A1278002A3FF459
:102ED80030AC1B789FED5D4A07EE903A5C4BB8EE3C
:102EE800677A1B8807EE902A06EE103AF8EEE77A22
:102EF800B8EE466A67EE277AB7EE007AC7EE863AEA
:102F0800F4EEC43AF1EE10FA88BFF0EE443AF4EE6B
:102F1800C73AF1EE10FAB8BFF0EE473A0BE40029D1
:102F28007FF42FAC23685A023FF52BACF6EE006A0B
:102F3800C5ED606A25E4404B1B88002B41F01A83DD
:102F4800444A454B117818681EF04EFDD5F85421B7
:102F5800049B9A1AFEF760BD404A1278002A7EF454
:102F68006AAC3F4C94F80280B8F1000F3EF463ACB1
:102F78003C4E3378013B0D2B32D8DFE813F077094C
:102F8800290A2B090B0A310031008809A00909090F
:102F9800F1080E00E308D608CC08334B334A5B68C7
:102FA8001268C833934204D311F0ECFA94F8028003
:102FB800B0B1B8F1010F01F01686B8F1030F0BD1CB
:102FC8002B4F386808F0DBF82A4B1B780022022BBD
:102FD8003A6001D108F07CFA012394F8028033703A
:102FE800B8F1010F01F08D822379012B01F0618086
:102FF800022B7FF471AA3378012B7FF46DAA1E4B44
:103008001B78002B7FF468AA11F0A0FFFFF764BAC1
:10301800B0EE476A37E423685B023FF560AD62E5CE
:10302800E07D0020E47C0020D0420020184F0020E2
:10303800244F00202C4F002060600020884600208C
:1030480068600020207C0020FC7C0020713DAA3FA5
:10305800D07C00206260002064600020584400207A
:103068000A4A002020340020D0390020886000203F
:103078000C390020E0390020853B0020BCF1000F0E
:1030880000F04881B8F1000F40F04481002901F0B8
:103098006C849E4BDDED0E3AD3ED005A66EEA55AD0
:1030A800E7EEA35AF0EE643AE4EE253AF0EE635AFE
:1030B800BEF1000F01F00685B4EEE36AF1EE10FAF6
:1030C80041F3008517EE102A15EE101A8A42A8BFA0
:1030D8000A4605EE902AF8EEE55A8D49012FC1ED12
:1030E800005A3FF43BAED3ED045ADDED0F3A66EEDD
:1030F800A55AE7EEA35AF0EE643AE4EE253AF0EE6C
:10310800635ABEF1000F01F01085B4EEE36AF1EEE8
:1031180010FA41F30A8517EE102A15EE100A8242BA
:10312800A8BF024605EE902AF8EEE55A022FC1ED37
:10313800015A3FF413AED3ED085ADDED103A66EEAE
:10314800A55AE7EEA35AF0EE643AE4EE253AF0EE1B
:10315800635ABEF1000F01F0F784B4EEE36AF1EEB2
:1031680010FA41F3F18417EE102A15EE100A824284
:10317800A8BF024605EE902AF8EEE55A032FC1EDE6
:10318800025A3FF4EBADD3ED0C5ADDED113A66EE81
:10319800A55AE7EEA35AF0EE643AE4EE253AF0EECB
:1031A800635ABEF1000F01F0DC84B4EEE36AF1EE7D
:1031B80010FA41F3D68417EE102A15EE100A82424F
:1031C800A8BF024605EE902AF8EEE55A042FC1ED95
:1031D800035A3FF4C3ADD3ED105ADDED123A66EE53
:1031E800A55AE7EEA35AF0EE643AE4EE253AF0EE7B
:1031F800635ABEF1000F01F0C184B4EEE36AF1EE48
:1032080010FA41F3BB8417EE102A15EE100A824219
:10321800A8BF024605EE902AF8EEE55A052FC1ED43
:10322800045A3FF49BADD3ED145ADDED133A66EE24
:10323800A55AE7EEA35AF0EE643AE4EE253AF0EE2A
:10324800635ABEF1000F01F0B384B4EEE36AF1EE05
:1032580010FA41F3AD8417EE102A15EE100A8242D7
:10326800A8BF024605EE902AF8EEE55A062FC1EDF2
:10327800055A3FF473ADD3ED185ADDED143A66EEF6
:10328800A55AE7EEA35AF0EE643AE4EE253AF0EEDA
:10329800635ABEF1000F01F07E84B4EEE36AF1EEEA
:1032A80010FA41F3788417EE102A15EE100A8242BC
:1032B800A8BF024605EE902AF8EEE55A072FC1EDA1
:1032C800065A3FF44BADD3ED1C5ADDED153A66EEC8
:1032D800A56AE7EEA36AE4EE264ABEF1000F00F005
:1032E800CB86B4EEE46AF1EE10FA40F3C58617EE29
:1032F800103A15EE102A9A42A8BF1A4607EE102A6D
:10330800B8EEC77A81ED077A28E500BF585000204B
:10331800003D0020964BBEF1000F00F0AD85D3EDC7
:10332800005ADDED0E3A66EEA55AE7EEA35AF0EE26
:10333800643AE4EE253AB4EEE36AF1EE10FA01F3EA
:103348006182FDEEE35A17EE101A15EE902A9142AB
:10335800C8BFF0EE475A41F35782F8EEE55A85495F
:10336800012FC1ED005A3FF4F9ACD3ED045ADDED5D
:103378000F3A66EEA55AE7EEA35AF0EE643AE4EE89
:10338800253AB4EEE36AF1EE10FA01F35F82FDEE3E
:10339800E35A17EE100A15EE902A9042C8BFF0EED5
:1033A800475A41F35582F8EEE55A022FC1ED015A0A
:1033B8003FF4D4ACD3ED085ADDED103A66EEA55AC9
:1033C800E7EEA35AF0EE643AE4EE253AB4EEE36A87
:1033D800F1EE10FA01F34582FDEEE35A17EE100AFA
:1033E80015EE902A9042C8BFF0EE475A41F33B824F
:1033F800F8EEE55A032FC1ED025A3FF4AFACD3ED16
:103408000C5ADDED113A66EEA55AE7EEA35AF0EE36
:10341800643AE4EE253AB4EEE36AF1EE10FA01F309
:103428003B82FDEEE35A17EE100A15EE902A904201
:10343800C8BFF0EE475A41F33182F8EEE55A042F3F
:10344800C1ED035A3FF48AACD3ED105ADDED123AC0
:1034580066EEA55AE7EEA35AF0EE643AE4EE253A92
:10346800B4EEE36AF1EE10FA01F32982FDEEE35AB5
:1034780017EE100A15EE902A9042C8BFF0EE475A90
:1034880041F31F82F8EEE55A052FC1ED045A3FF4C7
:1034980065ACD3ED145ADDED133A66EEA55AE7EEA6
:1034A800A35AF0EE643AE4EE253AB4EEE36AF1EE9C
:1034B80010FA01F31382FDEEE35A17EE100A15EE27
:1034C800902A9042C8BFF0EE475A41F30982F8EEBD
:1034D800E55A062FC1ED055A3FF440ACD3ED185A12
:1034E800DDED143A66EEA55AE7EEA35AF0EE643A1B
:1034F800E4EE253AB4EEE36AF1EE10FA01F3058240
:10350800FDEEE35A17EE100A15EE902A9042C8BF56
:10351800F0EE475A41F3FB81F8EEE55A072FC1ED6B
:10352800065A3FF41BACD3ED1C5ADDED153A66EE96
:10353800A56AE7EEA36AE4EE264AB4EEE46AF1EE81
:1035480010FA0ADCFDEEE47A17EE102A17EE903A2C
:103558009A423FF7D5AEB0EE677A17EE103A15EEFD
:10356800102A9342A8BF134607EE103AC8E600BFD8
:1035780058500020003D0020E44AE54BD2ED017A86
:1035880093ED006A92ED005AD3ED016A92ED027A4A
:10359800E04A93ED024A5178F5EEC07AF1EE10FA5E
:1035A800B5EEC05A26EE065AF7EE007AA6EEA65AEF
:1035B800FFEE005A54BFF0EE654AF0EE674AF1EEAE
:1035C80010FAB5EEC07A54BFB0EE657AB0EE677AFD
:1035D800F1EE10FA54BFF0EE653AF0EE673A58BFD4
:1035E800F0EE675AF1EEC57A0029B4EEE66A18BF24
:1035F800F0EE635AF1EE10FAB4BFF0EE663AF0EE70
:10360800463AF4EEC43AF1EE10FA9FEDC35A4ABFB7
:103618009FEDC27ADFEDC15AF0EE447A27EE855A63
:1036280036EE263A9FEDBE4AC3EE053A48BFF0EEA5
:10363800474AF4EEC43AF1EE10FA00F160829FEDC9
:10364800B95ADFEDB66A9FEDB86A77EEC57AF4EE3F
:10365800E67AF1EE10FAB8BFF0EE667A27EE866ADF
:10366800002F00F021879378DFEDB06AB04AD5EDDE
:103678005A7A92ED004AD5ED593A05EE103AB8EE6D
:10368800453AB3EE045A23EE263A37EE855A002B14
:1036980040F05282A74BA849D3ED016AD3ED022A24
:1036A80093ED033A67EE266AE4EEA26AE5EE836AD2
:1036B800B7EE003AF5EEC06AF1EE10FA48BFF0EE48
:1036C800446A66EE266AF4EEC36AF1EE10FA88BF21
:1036D800F0EE436AB0EE673AA3EEA63AB4EEC35AE8
:1036E800F1EE10FAF0EE436A9ABFB3EE043A76EEC2
:1036F800C36AF0EE446A012FC1ED006A3EF4C5AE1C
:10370800D3ED056AD3ED062A93ED073A67EE266AEC
:10371800E4EEA26AE5EE836AB7EE003AF5EEC06A17
:10372800F1EE10FA48BFF0EE446A66EE266AF4EE4F
:10373800C36AF1EE10FA88BFF0EE436AB0EE673A5A
:10374800A3EEA63AB4EEC35AF1EE10FAF0EE436ACD
:103758009ABFB3EE043A76EEC36AF0EE446A022FDB
:10376800C1ED016A3EF491AED3ED096AD3ED0A2AA0
:1037780093ED0B3A67EE266AE4EEA26AE5EE836AF9
:10378800B7EE003AF5EEC06AF1EE10FA48BFF0EE77
:10379800446A66EE266AF4EEC36AF1EE10FA88BF50
:1037A800F0EE436AB0EE673AA3EEA63AB4EEC35A17
:1037B800F1EE10FAF0EE436A9ABFB3EE043A76EEF1
:1037C800C36AF0EE446A032FC1ED026A3EF45DAEAF
:1037D800D3ED0D6AD3ED0E2A93ED0F3A67EE266A04
:1037E800E4EEA26AE5EE836AB7EE003AF5EEC06A47
:1037F800F1EE10FA48BFF0EE446A66EE266AF4EE7F
:10380800C36AF1EE10FA88BFF0EE436AB0EE673A89
:10381800A3EEA63AB4EEC35AF1EE10FAF0EE436AFC
:103828009ABFB3EE043A76EEC36AF0EE446A042F08
:10383800C1ED036A3EF429AED3ED116AD3ED122A25
:1038480093ED133A67EE266AE4EEA26AE5EE836A20
:10385800B7EE003AF5EEC06AF1EE10FA48BFF0EEA6
:10386800446A66EE266AF4EEC36AF1EE10FA88BF7F
:10387800F0EE436AB0EE673AA3EEA63AB4EEC35A46
:10388800F1EE10FAF0EE436A9ABFB3EE043A76EE20
:10389800C36AF0EE446A052FC1ED046A3EF4F5AD43
:1038A800D3ED156AD3ED162A93ED173A67EE266A1B
:1038B800E4EEA26AE5EE836AB7EE003AF5EEC06A76
:1038C800F1EE10FA48BFF0EE446A66EE266AF4EEAE
:1038D800C36AF1EE10FA88BFF0EE436AB0EE673AB9
:1038E800A3EEA63AB4EEC35AF1EE10FAF0EE436A2C
:1038F8009ABFB3EE043A76EEC36AF0EE446A062F36
:10390800C1ED056A3EF4C1AD18E000BFA05100202A
:10391800AC510020743B0020F304B53F00000000C8
:10392800D7B35D3F9A99193E9696963F0AD723BC1E
:10393800E04B002058500020003D0020D3ED196ACC
:10394800D3ED1A2A93ED1B3A67EE266AE4EEA26AD3
:10395800E5EE836AB7EE003AF5EEC06AF1EE10FACA
:1039680048BFF0EE446A66EE266AF4EEC36AF1EEEA
:1039780010FA88BFF0EE436AB0EE673AA3EEA63AB3
:10398800B4EEC35AF1EE10FAF0EE436A9ABFB3EE02
:10399800043A76EEC36AF0EE446A072FC1ED066A70
:1039A8003EF473ADD3ED1D6AD3ED1E2A93ED1F3A95
:1039B80027EE267AA4EEA27AA5EE837AB5EEC07A2F
:1039C800F1EE10FA40F13982B0EE447A35E207EEB2
:1039D800102AFFF7E3B8B0EE676AFEF773BF07EE89
:1039E800102AFFF7FDB8002900F05583B1EE444ACC
:1039F800B4EEE64AF1EE10FA00F3FC86F7EE007A30
:103A080077EEC67AF4EEE76AF1EE10FA88BFF0EEC8
:103A1800676AFFF766B8B0EE676AFEF772BF07EE2F
:103A2800102AFFF7FEB8B0EE676AFEF789BF95ED7A
:103A3800617A95ED626A85ED5C7A76EE475A0129DE
:103A480085ED5A7AC5ED595A85ED5E6A00F0E5862E
:103A5800049BC5F87C31002378EE677ABCEEC88AEF
:103A6800012218EE101AC5ED607AB0EE667AA5F854
:103A78006C1185F86E212D4A93423EF6F5ADFEF79E
:103A880056B915EE104AA042A8BF204607EE100A04
:103A9800FFF7E3B8012A00F0D086022A08BFC5F86C
:103AA8002831FEF75BB9224BF0EEC87A67EE8C7AC4
:103AB80093ED007AB7EE006AF4EEC67AF1EE10FAEA
:103AC80028EE077A88BFF0EE467AF0EE408AE7EEF5
:103AD800278AF5EEC08AF0EEE87AF1EE10FAF4EEF5
:103AE800E67ACCBF01234FF0FF33F1EE10FA02DD86
:103AF8009B4500F0C0844FF0000BFEF7BFB9B4EE51
:103B0800E66ADFED0C6AF1EE10FAD8BFB0EE667A1D
:103B180088BFF0EE664A92E5DB88A8EB030298447A
:103B280092B21FFA88F8FEF7B6B800BF8FD003002C
:103B3800444F002000000000CD4BCE49D3ED016A70
:103B480093ED022AD3ED032A67EE266AE4EE826A31
:103B5800E5EEA26AF7EE002AF5EEC06AF1EE10FA79
:103B680048BF66EE836A66EE266AF4EEE26AF1EE14
:103B780010FA88BFF0EE626AF0EE672AE3EEA62A32
:103B8800B4EEE25AF1EE10FAF0EE626A9ABFF3EE82
:103B9800042A76EEE26AF0EE446A012FC1ED006A6B
:103BA8003EF473ACD3ED056A93ED062AD3ED072AEC
:103BB80067EE266AE4EE826AE5EEA26AF7EE002A6C
:103BC800F5EEC06AF1EE10FA48BF66EE836A66EE5B
:103BD800266AF4EEE26AF1EE10FA88BFF0EE626A45
:103BE800F0EE672AE3EEA62AF4EEC52AF1EE10FA03
:103BF800F0EE626AA6BFF3EE042A76EEE26AF0EE11
:103C0800446A022FC1ED016A3EF43FACD3ED096A64
:103C180093ED0A2AD3ED0B2A67EE266AE4EE826A50
:103C2800E5EEA26AF7EE002AF5EEC06AF1EE10FAA8
:103C380048BF66EE836A66EE266AF4EEE26AF1EE43
:103C480010FA88BFF0EE626AF0EE672AE3EEA62A61
:103C5800B4EEE25AF1EE10FAF0EE626A9ABFF3EEB1
:103C6800042A76EEE26AF0EE446A032FC1ED026A96
:103C78003EF40BACD3ED0D6A93ED0E2AD3ED0F2A6B
:103C880067EE266AE4EE826AE5EEA26AF7EE002A9B
:103C9800F5EEC06AF1EE10FA48BF66EE836A66EE8A
:103CA800266AF4EEE26AF1EE10FA88BFF0EE626A74
:103CB800F0EE672AE3EEA62AB4EEE25AF1EE10FA25
:103CC800F0EE626A9ABFF3EE042A76EEE26AF0EE4C
:103CD800446A042FC1ED036A3EF4D7ABD3ED116AF1
:103CE80093ED122AD3ED132A67EE266AE4EE826A70
:103CF800E5EEA26AF7EE002AF5EEC06AF1EE10FAD8
:103D080048BF66EE836A66EE266AF4EEE26AF1EE72
:103D180010FA88BFF0EE626AF0EE672AE3EEA62A90
:103D2800B4EEE25AF1EE10FAF0EE626A9ABFF3EEE0
:103D3800042A76EEE26AF0EE446A052FC1ED046AC1
:103D48003EF4A3ABD3ED156A93ED162AD3ED172AEB
:103D580067EE266AE4EE826AE5EEA26AF7EE002ACA
:103D6800F5EEC06AF1EE10FA48BF66EE836A66EEB9
:103D7800266AF4EEE26AF1EE10FA88BFF0EE626AA3
:103D8800F0EE672AE3EEA62AB4EEE25AF1EE10FA54
:103D9800F0EE626A9ABFF3EE042A76EEE26AF0EE7B
:103DA800446A062FC1ED056A3EF46FABD3ED196A7C
:103DB80093ED1A2AD3ED1B2A67EE266AE4EE826A8F
:103DC800E5EEA26AF7EE002AF5EEC06AF1EE10FA07
:103DD80048BF66EE836A66EE266AF4EEE26AF1EEA2
:103DE80010FA88BFF0EE626AF0EE672AE3EEA62AC0
:103DF800B4EEE25AF1EE10FAF0EE626A9ABFF3EE10
:103E0800042A76EEE26AF0EE446A072FC1ED066AEC
:103E18003EF43BAB93ED1D2AD3ED1E2AD3ED1F6A6A
:103E280027EE027AA4EEA27AA5EEA67AB5EEC07ABB
:103E3800F1EE10FA48BF27EE037A26EE077AF7EE7E
:103E4800006AB4EEE67AF1EE10FA88BFB0EE667A50
:103E5800E3EE877AB4EEE75AF1EE10FA9CBFB3EEC0
:103E6800044A37EEC44A81ED074AFEF70EBB00BF8D
:103E780058500020003D002093ED006ADDED0E5AF9
:103E880026EE866A17EE101AA7EEA56AF0EE645AB7
:103E9800E4EE065ABDEEE56A16EE102A914200F3EA
:103EA800AD8415EE101A8A42A8BF0A4606EE102AFB
:103EB800B8EEC66AD249012F81ED006A3EF44EAFD2
:103EC80093ED046ADDED0F5A26EE866A17EE100AA6
:103ED800A7EEA56AF0EE645AE4EE065ABDEEE56A6E
:103EE80016EE102A904200F3AD8415EE100A8242B5
:103EF800A8BF024606EE102AB8EEC66A022F81ED68
:103F0800016A3EF42BAF93ED086ADDED105A26EEF8
:103F1800866A17EE100AA7EEA56AF0EE645AE4EE78
:103F2800065ABDEEE56A16EE102A904200F3A48404
:103F380015EE100A8242A8BF024606EE102AB8EE15
:103F4800C66A032F81ED026A3EF408AF93ED0C6A4E
:103F5800DDED115A26EE866A17EE100AA7EEA56A5D
:103F6800F0EE645AE4EE065ABDEEE56A16EE102A43
:103F7800904200F39C8415EE100A8242A8BF0246C4
:103F880006EE102AB8EEC66A042F81ED036A3EF4E5
:103F9800E5AE93ED106ADDED125A26EE866A17EE4D
:103FA800100AA7EEA56AF0EE645AE4EE065ABDEED2
:103FB800E56A16EE102A904200F37D8415EE100A89
:103FC8008242A8BF024606EE102AB8EEC66A052F3E
:103FD80081ED046A3EF4C2AE93ED146ADDED135A26
:103FE80026EE866A17EE100AA7EEA56AF0EE645A66
:103FF800E4EE065ABDEEE56A16EE102A904200F38A
:10400800698415EE100A8242A8BF024606EE102AFD
:10401800B8EEC66A062F81ED056A3EF49FAE93EDB1
:10402800186ADDED145A26EE866A17EE100AA7EE16
:10403800A56AF0EE645AE4EE065ABDEEE56A16EE9D
:10404800102A904200F36C8415EE100A8242A8BF31
:10405800024606EE102AB8EEC66A072F81ED066AF8
:104068003EF47CAE93ED1C6ADDED155A66EE866A69
:10407800E7EEA56AE4EE264AFDEEE47A17EE102A8A
:1040880017EE903A9A423FF73BA9FFF732B966EE2E
:10409800A76AFEF76BBB236858023FF5A7ACF6EE9C
:1040A800007AF4EEE76AF1EE10FA3FF79FACFEF7FC
:1040B8001ABD544B34781B78DB0704D425F030F84C
:1040C800002840F01684504FD5F89C213B689A424E
:1040D80000F21684012C3EF4FFA94C4D2B78002BDE
:1040E8003EF4FAA90B2C0DD80123A34040F6030295
:1040F80013EA02080BD113F4C06F03D0093C012C5A
:1041080040F2E586424B3A685A600B23337000232D
:104118002B70FEF7E1B91A2025F050FB00287EF439
:104128005FAF01233370FEF75BBFB8F1010F00F0FA
:10413800A6840E231320337007F05AFA94F80280ED
:10414800FEF74EBFB8F1010F01D11FF007FD0D2397
:104158001320337007F04CFA94F80280FEF740BF42
:104168002C4B1B78002B00F0DF83162025F026FB54
:10417800002840F0D983254B1B78002B40F0D483CE
:104188000923337010F090FC94F80280FEF728BFE2
:10419800162025F013FB0028F4D01F4B1B88002B9A
:1041A800F0D11E4B45201F6810F08EFA0E2010F03B
:1041B8008BFA384610F064FB049F384610F060FB19
:1041C800174A184B12681A6038460A23337013F0DE
:1041D80053F9D7E70E4F10F0AFF90B4A7B68126816
:1041E80064339342AAD2402010F07AF90028A5D16E
:1041F8003B68DFF83480DFF834A04FF0400925E051
:10420800003D0020D042002088600020853B00202F
:10421800D0390020773B0020C4390020C039002065
:10422800B4390020B039002058210308083900208B
:1042380010F04AFADAF800203B68013A0133B9F184
:104248000109CAF800203B6000F0178543441B7E33
:104258001846002BECD100234FF0FF323B600423BB
:104268007A60337094F80280FEF7BABEB14B1B78BF
:10427800D90700F10E841A2025F0A0FA00283FF48F
:104288005DAF0C23337094F80280FEF7A9BE10F0DE
:1042980053F9A94B052000210090A3F10802CDE9AC
:1042A8000111532010F036FC00287FF447AFA34BD0
:1042B80094F80280186008233370FEF791BE10F05E
:1042C8003BF99F4B93ED000A2DF00CF895ED620A2F
:1042D80080462DF007F88146402010F001F90028AB
:1042E8007FF42CAF954F974A396853784E2900F2DE
:1042F8000184DFE811F0FA05070600062806220601
:104308001A061206E006D906D206CB06BB064A06EE
:1043180043063906940785077E07770770076607FF
:104328005C07520748073607240712070707FC06E9
:10433800F106E6060A090109F908F008E808E008A4
:10434800D808CF08C608BD08B408AC08A4089B085C
:1043580090088808800878087108FD07F607EF07B5
:10436800E807E107DA07D207CA07B707B007A907BE
:10437800A2079B07A3059C0595058E058705800563
:1043880079057205C105BA05B205AA05D105C705A3
:10439800DB05640510F0D0F86B4A0292A2F10C0319
:1043A800282101930091A2F10A035021163A4920CD
:1043B80010F0B0FB00287FF4C1AE604B94F8028087
:1043C80018604FF0FF325A6007233370FEF708BEBB
:1043D8005E4B5A4A1B6853605D49002313600322F1
:1043E8000B603270FEF7FCBD5A4A5B49B2F800B068
:1043F8004A69002A3DF472AB0A6813604B74FDF7F2
:104408006DBBDFED567AB0EE674AB0EE676AFEF72D
:10441800BABA4B4A524BD2ED006A95ED5D6A1B78E9
:10442800C5ED5C6A85ED5E6A002B00F0DE8176EEF4
:10443800665A0131C5ED595AC5ED5A6A00F0F38143
:10444800049BC5F87C31002377EEC87ABCEEC88A95
:10445800FF2218EE101AC5ED607AA5F86C1185F8E0
:104468006E21FFF708BBB0EE636AFEF788BA07EE65
:10447800102AFEF712BCF0EE68CAD5EEA6CA394B70
:10448800D3ED007A6CEEA7CA4FF0000B84ED01DA89
:10449800FDF7F7BC30494A69002A3DF4F8AA0A68D2
:1044A80013604B74FDF7F3BA2F4B1B78002B7DF488
:1044B800FEAFFEF700B807EE102AFEF70EBC204A42
:1044C800274BD2ED007AD5ED5D6A1B78C5ED5C7A95
:1044D800C5ED5E6A002B00F0AB8136EEE76A481C3A
:1044E80085ED596AC5ED5A7A00F0CA81049BC5F872
:1044F8007C310022FF23C5F8802185F86E31FDF755
:1045080016BC1FF041FB194B82681B689A423EF6A5
:104518006BAD33780C3B022B7DF6DEAF144B86F87F
:1045280000801A78002A3DF4D7AF00221A70FDF7F0
:10453800D3BF00BFD0420020A8230308D0390020F1
:10454800203D0020A07C0020D621030888600020A0
:10455800083900208846002068600020000000001C
:10456800F06D00204C4F0020B87B0020E43900207B
:10457800853B0020EE494B69002B3DF44DAAED48E0
:104588000B68B0F800C0EC4890FBFCF04FF0010C51
:10459800186081F811C0FDF73FBA07EE102AFEF740
:1045A800BCBB00297EF4EEAA17EE101A8A4200F36B
:1045B800D98115EE104AA142A8BF214607EE101A6C
:1045C800B8EEC77ABAF1000F40F04D83DB49012FEE
:1045D80081ED007A3EF4C5AB93ED047A9DED0F6A48
:1045E80026EE877AA7EE867AB0EE646AA4EE076AAA
:1045F800BDEEC67A17EE104AA24200F3348215EED9
:1046080010CA6445A8BF644607EE104AB8EEC77AD8
:10461800BAF1000F40F07983022F81ED017A3EF460
:10462800A0AB93ED087A9DED106A26EE877AA7EE87
:10463800867AB0EE646AA4EE076ABDEEC67A17EE13
:10464800104AA24200F3128215EE10CA6445A8BFB0
:10465800644607EE104AB8EEC77ABAF1000F40F088
:10466800D882032F81ED027A3EF47BAB93ED0C7A6E
:104678009DED116A26EE877AA7EE867AB0EE646A17
:10468800A4EE076ABDEEC67A17EE104AA24200F3FE
:10469800F08115EE10CA6445A8BF644607EE104ABB
:1046A800B8EEC77ABAF1000F40F0F082042F81ED1E
:1046B800037A3EF456AB93ED107A9DED126A26EE1E
:1046C800877AA7EE867AB0EE646AA4EE076ABDEE32
:1046D800C67A17EE104AA24200F3CE8115EE10CA30
:1046E8006445A8BF644607EE104AB8EEC77ABAF127
:1046F800000F40F02083052F81ED047A3EF431ABA2
:1047080093ED147A9DED136A26EE877AA7EE867AE2
:10471800B0EE646AA4EE076ABDEEC67A17EE104AD8
:10472800A24200F3B38115EE10CA6445A8BF6446DF
:1047380007EE104AB8EEC77ABAF1000F40F01183BD
:10474800062F81ED057A3EF40CAB93ED187A9DEDBA
:10475800146A26EE877AA7EE867AB0EE646AA4EE2B
:10476800076ABDEEC67A17EE104AA24200F3EA8144
:1047780015EE10CA6445A8BF644607EE104AB8EEA5
:10478800C77ABAF1000F40F00283072F81ED067A4D
:104798003EF4E7AA93ED1C7A9DED156A66EE876AEA
:1047A800E7EE866AE4EE264AFDEEE47A17EE903AE2
:1047B8009A4204DC15EE102A9A42A8BF1A4607EE60
:1047C800902AF8EEE77ABAF1000F3EF4C5AA00285D
:1047D8007EF4C2AA059B002B7EF4BEAA079B9945CE
:1047E800B8BFF0EE657AFEF7B7BA76EEC65AF0EEC5
:1047F800466A1EE6F0EE446AFEF773B9B0EE476A01
:10480800FFF756BB17EE102A15EE101A8A42A8BFFA
:104818000A4605EE902AFEF7A0BDD5F87C31049A29
:10482800D31AFFF719B9D5F87C31049AD31A0BE6D5
:1048380037EEE66AF0EE667A51E60323C5F82831CA
:10484800FDF78CBAB0EE476AFFF756BB17EE102A91
:1048580015EE100A8242A8BF024605EE902AFEF71E
:10486800A2BD17EE102A15EE100A8242A8BF024612
:1048780005EE902AFEF7BCBDB0EE476AFFF75FBBB6
:10488800DFED307AD5F87C31049A85F86E11D31AA9
:10489800C5ED607AFFF7EFB817EE102A15EE100A8B
:1048A8008242A8BF024605EE902AFEF7C6BDB0EECA
:1048B800476AFFF767BBB0EE476AFFF786BB17EE9C
:1048C800102A15EE100A8242A8BF024605EE902A69
:1048D800FEF7D8BDB0EE476AFFF79ABB17EE102A6D
:1048E80015EE100A8242A8BF024605EE902AFEF78E
:1048F800EEBD134B1B6803F59C530833C5F89C3178
:10490800012C7DF4E9ADFEF77ABB17EE102A15EEFF
:10491800100A8242A8BF024605EE902AFEF7FCBDA7
:10492800B0EE476AFFF797BB049812F0A5FD29E49B
:10493800686000208060002020A10700003D002062
:1049480088600020000000005FED027AD5F87C3115
:10495800049A85F86E11B0EE667AD31AC5ED607ABE
:10496800FFF789B8B0EE637A2AE609900EAB704675
:10497800B046D14AD1490897564603EB870417EE4B
:1049880010CA15EE10AADDF824E018E0B4EEC76AE4
:10499800F1EE10FA23DD03EE90CA13EE907A574534
:1049A800A8BF574603EE907AF8EEE33A002E40F09F
:1049B8000C819C42E1EC013A02F1100218D0D2EDD0
:1049C800003AB3EC013A66EEA33AB0EE647AE7EE49
:1049D800833AA4EE237AF0EE473A0028D6D1FDEECA
:1049E800E33A13EE907ABC45D7DD03EE90CADBE7D5
:1049F800B246089F4646FEF7B1B9B149D1ED027AF1
:104A0800F0EEE77AFCEEE77A4FF6EF7217EE903A9F
:104A1800103B9BB293421AD9D1ED017AF0EEE77AB6
:104A2800FCEEE77A17EE903A103B9BB293420ED910
:104A3800D1ED037AF0EEE77AFCEEE77A4FF6CC7226
:104A480017EE903A333B9BB293423DF6ADACD5F8A6
:104A58005C31002B43D1049B03F59233F833C5F83E
:104A68005C31FDF7A4BC07EE102ACFE507EE102A4B
:104A7800F1E507EE102A13E607EE102A35E61FF0D7
:104A8800EBF900283FF45AABFFF753BB07EE102AA7
:104A980050E62BF0D5F8074680B1DFF84082D8F809
:104AA8000030984200F0C680D8F8DC30BB4200F0F5
:104AB800B880D8F8B8319F4200F0CC8010F0F4F8F4
:104AC800FFF7D9BBFDEEE55A17EE101A15EE902A3E
:104AD80091427EF7F9AAF0EE475AFEF7FCBA049A1B
:104AE8009A427DF664AC202008F05CFAFCF774FD6D
:104AF800FDF75DBC0FF046FD00283FF41FAB714A7F
:104B0800714B12681A600A23337094F80280FEF71A
:104B180067BA24F045FE00287DF425AC24F054FE45
:104B280000283DF426A8FDF71EBCFDEEE55A17EE59
:104B3800100A15EE902A90427EF7EFAAF0EE475A37
:104B4800FEF7F2BA144618E6FDEEE55A17EE100A1B
:104B580015EE902A90427EF708ABF0EE475AFEF722
:104B68000BBBFDEEE55A17EE100A15EE902A90429F
:104B78007EF723ABF0EE475AFEF726BBFDEEE55A6B
:104B880017EE100A15EE902A90427EF73EABF0EE33
:104B9800475AFEF741BBFDEEE55A17EE100A15EE2F
:104BA800902A90427EF781AB17EE102AFEF782BB5F
:104BB800FDEEE55A17EE100A15EE902A90427EF7A0
:104BC8004CAB17EE102AFEF74DBBBEF1000F7FF479
:104BD800F0AE059F002F7FF4ECAE079FB945B8BF34
:104BE800F0EE653AE5E61EF0CFFF837B012B7EF4FD
:104BF800F3A9364843681B6A98471EF0C5FF344935
:104C080042880B68013B1344524213400B60FEF785
:104C1800E3B9B8B1032F81ED027A7FF427ADFEF72F
:104C28009DB8384606F0ABFADC22002129482DF061
:104C380022FA3EE706F0A3FADC22002140462DF0D6
:104C48001AFA31E7059C4CBB079CA145B8BFB0EEEA
:104C5800657ADFE7384606F092FADC2200211E4822
:104C68002DF009FA2AE700283AD01449012F81EDDE
:104C7800007A7FF4B1ACFEF771B8434494F802802F
:104C88001B7E002B7EF4ACA9FFF7E5BA60B1042FB8
:104C980081ED037A7FF40FADFEF760B8032F81ED45
:104CA800027A3EF463A8E1E4059C0CBB079CA1458D
:104CB800B8BFB0EE657AEAE758500020003D002002
:104CC800F05F0020B4390020B0390020CC6000200B
:104CD800E4390020F0690020CC6A00201469002023
:104CE800059959B907998945B8BFB0EE657ABCE707
:104CF800042F81ED037A3EF439A8DCE4A649012F9C
:104D080081ED007A3EF432A866E430B1022F81EDDD
:104D1800017A7FF486ACFEF721B8059C2CB9079C74
:104D2800A145B8BFB0EE657AF0E7022F81ED017AB0
:104D38003EF41CA875E430B1052F81ED047A7FF4A8
:104D4800DFACFEF70BB8059C2CB9079CA145B8BF92
:104D5800B0EE657AF0E7052F81ED047A3EF406A8F7
:104D6800CEE430B1062F81ED057A7FF4EEACFDF785
:104D7800F5BF059C2CB9079CA145B8BFB0EE657A74
:104D8800F0E7062F81ED057A3DF4F0AFDDE460B180
:104D9800072F81ED067A7FF4FDACFDF7DFBFB1EE9A
:104DA800488ADFED7ECAFCF772BE059C002C40F0F5
:104DB8008780079CA145B8BFB0EE657AE8E7784BD5
:104DC8007849D3F8982078480FF0FCFD3B6894F8B0
:104DD800028001333B60FEF703B9744B7149DA89ED
:104DE80073480FF0EFFDF1E7704B6E491A88714870
:104DF8000FF0E8FDEAE76D4B6A499A786E480FF0C4
:104E0800E1FDE3E7694B67491A796C480FF0DAFD71
:104E1800DCE76B4B63491A7A6A480FF0D3FDD5E794
:104E2800674B60491A7F68480FF0CCFDCEE7644BAA
:104E38005C499A7E65480FF0C5FDC7E7604B594944
:104E48001A7E63480FF0BEFDC0E75D4B554993F8E5
:104E5800282060480FF0B6FDB8E7594B514993F840
:104E680025205D480FF0AEFDB0E75C4B4D491A6850
:104E78005B480FF0A7FDA9E792784A4959480FF017
:104E8800A1FDA3E74E4A584992F82A30574892F8AC
:104E980029200FF097FD99E7494A534992F827309E
:104EA800534892F826200FF08DFD8FE73C4A4E4973
:104EB800B2F896304F48B2F894200FF083FD85E79A
:104EC800072F81ED067A7FF465ACFDF74FBF4520CB
:104ED8000FF0FAFBFF200FF0F7FB47480FF066FBD7
:104EE80040460FF0F1FBFFF70DB9444A44494548E5
:104EF8000FF068FD6AE7444B444A454945480FF0BE
:104F080061FD63E7444A454B45494648CDE90032CF
:104F1800454B464A0FF056FD58E7454B2149B3F932
:104F2800002044480FF04EFD50E7434B1D49B3F9AC
:104F3800002042480FF046FD48E7414A30494148C1
:104F48000FF040FD42E70BA81EF0A6F83E4B0BA958
:104F5800B3F900200EA800231EF0F8F80EAA28497D
:104F68003A480FF02FFD31E739483A4983784278BB
:104F78000078009038480FF025FD27E7374B1B686D
:104F8800DA047CD40F233B6020E7354B35499A8AF5
:104F980035480FF017FD19E7003D0020000000001C
:104FA800E47D0020FC55030850560308D86D002006
:104FB800A0550308905503087C5503086855030855
:104FC800BC7B002054550308385503081C550308BA
:104FD80008550308E0550308CC550308EC7C00206D
:104FE800C0550308B4550308F855030818560308B4
:104FF8000056030834560308B0500308BC50030891
:10500800C8500308CC500308305103083C5103082A
:105018004851030850510308185103082451030844
:10502800F450030804510308DC500308E450030853
:10503800CC3900208C510308CA390020805103085C
:10504800C849002074510308304900206051030802
:10505800207C0020F851030804520308DC390020A2
:105068004C460020E0510308E45103081FFA89F375
:105078001FFA88F2A249A3480FF0A4FCA6E6A24BA7
:10508800A2491A78A2480FF09DFC9FE64FF07E5285
:10509800A049A1480FF096FC98E6A04BA0495A8A6F
:1050A800A0480FF08FFC91E69C4B9D491A8A9E48B8
:1050B8000FF088FC8AE6228899499C480FF082FC08
:1050C80084E69B4B9B491868C37E827E007F0090D4
:1050D80099480FF077FC79E6954B96491868437D17
:1050E800027D807D009095480FF06CFC6EE6904B39
:1050F80090491868C37B827B007C009090480FF031
:1051080061FC63E68A4B8B491868437A027A807A95
:1051180000908C480FF056FC58E68B4A85498B481E
:105128004FF0120C0CFB032C9CF80A309CF8092059
:105138009CF80BC0CDF800C00FF044FC46E6824A4C
:105148007C4983484FF0120C0CFB032C9CF8073069
:105158009CF806209CF808C0CDF800C00FF032FC7F
:1051680034E6794A73497B484FF0120C0CFB032C48
:105178009CF804309CF803209CF805C0CDF800C0CA
:105188000FF020FC22E670486549122202FB030357
:105198007148DA890FF016FC18E66B48604912224C
:1051A80002FB03036D481A7B0FF00CFC0EE6664801
:1051B8005B49122202FB030369485A780FF002FC8C
:1051C80004E6122202FB03F35F4A5549D25C6548A4
:1051D8000FF0F8FBFAE5644B51491A7863480FF071
:1051E800F1FBF3E5624B4E499A7862480FF0EAFB0F
:1051F800ECE5614B4A491A6860480FF0E3FBE5E5C6
:105208005F4B9B79012B7FF4E1AD5E4A3C49B2F9D3
:1052180000305D48B2F902200FF0D4FBD6E55B4BB5
:105228003A491A885A480FF0CDFBCFE595F8142172
:105238003B4958480FF0C6FBC8E5574B3849DA7860
:1052480056480FF0BFFBC1E5554B35495A795548CB
:105258000FF0B8FBBAE5544B3149DA7853480FF0F0
:10526800B1FBB3E5504B9FED527A1B882C4951484E
:1052780007EE903AF8EEE77A67EE877AFDEEE77A7E
:1052880017EE902A0FF09EFBA0E5394A1C49538A75
:105298004948D2890FF096FB98E5354A1849138A90
:1052A800464892890FF08EFB90E5314B1C495A898C
:1052B80043480FF087FB89E52D4B19491A7E414871
:1052C8000FF080FB82E52A4B15491A893E480FF0FA
:1052D80079FB7BE5264B1249DA7D3C480FF072FBDF
:1052E80074E5234B0E49DA7839480FF06BFB6DE50E
:1052F80095F895210A4937480FF064FB66E500BF29
:10530800CC510308D4510308147C0020E051030851
:10531800EC510308B8510308C0510308D86D0020A8
:10532800FC550308AC510308A05103089851030821
:105338008C4600208C520308D0520308C852030838
:10534800BC520308B452030898330020AC52030837
:10535800A4520308985203087C52030870520308A9
:10536800645203085C520308DC4C002048520308CE
:105378000060002038520308F05F00202C52030818
:10538800207C0020187C00201C520308703B002061
:1053980014520308F0540308683F0020E05403083F
:1053A800484A0020D0540308883C0020C054030811
:1053B8000000C842B4540308A054030890540308DA
:1053C8007C540308685403085854030844540308D9
:1053D800305403082054030895F894214F49504845
:1053E8000FF0F0FAF2E44F4B4C491B684E481A8D07
:1053F8000FF0E8FAEAE44B4B48491B684B489A8F90
:105408000FF0E0FAE2E4474B44491B6848485A8FDA
:105418000FF0D8FADAE4434B46491868438A828980
:10542800008B009044480FF0CDFACFE43D4B3B4948
:105438001B68424893F84B200FF0C4FAC6E4394B76
:1054480036491B683E489A8E0FF0BCFABEE4354BCD
:1054580032491B683B485A8E0FF0B4FAB6E4314B18
:105468002E491B68384893F830200FF0ABFAADE4AA
:105478002C4B2A491B68354893F82C200FF0A2FAC8
:10548800A4E4284B25491B68314893F84A200FF0BB
:1054980099FA9BE4234B21491B682E4893F827204F
:1054A8000FF090FA92E41F4B1C491B682A48DA88CF
:1054B8000FF088FA8AE41B4B18491B6827489A881A
:1054C8000FF080FA82E4174B14491B6824481A88A5
:1054D8000FF078FA7AE4134B10491B682148B3F8A7
:1054E80050200FF06FFA71E40E4B0C491B681E48F0
:1054F8005A880FF067FA69E40A4B08491B681B4889
:1055080093F826200FF05EFA60E4064B03491B6807
:10551800174893F820200FF055FA57E4FC55030874
:10552800245403088C46002010540308045403082C
:10553800F45303088C520308E0530308C8530308C4
:10554800B45303089C53030888530308745303088F
:1055580064530308545303084053030830530308A3
:10556800205303080C530308F8520308E4520308B5
:10557800DC5203082DE9F04FDFF84CC204460A302C
:105588000CEB000E87B09EF80C801CF8009003917D
:105598004FF41A7C404601920CFB04FA04931BF06A
:1055A80041FA064648461BF03DFA009040461AF07C
:1055B80037FE9DF84450804B0590484603F5D07B54
:1055C8001AF02EFE15F008039DF8407002930BEBBD
:1055D8000A08DDE9001200F09280002900F0E68058
:1055E80091F807C01CF0020F40F0E080724B03EB0B
:1055F8000A0C07F002030093CCF8E011CCF8DC01A8
:10560800CCF8D80130B14FF00B0C04EB0C0180F84A
:1056180006C0C171684B049E4FF41A7909FB04391E
:105628000AF1480089F8A471039FC9F8CC7158445D
:10563800624FC9F8A0710AF5A47100275944C9F846
:10564800B4014FF48070C9F8D02189F8A551C9F880
:10565800B811C9F8AC01C9F8B0013146D9F8E00170
:10566800C9F8A86189F8F843C9F8C071C9F8BC71CC
:10567800C9F8C871C9F8C471C9F8F473A9F8EC730A
:10568800FBF7CEFA05F00101D9F8E00127F02EFF6B
:10569800009A4B484B49C9F800740AF519750AF580
:1056A80017735D44C9F80404C9F8FC139B44002A25
:1056B8005DD0D9F8E401002859D0D9F8E021036871
:1056C8001268934253D0012389F8F9333146FBF726
:1056D800A7FA5A463946D9F8E4011BF009F83A46C0
:1056E8002946D9F8E0011BF003F8029B002B4FD0A4
:1056F8004046FBF74BF9404607B0BDE8F08F17F07E
:105708000103019318D117F00203009382D0B9F175
:10571800000F4BD0284B4FF41A7C0CFB043C019B28
:10572800CCF8DC01002B3BD100293FD0CCF8E011AC
:1057380000287FF468AF6DE7002E37D096F807C0D1
:105748001CF0020F32D11C4B03EB0A0C059BCCF862
:10575800D831059BCCF8E061002BD4D04FF00C0E6B
:1057680004F10B0C83F806E083F807C0CBE7124A74
:105778004FF41A7303FB0424002384F8F9335A46C0
:105788002946D4F8E0011AF0B3FF029B002BAFD1F1
:105798004046FBF76BFA01214046FBF771FAA7E791
:1057A800CCF8E41100287FF42EAF33E74FF000085F
:1057B800404607B0BDE8F08F18220020C823030830
:1057C800710B0008A10C0008EC7B002030B4424BA0
:1057D8001B78012B14BF00240324036A19B304297E
:1057E8003BD0082957D04EF6FF710B400362C369BE
:1057F800016A40F6FF452B4045F6FF75294041EA0E
:10580800023243F4807342F4805243EA043392B282
:10581800C3610262C3694FF2FF321340C361C369B7
:10582800C36130BC704723F0010303628369016AD6
:1058380023F0F30342F0010243F0010321F00A01CF
:1058480043EA04130A4383610262836923F00C0369
:1058580083618369836130BC70474FF6EF710B40F9
:1058680003628369016A12014FF65F7542F0100204
:1058780023F47343294092B243F4807343EA043318
:105888000A4383610262836923F440638361836905
:10589800836130BC70474FF6FF610B400362C369F8
:1058A800056A4FF2FF5129409BB223F0F30341EA06
:1058B800022243F0010342F4807243EA041392B2D5
:1058C800C3610262C3694FF6F3721340C361C369CF
:1058D800C36130BC704700BFDC6B0020F8B550F8DE
:1058E800043C10F80E4C5E7902461868C4B11446A0
:1058F8000B4632F80C1C14F80F7C24F80A3C0D4AAD
:105908005B1A9BB2002524F8083C314622F8173070
:105918002A4604F80E5CFFF759FF04F80D5CF8BD41
:10592800012302F80E3C22F80C1C31460222BDE885
:10593800F8404BE7DC360020F8B5204F05461BF051
:10594800DBF997F8B4607EB10DB31D4A31460023E8
:1059580014890133002C18BF0021AB4202F1600208
:10596800F6D1A1B93046F8BDD7F8AC30C31A002B30
:10597800F8DB97F8B530A3B1013BDBB287F8B53057
:10598800A3B100F57A70C7F8AC000126EAE700F584
:105998001C5010300023C7F8AC0087F8B4303046EC
:1059A800F8BDC7F8AC6001263046F8BDD7F8B0306E
:1059B8001844C7F8AC000126D4E700BF182200201D
:1059C800046E00202DE9F04F83B01C460646884639
:1059D80017461BF091F9BC4B1B78002B72D02F2F68
:1059E80070D8DFF810A3DAF8AC30002B6AD1152F85
:1059F8006BD80123B54903FA07F20A4240F01B822B
:105A0800B34912F03E0F9B460CBF4FF47A730B4616
:105A18000193002C5FD100F51C501030019BCAF88F
:105A2800AC008AF8B5B0CAF8B030B8F1000F47D06A
:105A380042463946A7482CF01EFBA74A1389B8F1FD
:105A4800010FB3FA83F34FEA531335D0B2F8681055
:105A5800002918BF0023B8F1020F2DD0B2F8C810E2
:105A6800002918BF0023B8F1030F25D0B2F8281178
:105A7800002918BF0023B8F1040F1DD0B2F888110F
:105A8800002918BF0023B8F1050F15D0B2F8E811A6
:105A9800002918BF0023B8F1060F0DD0B2F848123C
:105AA800002918BF0023B8F1070F05D0B2F8A822C3
:105AB800002A08BF1C4600E01C4684F00104E4B23A
:105AC8008AF8B44003B0BDE8F08F4FF47A730193BD
