:020000040800F2
:1000000000200010551903083DA70108D141000840
:100010003BA7010839A7010837A701080000000025
:1000200000000000000000000000000035A70108EB
:1000300033A701080000000031A70108D19702088A
:10004000BD190308BD190308BD190308BD1903082C
:10005000BD190308BD19030825A3020851A402080D
:1000600015A40208D9A302089DA30208FDC4020832
:10007000EDC40208DDC40208CDC40208BDC40208F4
:10008000A9C4020895C40208BD190308BD190308D4
:100090004DD90108BD190308BD19030861A3020861
:1000A000BD190308F18C0208AD8A0208698E0208A6
:1000B000358C0208798B0208BD190308BD190308A5
:1000C000BD190308BD190308BD190308BD190308AC
:1000D000BD190308099902088D98020811980208B1
:1000E000E9A20208BD19030821A70108BD190308E8
:1000F000BD190308BD190308BD190308BD1903087C
:10010000000000000000000000000000BD1903080E
:10011000BD190308BD19030865CF000851CF0008B9
:1001200081C402086DC4020859C4020845C402080B
:1001300031C40208BD1903080000000000000000DF
:10014000BD190308BD190308BD190308000000000C
:10015000000000000000000000000000000000009F
:100160000000000000000000BD190308BD190308CD
:10017000BD1903080000000000000000000000009E
:0801800000000000BD19030896
:10018800084B196869B130B45D68074C00206422D7
:1001980002FB05F21860B2FBF1F25860228030BC15
:1001A8007047704738220020F44B00200B4A136830
:1001B80003605368436030B59368094C83601C2121
:1001C800002301FB03429579AD0602D51379C3726A
:1001D80030BD0133092BF4D1FAE700BFF42B030833
:1001E8003C530308704700BF03680A7A591C016032
:1001F8001A7070470C4B1B78DB0700D570470B4A09
:100208001368002BFAD04FF47A7101FB03F398427C
:10021800F4D3074B1B781BB9064B99681B690B6015
:1002280000231360704700BF3C420020882A00204A
:100238007C2A0020BC24002030B484B0002340F283
:10024800012540F2034440F2056140F60822ADF86A
:1002580004300B23ADF80650ADF80840ADF80A108D
:10026800ADF80C208DF80E3088B10A28034615D851
:1002780004AA13440B4A13F80C1C128801238B4060
:10028800134214BF0120002004B030BC7047064B55
:10029800187800F0010004B030BC704704B030BCDE
:1002A80024F0C6BDF44500203C420020704700BF42
:1002B80070B50C4CA3689BB15A68821A002A0FDBF0
:1002C8000546002603E05A68AA1A002A08DB99683E
:1002D8001E731A68A16018469047A368002BF2D1D4
:1002E80070BD00BF38220020F8B532220446002134
:1002F800023032F00EFC144F00222346052104255B
:100308001046D65D9E700132062AD9701D7198710B
:10031800597103F10803F4D101230C4A2380002307
:1003280002EBC30191F90210022908D00133062B10
:10033800F6D1522384F8323064232386F8BD402155
:1003480022F83310F5E700BF04320308F8880020CC
:10035800F8B5234B1B78002B41D0224B1B78002B80
:100368003DD0214C237B03F0FF07002B37D12369B5
:10037800C31A002B33DB1D4B1D491B78D4F814E03E
:10038800013B062505FB03120A269288B2FBF6F20A
:10039800184E05FB031376445B88367B0EF1010C7F
:1003A800724318441044BCF10E0FC4F814C0206105
:1003B80088BF67612BF0BAFE012323730E4B0F4AE7
:1003C8001B68128A5A600E4A12680021516211880D
:1003D80041F0010111801A6842F001021A60F8BD6B
:1003E800247F002068310020382200200C60002083
:1003F80078540308F42B03086431002018600020A7
:100408005C31002038B5084D002415F8013BFF2B5E
:10041800184605D0FFF710FF0146204629F02AFFAD
:100428000134042CF1D138BDBC6E00202DE9F84F01
:100438004F014FF0000B184E8246914607F12008F5
:100448005D4605E001350BF1010BBBF1290F1ED00C
:10045800594630465FFA8BF42AF06CFF0028F2D038
:10046800AF42EFD8A845EDD900220C48114604E068
:10047800013129290DD010F80C2FA242F8D1074BD1
:1004880001EB410103EB81015046C847DAE7BDE8BB
:10049800F88F0021F8E700BF50220020102C030835
:1004A80010B5044649682BF059FD23683B22591CB6
:1004B80021601A7010BD00BF034B93F8202093F8F9
:1004C800211013F021BE00BF3822002008B523F008
:1004D80059FE094B93F822304BB1012B06D107493D
:1004E800074B0848084A0860DA60FEE7FDE7044B56
:1004F800054ADA60F9E700BF38220020FC9F002097
:1005080000ED00E0EFBEADDE0400FA05B54B1B7848
:1005180003B17047B44B1B685B05FAD52DE9F04F62
:100528002DED028BB14B1B788DB007460BB915F03A
:1005380017FAAF4B1B78012B00F01E81AD4B1B78CF
:10054800002B33D0AC4CAD4A636BFB1A934200F2DC
:10055800BE81AB4D2E78002E00F08481A94E336801
:1005680023B3626C40F6B731BA1A8A421ED994F89E
:100578004020002A00F09F8494F84950A24994F83A
:1005880048C00868013AD2B2013584F84020EDB27B
:10059800002A00F0858413F8011B84F849508C4424
:1005A800336084F848C029F03FFA676428F0B8FF40
:1005B800964B1E7800F57A70012E049000F0A28008
:1005C800934B1B78002B49D0924D2B68002B45D0BC
:1005D800914B894C1E68236DF31A632B3ED9DFF8C3
:1005E8006CA2DFF86C92DFF8708241201BF082FF6A
:1005F800BAF9023089FB0320DB17C3EBA00080B2F5
:100608001BF05EFFBAF9003089FB0320DB17C3EB50
:10061800A00080B21BF054FFBAF9043089FB032014
:10062800DB17C3EBA00080B21BF04AFF98F800105C
:10063800286829F0F9F994F8543013F0010B00F008
:100648006584764A26650133DBB2A2FB0312D20821
:1006580002EB8202A3EB420384F85430704B1B7800
:10066800002B40F0A0816F4D2B7823B10DB0BDEC6D
:10067800028BBDE8F08F604C94F85D30012B40F29E
:10068800648194F85E00684E684A411C184406EB81
:100698008000A2FB01C2664ED0F80882307852086A
:1006A80002EB42028A1A84F85E2028B16149624A44
:1006B8000968914200F04F81B8F1000F17D0DFF8B8
:1006C8009C91CDF814900CAEA9F1120A46F820AD11
:1006D80048F2A502152339463046A4F8602084F86C
:1006E8006230C047002840F03D8394F85D304F4A9F
:1006F8000133A2FB0312520802EB42029B1A84F850
:100708005D30B3E74D4D286800283FF459AF4FF0EE
:1007180000098DF8089029F083F940B3DFF840818B
:10072800354C286829F074F983B27E2B00F06E836B
:1007380098F801202968002A40F06A8294F84BC092
:10074800BCF1000F00F00A811B2B84F84B2040F00D
:100758006682084629F064F9002800F0CC832868EE
:1007680088F8016029F05CF90028DAD1002004AA91
:1007780002A91BF0D7FE23E7314B1B68002B3FF47F
:10078800DDAE1D4C2F4AE36AFB1A93427FF7D6AEC3
:100798002D4A94F830301268E7620133900784F8E4
:1007A800303000F17D84294B2949B3F9043081FBAD
:1007B8000321DB17C3EBA10109B214201CF010FBC5
:1007C80000211C201CF00CFB94F8303013F00705B6
:1007D80000F02E84282B00F0EA841E4B5E201B6854
:1007E8009847ABE6C4430020E86E0020F93A0020A1
:1007F80099460020A6460020382200203F0D03001D
:10080800144600201046002008460020A746002075
:10081800B44600208C80002038630020CDCCCCCC9E
:10082800E8460020C1350020F42B0308ABAAAAAA89
:10083800EF480020E43800204C3100200446002016
:10084800F042002047E8010000460020B0450020A3
:100858006766666628420020CD8D0020AD22002004
:1008680000000020DFF8CC91D9F8000029F0D8F872
:10087800C0B201280FD90228DFF8BC8140F01F83DD
:1008880098F80030002B40F03184E36BFB1AB3F585
:100898007A6F80F0B384594E3368002B3FF486AEEC
:1008A8002A78002A7FF45DAE554BD9F800001B6802
:1008B8009B781E3B012B40F21484343002211CF03B
:1008C8003DFA012200232A7084F848306DE64D4E27
:1008D8004D4B4E4AA16B3068128893F809E04C4B97
:1008E800401A4FF47A71D5B201FB0EF1120A9D77C6
:1008F8001D7588424FF00005DA775A759D701D7195
:1009080080F0C1824349444D08688968676385FB64
:10091800002685FB0125C017CA17C2EBA502C0EB4C
:10092800A6014FEA212C16124FF4FA75197747F2EF
:100938003050782183F81DC083F8202083F8216087
:100948005D83588483F8241003E6344A02EB83025B
:10095800D2F80882B0E6DFF8E480B0E67D2B00F03C
:10096800CA8394F84E2022B180F02003DBB284F8C9
:100978004EC0B4F84C2094F84AC01A44BCF1060F93
:1009880092B22CD804EB0C0E08460CF1010CA4F81A
:100998004C208EF8243084F84AC029F041F8002809
:1009A8007FF4BFAEE2E61E4C227832B11D4B1E49E1
:1009B800186829F005F800232370DFF8848098F878
:1009C8000040002C40D0DFF87CB0DBF86060002EDF
:1009D80040F02B82154B88F800609F6543E6D3B240
:1009E80003EB1222FF2A88F80160A4F84C2040F09B
:1009F8000F81084629F014F80D48B8E61046002083
:100A08000C4600203863002094450020E47F002035
:100A1800B8460020EC7F002067666666F42B030862
:100A280098460020E446002058460020382200203E
:100A38005C220020084600200000002069A0010870
:100A4800EA46002030480020B54D2B78002B40F0B6
:100A5800F280B44C94F82B51002D40F03682B24B02
:100A6800B2491B68096899422DD894F82031002BA7
:100A780040F06F8394F82131002B40F0678494F89C
:100A88002231002B40F06D8494F82331002B40F084
:100A98006A8494F82431002B40F0808494F825313E
:100AA800002B40F0798494F82631002B40F07884AC
:100AB80094F82731002B40F04B8394F8283108250F
:100AC800002B40F046839A4C9A4DA26D29789A4B98
:100AD80093FBF1F313449F42FFF4C5AD974A94F892
:100AE8005C30A76512F8038018F0010F44D0DFF8D6
:100AF8006C929FED938AB9F9023007EE903AF8EEBE
:100B0800E77A904B059367EE887A0CAEFDEEE77AAC
:100B1800A3F13D0246F8202D17EE902A91B240F637
:100B2800C80223F8402C1E2203F83E2C30462BF036
:100B38002FFAB9F9003007EE903AF8EEE77A304626
:100B480067EE887AFDEEE77A17EE903A99B22BF0C5
:100B58001FFAB9F9043007EE903AF8EEE77A304612
:100B680067EE887AFDEEE77A17EE903A99B22BF0A5
:100B78000FFA30461CF066F918F0020F39D0714BA5
:100B8800714ADFF8DC91118805930CAEA3F13D02A0
:100B980046F8202D40F6C82C082223F840CC03F84C
:100BA8003E2C30462BF0F4F90A22D9F8003093FB9A
:100BB800F2F3304699B22BF0EBF90EF0D3FCD9F8EA
:100BC8000890049B4FEA1942591C04911A70049B1F
:100BD8004FEA1922591C04911A70049B5A1C04925A
:100BE80083F80090049B5A1C0492187030461CF03D
:100BF80029F918F0040F40F07B8394F85C302978C9
:100C0800013393FBF1F201FB123384F85C302AE5DF
:100C1800084628F005FF00287FF483ADA6E50D2BD4
:100C28007FF49DAD0846A4F84C2028F0F9FE002872
:100C38007FF477AD9AE5434E444B0093A6F13F010C
:100C48004FF0C808CDE9021606F8408C404B414ADF
:100C5800414904A82AF044FC029E731C0293347094
:100C6800029B2922591C02911A70029BEA22591CE4
:100C780002911A70029B5A1C029204A883F8008001
:100C880030F090FC00F1010804A94246029831F0C6
:100C98001CFF029A02EB08030133029302F8084092
:100CA800029B5A1C02921C70029B5A1C02921C70D6
:100CB800029B5A1C02921C70029B5A1C02921C70C6
:100CC800029B5A1C02921C70029B5A1C02921C70B6
:100CD800029B5A1C02921C70029B5A1C02921C70A6
:100CE800029B5A1C02921C70029B5A1C02921C7096
:100CF800029B5A1C02921C70029B5A1C02921C7086
:100D0800029B012299180CA802911A7050F8283DEC
:100D18009B1B33701CF096F8054B2C709F65A2E462
:100D2800E9460020EC4600203863002018490020DE
:100D3800382200202C480020A086010028480020E6
:100D480058A08B4158460020E47F0020BB7F00203C
:100D5800D4570308DC570308EC570308B0450020B4
:100D6800EC7F0020049B534540F26682A9F11300F2
:100D780003F1FF3C002141F2210710F8012F81EA1D
:100D8800022212B293B2002AACBF5B0087EA430387
:100D98009BB21A0454BF5B0087EA43039BB2190451
:100DA80054BF5B0087EA43039BB21A0454BF5B003D
:100DB80087EA43039BB2190454BF5B0087EA4303E5
:100DC8009BB21A0454BF5B0087EA43039BB2190421
:100DD80054BF5B0087EA43039BB21A0454BF5B000D
:100DE80087EA4303604599B2C7D130462BF0F6F83D
:100DF800C649049EC648761A152EA8BF152632463F
:100E080031F063FE94F85D302E7070E428688DF838
:100E1800089084F84A9084F84B6088F8019028F08C
:100E2800FFFD00287FF47DACA0E40024DFF818A3C0
:100E380026464FF050090BE01C44EFF3118389F369
:100E48001288DBF86020944216DADBB283F311884B
:100E58001BF80450601C2946584400221BF024FA51
:100E68006B1C0028E8D051463A201BF07FF9013569
:100E78000643F6B22C44E0E70022DBB2CBF8602050
:100E880083F31188A6E5A34A31681278A163013A71
:100E9800012A3FF637AD1021022299701A7131E507
:100EA8000CF10103614684F8495084F8483028F071
:100EB800BBFDFFF77ABB1BF077FFFFF776BB1BF094
:100EC80063FF012388F80030E5E4934A84F82B3166
:100ED8000CA8A2F13A03914940F8203D4FF432732F
:100EE80022F83C3C42F8401C05921BF0ABFF8C4BAF
:100EF8009F65FFF7B8BB28688DF8086088F801601F
:100F080028F08EFD00287FF40CAC2FE4854B1B885D
:100F1800DA0515D4D80600F1E181990600F1E581DA
:100F28005A0600F14182180700F14182D90700F101
:100F3800478213F0020F0CBF4FF0040B4FF00C0B5D
:100F4800794A7A4B92F800A0DB780AF0010A0BB1D3
:100F58004AF0020A53201BF0CDFA754B1B8803EBAD
:100F6800830303EB8303980080B21BF0A9FA0020E7
:100F78001BF0A6FA16F004FF6E4BC0EB002083FBB3
:100F880000231A18C317C3EB6223FF2BA8BFFF2344
:100F98005FFA83F94946286828F046FD98F800303A
:100FA800286889EA03034BEA0A0A002188F8003016
:100FB80028F03AFD5146286828F036FD98F80030A8
:100FC80028688AEA0303DBB2194688F8003028F05B
:100FD8002BFD94F85430002B7FF433AB4F201BF0DB
:100FE80089FA2FF03BFB2FF039FB2FF037FB01215B
:100FF800286828F019FD504A98F8003092F80090B7
:10100800286809F00109494683F0010388F800308F
:1010180028F00AFD98F80030286889EA030949464B
:1010280088F8009028F000FD94F85430FFF709BBC9
:10103800FF201BF01DF8002800F053810378FF2BD8
:1010480000F0518190F9011002201BF0C9FEFF2029
:101058001BF00EF8002800F0A8800378FF2B00F0A2
:10106800A480B0F90C303549354A897D03EB8303F8
:1010780003EB830349089B0093FBF1F382FB031204
:10108800D917C1EBA20109B22E4D03201BF0A8FE0F
:101098006B79002B40F0D28094F83030FFF79ABB80
:1010A800DFF8A8802425A8F12406B38AF8EC016AA1
:1010B80007EE103AB8EEC77A2846C6EE877A0135A9
:1010C800EDB2FDEEE77A17EE903AC3EB431103EB6E
:1010D8008103D90009B21BF083FE272DE5D1FFF764
:1010E80062BB022128F08CFCFFF7EBBBE76388F8B2
:1010F8000060FFF7D0BB084684F84E6028F090FCEB
:1011080000287FF40EABFFF731BB00BF9822002008
:10111800AC3500201180002058460020C8057DEA23
:1011280038220020F44500203C42002040420020A4
:10113800E47F00200308208074490020E870002024
:1011480067666666347F002081CE0108DC45002092
:1011580007259D4B94F82A2105930DF13008A3F13A
:101168003901A3F1400648F8201DC821101D03F8D5
:10117800401C4FF4E4734EF67D2170707180404638
:1011880002FB0541B380B5712AF0F8FE049B721C7E
:101198009B1A737040461BF055FE2C448B4B002263
:1011A80084F820219F65FFF75EBA00216CE7884A22
:1011B800884B1568884EA3FB05239B0BA6FB0321D0
:1011C8004909C1EB0111A3EB8103190209B20023FC
:1011D800172084F830301BF003FE804BA3FB052357
:1011E8009B09A6FB03125209C2EB0212A3EB82036E
:1011F80019B218201BF0F4FDFFF7EFBA0123D9F854
:10120800000088F8003028F003FC0646D9F80000F2
:1012180028F0FEFB71067FF43EAB8E287FF43BABD3
:101228002B78002B7FF49AA96D4B6E4A1A602D23F8
:1012380084F84030FFF738BB0021D6E5DFF8D881C5
:1012480098F80030002B40F09080674E19469C4675
:101258000620A4F832C01BF0C3FD644A608E92F8E1
:1012680008C0318898F80030D27A0130BCF1010FFB
:1012780060866DD001EB81011FFA81F812B10BB1C4
:1012880098FBF3F85A4EA6FB0836760931B23A2095
:101298001BF0A6FD642101FB168189B2554B05316F
:1012A800A3FB0131C9083B201BF09AFDAB79002B49
:1012B8003FF4F2AE504E0A22336893FBF2F3282033
:1012C80019B21BF08DFD2B89002B73D1B16881F306
:1012D800100109B204201BF083FDDDE64FF0340B4A
:1012E8002EE60146B0E62946AEE64FF0240B27E687
:1012F800354B0593A3F140062122C820A3F13D01F7
:1013080023F8400CB270049123F084FD3B4B3C4A17
:101318003C491B88002808BF11465A0542D4D80703
:101328004CD4394A13F0020F18BF114604A82AF00A
:1013380015FE049B354A591C049100211970049B21
:101348009B1A04A873701BF07DFD56E4012500E785
:1013580012B10BB191FBF3F109B239201BF040FD3A
:10136800A4E70225F5E60325F3E61F4E618E3288D1
:1013780091FBF3FC642003FB1C1C00FB02321FFAE8
:101388008CFC5B00B2FBF3F2130243EA0C13C2F3CA
:101398000322134319B25BE70525DAE60425D8E6EC
:1013A8000625D6E61A49C1E74FF0100BC8E54FF0FD
:1013B800200BC5E50EF0D6F801B28BE71549B5E765
:1013C8004FF0080BBCE500BF58460020382200202B
:1013D8003863002073B2E74589888888D34D621046
:1013E80010460020B8460020E47F002094450020E5
:1013F8001F85EB51CDCCCCCCEC7F0020F4450020F0
:10140800B8570308C0570308D057030819460020E7
:10141800C4570308C85703081080002038B5294A64
:101428002948137852782949294D2A4C03EB83031C
:1014380003EB830302EBC20200EB830301EB4202DE
:101448002B60226023F056FD302200212248234CD5
:1014580031F05FFB286821F00FFE214A214B1079FB
:10146800214AA2676421C82211FB00210022C3E996
:101478000112C3E90322C3E90522DA6183F82020B7
:1014880083F8212016F0B2FBB4F87C30DFED176A40
:1014980094F8811094F8802007EE103AB4F87E3062
:1014A80007EE903AB8EEC77AF8EEE77A104B27EED7
:1014B800267A67EEA67A19725A7283ED017AC3ED1D
:1014C800007A38BDB47F0020E63100204033002088
:1014D800F8450020FC450020AC2A002038220020D6
:1014E800D84F002040420020FE3B002017B7D138DB
:1014F800B04B00202DE9F04FDFF810827E4E81B00E
:1015080028F00EF8D8F800400022C6F88420002CF5
:1015180000F0A880237D062B054616D12369216A91
:101528000B44C31A934280F29A80414609E0137D26
:10153800062B0AD1136A12691344EB1A002B80F2A6
:101548008E8051F8042F002AF1D14FF001090023B1
:101558001F46C6F884309B469A462B464D46994608
:10156800A368002B3CD0217D07295BD1216A48461E
:10157800A9EB01019847002832D1E28A20839345DC
:1015880006D2002D3AD1217D062904BF9346A246F2
:10159800D6F884300133C6F8843058F82340002C3C
:1015A800DED1D6E90023554901321F444D46C6E92C
:1015B8000027C1F800A0BAF1000F58D0DAF820309F
:1015C80096F88820AAF81640EB1ACAE90739002AC3
:1015D80079D1DAF80C30484601B0BDE8F04F184729
:1015E800236A2269A9EB0303B3FBF2F39BB22383BB
:1015F8003BB9E28A9345CBD2002DC4D09346A2468C
:10160800C6E7217D11FB03F20132013792B2BFB266
:10161800E2829345BCD2002DF0D1012BB4D9934678
:10162800A246B5E7E28A002A3CD1216A4846A9EBDE
:10163800010198470028A0D096F88830D3B9217DB9
:10164800C4F824904A1C013701235A45BFB2E282EC
:1016580023839DD9002D97D09346A24698E74FF053
:10166800000974E73368254A01333360146001B018
:10167800BDE8F08F27F054FF214B224A1968224B0E
:1016880012681B68A0EB09008342A1EB51110144C9
:10169800024438BF03461A4801601A490A601A4AC8
:1016A8001360CCE7636A2269A9EB0303B3FBF2F387
:1016B80001339BB211FB03F20132013792B2BFB280
:1016C8002383E282A5E727F02BFFDAF80C300446E3
:1016D800984727F025FFDAE90B21DAF82830001BB4
:1016E800A3EB531390420344014438BF1046CAF891
:1016F8002830CAE90B01BAE738220020B83B00209D
:10170800E84B0020E44B0020EC4B0020042B002089
:10171800F0B43424174F184B04FB00F41E683B59EF
:101728000B603C44002E63684B600CDD134A136861
:101738009C421CD0002303E052F8045FAC4216D050
:101748000133B342F8D10022342303FB00700A723C
:101758000369CB60037D4B72D0E90A35046BC2691B
:101768000A615B094D61C1E90643F0BC704701227B
:10177800EAE700BF041B0020002B0020042B0020F8
:101788002DE9F0411E4F3D68142D22DC002D34DD7B
:101798001C4E336898421CD0311F01EB850133463B
:1017A80003E053F8042F904213D08B42F9D13468E8
:1017B8009CB1237D017D8B420ED3124A002405E0A3
:1017C80052F8043F4BB11B7D8B4206D30134A5422E
:1017D800F6DA0020BDE8F08100248046601C800015
:1017E800011F2A1B314430449200013531F078F949
:1017F8003D6046F824800120ECE7EAD1014ED6E7A7
:10180800002B0020042B00202DE9F04387B0D1E9FC
:1018180000640F46154680460E2200210DF10A008D
:1018280031F077F924238DF80830624B2B44A41B40
:1018380093F81C328DF80930B7F90C305A1C14BFD4
:101848003E2321238DF80A30002D49D13B898DF89C
:101858000C30FE2C39DDADF80D40FF2307258DF83F
:101868000B3002AB5A190DF10B01002391422FD115
:1018780032463019811A00292EDC8DF804304FF0D9
:1018880001092F19D8F800004F4428F0BDF80028A6
:1018980000F08780D8F8000028F08CF82A4602A9C2
:1018A800D8F8000028F08CF822463146D8F8000015
:1018B80028F086F8D8F800004A4601A928F080F8F0
:1018C800D8F8000028F070F84FE0E3B20525C6E725
:1018D80011F8010B4340C9E712F8011B4B40C9E757
:1018E800012D3FD1A21DFE2A4FF0FF038DF80C30C9
:1018F800D8BFD3B28DF80B30BB7AC8BFADF8122071
:101908008DF80D304FF005023B89ADF80E300DF122
:101918000D014FF00000CCBF0C250A25ADF8104092
:1019280029F016FE2246314629F012FE02AB59195B
:101938008DF804000DF10B02002391420AD13246C2
:101948003719B91A002909DC58408DF805004FF0FD
:10195800020996E712F8017B7B40EEE712F8011BBB
:101968004B40EEE7022D04D00027384607B0BDE80B
:10197800F083BB7A8DF80B3005223B89ADF80C302B
:101988000DF10B010020ADF80E4029F0E1FD2246D3
:10199800314629F0DDFD4FF001098DF804000825D6
:1019A8006FE7D8F8000028F037F887427FF772AF62
:1019B800DAE700BFF42B030808B50E4B19780129A4
:1019C80013D00DD3022902D1002028F037F827F0D0
:1019D800A7FD094B00F5F42000F59070186008BDCC
:1019E8000021084628F058FCF1E7002028F054FCB4
:1019F800EDE700BF162500201825002010B5044685
:101A0800204628F001F800B110BD0A2027F038FE62
:101A1800F6E710B5084A002352F83310884202EB63
:101A2800C30403D00133062BF6D110BD0021C162D7
:101A3800A18042F83310F8E72C8900202DE9F04FF7
:101A480091B092469DF86C509DF87040A64A03915B
:101A580007469B464FF000084FEAC8030293134419
:101A680093F90610B9425DD008F10108B8F1060FE4
:101A7800F2D14FF0000934E01E2F49D01F2FF8D1C2
:101A8800CDE900541A9B5A46514601200AF096F9AE
:101A9800814623E119F0F7FB944B954A1E60D36900
:101AA8009449DFF86C9243F40003D361924A934B54
:101AB800136002221A72924A924B1360924A1B6870
:101AC8001160984719F086F8904A49F88C2F029BC4
:101AD80089F834701A46844B039943F838901A44AD
:101AE8009180484611B0BDE8F08F506820EA0101A6
:101AF800516072E020211162116841F020011160EB
:101B0800B1E0D9F854100A6842F080020A60DFE0B8
:101B1800CDE900541A9B5A46514630460AF04EF910
:101B28008146DBE09E88002EA3D1142FB2D0A3DC1F
:101B3800022F9ED823462A461A99F8B22AF0C2FBE9
:101B48008146002895D001221A9B80F858200571FB
:101B58004471C0E90766C0E90966C0E90BAB836058
:101B6800406D026814F0040F22F0010202600CBFFD
:101B780000224FF4805206922203240204F4806467
:101B880002F40052089415F00104079216BF0422CB
:101B98000994099215F0020505930A9603D0099A4B
:101BA80042F00802099205A919F0CEFA99F8042022
:101BB80099F8056012F0020F0CBF00214FF40031B4
:101BC80006F00100D30748BF41F48031D9F854200A
:101BD80000288AD0506801435160916830074CBF93
:101BE80041F0080121F008019160116841F00101FC
:101BF8001160002C37D0D9F8381000293FF47AAF9B
:101C080005A818F0DDFED9F8502005924FF480534E
:101C180000228021CDE90E3209920B920A910C9292
:101C2800D9F80C10079220220D92D9F83800D9F86B
:101C380014200692ADF8201018F0EEFE05A9D9F888
:101C4800380018F0CAFED9F83820D9F854001168BD
:101C580041F001011160816841F0400181605268E2
:101C680092B2C9F84820002D32D0D9F83C20002A79
:101C78003FF447AF05A818F0A3FED9F84C20059209
:101C880000244FF48052CDE90E2480220A92D9F81C
:101C98001020ADF82020D9F83C00099410220792B2
:101CA8000B940C940D9418F0B7FE05A9D9F83C00D4
:101CB80018F093FED9F83C20116841F00201116038
:101CC800D9F85410546054608A6842F080028A60DF
:101CD800D9F854100A6842F001020A60B9F1000FFD
:101CE8007FF4F5AEC5E600BF2C890020D80042423B
:101CF8000010024004000020CC400020D840002002
:101D080020490020AC1F0020FC400020142E0308AE
:101D18003822002038B1038813EA010003D08B422F
:101D28000CBF01200220704770B50C4C0C4D0023ED
:101D3800062BDAB203D184F8DC3000200BE05E1CFD
:101D480005EBC30135F8333001321842D2B203D063
:101D5800084684F8DC2070BD3346E9E738220020C5
:101D6800F88800202DE9F043012085B0FFF7DCFF5B
:101D7800294E2A4F05460024002D3BD0022C39D885
:101D8800DC236343F35813B10134E4B2F4E70322CC
:101D980095F9020002930192EA7857F822200092FE
:101DA80001211A46FFF74AFE8146C8B12B88DC2577
:101DB80004FB056013F40F7805FB04F54FF0D80217
:101DC8004FF0000100F1040018BF03F0010830F0E3
:101DD800A0FE7319013446F8059083F8DA80E4B25E
:101DE8000F49104891F8DC208C46D3B2052B04D952
:101DF8008CF8DC3005B0BDE8F08302F1010E00EB91
:101E0800C20530F832200133D207DBB202D581F89F
:101E1800DC30B1E77246E8E7246C0020803803081C
:101E280038220020F888002017280AD800EB400044
:101E3800054B13F8200028B10123013803FA00F0FC
:101E480070470020704700BF9434030810B5002085
:101E580028F0E6F9064B00241C70FFF7ADFD054895
:101E68000549064A064B04700C6014801C6010BDBE
:101E78001625002058490020F43B0020F03B0020A4
:101E8800D03B0020002830D0194B1B6813F40033D6
:101E980024D101229042174908D00133182B03EBB3
:101EA800430223D011F822209042F6D130B4124CCC
:101EB800104A2068590030B14578C81802EB8000F4
:101EC8004078A84208D20B440C480D4902EB830223
:101ED8000023226003800B6030BC7047094B1B78DD
:101EE800032B02D001220023D4E7AFE7704700BFDD
:101EF8000480002094340308D03B0020F03B0020ED
:101F0800F43B0020118000202DE9F04106460E2008
:101F180022F08EFFE8B9444D2C68C4B1434F3B68AA
:101F2800B34214D8424A137853B3DFF82881616862
:101F3800B8F8003000241470CA5C72B9002242F26A
:101F48001071013301FB0266A8F800303E60BDE85D
:101F5800F0810A20FFF796FFDDE7204628F060F9B8
:101F6800344B1C70FFF728FD2A68B8F80030526817
:101F7800D25CFE2A53D10023A8F80030BDE8F081D6
:101F88000123137022F006FCD0B923780A2B3ED027
:101F9800022B15D1284A93689B0711D4274B28494F
:101FA8001B68F31A8B420BD9264B1B6843B926488A
:101FB8002649066012790978FF200AF01DF92C6875
:101FC800DFF890806268B8F80030D25C002AB5D09B
:101FD8002378194A013B0120126800FA03F31342DF
:101FE8001AD0144B01221A70FFF7E6FCB8F800303B
:101FF8002A68002BBBD1117805390129B7D827F0F9
:102008008FFA134B2A681860B8F80030AFE70A4A0D
:1020180093689905C2D5D3E728F002F9E1E7FF2ACA
:102028008DD1BDE8F04111E7D03B0020F43B002002
:102038005849002016250020048000201C25002077
:10204800804F1200484900204C490020128000208F
:10205800EC3A0020F03B002040004028094A30B408
:10206800A8BF4020002302251424D5540233D118D8
:10207800834201F8014CF8D3FF21D1540E2030BC23
:1020880000E700BFE03E00202DE9F0478B4A8C4B6B
:1020980012781C78D207064648D58A4D012C00F0E4
:1020A80090801ED3022C40F09A808749874A09887D
:1020B8001288874F914201D901241C70EB7AFBB139
:1020C8002B89EBB1834B1B78D3B10DF04BFA002869
:1020D80000F0E0802B7B83422CBF012300233B7060
:1020E8000FE0DFF8E4C17A4F7B4CBCF8000022888F
:1020F800697B521A8242DFDAEB7A0024002BDFD1A7
:102108003B782A79632A07D87449022C087800F0AA
:10211800B780002840F09F807149AA7A9C4238BF56
:102128001C460C70002A44D1BDE8F087DFF898C13E
:10213800644DBCF80000BCF8021095F803E0694F44
:10214800411A0029A4F10302B8BF4942704597F823
:102158000080D2B211D32F7887420ED3012A44D9F6
:10216800B8F1020F9AD15B485F4A00789080022943
:10217800CCBF00210121D18090E7B0EB4E0FEDDC00
:10218800012A40F28A800229EADC0324504F514890
:1021980051494E4A1C70B8F1020F4FF000033C70D1
:1021A80003700B80138089D14F4A01219380D1801D
:1021B80084E7012C6AD0022CB6D10720BDE8F0478D
:1021C80060E6424A40491288687B0988121A91429F
:1021D80007DD414A12888A423CBF00241C703C4FEC
:1021E8006CE702241C703A4F68E70229B8DC95F8BE
:1021F80000E090FBFEFE0EF1010EBEF1080FDFF8C5
:10220800D4A0AA786978DFF8C490334C304FA8BFBF
:102218004FF0080E8AF800E01FFA8EFA11FB0AF157
:1022280012FB0AF2DFF8B4A0A9F8001092B200215C
:102238004FF06409B8F1020F228039701970CAF89A
:1022480004108AF801907FF453AF274A0121A2F8BD
:1022580004E0D18049E74868301A244EB042C8BF2C
:102268004A703FF759AFC2F16402214E00FB02F0F9
:1022780086FB0062C017A0EBA250643048704BE7A1
:102288000028E8D101274E600F70ECE70820BDE870
:10229800F047F7E502233B7033E7032C7FF473AF75
:1022A800B8F1020F9BD10B4A0F4B12789A80022982
:1022B800CCBF00210121D980054FFFE63C42002018
:1022C800FC240020347F0020E47F0020002500202B
:1022D8000C25002010800020FE240020042500206A
:1022E8001180002074800020F87F00207F969800DD
:1022F8006BCA5F6B4F4A504B12682DE9F041570289
:102308004E4F396858BF03F50003D60058BF43F451
:1023180000638D074A49097844BF43F4845343F066
:10232800060382B001F0EF0043F40074082800941B
:1023380070D00E296ED04349009B0978D40454BF4D
:1023480043F0107343F0507343F4804300296ED177
:10235800900648BF43F40053510748BF43F4803305
:10236800520554BF43F4003343F4C023364DDFF81D
:10237800E48043F06053062200932E1D01926C46C0
:1023880015F8010BFF2814D00021304A0B4603E052
:102398000133292B0DD0117A884202F10C02F7D1B2
:1023A80003EB430308EB8303197FA1F12303032BFA
:1023B80034D9B542E4D13B689B0733D400250127C3
:1023C80002E00135292D1DD029462046EEB228F01D
:1023D800B1FF0028F5D01D4B002203F5F07101E094
:1023E80013F80C2F9642ECD09942F9D16A0906F0FD
:1023F8001F0654F8223007FA06F623EA060644F8C0
:102408002260DEE794E80300114B83E8030002B082
:10241800BDE8F08143F4407300938CE7204628F030
:1024280079FFC6E7019B43F480730193C6E743F045
:1024380080438DE7E86E0020010000800046002000
:10244800E43A002000710020B86E0020102C030828
:1024580050220020F42B030810B40C4C0021224613
:102468000B4603E00133292B0BD0117A884202F185
:102478000C02F7D103EB430304EB83005DF8044B34
:10248800704700205DF8044B704700BF102C03080C
:1024980010B40B4C00222146134604E00133292BCB
:1024A8000AD011F80C2F9042F8D103EB430304EB48
:1024B80083005DF8044B704700205DF8044B7047BB
:1024C800102C03082DE9F04F2DED028BA0F10A0323
:1024D80085B00C46ED2B00F2B484DFE813F07702E8
:1024E800B204B204B204B204B204B204B204B20434
:1024F800B204B204B204B204B204B204B204B20424
:10250800B204B204B204B204B204B204B20459026E
:10251800B204B204B2043102B204B204B204240216
:10252800B204B701B204B204B204B204B204AF01F7
:10253800B2048A01B2047601B204B204B204700192
:102548006901B2045501B204B2044E01B204B204E6
:10255800B204B204B2043C01B204B204B204B2043C
:102568001D01B2047204B20463044904B204B20443
:10257800B204B204B204B204B2041A04B204D3031B
:10258800B2047D03B204D702B204C302B204B20497
:10259800B204B20419068105B2042E051B05B20463
:1025A800B2043306C405B204CF05FF00B204B20476
:1025B800B204B204EE00B204B204B204B204B2042B
:1025C800B2040B05F304C304B204B204B204B204A7
:1025D800B404B204B204AC04B204B204B204B20447
:1025E800B204B204B204B204B204B204B204B20433
:1025F800B204B204B2041906B204B204B204B204BA
:10260800B204B204B204B204B204B204B204B20412
:10261800B204B204B204B204B204B204B204B20402
:10262800B204B204B204B204B204B204B204B204F2
:10263800B204B204B204B204B204B204B204B204E2
:102648009D04B204B204B204B204B204B204B204E7
:10265800B204B204B204B204B204B204B204B204C2
:10266800B204B204B204B204B204B204B204B204B2
:10267800B204B204B204B204B204B204B204B204A2
:10268800B204B204B204B204B204B2049204B204B2
:10269800B204B204B204B204B204B204B204B20482
:1026A800B204B204B204B204B204B802B204B2046E
:1026B800B204B204B204B2048902A94952232268BE
:1026C800501C2060137011F8013F002BF7D1012531
:1026D800284605B0BDEC028BBDE8F08FA14800226A
:1026E8000168256802EB42035B0019446E1C097AF5
:1026F800266029700168256819446E1C497A26608D
:102708002970016825680B4401329B7A691C052AE7
:1027180021602B70E4D1DAE7934D0B682A79591CB4
:1027280021601A7023686A79591C21601A702988F7
:10273800204629F053FC2368AA79591C21601A7095
:102748006988204629F04AFC2268E979531C2360ED
:1027580001251170BCE70B6800255A1C0A60204649
:1027680029461D7029F022FC2946204629F01EFC26
:102778002946204629F01AFCA9E7084608227B4981
:1027880029F0FCFB0125A3E70B68794A79495278BF
:10279800581C20601A7023680022581C20601A7088
:1027A800226891F88010531C2360012511708FE76F
:1027B8000A680121531823600D46117088E70846FE
:1027C800002129F0F3FB012582E76B4D6B4E05F1E3
:1027D800300795F902106A4B93F906208A4203F1F3
:1027E800080300F0CC849E42F6D10835AF42F0D100
:1027F8006DE7644B03F1960522685979501C2060F7
:10280800117022681978501C20601170226859785C
:10281800501C2060117022689978501C206011703B
:102828002268D978501C20601170226819790A33FF
:10283800501C9D4220601170DED148E70A684B4B5E
:10284800D97B531C23600125117041E7474D0B6864
:102858002A7A591C21601A70E98A204629F0BEFBA1
:10286800698A204629F0BAFBA98A204629F0B6FBD6
:1028780023686A7B591C21601A70E98B204629F06D
:10288800ADFB298C204629F0A9FB23682A7E591C18
:1028980021601A702368AA7E591C21601A702B7F48
:1028A80003EB8303590001F57A71204629F096FB62
:1028B800236800265A1C226031461E70204629F0E3
:1028C80075FB23685A1C22601E702368EA7E591C17
:1028D80021601A7023686A7E591C21601A70236867
:1028E80095F82520591C21601A70236895F8262030
:1028F800591C21601A70236895F82720591C2160FB
:102908001A70236895F82920591C21601A702368C9
:1029180095F82A20591C21601A702268531C2360DC
:1029280001251670D4E60A68174B501C19782060E8
:10293800117022685978531C236001251170C7E66D
:10294800124D0846298829F049FBA988204629F014
:1029580045FB2989204629F041FB0125B8E600BF3F
:10296800442E0308F8450020D84F0020CC7E0020D4
:102978001025002038220020F88800205C890020DB
:102988002C8900202C4C0020E43A00204031002003
:102998008B4D05F178062878FFF77AFD2368027ACF
:1029A800591C21601A7023686A78591C21601A70B2
:1029B8002368AA78591C21601A702368EA780635BA
:1029C800591CAE4221601A70E5D180E67D4D28463B
:1029D8002EF0E8FD00283FF47AAE2B460544226825
:1029E80013F8011B501C9D4220601170F7D16EE650
:1029F80001A828F023FE00283FF469AEBDF80410B2
:102A0800204629F0EBFA23689DF80620591C21601E
:102A18001A7023689DF80720591C21601A702368D2
:102A28009DF80820591C21601A7023689DF8092018
:102A3800591C21601A7023689DF80A20591C2160CE
:102A48001A702046BDF80C1029F0C8FA3FE65E4D12
:102A58000846E98929F0C2FAA989204629F0BEFA70
:102A6800012535E60B68584A5849D078584A5D1C04
:102A78002560187023685279581C20601A702268E3
:102A8800C978531C23600125117021E600212046D6
:102A980029F0A4FA0021204629F0A0FA00212046B6
:102AA80029F09CFA23684B4D00265A1C22601E70A0
:102AB80023682A68591C92F84A2021601A702368F2
:102AC8002A68591C92F84B2021601A7023685A1CF6
:102AD80022601E7023685A1C22601E7023685A1CCC
:102AE80022601E7023685A1C22601E702B682046C4
:102AF800998F29F073FA2B682046598F29F06EFABE
:102B08002A68236892F82D20591C21601A702368BE
:102B18005A1C22601E702B682046598E29F05EFAD6
:102B28002B682046998E29F059FA3146204629F01B
:102B380055FA2A68236892F85520591C21601A70A2
:102B48002A68236892F85620591C21601A702A684E
:102B5800236892F85920591C21601A702A68236842
:102B680092F85720591C21601A7023685A1C226059
:102B78001E7023682A68591C92F8532021601A7025
:102B880023682A68591C92F85A2021601A702B6809
:102B98002046998929F022FA2B682046598A29F07B
:102BA8001DFA2B682046198B29F018FA2B68226821
:102BB80093F83010531C23600125117088E500BF7D
:102BC800E43C002034490020F83B0020D03E00209F
:102BD800B4490020F8450020AC4E0B68327AAC4D61
:102BE800591C21601A702B682046598829F0F6F97B
:102BF8002B682046198829F0F1F9B189204629F077
:102C0800EDF9F189204629F0E9F92B6820469988E1
:102C180029F0E4F92B682046D98829F0DFF9318AB0
:102C2800204629F0DBF9718A204629F0D7F92A686D
:102C3800236892F82620591C21601A702368F278BC
:102C4800591C21601A7023683279591C21601A7046
:102C58003189204629F0C2F97189204629F0BEF948
:102C68002368F27D591C21601A702368327E591C32
:102C780021601A702B682046B3F8501029F0AEF97D
:102C8800012525E50B68814E824AB178824D581C92
:102C98002060197023681278591C21601A70236803
:102CA8002A79591C21601A702368AA78591C216056
:102CB8001A702988204629F091F9E989204629F0D7
:102CC8008DF92368B279591C21601A702368EA7853
:102CD800591C21601A702368F279591C21601A70F6
:102CE80023687279591C21601A7023687278591CFC
:102CF80021601A70B18B204629F070F9B18A2046FC
:102D080029F06CF92268B17D531C236001251170EC
:102D1800DEE4624B1D68002D00F01A8304A900232D
:102D280001F80C3D284611F0DDF9284611F0E6F9C6
:102D380022685B4B511C2160107022681978501C66
:102D48002060117022685978501C20601170226828
:102D58009978501C2060117022689DF80410501C4E
:102D6800206011702046998829F038F90125AFE4D0
:102D78000A684C4B4C490125501C2060157022688C
:102D880098785619266010702268501920601570BE
:102D9800226809785019206011701988204629F096
:102DA8001DF995E40B6800255A1C0A601D700B6814
:102DB8005A1C0A601D700B685A1C0A6029461D704F
:102DC800D3E43A4F3B78002B3FF481ACDFF8F08036
:102DD80000254646236818F81520591C21601A70EA
:102DE800717801EB810101EB810101F2EE212046AE
:102DF80029F0F4F83B780135AB4206F10206E9DC2C
:102E080065E4224D0846298C29F0E8F8698C2046AB
:102E180029F0E4F801255BE40B68254A591C12786F
:102E2800216001A81A7028F009FC2268531C23604D
:102E3800012510704CE41F4B1B6813F0006340F031
:102E48006A82002544E4144D0846298A29F0C6F808
:102E5800698A204629F0C2F8A98A204629F0BEF8D6
:102E6800012535E40B68094A13491078134A5D1C9B
:102E78002560187023689278581C20601A702268A0
:102E88008978531C23600125117021E48C5F002090
:102E9800F8450020DC4B0020E87000200C4300209F
:102EA800324200207649002040390020DC360020DC
:102EB8007E340020E86E0020D03E0020F83B002041
:102EC800143E00200A68BD4BBD491878551C256082
:102ED800107022685878551C2560107022689B78FD
:102EE800501C206013702046C98829F077F8012506
:102EF800FFF7EEBBB24D0846298829F06FF86988BC
:102F0800204629F06BF8A988204629F067F80125A2
:102F1800FFF7DEBBAB4F3B78002B3FF4D8ABAA4E94
:102F2800002536F9021B204689B229F057F83B786C
:102F38000135AB42F5DCFFF7CABBDFF8BCA2DFF80E
:102F4800BCB2A24EA24F9FEDA38ADFF8B482DFED98
:102F5800A28ADFF8B0920AF1C0050EE0FCEEE77A2B
:102F680017EE903A99B220460AF1180A29F036F875
:102F7800AA450BF1040B3FF4AAAB9AF811100029EB
:102F8800F1D03378DBED007A012BE7D13B68DB0425
:102F980040F19681F5EE407AF1EE10FA00F0AA8140
:102FA800F4EEC87AF1EE10FA00F1A481BDEEE77AEA
:102FB800F4EEE87AF1EE10FA17EE103A00F2D38147
:102FC800A3F130026FF4F97303FB02F389FB0312D8
:102FD8001A44D917C1EB622101F2DB5189B2C2E769
:102FE8007E4B9B8AB3F5006F00F28181B3F5806F49
:102FF80000F2B681B3F5007FB6EE008AF7EE007AEC
:1030080038BFB0EE678A764D05F10C06B5EC010ABB
:1030180020EE080A2EF0B4FE81B2204628F0DEFF2A
:10302800B542F3D16F4D704F05F10C06B5EC010AAE
:10303800D7ED077A80EE270A2EF0A2FE81B220464D
:1030480028F0CCFFAE42F1D10021204628F0C6FF7F
:103058000021204628F0C2FF2046002128F0BEFFAC
:103068000125FFF735BB0021204628F09FFF2046A9
:10307800002128F0B3FF0125FFF72ABB5B4D0B6841
:103088002A68591CD27821601A702B6822689979AD
:10309800531C2360002311702A6821681A440133E5
:1030A800527A481C032B20600A70F5D12A682368DD
:1030B800127B591C21601A702A6823681278591CDF
:1030C80021601A702A6823685278591C21601A7086
:1030D8002B682046D98928F081FF2A682368127A4C
:1030E800591C21601A702A6823685279591C21607A
:1030F8001A702A6823681279591C21601A702B6883
:103108002268D979531C236001251170FFF7E0BAB2
:10311800002306461D46DFF8F080CDE901339946C5
:1031280001E0292D72D02946404628F003F9EFB274
:1031380001350028F5D03846FDF77EF8D0B909F1F9
:103148000109EEE72A4D0846298828F047FF6988D3
:10315800204628F043FFB5F90430264AD91782FBE8
:103168000323C1EBA301204689B228F037FF0125CC
:10317800FFF7AEBA494601A828F0CCF8DFE7236884
:103188005A1C226019702988204628F027FF2368D6
:10319800EA78591C21601A7023682A79591C216021
:1031A8001A702368AA79591C21601A7023686A79F1
:1031B800591C21601A70FFF718BB00BF902500202A
:1031C800E04F0020DC360020F0480020007100208D
:1031D800E86E00200000404200E08244B84500202C
:1031E800DC450020805F002030520020FC45002094
:1031F800B04500206766666628700020703C002095
:10320800DB9B914121053483502200205E4B5F4DAA
:10321800B3F88410204628F0E1FE0021204628F06B
:10322800DDFE5B4B19684B0103F02002C1F340033C
:103238001343C1F3800243EA4203C1F3C00243EAE5
:103248008203C1F3401243EAC20301F0100119439B
:10325800204628F0C3FE01A90422204628F08EFE4D
:10326800236829784B4A581C2060197011886429F2
:10327800A8BF6421204628F0B1FE962E40D0002138
:10328800204628F0ABFE2168B9F1190348BFA9F11F
:103298001203A3F3C4034A1C226020461A460B708B
:1032A80002A928F06BFE23683B4A581C14212060B1
:1032B80019702046116828F079FE0125FFF708BA31
:1032C800F4EEC87AF1EE10FA17DBFDEEE77A40F279
:1032D800E73217EE903A303B02FB03F388FB0321F9
:1032E800DB17C3EB612101F2E93189B23BE6B4EEA9
:1032F800008A88E640F2DC5135E64FF47A7132E60E
:1033080023680322591C21601A7023686A78591CA3
:1033180021601A70B7E70B68204E591C327821607B
:103328001A703378002B3FF4D2A90025E8B218F0C0
:103338009FFE23684278591C21601A7081892046B3
:1033480028F04CFE33780135AB42EFDCFFF7BFB90C
:103358000A68FF21531C236001251170FFF7B8B9D3
:10336800B5EE008A4FE6A3F5836240F2F31303FB40
:1033780002F389FB03121A44D917C1EB622101F247
:10338800DD5189B2EFE500BF041B0020B47F0020A7
:1033980000460020F44B0020F04500201280002059
:1033A8002DE9F0430646B0F908000881C4B283B09D
:1033B80020460D4617462CF0FFFD28B10120034694
:1033C800AB8103B0BDE8F08329462046FFF77AF8C1
:1033D8000028F3D1742C00F08B80772C78D0442C03
:1033E80007D0F52C19D0314620462CF099FC03B2B1
:1033F800E6E7D6E900329A4240F08A80624B0246FC
:1034080083F822002B68591C29601A70002FD5D028
:103418005E4B3B6001200346D2E7D6E900329A4270
:1034280040F08380584BFF2283F820204FF000099A
:10343800574C09F00BFB49462022564884F8009067
:103448002FF067FB8DF807909DF80730072B00F2E7
:103458009980DFF858814F4E4A469DF8073003EBB4
:10346800430308EBC3035B7CE3B19DF8073003EB30
:10347800430308EBC30320215B699BB19DF8073028
:1034880003EB430308EBC303586946F8220026F010
:1034980039FD237856F8230026F0B4FE227801324D
:1034A800D2B222709DF807300133DBB28DF80730B5
:1034B8009DF80730072BD0D92B68591C29601A7042
:1034C800002F3FF47BAF344B3B600120034677E786
:1034D800D6E900329A421EBF5A1C326019782F4A28
:1034E80008BF01462846FCF7A1FF0120034667E70D
:1034F800D6E900329A421EBF5A1C32601978284A0F
:1035080008BF01462846FCF791FF0120034657E70C
:103518005A1C32601A781C4B012A83F822207FF645
:1035280071AF4FF0FF3003464AE719465A1C326024
:1035380011F8022B316014495B7881F82130042A94
:1035480081F820200AD9FF2A3FF470AF2A680021A9
:10355800531C01202B600346117031E7114909788B
:10356800994203D8022AF1D1FF2BEFD12B68012011
:103578001A182A601870002F3FF420AF0A4B3B60DE
:1035880003461DE74A4697E738220020D50400087D
:10359800D74B00207C380020B1080208F101000850
:1035A800A904000812800020C10400082870002027
:1035B80010B5094C238823EA00009842208009D0DE
:1035C800064B41F20241FF2219809A700E20FEF745
:1035D80059FC2388184610BDF4450020E03E002021
:1035E80010B5094C238818439842208009D0074B0E
:1035F80041F20241FF2219809A700E20FEF742FC28
:103608002388184610BD00BFF4450020E03E002086
:10361800024A136818431060704700BFF045002045
:103628002DE9F04FC74C2DED028B237891B005465C
:1036380043B1DFF864A3DAF80C305046984780F0BD
:1036480001002070C04B1A78002A00F02B81BF4976
:10365800BF48C04E0C7805F5EC425F32026000208E
:1036680032681870002C00F02281954201D9013C83
:103678000C70284609F090FC002800F01381B64B26
:10368800B64F1A68B7F90630D189B54801248B427C
:103698000470C0F25181B3F5FA6F127B9FEDB17AD5
:1036A800BFBF581A4243C1F5FA6192FBF1F2C2F169
:1036B800640207EE902AF8EEE77AAB4A67EE877A5B
:1036C800C2ED007AA948AA4990F904204D8AB7F9B1
:1036D80000E090F800C04678A64C002AAEEB050240
:1036E80014BF01204FF0FF30002AB8BF5242B2F594
:1036F800FA7FA8BF4FF4FA726245C5BFA2EB0C026D
:1037080007EE902ADFEDA77AF8EEE77A7545B7F964
:1037180002E0C4ED007AAEEB0502C4BFF1EE677AB1
:10372800C4ED007A002AB8BF5242B2F5FA7FA8BFAA
:103738004FF4FA729445BABFA2EB0C0207EE902A36
:10374800DFED987AB7F90470B8BFF8EEE77A7545F7
:10375800A7EB0502C4ED017AC4BFF1EE677AC4EDA8
:10376800017A002AB8BF5242B2F5FA7FA8BF4FF4D7
:10377800FA72964280F22B81921B00FB02F207EE4E
:10378800902AF8EEE77A7C4AC4ED027ABD421068C6
:10379800C4BFF1EE677AC4ED027A10F4805000F0ED
:1037A8000381B3F5FA6FA8BF4FF4FA63B3F57A7FD4
:1037B800B8BF4FF47A73A3F57A71704B1A78002A60
:1037C80040F045816E4E6F4F86FB0123CA17C2EB4E
:1037D80063135A1C6FF0630C37F9122037F9137012
:1037E8000CFB0313D21B03FB02F386FB0326DB1738
:1037F800C3EB66133B441BB207EE903AB8EEE78A78
:1038080084ED038A002840F0F2805F4B1B8859063C
:103818003CD59A073AD05D4B94ED004A93ED022AC5
:1038280093ED037AD3ED012AD4ED017A93ED005A92
:10383800F1EE423AB1EE473A23EEC46AF1EE621A6B
:1038480064EE034AA7EEA16AE7EE854A63EE675A7B
:1038580067EEA37AE4EE055A62EE866A27EE247ACA
:10386800E4EE217AE5EE246AA5EE257AF1EE677A90
:10387800E2EE276AA2EEA77AF0EE667AE3EE257A00
:10388800A3EE867AC4ED017A84ED007A404B1B786A
:10389800DB0700F19F8011B0BDEC028BBDE8F04F53
:1038A80003F0D2BF11B0BDEC028BBDE8F08F95429A
:1038B8007FF6DFAE374B1E78002E00F0D480DFF89D
:1038C800D8A0DFF8D8B0DFF8A880DFF8D490574642
:1038D80028E018F804109847032C03462ADCC8B1DE
:1038E80009EB840339F824105A88401A4FF47A7384
:1038F80003FB00F0521A40F6CA0390FBF2F000F501
:103908007A709842A8BF184640F2EE239842B8BF92
:10391800184600B21F4B2BF8020B1E780134B44234
:1039280080F2A180072C3846DAF80430D1DDE1B204
:103938009847034618B2EDE70B4A4FF07E511160E5
:10394800C0E600BFF9360020F8360020983C002079
:10395800F4360020943C0020FC450020F04800206C
:103968000C5000200AD7233CC84A0020902500208C
:10397800CC7E0020603C0020E86E0020042500205A
:103988001F85EB51F04F0020F4450020CC2000208B
:103998003C420020C83D0020DC36002018230020CF
:1039A800E03D0020000000008A8A934259DBB3F50D
:1039B800FA6FD4BFC2EB0303C2F5FA634FF47A710E
:1039C800C2F5FA6201FB03F3B3FBF2F1F5E65FED32
:1039D8000B7AD8E6B94ABA4B1178186801F0010198
:1039E80011B0BDEC028BBDE8F04F26F011BCB54B11
:1039F800DB78002B7FF409AFB34BB4481E7B18214A
:103A080027F098FC002E40F0188100283FF4FDAE06
:103A1800DFEDAF7AAF4978EE677AC5F5FA63FDEE68
:103A2800E77A1AB217EE903A1BB21B0381FB030127
:103A3800DB17C3EBA11302FB03F343F30F332B4450
:103A480007EE903AF8EEE77AC4ED037ADDE65B78A4
:103A5800A14A01FB03F382FB0321DB17C3EB6111CE
:103A6800B0E60146A9E69D4B1A789D4BD3F8008035
:103A7800002A40F0DD8013469A49097804912929E3
:103A880004D199489949007848800A80984A0124C5
:103A98001470002E00F0A981964A8B4F107803907D
:103AA8009548DFF874C2C18B0191018C0291418A5B
:103AB80003980A91397B0D910746ACFB07714908B9
:103AC800079201EB41018D4ADFF850921268DFF846
:103AD8003CB20B94411AC8B206F1FF3A0590CDE901
:103AE8000865400042F201010690BAF1030F02F4A2
:103AF80080500C9002EA0102A8BF4FF0030A00248C
:103B0800002B00F00D817E49019831F81410814294
:103B18004FEA4407C0F004810298814200F2008114
:103B280008F5967049F8240009B2002A40F0178178
:103B38002BF8071001345445E2DDDDE90865B4428D
:103B480027DA704FDFF8C4B1069504EB440107EBA0
:103B58004107002B00F096806949019831F814104C
:103B680088424FEA440A00F28D8002988842C0F0E9
:103B7800898008F5967049F8240009B2002A40F0B7
:103B880014812BF80A100134A64207F10607E0D188
:103B9800069D574B1B78002B40F02981524B012280
:103BA80004201A70FFF734FD464A4D4BD2E9011044
:103BB8001B68D3601B1A8B4202D9002382F821307C
:103BC800514B1E78474B1B780493002E00F026813A
:103BD8003D4A4A4B117B1B68474A03F48053B2F8AD
:103BE8001E80578A002900F043814849484C83B118
:103BF80079E1022A40F02481427802EB820202EB4A
:103C0800820202F2EE2201339E4221F8022B00F0DA
:103C1800058114F8132004EB4300002AE9D1DAB235
:103C2800022A40F25E81032A40F00A814246EAE70E
:103C38002D4B1B7883F001031EE7DFED257A254A1B
:103C480038EE678ABDEEC88A18EE103A1BB21B031D
:103C580082FB0312DB17C3EBA213002800F02E81AE
:103C6800C5F57A7212B203FB02F343F30F332B4408
:103C780007EE903A274BF8EEE77A0122C4ED037A73
:103C88001A70C2E559F82410A8EB01010029FFF6C3
:103C98007AAF1F4810F814104FEA440A504400291C
:103CA80000F0D080022940F0C880417801EB810102
:103CB80001EB810101F2EE215FE700BF0063002004
:103CC8000463002040420020E04F00201839002003
:103CD80000007A44D34D62101F85EB51C036002096
:103CE800386300207480002052020020F87F0020F2
:103CF80020390020993C0020CC7E0020E86E00206E
:103D0800182300203C230020C83D0020F048002054
:103D1800143E002088250020ABAAAAAA9C3C0020BB
:103D280059F82410A8EB01010029FFF603AFA848B1
:103D380010F8141067003844002900F08E8002291A
:103D480078D1417801EB810101EB810101F2EE218B
:103D5800A04D0020287009B2002A3FF4E9AE9E4821
:103D68009E4D069E95F84CE107EB040C00EB4C00C9
:103D78008153BEF1000F06D1039E022E7FF6D8AE06
:103D88000B9985F84C114188B0F804E0924830F856
:103D98001C007144014408B2914981FB0051914DC6
:103DA800A1EBE071E85309B2C2E68C48059D90F892
:103DB8004C0127F8151038B9039D022D7FF6E1AEA6
:103DC8008648012180F84C117988B7F800C0B88876
:103DD8006144014408B2824981FB0051814DA1EB45
:103DE800E07125F80A0009B2CBE67F4B07937F48BC
:103DF800092127F09FFA00287FF4D0AE7C4A7D4B3A
:103E0800D1681B6893605B1AC82B07D97A490B687D
:103E1800012023F004030B6082F82100049B292B66
:103E280003D1764A764BD288DA80079A1378013321
:103E380013701EE43BF807108AE73BF80A109CE66B
:103E48000A88E0E6E1B2022936D90329F5D10C99AE
:103E5800002940F0AB8001998FE6E1B2022929D907
:103E68000329E7D10C99002940F08E8001996FE76A
:103E7800002B56D16149564C0DE0022A18D14278E0
:103E880002EB820202EB820202F2EE2201339E4230
:103E980021F8022BC2D014F8132004EB4300002AA7
:103EA800EBD1DAB2022A1AD9032A01D14246EDE748
:103EB8000A88EBE70A994BE70A995EE6C5F5FA62C4
:103EC80012B203FB02F343F30F332B4407EE903A8D
:103ED8004C4BF8EEE77A1870C4ED037A95E43A464D
:103EE800D4E73A468FE600230BE0427802EB8202E1
:103EF80002EB820202F2EE2201339E4221F8022BEB
:103F08008CD014F8132004EB43001AB1022AECD029
:103F18000A88F1E7DAB2022A32D9032AF8D14246EE
:103F2800EAE7DFF8D8A02A4CDFF8C0B089460DE0F0
:103F3800507800EB800000EB800000F2EE2009F1E1
:103F48000109B1452AF8020B3FF468AF14F819309B
:103F580004EB490223B1022BEAD0BAF80000EEE7DD
:103F68005FFA89F3022B0DD9032B4FF0180158463D
:103F7800F3D127F0DFF900280CBF38464046DEE7CA
:103F88003A46B9E73846DAE718211848CDE90E323B
:103F980027F0D0F9DDE90E3200287FF467AF0D99DC
:103FA800019800290A9918BF0146D1E618210F483F
:103FB800CDE9083227F0BEF9DDE9083200287FF4A0
:103FC8004AAF0D99019800290A9918BF0146D4E50E
:103FD800143E0020203900203C23002038220020F5
:103FE8005655555588230020993C00201839002043
:103FF8004042002038630020F0450020F0480020AF
:10400800F87F0020882500202DE9F041614F624E9D
:104018006248634D01240021582287F888402EF019
:1040280078FD604A00233046C7F884301360FDF7F6
:10403800A7FB214620460BF0DFFA214606200BF0AD
:10404800DBFA6F79584B391C1A8E584B93FBF2F3F5
:1040580018BF0121642BB8BF64230820C6F8483173
:104068000BF0CAFA95F8068018F100014FF0090024
:1040780018BF01210BF0C0FAAB7A002B56D04C4C7C
:10408800002F5DD118F1000118BF01210A200BF0A3
:10409800B3FA2168474DC1F340510D200BF0ACFA3B
:1040A8002B68D9074ED49A0767D4012105200BF055
:1040B800A3FA002107200BF09FFA01210B200BF037
:1040C8009BFA21684B0549D4C1F340510D200BF0F0
:1040D80093FA216811F4802104D0374B1968003114
:1040E80018BF01210E200BF087FA21680F20C1F3B9
:1040F800C0610BF081FA012114200BF07DFA012137
:1041080010200BF079FA012111200BF075FA01212A
:1041180012200BF071FA294B196800314FF0130087
:1041280018BF0121BDE8F0410BF066BAEB7A204CCC
:10413800002BA5D1216811F48021A7D0002FA1D090
:104148000121A3E71E4B1B68642BB8BF6423012120
:104158000220B3670BF050FA2B68A4E701210C206A
:104168000BF04AFA174B21681B7A083B012B9CBFBE
:104178004FF4FA63C6F88032A6E7012103200BF05A
:104188003BFA4FF47A7301210420C6F8AC300BF0E7
:1041980033FA8AE738220020041B0020042B002071
:1041A800347F0020002B0020F888002040420F00B8
:1041B800E86E00200046002028430020A048002088
:1041C8007C5F0020CC7E00201F4C08B50121022016
:1041D80026F062F8237803F00502052A12D003F0CE
:1041E8000903092B12D00021012026F055F80021DF
:1041F800084626F051F8322025F042FA022025F030
:104208001DFCF8E720F0A8F82378E8E70F4A104BE0
:1042180011681A680B680F4C4FF6FE7003400B606C
:104228001388206823F001031B041B0C138018B1AA
:104238002A2200238271C37102224E2124F0D6F86B
:10424800206825F0D9FFCEE708310020643100202E
:104258005C31002060310020022838B504460DD8B2
:1042680000EB8003084A094D094903EB830302EB7D
:10427800830318462B600C701EF0FEFE601CC0B253
:10428800BDE83840FDF7E8BEE6310020F8450020DB
:10429800B47F002038B5504B1B68B3F5FA7F00F2A5
:1042A8008C804E4B9A89D989D878914224BF0022B4
:1042B8009A81598A1A8A914224BF00221A820128B7
:1042C8000DD9474A474D92F85C10012400220A296B
:1042D8002C709C709A7139D1DFED437A15E09A7988
:1042E80022B199780429B8BF042199703C4991F802
:1042F8005C100A2966D00C292AD1DFED3C7A9FEDA3
:104308003C7A002A18BFF0EE477A3A4CA278062A7F
:1043180097BF3949DFED366A01EB8201D1ED9B6A1F
:104328002179F9B1013A032A0AD8B7EE000A80EEDA
:10433800260A2DF025FD2388984228BF184620809C
:104348002E4A9378013B012B09D938BD0C2903D09B
:1043580001283DD90A2938D0DFED297ACFE7002393
:10436800937038BD9B781F4907EE103A0A78B8EE6B
:10437800C77A67EE277A07EE102AB8EEC77A27EED3
:10438800277AF4EEC76AF1EE10FAD9DD86EEA77A3D
:10439800FDEEC77A17EE903A102BA8BF1023012B19
:1043A800B8BF0123DBB29A4238BF1A460A70134AD3
:1043B8009378013B012BC8D8D1E74FF0005026F085
:1043C80034FF6EE7DFED0F7A99E7DFED077A96E7BE
:1043D800DFED0D7A93E700BF7C5F00208C5F002043
:1043E80030520020DC4B00200F506E3A0AD7A33918
:1043F8006F120338E8700020F42B03087649002078
:104408006F12833A5304E9386F120339F8B5AC4A8E
:104418001378A3F11701022905D9AA4911F8330025
:10442800002840F017810024A74EA84F2546315B8D
:104438004B0803F077334FEA910C0CF0333CCB1A5E
:10444800CA08A3EB0C0302F011329B1A03EB2313E7
:1044580003F00F33A7FB03C2D209C2EB02229A1A58
:1044680011F001031CBF0135EDB2012A06EB04006F
:1044780004F108040BDD022A40F0E88013B111F4BE
:104488002F7F04D118F018FD002800F0DF80302CB1
:10449800CDD1013D022D00F2D980802026F0C5FE45
:1044A8008B494B78052B00F2CD808A4A03EBC30376
:1044B80002EB43020B788848022B026000F2BD80B1
:1044C80003EB8302854C02EB820204EB8202642137
:1044D80001FB0343824D9988D8882A608842814D20
:1044E80024BF00229A80AB78042B00F0BC8033B93B
:1044F8002B88B3F5F07F84BF4FF4F0732B807A4D8F
:10450800FFF7C8FE2B68794A1A40002A00F0668136
:10451800DF0700F1C9805E0400F1B380180700F1DD
:10452800B780990400F1BB801A04714D7DD5002332
:10453800EB7385F8233020F0CFFC00285CD06B7E2D
:10454800032B59D05A1E012A6BD900232383A4F8C0
:104558007C30A4F8E03020F0BFFC002860D10023B4
:1045680084F8533084F8B73084F81B31614BDA791A
:10457800022A08BF01224FF00A0008BFDA7120F0B2
:10458800ADFB002840F0C6804FF48060FDF7CCFBFF
:10459800002800F01E814FF4007026F046FE4FF40C
:1045A800803026F042FE4FF4003026F03EFE52489E
:1045B800524C26F03AFE4FF0007026F036FE4FF0CF
:1045C800806026F032FEA388002B72D14C4A136813
:1045D800DB0DDB050BB100231360936823F4007334
:1045E80023F002030BB1002393601379013B042BE2
:1045F80001D901231371F8BD0023A3816382A4F8B4
:104608007030A4F87630A4F8D430A4F8DA3020F06A
:1046180063FC002899D06B7E5A1E012A95D800E0C9
:104628006B7E023B022B9AD8A0E7EA7B002A00F0B7
:10463800C780002385F823307DE7284C00232246D5
:104648000B7044E70023234A4B7033E71E48FBF7FF
:104658004BFE22E701EBC3035B68002B7FF4E3AE5C
:1046680017231370DFE64FF4805026F0DEFDAB8A87
:10467800B3F57A7F37BF4FF47A72AB78AB78AA82FA
:1046880035E7204826F0D1FD2B6818077FF549AF9C
:104698001D4826F0CAFD2B6899047FF545AF1B48D5
:1046A80026F0C3FD2B683FE7194826F0BEFD2B68AE
:1046B80031E7207824F0D2FD002887D1A08085E753
:1046C800E43A0020AC540308F888002081808080F8
:1046D800B47F002040330020FC450020E631002054
:1046E800F8450020E87000200080002009600002E2
:1046F800CC7E0020D84F002020001000223100205E
:104708000480002009200002016000020940000224
:1047180008600002334F002207F1060E1146944646
:1047280001EB4100430017F810000A2807EB0305C6
:1047380040D05B1B28464E1CEABB7344142E1D4414
:104748003FF422AF10F8062F0A2A08D00136142E9B
:104758001D443FF419AF10F8062F0A2AF6D101229A
:104768009319132B15D803EB430007EB400117F8F7
:1047780010000A2808BF013305D012E011F8064FCF
:104788000A2C0ED10346132B02F1010203F101009A
:10479800F4D9C5F800C0A5F804C0711C1429BFD10C
:1047A800F2E603EB430307EB4303196829609B8890
:1047B800AB80F2E70AB10E46D2E70E460122CFE7F8
:1047C80042F2010213423FF4B6AE002385F82330CB
:1047D800B1E64FF0006026F028FDDCE643F0080360
:1047E8002B6095E6E43C00202DE9F04F8DB0FFF7F3
:1047F8000DFEDFF894915B4FDFF8908113F0D0FE47
:10480800594A5A4BB2F88822ADF80620A3EB09039F
:1048180000934FF0030A0026CDE90866CDE90A6641
:10482800009BCDF818900793D8F810301B0606D5D2
:104838004F4BC8F8043003F18833C8F8043001231B
:104848008DF82C303423C8F80C300222BDF806301D
:10485800ADF8083002A906A826F0CEFC022202A96B
:104868004FF6FF7026F09CFE424BBB42834629D28E
:104878001C46658823888DF81560C5F30B05C3F3BE
:104888000B00A91D1B0B0622ADF81010ADF8120085
:1048980004A906A88DF8143026F0AEFC5846062266
:1048A80004A926F07DFE616883462A4606A826F0FC
:1048B800A3FC616858462A4626F072FE1434BC42AE
:1048C8008346D6D3022203A906A8ADF80C6026F0C9
:1048D80093FC022203A9584626F062FE40BAC3435D
:1048E800022204A906A8ADF8103026F085FC099824
:1048F80050BB0A989DF82C308BB9C0B1BAF1010AA7
:104908008AD1052028F0C2FE1B491C4B1C481D4AB1
:104918000860DA6013F0DAFD0DB0BDE8F08FD8F862
:10492800103043F08003C8F810300028E6D199F819
:104938000030AD2BE5D199F80130BE2BE1D126F03E
:1049480049FE0028E6D1DCE708ABC0F104020021EB
:1049580018442EF0DEF8089906A826F0F3FBCDE9F6
:104968000960C7E7D09E0308F42B03080000040879
:1049780023016745709A0308FC9F002000ED00E0C2
:10498800EFBEADDE0400FA0500F003080020024087
:1049980008B527F051FB27F077FBFFF725FFBDE8A7
:1049A8000840FCF73BBD00BF2DE9F84F13F0F8FDB8
:1049B8002B4B2C4A934250D22B4F03F114069B46A3
:1049C8004FF00108294C258862197DB1BA420DD2F1
:1049D800052D0BD936F8143C6188C3F30B039942B3
:1049E8000AD0144625886219002DEFD156F8101CFC
:1049F800584627F0FDFA0FE0637913F0030AF0D167
:104A080056F8101C94F80490584627F0F1FA36F836
:104A1800141CB9EB113F11D04FF00008114B0BF1EA
:104A2800140B9B4506F11406CCD3FFF7EFFCFCF7FB
:104A3800F5FC13F04BFD4046BDE8F88F36F8123C04
:104A480056F8100CAA1FC3F30B039A4204F106018F
:104A5800A8BF1A462EF039F8E0E74FF00108E4E75E
:104A6800709A0308D09E03080000040802F00308A7
:104A780008B5FFF7B9FEFFF797FF0120BDE808402A
:104A8800FDF7EABA2DE9F047D94C63682046984704
:104A9800002800F00581D74B1B78042B00F03C81DF
:104AA800B4F9163006EE903AB4F9183007EE103A19
:104AB800B4F91A3007EE903AF8EEE66AB8EEC77A1B
:104AC800F8EEE77AC4ED096A84ED0A7AC4ED0B7A48
:104AD800A17FC94811F0F0FCC84B1B8853B3C84BE1
:104AE80094ED095AD3ED006A93ED027AD3ED047A76
:104AF800D4ED0A5A94ED0B6AD3ED013A93ED034ACB
:104B0800D3ED054A35EE665A75EEC75A36EE676A32
:104B1800E5EE236AA5EE847AE4EE867AC3ED006AB0
:104B2800C4ED096A83ED027A84ED0A7AC3ED047A4A
:104B3800C4ED0B7AB34FB44E3B88B56F002B00F031
:104B4800B180B3F57A7F18BFD6ED5A7A94ED097A19
:104B58000CBFDFEDAE7AF8EEE77A4FF0000C0020DC
:104B680077EE877AC4F824C02880B7F80080FDEE75
:104B7800E77AB8F57A7F17EE903AC6ED5A7A00F0E0
:104B8800E880D6ED5B7A94ED0A6A96ED5C7AD4ED0E
:104B98000B6AC4F828C0F8EEE77AB8EEC77A77EE61
:104BA800867A37EE267AFDEEE77AB8F1010F17EE2E
:104BB800902AFDEEC77A688017EE901AC4F82CC0C8
:104BC800C6F86C21C6ED5C7AA88027D1DFF860C2F0
:104BD800B4F814E08CFB01A9C917C1EBA9118CFB2F
:104BE80003A98CFB02ACD217C2EBAC12DB17DFF8BF
:104BF80038C26A80A1EB0E01C3EBA913A9802B80F0
:104C0800ACF80C00ACF80E00FFF7EEFDFFF7CCFE99
:104C18004046FDF721FAB56FB7F8008008F1FF3874
:104C2800A7F80080B5F9003094ED0A6A94ED0B7A84
:104C380094ED095A764905EE903AB5F902300A68BA
:104C480006EE903AB5F9043007EE903AF8EEE55AD8
:104C5800704BF8EEE66AF8EEE77AD3ED003A93ED9A
:104C6800014AD3ED024A75EE655A76EE666A77EE2A
:104C7800677AC4ED095A34EE266A73EEA55A34EE03
:104C8800A77A01320120C3ED005AC4ED0A6A83ED08
:104C9800016AC4ED0B7A83ED027A0A6084F8300069
:104CA800BDE8F0875C4B1B685A07BBD55B4F3B8858
:104CB800322B00F0BF80002B5ED159480378002BBF
:104CC800B0D0584FD6F88831D6F88021D6F884115C
:104CD80087FB03ECDB17C3EB2C13B4F814C0A3EB6E
:104CE8000C03AB8087FB023CD31787FB0127CA174D
:104CF800C2EB27124C4F6A800021C3EB2C130170C2
:104D08002B80B981F981FFF76FFDFFF74DFE012078
:104D1800FDF7A2F9B56F85E7B4F91600B4F91810D4
:104D2800B4F91A20414B07EE900AF8EEE76A07EE4D
:104D3800901AB8EEE77A07EE902AF8EEE77AC4ED13
:104D4800096A188059809A8084ED0A7AC4ED0B7A32
:104D5800BEE694ED0A7AD4ED0B7AC4F828C0BDEE0D
:104D6800C77AFDEEE77A688086ED5B7AC4F82CC0D6
:104D7800C6ED5C7AA88051E7D6ED607AB8EEE77A9E
:104D8800DFED227AD4ED096AC4ED097A00232B807D
:104D98003B8837EE267A322B18BFD6ED617A3B88EE
:104DA800BDEEC77A18BFF8EEE77A86ED607A94ED23
:104DB8000A7A77EE877A0021FDEEE77A0022322B15
:104DC800A162C6ED617A6A8042D0D6ED627A94ED2E
:104DD8000B7AE162F8EEE77A012B77EE877AAA8000
:104DE800FDEEE77AC6ED627A3BD0013B3B8064E793
:104DF800B845002074800020DC450020083C0020D5
:104E08000C3C00201425002038220020000000005F
:104E1800A04B0020A44B0020E86E0020A02A002010
:104E28009D2A00201F85EB51F83B0020F87F0020C9
:104E3800D34D62102D4B2A68DB68C6F87C31B5F972
:104E48000430C6F87421A6F878319FED297A97E7DF
:104E5800D4ED0B7AE162FDEEE77AAA80C6ED627ABC
:104E6800C3E7244924480968DFF8A0C003708B030E
:104E78008CF8002033D4214900220B4618780B28DF
:104E880003F10C030ED00132182AF7D1D6F8743189
:104E98002B60164AB6F97801D6F87C11A8803B88B1
:104EA800D160A2E71648D0F800E05300BEF1000F29
:104EB80009D003EB020C01EB8C0C9EF801E09CF886
:104EC80001C0F445E2D21344DFF844C00D4A01EBB7
:104ED800830100230160ACF800301360D6E70A4B69
:104EE8001B78032BC7D1FCF7B1FFCFE7F83B0020B5
:104EF80000000000048000209C2A0020943403084D
:104F0800D03B0020F43B002011800020A22A002082
:104F1800F03B00202DE9F843114DDFF85080114E89
:104F280005F5D679414605F2B117042248462DF019
:104F38002EFE3146142238462DF029FE0A4B012454
:104F48004946042240461C7085F8C6412DF01FFED4
:104F58001422394630462DF01AFE2046BDE8F88363
:104F680038220020C47F0020F64B0020DC7F002080
:104F78002DE9F0430C46496825680B388DB04A1B6B
:104F8800EF2800F24881DFE810F0110246014601DF
:104F980046014601460146014601460146014601D1
:104FA80046014601460146014601460146014601C1
:104FB80046014601460146014601EF014601E4016A
:104FC8004601D501460146014601C3014601790162
:104FD80046014601460146014601720146014C015F
:104FE8004601230146014601460146011E014601CC
:104FF800E50446014601D904460146014601460139
:10500800460146014601460146014601BB044601E8
:10501800970446014601FA04460146014601460145
:10502800460146014601F00046014E0446012904A6
:105038004601410546012E057D057B0446014601D2
:105048004601460146014601460146014601460120
:105058004601460146014601460146014601460110
:105068004601460146014601460146014601460100
:1050780046014601460146014601460146014601F0
:1050880046014601460146014601460146014601E0
:1050980046014601460146014601460146014601D0
:1050A80046014601460146014601460146014601C0
:1050B80046014601460146014601460146014601B0
:1050C80046014601460146014601460146014601A0
:1050D8004601460146014601460146014601460190
:1050E8004601C80546011405B505460146014601B5
:1050F8004601460146014601460146014601460170
:1051080046014601FD034601BA03460177036003E1
:105118005403460149034601370346011E0146016F
:105128001903460146010A03F502EA02D8024601BC
:10513800C902460146014601BE0246014601460132
:10514800460146014601460146014601460146011F
:105158004601B302460146011E01460146014601C9
:105168002C024601770246012C03B64B1D6855B345
:1051780028460EF0C3FFFF2825D0204626F0DCFE87
:105188003F2840F29686B04E00273770D4E90023B6
:105198009B1A012BB08016DD1346511C216013F8B1
:1051A800021BB1700CA923600023547801F8243D38
:1051B80028460EF097FF9DF80C30A34203D02146F5
:1051C80028460EF098FF012318460DB0BDE8F0837D
:1051D8009E4BA3FB0213D11A03EB51039B08C3EBAD
:1051E800C306961B17D1DBB25F1EFFB2002BEAD0B5
:1051F800DFF85C8201376B1C2360954B95F9001032
:10520800002593F902208A4203F1080300F0B384D1
:105218000135062DF5D14FF0FF3318460DB0BDE826
:10522800F0836B1C23602B780E2BF4D8AA1C226009
:105238006A78032AEFD8874803EB83035B00C11819
:10524800EE1C4A712660AA78C2542B1D2360EB78A5
:105258004B706B1D23602B798B70AB1D23606B79B2
:10526800CB70EB1D2360AB790B710123ACE76B1C92
:105278002360794B2A78DA730123A5E76B1C764EF5
:1052880023602B783372204626F056FEF0822046A3
:1052980026F052FE7082204626F04EFE2268B0822A
:1052A800531C2360127872736268D11A032900F3C1
:1052B800A785002987DD591C2160511A1878F076D6
:1052C80005291DDD991C216059787176D91C21604A
:1052D800997886F82510191D2160D97886F8261046
:1052E800591D2160197986F82710991D216059796F
:1052F80086F82910D91D21609B7986F82A30511A21
:1053080000297FF760AF204626F022FE01235BE7E5
:105318006B1C2360514A28781070CB1A002B7FF73A
:1053280052AFAB1C23606B78003318BF0123537056
:10533800012349E7204626F0FFFD494D2860204615
:1053480026F0FAFD6860204626F0F6FD0123A860E5
:105358003AE7444D00232B60204626F0D5FD2B6804
:105368001843286001232FE76B1C23602E78132E27
:105378003FF651AFAB1C23606878FDF76DF8002845
:105388003FF449AF06EB4606374B027876009A554C
:10539800EA1C22601E44AB7873702B1D2360EB78E7
:1053A800B3706B1D23602B79F3700CE72F4B002132
:1053B800102A1546196059609960D960197428BF78
:1053C8001025002A3FF4FFAE20681A460346013331
:1053D800236013F8011C02F8011B191AA942F6D31D
:1053E800F1E6204626F0A8FD2368ADF80C001A4621
:1053F800591C216012F8021B22608DF80E105A7891
:105408008DF80F20DA1C22609A788DF810201A1D6A
:105418002260DA788DF811205A1D22601B798DF8E8
:10542800123003A80023ADF8143026F02BF9104AE7
:10543800104B1268841A61F10005C3E90045012385
:10544800C2E600BF0C4300203242002025499224C6
:10545800F88800202C4C0020CC7E0020E43A002064
:105468004031002000800020E43C00203449002026
:105478003863002000240020AD4B1B78002B7FF4FC
:10548800CAAE6E1C26602D78142D2A463146A8BF58
:10549800142203A82DF019FB142D84BFA5F11403C1
:1054A800F6180CAB1D44771C002305F8243C276034
:1054B8003578042D2A463946A8BF042201A82DF0C4
:1054C80004FB042D02D92B1F1F4427600CAB1D447D
:1054D80003A900231422974805F82C3C2DF057FB0C
:1054E80001A9042294482DF052FBFFF713FD6AE648
:1054F800204626F021FD914DE881204626F01CFD2E
:105508000123A88160E6204626F016FD8C4D2884EC
:10551800204626F011FD0123688455E6204626F032
:105528000BFD884D2882204626F006FD688220461D
:1055380026F002FD0123A88246E62B466A1C22605B
:105548007F4A13F8021B117023607C4A6B789370B2
:10555800EB1C23607C4BAA789A70012334E67B4AC3
:105568007B4B10687B4A1A607B4964222DF0ADFAA8
:10557800012329E62A466B1C2360784B12F8021B8C
:10558800197022606A785A70EA1C2260AA789A70A8
:10559800204626F0D1FC724A0123D08014E620462A
:1055A80026F0CAFC6E4D2880204626F0C5FC68808F
:1055B800204626F0C1FC0123A88005E6694F3B7808
:1055C800002B3FF400AE684E0025204626F0B4FCC0
:1055D8001EF0EEFC3B78A6EC010A0135AB42F4DC88
:1055E800F1E5624B1B78DA073FF515AEFFF7FCF8DB
:1055F800FFF7DAF90123E7E56B1C23602878060634
:1056080000F19D83594B1B78DD073FF5DCAD03287E
:1056180028BF0020FEF720FE0123D5E5534B1B7859
:10562800DC073FF5D0ADFFF7B3F9FFF7BDF901236C
:10563800CAE54E4B1B78D9073FF5C5AD4C4A1378E0
:1056480043F0040313700123BEE5484B1B78D807C9
:105658000CD43B4A474B908B474A196842F2107367
:1056680003FB00F3B3FBF1F3C2F8B430434B4FF440
:105678007A721A800123A7E5092A7FF7CCAD404F3B
:105688006B1C3E6823603179F3782A78F27099426E
:1056980005F1020308BF32712360F179B2796B78A2
:1056A800B371914205F1030208BFF3712260AB7830
:1056B80073722B1D2360EB78B3726B1D23602B79FB
:1056C800F372AB1D23606B79642BA8BF6423EA1DBA
:1056D80033732260AB79337005F108032360EB79EB
:1056E8007370204626F028FCD4E900156B1A002BAD
:1056F800F08100F304831FF0FDFB012364E5134BE5
:105708001868EB1C02461235991E216013F8031C19
:105718001172591E216013F8021C5172236013F88C
:10572800011C917203339D4202F10602ECD1A4E1FF
:10573800F64B0020C47F0020DC7F0020F83B0020CF
:105748008C5F0020E8700020D03E0020F845002043
:105758007C2000201F852B3F7C3A030890250020E1
:10576800E04F002012800020D04A00203C42002058
:10577800744900207C5F002030520020142500204E
:10578800FC450020C2F34705122D3FF644AD002D1D
:1057980000F0818303AF4FEA450808EB07093E464E
:1057A800204626F0C9FB26F8020B4E45F8D1BC4B23
:1057B8001A4637F8021B22F8021BBE42F9D1112DF6
:1057C80008D8A8F10208B7494344002223F8022F59
:1057D8009942FBD1B44A01231370F5E46B1C236092
:1057E800B24EB34F2B783B812046356826F0A4FB98
:1057F80068802046356826F09FFBD4E90032D11A2C
:105808000729288000F3B182032900F3A282002926
:1058180000F33D82FEF73EFD28F060FE30681EF082
:10582800CFF90123D0E42B466A1C2260A04F13F85D
:10583800022BBA7023609F4A6B781370EB1C2360AD
:105848009D4EAB7833712B1D2360EB78092BA8BFD5
:1058580009232046B37026F06FFBD4E90032D11A31
:105868000129308005DD204626F066FBD4E90032A8
:10587800F081934240F08F82FEF70CFD0123A3E4F0
:105888006A1C8A42226018BFAB1C28781ABF2360A2
:105898006B780023002800F025824FF48030FDF754
:1058A800B7FE864B1B78DB0701D502F01DF9844B48
:1058B80000221A70012387E46B1C23602F78112FB4
:1058C8003FF6A9ACAB1C23607E4E6B7806F8173008
:1058D800204626F031FB40F6CA039842A8BF184676
:1058E80040F2EE239842B8BF1846774AA0F2EE235A
:1058F80006EB4706A2FB0323DB087370012363E46E
:105908002B466A1C2260714E13F8022B32712360F9
:105918006B787371204626F00FFB236830805A1C81
:1059280022601B78B371204626F006FB236870803E
:105938005A1C22601B78F371012345E4644B05F17E
:1059480008010135256015F8012C03F8012FA9423B
:10595800F7D138E46B1C23605E4B2A785A702046D6
:1059680026F0F6FAD4E900329A423FF42CAC5A1CDD
:105978002260594A1B7882F88030012324E4574B6F
:105988001B78012B3FF61FAC2B466A1C2260544E35
:1059980013F8022BB270EA1C23608B1A012B69786A
:1059A800226040F37B82204626F0C6FA012330802D
:1059B8000AE4204626F0A8FAD4E90023494D991AAA
:1059C800002928607FF7FFAB511C21605B1A127811
:1059D8002A71032B7FF7F7AB204626F095FA0123AF
:1059E800A860FFF7F1BB2B466A1C22603E4A13F8F9
:1059F800021BD17023603D4A6B785371EB1C236006
:105A08003B4BAA78DA700123FFF7DEBB204626F06D
:105A180093FA204626F090FA204626F08DFA204682
:105A280026F096FA2368214E1A46581C31682060E1
:105A380012F8020B81F84A0022605B7881F84B303B
:105A4800204626F085FA204626F082FA204626F0DF
:105A58007FFA204626F07CFA2046356826F06CFA54
:105A6800A8872046356826F067FAD4E900239B1AF0
:105A7800012B688700F3A88030681DF0D3FE01234E
:105A8800FFF7A2BB0D4B197811F001017FF4C3ABEE
:105A98006B1C2360287807F0B3F90123FFF794BB48
:105AA800FC3600201E37002020370020F845002053
:105AB8008C5F0020DC4B0020E87000203C42002076
:105AC80056250020143E00201F85EB51D84F00209A
