:020000040800F2
:10000000F0FF0010196B0408E929030889B60008FD
:10001000B56B0408B56B0408B56B0408000000005C
:10002000000000000000000000000000F5290308A7
:10003000F129030800000000ED290308BDAE000807
:10004000B56B0408B56B0408B56B0408B56B040800
:10005000B56B0408B56B040891B70008BDB800087B
:1000600081B8000845B8000809B80008F5FA00088A
:10007000E5FA0008D5FA0008C5FA0008B1FA000848
:100080009DFA000889FA0008B56B0408B56B0408EE
:10009000B56B0408B56B0408B56B0408CDB7000850
:1000A000B56B0408C1A00008B56B040881A1000865
:1000B000B56B040801A00008419F0008A90E0108C3
:1000C000B10E01089D0E0108A50E0108B56B0408CC
:1000D000B56B0408D1B0000835B0000899AF00082E
:1000E00055B70008B56B04087D6E0308B56B0408AE
:1000F000B56B0408B56B0408B56B040875FA000805
:10010000B56B0408B56B0408B56B0408B56B04083F
:10011000B56B0408B56B04086D1F0208591F02086F
:1001200061FA00084DFA000839FA000825FA0008BB
:1001300011FA0008B56B0408B56B0408B56B040828
:10014000B56B0408B56B0408B56B0408D93803080F
:10015000FDF90008E9F90008D5F90008FDAE00082E
:10016000910E0108990E0108B56B0408B56B0408DF
:10017000B56B0408B56B0408B56B0408B56B0408CF
:08018000B56B0408B56B04081F
:08018800C06604000100000044
:1001900002020300842300208023002000000000CE
:1001A0000000000010020100902300208C2300209A
:1001B00000000000B80600081A023C003C220020A3
:1001C0009423002000000000D191000827000400C3
:1001D000D4230020D023002000000000BA0600082D
:1001E00016000800042700200C2700200000000053
:1001F000BE060008F82106006E2B0020B033002058
:1002000000000000C606000803123300682F00201B
:100210009B2F002000000000CC060008250096005F
:100220001C2E0020B22E0020000000000000000064
:1002300015007000C42C0020342D002000000000A8
:10024000000000002A006000042C0020642C002024
:10025000000000001D6F03082C001000482F002034
:10026000582F002000000000418C01082B002400C2
:10027000F22F0020CE2F002000000000118C01087A
:1002800029107800862B0020A42D002000000000FB
:100290000000000023001000082B0020B8330020CD
:1002A00000000000257001082810100044320020D2
:1002B0000C34002000000000017001081802020048
:1002C000743200201C3400200000000000000000F8
:1002D00017020B00683200202034002000000000CC
:1002E0007D86000814000300FE2B0020012C002056
:1002F000000000000007000807020200AC360020E2
:10030000F0360020000000000407000802000C0086
:1003100084360020F43600200000000000000000B9
:1003200006020C0078360020003700200000000094
:10033000F590000808120900003600200C37002054
:1003400000000000C1860008F7010600FA35002011
:100350001837002000000000060700080A020A0003
:100360001435002020370020000000000C07000892
:1003700003000100F03500202C37002000000000B1
:10038000000000001010030034350020303700203A
:1003900000000000160700080E502C011246002035
:1003A0003C4E0020000000004171030809020100DA
:1003B000F44D0020684F0020000000001A070008DC
:1003C0000C101401884700206C4F00200000000032
:1003D000BD0F020800020500804B00208050002065
:1003E00000000000000000001B0208005C4B002021
:1003F00088500020000000007186000801200800DD
:10040000D84C002090500020000000001C0700087D
:1004100019000500644D00209850002000000000E5
:100420002407000837001E003C4D0020A05000208B
:10043000000000002A0700081E00050038490020BF
:10044000C050002000000000480700081B00F40016
:1004500040370020C85000200000000069A90208B1
:100460000E020200704C0020BC5100200000000071
:100470004E0700082F0011001D4E0020C051002023
:100480000000000050070008051006002467002047
:10049000106C0020000000006207000826000E001B
:1004A000286C0020186C0020000000000D1D0308BF
:1004B0001F201C00A85C00205C6C002000000000D5
:1004C0006807000805020400BC660020786C002064
:1004D000000000008407000803010A0010650020E6
:1004E0007C6C002000000000880700081302030055
:1004F000005B0020886C00200000000092070008CC
:100500001A000E00B06F0020F871002000000000FB
:1005100096070008040080004CCF002004D0002083
:1005200000000000000000000D002C00F8CE0020AC
:1005300084D0002000000000ED0F0108130004002B
:10054000DCC50020B0D0002000000000A407000897
:10055000F6210C00E0C50020B4D00020000000000F
:10056000A807000812200D0070C50020C0D0002090
:1005700000000000B4070008F531700000C500203D
:10058000D0D0002000000000D1A202080B201000F3
:10059000F0C4002040D1002000000000C207000885
:1005A00001010400ECC4002050D100200000000034
:1005B0000000000000010400E8C4002054D1002025
:1005C00000000000D207000802010300E4C400207C
:1005D00058D100200000000045100208F901040075
:1005E000C4C400205CD1002000000000F981000894
:1005F000FD011E00A4C4002060D100200000000006
:100600008181000818202C0074C4002080D10020B3
:10061000000000007595000806101800CCB70020F7
:10062000ACD1002000000000C9710308FB010100EB
:10063000C8B70020C4D100200000000091A6000827
:10064000FC01090094B60020C8D100200000000081
:10065000A1A600080A40260008A20020D4D100204C
:1006600000000000D607000834001000BCB50020D0
:10067000FCD10020000000009D7103081102080059
:1006800094B500200CD2002000000000FC070008F8
:10069000121204008CB5002014D2002000000000CB
:1006A00004080008FE010900D4A4002018D200208C
:0806B00000000000D1860008E3
:1006B800000020030000651B0D0019012828040014
:1006C800F401190000000000000000000000000014
:1006D8000000000000000000000000000000000012
:1006E8000000000000000000000000000000000002
:1006F800000000000000010003000000023C20018F
:100708000000000000004A01B400D6010000000506
:1007180000000000E8036400040A0001000028014A
:10072800000020003200C800D007960014003200F4
:100738002800B00440060005500014000F0008010E
:1007480000000100000000000000000000000000A0
:10075800000000000000000000002000030100006D
:100768000000000000010000000500000102030075
:100778000000000000000000000000000000000071
:10078800040101006C1600000000000000007E0556
:10079800EA05B4053200E803D0070000080000307D
:1007A800000000000100000002020000000000013B
:1007B800000005554156500000002B21231E6401FE
:1007C8000200000001000A01290090010000003029
:1007D80001000000000000005A00000000000000B6
:1007E80000000000020200019E077D0046329001D1
:1007F800200000000000000001010101FFFFFFFFD1
:100808005001000007000000020000000000000086
:10081800000000000102030406070809010102FFA5
:10082800FF000000685E0C00891603082D140308F9
:10083800512F03080000000029110308212C030888
:10084800F5150308992B03080000000000000000BC
:10085800E5100308F9150308ED130308912E0308A2
:1008680000000000FD1003089D2B0308C9150308AC
:10087800F92A03080000000000000000F110030836
:10088800D6010100000101010001FFFFFFFFFFFF8A
:100898000100000000000000E03600200800000011
:1008A80000000000D036002008000000FF00000013
:1008B80054BD040805080400000000009CC5040895
:1008C8005CC6040888C50408000000000000000099
:1008D80080BD040805080A00000000009CC5040843
:1008E8005CC604086CC40408000000000000000096
:1008F80000000101010100004D9C020800000000F9
:100908006C020020941E0508000000000000000092
:1009180000000000000000004C1405080000000062
:10092800000000002603002004000000401E050807
:100938000D000000A1C70208901C00200000000064
:10094800F41705080D000000C9C70208841C002020
:10095800000000005C190508080000000000000005
:10096800781C002004000000601805080D00000035
:10097800019D02086C1C00200000000010190508E9
:100988000300000091CA0208601C0020000000005B
:10099800A41E05080300000091CA0208541C002088
:1009A8000000000094140508010000000000000089
:1009B8000000000000000000000000000E00000021
:1009C800000000000000000000000000941E050860
:1009D800000000000000000000000000000000000F
:1009E8004C14050800000000000000002603002049
:1009F80004000000EC1D050803000000C1A3020864
:100A0800481C002008000000601805080D000000C0
:100A1800019D02086C1C0020000000001019050848
:100A28000300000091CA0208601C002000000000BA
:100A3800A41E05080300000091CA0208541C0020E7
:100A480000000000941405080100000000000000E8
:100A58000000000000000000000000000E00000080
:100A6800000000000000000000000000AC1E0508A7
:100A7800000000000000000000000000000000006E
:100A88004C140508000000000000000026030020A8
:100A980004000000F41D05080300000091CA0208C4
:100AA8009C1C0020000000009414050801000000B0
:100AB800000000000000000000000000000000002E
:100AC8000E00000000000000000000000000000010
:100AD80020700020702D7200FFFFFFFF0100000052
:100AE8000000803F00000000000000000418002003
:100AF800FA00000001000000010000000000803F33
:100B080000000000000000000000000000000000DD
:100B180000000000000000000000000000000000CD
:100B280000000000FFFF2D202D2D202D2D2D2D2024
:100B38002D2D2D0000000000000000000000000026
:100B48000000000000000000FFFFFFFF6814050818
:100B5800701405088C14050800000000000000004F
:100B680000000000000000003B120508040000001F
:100B780069C5020800000000000000009414050880
:100B8800010000000000000000000000000000005C
:100B9800000000000E00000000000000000000003F
:100BA80000000000ECCF00200100C4090000000094
:100BB800EACF00200100C40900000000E8CF0020AF
:100BC8000100C40900000000E6CF00200100C409AC
:100BD80000000000E2CF00200100C409000000006E
:100BE800E4CF00200100C40900000000E0CF00208D
:100BF8000100C40900000000DECF00200100C40984
:100C080000000000A84500200100C8000100000005
:100C1800A64500203200307532000000A4450020AF
:100C2800055A0500A145002000FF0100A34500204A
:100C3800010000004C0300209F4500200200000036
:100C480088C60408A045002000FF0100A245002036
:100C5800010000004C0300209E4500200200000017
:100C680088C604089C45002080C1803E050000001D
:100C78009A45002080C1803E05000000984500206C
:100C880080C1803E050000009645002080C1803E5E
:100C9800050000009545002000FF01009445002054
:100CA8000A32010093450020040000004CC40408E7
:100CB800924500200200000060C404080000000003
:100CC8000000000054030020686600209CFF2C01EF
:100CD80000000000F30000200A0000006CC40408B3
:100CE80088450020E0150C1700000000F5000020E2
:100CF800080000005CC60408F4000020050000009D
:100D08009CC504088A4500200200000084C4040829
:100D1800BA4800200100FF7F01000000B948002008
:100D28000200000090C404084C4700200300400063
:100D3800010000004A4700200000803E010000003A
:100D4800484700200000F401010000004647002049
:100D58000000F40101000000444700200000F401F5
:100D680001000000424700200000F40101000000DB
:100D7800404700200000803E010000003E47002060
:100D88000000803E0100000068470020E803D0070B
:100D98000A00000066470020006401000A00000005
:100DA8005B470020006401005A47002000640100EE
:100DB80062470020006401000A000000614700202B
:100DC800006401000A000000604700200064010080
:100DD8000A00000065470020006401000A000000C6
:100DE80064470020006401000A00000063470020F7
:100DF800006401000A0000005F47002000FF0100B6
:100E08000A0000005E47002000FF01000A00000001
:100E18005D47002000FF01000A0000000E46002088
:100E28000000F401010000000C4600200000F4015D
:100E3800010000000A4600200000F4010100000043
:100E4800084600200000F4010100000006460020CA
:100E58000000F40101000000584700200064010070
:100E6800564700201400E803010000005447002002
:100E7800E80330750A0000005247002000C801004E
:100E88005147002000C801005047002000C8010059
:100E98004F470020006401000A0000009F4800201E
:100EA80001C801009E480020010A0100AE48002048
:100EB8000000D00701000000A848002000C8010079
:100EC800A748002000C80100A648002000C801006B
:100ED800AC4800200000D00701000000A548002011
:100EE80000C80100A448002000C80100A348002051
:100EF80000C80100AA4800200000D0070100000037
:100F0800A248002000C80100A148002000C8010034
:100F1800A048002000C801009D48002001000000F2
:100F2800A0C40408BC14050800000000000000006C
:100F38000000000000000000E0E0040809000000D4
:100F480000000000F803002004000000E8E00408A6
:100F58000900000000000000EC030020040000006D
:100F6800101C05080900000000000000E003002034
:100F78000400000035130508090000000000000007
:100F8800D403002004000000CC1405080900000068
:100F980000000000C803002004000000D414050865
:100FA8000900000000000000BC030020040000004D
:100FB800DC1405080900000000000000B003002050
:100FC80004000000E4140508090000000000000007
:100FD800A403002004000000941405080100000088
:100FE80000000000000000000000000000000000F9
:100FF8000E000000000000000000000000000000DB
:10100800E8160508000000000000000000000000CD
:101018000000000050000508070000000000000064
:101028001C04002000000000F81605080800000055
:10103800000000001004002000000000041705084C
:101048000800000000000000040400200000000068
:1010580094140508010000000000000000000000D2
:1010680000000000000000000E000000000000006A
:1010780000000000000000000C1705080000000038
:101088000000000000000000000000001C17050818
:101098000D000000000000005804002000000000BF
:1010A800241705080D000000000000004C04002073
:1010B800000000002C1705080700000000000000D1
:1010C8004404002000000000341705080D0000004B
:1010D8000000000038040020000000003C1705084C
:1010E8000D000000000000002C040020000000009B
:1010F8004417050807000000000000002404002031
:101108000000000094140508010000000000000021
:101118000000000000000000000000000E000000B9
:101128000000000000000000000000004C17050847
:1011380000000000000000000000000000000000A7
:10114800500005080C00000000000000AA4500201F
:1011580000000000601705080C00000000000000F7
:10116800AC45002000000000701705080C000000C6
:1011780000000000E245002000000000801705087C
:101188000C00000000000000D64500200000000010
:10119800941705080C00000000000000AE45002070
:1011A80000000000E4D304080C0000000000000068
:1011B800B045002000000000A01705080C00000042
:1011C80000000000B245002000000000B417050828
:1011D8000C00000000000000B445002000000000E2
:1011E800BC1705080C00000000000000B6450020F0
:1011F80000000000C41705080C00000000000000F3
:10120800F445002000000000DC1705080C00000071
:1012180000000000B845002000000000E81705089D
:101228000C00000000000000BA450020000000008B
:10123800F0E004080C00000000000000BC4500209D
:1012480000000000F01705080C0000000000000076
:10125800BE45002000000000FC1705080C00000037
:1012680000000000C0450020000000000818050824
:101278000C00000000000000C24500200000000033
:10128800141805080C00000000000000C4450020E8
:1012980000000000201805080C00000000000000F5
:1012A800C6450020000000002C1805080C000000AE
:1012B80000000000DA45002000000000341805088E
:1012C8000C00000000000000D845002000000000CD
:1012D8003C1805080C00000000000000E64500204E
:1012E80000000000481805080C000000000000007D
:1012F800E845002000000000541805080C00000014
:1013080000000000EE4500200000000088150508D8
:101318000C00000000000000C8450020000000008C
:10132800601805080C00000000000000D0450020EF
:1013380000000000681805080C000000000000000C
:10134800CA45002000000000741805080C000000C1
:1013580000000000CC4500200000000080180508AF
:101368000C00000000000000CE4500200000000036
:10137800881805080C00000000000000D245002075
:1013880000000000700005080C00000000000000CC
:10139800DC45002000000000941805080C0000003F
:1013A80000000000D445002000000000D413050808
:1013B8000C00000000000000E445002000000000D0
:1013C800A01805080C00000000000000DE45002001
:1013D80000000000A81805080C000000000000002C
:1013E800E045002000000000B01805080C000000CF
:1013F80000000000EA45002000000000B8180508B9
:101408000C00000000000000EC4500200000000077
:10141800C01805080C00000000000000FE45002070
:1014280000000000941405080100000000000000FE
:101438000000000000000000000000000E00000096
:10144800000000000000000000000000C8180508A7
:101458000000000000000000000000000000000084
:10146800D41805080D00000000000000B00400209A
:1014780000000000DC1805080D0000000000000056
:10148800A404002000000000E4180508070000007C
:10149800000000009C04002000000000F01805086F
:1014A8000700000000000000940400200000000075
:1014B800FC1805080900000000000000880400204E
:1014C80000000000081905080900000000000000DD
:1014D8007C04002000000000141905080900000021
:1014E8000000000070040020000000002419050816
:1014F8000900000000000000640400200000000053
:10150800941405080100000000000000000000001D
:1015180000000000000000000E00000000000000B5
:101528000000000000000000381905080000000055
:101538000000000000000000000000004819050835
:101548000500000000000000054600200000000023
:1015580094140508010000000000000000000000CD
:1015680000000000000000000E0000000000000065
:1015780000000000000000005019050800000000ED
:101588000000000000000000000000004C140508E6
:101598000000000000000000181E002004000000E9
:1015A800311305080D000000CDC502080405002010
:1015B80000000000401E05080D000000059C020800
:1015C800F804002000000000F41705080D000000D2
:1015D800E99B0208EC040020000000005C190508E3
:1015E8000800000000000000E004002004000000E3
:1015F800601805080D000000319B0208D404002083
:10160800000000006419050809000000000000003F
:10161800C804002004000000101905080300000099
:1016280091CA0208BC0400200000000094140508B8
:1016380001000000000000000000000000000000A1
:10164800000000000E000000000000000000000084
:10165800000000006C1905080000000000000000F0
:1016680000000000000000007C1905080D000000C3
:10167800000000001C050020000000008419050877
:101688000A00000000000000E648002000000000FA
:10169800901905080A00000000000000EE4800202C
:1016A80000000000981905080A000000000000006A
:1016B800F648002000000000A019050808000000F6
:1016C8000000000010050020000000009414050828
:1016D8000100000000000000000000000000000001
:1016E800000000000E0000000000000000000000E4
:1016F80000000000A8190508000000000000000014
:101708000000000000000000BC19050808000000E7
:10171800000000007C05002000000000C819050832
:101728000800000000000000700500200000000014
:10173800D419050808000000000000006405002016
:1017480000000000E0190508080000000000000083
:101758005805002000000000EC19050808000000EA
:10176800000000004C05002000000000F8190508E2
:1017780008000000000000004005002000000000F4
:10178800041A0508080000000000000034050020C5
:1017980000000000101A0508080000000000000002
:1017A800280500200000000094140508010000002E
:1017B8000000000000000000000000000000000021
:1017C8000E00000000000000000000000000000003
:1017D8001C1A05080000000000000000D3020020C9
:1017E80000000000281A05080B0000000000000097
:1017F8001006002000000000341A05080B00000045
:10180800000000000406002000000000401A05083F
:101818000B00000000000000F80500200000000098
:101828004C1A05080B00000000000000EC05002021
:1018380000000000581A05080B0000000000000016
:10184800E005002000000000641A05080B000000F5
:1018580000000000D405002000000000701A0508F0
:101868000B00000000000000C80500200000000078
:101878007C1A05080B00000000000000BC050020D1
:1018880000000000881A05080B0000000000000096
:10189800B005002000000000941A050807000000A9
:1018A80000000000A8050020000000009C1A0508A0
:1018B8000700000000000000A00500200000000054
:1018C800A81A05080B00000000000000940500207D
:1018D80000000000B41A050808000000000000001D
:1018E800880500200000000094140508010000008D
:1018F80000000000000000000000000000000000E0
:101908000E000000000000000000000000000000C1
:10191800C01A0508000000000000000000000000D8
:1019280000000000D41A05080800000000000000AC
:101938004C06002000000000E01A0508080000001E
:10194800000000004006002000000000EC1A050816
:10195800080000000000000034060020000000001D
:10196800F81A0508080000000000000028060020FA
:1019780000000000041B050808000000000000002B
:101988001C06002000000000941405080100000057
:10199800000000000000000000000000000000003F
:1019A8000E00000000000000000000000000000021
:1019B8000C1B05080000000000000000D0020020F9
:1019C800000000001C1B05080B00000000000000C0
:1019D8009006002000000000281B050807000000F2
:1019E800000000008806002000000000341B0508E5
:1019F8000700000000000000800600200000000032
:101A0800401B0508070000000000000078060020C1
:101A1800000000004C1B0508080000000000000042
:101A28006C06002000000000541B05080800000098
:101A38000000000060060020000000005C1B050894
:101A48000700000000000000580600200000000009
:101A580094140508010000000000000000000000C8
:101A680000000000000000000E0000000000000060
:101A78000000000000000000681B050800000000CE
:101A880000000000D002002000000000741B0508C0
:101A98000D000000000000001807002000000000F2
:101AA800801B050807000000000000001007002048
:101AB80000000000881B0508070000000000000067
:101AC8000807002000000000901B05080700000020
:101AD800000000000007002000000000981B050817
:101AE8000800000000000000F406002000000000CC
:101AF800A01B05080700000000000000EC060020FD
:101B080000000000A81B05080700000000000000F6
:101B1800E406002000000000B01B050807000000D4
:101B280000000000DC06002000000000B81B0508CB
:101B38000800000000000000D0060020000000009F
:101B4800C01B05080700000000000000C8060020B0
:101B580000000000C81B0508070000000000000086
:101B6800C006002000000000D01B05080700000088
:101B780000000000B806002000000000D81B05087F
:101B88000800000000000000AC0600200000000073
:101B9800E01B05080700000000000000A406002064
:101BA80000000000E81B0508070000000000000016
:101BB8009C060020000000009414050801000000A5
:101BC800000000000000000000000000F41B0508F1
:101BD8000200000041C902080100000000000000E6
:101BE800000000000E0000000000000000000000DF
:101BF8000000000000000000459F020824070020A4
:101C0800034600202C000000A8C404080246002057
:101C180000C8010000460020E803D00701000000CA
:101C2800554156504E473033304D494E490000001B
:101C38008D9E0208659E020800080020219E020869
:101C4800D59D020878080020CD9E0208B59E02089E
:101C58002C090020799D0208259D02084C0C0020C3
:101C68005B9F0208F1C70208280D0020719B02083B
:101C780000000000780D002005A4020821A2020837
:101C8800540E002031A00208F19F0208F40E002033
:101C9800D5A002081DA10208D00F00205947002036
:101CA80001060100B59F0208819F0208101100205B
:101CB80071A0020821C80208B011002049A1020839
:101CC80081C80208781200204E4700200103010055
:101CD800001C0508000000000000000000000000D3
:101CE800000000000C1C05080800000000000000AF
:101CF8001414002000000000141C05080700000050
:101D0800000000000C14002000000000241C05083E
:101D18000D0000000000000000140020000000007A
:101D2800301C05080300000091CA0208F4130020C3
:101D380000000000941405080100000000000000E5
:101D48000000000000000000000000000E0000007D
:101D5800000000000000000000000000381C05081A
:101D6800000000000000000000000000000000006B
:101D7800481C05080A00000000000000501C050867
:101D880000000000581C05080A00000000000000C0
:101D98003FD6040800000000601C05080A00000087
:101DA80000000000B048002000000000681C050882
:101DB8000A000000000000002014002000000000BD
:101DC8009414050801000000000000000000000055
:101DD80000000000000000000E00000000000000ED
:101DE8000000000000000000701C05080000000052
:101DF8000000000000000000000000007C1C050836
:101E08000300000091CA02084814002000000000E6
:101E1800881C05080300000091CA02083C14002031
:101E280000000000901C05080300000091CA020889
:101E38003014002000000000941405080100000080
:101E4800000000000000000000000000000000008A
:101E58000E0000000000000000000000000000006C
:101E6800981C0508000000000000000000000000A9
:101E78000000000090D404080300000091CA020882
:101E88007814002000000000AC1C050803000000C6
:101E980091CA0208F800002000000000B41C0508E0
:101EA8000300000091CA02086C1400200000000022
:101EB800BC1C05080300000091CA02086014002039
:101EC80000000000601805080300000091CA02081D
:101ED80054140020000000009414050801000000BC
:101EE80000000000000000000000000000000000EA
:101EF8000E000000000000000000000000000000CC
:101F0800C81C0508000000000000000000000000D8
:101F180000000000D81C050807000000F9C80208E6
:101F2800C814002000000000841805080300000001
:101F380091CA0208BC14002000000000E41C050837
:101F48000300000091CA0208B0140020000000003D
:101F5800EC1C05080300000091CA0208A414002024
:101F680000000000F41C050807000000DDC8020896
:101F78009C14002000000000D82005080300000081
:101F880091CA02089014002000000000001D0508F6
:101F98000300000091CA0208841400200000000019
:101FA8009414050801000000000000000000000073
:101FB80000000000000000000E000000000000000B
:101FC8000000000000000000159F0208E59E0208BE
:101FD800D0140020EDA10208000000005C150020CC
:101FE800D19D0208CD9D0208E815002000000000E0
:101FF8000000000060160020BDA102081DC90208EB
:10200800001700200C1D050800000000000000005B
:10201800000000000000000000E5040803000000C4
:1020280091CA0208F817002000000000181D0508D2
:102038000300000091CA0208EC170020000000000D
:10204800600105080300000091CA0208E01700209B
:1020580000000000241D05080300000091CA0208C2
:10206800D417002000000000301D05080300000000
:1020780091CA0208C817002000000000381D050892
:102088000200000041C90208000000000000000032
:10209800F41B05080200000041C902080100000005
:1020A80000000000401D05080200000041C90208A8
:1020B8000200000000000000000000000E00000008
:1020C8000000000000000000000000008E45002015
:1020D80088136F17010000009045002088136F17C0
:1020E800000000004C1D0508000000000000000072
:1020F80000000000000000005C1D0508080000004A
:1021080000000000D818002004000000681D050821
:102118000800000000000000CC18002000000000AB
:102128001019050804000000F5C5020800000000A9
:1021380000000000941405080100000000000000E1
:102148000000000000000000000000000E00000079
:102158000000000000000000000000008C45002086
:1021680088136F1701000000A866002088136F17F6
:1021780000000000B59C020800000000E4180020E0
:10218800F94B0020010000005CC50408AA66002085
:102198000100000068C50408A066002002000000D5
:1021A80070C50408FA5C0020000000000000000070
:1021B800F85C00200000000000000000F65C002031
:1021C8000000000000000000F45C00200000000097
:1021D80000000000F25C0020000000000000000089
:1021E800F05C00200000000000000000501E0020ED
:1021F80000000000000000008B45002002000000E5
:102208007CC50408A41D05080000000000000000AB
:1022180000000000000000005C1D05080800000028
:10222800000000006819002004000000681D05086F
:1022380008000000000000005C19002000000000F9
:102248001019050804000000859C02080000000021
:1022580000000000941405080100000000000000C0
:102268000000000000000000000000000E00000058
:10227800000000000000000000000000B41D050878
:102288000000000000000000000000000000000046
:10229800C41D05080D00000045C702089819002054
:1022A80004000000D01D05080D000000DD9C020898
:1022B8008C19002004000000DC1D05080D0000003A
:1022C80009C702088019002000000000E81D050861
:1022D80003000000E1A302087419002008000000B0
:1022E800F41D05080300000091CA02089C1C002088
:1022F8000000000094140508010000000000000020
:102308000000000000000000000000000E000000B7
:102318000000000000000000000000008C14050808
:1023280000000000000000000000000000000000A5
:102338003B120508040000000DC60208000000005A
:1023480000000000941405080100000000000000CF
:102358000000000000000000000000000E00000067
:10236800000000000000000000000000481E0508F2
:102378000000000000000000000000000000000055
:10238800B00B05080D00000000000000F81900203F
:1023980004000000581E05080800000000000000A6
:1023A800EC19002004000000641E05080800000065
:1023B80000000000E0190020040000006C1E050861
:1023C8000800000000000000D419002004000000EC
:1023D800741E05080800000000000000C81900204D
:1023E800040000007C1E0508080000000000000032
:1023F800BC19002004000000841E05080800000025
:1024080000000000B0190020040000008C1E050820
:102418000800000000000000A419002004000000CB
:1024280094140508010000000000000000000000EE
:1024380000000000000000000E0000000000000086
:1024480000000000000000009D9C02080000000041
:10245800041A002000000000000000007C1A002080
:1024680000000000000000001C1B0020A6660020E1
:102478000400000088C50408A4660020E0150C17B5
:1024880000000000A3660020080000005CC60408E5
:10249800A2660020050000009CC50408000000009A
:1024A800000000006C1B0020040309041201000254
:1024B800EF020140830456320002010203010000CA
:1024C8001201000202020040830440570002010288
:1024D8000301000009026400030100C0320904007E
:1024E8000001030000000921110100012226000754
:1024F80005830308000A080B01020202010009040F
:102508000100010202010005240010010524010058
:1025180002042402020524060102070582030800BA
:10252800FF09040200020A0000000705010240003A
:10253800000705810240000009024300020100C0B3
:1025480032090400000102020100052400100105FF
:102558002401000104240202052406000107058263
:10256800030800FF09040100020A00000007050132
:10257800024000000705810240000000FF00000043
:1025880000FFFF0000000000AA550501000001003F
:1025980005010905A101A100050109300931093228
:1025A800093309350934094009381581257F75082B
:1025B80095088102C0C0000009022200010100E064
:1025C8003209040000010301020009211101000180
:1025D8002226000705830308000A00000000000007
:1025E800010203040102030406070809312D030848
:1025F800352C0308752F030865110308A91403086F
:1026080075110308911103083D1103082D110308E2
:1026180000000000000000002D202D2D202D2D2D64
:102628002D202D2D2D2D00000000000000000000A1
:1026380000000000000000AA550B010000AA550781
:10264800010000AA55090200000000000100000076
:10265800C012AA5503009F00FF1FFF1F01000000C2
:10266800386C002000000000701E002004000000EC
:10267800000200051002700B1F852B3F0000803FF1
:102688000000000000000000000000000000803F83
:102698000000000000000000000000000000803F73
:1026A8000000000000000000000000000000803F63
:1026B80049100308451003084110030835100308A2
:1026C800311003083D10030839100308BD10030832
:1026D800B1100308891003089D100308751003083A
:1026E800611003084D10030801000000006002405B
:1026F800106002400000000000000000000B000015
:10270800000000000000000000000000006002401F
:10271800286002400100000000000000060C0000D4
:1027280000000000000000000000000000600240FF
:10273800406002400200000000000000100D000090
:1027480000000000000000000000000000600240DF
:10275800586002400300000000000000160E000050
:1027680000000000000000000000000000600240BF
:10277800706002400400000000000000200F00000C
:10278800000000000000000000000000006002409F
:1027980088600240050000000000000026100000CC
:1027A800000000000000000000000000006002407F
:1027B800A060024006000000000000003011000088
:1027C800000000000000000000000000006002405F
:1027D800B86002400700000000000000362F00002B
:1027E800000000000000000000000000006402403B
:1027F80010640240000000000000000000380000E3
:10280800000000000000000000000000006402401A
:1028180028640240010000000000000006390000A2
:1028280000000000000000000000000000640240FA
:10283800406402400200000000000000103A00005E
:1028480000000000000000000000000000640240DA
:10285800586402400300000000000000163B00001E
:1028680000000000000000000000000000640240BA
:10287800706402400400000000000000203C0000DA
:10288800000000000000000000000000006402409A
:102898008864024005000000000000002644000093
:1028A800000000000000000000000000006402407A
:1028B800A06402400600000000000000304500004F
:1028C800000000000000000000000000006402405A
:1028D800B86402400700000000000000364600000F
:1028E800000000000000000000000000F0200020B0
:1028F80000000000000000000000000000000000D0
:1029080000000000000000000000000000000000BF
:1029180000000000000000000000000000000000AF
:10292800000000000000000000000000000000009F
:10293800000000000000000000000000000000008F
:10294800000000000000000000000000000000007F
:04295800010000007A
:10800000D0ED007A90ED017A30EE670AE7EE007A63
:10801000B0EE670AC0ED007A704700BF704700BF3E
:1080200070B50C4C23689BB15A68821A002A0FDB8A
:108030000546002603E05A68AA1A002A08DB996858
:108040001E731A682160184690472368002BF2D1EE
:1080500070BD00BF58210020436A8269D154436A31
:108060000169C26B01338B4228BF00234362DAB13E
:10807000EFF31183502282F31288C26B1168C90793
:108080000ED470B45468FCB9D0E909518D4211D1B5
:10809000012280F86020DBB283F3118870BC704746
:1080A000DBB283F311887047C26DD36843F080035D
:1080B000D360704786690E44D6600ED9691A516044
:1080C0008562002180F86010116841F00101DBB287
:1080D000116083F3118870BC70470569691A51609B
:1080E0008462EEE7034610B4846BD968406954B1EA
:1080F0001A6D8C1A013A005D5DF8044B08BF0A4600
:10810000C0B21A6570471A6A805C01328A4228BF81
:108110002246C0B21A625DF8044B7047C36B13B1BC
:1081200090F860007047D0E90903181AB0FA80F09F
:1081300040097047D0E909120369914238BFC91854
:108140008A1AC16B013B19B149680A449A4201D2AB
:10815000981A704700207047836B43B1026D5B68CB
:108160009A4291BF981AC0689B1AC0187047D0E90C
:1081700007239A422FBFD01AC0688018C01A7047D0
:108180000A4B30B503F1100493F900205D78072AFB
:10819000C8BF143A811804338D7213F8025C8554F9
:1081A00013F8012C0A759C42EED130BD649304088B
:1081B00003682DE9F0415D6A1DB12B46BDE8F04131
:1081C0001847002A174611DD04460E460F4400E00A
:1081D00023689B68204698470028F9D0236816F842
:1081E000011B1B6820469847BE42F1D1BDE8F081D3
:1081F00003681B69184700BF10B457215524562245
:108200000023047041708270C3705DF8044B7047A6
:1082100003685A1C02601970704700BF2DE9F047CF
:10822000089C2578002B804689460CBF4FF0200A19
:108230004FF0300A661C25B3002A26DD334601E0E4
:10824000024698B113F8011B501E0029F8D1971E61
:1082500060B13D46013D51464046C8476B1C002B6E
:10826000F8DC257827EAE770013045B1041B294680
:108270004046C847301916F8015B002DF7D1BDE81C
:10828000F087002A03DC2846F9E70020EEE7571EB6
:10829000DFE700BF0A44914215D030B40139551EC2
:1082A00041F2210211F8014F082380EA042004045E
:1082B0004CBF82EA40004000013B80B2F7D18D42C2
:1082C000F0D130BC704770472DE9F04714461D4689
:1082D00006464FF47A720023204629463EF050FAB3
:1082E0004D4BDFF850814D4A4D4F034488FB03103E
:1082F0001844D91782FB032CC1EB601088FB0028BF
:1083000087FB03279C44474AC1EBEC2CC0EB001EC3
:1083100082FB0C29A3EB8E0E1F44434A86F806E02D
:10832000C1EB27474FEAEC7E08EB000ACEEBA90E23
:1083300082FB07824FEAE0780EEB4E0EC8EB6A181C
:10834000ACEBCE0CC8EB0818DFF8ECE086F804C004
:10835000A0EB880070718EFB0303F817C0EBE212EC
:1083600040F2B55000FB1272C1EBE353B2F5896FD6
:108370004FEA83073FDA40F2DA239A4243DCB2F550
:10838000B77FB4BF4FF0000E4FF0010E4FEA4E081A
:10839000264B08EB0E0103EBC1031FFA8EFCD88CB1
:1083A000234908EB0E0301EBC30116310B2301E057
:1083B00031F8020D90421BDD013BF9D11B4BC64445
:1083C00003EBCE0E0123BEF81000B37007F5FA6779
:1083D0000132121ABC44F270A6F800C020462946A9
:1083E0004FF47A7200233EF0CBF93281BDE8F0877A
:1083F0000133DBB2E9E74FF0030CE64640F296505A
:108400004FF00608CCE74FF0020CE64640F2294058
:108410004FF00408C4E700BF80BC92C7C5B3A29167
:1084200007452EC2ABAAAA2A73B06D16649304083E
:108430007493040889888888792D031130B40388DF
:108440008278174DC478A3F5FA6303F0030101EBBA
:108450004101013A02EB810205EB4202611E158ADD
:10846000027940F2B5549B0804FB03132B4403EB41
:10847000430302EBC303427984790A490089C3EBC1
:10848000031302EB83032144C3EB031301EB8303C8
:108490004FF47A720021C2FB030130BC704700BF69
:1084A0006493040880436D380028F0B403DA2D2368
:1084B0000B7040420131092804464FF0010307DDEB
:1084C00003EB83035B00B0FBF3F2092AF8D883B116
:1084D0000F48A0FB0326B4FBF3F2092A02F1570C64
:1084E00002F1300709DD03FB1244F30801F801CB68
:1084F000EFD100230B70F0BC704703FB1244F3086C
:1085000001F8017BE5D100230B70F0BC704700BF80
:10851000CDCCCCCC884270B44FF0010442D301FBE7
:1085200004F4B0FBF4F58D42F9D2ECB142BB092D55
:1085300004FB150005F1570605F130020EDDB4FB12
:10854000F1F403F8016B7CB1B0FBF4F5092D04FBE9
:10855000150005F1570605F13002F0DCB4FBF1F42B
:1085600003F8012B002CEFD100221A7070BC704769
:1085700003F8016BB4FBF1F4002CF5D0B0FBF4F57B
:10858000092D04FB150005F1370605F13002EFDC7B
:10859000B4FBF1F403F8012B002CEFD100221A7088
:1085A00070BC70470546002AEAD1C0E790ED057A15
:1085B00090ED004AD0ED066AD0ED014AD0ED047A84
:1085C00090ED035AD0ED025AA4EE007AB0EE406A64
:1085D000B0EE470AB0EE667AA4EE867A67EEC07A0D
:1085E000A5EE407AE5EE867A80ED057AC0ED067A52
:1085F000704700BFD0ED057A90ED013AD0ED003A1A
:10860000D0ED064A90ED024A90ED077A90ED035ABC
:1086100090ED086AD0ED045AC0ED067AF0EE406A9B
:1086200027EE830AC0ED056AA3EEA60A80ED087A5C
:10863000A4EE240AA5EE470AA5EEC60A80ED070AB5
:10864000704700BF80ED010A704700BF07EE900A37
:10865000DFED056AB8EEE77AC6EE877A77EE807AC4
:1086600080EE270A704700BF83F9223E704700BFA3
:1086700006224FF47A73027043607047F0B400250D
:108680000E4E00F1FF3C2F46142165B103788B425A
:108690000BD003460CEB050403E013F8012F8A42CC
:1086A00003D0A342F9D1C155013701350B2D02D0BA
:1086B00016F8011FE9E7F0BC704700BFD493040827
:1086C000152116221723017042708370704700BF76
:1086D00001233122427003720370704770476D4B63
:1086E0002DE9F04F5C686C4BB3F80AE0B3F80480F6
:1086F0009A894FEA0E2AB4EB0A044FEA1E6B4FF038
:10870000000587B065EB0B05CDE900450746009CE9
:108710001889019EA0FB044500FB0655E00940EACC
:1087200045604FEA08448C46E9114FEA184510EBC2
:108730000408D888009C41EB0509CDE90489A0FB19
:108740000445B3F8028000FB0655200A40EA0560A4
:108750004FEAC83429124FEA584510EB040841EBA0
:1087600005090099A2FB010102FB06114FEAD05A4C
:108770004AEA412A1AF5FA634FEAE15B4BF1000439
:10878000B3F5FA6FCDE9023474F10003414E64DAB7
:108790000524AAFB040104FB0B1100FB0BF40AFBEC
:1087A0000144DDE90423A0FB0A0121444D104FEAF6
:1087B0003004121B4FEA900463EB050344EA817412
:1087C000B8EB0408CDE90423DDE9023433484FEA6D
:1087D000A10569EB05094FF0FF31834274EB0103FA
:1087E00026DA40F6AC501AEB00024FF000014BEBDA
:1087F000010302FB03F1A2FB022303EB4103D400BC
:10880000DD00101B45EA527563EB0501DDE9044507
:1088100024184D41CDE904450B24A2FB040104FBBF
:10882000031149104FEA3000B8EB000869EB010969
:10883000DDE900325343009ADDE90201A2FB02ABFD
:108840000BEB430B4FEADA7242EA4B02801A4FEA13
:10885000EB7361EB0301CDE9020197B1B168A1FBB4
:10886000082301FB0933540D5D1544EAC324DDE9F7
:108870000423A21A65EB03031D46D30B43EA4543C9
:108880003B60BCF1000F02D0029BCCF8003007B077
:10889000BDE8F08F582100205832002024FAFFFF55
:1088A0000022082302754375704700BF012380F83A
:1088B00057307047F0B4037C456902681F2B37D9E5
:1088C000203B2021546899400C4223D010249C4026
:1088D000D160D4605168D940CE074ED4EFF31183F4
:1088E000502282F31288EA6B1168C90709D45468D0
:1088F000002C52D1D5E909618E4243D1012285F87D
:108900006020DBB283F31188037C02681F2B1946B9
:1089100014D9203B082150689940084200D0D1600A
:108920000421506801FA03F3184223D1F0BC7047C8
:10893000202416689C4026420FD11946082310684F
:108940008B40184200D093600423106803FA01F1B1
:108950000842EBD09160F0BC7047102199409460C0
:1089600091601168D940CC07B8D5012101FA03F311
:108970009360B3E7D360F0BC7047012101FA03F3C1
:10898000D360ABE7AF690F44D7600ED82E69711A78
:108990005160AC62002185F86010116841F001015E
:1089A000DBB2116083F31188AEE7711A5160AE62D9
:1089B000F0E700BF70B4037C01681F2B26D9A3F138
:1089C000200520224C68AA40224214BF0122002226
:1089D000D2B142691B481C4C02EB420200EB42122E
:1089E000257854682068CDB9E56856892C6824F04C
:1089F00001042C6082891F2B22EA060282811AD888
:108A0000202202FA03F38B6070BC704720220C68AE
:108A10009A40224214BF01220022D9E7A4692268A9
:108A200022F001022260828922F480721204120C68
:108A30001F2B8281E4D9A3F1200220239340CB6035
:108A400070BC7047E8B70020B812001010B5027C67
:108A500001681F2A4FF020030ED94C68203A93403A
:108A60001C4208D00B4A406800241470026822F0AF
:108A700001020260CB6010BD0C6893401C42FAD02A
:108A8000044A406800241470026822F00102026067
:108A90008B60F0E7C73800202DE9F041C4002318AF
:108AA0009B00B749CA585268958AADB2EFB2FE072B
:108AB0000B4461D4BE0737D5BFF35F8F1D7EEDB287
:108AC000012D00F0BB80AF4E138BBFF35F8F2318D7
:108AD00001EB83031D7E022D00F0CE80231801EBF5
:108AE00083031D7E032D05D19B7E1BB1737B002B61
:108AF00040F01A81938896F90CC043F48063938008
:108B0000231801EB83031B7E013363450AD1B37B3A
:108B100000257573002B40F08A80204401EB800013
:108B200000234375BDE8F081964E17F0040F96F9C7
:108B30000CC04DD117F0400700F0B280178A1D6AB3
:108B4000FFB205F80C705FFA8CF56F1C93F818E013
:108B50007BB2DF1CBE4533739C4600F009812718A9
:108B600001EB87073F7EBB42CAD105F1020C4FFAE9
:108B70008CFC86F80CC0C3E71588824E25F400658E
:108B80002D042D0C1580158845F4806515809D7E7B
:108B900000273773002D3DD0757B002D37D023186B
:108BA00001EB830301251B7E7573022B03D1138810
:108BB00043F400631380231801EB83039B7D43F090
:108BC00001031382204401EB8000037EBDE8F081A5
:108BD0009F7E757B4FF0010E86F80EE0002F5CD073
:108BE000002D78D1231801EB83035B7E002B00F06E
:108BF000A48013880CF1010C4FFA8CFC43F4007331
:108C000086F80CC013801388DF05FCD478E7DB7D81
:108C1000FF2BC4D0231801EB83039D7D05F0FE05D7
:108C20001582DB7DFF2BCDD0FF233373CAE79388FA
:108C300023F440731B041B0C93806EE79B7E514E04
:108C4000002B3FF441AF737B002B3FF43DAF138803
:108C500023F480631B041B0C1380BFF35F8F138B03
:108C60001388B57343F400731380938896F90CC08E
:108C700043F48063938043E79B7E002B3FF42EAF49
:108C8000737B002B3FF42AAF138896F90CC023F4B2
:108C900080631B041B0C138016E0002DA2D0A8E7F4
:108CA0002D067FF52DAFBCF1FF3F6DD0DD6915F8C6
:108CB0000C5015820CF1010C1D7E4FFA8CF39D4275
:108CC0009C4633737FF41CAF938823F480631B04AA
:108CD0001B0C938014E71F7ED3F820805FFA8CF57D
:108CE000AE44022F4FFA8EFE17882DD927F48067E5
:108CF0003F043F0C1780178AFFB208F80C701788E2
:108D0000D3F820C047F400731380138ADBB20CF849
:108D10000E30938805F1020C4FFA8CFC43F480630B
:108D200086F80CC093806EE7938896F90CC023F404
:108D300080631B041B0C9380E2E61388012543F437
:108D40008073138075735EE747F400771780178A86
:108D5000FFB208F80C70178AD3F8208005F1030CD5
:108D60004FFA8CFCFBB286F80CC008F80E304AE7CC
:108D7000978827F480673F043F0C9780EFE600BF99
:108D80000C36002058210020DD7D15829D7E377332
:108D90001DB91B7E002B7FF415AF938823F48063ED
:108DA0001B041B0C93800DE72F4B1B685B0700D443
:108DB00070472DE9F0472D4C2D4D94F80FA0BAF1D6
:108DC000010F3ED1EB69DFF8B890284698472B6930
:108DD000284698472B6A04F1100104F114009847C3
:108DE000244AD9F800609179D4E90683D4E90420B3
:108DF00008F10107AA625A1C8F4208BF0027032A04
:108E0000E86228D01C49E26194F8202041F8230050
:108E10003ABB04EB880804EB8703C8F824005A6ABD
:108E2000AB89A761B61A30440022C9F80000E2738A
:108E30002BB1124A0A2B1268B8BF0A231361BDE88E
:108E4000F0876B6928469847AB6928469847012206
:108E5000EB89E273ECE7084A84F820A000239060D5
:108E6000E3613BF053FBD4E7585C0020582100201D
:108E70005C5C0020286C0020D8C40020580F001033
:108E8000A02600202DE9F0478C4A8D4B12781C78E3
:108E9000D207064648D58B4D012C00F091801ED399
:108EA000022C40F09B808849884A09881288884FA4
:108EB000914201D901241C70EB7AFBB12B89EBB1F3
:108EC000844B1B78D3B119F071F8002800F0E280D0
:108ED0002B7B83422CBF012300233B700FE0DFF884
:108EE000E8C17B4F7C4CBCF800002288697B521A99
:108EF0008242DFDAEB7A0024002BDFD13B782A793B
:108F0000632A07D87549022C087800F0B880002839
:108F100040F0A0807249AA7A9C4238BF1C460C706F
:108F2000002A44D1BDE8F087DFF89CC1654DBCF84C
:108F30000000BCF8021095F803E06A4F411A0029BE
:108F4000A4F10302B8BF4942704597F80080D2B23D
:108F500011D32F7887420ED3012A45D9B8F1020FD9
:108F60009AD15C48604A007890800229CCBF0021E9
:108F70000121D18090E7B0EB4E0FEDDC012A40F2E9
:108F80008C800229EADC0324514F524852494F4A4F
:108F90001C70B8F1020F4FF000033C7003700B809F
:108FA000138089D1504A01219380D18084E7012C1C
:108FB0006BD0022CB6D10720BDE8F0470BF0BCB94E
:108FC000424A41491288687B0988121A914207DD9A
:108FD000414A12888A423CBF00241C703C4F6BE718
:108FE00002241C703A4F67E70229B7DC95F800E0CD
:108FF00090FBFEFE0EF1010EBEF1080FDFF8D4A0CB
:10900000AA786978DFF8C490334C314FA8BF4FF08D
:10901000080E8AF800E01FFA8EFA11FB0AF112FB23
:109020000AF2DFF8B8A0A9F8001092B200214FF0C0
:109030006409B8F1020F228039701970CAF804105F
:109040008AF801907FF452AF274A0121A2F804E088
:10905000D18048E74868301A244EB042C8BF4A70F1
:109060003FF758AFC2F16402214E00FB02F086FBCD
:109070000062C017A0EBA250643048704AE7002895
:10908000E8D101274E600F70ECE70820BDE8F047FB
:109090000BF052B902233B7031E7032C7FF471AF20
:1090A000B8F1020F9AD10B4A0F4B12789A8002291D
:1090B000CCBF00210121D980054FFDE61A650020B3
:1090C000D4340020F0C40020C0C50020D8340020D3
:1090D000E4340020ECC50020D6340020DC3400202D
:1090E000EDC5002050C60020D4C500207F96980012
:1090F0006BCA5F6B30B40123282529242A212B2237
:1091000005704470017142718370C3708371C371C3
:1091100030BC704770B544880546C4F30B04224642
:1091200008460E46002140F0AFF82B69094A9342E9
:1091300002D3094A934205D35BB121463046BDE8CC
:1091400070401847224630461946BDE870403DF051
:1091500067BD70BDB80600080808000810B5154CBA
:1091600094F81E31002B144B14BF012200221A70F8
:109170000BD0042204F58271104840F0C3F8142289
:1091800004F209110E4840F0BDF894F81F31002B8D
:109190000C4B14BF012200221A7009D00A4B0B4A53
:1091A00003F1200153F8040B42F8040B8B42F9D170
:1091B00010BD00BF58210020016D002098C500207F
:1091C00080C50020006D00203C220020A0C50020AA
:1091D00038B51D4B1B78044600F1250593B10422D8
:1091E0001A49203040F08EF828461422184940F0E1
:1091F00089F8012384F83A30164B1B7873B984F848
:109200003B3038BD28461422134940F07BF8012337
:1092100084F83A300F4B1B78002BF0D00F4B1868B6
:1092200059689A68DD68E56020606160A260DD6968
:10923000186959699A69A2610123E5612061616138
:1092400084F83B3038BD00BF016D002098C5002078
:1092500080C50020006D002020D20408A0C5002099
:1092600030B50446C06D21718389A26823F4005390
:109270001B041B0C838185B06379009213F0040FEB
:109280004FEA03324FEA03230CBF00254FF4805509
:1092900003F4806302F40052ADF80450ADF80830D6
:1092A000002511F00103ADF80620ADF80C501CD1DB
:1092B000ADF80A3008238A07694648BFADF80A307E
:1092C0002AF024FE637913F0080FE36D9A8A05BF34
:1092D00022F00802120442F00802120C9A829A89C3
:1092E00042F400529A8105B030BD0423ADF80A3033
:1092F0000C23E0E730B50446C06DA160838923F4F8
:1093000000531B041B0C8381637985B013F0040F99
:10931000009108BF0025217918BF4FF48055ADF8A2
:1093200004501A0300251B0203F48063ADF80A50B1
:10933000ADF80C50CD07ADF8083002F4005244BF30
:109340000423ADF80A30ADF806204CBF0C230823E7
:109350008A07694648BFADF80A302AF0D7FD63791D
:1093600013F0080FE36D9A8A05BF22F00802120479
:1093700042F00802120C9A829A8942F400529A81B1
:1093800005B030BD70B504462DED028BD0F8300429
:10939000B0EE408A36F0C6FDD4ED047AF0EE405AC5
:1093A00094ED050A37EEC00AF5EE405A30EE270A72
:1093B000F1EE10FA84ED040A84ED050A05D0F5EE0D
:1093C000407AF1EE10FA40F0BC80664BF7EE007A7E
:1093D000B0EE676AC3ED487A94ED017AD4ED037A72
:1093E000D4ED026AE7EE067A04F23442104678EED3
:1093F000404A77EEA66AB0EE677A87EE265AF7EE15
:10940000007A77EEC57AA4EE850A67EE877A84ED56
:10941000040AC4ED037AFEF7F3FD04F21C4191ED5A
:10942000007AD4F82C34256884ED040A04F2244030
:10943000D0ED007AA8EE087A04EB8306013378EECB
:10944000277AAB4286ED068AC0ED007A81ED007A7C
:10945000C4F82C3424BF0023C4F82C3404EB830359
:10946000D3ED066A404D04F5856393ED005A77EE1F
:10947000E67AA6EEE67A04F58463C0ED007A67EE3C
:10948000857A81ED007A67EEE76AC3ED007AF0EE47
:10949000667AE7EE057A354995ED007A0878F5EEBB
:1094A000C07AF1EE10FAD8BFF1EE677AF1EEE76A12
:1094B00004F58363C3ED007A67EE267AC4ED027A81
:1094C00070B1F5EE405AF1EE10FA0CD1D4F8303408
:1094D000022B09BF002394ED040A94ED040A0B70DB
:1094E000BDEC028B70BD04F23C45D5ED007AF4EE84
:1094F000657AF1EE10FAE9D0DFED1D7A26EE276AE3
:1095000004F58860FDEEC67A90ED000A17EE903AF9
:10951000B3F5FA7FA8BF4FF4FA730A2BB8BF0A233A
:1095200007EE903AB8EEE76ABCEEC66A16EE103A5D
:1095300098B2FFF78BF81046FFF784F8C5ED005A94
:10954000C4E785EEA77A074BB7EE006A36EE476AA6
:10955000B5EEC06AF1EE10FAD8BFB1EE466A83EDFF
:10956000486A39E758210020781E0020EC7100205D
:1095700000008C4238B52C2200213FF085FE0346C6
:10958000642140F2DC5240F2022019745A82132105
:10959000202240F21A4540F26C74188399760E200E
:1095A00002211A7701229D82DC8240F2753540F655
:1095B000430483F8220083F82A109A7383F8292041
:1095C000DD831C8419460248BDE8384015F08CBB89
:1095D00030D20408022838B504460DD800EB8003C9
:1095E000084A094D094903EB830302EB830318463C
:1095F0002B600C7031F05AFB601CC0B2BDE83840E3
:109600000AF0C4BF124600202069002070C5002067
:1096100038B52C4A2C48137852782C492C4C2D4DB7
:1096200003EB830303EB830300EB830302EB4200B2
:10963000C2EBC00201EB420223602A6035F0C6F99A
:109640003022002124483FF01FFE206831F02EFB1D
:10965000224A23491079234A234BC2F82411C822F5
:10966000642111FB00210022C3E90112C3E9032296
:10967000C3E90522DA6183F8202083F8212014F061
:10968000B1FE1A4ADFED1A6A1388547919491A484B
:10969000086007EE103A5388127907EE903AB8EE58
:1096A000C77AF8EEE77A154B27EE267A67EEA67AA8
:1096B0001C725A7283ED017AC3ED007ABDE838401E
:1096C00023F0A4BF70C50020124600208847002068
:1096D000206900202469002074350020D84C002027
:1096E0000E2B0020582100201C650020042700209C
:1096F00017B7D138E46C00203661023DBC6C002005
:109700000B4B1B7810B58BB90A4B0B4A03F12001A8
:1097100053F8040B42F8040B8B42F9D1074B012498
:1097200083F81F41FFF71AFD204610BD0020FCE71B
:10973000006D0020A0C500203C2200205821002000
:10974000074B1B7853B9074B00F1200250F8041B5C
:1097500043F8041B9042F9D1012070470020704764
:10976000006D0020A0C5002038B50C4B1B789BB9BC
:109770000B4D0C49042205F582703FF0C3FD012416
:109780001422094905F209103FF0BCFD85F81E417D
:10979000FFF7E4FC204638BD0020FCE7016D002007
:1097A0005821002098C5002080C50020F0B50C2964
:1097B00034D8DFE801F08A3333335F333333343363
:1097C00033330700048C9689B2F802C01788744DB1
:1097D00024F480542404240C0484038C8488818B16
:1097E00023F4005321F4E6411B0409041B0C46EA50
:1097F0000C06090C43EA063341EA0721A8429BB252
:10980000A4B289B200F09E8005F58065A84200F000
:10981000998092688480818302640384F0BD048C03
:109820009589B2F802E017885D4E24F48074240410
:10983000240C0484038CB0F804C0818B23F40073DF
:109840001B0421F0730145EA0E041B0C090443EAD2
:109850000423090CB0429BB21FFA8CF541EA0701C0
:109860005BD0504CA04258D0926885808183C263FF
:109870000384F0BD048C9589B2F802E0B2F800C010
:10988000474E24F010042404240C0484038C87889D
:10989000018B23F0200321F4E6411B0409041B0C77
:1098A00045EA0E04090C43EA041341EA0C21B042D4
:1098B0009BB2BFB289B25BD03A4CA04258D09268FA
:1098C0008780018382630384F0BD048C9589B2F89C
:1098D00002C01788324E24F001042404240C0484AE
:1098E000018C8488038B21F0020123F073030904A7
:1098F0001B04090C45EA0C051B0CB04241EA0501AA
:10990000A4B243EA070324D0264DA84221D092688E
:109910008480038342630184F0BDD489168A578A08
:1099200023F4006343EA04234FF6FF341C4093887A
:1099300025F440553E4344EA032345EA06149BB20E
:10994000A5B291E7158A24F4804444EA8514A4B2B0
:109950005FE7D689158A578A21F008013143968836
:1099600024F4407421F004013D4331432C43CEE7FD
:10997000D489168AB2F812C023F0800343EA041394
:109980004FF6BF741C40938827F4406546EA0C06E6
:1099900044EA031345EA86049BB2A7B28FE700BFEF
:1099A00000000140000401402DE9F84F7822002119
:1099B000DFF858828B488C4C8C4E8D4FDFF85092DC
:1099C000DFF850A23FF060FC8A4A8B48DFF848C2BB
:1099D000DFF848E208F5B47145462B68934200F081
:1099E000C380B3F1804F00F0C680A34200F0CA806C
:1099F000B34200F0D680BB4200F0D680634500F051
:109A0000D680734500F0D6804B4500F0D680534594
:109A100000F0D680DFF808B25B4500F0D4800BF58B
:109A2000806B5B4500F0D280ABF5983B5B4500F066
:109A3000D0800BF5806B5B4500F0CE800BF5806B22
:109A40005B4500F0CC802435A942C6D16B4F6C4EEB
:109A50004FF0030A4FF0020998F80630002B7CD033
:109A600098F804301C09013C042C03F00F0374D84F
:109A700037F8140040FA03F2D2076ED54FF0010B0D
:109A80000BFA03F3013B18403CF0CAFE5D4B1B5D33
:109A9000184416EBC00460D056F830305A4898F895
:109AA000081003F13F4202F57E02920A825C02F046
:109AB0001F005209032A0BFA00FB6CD0042A64D061
:109AC000022A04D14C48426C4BEA02024264B4F8C8
:109AD00004C0BCFA8CF2C2F11F0292B2D00803EBB0
:109AE000800002F00702046A92004FF00F0E0EFA97
:109AF00002FE24EA0E040462046A01FA02F222431E
:109B000002624FF0010E00220EFA02F434EA0C0158
:109B100020D15000D3F800B00AFA00F1C9430BEA93
:109B2000010BC3F800B0D3F800B009FA00F040EA26
:109B30000B001860986808409860986898605868AA
:109B400020EA04045C6058685860D8680140D96015
:109B5000D968D9600132102AD6D108F124084545C8
:109B60007FF47AAFBDE8F88F4FF0010B436C43EA06
:109B70000B03436467E74FF0010B036C43EA0B03ED
:109B8000036460E74FF0020BF7E71B48026B4BEAF8
:109B9000020202639BE71848026C4BEA020202646D
:109BA00095E74FF0040BE8E74FF0080BE5E74FF0BF
:109BB000100BE2E74FF0200BDFE74FF0020BD5E789
:109BC0004FF4803BD2E74FF4003BCFE74FF4802BBC
:109BD000CCE74FF0400BD0E74FF0800BCDE74FF4D0
:109BE000807BCAE7303400200004004000080040B9
:109BF000000C0040000001400038024034CB040853
:109C000070A2002040CB04087CC90408CCC9040819
:109C100000040140004001400010004000140040DA
:109C20000044014000B9704703682DE9F04F03F18B
:109C30003F4404F57E04534EA40A0125345D04F02C
:109C40001F066409032C05FA06F500F09580042C24
:109C500000F08D80022C45D08588B5FA85F0C0F1E2
:109C60001F0080B2C40803EB840400F00700266ADA
:109C700080000F27874026EA07062662276A01F040
:109C800003068240701E3A4301282262C1F3810E0E
:109C9000C1F300184FF000024FEA51114FF0010CD0
:109CA00025D94FF0030E0CFA02F0A84315D150004D
:109CB0001F680EFA00F4E44327401F60D3F80080C9
:109CC00006FA00F747EA08071F60DF683C40DC60DF
:109CD000DC6801FA00F02043D8600132102AE2D19A
:109CE000BDE8F08F284C666C35436564B4E74FF0EF
:109CF00003090CFA02F737EA050033D15000D3F814
:109D000000A009FA00F4E4430AEA040AC3F800A038
:109D1000D3F800B006FA00FA4AEA0B0AC3F800A02A
:109D2000D3F808A004EA0A0AC3F808A0D3F808B0D8
:109D30000EFA00FA4AEA0B0AC3F808A0D3F804A006
:109D40002AEA07075F60D3F804A008FA02F747EA97
:109D50000A075F60DF683C40DC60DC6801FA00F005
:109D60002043D8600132102AC3D1BDE8F08F064CE1
:109D7000266B354325636FE7034C266C354325641A
:109D80006AE700BF7CC904080038024003682DE977
:109D9000F04F03F13F4404F57E04534EA40A01251D
:109DA000345D04F01F066409032C05FA06F500F083
:109DB0009580042C00F08D80022C46D08588B5FA61
:109DC00085F0C0F11F0080B2C40803EB840400F0EA
:109DD0000700266A80000F27874026EA07062662CA
:109DE000276A01F0030602FA00F0721E3843012AC6
:109DF000C1F3810EC1F3001820624FEA51114FF0F8
:109E000000024FF0010C25D94FF0030E0CFA02F0BE
:109E1000A84315D150001F680EFA00F4E443274010
:109E20001F60D3F8008006FA00F747EA08071F60B2
:109E3000DF683C40DC60DC6801FA00F02043D86059
:109E40000132102AE2D1BDE8F08F284C666C354310
:109E50006564B3E74FF003090CFA02F737EA05002F
:109E600033D15000D3F800A009FA00F4E4430AEA21
:109E7000040AC3F800A0D3F800B006FA00FA4AEAD0
:109E80000B0AC3F800A0D3F808A004EA0A0AC3F832
:109E900008A0D3F808B00EFA00FA4AEA0B0AC3F891
:109EA00008A0D3F804A02AEA07075F60D3F804A04B
:109EB00008FA02F747EA0A075F60DF683C40DC60A7
:109EC000DC6801FA00F02043D8600132102AC3D1C7
:109ED000B9E7064C266B354325636FE7034C266CC8
:109EE000354325646AE700BF7CC904080038024096
:109EF00010B50409013C042C17D80E4B33F814207C
:109F000000F00F0042FA00F313F001030FD0012319
:109F100003FA00F0013810403CF082FC064A074B7F
:109F2000125D104403EBC00010BD002010BD1846A8
:109F300010BD00BF34CB040840CB040870A2002041
:109F40002DE9F8432C4D2B8AB5F80C8018EA03084C
:109F500025D02A4E4FF00047B8FA88F327FA03F2CB
:109F6000D24391B21B3B08EA02082982042B13D882
:109F7000DFE803F0322920170300736F002B34D180
:109F8000EB6A1FFA83F9346F34B1236820464946DF
:109F900098476468002CF8D1B8F1000FDCD1BDE817
:109FA000F883306D696B036889B29847B8F1000F88
:109FB000D2D1F4E7706DA96B036889B29847B8F104
:109FC000000FC9D1EBE7B06DE96B036889B2984720
:109FD000B8F1000FC0D1E2E7F06D296C036889B2D7
:109FE0009847B8F1000FB7D1D9E703F1FF39002343
:109FF0001FFA89F97367C6E7000800403034002073
:10A000002DE9F8432C4D2B8AB5F80C8018EA03088B
:10A0100025D02A4E4FF00047B8FA88F327FA03F20A
:10A02000D24391B21B3B08EA02082982042B13D8C1
:10A03000DFE803F0322920170300F36C002B34D142
:10A04000EB6A1FFA83F9B46C34B1236820464946A1
:10A0500098476468002CF8D1B8F1000FDCD1BDE856
:10A06000F883B06A696B036889B29847B8F1000F4A
:10A07000D2D1F4E7F06AA96B036889B29847B8F1C6
:10A08000000FC9D1EBE7306BE96B036889B29847E1
:10A09000B8F1000FC0D1E2E7706B296C036889B298
:10A0A0009847B8F1000FB7D1D9E703F1FF39002382
:10A0B0001FFA89F9F364C6E7000400403034002039
:10A0C0002DE9F8432C4D2B8AB5F80C8018EA0308CB
:10A0D00025D02A4E4FF00047B8FA88F327FA03F24A
:10A0E000D24391B21B3B08EA02082982042B13D801
:10A0F000DFE803F0322920170300736A002B34D104
:10A10000EB6A1FFA83F9346A34B123682046494662
:10A1100098476468002CF8D1B8F1000FDCD1BDE895
:10A12000F8833068696B036889B29847B8F1000F0B
:10A13000D2D1F4E77068A96B036889B29847B8F187
:10A14000000FC9D1EBE7B068E96B036889B29847A3
:10A15000B8F1000FC0D1E2E7F068296C036889B25A
:10A160009847B8F1000FB7D1D9E703F1FF390023C1
:10A170001FFA89F97362C6E70000014030340020FD
:10A180002DE9F8432C4D2B8AB5F80C8018EA03080A
:10A1900025D02A4E4FF00047B8FA88F327FA03F289
:10A1A000D24391B21B3B08EA02082982042B13D840
:10A1B000DFE803F0322920170300736A002B34D143
:10A1C000EB6A1FFA83F9346A34B1236820464946A2
:10A1D00098476468002CF8D1B8F1000FDCD1BDE8D5
:10A1E000F8833068696B036889B29847B8F1000F4B
:10A1F000D2D1F4E77068A96B036889B29847B8F1C7
:10A20000000FC9D1EBE7B068E96B036889B29847E2
:10A21000B8F1000FC0D1E2E7F068296C036889B299
:10A220009847B8F1000FB7D1D9E703F1FF39002300
:10A230001FFA89F97362C6E700000140303400203C
:10A24000F0B506683C4CB30AA34266D03E34A34244
:10A2500060D03F3CA34200D0F0BD482701254379A0
:10A26000B6F80CE0022023FA00F4A0401FFA80FCAC
:10A27000A8002346441903EB4403304C00294FD077
:10A280004CEA0E0C03F1040E44F8231044F82E207F
:10A29000A6F80CC0E319EFF31181502282F3128863
:10A2A000421904EBC202D2F810C0BCF1000F03D077
:10A2B00044F807C013690433421904EBC20257691A
:10A2C00017B11F6053690433421904EBC202976946
:10A2D00017B11F6093690433421904EBC202D769B6
:10A2E00017B11F60D36904330027CAB21F6082F31D
:10A2F0001188284404EBC004236A33B9B38923F0DE
:10A3000001031B041B0CB381F0BDB38943F00103AF
:10A31000B381F0BD20270025A1E7702702259EE725
:10A320002EEA0C0C03F1040EA6F80CC044F823101E
:10A3300044F82E20AEE700BF0200100030340020A9
:10A3400010B503687C487D4C0139834282B0246893
:10A3500089B200F0AF80A0F58060834200F0AA804F
:10A3600000F58040834200F0818000F580608342E8
:10A370007CD000F58060834278D018886408B4FBF4
:10A38000F2F4013CA4B282B2B3F1804F0AD06C481F
:10A39000834207D000F58060834203D000F58060DF
:10A3A000834202D122F0700292B26648834200F0EA
:10A3B0008F8000F58060834200F0938022F4407229
:10A3C00000F56C4092B283421A80D9621C8540F03D
:10A3D0009180012100221A86998219885A4841F0F9
:10A3E00001018342198049D0B3F1804F00F08D8084
:10A3F000534A934200F08B8002F58062934200F052
:10A40000888002F58062934200F0858002F58062C8
:10A41000934200F0828002F5806293427FD002F581
:10A42000704293427DD002F5705293427BD002F588
:10A430008062934279D002F58062934277D0A2F590
:10A440009832934275D002F58062934215D002F59E
:10A450008062934208BF0D2210D002A84FF0012362
:10A4600040F8043D29F0AEF802B010BD1888B4FBE6
:10A47000F2F4013CA4B282B286E70C22334B03EB28
:10A48000C20201A854798DF80440012300228DF8FE
:10A4900005308DF807308DF8062029F093F81B2C35
:10A4A0000FD02E2CE0D12A4B019301A829F08AF875
:10A4B00002B010BD1888B4FBF2F4013CA4B282B221
:10A4C00070E7244B019301A829F07CF802B010BD7D
:10A4D00001201A80D9621C8598821A8802431A804A
:10A4E00086E701201A80D9621C8598821A88024367
:10A4F0001A8079E7104A93423FF46BAF01229A82A7
:10A500001A8842F001021A806EE70122B6E70222A1
:10A51000B4E70322B2E70422B0E70522AEE7062241
:10A52000ACE70722AAE70822A8E70922A6E70A2241
:10A53000A4E70B22A2E700BF000401406CC4002086
:10A5400000040040001000400000014078CB0408E7
:10A550002C010001190100010B4A0C4B90421B68B1
:10A5600010D0A2F5806290420CD002F58042904259
:10A5700008D002F58062904204D002F580629042D9
:10A5800018BF5B0818467047000401406CC40020E7
:10A590002B4B98423CD0B0F1804F3BD0A3F57C438D
:10A5A000984239D003F58063984237D003F5806331
:10A5B000984235D003F58063984233D003F5806329
:10A5C000984233D003F57043984231D003F570536D
:10A5D000984229D003F5806398422BD003F580631D
:10A5E000984229D0A3F59833984227D003F5806389
:10A5F000984207D003F58063984208BF0D2202D02D
:10A60000002070470C220F4B03EBC20318797047F0
:10A610000022F8E70122F6E70222F4E70322F2E73C
:10A620000422F0E70522EEE70822ECE70622EAE73B
:10A630000722E8E70922E6E70A22E4E70B22E2E73D
:10A640000000014078CB040870B4104E002332465D
:10A650001D46012403E001330A2B0CD0947930EA23
:10A66000040402F12402F6D1A94207D001330135D6
:10A670000A2BEDB2F2D1002070BC704703EBC3038C
:10A6800006EB830370BC1879704700BFCCC904087F
:10A6900010B5002104460120FFF7D6FF207010BD41
:10A6A00038B500240472451EE1B20220FFF7CCFF4A
:10A6B0000134082C05F8010FF6D138BDC0B110B433
:10A6C0000C4C12212246002300E01179884202F14D
:10A6D000240206D001330A2BF7D100205DF8044B89
:10A6E000704703EBC30304EB83005DF8044B704732
:10A6F000704700BFCCC904082DE9F04F85B0CDE903
:10A7000002109B4DDFF878A2029B013B02930133BC
:10A7100000F02A8136F0C4FB964C974FDFF864E2D4
:10A72000964E4FF4FA7301934FF01008DEF80430A0
:10A73000C3F30803002B40F0F680EFF31183002BE6
:10A7400040F0F1802068AA6823689842FAD1336803
:10A750009A42F7D8D7F800C04FF47A7101FB0CF396
:10A760009B1AB3FBFCF301FB00304FF47A7C4FF0F3
:10A770000109DEF80430C3F30803002B40F0B58074
:10A78000EFF31183002B40F0B0802368A9682268A2
:10A790009342FAD132689142F7D83A680CFB02FB37
:10A7A000ABEB0101B1FBF2F10CFB03131B1AB3F588
:10A7B0007A7FDED3019B013B0193B7D1039B6F4EA0
:10A7C000581CC0B236F0E4F9DFF8B8E14FF47A7300
:10A7D0000193DEF80430C3F308034FF01008002B98
:10A7E00044D1EFF31183002B40D12068AA6823687D
:10A7F0009842FAD133689A42F7D8D7F800C04FF49C
:10A800007A7101FB0CF39B1AB3FBFCF301FB0030E4
:10A810004FF47A7C4FF00109DEF80430C3F30803EB
:10A82000002B44D1EFF31183002B40D12368A9689A
:10A8300022689342FAD132689142F7D83A680CFB09
:10A8400002FBABEB0101B1FBF2F10CFB03131B1A92
:10A85000B3F57A7FE0D3019B013B01933FF454AF02
:10A86000DEF80430C3F30803002BBAD0EFF31183F2
:10A8700088F31288D5F808C02A68D20304D50122CB
:10A88000CAF80020D5F808C02068DAF80090DBB2DA
:10A8900083F3118839684FF47A72484402FB01F35C
:10A8A000A3EB0C03B3FBF1F302FB0030B0E7EFF3D3
:10A8B000118188F31288D5F808B02B68DB0344BFF8
:10A8C000CAF80090D5F808B02368DAF80020C9B2B9
:10A8D00081F31188396813440CFB01F2A2EB0B02DF
:10A8E000B2FBF1F20CFB0323B1E7EFF3118188F324
:10A8F0001288D5F808B02B68DB0344BFCAF8009073
:10A90000D5F808B02368DAF80020C9B281F31188BD
:10A91000396813440CFB01F2A2EB0B02B2FBF1F21B
:10A920000CFB032342E7EFF3118388F31288D5F879
:10A9300008C02A68D20304D50122CAF80020D5F83D
:10A9400008C02068DAF80090DBB283F31188396818
:10A950004FF47A72484402FB01F3A3EB0C03B3FB00
:10A96000F1F302FB003000E705B0BDE8F08F00BF57
:10A9700010E000E064A2002068A200206CA2002089
:10A9800060A2002000ED00E0224B5B68C3F30803E7
:10A9900030B4D3B9EFF31183BBB91F4A1F4D204820
:10A9A0001368846811688B42FAD129688C42F7D801
:10A9B0001C4A11684FF47A7202FB01F0001B30BC94
:10A9C000B0FBF1F002FB03007047EFF3118210239C
:10A9D00083F3128803F1E023D2B29C68196811F462
:10A9E000803F11491EBF012008609C680A4B18680F
:10A9F0000B6882F311880B4A11684FF47A72034492
:10AA000002FB01F0001B30BCB0FBF1F002FB0300C5
:10AA1000704700BF00ED00E064A200206CA200209F
:10AA200010E000E068A2002060A200202DE9F84FAD
:10AA30008046274C274DDFF8A490274EFFF7A4FF50
:10AA4000DFF89CE0DFF89CC04FF0100A4FF47A77F3
:10AA5000DCF80430C3F30803CBB9EFF31183B3B9C7
:10AA60002368A96822689342FAD132689142F7D8E4
:10AA7000DEF8002007FB02FBABEB0101B1FBF2F1BA
:10AA800007FB03131B1A4345E2D3BDE8F88FEFF32E
:10AA900011818AF31288D5F808B02B68DB0304D53E
:10AAA0000123C9F80030D5F808B02368D9F8002090
:10AAB000C9B281F31188DEF80010134407FB01F2DC
:10AAC000A2EB0B02B2FBF1F207FB0323DAE700BFB4
:10AAD00064A2002010E000E06CA2002060A2002030
:10AAE00068A2002000ED00E070B59D4C2368002BAB
:10AAF00040F005819B4B1A78002A68D09A4B197850
:10AB00009A4B002964D11868B3F82C5141628489AA
:10AB1000012A44EA05048481A3F82C1157D0D3F804
:10AB20003001B3F85C5241628489022A44EA050488
:10AB30008481A3F85C124AD0D3F86002B3F88C5336
:10AB400041628489032A44EA05048481A3F88C13B2
:10AB50003DD0D3F89003B3F8BC5441628489042AF1
:10AB600044EA05048481A3F8BC1430D0D3F8C004AF
:10AB7000B3F8EC5541628489052A44EA05048481CE
:10AB8000A3F8EC1523D0D3F8F005B3F81C574162B5
:10AB90008489062A44EA05048481A3F81C1716D088
:10ABA000D3F82007B3F84C5841628489072A44EA55
:10ABB00005048481A3F84C1809D0D3F85028B3F8C1
:10ABC0007C495162908920439081A3F87C1970BD23
:10ABD0005C68198961602568186845F0010540F2D4
:10ABE0000D312560A0F848108489012A44F480744E
:10ABF0008481ECD0D3F83441B3F83851D3F8300124
:10AC00006560256845F001052560A0F84810848935
:10AC1000022A44F480748481D9D0D3F86442B3F812
:10AC20006852D3F860026560256845F0010525602B
:10AC3000A0F848108489032A44F480748481C6D023
:10AC4000D3F89443B3F89853D3F89003656025681C
:10AC500045F001052560A0F848108489042A44F4D1
:10AC600080748481B3D0D3F8C444B3F8C854D3F803
:10AC7000C0046560256845F001052560A0F848100E
:10AC80008489052A44F480748481A0D0D3F8F445E3
:10AC9000B3F8F855D3F8F0056560256845F001056F
:10ACA0002560A0F848108489062A44F480748481C1
:10ACB0008DD0D3F82447B3F82857D3F82007656020
:10ACC000256845F001052560A0F848108489072A09
:10ACD00044F4807484813FF47AAFD3F85428B3F8F5
:10ACE0005808D3F850385060106840F001001060E8
:10ACF000A3F848109A8942F480729A8170BD054683
:10AD0000FFF742FE217AA9B16DB1194A00231689D5
:10AD10000133002E18BF0021AB4202F16002F6D1D0
:10AD200000293FF4E7AE00F51C50103000232060EE
:10AD30002372DFE62368C31A002BFFF648AF637A5D
:10AD40003BB1013BDBB263722BB100F57A7020603E
:10AD5000D0E62360CEE6636803442360CAE600BF02
:10AD6000A8340020E8BA0020B8120010ECBA002085
:10AD7000E8B700202DE9F04FDFF834C1494CDFF887
:10AD800034E1DFF83481484E824648481AF1FF3AF0
:10AD9000C0F08680DCF80430C3F30803002B5ED1DA
:10ADA000EFF31183002B5AD10568A26803689D4216
:10ADB000FAD133689A42F7D8DEF800704FF47A710E
:10ADC00001FB07F39B1AB3FBF7F301FB0535DCF836
:10ADD0000430C3F308034FF010094FF47A77F3B946
:10ADE000EFF31183DBB90368A16802689342FAD1DB
:10ADF00032689142F7D8DEF8002007FB02FBABEB8C
:10AE00000101B1FBF2F107FB03135B1BB3F57A7F82
:10AE1000BCD2DCF80430C3F30803002BE0D0EFF31E
:10AE2000118189F31288D4F808B02368DB0304D5B4
:10AE30000123C8F80030D4F808B00368D8F800201F
:10AE4000C9B281F31188DEF80010134407FB01F248
:10AE5000A2EB0B02B2FBF1F207FB0323D5E7EFF302
:10AE60001183102282F31288A1682268D20303D5CD
:10AE70000122C8F80020A168D0F80090D8F800504E
:10AE8000DBB283F31188DEF800704FF47A724D4420
:10AE900002FB07F35B1AB3FBF7F302FB053596E7FA
:10AEA000BDE8F08F10E000E06CA2002064A200205A
:10AEB00000ED00E068A2002060A2002030B4EFF3B3
:10AEC0001183102282F31288084809490268094D4B
:10AED000094C013202608A682A6000222260DBB2DB
:10AEE0000A6883F3118830BC704700BF64A2002059
:10AEF00010E000E06CA2002060A2002038B5254BD5
:10AF00005C69A26BE36D62B1E26BC2B1998A1A8887
:10AF1000C90792B204D5120744BF4FF6F7721A80E0
:10AF200038BD99891A88890692B2EDD59206EBD57B
:10AF3000E26AFAB19888216B9047E36DE4E799895A
:10AF40001A880D0692B2E1D51006DFD5D4E90912B0
:10AF50008A420AD0A1692569885C98800132B2FBD7
:10AF6000F5F105FB1122A262D0E7DA6822F0800237
:10AF7000DA60CBE79B88E2696169DBB28B54E269F6
:10AF8000E068E36D0132B2FBF0F100FB1122E261F7
:10AF9000BAE700BF040F001038B5254B9C68A26BC0
:10AFA000E36D62B1E26BC2B1998A1A88C90792B2A5
:10AFB00004D5120744BF4FF6F7721A8038BD99893D
:10AFC0001A88890692B2EDD59206EBD5E26AFAB1FB
:10AFD0009888216B9047E36DE4E799891A880D06FC
:10AFE00092B2E1D51006DFD5D4E909128A420AD01F
:10AFF000A1692569885C98800132B2FBF5F105FBF7
:10B000001122A262D0E7DA6822F08002DA60CBE790
:10B010009B88E2696169DBB28B54E269E068E36DA9
:10B020000132B2FBF0F100FB1122E261BAE700BF8E
:10B03000040F001038B5254B5C68A26BE36D62B15C
:10B04000E26BC2B1998A1A88C90792B204D5120775
:10B0500044BF4FF6F7721A8038BD99891A8889065D
:10B0600092B2EDD59206EBD5E26AFAB19888216BDF
:10B070009047E36DE4E799891A880D0692B2E1D50D
:10B080001006DFD5D4E909128A420AD0A1692569E0
:10B09000885C98800132B2FBF5F105FB1122A262B7
:10B0A000D0E7DA6822F08002DA60CBE79B88E269B9
:10B0B0006169DBB28B54E269E068E36D0132B2FB97
:10B0C000F0F100FB1122E261BAE700BF040F0010AB
:10B0D00038B5254B1C68A26BE36D62B1E26BC2B15F
:10B0E000998A1A88C90792B204D5120744BF4FF64D
:10B0F000F7721A8038BD99891A88890692B2EDD5FF
:10B100009206EBD5E26AFAB19888216B9047E36D1D
:10B11000E4E799891A880D0692B2E1D51006DFD5C9
:10B12000D4E909128A420AD0A1692569885C98800D
:10B130000132B2FBF5F105FB1122A262D0E7DA6819
:10B1400022F08002DA60CBE79B88E2696169DBB2BA
:10B150008B54E269E068E36D0132B2FBF0F100FB71
:10B160001122E261BAE700BF040F0010002A12DDCD
