:020000040800F2
:10000000F0FF00107DC40408D93B0308C167010854
:1000100019C5040819C5040819C504080000000022
:10002000000000000000000000000000E53B0308A5
:10003000E13B030800000000DD3B030861370108D5
:1000400019C5040819C5040819C5040819C5040808
:1000500019C5040819C50408C1760108ED7701081F
:10006000B1770108757701083977010839D500089B
:1000700029D5000819D5000809D50008F5D40008CD
:10008000E1D40008CDD4000819C5040819C5040836
:1000900019C5040819C5040819C50408FD76010826
:1000A0005D180108E91D01088D1701086D1F010881
:1000B000291D0108691C01089D1B010849FE000853
:1000C00051FE000839FE000841FE000819C5040869
:1000D00019C50408D1370108C5370108B937010827
:1000E0008576010819C50408B58A030819C50408EE
:1000F0002D19010819C50408FD190108B9D4000813
:1001000019C5040819C50408CD1A010819C5040841
:10011000AD37010819C50408C5EA0208B1EA0208AA
:10012000A5D4000891D400087DD4000869D4000843
:1001300055D4000819C5040819C5040819C50408D0
:1001400019C5040819C5040819C50408DD540308B5
:1001500041D400082DD4000819D40008A1370108A3
:1001600029FE000831FE000819C5040819C5040855
:1001700019C5040819C5040819C5040819C50408D7
:0801800019C5040819C50408A3
:0801880024C004000100000086
:10019000100201003C2C0020382C00200000000040
:1001A000080700081A023C006C4C00205C5000203C
:1001B00000000000D98F0008270004009C50002098
:1001C00098500020000000000A070008F8210600EF
:1001D000F6540020545D0020000000000E070008C7
:1001E00003123300F05800202359002000000000C3
:1001F0001407000825009600A45700203A58002054
:100200000000000000000000150070004C560020A7
:10021000BC56002000000000000000002A00600022
:100220008C550020EC55002000000000558B030881
:100230002C001000D0580020E058002000000000E2
:100240003D9C01082B0024007A59002056590020BB
:10025000000000000D9C0108291078000E550020B8
:100260002C570020000000000000000023001000B8
:10027000945400205C5D002000000000998001087B
:1002800028101000985B00206C5D0020000000002A
:100290008180010814000300865500208955002044
:1002A00000000000480700080A4026009A6F00205E
:1002B00044770020000000004C0700080E502C017D
:1002C0006E6E00206C77002000000000798D03081E
:1002D00009020100787600209878002000000000D4
:1002E000720700080C1014010A7000209C7800208E
:1002F0000000000015A3020801020500F26D0020B5
:10030000B079002000000000F1250208000205007D
:10031000E8730020B8790020000000000000000011
:100320001B020800C4730020C079002000000000F8
:1003300041840008012008005C750020C879002075
:10034000000000007407000819000500E87500208F
:10035000D0790020000000007C07000837001E0054
:10036000C0750020D8790020000000008207000836
:100370001E000500A4710020F87900200000000094
:10038000A00700081B00F400885D0020007A002010
:1003900000000000D13602080E020200F4740020B2
:1003A000F47A002000000000A60700082F001100CA
:1003B00025770020F87A002000000000A807000838
:1003C0001802020004810020E081002000000000EB
:1003D0000000000017020B00F9800020E4810020DB
:1003E000000000004D84000807020200AC810020DC
:1003F000F081002000000000BA07000802000C0095
:1004000084810020F4810020000000000000000032
:1004100006020C007881002000820020000000000D
:100420005992000808120900F08000200C82002078
:100430000000000091840008F7010600EA80002017
:100440001882002000000000BC0700080A020A0011
:10045000648000202082002000000000C207000805
:10046000030001007C7B00202C82002000000000A3
:1004700000000000101003003C7B002030820020B0
:1004800000000000CC07000805100600F8970020C7
:10049000E49C002000000000D007000826000E00A9
:1004A000FC9C0020EC9C002000000000012F0308B1
:1004B0001F201C004C8C0020309D002000000000FC
:1004C000D607000805020400909700204C9D0020EC
:1004D00000000000F207000803010A00B4940020A5
:1004E000509D002000000000F607000813020300E2
:1004F000608A00205C9D00200000000000080008C9
:100500001A000E00A8B00020F0B200200000000089
:100510000408000816000800B4E30020BCE3002033
:100520000000000012080008040080000C1E0120DA
:10053000C41E0120000000000000000013000400A1
:10054000B4140120441F0120000000001C08000812
:10055000F6210C00B8140120481F01200000000003
:1005600020080008F5317000F0130120541F01200D
:1005700000000000913002080B201000E013012061
:10058000C41F0120000000002C0800080101040025
:10059000DC130120D41F0120000000000000000037
:1005A00000010400D8130120D81F01200000000022
:1005B0003C08000802010300D4130120DC1F0120C5
:1005C000000000009DA30208FD0124008C130120FF
:1005D000E01F012000000000C102010818202C00CB
:1005E0005C1301200420012000000000619300083A
:1005F00006101800B4060120302001200000000081
:10060000018E0308FB010100B006012048200120F3
:1006100000000000C1930008FC0109007C050120D6
:100620004C20012000000000D1930008340010008D
:10063000A80401205820012000000000D58D0308E7
:100640001102080080040120682001200000000041
:1006500040080008121204007804012070200120D4
:10066000000000004808000812200D006804012066
:1006700074200120000000004C0800080D00440018
:1006800000F8002084200120000000008D230408D1
:10069000F9010400C0F70020C8200120000000007C
:1006A00039030108FA010200A8F10020CC20012042
:1006B00000000000D18500080202030008E40020C9
:1006C000D020012000000000000000000C02030008
:1006D000F4E30020D420012000000000C9840008B9
:1006E00011000C0034E60020D8200120000000009A
:1006F00035210408FE0109001CE60020E420012049
:0807000000000000D98400088C
:100708000000200300000400F401190000000000AC
:1007180000000000000000000000000000000000D1
:1007280000000000000000000000000000000000C1
:1007380000000000000000000000000000000100B0
:1007480003000000003001000000000000005A0013
:1007580000000000000000000000020200019E07E7
:100768007D0046329001200000002800E803640064
:10077800040A000100002801000020003200C8001F
:10078800D0079600140032002800B0044006000587
:10079800500014000F0008010000010000000000D4
:1007A8000000000000000000000000000000000041
:1007B8000000023C24010000000000004A01B400CF
:1007C800D6012900000500002000010100000000FA
:1007D8000000000100000005000001020300000005
:1007E80000000000000000000000000000000401FC
:1007F80001006C1600000000000000007E05EA05FC
:10080800B4053200E803D0070000651B0D0019018C
:100818002828000008000430000000000100000043
:10082800020200002B21231E6401010000000100C8
:100838000A012900B000BCB7000000000101010155
:10084800FFFFFFFF000000010000054F4246570070
:01085800009F
:100859001A03000000000000000000000000000072
:10086900000000000000000000000000040309046B
:100879001201000200000040830420570002010217
:100889000301000095B300082D850008298500089B
:1008990025850008ED930008218500081D850008BD
:1008A90030EF0408793D03080D270308B948030808
:1008B9000000000000000000BD450308D9440308FA
:1008C90000000000000000000000000045220308AD
:1008D900C5850008B98500081D99000839990008DF
:1008E9007185000801990008E598000801000000D9
:1008F9005001000007000000020000000000000095
:10090900000000000102030406070809685E0C00E4
:10091900010102FFFF000000D601010000010101F1
:1009290000FFFF00FFFFFFFF0101000000000100C1
:10093900E001010101000000C529020800000000D2
:100949005C02002034870508000000000000000058
:100959000000000000000000AC7C05080000000059
:10096900000000001A03002004000000E0860508CA
:100979000D000000C1550208E01C00200000000025
:100989005C8005080D000000E9550208D41C002010
:1009990000000000C48105080800000000000000F4
:1009A900C81C002004000000C88005080D000000D4
:1009B900792A0208BC1C0020000000007881050883
:1009C9000300000001580208B01C002000000000CC
:1009D900448705080300000001580208A41C0020F0
:1009E90000000000F47C0508010000000000000080
:1009F9000000000000000000000000000E000000E0
:100A09000000000000000000000000003487050815
:100A190000000000000000000000000000000000CD
:100A2900AC7C050800000000000000001A0300204B
:100A3900040000008C8605080300000081310208CB
:100A4900981C002008000000C88005080D0000005F
:100A5900792A0208BC1C00200000000078810508E2
:100A69000300000001580208B01C0020000000002B
:100A7900448705080300000001580208A41C00204F
:100A890000000000F47C05080100000000000000DF
:100A99000000000000000000000000000E0000003F
:100AA9000000000000000000000000004C8705085D
:100AB900000000000000000000000000000000002D
:100AC900AC7C050800000000000000001A030020AB
:100AD900040000009486050803000000015802087C
:100AE900EC1C002000000000F47C05080100000057
:100AF90000000000000000000000000000000000ED
:100B09000E000000000000000000000000000000CE
:100B190020700020702D7200FFFFFFFF0100000010
:100B29000000803F080000000000000000000000F5
:100B390054180020FA000000010000000100000024
:100B49000000803F000000000000000000000000DD
:100B5900000000000000000000000000000000008C
:100B69000000000000000000FFFF2D202D2D202D8A
:100B79002D2D2D202D2D2D0000000000000000003E
:100B8900000000000000000000000000FFFFFFFF60
:100B9900C87C0508D07C0508EC7C0508000000002D
:100BA9000000000000000000000000009E7A050817
:100BB9000400000089530208000000000000000042
:100BC900F47C05080100000000000000000000009E
:100BD90000000000000000000E00000000000000FE
:100BE9000000000000000000AC1E01200100C40943
:100BF90000000000AA1E01200100C4090000000035
:100C0900A81E01200100C40900000000A61E012041
:100C19000100C40900000000A21E01200100C4094E
:100C290000000000A41E01200100C409000000000A
:100C3900A01E01200100C409000000009E1E012021
:100C49000100C40900000000046E00200100C80072
:100C590001000000026E00203200307532000000F1
:100C6900006E0020055A0500FD6D002000FF0100FF
:100C7900FF6D00200100000040030020FB6D0020F3
:100C890002000000BC2A0508FC6D002000FF0100DD
:100C9900FE6D00200100000040030020FA6D0020D5
:100CA90002000000BC2A0508F06D002080C1803ECA
:100CB90005000000EE6D002080C1803E05000000A7
:100CC900EC6D002080C1803E05000000EA6D002027
:100CD90080C1803E05000000E96D002000FF010091
:100CE900E86D00200A320100E76D002004000000D1
:100CF9003C220508E66D002002000000502205088C
:100D09000000000000000000480300203C9700207C
:100D19009CFF2C0100000000E20000200A000000F6
:100D29005C220508DC6D0020E0150C1700000000AE
:100D3900E400002008000000902A0508E3000020D4
:100D4900050000008C230508DE6D0020020000006C
:100D5900742205083C7100200100FF7F010000009A
:100D69003B7100200200000080220508CE6F0020A0
:100D79000300400001000000CC6F00200000803E0D
:100D890001000000CA6F00200000F401010000000A
:100D9900C86F00200000F40101000000C66F0020A8
:100DA9000000F40101000000C46F00200000F401FC
:100DB90001000000C26F00200000803E0100000019
:100DC900C06F00200000803E01000000EA6F002093
:100DD900E803D0070A000000E86F00200064010062
:100DE9000A000000DD6F002000640100DC6F0020B4
:100DF90000640100E46F0020006401000A000000A3
:100E0900E36F0020006401000A000000E26F002087
:100E1900006401000A000000E76F0020006401007F
:100E29000A000000E66F0020006401000A000000CB
:100E3900E56F0020006401000A000000E16F002056
:100E490000FF01000A000000E06F002000FF010020
:100E59000A000000DF6F002000FF01000A00000007
:100E69006A6E00200000F40101000000686E002095
:100E79000000F40101000000666E00200000F4018A
:100E890001000000646E00200000F4010100000070
:100E9900626E00200000F40101000000DA6F0020FA
:100EA90000640100D86F00201400E803010000006D
:100EB900D66F0020E80330750A000000D46F0020C7
:100EC90000C80100D36F002000C80100D26F0020C4
:100ED90000C80100D16F0020006401000A00000071
:100EE9002171002001C8010020710020010A0100C0
:100EF900307100200000D007010000002A71002095
:100F090000C801002971002000C8010028710020D3
:100F190000C801002E7100200000D0070100000068
:100F29002771002000C801002671002000C80100B7
:100F39002571002000C801002C7100200000D00795
:100F4900010000002471002000C801002371002065
:100F590000C801002271002000C801001F71002093
:100F690001000000902205081C7D05080000000012
:100F7900000000000000000000000000744B05089C
:100F89000900000000000000EC030020040000003C
:100F99007C4B05080900000000000000E003002068
:100FA9000400000084840508090000000000000016
:100FB900D403002004000000987B05080900000004
:100FC90000000000C8030020040000002C7D050873
:100FD9000900000000000000BC030020040000001C
:100FE900347D05080900000000000000B00300205E
:100FF900040000003C7D0508090000000000000015
:10100900A403002004000000447D05080900000035
:10101900000000009803002004000000F47C05088B
:1010290001000000000000000000000000000000B6
:10103900000000000E000000000000000000000099
:1010490000000000487F05080000000000000000C3
:101059000000000000000000986D0508070000006E
:10106900000000001004002000000000587F05085F
:101079000800000000000000040400200000000037
:10108900647F05080800000000000000F803002044
:1010990000000000F47C05080100000000000000C9
:1010A9000000000000000000000000000E00000029
:1010B9000000000000000000000000006C7F05082F
:1010C9000000000000000000000000000000000017
:1010D9007C7F05080D000000000000004C04002082
:1010E90000000000847F05080D00000000000000DA
:1010F90040040020000000008C7F05080700000064
:10110900000000003804002000000000947F05085A
:101119000D000000000000002C0400200000000069
:101129009C7F05080D00000000000000200400203D
:1011390000000000A47F050807000000000000006F
:101149001804002000000000F47C050801000000DC
:101159000000000000000000000000000000000086
:101169000E00000000000000000000000000000068
:10117900AC7F05080000000000000000000000002E
:1011890000000000986D05080C0000000000000038
:10119900066E002000000000C07F05080C0000005A
:1011A90000000000086E002000000000D07F050844
:1011B9000C000000000000003E6E0020000000004E
:1011C900E07F05080C00000000000000326E0020DE
:1011D90000000000F47F05080C000000000000007A
:1011E9000A6E002000000000008005080C000000C5
:1011F900000000000C6E00200000000008800508B7
:101209000C000000000000000E6E0020000000002D
:101219001C8005080C00000000000000106E002072
:1012290000000000248005080C00000000000000F8
:10123900126E0020000000002C8005080C00000040
:1012490000000000506E00200000000044800508E6
:101259000C00000000000000146E002000000000D7
:10126900508005080C00000000000000166E0020E8
:1012790000000000844B05080C000000000000007D
:10128900186E002000000000588005080C000000BE
:10129900000000001A6E00200000000064800508AC
:1012A9000C000000000000001C6E0020000000007F
:1012B900708005080C000000000000001E6E002070
:1012C900000000007C8005080C0000000000000000
:1012D900206E002000000000888005080C00000036
:1012E90000000000226E0020000000009480050824
:1012F9000C00000000000000366E00200000000015
:101309009C8005080C00000000000000346E0020DD
:1013190000000000A48005080C0000000000000087
:10132900426E002000000000B08005080C0000009B
:1013390000000000446E002000000000BC80050889
:101349000C000000000000004A6E002000000000B0
:10135900E87D05080C00000000000000246E002054
:1013690000000000C88005080C0000000000000013
:101379002C6E002000000000D08005080C00000041
:1013890000000000266E002000000000DC80050837
:101399000C00000000000000286E00200000000082
:1013A900E88005080C000000000000002A6E0020FB
:1013B90000000000F08005080C000000000000009B
:1013C9002E6E002000000000B86D05080C0000001A
:1013D90000000000386E002000000000FC800508B5
:1013E9000C00000000000000306E0020000000002A
:1013F900377C05080C00000000000000406E00204A
:1014090000000000088105080C0000000000000031
:101419003A6E002000000000108105080C00000051
:10142900000000003C6E0020000000001881050843
:101439000C00000000000000466E002000000000C3
:10144900208105080C00000000000000486E002003
:1014590000000000288105080C00000000000000C1
:101469005A6E002000000000F47C0508010000000D
:101479000000000000000000000000000000000063
:101489000E00000000000000000000000000000045
:101499003081050800000000000000000000000085
:1014A900000000003C8105080D000000000000005C
:1014B900A404002000000000448105080D0000007C
:1014C9000000000098040020000000004C8105087D
:1014D9000700000000000000900400200000000048
:1014E900588105080700000000000000880400205A
:1014F90000000000648105080900000000000000E8
:101509007C0400200000000070810508090000002B
:101519000000000070040020000000007C81050824
:101529000900000000000000640400200000000021
:101539008C81050809000000000000005804002003
:1015490000000000F47C0508010000000000000014
:101559000000000000000000000000000E00000074
:10156900000000000000000000000000A081050844
:101579000000000000000000000000000000000062
:10158900B08105080500000000000000616E002020
:1015990000000000F47C05080100000000000000C4
:1015A9000000000000000000000000000E00000024
:1015B900000000000000000000000000B8810508DC
:1015C9000000000000000000000000000000000012
:1015D900AC7C05080000000000000000CC1E0020C3
:1015E90004000000947B05080D000000ED5302087B
:1015F900F804002000000000E08605080D00000046
:101609007D290208EC040020000000005C80050828
:101619000D00000061290208E0040020000000001C
:10162900C48105080800000000000000D40400205F
:1016390004000000C88005080D000000A928020860
:10164900C804002000000000CC8105080900000042
:1016590000000000BC040020040000007881050897
:101669000300000001580208B00400200000000037
:10167900F47C0508010000000000000000000000E3
:1016890000000000000000000E0000000000000043
:101699000000000000000000D481050800000000DF
:1016A900000000000000000000000000E4810508BF
:1016B9000D000000000000001005002000000000DF
:1016C900EC8105080A00000000000000BC7400203D
:1016D90000000000F88105080A0000000000000071
:1016E900C474002000000000008205080A00000000
:1016F90000000000CC7400200000000008820508EA
:10170900080000000000000004050020000000009F
:101719001082050804000000355902080000000085
:1017290000000000F47C0508010000000000000032
:101739000000000000000000000000000E00000092
:101749000000000000000000000000001C820508E5
:101759000000000000000000000000000000000080
:101769003082050808000000000000007005002014
:10177900000000003C82050808000000000000008D
:1017890064050020000000004882050808000000E8
:1017990000000000580500200000000054820508E0
:1017A90008000000000000004C05002000000000B7
:1017B90060820508080000000000000040050020C4
:1017C900000000006C82050808000000000000000D
:1017D9003405002000000000788205080800000098
:1017E9000000000028050020000000008482050890
:1017F90008000000000000001C0500200000000097
:10180900F47C050801000000000000000000000051
:1018190000000000000000000E00000000000000B1
:101829000000000000000000908205080000000090
:1018390000000000C3020020000000009C8205088F
:101849000B0000000000000004060020000000005A
:10185900A88205080B00000000000000F805002020
:1018690000000000B48205080B0000000000000021
:10187900EC05002000000000C08205080B000000F4
:1018890000000000E005002000000000CC820508EF
:101899000B00000000000000D4050020000000003B
:1018A900D88205080B00000000000000C8050020D0
:1018B90000000000E48205080B00000000000000A1
:1018C900BC05002000000000F08205080B000000A4
:1018D90000000000B005002000000000FC8205089F
:1018E9000B00000000000000A4050020000000001B
:1018F9000883050807000000000000009C0500207F
:101909000000000010830508070000000000000027
:1019190094050020000000001C8305080B0000004E
:101929000000000088050020000000002883050849
:1019390008000000000000007C05002000000000F5
:10194900F47C050801000000000000000000000010
:1019590000000000000000000E0000000000000070
:1019690000000000000000003483050800000000AA
:101979000000000000000000000000004883050886
:1019890008000000000000004006002000000000E0
:1019990054830508080000000000000034060020F8
:1019A9000000000060830508080000000000000036
:1019B90028060020000000006C83050808000000CC
:1019C900000000001C0600200000000078830508C4
:1019D90008000000000000001006002000000000C0
:1019E900F47C050801000000000000000000000070
:1019F90000000000000000000E00000000000000D0
:101A090000000000000000008083050800000000BD
:101A190000000000C00200200000000090830508BB
:101A29000B000000000000008406002000000000F8
:101A39009C83050807000000000000007C060020C8
:101A490000000000A883050807000000000000004E
:101A59007406002000000000B48305080700000098
:101A6900000000006C06002000000000C08305088B
:101A790008000000000000006006002000000000CF
:101A8900C883050808000000000000005406002073
:101A990000000000D08305080700000000000000D6
:101AA9004C06002000000000F47C0508010000003D
:101AB900000000000000000000000000000000001D
:101AC9000E000000000000000000000000000000FF
:101AD900DC8305080000000000000000C0020020AF
:101AE90000000000E88305080D0000000000000068
:101AF9000C07002000000000F4830508070000001F
:101B0900000000000407002000000000FC83050815
:101B19000700000000000000FC0600200000000093
:101B2900048405080700000000000000F4060020F6
:101B3900000000000C8405080800000000000000F7
:101B4900E8060020000000001484050807000000D2
:101B590000000000E0060020000000001C840508C9
:101B69000700000000000000D80600200000000067
:101B7900248405080700000000000000D0060020AA
:101B8900000000002C840508080000000000000087
:101B9900C406002000000000348405080700000086
:101BA90000000000BC060020000000003C8405087D
:101BB9000700000000000000B4060020000000003B
:101BC900448405080700000000000000AC0600205E
:101BD900000000004C840508080000000000000017
:101BE900A00600200000000054840508070000003A
:101BF9000000000098060020000000005C84050831
:101C0900070000000000000090060020000000000E
:101C1900F47C05080100000000000000000000003D
:101C290000000000688405080200000089590208C4
:101C39000100000000000000000000000E0000008C
:101C4900000000000000000000000000000000008B
:101C5900FD2C0208180700205F6E00202C000000F0
:101C6900982205085E6E002000C801005C6E002005
:101C7900E803D007010000004F4D4E494255534635
:101C890034465700F96D002000030100F86D00206B
:101C990000030100452C02081D2C0208F40700204E
:101CA900D92B02088D2B02086C080020852C02080C
:101CB9006D2C020820090020F12A02089D2A020839
:101CC900400C0020132D0208115602081C0D00209B
:101CD900E9280208000000006C0D002011590208D3
:101CE900DD2F0208480E0020F52D0208A92D020853
:101CF900FC0E0020952E0208E12E0208D80F0020C4
:101D0900DB6F0020010601006D2D0208392D020844
:101D190018110020412E020841560208B81100206E
:101D2900112F02089156020880120020D06F00205E
:101D39000103010074840508000000000000000090
:101D49000000000000000000808405080800000071
:101D5900000000001C140020000000008884050811
:101D6900070000000000000014140020000000001B
:101D7900988405080D0000000000000008140020E8
:101D890000000000A48405080300000001580208AF
:101D9900FC13002000000000F47C0508010000008D
:101DA900000000000000000000000000000000002A
:101DB9000E0000000000000000000000000000000C
:101DC900AC840508000000000000000000000000CD
:101DD90000000000BC8405080A00000000000000A3
:101DE900C484050800000000CC8405080A0000002E
:101DF900000000005141050800000000D4840508D6
:101E09000A000000000000003271002000000000FC
:101E1900DC8405080A0000000000000028140020E6
:101E290000000000F47C050801000000000000002B
:101E39000000000000000000000000000E0000008B
:101E4900000000000000000000000000E484050814
:101E59000000000000000000000000000000000079
:101E6900F084050803000000015802085C140020F2
:101E790000000000FC840508030000000158020866
:101E8900501400200000000004850508030000002C
:101E99000158020844140020000000000C850508C0
:101EA9000500000000000000F76D002000000000A0
:101EB9001485050807000000000000003C140020FC
:101EC9000000000020850508070000000000000050
:101ED9003414002000000000F47C05080100000013
:101EE90000000000000000000000000000000000E9
:101EF9000E000000000000000000000000000000CB
:101F09002C8505080000000000000000000000000A
:101F19000000000040850508030000000158020880
:101F29008C140020000000004C8505080300000007
:101F390001580208E8000020000000005485050847
:101F4900030000000158020880140020000000006E
:101F59005C8505080300000001580208741400207C
:101F690000000000C88005080300000001580208AD
:101F79006814002000000000F47C0508010000003E
:101F89000000000000000000000000000000000048
:101F99000E0000000000000000000000000000002A
:101FA900688505080000000000000000000000002E
:101FB900000000007885050807000000095702089D
:101FC900DC14002000000000EC800508030000007C
:101FD90001580208D014002000000000848505087B
:101FE9000300000001580208C4140020000000008A
:101FF9008C8505080300000001580208B814002068
:10200900000000009485050807000000ED5602084D
:10201900B0140020000000007889050803000000C2
:1020290001580208A414002000000000A08505083A
:102039000300000001580208981400200000000065
:10204900F47C050801000000000000000000000009
:1020590000000000000000000E0000000000000069
:102069000000000000000000CD2C02089D2C020891
:10207900E4140020A92F02080000000070150020B8
:10208900692B0208452B0208FC15002000000000FE
:1020990000000000B0160020812F02082557020811
:1020A90050170020AC850508000000000000000062
:1020B90000000000000000000C51050803000000AA
:1020C900015802084818002000000000B8850508DA
:1020D90003000000015802083C180020000000001D
:1020E900B06E0508030000000158020830180020EE
:1020F90000000000C485050803000000015802081B
:102109002418002000000000D08505080300000005
:10211900015802081818002000000000D885050899
:1021290002000000895902080000000000000000B8
:1021390068840508020000008959020801000000AE
:1021490000000000E0850508020000008959020826
:102159000200000000000000000000000E00000066
:10216900000000000000000000000000E26D0020F7
:1021790088136F1701000000E46D002088136F17A2
:1021890000000000EC8505080000000000000000C8
:102199000000000000000000FC85050808000000A0
:1021A9000000000028190020040000000886050826
:1021B90008000000000000001C19002000000000B9
:1021C9007881050804000000155402080000000089
:1021D90000000000F47C0508010000000000000078
:1021E9000000000000000000000000000E000000D8
:1021F900000000000000000000000000E06D002069
:1022090088136F17010000007C97002088136F174F
:10221900000000002D2A02080000000034190020E7
:1022290061740020010000004C2305087E970020FE
:1022390001000000582305087497002002000000DF
:10224900602305089E8C00200000000000000000AB
:102259009C8C002000000000000000009A8C0020E7
:102269000000000000000000988C00200000000021
:1022790000000000968C0020000000000000000013
:10228900948C00200000000000000000041F0020C2
:102299000000000000000000DF6D002002000000C7
:1022A9006C230508448605080000000000000000B2
:1022B9000000000000000000FC850508080000007F
:1022C90000000000B8190020040000000886050875
:1022D9000800000000000000AC1900200000000008
:1022E9007881050804000000FD29020800000000AB
:1022F90000000000F47C0508010000000000000057
:102309000000000000000000000000000E000000B6
:1023190000000000000000000000000054860508CD
:1023290000000000000000000000000000000000A4
:10233900648605080D00000065550208E8190020AB
:1023490004000000708605080D000000552A0208E7
:10235900DC190020040000007C8605080D0000003F
:1023690029550208D01900200000000088860508B8
:1023790003000000A1310208C41900200800000070
:10238900948605080300000001580208EC1C00208F
:1023990000000000F47C05080100000000000000B6
:1023A9000000000000000000000000000E00000016
:1023B900000000000000000000000000EC7C05089F
:1023C9000000000000000000000000000000000004
:1023D9009E7A0508040000002D5402080000000040
:1023E90000000000F47C0508010000000000000066
:1023F9000000000000000000000000000E000000C6
:10240900000000000000000000000000E886050848
:1024190000000000000000000000000000000000B3
:10242900E84F05080D00000000000000481A0020D0
:1024390004000000F88605080800000000000000FC
:102449003C1A002004000000048705080800000069
:1024590000000000301A0020040000000C87050865
:102469000800000000000000241A002004000000F9
:10247900148705080800000000000000181A002051
:10248900040000001C870508080000000000000087
:102499000C1A002004000000248705080800000029
:1024A90000000000001A0020040000002C87050825
:1024B9000800000000000000F419002004000000DA
:1024C900F47C050801000000000000000000000085
:1024D90000000000000000000E00000000000000E5
:1024E9000000000000000000152A0208000000009A
:1024F900541A00200000000000000000CC1A00203F
:1025090000000000000000006C1B00207A970020EA
:10251900040000007823050878970020E0150C17BF
:10252900000000007797002008000000902A0508A5
:1025390076970020050000008C23050800000000A4
:1025490000000000BC1B0020FF0000007C290508DA
:1025590005080400000000008C230508902A0508DE
:10256900782305080000000000000000A8290508DC
:1025790005080A00000000008C230508902A0508B8
:102589005C220508000000000000000004030904A3
:1025990012010002EF0201408304563200020102D7
:1025A90003010000120100020202004083044057A7
:1025B900000201020301000009022000010104C018
:1025C900320904000002080650050705810240008F
:1025D900000705010240000009026400030100C070
:1025E9003209040000010300000009211101000162
:1025F9002226000705830308000A080B01020202CC
:102609000100090401000102020100052400100172
:10261900052401000204240202052406010207051B
:1026290082030800FF09040200020A0000000705EE
:102639000102400000070581024000000902430031
:10264900020100C032090400000102020100052450
:1026590000100105240100010424020205240600DA
:1026690001070582030800FF09040100020A0000AE
:102679000007050102400000070581024000000033
:10268900FF00000000FFFF0000000000AA5505013F
:102699000000010005010905A101A100050109309A
:1026A90009310932093309350934094009381581D5
:1026B900257F750895088102C0C000000902220023
:1026C900010100E0320904000001030102000921AF
:1026D900110100012226000705830308000A0000F2
:1026E90000000000010203040102030406070809AF
:1026F9001D48030821470308794B030809230308E8
:10270900812803081923030835230308E122030854
:10271900D122030800000000000000002D202D2D0B
:10272900202D2D2D2D202D2D2D2D000000000000F8
:102739000000000000000000000000AA550B010085
:1027490000AA5507010000AA55090200000000006F
:1027590001000000C012AA5503009F00FF1FFF1FC0
:10276900010000000C9D002000000000241F002033
:1027790004000000000200051002700B1F852B3FAA
:102789000000803F00000000000000000000000081
:102799000000803F00000000000000000000000071
:1027A9000000803F00000000000000000000000061
:1027B9000000803F00000000D4E300200800000072
:1027C90000000000C4E30020080000006528030899
:1027D90051270308554B030800000000CD220308C8
:1027E9000D470308A12603088546030800000000D9
:1027F90000000000892203081D2203081122030892
:10280900893C0308A53C03086D3C0308513C0308B7
:10281900353C03081D2803082D270308954A03089A
:1028290000000000A1220308894603087526030851
:10283900E545030800000000000000009522030898
:10284900080000000D2203080922030805220308D5
:10285900F9210308F521030801220308FD210308D2
:102869000000400003000004010000000060024075
:10287900106002400000000000000000000B000092
:10288900000000000000000000000000006002409D
:10289900286002400100000000000000060C000052
:1028A900000000000000000000000000006002407D
:1028B900406002400200000000000000100D00000E
:1028C900000000000000000000000000006002405D
:1028D900586002400300000000000000160E0000CE
:1028E900000000000000000000000000006002403D
:1028F900706002400400000000000000200F00008A
:10290900000000000000000000000000006002401C
:102919008860024005000000000000002610000049
:1029290000000000000000000000000000600240FC
:10293900A060024006000000000000003011000005
:1029490000000000000000000000000000600240DC
:10295900B86002400700000000000000362F0000A8
:1029690000000000000000000000000000640240B8
:102979001064024000000000000000000038000060
:102989000000000000000000000000000064024098
:102999002864024001000000000000000639000020
:1029A9000000000000000000000000000064024078
:1029B900406402400200000000000000103A0000DC
:1029C9000000000000000000000000000064024058
:1029D900586402400300000000000000163B00009C
:1029E9000000000000000000000000000064024038
:1029F900706402400400000000000000203C000058
:102A09000000000000000000000000000064024017
:102A19008864024005000000000000002644000010
:102A290000000000000000000000000000640240F7
:102A3900A0640240060000000000000030450000CC
:102A490000000000000000000000000000640240D7
:102A5900B86402400700000000000000364600008C
:102A690000000000000000000000000020220020FB
:102A7900000000000000000000000000000000004D
:102A8900000000000000000000000000000000003D
:102A9900000000000000000000000000000000002D
:102AA900000000000000000000000000000000001D
:102AB900000000000000000000000000000000000D
:102AC90000000000000000000000000000000000FD
:042AD90001000000F8
:1080000003685A1C02601970704700BF2DE9F047E1
:10801000089C2578002B804689460CBF4FF0200A2B
:108020004FF0300A661C25B3002A26DD334601E0F6
:10803000024698B113F8011B501E0029F8D1971E73
:1080400060B13D46013D51464046C8476B1C002B80
:10805000F8DC257827EAE770013045B1041B294692
:108060004046C847301916F8015B002DF7D1BDE82E
:10807000F087002A03DC2846F9E70020EEE7571EC8
:10808000DFE700BF2DE9F04714461D4606464FF4D2
:108090007A7200232046294644F024F84D4BDFF83D
:1080A00048814D4A4D4F034488FB03101844D917AB
:1080B00082FB032CC1EB601088FB002887FB0327A1
:1080C0009C44474AC1EBEC2CC0EB001E82FB0C2900
:1080D000A3EB8E0E1F44434A86F806E0C1EB274708
:1080E0004FEAEC7E08EB000ACEEBA90E82FB07827A
:1080F0004FEAE0780EEB4E0EC8EB6A18ACEBCE0CF4
:10810000C8EB0818DFF8E4E086F804C0A0EB8800AC
:1081100070718EFB0303F817C0EBE21240F2B5500A
:1081200000FB1272C1EBE353B2F5896F4FEA83078C
:108130003CDA40F2DA239A4242DCB2F5B77FB4BFB0
:108140004FF0000E4FF0010E4FEA4E09DFF8A0800D
:1081500009EB0E0308EBC3031FFA8EFCD88A09EB68
:108160000E0108EBC10116310B2301E031F8020DBD
:10817000904218DD013BF9D1CE44012338F83E008E
:10818000B37007F5FA670132121ABC44F270A6F810
:1081900000C0204629464FF47A72002343F0A2FF24
:1081A0003281BDE8F0870133DBB2E9E74FF0030C21
:1081B000E64640F29650DFF838804FF00609CEE7E9
:1081C0004FF0020CDFF82880E64640F229404FF0DD
:1081D0000409C4E780BC92C7C5B3A29107452EC26B
:1081E000ABAAAA2A73B06D1689888888792D0311E5
:1081F000C4EC040830B403888278C478154DA3F524
:10820000FA6303F0030101EB4101013A02EB810241
:108210009B0835F812500279611E40F2B55404FBF8
:1082200003132B4403EB430302EBC303427984792A
:1082300009490089C3EB031302EB83032144C3EB19
:10824000031301EB83034FF47A720021C2FB030195
:1082500030BC7047C4EC040880436D380028F0B48B
:1082600003DA2D230B7040420131092804464FF0F8
:10827000010307DD03EB83035B00B0FBF3F2092A84
:10828000F8D883B10F48A0FB0326B4FBF3F2092A08
:1082900002F1570C02F1300709DD03FB1244F30829
:1082A00001F801CBEFD100230B70F0BC704703FB4A
:1082B0001244F30801F8017BE5D100230B70F0BCF8
:1082C000704700BFCDCCCCCC884270B44FF00104D5
:1082D00042D301FB04F4B0FBF4F58D42F9D2ECB1CA
:1082E00042BB092D04FB150005F1570605F13002CC
:1082F0000EDDB4FBF1F403F8016B7CB1B0FBF4F5D7
:10830000092D04FB150005F1570605F13002F0DCDC
:10831000B4FBF1F403F8012B002CEFD100221A700A
:1083200070BC704703F8016BB4FBF1F4002CF5D07E
:10833000B0FBF4F5092D04FB150005F1370605F136
:108340003002EFDCB4FBF1F403F8012B002CEFD189
:1083500000221A7070BC70470546002AEAD1C0E7B7
:1083600090ED057A90ED004AD0ED066AD0ED014A15
:10837000D0ED047A90ED035AD0ED025AA4EE007AC3
:10838000B0EE406AB0EE470AB0EE667AA4EE867AA6
:1083900067EEC07AA5EE407AE5EE867A80ED057A42
:1083A000C0ED067A704700BFD0ED057A90ED013A36
:1083B000D0ED003AD0ED064A90ED024A90ED077AF2
:1083C00090ED035A90ED086AD0ED045AC0ED067A9C
:1083D000F0EE406A27EE830AC0ED056AA3EEA60A16
:1083E00080ED087AA4EE240AA5EE470AA5EEC60A97
:1083F00080ED070A704700BFD0ED007A90ED017A5A
:1084000030EE670AE7EE007AB0EE670AC0ED007A58
:10841000704700BF80ED010A704700BF07EE900A69
:10842000DFED056AB8EEE77AC6EE877A77EE807AF6
:1084300080EE270A704700BF83F9223E704700BFD5
:1084400006224FF47A73027043607047F0B400253F
:108450000E4E00F1FF3C2F46422165B103788B425E
:108460000BD003460CEB050403E013F8012F8A42FE
:1084700003D0A342F9D1C155013701350B2D02D0EC
:1084800016F8011FE9E7F0BC704700BF24ED0408AF
:108490000C4AF0B4002302F108071726162515240C
:1084A00003EB4303C118BA42C4544D708E7006D01A
:1084B00092F9043054799579D6790432F0E7F0BC1A
:1084C000704700BF30ED040801211F220323017013
:1084D00042708370704700BF30B4012302253224FC
:1084E00031211022057244704171C2700370037112
:1084F000837030BC704700BF30B41D6995420AD309
:1085000014460A4621448D42996938BF2A1B2144EA
:1085100030BC44F037B830BC704700BF0020704713
:108520000120704701207047002070474FF4007011
:10853000024B10609B680B6000207047C8F700205A
:10854000013A30B4D2B28C1C04EB42040025020F75
:10855000092AD3B203F130028ABF37330A700B7095
:108560004D7002318C424FEA0010F0D130BC7047A0
:108570000B4A0C4B10681B681A22C0180A8001D1E4
:108580000948704710B5094B09491C680822FFF7D4
:10859000D7FF204604220749FFF7D2FF024810BD4B
:1085A000E8F7FF1FECF7FF1F00000020EAF7FF1FAE
:1085B000020000201200002004230B8000487047B6
:1085C0001C00002012230B80004870472000002070
:1085D0002C22022302704370704700BF083070479E
:1085E000704700BF816170472DE9F04FDFF8DCC1B3
:1085F000754CDCF800502288B4F90AA0C2EB2513B0
:108600005200C2EBE502B4F902505B436A43B4F98D
:1086100004501B135D43AD1305EBE225B5F5FA32AB
:108620004FEAE57B85B04BF1FF33CDE90023DDE96F
:1086300000325343009AA561A2FB0289CDE90201F1
:10864000B4F908200199009809EB43095143D31765
:1086500000FB0311A2FB00230B444FEAEA7B0AFB59
:1086600009F11F0308FB0B13AAFB080119444FEA89
:10867000102A4AEA016A16034FEA212B47EA1257E9
:108680001AEB0602E6884BEB070312F1000A43F5EA
:10869000004BAAFB060106FB0B114A10CB1752EA4E
:1086A000030100F08E80B4F91060009806FB09F118
:1086B000F71708FB0711A6FB08673944B4F90E80C9
:1086C0008B4601994FEAE87908FB01F100FB09119B
:1086D000A8FB00898944DCF804104FEA4947C1F53A
:1086E000801C47EAD837B2464FEA4846B4F90C80B6
:1086F0001AEB060A66464BEB070BF7174FEAC8065C
:10870000019600260096F907DDE900674FEACC7074
:1087100016EB0A0647EB0B0741EA5C01801B61EB95
:10872000070140F6354C8946A0FB0C010CFB0911F2
:1087300043F0D8FCB4F91620B4F914A04E13470B3B
:1087400047EAC14702FB06FCD31707FB03CCA2FB99
:1087500007236344564307FB0366A2FB0723334406
:10876000560E46EAC31632184FEA636747EB010319
:1087700080460AFB01F14FEAEA7B08FB0B17AAFBD4
:1087800008013944C60C46EA413612EB06084FEAA6
:10879000E147B4F9122043EB07094FEA182141EAF7
:1087A000096113010B44029A0AB11B0A1360039B6F
:1087B00023B105EB850580352D121D6005B0BDE8A0
:1087C000F08F0023EFE700BFCC5B00208822002061
:1087D000704770470022082302754375704700BF39
:1087E0000022082302754375704700BF002208234A
:1087F00002754375704700BF012380F857307047FA
:10880000F0B4037C456902681F2B37D9203B202137
:10881000546899400C4223D010249C40D160D4600D
:108820005168D940CE074ED4EFF31183502282F322
:108830001288EA6B1168C90709D45468002C52D118
:10884000D5E909618E4243D1012285F86020DBB26F
:1088500083F31188037C02681F2B194614D9203B2F
:10886000082150689940084200D0D1600421506826
:1088700001FA03F3184223D1F0BC70472024166894
:108880009C4026420FD11946082310688B4018429D
:1088900000D093600423106803FA01F10842EBD082
:1088A0009160F0BC7047102199409460916011680C
:1088B000D940CC07B8D5012101FA03F39360B3E79F
:1088C000D360F0BC7047012101FA03F3D360ABE73A
:1088D000AF690F44D7600ED82E69711A5160AC622F
:1088E000002185F86010116841F00101DBB21160D0
:1088F00083F31188AEE7711A5160AE62F0E700BFF2
:1089000070B4037C01681F2B26D9A3F12005202217
:108910004C68AA40224214BF01220022D2B142690F
:108920001B481C4C02EB420200EB421225785468B3
:108930002068CDB9E56856892C6824F001042C60C4
:1089400082891F2B22EA060282811AD8202202FA8B
:1089500003F38B6070BC704720220C689A4022425F
:1089600014BF01220022D9E7A469226822F0010283
:108970002260828922F480721204120C1F2B8281E1
:10898000E4D9A3F1200220239340CB6070BC704750
:10899000D00601207453001070B59D4C2368002B45
:1089A00040F005819B4B1A78002A68D09A4B1978C1
:1089B0009A4B002964D11868B3F82C51416284891C
:1089C000012A44EA05048481A3F82C1157D0D3F876
:1089D0003001B3F85C5241628489022A44EA0504FA
:1089E0008481A3F85C124AD0D3F86002B3F88C53A8
:1089F00041628489032A44EA05048481A3F88C1324
:108A00003DD0D3F89003B3F8BC5441628489042A62
:108A100044EA05048481A3F8BC1430D0D3F8C00420
:108A2000B3F8EC5541628489052A44EA050484813F
:108A3000A3F8EC1523D0D3F8F005B3F81C57416226
:108A40008489062A44EA05048481A3F81C1716D0F9
:108A5000D3F82007B3F84C5841628489072A44EAC6
:108A600005048481A3F84C1809D0D3F85028B3F832
:108A70007C495162908920439081A3F87C1970BD94
:108A80005C68198961602568186845F0010540F245
:108A90000D312560A0F848108489012A44F48074BF
:108AA0008481ECD0D3F83441B3F83851D3F8300195
:108AB0006560256845F001052560A0F848108489A7
:108AC000022A44F480748481D9D0D3F86442B3F884
:108AD0006852D3F860026560256845F0010525609D
:108AE000A0F848108489032A44F480748481C6D095
:108AF000D3F89443B3F89853D3F89003656025688E
:108B000045F001052560A0F848108489042A44F442
:108B100080748481B3D0D3F8C444B3F8C854D3F874
:108B2000C0046560256845F001052560A0F848107F
:108B30008489052A44F480748481A0D0D3F8F44554
:108B4000B3F8F855D3F8F0056560256845F00105E0
:108B50002560A0F848108489062A44F48074848132
:108B60008DD0D3F82447B3F82857D3F82007656091
:108B7000256845F001052560A0F848108489072A7A
:108B800044F4807484813FF47AAFD3F85428B3F866
:108B90005808D3F850385060106840F00100106059
:108BA000A3F848109A8942F480729A8170BD0546F4
:108BB0000AF082FC217AA9B16DB1194A0023168905
:108BC0000133002E18BF0021AB4202F16002F6D142
:108BD00000293FF4E7AE00F51C5010300023206060
:108BE0002372DFE62368C31A002BFFF648AF637ACF
:108BF0003BB1013BDBB263722BB100F57A702060B0
:108C0000D0E62360CEE6636803442360CAE600BF73
:108C1000107B0020D009012074530010D4090120DA
:108C2000D006012010B5027C01681F2A4FF02003F6
:108C30000ED94C68203A93401C4208D00B4A406839
:108C400000241470026822F001020260CB6010BDA3
:108C50000C6893401C42FAD0044A40680024147007
:108C6000026822F0010202608B60F0E728E3002036
:108C700010B5027C01681F2A4FF020030ED94C6802
:108C8000203A93401C4208D00B4A406800241470DC
:108C9000026822F001020260CB6010BD0C689340B4
:108CA0001C42FAD0044A406800241470026822F082
:108CB000010202608B60F0E7186100202DE9F041AD
:108CC000C40023189B00B749CA585268958AADB2B0
:108CD000EFB2FE070B4461D4BE0737D5BFF35F8FF9
:108CE0001D7EEDB2012D00F0BB80AF4E138BBFF3A4
:108CF0005F8F231801EB83031D7E022D00F0CE80D1
:108D0000231801EB83031D7E032D05D19B7E1BB130
:108D1000737A002B40F01A81938896F908C043F4C7
:108D200080639380231801EB83031B7E013363452B
:108D30000AD1B37A00257572002B40F08A80204456
:108D400001EB800000234375BDE8F081964E17F0DB
:108D5000040F96F908C04DD117F0400700F0B2801B
:108D6000178A1D6AFFB205F80C705FFA8CF56F1C4C
:108D700093F818E07BB2DF1CBE4533729C4600F0CE
:108D80000981271801EB87073F7EBB42CAD105F155
:108D9000020C4FFA8CFC86F808C0C3E71588824E97
:108DA00025F400652D042D0C1580158845F480658B
:108DB00015809D7E00273772002D3DD0757A002DDD
:108DC00037D0231801EB830301251B7E7572022B1C
:108DD00003D1138843F400631380231801EB83034A
:108DE0009B7D43F001031382204401EB8000037E4E
:108DF000BDE8F0819F7E757A4FF0010E86F80AE09B
:108E0000002F5CD0002D78D1231801EB83035B7E0B
:108E1000002B00F0A48013880CF1010C4FFA8CFC9D
:108E200043F4007386F808C013801388DF05FCD470
:108E300078E7DB7DFF2BC4D0231801EB83039D7DF6
:108E400005F0FE051582DB7DFF2BCDD0FF233372AD
:108E5000CAE7938823F440731B041B0C93806EE7CE
:108E60009B7E514E002B3FF441AF737A002B3FF4B1
:108E70003DAF138823F480631B041B0C1380BFF3E6
:108E80005F8F138B1388B57243F40073138093883C
:108E900096F908C043F48063938043E79B7E002BE0
:108EA0003FF42EAF737A002B3FF42AAF138896F964
:108EB00008C023F480631B041B0C138016E0002DF4
:108EC000A2D0A8E72D067FF52DAFBCF1FF3F6DD0F6
:108ED000DD6915F80C5015820CF1010C1D7E4FFA5E
:108EE0008CF39D429C4633727FF41CAF938823F42D
:108EF00080631B041B0C938014E71F7ED3F8208033
:108F00005FFA8CF5AE44022F4FFA8EFE17882DD9EA
:108F100027F480673F043F0C1780178AFFB208F8D8
:108F20000C701788D3F820C047F400731380138A9D
:108F3000DBB20CF80E30938805F1020C4FFA8CFC72
:108F400043F4806386F808C093806EE7938896F9AF
:108F500008C023F480631B041B0C9380E2E6138893
:108F6000012543F48073138075725EE747F4007740
:108F70001780178AFFB208F80C70178AD3F8208080
:108F800005F1030C4FFA8CFCFBB286F808C008F818
:108F90000E304AE7978827F480673F043F0C97809C
:108FA000EFE600BF0C81002088220020DD7D1582C5
:108FB0009D7E37721DB91B7E002B7FF415AF938801
:108FC00023F480631B041B0C93800DE7014B18688E
:108FD0000AF05ABC0C50002038B51D4B1B780446D3
:108FE00000F1250593B104221A49203045F03AFEDC
:108FF00028461422184945F035FE012384F83A30FA
:10900000164B1B7873B984F83B3038BD28461422C0
:10901000134945F027FE012384F83A300F4B1B78A3
:10902000002BF0D00F4B186859689A68DD68E5602E
:1090300020606160A260DD69186959699A69A2615E
:109040000123E5612061616184F83B3038BD00BFD8
:10905000F9AD00207814012060140120F8AD002043
:10906000DC3D05088014012070B504462DED028B0F
:10907000D0F83004B0EE408A38F01CFBD4ED047A0E
:10908000F0EE405A94ED050A37EEC00AF5EE405A6C
:1090900030EE270AF1EE10FA84ED040A84ED050A99
:1090A00005D0F5EE407AF1EE10FA40F0BC80664B48
:1090B000F7EE007AB0EE676AC3ED037A94ED017AB9
:1090C000D4ED037AD4ED026AE7EE067A04F2344274
:1090D000104678EE404A77EEA66AB0EE677A87EEE1
:1090E000265AF7EE007A77EEC57AA4EE850A67EE87
:1090F000877A84ED040AC4ED037AFFF77DF904F260
:109100001C4191ED007AD4F82C34256884ED040AD2
:1091100004F22440D0ED007AA8EE087A04EB83062E
:10912000013378EE277AAB4286ED068AC0ED007AED
:1091300081ED007AC4F82C3424BF0023C4F82C3409
:1091400004EB8303D3ED066A404D04F5856393ED8C
:10915000005A77EEE67AA6EEE67A04F58463C0ED6F
:10916000007A67EE857A81ED007A67EEE76AC3EDF3
:10917000007AF0EE667AE7EE057A354995ED007AE9
:109180000878F5EEC07AF1EE10FAD8BFF1EE677A02
:10919000F1EEE76A04F58363C3ED007A67EE267AA1
:1091A000C4ED027A70B1F5EE405AF1EE10FA0CD12E
:1091B000D4F83034022B09BF002394ED040A94ED57
:1091C000040A0B70BDEC028B70BD04F23C45D5ED7A
:1091D000007AF4EE657AF1EE10FAE9D0DFED1D7A4F
:1091E00026EE276A04F58860FDEEC67A90ED000A47
:1091F00017EE903AB3F5FA7FA8BF4FF4FA730A2B33
:10920000B8BF0A2307EE903AB8EEE76ABCEEC66A2A
:1092100016EE103A98B2FFF701F91046FFF7FAF888
:10922000C5ED005AC4E785EEA77A074BB7EE006A92
:1092300036EE476AB5EEC06AF1EE10FAD8BFB1EE6D
:10924000466A83ED036A39E7882200202C1F00203C
:10925000E4B2002000008C420023012282710360EE
:1092600003714371C37170472DE9F84FDDE90A645A
:1092700089461746002120229846054645F0B4FC51
:109280005EB1D6E900327189EB81C3F30F432B82C3
:10929000C2F30F43EA822B836982484642F036FAD2
:1092A00017F0100B10D1431E70B119F803202E2AAD
:1092B00018BF09EB030104D14AE011F8016D2E2E0D
:1092C0003ED013F1FF33F8D208280246CA46A8BFA1
:1092D00008224FF0000B4FF020336B602B60C5F875
:1092E00007304946284605F1080643F04BF95A462F
:1092F0005146304643F046F96B1EE81D13F8012F26
:10930000A2F1610119299CBF203A1A708342F5D15C
:1093100005F10B0116F8013BA3F16102192A9CBF6C
:10932000203B06F8013CB142F4D11823C8F30F42A8
:10933000EF722B73A5F81A80AA82EC61BDE8F88F52
:10934000C01A00F1FF3BBBF1030FA8BF4FF0030BA6
:10935000082B03F1010AA8BF0823CA441A46BAE73A
:1093600038B52C22002145F03FFC0346642140F231
:10937000DC5240F2022019745A821321202240F25A
:109380001A4540F26C74188399760E2002211A77E0
:1093900001229D82DC8240F2753540F6430483F859
:1093A000220083F82A109A7383F82920DD831C8415
:1093B00019460248BDE8384017F0C8B8E83D05082E
:1093C00010B500210446012009F052F8207010BDAC
:1093D00038B500240472451EE1B2022009F048F8B5
:1093E0000134082C05F8010FF6D138BD2DE9F04FF6
:1093F000002087B00C461D46012192460DF0C6F9AB
:10940000002D63D005EB0A03DFF8D094DFF8D0B469
:10941000039355461CE0002D00F0C581D9F81430A7
:10942000AB4264D0D9F81030AB4200F09780D9E954
:109430000631AB4252D8A94200F26F81691A204628
:109440003EF0BAFB039B01359D4204F500743DD00C
:10945000D9F82060AE42DED8D9F83080AE1B4FEA92
:10946000D60AD8F830300AF1020A9A4506F0070603
:1094700003D3D8F838309A4509D9414650463EF0D2
:1094800069FB8046002800F04D81C9F8300098F84B
:109490000430002B40F0E280D8F82870002F00F054
:1094A000DF81D8F83030D8F80C20AAEB030A06EB9D
:1094B000CA0A4346204602EB4A224FF40071B847DD
:1094C000039B01359D4204F50074C1D1002108467B
:1094D0000DF05CF9002007B0BDE8F08FA942ADD9CE
:1094E0004FF400720021204645F07EFBAAE752228D
:1094F00061204123002622706270A070722284F8DD
:10950000E70184F8E631D9F82800E3704FF0FF3323
:10951000314684F8E42184F8E521C4F8E8014FF4E9
:10952000F07284F8EC3184F8ED3184F8EE3184F88F
:10953000EF31201D45F058FB55216FF05502C4F85E
:10954000F061C4F8F461C4F8F86184F8FC6184F84F
:10955000FD6184F8FE1184F8FF2173E74FF4007277
:109560000021204645F040FBD44BD54F03CBEB23E5
:10957000022223704FF0080C9026F8234FF0580E6B
:10958000C4F80300227484F80DC0C4F8071084F8EE
:1095900001E0A6706375D9F81010D9F80830D9F831
:1095A0001C602273591A21624FF0FF3100233F20C3
:1095B000A1763E21A273E372E3736374A374E37430
:1095C0002375A375E3756376E3766377A377E37713
:1095D0002076217784F82C2007CFD9F8187084F8EA
:1095E0002830F61B84F8293084F82A3084F82B3090
:1095F00084F82D3084F82E3084F82F3084F8313000
:1096000084F8323084F8333080236662C4F847002F
:1096100004F1470684F8403029209423A94F84F8A8
:1096200046C084F8420084F843300E200D234FF0EA
:10963000010C84F8440084F8453084F830C071602F
:1096400003CF33465527AA269A60C4F85200C4F8BF
:10965000561084F8FE7184F8FF61F3E64FF400724F
:109660000021204645F0C0FAD8F84030002E61D1E4
:1096700004F12007002B77D0D8F83030924911221E
:10968000CDE900662046FFF7EFFDD8F840301A6CB0
:1096900004F1400A002A79D01B6B8C49CDE90066A1
:1096A00038461122FFF7E0FDD8F84460002E3FF461
:1096B000C9AE4FF4E078CDE904450CE00024CDE9D3
:1096C00000C4FFF7D1FDB66CBA46A8F120080EB36E
:1096D000B8F11F0F1ED93468356B96F804E01122DB
:1096E0002B46214650460AF1200706F11C0CBEF11C
:1096F000000FE3D172793369019342F021022B46C6
:10970000CDF800C0FFF7B0FDB66CBA46A8F120084E
:10971000002EDDD1DDE9044594E6E91A20463EF04D
:109720004BFA8FE6231F04F5FE7243F804BF9A42FA
:10973000FBD187E6002BD8F844200CBF012302237D
:10974000C3EB0613002A3FF47DAE966C013B002E5E
:109750003FF478AE013BB66CF9D1002E3FF472AE07
:10976000A2464FF40078A6E7CDE900663346D9F863
:109770000C1008222046FFF777FDD8F84460002E31
:109780003FF460AEBA464FF4F07894E7CDE9006656
:109790003346384611224D49FFF766FDD8F844603C
:1097A000002E86D14EE64FF400722946204645F041
:1097B0001BFA80220C2384F8BE2184F8C231D9F828
:1097C0001000434BD9F8086084F8B85183FB00328D
:1097D000C117C1EB2232B2F5806F84F8B95184F819
:1097E000BA5184F8BB5184F8BC5184F8BD51C4F817
:1097F000C601C4F8CA6142DBFF2384F8BF3184F894
:10980000C13184F8C031324B711E83FB0132CE1757
:10981000C6EB2232B2F5806F29DA2E4B84F8C521CF
:1098200083FB01030B442C48C6EB6313C3EB831685
:1098300080FB0370891B1844DE17921022F03F0250
:109840000131C6EBE0100A43034484F8C42184F8D4
:10985000C3315522AA2384F8FE2184F8FF31F1E5B3
:1098600039464FF40072204645F0BEF9EAE5FF2381
:1098700084F8C33184F8C53184F8C431E9E7154B65
:1098800084F8C12183FB00730344134FC1EB6313BE
:1098900087FB0317C3EB831C9110A0EB0C02F81895
:1098A000DF1721F03F010132C7EBE0100A43034408
:1098B00084F8C02184F8BF31A5E700BFFC3D05084E
:1098C000083E0508183E0508F43D0508F83D050862
:1098D000975545418320088281808080C8F7002009
:1098E000DEADBEEF10B5044C04480A4621462AF00E
:1098F0007BF9204610BD00BF98220020243E0508B9
:1099000010B5044C04480A4621462AF06DF9204659
:1099100010BD00BF98220020343E050810B5044C4D
:1099200004480A4621462AF05FF9204610BD00BFD0
:1099300098220020403E05080A4608B5054920B196
:1099400005482AF051F9034808BD04482AF04CF9AB
:10995000004808BD982200206C3E0508543E0508CA
:1099600038B50D4607F0EAFE044650B13623837140
:10997000C57101210CF05AFE2046BDE838400CF0BC
:10998000F7BE38BD38B50D4607F0D8FE044650B1D5
:1099900035238371C57120210CF048FE2046BDE8B7
:1099A00038400CF0E5BE38BDF8B5124F054600242E
:1099B000E65D304607F0C2FE854204D121463046BE
:1099C000BDE8F840DEE701340B2CF1D10A4C2078D9
:1099D00007F0B4FE854209D0607807F0AFFE8542FB
:1099E00006D10121605CBDE8F840B9E70021F9E744
:1099F000F8BD00BFF9800020048100200E4B984282
:109A000014D0A3F5784398420ED003F580639842B2
:109A10000ED10222094B03EB02135A89013292B292
:109A20005A81588980B270470122F3E70022F1E79A
:109A30004FF0FF30704700BF0030014078520010F7
:109A4000F0B5876983B0064617B13B68BA885A8378
:109A50007069DFF8A8E08389C3244FF47A734FF06C
:109A6000060C6D464FF6FF710EF1010E03E0013B4F
:109A70009BB28B4220D002899207F8D5A3B2838192
:109A80004FF47A7302E0A3B28B4215D00289D20759
:109A900003F1FF34F7D5828992B20DB12A700135F6
:109AA000BCF1000F0BD00CF1FF3CFF24BEF1000F06
:109AB000E1D09EF80040D7E7FFF7A0FFB76917B1E4
:109AC0003B68BA881A839DF805009DF801509DF8FF
:109AD00002109DF803409DF804209DF8063041EAED
:109AE000052143EA002342EA04220120A6F850108F
:109AF000A6F85220A6F8543003B0F0BD3CED04089F
:109B000008B540F2E93300E0A3B10289013B12F04D
:109B1000020F9BB2F8D089B2818140F2E93300E0B4
:109B200043B10289013B12F0010F9BB2F8D080894A
:109B3000C0B208BDFFF762FFC0B208BD427A4AB1A9
:109B400010B5044604F10A01D0E90030984700231B
:109B5000637210BD704700BF437A5A1C0344D2B2EF
:109B600042729972037A93420AD84AB110B50446F8
:109B700004F10A01D0E9003098470023637210BD58
:109B8000704700BF48B10123302803FA01F101D02A
:109B9000312803D14A0709D1002070473228F9D073
:109BA0003328F7D0342803D18B07F5D00120704734
:109BB0003528F9D02028F7D02128F5D01028E9D071
:109BC0001128E7D01228E5D01328E3D01428EBD0D1
:109BD0001528E9D0162804D111F0030018BF012080
:109BE00070471728D8D111F0030018BF0120704723
:109BF000302829D0312829D0322829D0332829D01B
:109C0000342829D0352829D020282BD021282BD022
:109C1000102825D0112829D0122829D0132829D07E
:109C2000142829D0152829D0162805D0172808BFB0
:109C30000F2302D0002070470E23114A03EB430389
:109C4000134493F8820070470023F6E70123F4E7FA
:109C50000223F2E70323F0E70423EEE70523ECE712
:109C60000823EAE70623E8E70723E6E70923E4E712
:109C70000A23E2E70B23E0E70C23DEE70D23DCE712
:109C8000C4EC0408F8B50468C4F30D0405460E4698
:109C900004B32F682BF086FA092840F08880454CE1
:109CA000236923F440732361236943F40073236120
:109CB000236943F0010323613E602BF073FA2369AB
:109CC000092823F00103236171D12B6804332B6031
:109CD000002035E0384B394A93422BD902F58042B7
:109CE000934226D902F5804293422AD902F5804256
:109CF000934228D902F58032934226D902F50032E8
:109D0000934224D902F50032934222D902F500325F
:109D1000934220D902F5003293421ED902F58022E7
:109D200093421CD9B3F1016F1BD3052008F050FEFC
:109D3000FBE708242BF036FA092814D04FF0FF3047
:109D4000F8BD1024F6E71824F4E72024F2E72824CD
:109D5000F0E73024EEE73824ECE74024EAE7482433
:109D6000E8E75824E6E7134F3B6923F440733B616F
:109D70003B6943F400733B613B6923F0F8033B61AB
:109D80003B6943F002031C433C613B6943F480336D
:109D90003B612BF007FA3B6923F002033B613B690F
:109DA000092823F0F8033B613FF473AFC6E76FF077
:109DB0000100C5E7003C024000400008FF3F0008EA
:109DC000F8B504460D468E180027B542206900D12B
:109DD000F8BDE368591CE160234415F8012B1A72A1
:109DE0000429F2D118B9A1682046FFF74BFFC4E956
:109DF0000370EAE7024A136823EA00001060704724
:109E0000B4140120DFED2E7AB4EEE70AF1EE10FA79
:109E10004ADDDFED2C6A9FED2C7A01E0B0EE670A97
:109E2000B4EEC70AF1EE10FA70EE667AF6DC9FED3A
:109E3000277AF4EEC77AF1EE10FA3ED5DFED216A0B
:109E40009FED237A01E0F0EE407AF4EEC77AF1EE6E
:109E500010FA37EEA60AF6D4DFED1E7AB4EEE70A62
:109E6000F1EE10FA14DDDFED167A37EEC00A60EE7F
:109E7000006A9FED196A9FED197ADFED197AA6EE57
:109E8000867A20EE266AE6EE877AA6EE270A7047E3
:109E9000DFED147AB4EEE70AF1EE10FA44BFDFED1D
:109EA0000B7A37EEC00AE2E79FED087AF0EE407ACF
:109EB000F4EEC77AF1EE10FAC0D4B0EE670ACBE741
:109EC000DB0F4940DB0FC940E4CB1641DB0F49C033
:109ED000E4CB16C1DB0FC93F92E741B99730083C8C
:109EE00015A82ABEDB0FC9BFD1ED002A90ED014AAB
:109EF00091ED015AD0ED025A91ED023A90ED002A0F
:109F0000D1ED034AD0ED033A25EE446A62EE846A4D
:109F100022EEA57A64EE037AA2EE226AE2EE056AE8
:109F2000A2EE037AE2EE247AA5EEC36AE5EEA46A15
:109F3000A5EE237AE2EEA37AA3EEE46AE3EE636A87
:109F4000A4EE647AE5EE657A82ED006AC2ED016AFC
:109F500082ED027AC2ED037A704700BFF0EEC07A5C
:109F6000B0EEE07AB4EEE77AF1EE10FAB4BFB0EEFC
:109F7000676AB0EE476AB5EE406AF1EE10FA46D075
:109F8000B4EEE77AF1EE10FA8CBFF0EE675AF0EE1D
:109F9000475AC5EE866A9FED1F3A9FED1F6A9FEDF7
:109FA0001F4A9FED1F5ADFED1F3ADFED1F4ADFED1D
:109FB0001F5AA6EEC36AE6EEA34AA6EE864AB7EE9D
:109FC000006AA6EE845AA6EEA46AE6EE855AC5EEAD
:109FD000866AB4EEE77AF1EE10FA48BFDFED147A44
:109FE000F5EEC00A48BF77EEE66AF1EE10FA48BF18
:109FF000DFED107AB5EEC00A48BF77EEE66AF1EE03
:10A0000010FA48BFF1EE666AB0EE660A7047DFEDFF
:10A01000076ADEE739094E3DE3B59E3E88FA163EF3
:10A0200045FE7F3F99FB243F69A2163EA7DFA83477
:10A03000DB0FC93FDB0F4940DFED317A30EE277A85
:10A04000FDEEC76A16EE903A2033402B02D99FED01
:10A050002D0A7047B4EEE70AF1EE10FA4DDD9FEDE0
:10A060002A6ADFED2A6A01E0B0EE677AB4EEE67A9A
:10A07000F1EE10FA77EE467AF6DC9FED257AF4EEF3
:10A08000C77AF1EE10FA35D5DFED1F6A9FED217A20
:10A0900001E0F0EE407AF4EEC77AF1EE10FA37EE16
:10A0A000A60AF6D4DFED167AB4EEE70AF1EE10FA5E
:10A0B0001BDCDFED197AB4EEE70AF1EE10FA44BFCB
:10A0C000DFED137A37EEC00A60EE006A9FED136A87
:10A0D0009FED137ADFED137AA6EE867A20EE266ADC
:10A0E000E6EE877AA6EE270A7047DFED0F7A37EEA5
:10A0F000C00AE9E7B0EE670AD4E7F0EE477ABCE7BA
:10A10000DB0FC93F00000000DB0FC940E4CB164164
:10A11000DB0F49C0E4CB16C1DB0FC9BF92E741B9E1
:10A120009730083C15A82ABEDB0F494010B44C09F3
:10A13000012250F8243001F01F0102FA01F10B4313
:10A1400040F824305DF8044B704700BF4B0901F024
:10A150001F0150F82320012303FA01F1114214BF1B
:10A1600018460020704700BF2DE9F043002489B055
:10A1700006460D461F46A04605E025290CD0304670
:10A180000134A847039A531C039311780029F4D192
:10A19000204609B0BDE8F083931CCDE90338507820
:10A1A000302842D0A0F13003DBB2092B4FF0000978
:10A1B00045D96C282AD0642873D019D9732858D06F
:10A1C00063D9752840F0828007F1040C386805AB2C
:10A1D00000220A216746FEF777F805AB049A009340
:10A1E00029464B463046FDF711FF039A0444CAE75F
:10A1F00025283CD051D958286BD06328C2D1397852
:10A200003046A84704370134039ABCE7039B5A1C25
:10A2100003921B78642B52D016D8252B27D064D9F3
:10A22000582B18D0632BEAD0ADE7D31C039390785A
:10A23000A0F13003DBB2092B4FF00109B9D804AA11
:10A2400003A93DF00BFDB4E7732B12D051D9752B48
:10A250002DD0782B97D1A3F15802B2FA82F2386848
:10A26000520905AB10210437FEF72EF8B5E725217A
:10A2700085E73B68049A0093294600233046FDF7A2
:10A28000C5FE04370444039A7DE76E287FF47AAF55
:10A29000039A3B6804371C6075E700283FF478AFE9
:10A2A00070E7386805A9FDF7D9FF043795E73868E6
:10A2B00005AB00220A21FEF707F804378DE73B1DA6
:10A2C000386805A91F46FDF7C9FF86E778287FF49F
:10A2D00059AFA0F15802B2FA82F23868520905ABC0
:10A2E0001021FDF7F1FF043777E7002B3FF450AF63
:10A2F00049E76E2BCDD046E70EB400B584B005AB70
:10A30000019053F8042B0649039301A8FFF72CFF93
:10A31000019B00221A7004B05DF804EB03B0704793
:10A320000180000870B406688E4217D90139751E85
:10A33000002311F8014F0822634013F0800F4FEA09
:10A34000430318BF83F0D503013ADBB2F5D18D4248
:10A35000EFD1721C0260337070BC7047721C002316
:10A360000260337070BC70470A44914215D010B43B
:10A370000139541E11F8012F0823504010F0800FAE
:10A380004FEA400018BF80F0D500013BC0B2F5D1C4
:10A39000A142EFD15DF8044B704770474840082355
:10A3A00010F0800F4FEA400018BF80F0D500013B4D
:10A3B000C0B2F5D1704700BF0A44914215D030B405
:10A3C0000139551E41F2210211F8014F082380EA9C
:10A3D000042004044CBF82EA40004000013B80B2EC
:10A3E000F7D18D42F0D130BC7047704770B5022272
:10A3F0001349144C144E4FF6FF70FFF7DDFF22880F
:10A400004AB1A518B54218D2052A16D92146FFF738
:10A41000D3FF2C46F3E721460222FFF7CDFF0222AD
:10A42000A118FFF7C9FF094BE41A094B1C8041F63C
:10A430000F53C31A5842584170BD0020FCE700BFBB
:10A44000004000080240000800800008FA3F0008B1
:10A450000A5500202DE90048FDF7CCFE054A064BC1
:10A460001268B0EB020B61F1000CC3E900BC0120E3
:10A47000BDE8008844E40020387200200F4B2DE92D
:10A480003048D3E9004554EA05020AD1034640F2B8
:10A49000011200201880988098715A801881BDE8B8
:10A4A0003088074B1A6814EB020B45F1000C5A4632
:10A4B0006346FDF7E7FD0120BDE8308838720020D3
:10A4C00044E400202DE9F04707468CB01E46924632
:10A4D000002A5CD1154614460A88B2F5FA6F36D3C5
:10A4E0008B78581E0B2832D891F803C00CF1FF303E
:10A4F0001E282CD891F804E0BEF1170F27D891F848
:10A500000590B9F13B0F22D888793B281FD8B1F8C4
:10A510000880B8F57A7F1AD24FF001085EBB09892E
:10A520000491002CB4BF2D212B21002CB8BF644214
:10A53000CDE90290CDE905140795CDE900CE384666
:10A540002A49FFF7D9FE40460CB0BDE8F08700234A
:10A550002749ADF828304FF0010C18468DF82A3005
:10A56000ADF82C3099469E461A46984609916346A6
:10A5700009A9002ED3D0CDE90290CDE900CE38460E
:10A580001C49FFF7B9FE40460CB0BDE8F0871A4CF5
:10A5900084FB0234A318D417C4EB6314C4EB041572
:10A5A000A2EB85052DB2002D0846B8BF6D42FDF720
:10A5B00021FE4FF47A7200238046894641F092FDD5
:10A5C0003C230AFB030A4FF47A72002340464946B3
:10A5D00041F088FD4FF47A7192B20023C1FB0A2347
:10A5E00009A8FDF74FFD24B209A975E7A43E0508A7
:10A5F00000000101843E0508898888880378202BA3
:10A60000024600F10100F9D0092BF7D02D2B00F004
:10A61000A4802B2B03BF5378B7EE000A0246B7EE97
:10A62000000AA3F13001C8B209289FED577A10D86B
:10A63000F2EE046A07EE901AF8EEE77A12F8013F9C
:10A64000E7EE267AA3F13001C8B20928B0EE677AA6
:10A65000F0D92E2B63D003F0DF03452B02D020EE80
:10A66000070A704710B451782D294FD02B2979D083
:10A67000A1F13003092B02F101027AD80024002352
:10A6800003EB830301EB430312F8011FA1F1300038
:10A690000928A3F13003F3D9B3F59A7F1A4628BFEE
:10A6A0004FF49A72072B6CD9DFED386A1346F7EE38
:10A6B000007A083B072B67EEA67AFAD802F0070269
:10A6C000DAB1F2EE046A012A67EEA67A15D0022A00
:10A6D00067EEA67A11D0032A67EEA67A0DD0042A77
:10A6E00067EEA67A09D0052A67EEA67A05D067EE4E
:10A6F000A67A062A18BF67EEA67A002C3BD087EE12
:10A70000277A5DF8044B20EE070A70479178A1F193
:10A710003003092B02F1020230D80124AFE753784D
:10A72000A3F13001C8B2092802F1010293D8F2EE78
:10A73000046AF0EE665A07EE901AF8EEE77A12F81D
:10A74000013F87EEA66AA3F13001C8B2092866EE80
:10A75000A56A37EE067AEED97DE75378BFEE000A98
:10A7600002465EE79178A1F13003092B02F1020263
:10A7700084D9F7EE007A27EE277AC2E7F7EE007A5F
:10A78000BDE7F7EE007A9BE70000000020BCBE4C5E
:10A79000B5EEC00ADFED317AF1EE10FACCBF30EE43
:10A7A000270A30EE670ADFED2E7A20EE270A30B551
:10A7B000FDEEC07A87B017EE904A054684EAE47051
:10A7C000002303A9A0EBE470CDE9003302933FF02E
:10A7D00015F9002CACBF20232D2303A88DF80030E1
:10A7E00040F094FF012803A924D002282DD003288B
:10A7F00005BF3023684668468DF8013044F0FCF907
:10A80000684640F083FF0338C4B2224669462846B2
:10A8100044F028FA00232B55284640F077FF2E22DB
:10A82000431C2A540DEB0401E81844F001FA2846B1
:10A8300007B030BD302368468DF801308DF8023006
:10A840008DF8033044F0D8F9DAE7302368468DF804
:10A8500001308DF8023044F0CFF9D1E76F12033A9E
:10A8600000007A44F8B5064615460846B6FBF2F4F1
:10A8700034B905FB14640C4B1B5D00F8013BF8BDBB
:10A88000B4FBF2F75FB905FB1747074B05FB1464F0
:10A89000DA5D00F8012B1B5D00F8013BF8BD38467E
:10A8A000FFF7E0FFEFE700BFD43E050802B370B446
:10A8B0008E1803E0121B14D1B14215D010F8012BF1
:10A8C000A2F14103192B11F8013BA3F1410598BFF7
:10A8D0002032192D03F12004ECD9D21A01D1002B1A
:10A8E000EAD1104670BC70470022104670BC704719
:10A8F0001046704770B5044608460D4640F006FF06
:10A90000064602E014F8013F43B13246294620468C
:10A91000FFF7CCFF0028F5D1204670BD1C4620462D
:10A9200070BD00BF4FF0FF32FFF7C0BFA0F1610361
:10A93000192B98BF20387047A0F14103192B98BFFD
:10A9400020307047202805D0093804288CBF00200B
:10A9500001207047012070472DE9F0411F4606464F
:10A9600003461C782046FFF7EDFF1D460133002803
:10A97000F7D12B2C51D02D2C24D0102A804628D052
:10A980004FF0FF33B3FBF2F302FB03FC6FEA0C0C56
:10A990005FFA8CFC013500200BE0303CE4B29442BD
:10A9A00025DA98422E461DD81AD002FB004015F831
:10A9B000014B392CF1D944F02004602C17D9573CB5
:10A9C000E4B2ECE74FF00108102A6C7805F10105BC
:10A9D000D6D1302C23D06FF070434FF00F0CD9E755
:10A9E0006445E2D907EA08084FF0FF30DFE701B11C
:10A9F0000E60B8F1000F08D027B1B0F1004F28BFAA
:10AA00004FF000404042BDE8F081002FFBD06FF0D6
:10AA10000043984228BF1846F5E78046D4E76C7893
:10AA20002046FFF789FF782805F1010605D0354655
:10AA30006FF070434FF00F0CACE7AC786FF07043E1
:10AA400002354FF00F0CA5E701230A22002183E70E
:10AA5000613819288CBF002001207047413819281F
:10AA60008CBF002001207047303809288CBF00209F
:10AA700001207047A0F13003092B07D920F02000F6
:10AA8000413819288CBF00200120704701207047F1
:10AA900007EE901AF8EE677A9FED837A27EE800A28
:10AAA00020EE070AFDEEC07A17EE903A2033402BD5
:10AAB00000F28180DFED7D7AB4EEE70AF1EE10FA64
:10AAC00040F3E680B0EE407A9FED796ADFED796A77
:10AAD00001E0B0EE677AB4EEE67AF1EE10FA77EEC6
:10AAE000467AF6DC9FED747AF4EEC77AF1EE10FA4E
:10AAF00040F1D1809FED6E6ADFED706A01E0F0EE0B
:10AB0000477AF4EEE67AF1EE10FA37EE867AF6D46A
:10AB1000DFED6B7AB4EEE77AF1EE10FA40F3A7803E
:10AB2000DFED627A37EEC77A27EE076ADFED655A06
:10AB3000DFED657ADFED656A9FED655AE6EE257A11
:10AB400067EE065AE6EE276AF7EE007AA5EEA67AD9
:10AB5000F0EE675AE7EE055AE7EE457A87EEA55A1A
:10AB6000DFED577A30EE277AFDEEC76A16EE903A9F
:10AB70002033402B24D99FED577AF6EE006AB7EECA
:10AB8000006AF7EE004AC4EEA57A002383614361B0
:10AB90000362C36180ED045A67EEA66A27EE866AF7
:10ABA00027EE877AC0ED006AC0ED026A80ED016A87
:10ABB00080ED037A7047B7EE005AF0EE455ACFE7C2
:10ABC000B4EEE70AF1EE10FA6BDD9FED396ADFEDC6
:10ABD000396A01E0B0EE677AB4EEE67AF1EE10FA87
:10ABE00077EE467AF6DC9FED347AF4EEC77AF1EE32
:10ABF00010FA53D59FED2E6ADFED306A01E0F0EEDA
:10AC0000477AF4EEE67AF1EE10FA37EE867AF6D469
:10AC1000DFED2B7AB4EEE77AF1EE10FA33DCDFEDFC
:10AC20002E7AB4EEE77AF1EE10FA44BFDFED227A25
:10AC300037EEC77A27EE076ADFED224ADFED226A98
:10AC4000DFED227AE6EE246A67EE064AE6EE267A21
:10AC5000B7EE006AA4EEA77AF6EE006A36EE476A0F
:10AC6000F8EE007A27EE277A66EE266A89E7DFEDAE
:10AC70001A7AB4EEE77AF1EE10FA44BFDFED0E7AFD
:10AC800037EEC77A50E7DFED097A37EEC77AD1E7BA
:10AC9000F0EE407A26E7B0EE677A39E7B0EE677AF1
:10ACA000B6E7F0EE477A9EE727D4D236DB0F49406D
:10ACB000DB0FC940E4CB1641DB0F49C0E4CB16C122
:10ACC000DB0FC93F92E741B99730083C15A82ABE6F
:10ACD000F304353F00000000DB0FC9BF10EE103A4F
:10ACE000C3F3160242F07E5207EE102ADFED167A09
:10ACF000DFED164A9FED165ADFED165A9FED166AE4
:10AD0000DFED163ADFED166A9FED164AE7EE274AA9
:10AD1000DB1507EE903AA4EE875AF8EEE77AE5EEF7
:10AD2000075A67EEA37AA5EE876AB5EEC00AE6EE8B
:10AD3000077AF1EE10FAD4BFB0EE440AB0EE660A1C
:10AD400037EE800A704700BFDACDFE3CB9D593BE1E
:10AD50005CB8903FAA841DC022E061401872313F68
:10AD600007F1B3C2000080FFDFED1D3ADFED1D7A71
:10AD70009FED1D7A9FED1D4ADFED1D4A9FED1D5A87
:10AD8000DFED1D5A9FED1D6ADFED1D6AE0EE237AAF
:10AD9000F4EEC77AF1EE10FA88BFF0EE477AF4EEDF
:10ADA000C47AF1EE10FAB8BFF0EE447AFDEEE77A1D
:10ADB00017EE903AC3F3160242F07E5207EE102AC5
:10ADC000A7EE245A03F0FF4300EE103AE5EE075ACF
:10ADD000A5EE876AE6EE076A26EE800A704700BF96
:10ADE0003BAA384B00007E4E0000FF4E00000000E2
:10ADF000ED185E3C81900FBBAF9D2A3EB2D19F3EC5
:10AE0000E886023F30B402681146531C036011F813
:10AE1000024B0160D31C517803609378151D0560C7
:10AE20001B0443EA0123D078234343EA006030BC8B
:10AE3000704700BF0368591C1A46016012F8021BD4
:10AE40000260587841EA0020704700BF03685A1C2E
:10AE500002601878704700BF70B5044608460E4679
:10AE600040F054FC314605460246206841F08AFB1A
:10AE700020682844206070BD38B504460068154637
:10AE800041F080FB22682A44226038BD036810B478
:10AE90000A0E5C1C04601A7003680A0C5C1C0460D7
:10AEA0001A7003680A0A5C1C04601A7003685A1C52
:10AEB000026019705DF8044B704700BF036810B45E
:10AEC0000A0A5C1C04601A7003685A1C026019703C
:10AED0005DF8044B704700BF03685A1C026010B451
:10AEE000197003680A0A5C1C04601A7003680A0C73
:10AEF0005C1C04601A700368090E5A1C0260197009
:10AF00005DF8044B704700BF03685A1C026019705B
:10AF10000368090A5A1C02601970704770B54488AA
:10AF20000546C4F30B04224608460E46002143F0B2
:10AF30005BFE2B69094A934202D3094A934205D327
:10AF40005BB121463046BDE8704018472246304686
:10AF50001946BDE8704041F015BB70BD08070008F8
:10AF60005908000838B5064C064DAC4206D2616857
:10AF700020461434FFF7D2FFAC42F8D338BD00BFEF
:10AF80009001000808070008084B09498B4203D3C9
:10AF900009E014338B4206D21A88C2F30B029042A6
:10AFA000F7D11846704700231846704790010008F3
:10AFB0000807000808B5064B186838B10CF058FBB4
:10AFC000044B9B7813B180F00100C0B208BD00BFF4
:10AFD00008810020608A002008B53CF075FD28F04B
:10AFE000E9FD1B2006F0AAFB18B123220023827181
