:020000040800F2
:10000000F0FF0010E1E904086D030408DD6B01084E
:100010007DEA04087DEA04087DEA04080000000087
:100020000000000000000000000000007903040848
:10003000750304080000000071030408113A010868
:100040007DEA04087DEA04087DEA04087DEA0408E4
:100050007DEA04087DEA0408099A0008359B000837
:10006000F99A0008BD9A0008819A0008C5D60008D0
:10007000B5D60008A5D6000895D6000881D6000898
:100080006DD6000859D600087DEA04087DEA040808
:100090007DEA04087DEA04087DEA0408459A000820
:1000A0007DEA0408A92101087DEA04086922010803
:1000B000E9200108292001087DEA04080502010859
:1000C0000D020108F5010108FD0101087DEA04089F
:1000D0007DEA0408893B01087DEA0408ED3A01083D
:1000E000CD9900087DEA0408854904087DEA0408E2
:1000F000BD1D01087DEA04088D1E010845D60008D3
:100100007DEA04087DEA04085D1F01087DEA040811
:100110007DEA04087DEA0408A97A0208957A0208B3
:1001200031D600081DD6000809D60008F5D500080C
:10013000E1D500087DEA04087DEA04087DEA0408A8
:100140007DEA04087DEA04087DEA040851390408C0
:10015000CDD50008B9D50008A5D50008513A010849
:10016000E5010108ED0101087DEA04087DEA0408C3
:100170007DEA04087DEA04087DEA04087DEA0408B3
:080180007DEA04087DEA040891
:0801880088E5040001000000FD
:1001900002020300CC270020C82700200000000036
:1001A0000000000010020100D8270020D427002002
:1001B00000000000E00600081A023C00FC47002096
:1001C000F04B00200000000085900008270004008C
:1001D000304C00202C4C002000000000E2060008FB
:1001E00014000300C85400205C56002000000000EA
:1001F000E60600081010030020560020605600207C
:1002000000000000EA060008281010001056002028
:100210006456002000000000958B010823001000A8
:100220002C5200207456002000000000AD8B010805
:10023000F821060008560020845600200000000027
:10024000EE0600080E502C01BE4C00208C560020FB
:1002500000000000C98C04080902010014550020A8
:10026000B857002000000000F40600080C1014012C
:10027000344E0020BC57002000000000E10F0208AF
:100280000002050058520020D05800200000000055
:100290000000000007020200185F00203C5F002001
:1002A00000000000F606000802000C00F05E0020CE
:1002B000405F0020000000000000000006020C006B
:1002C000E45E00204C5F002000000000718F0008F9
:1002D00008120900D45E0020585F002000000000D2
:1002E00091840008F7010600CA5E0020645F0020C8
:1002F00000000000F80600080A020A00445E002020
:100300006C5F002000000000FE06000803000100F2
:1003100060590020785F002000000000000000000D
:100320001B0208009C65002090790020000000005E
:1003300041840008012008001478002098790020EA
:10034000000000000807000819000500A078002040
:10035000A0790020000000001007000837001E00F0
:1003600078780020A8790020000000001607000817
:100370001E0005007C630020C879002000000000FA
:10038000340700081B00F4009C600020D079002096
:100390000000000049CB02080E020200F86A0020AB
:1003A000C47A0020000000003A0700082F00110066
:1003B0002C790020C87A0020000000003C070008CB
:1003C0000510060070790020DC7A00200000000093
:1003D0004E07000826000E00F47A0020E47A002080
:1003E00000000000A5B202081F201C00746000205D
:1003F000287B0020000000005407000805020400CC
:1004000004660020447B0020000000007007000804
:10041000031233008E800020B6840020000000000C
:100420007407000825009600C28000201084002078
:100430000000000000000000150070004582002050
:100440002883002000000000000000002A00600057
:100450008C7D0020C882002000000000A58A0408CE
:100460002C001000B6820020A684002000000000AE
:10047000FD2A03082B0024005C810020E984002071
:1004800000000000CD2A030829107800147D002008
:10049000988300200000000000000000040080009D
:1004A000E4B300209CB40020000000000000000025
:1004B0000D00340080B300201CB5002000000000B7
:1004C000254D04081300040064AA002050B5002044
:1004D00000000000A8070008F6210C0068AA002010
:1004E00054B5002000000000AC07000812200D00E9
:1004F000F8A9002060B5002000000000B80700083F
:10050000F531700088A9002070B5002000000000BF
:1005100065F302080B20100078A90020E0B5002048
:1005200000000000C60700080101040074A90020B3
:10053000F0B50020000000000000000000010400F1
:1005400070A90020F4B5002000000000D6070008C4
:10055000020103006CA90020F8B500200000000093
:1005600069100208FD0124002CA90020FCB5002020
:1005700000000000A904010818202C00FCA800209D
:1005800020B60020000000000593000806101800A7
:10059000589C00204CB60020000000002D8D04085F
:1005A000FB010100549C002064B600200000000004
:1005B00069930008FC010900209B002068B6002018
:1005C00000000000799300080A40260058850020AA
:1005D00074B6002000000000DA07000834001000A4
:1005E000449A00209CB6002000000000018D040801
:1005F000110208001C9A0020ACB600200000000088
:100600000008000812120400149A0020B4B600205A
:100610000000000008080008FF010800608E0020AC
:10062000B8B6002000000000B5D20008F9010400AF
:10063000F48D0020C0B60020000000002105010854
:1006400018020200FC870020C4B600200000000051
:100650000000000017020B00F0870020C8B6002041
:10066000000000004D840008FA010200CC87002041
:10067000D4B6002000000000DD850008FE0109005E
:10068000A4870020D8B6002000000000C98400081C
:1006900003010A0078DB002010DC002000000000CD
:1006A0000C0800081302030034D100201CDC0020D9
:1006B000000000001608000816000800C8EC002022
:1006C000D0EC0020000000001A0800081A000E00FC
:1006D000B0EF00204CF000200000000022080008CD
:1006E00000002003000003000000000500000400DB
:1006F000F40119003900013C18010000000000005D
:100700004A01B400D6010000E8036400040A0001B5
:1007100000002801000020003200C800D007960029
:10072000140032002800B0044006000550001400F8
:100730000F000801000001000000000000000000A0
:100740000000000000000000000000000000200089
:100750000201000000000000000100000005000090
:100760000102030000000000000000000000000083
:100770000000000000000000000000000000000079
:100780000000000000000000000000000000000069
:100790000000000000000000000000000000000059
:1007A0000000000000000100080000300000000010
:1007B00001000000020200000000000100000546E8
:1007C0005946340000002B21231E64010200000062
:1007D00001000A0129009001000000300100000022
:1007E000000000005A0000000000000000000000AF
:1007F000020200019E077D004632900120000000A9
:100800000000000001010101FFFFFFFF04010100E2
:100810006C160000000000000000651B0D001901AF
:1008200028287E05EA05B4053200E803D007000059
:100830001A0300000000000000000000000000009B
:100840000000000000000000000000000403090494
:100850001201000200000040830420570002010240
:10086000030100002D990008398500088D980008C3
:100870001D850008E99800089D9800080D8500086E
:10088000D800002005CB0008258500082185000838
:100890001985000895930008158500081185000842
:1008A00098140508ED210408F5FC03082D2D040813
:1008B0000000000000000000312A04084D2904084F
:1008C0000000000000000000000000002DF80308F8
:1008D000D1850008C585000889990008A5990008F8
:1008E0007D8500086D9900085199000850010000AD
:1008F00007000000020000000000000000000000EF
:100900000102030406070809008002021F0000001C
:1009100053544D202020202050726F647574202085
:100920002020202020202020302E3031685E0C0036
:10093000010102FFFF0000000101010079840108AC
:100940000000000080020020A876050800000000DA
:100950000000000000000000000000007879050899
:10096000000000000000000005030020040000005B
:10097000FC7405080D000000F9B50108881C002072
:1009800000000000746E05080D00000021B601088B
:100990007C1C002000000000F46F05080800000027
:1009A00000000000701C002004000000E06E05083C
:1009B0000D00000021850108641C002000000000DB
:1009C000A46F05080300000045B80108581C00206A
:1009D00000000000B87605080300000045B80108D3
:1009E0004C1C002000000000A86A0508010000005F
:1009F00000000000000000000000000000000000F7
:100A00000E000000000000000000000000000000D8
:100A1000A8760508000000000000000000000000AB
:100A200000000000787905080000000000000000C8
:100A30000503002004000000A8740508030000005E
:100A4000C5A20108401C002008000000E06E050857
:100A50000D00000021850108641C0020000000003A
:100A6000A46F05080300000045B80108581C0020C9
:100A700000000000B87605080300000045B8010832
:100A80004C1C002000000000A86A050801000000BE
:100A90000000000000000000000000000000000056
:100AA0000E00000000000000000000000000000038
:100AB000C0760508000000000000000000000000F3
:100AC0000000000078790508000000000000000028
:100AD0000503002004000000B074050803000000B6
:100AE00045B80108941C002000000000A86A050811
:100AF00001000000000000000000000000000000F5
:100B0000000000000E0000000000000000000000D7
:100B10000000000020700020702D7200D60100003F
:100B200000010101000000000000000000000000C2
:100B3000FC170020012D202D2D202D2D2D2D202DB9
:100B40002D2D00000000000000000000000000004B
:100B500000000000FFFFFFFFFA000000010000009E
:100B60000100000001000000786A0508806A05089D
:100B7000A06A05080000000000000000000000005E
:100B8000000000006164050804000000C5B301080E
:100B90000000000000000000A86A05080100000035
:100BA0000000000000000000000000000000000045
:100BB0000E00000000000000000000000000000027
:100BC00084B400200100C4090000000082B40020A9
:100BD0000100C4090000000080B400200100C40925
:100BE000000000007EB400200100C40900000000E5
:100BF0007AB400200100C409000000007CB4002089
:100C00000100C4090000000078B400200100C409FC
:100C10000000000076B400200100C40900000000BC
:100C2000544C00200100C80001000000524C00207C
:100C30003200307532000000504C0020055A05008B
:100C40004D4C002000FF01004F4C0020010000002F
:100C5000380300204B4C002002000000E42E050861
:100C60004C4C002000FF01004E4C00200100000011
:100C7000380300204A4C002002000000E42E050842
:100C8000484C002080C1803E05000000464C0020FA
:100C900080C1803E05000000444C002080C1803EA1
:100CA00005000000424C002080C1803E050000008D
:100CB000414C002000FF0100404C00200A3201009E
:100CC0003F4C002004000000042705083E4C002093
:100CD00002000000182705080000000000000000C6
:100CE00040030020BCDB00209CFF2C010000000022
:100CF000080100200A00000024270508344C0020C9
:100D0000E0150C17000000000A0100200800000098
:100D10003457050809010020050000005428050883
:100D2000364C0020020000003C270508664F0020DA
:100D30000100FF7F01000000654F0020020000005D
:100D400048270508F84D002003004000010000007E
:100D5000F64D00200000803E01000000F44D002010
:100D60000000F40101000000F24D00200000F40139
:100D700001000000F04D00200000F401010000001F
:100D8000EE4D00200000F40101000000EC4D0020B9
:100D90000000803E01000000EA4D00200000803E7F
:100DA00001000000144E0020E803D0070A000000F4
:100DB000124E0020006401000A000000074E0020CF
:100DC00000640100064E0020006401000E4E002069
:100DD000006401000A0000000D4E002000640100C4
:100DE0000A0000000C4E0020006401000A00000010
:100DF000114E0020006401000A000000104E002087
:100E0000006401000A0000000F4E00200064010091
:100E10000A0000000B4E002000FF01000A00000045
:100E20000A4E002000FF01000A000000094E0020C9
:100E300000FF01000A000000BA4C00200000F4018D
:100E400001000000B84C00200000F4010100000087
:100E5000B64C00200000F40101000000B44C00205A
:100E60000000F40101000000B24C00200000F40179
:100E700001000000044E002000640100024E00202A
:100E80001400E80301000000004E0020E803307564
:100E90000A000000FE4D002000C80100FD4D0020AA
:100EA00000C80100FC4D002000C80100FB4D0020DF
:100EB000006401000A0000004B4F002001C801003F
:100EC0004A4F0020010A01005A4F00200000D007BD
:100ED00001000000544F002000C80100534F0020C3
:100EE00000C80100524F002000C80100584F0020E8
:100EF0000000D00701000000514F002000C8010091
:100F0000504F002000C801004F4F002000C80100D2
:100F1000564F00200000D007010000004E4F002077
:100F200000C801004D4F002000C801004C4F0020B8
:100F300000C80100494F00200100000058270508A3
:100F4000DC6A05080000000000000000000000004E
:100F500000000000EC6A0508090000000000000025
:100F6000E403002004000000F46A05080900000002
:100F700000000000D803002004000000B47205083F
:100F80000900000000000000CC0300200400000065
:100F9000487B05080900000000000000C003002095
:100FA00004000000FC6A05080900000000000000C1
:100FB000B403002004000000046B050809000000D1
:100FC00000000000A8030020040000000C6B0508CE
:100FD00009000000000000009C0300200400000045
:100FE000146B0508090000000000000090030020B9
:100FF00004000000A86A05080100000000000000CD
:101000000000000000000000000000000E000000D2
:10101000000000000000000000000000546D050802
:1010200000000000000000000000000000000000C0
:10103000D0AC0508070000000000000008040020F4
:1010400000000000646D05080800000000000000BA
:10105000FC03002000000000706D0508080000007F
:1010600000000000F003002000000000A86A05084E
:10107000010000000000000000000000000000006F
:10108000000000000E000000000000000000000052
:1010900000000000786D050800000000000000005E
:1010A0000000000000000000886D05080D00000031
:1010B000000000004404002000000000906D0508BE
:1010C0000D000000000000003804002000000000B7
:1010D000986D0508070000000000000030040020A3
:1010E00000000000A06D05080D00000000000000D9
:1010F0002404002000000000A86D05080D00000079
:10110000000000001804002000000000B06D050879
:101110000700000000000000100400200000000094
:10112000A86A05080100000000000000000000009F
:1011300000000000000000000E00000000000000A1
:101140000000000000000000B86D0508000000006D
:10115000000000000000000000000000D0AC050806
:101160000C00000000000000564C002000000000B1
:10117000CC6D05080C00000000000000584C002059
:1011800000000000DC6D05080C00000000000000FD
:101190008E4C002000000000EC6D05080C000000E3
:1011A00000000000824C002000000000006E0508D6
:1011B0000C000000000000005A4C0020000000005D
:1011C0000C6E05080C000000000000005C4C0020C4
:1011D00000000000146E05080C0000000000000074
:1011E0005E4C002000000000286E05080C00000086
:1011F00000000000604C002000000000306E050878
:101200000C00000000000000624C00200000000004
:10121000386E05080C00000000000000A04C002003
:1012200000000000506E05080C00000000000000E7
:10123000644C0020000000005C6E05080C000000FB
:1012400000000000664C002000000000646E0508ED
:101250000C00000000000000684C002000000000AE
:10126000706E05080C000000000000006A4C0020B1
:10127000000000007C6E05080C000000000000006B
:101280006C4C002000000000886E05080C00000077
:10129000000000006E4C002000000000946E050865
:1012A0000C00000000000000704C00200000000056
:1012B000A06E05080C00000000000000724C002029
:1012C00000000000AC6E05080C00000000000000EB
:1012D000864C002000000000B46E05080C000000E1
:1012E00000000000844C002000000000BC6E0508D7
:1012F0000C00000000000000924C002000000000E4
:10130000C86E05080C00000000000000944C00208E
:1013100000000000D46E05080C0000000000000072
:101320009A4C002000000000C46B05080C0000006F
:1013300000000000744C002000000000E06E050872
:101340000C000000000000007C4C002000000000A9
:10135000E86E05080C00000000000000764C00203C
:1013600000000000F46E05080C0000000000000002
:10137000784C002000000000006F05080C00000001
:10138000000000007A4C002000000000086F0508F3
:101390000C000000000000007E4C00200000000057
:1013A000146F05080C00000000000000884C0020AD
:1013B000000000001C6F05080C0000000000000089
:1013C000804C002000000000286F05080C00000081
:1013D00000000000904C002000000000346F050861
:1013E0000C000000000000008A4C002000000000FB
:1013F0003C6F05080C000000000000008C4C002031
:1014000000000000446F05080C0000000000000010
:10141000964C0020000000004C6F05080C000000F6
:1014200000000000984C002000000000546F0508E8
:101430000C00000000000000AA4C0020000000008A
:10144000A86A05080100000000000000000000007C
:1014500000000000000000000E000000000000007E
:1014600000000000000000005C6F050800000000A4
:10147000000000000000000000000000686F050888
:101480000D000000000000009C040020000000008F
:10149000706F05080D00000000000000900400209F
:1014A00000000000786F0508070000000000000041
:1014B0008804002000000000846F05080700000079
:1014C000000000008004002000000000906F05086C
:1014D000090000000000000074040020000000006B
:1014E0009C6F05080900000000000000680400204F
:1014F00000000000A86F05080900000000000000BF
:101500005C04002000000000B86F0508090000001E
:10151000000000005004002000000000A86A050838
:1015200001000000000000000000000000000000BA
:10153000000000000E00000000000000000000009D
:1015400000000000CC6F0508000000000000000053
:101550000000000000000000DC6F0508050000002E
:1015600000000000B14C002000000000A86A05083F
:10157000010000000000000000000000000000006A
:10158000000000000E00000000000000000000004D
:1015900000000000E46F05080000000000000000EB
:1015A000000000000000000078790508000000003D
:1015B00000000000F820002004000000F06F050883
:1015C0000D00000029B40108F00400200000000014
:1015D000FC7405080D00000031840108E4040020BB
:1015E00000000000746E05080D000000158401085D
:1015F000D804002000000000F46F05080800000077
:1016000000000000CC04002004000000E06E05088B
:101610000D00000061830108C004002000000000EC
:10162000FC6F05080900000000000000B404002061
:1016300004000000A46F05080300000045B801087D
:10164000A804002000000000A86A050801000000AE
:10165000000000000000000000000000000000008A
:101660000E0000000000000000000000000000006C
:1016700004700508000000000000000000000000E9
:1016800000000000147005080D00000000000000BC
:1016900008050020000000001C7005080A0000007A
:1016A00000000000E552002000000000287005083E
:1016B0000A00000000000000ED52002000000000C1
:1016C000307005080A00000000000000F5520020FC
:1016D000000000003870050808000000000000004D
:1016E000FC04002000000000407005080400000019
:1016F00065BA01080000000000000000A86A0508A3
:1017000001000000000000000000000000000000D8
:10171000000000000E0000000000000000000000BB
:10172000000000004C7005080000000000000000F0
:1017300000000000000000006070050808000000C4
:101740000000000068050020000000006C70050823
:1017500008000000000000005C0500200000000000
:101760007870050808000000000000005005002007
:101770000000000084700508080000000000000060
:1017800044050020000000009070050808000000DB
:101790000000000038050020000000009C700508D3
:1017A00008000000000000002C05002000000000E0
:1017B000A8700508080000000000000020050020B7
:1017C00000000000B47005080800000000000000E0
:1017D0001405002000000000A86A050801000000B0
:1017E00000000000000000000000000000000000F9
:1017F0000E000000000000000000000000000000DB
:10180000C07005080000000000000000E702002092
:1018100000000000CC7005080B0000000000000074
:10182000FC05002000000000D87005080B00000037
:1018300000000000F005002000000000E470050832
:101840000B00000000000000E40500200000000084
:10185000F07005080B00000000000000D805002013
:1018600000000000FC7005080B00000000000000F4
:10187000CC05002000000000087105080B000000E6
:1018800000000000C00500200000000014710508E1
:101890000B00000000000000B40500200000000064
:1018A000207105080B00000000000000A8050020C2
:1018B000000000002C7105080B0000000000000073
:1018C0009C0500200000000038710508070000009A
:1018D0000000000094050020000000004071050891
:1018E00007000000000000008C0500200000000040
:1018F0004C7105080B00000000000000800500206E
:1019000000000000587105080800000000000000F9
:101910007405002000000000A86A0508010000000E
:1019200000000000000000000000000000000000B7
:101930000E00000000000000000000000000000099
:1019400064710508000000000000000000000000B5
:101950000000000078710508080000000000000089
:10196000380600200000000084710508080000000F
:10197000000000002C060020000000009071050807
:101980000800000000000000200600200000000009
:101990009C710508080000000000000014060020EB
:1019A00000000000A8710508080000000000000009
:1019B0000806002000000000A86A050801000000D9
:1019C0000000000000000000000000000000000017
:1019D0000E000000000000000000000000000000F9
:1019E000B07105080000000000000000E4020020C3
:1019F00000000000C07105080B000000000000009E
:101A00007C06002000000000CC71050807000000E3
:101A1000000000007406002000000000D8710508D6
:101A200007000000000000006C060020000000001D
:101A3000E4710508070000000000000064060020B3
:101A400000000000F0710508080000000000000020
:101A50005806002000000000F8710508080000008A
:101A6000000000004C060020000000000072050885
:101A700007000000000000004406002000000000F5
:101A8000A86A050801000000000000000000000036
:101A900000000000000000000E0000000000000038
:101AA00000000000000000000C72050800000000AB
:101AB00000000000E4020020000000001872050889
:101AC0000D000000000000000407002000000000DE
:101AD000247205080700000000000000FC0600203A
:101AE000000000002C720508070000000000000044
:101AF000F406002000000000347205080700000012
:101B000000000000EC060020000000003C72050808
:101B10000800000000000000E006002000000000B7
:101B2000447205080700000000000000D8060020ED
:101B3000000000004C7205080700000000000000D3
:101B4000D0060020000000005472050807000000C5
:101B500000000000C8060020000000005C720508BC
:101B60000800000000000000BC060020000000008B
:101B7000647205080700000000000000B4060020A1
:101B8000000000006C720508070000000000000063
:101B9000AC06002000000000747205080700000079
:101BA00000000000A4060020000000007C72050870
:101BB000080000000000000098060020000000005F
:101BC0008472050807000000000000009006002055
:101BD000000000008C7205080700000000000000F3
:101BE0008806002000000000A86A05080100000027
:101BF00000000000000000000000000098720508CE
:101C000002000000F9BA0108010000000000000015
:101C1000000000000E0000000000000000000000B6
:101C200000000000000000002587010810070020C8
:101C3000AF4C00202C00000060270508AE4C0020AF
:101C400000C80100AC4C0020E803D00701000000F0
:101C50004655525946340000718601084D860108E8
:101C6000EC07002015860108D585010864080020CE
:101C7000AD860108958601081809002089850108AC
:101C800045850108380C00203B87010849B601084A
:101C9000140D00209D83010800000000640D002049
:101CA00041BA0108F5890108400E00201188010899
:101CB000D1870108F40E0020AD880108F9880108D9
:101CC000D00F0020054E0020010601009587010875
:101CD00061870108101100205188010879B60108B8
:101CE000B011002029890108D5B60108781200201A
:101CF000FA4D002001030100A47205080000000055
:101D0000000000000000000000000000B0720508A4
:101D10000800000000000000141400200000000073
:101D2000B872050807000000000000000C14002035
:101D300000000000C87205080D000000000000004F
:101D40000014002000000000D47205080300000009
:101D500045B80108F413002000000000A86A050837
:101D60000100000000000000000000000000000072
:101D7000000000000E000000000000000000000055
:101D800000000000DC7205080000000000000000F8
:101D90000000000000000000EC7205080A000000CE
:101DA00000000000F472050800000000FC72050845
:101DB0000A00000000000000D163050800000000D8
:101DC000047305080A000000000000005C4F0020BA
:101DD000000000000C7305080A000000000000006D
:101DE0002014002000000000A86A0508010000007F
:101DF00000000000000000000000000000000000E3
:101E00000E000000000000000000000000000000C4
:101E1000147305080000000000000000000000002E
:101E200000000000207305080300000045B8010809
:101E300040140020000000002C730508030000007F
:101E400045B8010834140020000000003473050870
:101E50000300000045B8010828140020000000001D
:101E6000A86A050801000000000000000000000052
:101E700000000000000000000E0000000000000054
:101E800000000000000000003C7305080000000096
:101E90000000000000000000000000005073050872
:101EA0000300000045B80108701400200000000085
:101EB0005C7305080300000045B801080C01002010
:101EC00000000000647305080300000045B8010825
:101ED00064140020000000006C730508030000007B
:101EE00045B801085814002000000000E06E050805
:101EF0000300000045B801084C1400200000000059
:101F0000A86A0508010000000000000000000000B1
:101F100000000000000000000E00000000000000B3
:101F200000000000000000007873050800000000B9
:101F30000000000000000000000000008873050899
:101F4000070000004DB70108C01400200000000089
:101F5000046F05080300000045B80108B414002010
:101F600000000000947305080300000045B8010854
:101F7000A8140020000000009C7305080300000066
:101F800045B801089C14002000000000A473050857
:101F90000700000031B70108941400200000000081
:101FA000887B05080300000045B80108881400205C
:101FB00000000000B07305080300000045B80108E8
:101FC0007C14002000000000A86A05080100000041
:101FD0000000000000000000000000000000000001
:101FE0000E000000000000000000000000000000E3
:101FF000F5860108C5860108C8140020C1890108BA
:102000000000000054150020D1850108CD8501088D
:10201000E01500200000000000000000581600201D
:102020009989010869B70108F8160020BC730508F2
:1020300000000000000000000000000000000000A0
:10204000C87305080300000045B80108F017002018
:1020500000000000D07305080300000045B8010827
:10206000E417002000000000DC73050803000000F6
:1020700045B80108D817002000000000E0730508EB
:102080000300000045B80108CC1700200000000044
:10209000EC7305080300000045B80108C0170020D4
:1020A00000000000F473050802000000F9BA0108FE
:1020B0000000000000000000987205080200000007
:1020C000F9BA01080100000000000000FC730508D7
:1020D00002000000F9BA0108020000000000000040
:1020E000000000000E0000000000000000000000E2
:1020F000000000003A4C002088136F170100000018
:102100003C4C002088136F1700000000087405087D
:1021100000000000000000000000000000000000BF
:10212000187405080800000000000000D018002006
:1021300004000000247405080800000000000000EE
:10214000C418002000000000A46F0508040000006F
:102150004DB401080000000000000000A86A050856
:10216000010000000000000000000000000000006E
:10217000000000000E000000000000000000000051
:1021800000000000384C002088136F170100000089
:10219000FEDB002088136F1700000000D9840108BF
:1021A00000000000DC18002089520020010000001F
:1021B0001428050800DC0020010000002028050884
:1021C000F6DB002002000000282805080ADA0020BB
:1021D000000000000000000008DA002000000000FD
:1021E0000000000006DA00200000000000000000EF
:1021F00004DA0020000000000000000002DA0020E5
:10220000000000000000000000DA002000000000D4
:10221000000000003021002000000000000000004D
:10222000374C0020020000003428050860740508BF
:10223000000000000000000000000000000000009E
:102240001874050808000000000000006019002054
:1022500004000000247405080800000000000000CD
:102260005419002000000000A46F050804000000BD
:10227000AD8401080000000000000000A86A050805
:10228000010000000000000000000000000000004D
:10229000000000000E000000000000000000000030
:1022A000000000007074050800000000000000003D
:1022B0000000000000000000807405080D00000010
:1022C0009DB5010890190020040000008C740508D9
:1022D0000D000000FD8401088419002004000000A6
:1022E000987405080D00000061B5010878190020F8
:1022F00000000000A474050803000000E5A2010826
:102300006C19002008000000B074050803000000EC
:1023100045B80108941C002000000000A86A0508C8
:1023200001000000000000000000000000000000AC
:10233000000000000E00000000000000000000008F
:1023400000000000A06A0508000000000000000076
:1023500000000000000000006164050804000000A7
:1023600065B401080000000000000000A86A05082C
:10237000010000000000000000000000000000005C
:10238000000000000E00000000000000000000003F
:1023900000000000047505080000000000000000B7
:1023A0000000000000000000649305080D0000001C
:1023B00000000000F019002004000000147505085A
:1023C0000800000000000000E419002004000000E4
:1023D000207505080800000000000000D819002042
:1023E0000400000028750508080000000000000037
:1023F000CC1900200400000030750508080000001A
:1024000000000000C0190020040000003875050815
:102410000800000000000000B419002004000000C3
:10242000407505080800000000000000A819002001
:1024300004000000487505080800000000000000C6
:102440009C19002004000000A86A05080100000093
:10245000000000000000000000000000000000007C
:102460000E0000000000000000000000000000005E
:10247000C584010800000000FC19002000000000D5
:1024800000000000741A002000000000000000009E
:10249000141B0020FCDB002004000000402805087D
:1024A000FADB0020E0150C1700000000F9DB00202B
:1024B0000800000034570508F8DB00200500000084
:1024C000542805080000000000000000641B0020E4
:1024D000FF000000082B05080508040000000000AC
:1024E0005428050834570508402805080000000056
:1024F00000000000342B050805080A000000000059
:102500005428050834570508242705080000000052
:102510000000000001000000000001FFFF010000BA
:102520000000803FFF1FFF1F047B00200000000011
:10253000381D0020040000000000803F0000000063
:10254000000000000000000000000000000000008B
:10255000000000000000000000000000000000007B
:1025600001000000FFFFFFFF000200051002700BDA
:1025700001FFFF00FFFFFFFF21F703081DF703081E
:1025800019F703080DF7030809F7030815F70308FF
:1025900011F70308006002401060024000000000D4
:1025A00000000000000B0000000000000000000020
:1025B00000000000006002402860024001000000AE
:1025C00000000000060C00000000000000000000F9
:1025D0000000000000600240406002400200000075
:1025E00000000000100D00000000000000000000CE
:1025F000000000000060024058600240030000003C
:1026000000000000160E00000000000000000000A6
:102610000000000000600240706002400400000002
:1026200000000000200F000000000000000000007B
:1026300000000000006002408860024005000000C9
:102640000000000026100000000000000000000054
:102650000000000000600240A06002400600000090
:102660000000000030110000000000000000000029
:102670000000000000600240B86002400700000057
:1026800000000000362F00000000000000000000E5
:1026900000000000006402401064024000000000DE
:1026A00000000000003800000000000000000000F2
:1026B00000000000006402402864024001000000A5
:1026C00000000000063900000000000000000000CB
:1026D000000000000064024040640240020000006C
:1026E00000000000103A00000000000000000000A0
:1026F0000000000000640240586402400300000033
:1027000000000000163B0000000000000000000078
:1027100000000000006402407064024004000000F9
:1027200000000000203C000000000000000000004D
:1027300000000000006402408864024005000000C0
:10274000000000002644000000000000000000001F
:102750000000000000640240A06402400600000087
:1027600000000000304500000000000000000000F4
:102770000000000000640240B8640240070000004E
:1027800000000000364600000000000000000000CD
:10279000000000000100000004030904120100020F
:1027A000EF020140830456320002010203010000DF
:1027B000120100020202004083044057000201029D
:1027C0000301000009022000010104C032090400D5
:1027D00000020806500507058102400000070501B8
:1027E0000240000009026400030100C03209040035
:1027F0000001030000000921110100012226000749
:1028000005830308000A080B010202020100090403
:10281000010001020201000524001001052401004D
:1028200002042402020524060102070582030800AF
:10283000FF09040200020A0000000705010240002F
:10284000000705810240000009024300020100C0A8
:1028500032090400000102020100052400100105F4
:102860002401000104240202052406000107058258
:10287000030800FF09040100020A00000007050127
:10288000024000000705810240000000FF00000038
:1028900000FFFF0000000000AA5505010000000035
:1028A00005010905A101A10005010930093109321D
:1028B000093309350934094009381581257F750820
:1028C00095088102C0C0000009022200010100E059
:1028D0003209040000010301020009211101000175
:1028E0002226000705830308000A000000000000FC
:1028F000010203040102030406070809912C0408DD
:10290000952B0408ED2F0408F1F8030869FE03086D
:1029100001F903081DF90308C9F80308B9F8030809
:1029200000000000000000002D202D2D202D2D2D59
:102930002D202D2D2D2D0000000000000000000096
:1029400000000000000000AA550B010000AA550776
:10295000010000AA5509020000000000010000006B
:10296000C012AA5503009F0000000000E8EC002000
:102970000800000000000000D8EC00200800000063
:102980004DFE030839FD0308C92F040800000000AC
:10299000B5F80308812B040889FC0308F92A040808
:1029A000000000000000000071F8030831F7030880
:1029B00025F70308FD20040819210408E120040874
:1029C000C5200408A920040805FE030815FD030816
:1029D000092F04080000000089F80308FD2A0408F4
:1029E0005DFC0308592A04080000000000000000F4
:1029F0007DF803081F852B3F0000803F000000008A
:102A000000000000000000000000803F0000000007
:102A100000000000000000000000803F00000000F7
:102A200000000000000000000000803F00220020A5
:102A30000000000000000000000000000000000096
:102A40000000000000000000000000000000000086
:102A50000000000000000000000000000000000076
:102A60000000000000000000000000000000000066
:102A70000000000000000000000000000000000056
:102A80000000000000000000000000000000000046
:042A90000100000041
:1080000003685A1C02601970704700BF2DE9F047E1
:10801000089C2578002B804689460CBF4FF0200A2B
:108020004FF0300A661C25B3002A26DD334601E0F6
:10803000024698B113F8011B501E0029F8D1971E73
:1080400060B13D46013D51464046C8476B1C002B80
:10805000F8DC257827EAE770013045B1041B294692
:108060004046C847301916F8015B002DF7D1BDE82E
:10807000F087002A03DC2846F9E70020EEE7571EC8
:10808000DFE700BF2DE9F04714461D4606464FF4D2
:108090007A7200232046294646F0D6FA4D4BDFF887
:1080A00048814D4A4D4F034488FB03101844D917AB
:1080B00082FB032CC1EB601088FB002887FB0327A1
:1080C0009C44474AC1EBEC2CC0EB001E82FB0C2900
:1080D000A3EB8E0E1F44434A86F806E0C1EB274708
:1080E0004FEAEC7E08EB000ACEEBA90E82FB07827A
:1080F0004FEAE0780EEB4E0EC8EB6A18ACEBCE0CF4
:10810000C8EB0818DFF8E4E086F804C0A0EB8800AC
:1081100070718EFB0303F817C0EBE21240F2B5500A
:1081200000FB1272C1EBE353B2F5896F4FEA83078C
:108130003CDA40F2DA239A4242DCB2F5B77FB4BFB0
:108140004FF0000E4FF0010E4FEA4E09DFF8A0800D
:1081500009EB0E0308EBC3031FFA8EFCD88A09EB68
:108160000E0108EBC10116310B2301E031F8020DBD
:10817000904218DD013BF9D1CE44012338F83E008E
:10818000B37007F5FA670132121ABC44F270A6F810
:1081900000C0204629464FF47A72002346F054FA74
:1081A0003281BDE8F0870133DBB2E9E74FF0030C21
:1081B000E64640F29650DFF838804FF00609CEE7E9
:1081C0004FF0020CDFF82880E64640F229404FF0DD
:1081D0000409C4E780BC92C7C5B3A29107452EC26B
:1081E000ABAAAA2A73B06D1689888888792D0311E5
:1081F0002C12050830B403888278C478154DA3F595
:10820000FA6303F0030101EB4101013A02EB810241
:108210009B0835F812500279611E40F2B55404FBF8
:1082200003132B4403EB430302EBC303427984792A
:1082300009490089C3EB031302EB83032144C3EB19
:10824000031301EB83034FF47A720021C2FB030195
:1082500030BC70472C12050880436D380028F0B4FC
:1082600003DA2D230B7040420131092804464FF0F8
:10827000010307DD03EB83035B00B0FBF3F2092A84
:10828000F8D883B10F48A0FB0326B4FBF3F2092A08
:1082900002F1570C02F1300709DD03FB1244F30829
:1082A00001F801CBEFD100230B70F0BC704703FB4A
:1082B0001244F30801F8017BE5D100230B70F0BCF8
:1082C000704700BFCDCCCCCC884270B44FF00104D5
:1082D00042D301FB04F4B0FBF4F58D42F9D2ECB1CA
:1082E00042BB092D04FB150005F1570605F13002CC
:1082F0000EDDB4FBF1F403F8016B7CB1B0FBF4F5D7
:10830000092D04FB150005F1570605F13002F0DCDC
:10831000B4FBF1F403F8012B002CEFD100221A700A
:1083200070BC704703F8016BB4FBF1F4002CF5D07E
:10833000B0FBF4F5092D04FB150005F1370605F136
:108340003002EFDCB4FBF1F403F8012B002CEFD189
:1083500000221A7070BC70470546002AEAD1C0E7B7
:1083600090ED057A90ED004AD0ED066AD0ED014A15
:10837000D0ED047A90ED035AD0ED025AA4EE007AC3
:10838000B0EE406AB0EE470AB0EE667AA4EE867AA6
:1083900067EEC07AA5EE407AE5EE867A80ED057A42
:1083A000C0ED067A704700BFD0ED057A90ED013A36
:1083B000D0ED003AD0ED064A90ED024A90ED077AF2
:1083C00090ED035A90ED086AD0ED045AC0ED067A9C
:1083D000F0EE406A27EE830AC0ED056AA3EEA60A16
:1083E00080ED087AA4EE240AA5EE470AA5EEC60A97
:1083F00080ED070A704700BFD0ED007A90ED017A5A
:1084000030EE670AE7EE007AB0EE670AC0ED007A58
:10841000704700BF80ED010A704700BF07EE900A69
:10842000DFED056AB8EEE77AC6EE877A77EE807AF6
:1084300080EE270A704700BF83F9223E704700BFD5
:1084400006224FF47A73027043607047F0B400253F
:108450000E4E00F1FF3C2F46142165B103788B428C
:108460000BD003460CEB050403E013F8012F8A42FE
:1084700003D0A342F9D1C155013701350B2D02D0EC
:1084800016F8011FE9E7F0BC704700BF8C12050821
:108490000C4AF0B4002302F108071726162515240C
:1084A00003EB4303C118BA42C4544D708E7006D01A
:1084B00092F9043054799579D6790432F0E7F0BC1A
:1084C000704700BF98120508012310B433213124EE
:1084D000322244704171C270037203700371837061
:1084E0005DF8044B704700BF30B41D6995420AD354
:1084F00014460A4621448D42996938BF2A1B2144FB
:1085000030BC46F0F1BA30BC704700BF0020704765
:1085100000207047012070470120704700207047FD
:10852000002070474FF40070024B10609B680B6096
:1085300000207047688E002003484FF40073806A63
:108540000860002013607047F88D0020013A30B4B5
:10855000D2B28C1C04EB42040025020F092AD3B2CC
:1085600003F130028ABF37330A700B704D7002314D
:108570008C424FEA0010F0D130BC70470B4A0C4BD4
:1085800010681B681A22C0180A8001D10948704778
:1085900010B5094B09491C680822FFF7D7FF204690
:1085A00004220749FFF7D2FF024810BDE8F7FF1F7A
:1085B000ECF7FF1F00000020EAF7FF1F0200002079
:1085C0001200002004230B80004870471C0000208C
:1085D00012230B8000487047200000202322032331
:1085E00002704370704700BF08307047704700BF8B
:1085F000816170476D4B2DE9F04F1C686C4BB3F8EF
:108600000AE0B3F804809A894FEA0E2AB4EB0A0410
:108610004FEA1E6B4FF0000587B065EB0B05CDE907
:1086200000450746009C1889019EA0FB044500FBFD
:108630000655E00940EA45604FEA08448C46E911D6
:108640004FEA184510EB0408D888009C41EB050957
:10865000CDE90489A0FB0445B3F8028000FB065570
:10866000200A40EA05604FEAC83429124FEA58450B
:1086700010EB040841EB05090099A2FB010102FB84
:1086800006114FEAD05A4AEA412A1AF5FA634FEA2C
:10869000E15B4BF10004B3F5FA6FCDE9023474F1FC
:1086A0000003424E64DA0524AAFB040104FB0B110B
:1086B00000FB0BF40AFB0144DDE90423A0FB0A01E3
:1086C00021444D104FEA3004121B4FEA900463EB33
:1086D000050344EA8174B8EB0408CDE90423DDE91D
:1086E000023434484FEAA10569EB05094FF0FF3128
:1086F000834274EB010326DA40F6AC501AEB000219
:108700004FF000014BEB010302FB03F1A2FB02233C
:1087100003EB4103D400DD00101B45EA527563EB07
:108720000501DDE9044524184D41CDE904450B243C
:10873000A2FB040104FB031149104FEA3000B8EB1F
:10874000000869EB0109DDE900325343009ADDE9D5
:108750000201A2FB02AB0BEB430B4FEADA7242EAD7
:108760004B02801A4FEAEB7361EB0301CDE9020182
:1087700097B17168A1FB082301FB0933540D5D1506
:1087800044EAC324DDE90423A21A65EB03031D4672
:10879000D30B43EA45433B60BCF1000F02D0029B80
:1087A000CCF8003007B0BDE8F08F00BF6822002091
:1087B0002856002024FAFFFF012380F85730704725
:1087C0000022082302754375704700BF002208236A
:1087D00002754375704700BF002208230275437578
:1087E000704700BF0022082302754375704700BF21
:1087F000F0B4037C456902681F2B37D9203B202148
:10880000546899400C4223D010249C40D160D4601D
:108810005168D940CE074ED4EFF31183502282F332
:108820001288EA6B1168C90709D45468002C52D128
:10883000D5E909618E4243D1012285F86020DBB27F
:1088400083F31188037C02681F2B194614D9203B3F
:10885000082150689940084200D0D1600421506836
:1088600001FA03F3184223D1F0BC704720241668A4
:108870009C4026420FD11946082310688B401842AD
:1088800000D093600423106803FA01F10842EBD092
:108890009160F0BC7047102199409460916011681C
:1088A000D940CC07B8D5012101FA03F39360B3E7AF
:1088B000D360F0BC7047012101FA03F3D360ABE74A
:1088C000AF690F44D7600ED82E69711A5160AC623F
:1088D000002185F86010116841F00101DBB21160E0
:1088E00083F31188AEE7711A5160AE62F0E700BF02
:1088F00070B4037C01681F2B26D9A3F12005202228
:108900004C68AA40224214BF01220022D2B142691F
:108910001B481C4C02EB420200EB421225785468C3
:108920002068CDB9E56856892C6824F001042C60D4
:1089300082891F2B22EA060282811AD8202202FA9B
:1089400003F38B6070BC704720220C689A4022426F
:1089500014BF01220022D9E7A469226822F0010293
:108960002260828922F480721204120C1F2B8281F1
:10897000E4D9A3F1200220239340CB6070BC704760
:10898000749C0020E00D001070B59D4C2368002BF6
:1089900040F005819B4B1A78002A68D09A4B1978D1
:1089A0009A4B002964D11868B3F82C51416284892C
:1089B000012A44EA05048481A3F82C1157D0D3F886
:1089C0003001B3F85C5241628489022A44EA05040A
:1089D0008481A3F85C124AD0D3F86002B3F88C53B8
:1089E00041628489032A44EA05048481A3F88C1334
:1089F0003DD0D3F89003B3F8BC5441628489042A73
:108A000044EA05048481A3F8BC1430D0D3F8C00430
:108A1000B3F8EC5541628489052A44EA050484814F
:108A2000A3F8EC1523D0D3F8F005B3F81C57416236
:108A30008489062A44EA05048481A3F81C1716D009
:108A4000D3F82007B3F84C5841628489072A44EAD6
:108A500005048481A3F84C1809D0D3F85028B3F842
:108A60007C495162908920439081A3F87C1970BDA4
:108A70005C68198961602568186845F0010540F255
:108A80000D312560A0F848108489012A44F48074CF
:108A90008481ECD0D3F83441B3F83851D3F83001A5
:108AA0006560256845F001052560A0F848108489B7
:108AB000022A44F480748481D9D0D3F86442B3F894
:108AC0006852D3F860026560256845F001052560AD
:108AD000A0F848108489032A44F480748481C6D0A5
:108AE000D3F89443B3F89853D3F89003656025689E
:108AF00045F001052560A0F848108489042A44F453
:108B000080748481B3D0D3F8C444B3F8C854D3F884
:108B1000C0046560256845F001052560A0F848108F
:108B20008489052A44F480748481A0D0D3F8F44564
:108B3000B3F8F855D3F8F0056560256845F00105F0
:108B40002560A0F848108489062A44F48074848142
:108B50008DD0D3F82447B3F82857D3F820076560A1
:108B6000256845F001052560A0F848108489072A8A
:108B700044F4807484813FF47AAFD3F85428B3F876
:108B80005808D3F850385060106840F00100106069
:108B9000A3F848109A8942F480729A8170BD054604
:108BA0000AF0E2FD217AA9B16DB1194A00231689B4
:108BB0000133002E18BF0021AB4202F16002F6D152
:108BC00000293FF4E7AE00F51C5010300023206070
:108BD0002372DFE62368C31A002BFFF648AF637ADF
:108BE0003BB1013BDBB263722BB100F57A702060C0
:108BF000D0E62360CEE6636803442360CAE600BF84
:108C0000DC580020749F0020E00D0010789F0020A9
:108C1000749C002010B5027C01681F2A4FF02003CD
:108C20000ED94C68203A93401C4208D00B4A406849
:108C300000241470026822F001020260CB6010BDB3
:108C40000C6893401C42FAD0044A40680024147017
:108C5000026822F0010202608B60F0E749630020A5
:108C60002DE9F041C40023189B00B749CA58526847
:108C7000958AADB2EFB2FE070B4461D4BE0737D57B
:108C8000BFF35F8F1D7EEDB2012D00F0BB80AF4EB4
:108C9000138BBFF35F8F231801EB83031D7E022D1F
:108CA00000F0CE80231801EB83031D7E032D05D138
:108CB0009B7E1BB1737A002B40F01A81938896F942
:108CC00008C043F480639380231801EB83031B7E69
:108CD000013363450AD1B37A00257572002B40F049
:108CE0008A80204401EB800000234375BDE8F081B9
:108CF000964E17F0040F96F908C04DD117F04007B3
:108D000000F0B280178A1D6AFFB205F80C705FFA96
:108D10008CF56F1C93F818E07BB2DF1CBE453372F4
:108D20009C4600F00981271801EB87073F7EBB4274
:108D3000CAD105F1020C4FFA8CFC86F808C0C3E7D3
:108D40001588824E25F400652D042D0C158015889C
:108D500045F4806515809D7E00273772002D3DD03B
:108D6000757A002D37D0231801EB830301251B7E74
:108D70007572022B03D1138843F400631380231808
:108D800001EB83039B7D43F001031382204401EB3D
:108D90008000037EBDE8F0819F7E757A4FF0010E62
:108DA00086F80AE0002F5CD0002D78D1231801EB63
:108DB00083035B7E002B00F0A48013880CF1010C70
:108DC0004FFA8CFC43F4007386F808C013801388B4
:108DD000DF05FCD478E7DB7DFF2BC4D0231801EB43
:108DE00083039D7D05F0FE051582DB7DFF2BCDD035
:108DF000FF233372CAE7938823F440731B041B0CD0
:108E000093806EE79B7E514E002B3FF441AF737A07
:108E1000002B3FF43DAF138823F480631B041B0C2D
:108E20001380BFF35F8F138B1388B57243F4007305
:108E30001380938896F908C043F48063938043E7D6
:108E40009B7E002B3FF42EAF737A002B3FF42AAFAA
:108E5000138896F908C023F480631B041B0C13804D
:108E600016E0002DA2D0A8E72D067FF52DAFBCF1AE
:108E7000FF3F6DD0DD6915F80C5015820CF1010C27
:108E80001D7E4FFA8CF39D429C4633727FF41CAFDB
:108E9000938823F480631B041B0C938014E71F7ECC
:108EA000D3F820805FFA8CF5AE44022F4FFA8EFE85
:108EB00017882DD927F480673F043F0C1780178A45
:108EC000FFB208F80C701788D3F820C047F400737D
:108ED0001380138ADBB20CF80E30938805F1020C74
:108EE0004FFA8CFC43F4806386F808C093806EE7E9
:108EF000938896F908C023F480631B041B0C9380AD
:108F0000E2E61388012543F48073138075725EE7EF
:108F100047F400771780178AFFB208F80C70178A99
:108F2000D3F8208005F1030C4FFA8CFCFBB286F8D5
:108F300008C008F80E304AE7978827F480673F0496
:108F40003F0C9780EFE600BF0C7E002068220020D7
:108F5000DD7D15829D7E37721DB91B7E002B7FF44F
:108F600015AF938823F480631B041B0C93800DE7DB
:108F7000012326212722017042708370C37070473D
:108F80002DE9F84FDDE90A648946174600212022C1
:108F90009846054648F0DCF85EB1D6E900327189A2
:108FA000EB81C3F30F432B82C2F30F43EA822B837F
:108FB0006982484644F05CFE17F0100B10D1431E46
:108FC00070B119F803202E2A18BF09EB030104D150
:108FD0004AE011F8016D2E2E3ED013F1FF33F8D286
:108FE00008280246CA46A8BF08224FF0000B4FF0DF
:108FF00020336B602B60C5F807304946284605F1E1
:10900000080645F071FD5A465146304645F06CFD64
:109010006B1EE81D13F8012FA2F1610119299CBFF5
:10902000203A1A708342F5D105F10B0116F8013B85
:10903000A3F16102192A9CBF203B06F8013CB14212
:10904000F4D11823C8F30F42EF722B73A5F81A80DE
:10905000AA82EC61BDE8F88FC01A00F1FF3BBBF1BA
:10906000030FA8BF4FF0030B082B03F1010AA8BFA1
:109070000823CA441A46BAE7014B18680AF028BE0A
:10908000A04B002038B51D4B1B78044600F1250588
:1090900093B104221A49203048F098F82846142247
:1090A000184948F093F8012384F83A30164B1B789E
:1090B00073B984F83B3038BD28461422134948F070
:1090C00085F8012384F83A300F4B1B78002BF0D041
:1090D0000F4B186859689A68DD68E5602060616028
:1090E000A260DD69186959699A69A2610123E56185
:1090F0002061616184F83B3038BD00BF8D80002065
:1091000020AA002008AA00208C800020E85F050823
:1091100028AA002070B504462DED028BD0F830044B
:10912000B0EE408A44F032FDD4ED047AF0EE405ABD
:1091300094ED050A37EEC00AF5EE405A30EE270AE4
:10914000F1EE10FA84ED040A84ED050A05D0F5EE7F
:10915000407AF1EE10FA40F0BC80664BF7EE007AF0
:10916000B0EE676AC3ED037A94ED017AD4ED037A29
:10917000D4ED026AE7EE067A04F23442104678EE45
:10918000404A77EEA66AB0EE677A87EE265AF7EE87
:10919000007A77EEC57AA4EE850A67EE877A84EDC9
:1091A000040AC4ED037AFFF727F904F21C4191ED9C
:1091B000007AD4F82C34256884ED040A04F22440A3
:1091C000D0ED007AA8EE087A04EB8306013378EE3E
:1091D000277AAB4286ED068AC0ED007A81ED007AEF
:1091E000C4F82C3424BF0023C4F82C3404EB8303CC
:1091F000D3ED066A404D04F5856393ED005A77EE92
:10920000E67AA6EEE67A04F58463C0ED007A67EEAE
:10921000857A81ED007A67EEE76AC3ED007AF0EEB9
:10922000667AE7EE057A354995ED007A0878F5EE2D
:10923000C07AF1EE10FAD8BFF1EE677AF1EEE76A84
:1092400004F58363C3ED007A67EE267AC4ED027AF3
:1092500070B1F5EE405AF1EE10FA0CD1D4F830347A
:10926000022B09BF002394ED040A94ED040A0B704D
:10927000BDEC028B70BD04F23C45D5ED007AF4EEF6
:10928000657AF1EE10FAE9D0DFED1D7A26EE276A55
:1092900004F58860FDEEC67A90ED000A17EE903A6C
:1092A000B3F5FA7FA8BF4FF4FA730A2BB8BF0A23AD
:1092B00007EE903AB8EEE76ABCEEC66A16EE103AD0
:1092C00098B2FFF7ABF81046FFF7A4F8C5ED005AC7
:1092D000C4E785EEA77A074BB7EE006A36EE476A19
:1092E000B5EEC06AF1EE10FAD8BFB1EE466A83ED72
:1092F000036A39E768220020C421002040F00020E2
:1093000000008C4238B52C22002147F021FF034693
:10931000642140F2DC5240F2022019745A82132177
:10932000202240F21A4540F26C74188399760E2080
:1093300002211A7701229D82DC8240F2753540F6C7
:10934000430483F82200197283F82A109A7383F871
:109350002920DD831C8419460248BDE838402DF0E1
:10936000ABBB00BFF05F050810B50021044601202B
:1093700009F0D0F9207010BD38B500240472451EE4
:10938000E1B2022009F0C6F90134082C05F8010FFA
:10939000F6D138BD2DE9F04F002087B00C461D46B0
:1093A000012192460DF000FC002D63D005EB0A036D
:1093B000DFF8D094DFF8D0B4039355461CE0002DBD
:1093C00000F0C581D9F81430AB4264D0D9F8103020
:1093D000AB4200F09780D9E90631AB4252D8A9429E
:1093E00000F26F81691A204632F038F8039B01358C
:1093F0009D4204F500743DD0D9F82060AE42DED81D
:10940000D9F83080AE1B4FEAD60AD8F830300AF1CE
:10941000020A9A4506F0070603D3D8F838309A4571
:1094200009D94146504631F0E7FF8046002800F058
:109430004D81C9F8300098F80430002B40F0E280EC
:10944000D8F82870002F00F0DF81D8F83030D8F835
:109450000C20AAEB030A06EBCA0A4346204602EB9D
:109460004A224FF40071B847039B01359D4204F531
:109470000074C1D1002108460DF096FB002007B012
:10948000BDE8F08FA942ADD94FF40072002120460B
:1094900047F05EFEAAE75222612041230026227097
:1094A0006270A070722284F8E70184F8E631D9F87E
:1094B0002800E3704FF0FF33314684F8E42184F84C
:1094C000E521C4F8E8014FF4F07284F8EC3184F837
:1094D000ED3184F8EE3184F8EF31201D47F038FE8D
:1094E00055216FF05502C4F8F061C4F8F461C4F876
:1094F000F86184F8FC6184F8FD6184F8FE1184F859
:10950000FF2173E74FF400720021204647F020FE50
:10951000D44BD54F03CBEB23022223704FF0080C22
:109520009026F8234FF0580EC4F80300227484F8F4
:109530000DC0C4F8071084F801E0A6706375D9F86F
:109540001010D9F80830D9F81C602273591A21621A
:109550004FF0FF3100233F20A1763E21A273E3723A
:10956000E3736374A374E3742375A375E37563767F
:10957000E3766377A377E3772076217784F82C204E
:1095800007CFD9F8187084F82830F61B84F82930F2
:1095900084F82A3084F82B3084F82D3084F82E306B
:1095A00084F82F3084F8313084F8323084F8333046
:1095B00080236662C4F8470004F1470684F840300F
:1095C00029209423A94F84F846C084F8420084F8E7
:1095D00043300E200D234FF0010C84F8440084F832
:1095E000453084F830C0716003CF33465527AA2632
:1095F0009A60C4F85200C4F8561084F8FE7184F8DA
:10960000FF61F3E64FF400720021204647F0A0FD11
:10961000D8F84030002E61D104F12007002B77D01C
:10962000D8F8303092491122CDE900662046FFF784
:10963000A7FCD8F840301A6C04F1400A002A79D00F
:109640001B6B8C49CDE9006638461122FFF798FC68
:10965000D8F84460002E3FF4C9AE4FF4E078CDE96D
:1096600004450CE00024CDE900C4FFF789FCB66C8A
:10967000BA46A8F120080EB3B8F11F0F1ED93468FE
:10968000356B96F804E011222B46214650460AF12C
:10969000200706F11C0CBEF1000FE3D1727933698B
:1096A000019342F021022B46CDF800C0FFF768FC81
:1096B000B66CBA46A8F12008002EDDD1DDE90445DC
:1096C00094E6E91A204631F0C9FE8FE6231F04F51F
:1096D000FE7243F804BF9A42FBD187E6002BD8F80C
:1096E00044200CBF01230223C3EB0613002A3FF4DE
:1096F0007DAE966C013B002E3FF478AE013BB66C1C
:10970000F9D1002E3FF472AEA2464FF40078A6E7DE
:10971000CDE900663346D9F80C1008222046FFF741
:109720002FFCD8F84460002E3FF460AEBA464FF4E8
:10973000F07894E7CDE900663346384611224D496A
:10974000FFF71EFCD8F84460002E86D14EE64FF499
:1097500000722946204647F0FBFC80220C2384F847
:10976000BE2184F8C231D9F81000434BD9F8086003
:1097700084F8B85183FB0032C117C1EB2232B2F535
:10978000806F84F8B95184F8BA5184F8BB5184F8D9
:10979000BC5184F8BD51C4F8C601C4F8CA6142DBAB
:1097A000FF2384F8BF3184F8C13184F8C031324BD3
:1097B000711E83FB0132CE17C6EB2232B2F5806FE9
:1097C00029DA2E4B84F8C52183FB01030B442C4876
:1097D000C6EB6313C3EB831680FB0370891B18442D
:1097E000DE17921022F03F020131C6EBE0100A436F
:1097F000034484F8C42184F8C3315522AA2384F891
:10980000FE2184F8FF31F1E539464FF4007220461D
:1098100047F09EFCEAE5FF2384F8C33184F8C531A4
:1098200084F8C431E9E7154B84F8C12183FB007348
:109830000344134FC1EB631387FB0317C3EB831C74
:109840009110A0EB0C02F818DF1721F03F01013254
:10985000C7EBE0100A43034484F8C02184F8BF3109
:10986000A5E700BF04600508106005082060050832
:10987000FC5F050800600508975545418320088274
:1098800081808080688E0020DEADBEEF08B538F0A4
:109890005DF980F00100404240B208BD70B50C4651
:1098A00001211E46084615460DF07EF9AEB104EBC7
:1098B000462601E038F04AF900222146284631F0D8
:1098C00035FC0028F6D138F041F90028FBD004F52A
:1098D0000074B44205F10105EED1002101200DF024
:1098E00063F9002070BD00BF70B50C4601211E4613
:1098F000084615460DF058F996B104EB46260022AD
:109900002146284631F0AAFC0028F8D038F01EF98C
:109910000028FBD004F50074B44205F10105EED136
:10992000002101200DF040F9002070BD002108B594
:1099300008460DF039F931F0C9FC38F007F9002874
:10994000FBD0012100200DF02FF9002008BD00BF41
:1099500010B5044C04480A46214638F07FFB2046E7
:1099600010BD00BF782200202C60050810B5044C03
:1099700004480A46214638F071FB204610BD00BF5E
:10998000782200203C60050810B5044C04480A46C3
:10999000214638F063FB204610BD00BF782200202E
:1099A000486005080A4608B5054920B1054838F061
:1099B00055FB034808BD044838F050FB004808BD7B
:1099C00078220020746005085C6005082DE9F041EC
:1099D0000B4E346873691C400FD0DFF828800127D4
:1099E000B4FA84F3C3F11F0307FA03F558F8230010
:1099F00003689847AC437561F2D1BDE8F08100BFC0
:109A0000003C0140488700202DE9F0410B4E3468AE
:109A100073691C400FD0DFF828800127B4FA84F363
:109A2000C3F11F0307FA03F558F8230003689847AA
:109A3000AC437561F2D1BDE8F08100BF003C01404C
:109A4000488700202DE9F0410B4E346873691C40B3
:109A50000FD0DFF828800127B4FA84F3C3F11F0385
:109A600007FA03F558F8230003689847AC4375617B
:109A7000F2D1BDE8F08100BF003C014048870020E2
:109A80002DE9F0410B4E346873691C400FD0DFF8AC
:109A900028800127B4FA84F3C3F11F0307FA03F502
:109AA00058F8230003689847AC437561F2D1BDE8CC
:109AB000F08100BF003C0140488700202DE9F041C3
:109AC0000B4E346873691C400FD0DFF828800127E3
:109AD000B4FA84F3C3F11F0307FA03F558F823001F
:109AE00003689847AC437561F2D1BDE8F08100BFCF
:109AF000003C0140488700202DE9F0410B4E3468BE
:109B000073691C400FD0DFF828800127B4FA84F372
:109B1000C3F11F0307FA03F558F8230003689847B9
:109B2000AC437561F2D1BDE8F08100BF003C01405B
:109B3000488700202DE9F0410B4E346873691C40C2
:109B40000FD0DFF828800127B4FA84F3C3F11F0394
:109B500007FA03F558F8230003689847AC4375618A
:109B6000F2D1BDE8F08100BF003C014048870020F1
:109B7000084A094808B5536C43F4804353640021F4
:109B8000402247F0E5FA054B4FF0FF321A60C3F868
:109B9000032008BD00380240488700208887002045
:109BA00010B58B680160044698470022FF2301210D
:109BB000A2736373217310BD03685B6A184700BF0B
:109BC00003681B6A184700BF70B44E1C0568C27258
:109BD0008672AC69A44670BC604700BF2DE9F041B5
:109BE000044618460D4616461F4644F041F82844E0
:109BF000A0722068E672294645693B4632462046F7
:109C0000AC46BDE8F0416047036810B504461B68E8
:109C10009847236820469B689847A37B0133A3732A
:109C200010BD00BF10B5036804469B689847FF232A
:109C300001226373227310BD38B50D4608F096F803
:109C4000044650B136238371C57101210CF0FCFE2E
:109C50002046BDE838400CF099BF38BD38B50D46F8
:109C600008F084F8044650B135238371C571202172
:109C70000CF0EAFE2046BDE838400CF087BF38BD46
:109C80000E4B984214D0A3F5784398420ED003F5BA
:109C9000806398420ED10222094B03EB02135A89CA
:109CA000013292B25A81588980B270470122F3E79B
:109CB0000022F1E74FF0FF30704700BF0030014055
:109CC000E40C001008B540F2E93300E0A3B10289CA
:109CD000013B12F0020F9BB2F8D089B2818140F2B1
:109CE000E93300E043B10289013B12F0010F9BB25E
:109CF000F8D08089C0B208BDFFF7C2FFC0B208BD6E
:109D0000836870B50446164613B11A689B8853835E
:109D1000606840F2E93301E0002B30D00589013B57
:109D200015F0020F9BB2F7D089B2818140F2E9337E
:109D300000E023B30289013B12F0010F9BB2F8D07F
:109D4000838940F2E93300E0EBB10189013B11F076
:109D5000020F9BB2F8D0B6B2868140F2E93300E040
:109D60008BB10289013B12F0010F9BB2F8D08389BD
:109D7000A36813B11A689B881383012070BDFFF795
:109D80007FFF6068DDE7FFF77BFFF1E7F8B58489C7
:109D90004FF6FF764FF47A7433B319B30F7801316D
:109DA00001E0B44218D00589013CAD07A4B2F8D552
:109DB000BCB284814FF47A7402E0BCB2B4420BD0DE
:109DC0000589ED0704F1FF37F7D58589ADB20AB1F2
:109DD00015700132013BDFE7FFF752FF003018BF7B
:109DE0000120F8BDFF27DEE70120F8BD30B5437F35
:109DF00083B004461BB90120637703B030BD05234F
:109E0000ADF80430056800BFA8680CF0B9FE6A46DA
:109E100001A902236868FFF7B9FFA8680CF0B6FE35
:109E200000BF9DF8013003F0010383F00100637768
:109E300003B030BDF8B5074C05460F46266803E071
:109E400023689B1BBB4204D82846FFF7CFFF00289E
:109E5000F6D0F8BDB4850020F0B5077F83B0044686
:109E60004FF0030C0020009016461D468DF80400AC
:109E70008DF800C06FB30B0E8DF801300DF10203A9
:109E8000080C0A0A99701870062120465A70FFF7CC
:109E9000D1FFE0B1236800BF98680CF071FE237F0A
:109EA0002268002B14BF0523042369465068002252
:109EB000FFF76CFF23683246002158682B46FFF7F6
:109EC00065FF236898680CF061FE00BF284603B068
:109ED000F0BD0DF10103D3E72DE9F0418046806824
:109EE00010B1046880886083D8F8040085894FF435
:109EF0007A744FF6FF7613F1FF3320D341B30F7816
:109F0000013101E0B44218D00589013CAD07A4B28B
:109F1000F8D5BCB284814FF47A7402E0BCB2B4428A
:109F20000BD00589ED0704F1FF37F7D58589ADB270
:109F3000002AE0D015700132DDE7FFF7A1FED8F866
:109F4000083013B11A689B8813830120BDE8F081A3
:109F5000FF27D9E72DE9F04F85B0009090F8680011
:109F6000002840F0AA87009B5869B04B984200F047
:109F7000C18603F58063984200F0BC86038823F015
:109F800040031B041B0C0380038823F038031B04CD
:109F90001B0C382213430380009B02889B6942F00C
:109FA0004002028013B11A689B88538340F2E93360
:109FB00002E0002B00F0D4870289013B12F0020F6F
:109FC0009BB2F6D06B23838140F2E93302E0002B91
:109FD00000F0C6870289013B12F0010F9BB2F6D058
:109FE000838940F2E93302E0002B00F0C587028943
:109FF000013B12F0020F9BB2F6D08023838140F226
:10A00000E93302E0002B00F0B7870289013B12F030
:10A01000010F9BB2F6D08389009B9B6913B11A682C
:10A020009B88138364238249824EDFF814E2824CBA
:10A03000DFF81082814F01934FF01009DEF80430F1
:10A04000C3F30803002B40F03386EFF31183002B9A
:10A0500040F02E860D68A2680B689D42FAD13B68DD
:10A060009A42F7D8D6F800C04FF47A7000FB0CF390
:10A070009B1AB3FBFCF300FB05354FF47A7C4FF0E1
:10A08000010ADEF80430C3F30803002B40F06B85AF
:10A09000EFF31183002B40F066850B68A0680A6817
:10A0A0009342FAD13A689042F7D832680CFB02FB2F
:10A0B000ABEB0000B0FBF2F00CFB03035B1BB3F552
:10A0C0007A7FDED3019B013B0193B7D1009B9B6953
:10A0D00013B11A689B885383009B586940F2E93397
:10A0E00002E0002B00F042870289013B12F0020FD0
:10A0F0009BB2F6D06823838140F2E93302E0002B63
:10A1000000F034870289013B12F0010F9BB2F6D0B8
:10A11000838940F2E93302E0002B00F019870289BD
:10A12000013B12F0020F9BB2F6D00323838140F271
:10A13000E93302E0002B00F00B870289013B12F0AB
:10A14000010F9BB2F6D08389009B9B6913B11A68FB
:10A150009B8813836423DFF8E8E0374CDFF8E48062
:10A16000364F01934FF01009DEF80430C3F30803B3
:10A17000002B40F07B85EFF31183002B40F07685B8
:10A180000D68A2680B689D42FAD13B689A42F7D8E5
:10A19000D6F800C04FF47A7000FB0CF39B1AB3FBA7
:10A1A000FCF300FB05354FF47A7C4FF0010ADEF832
:10A1B0000430C3F30803002B40F0B684EFF311839F
:10A1C000002B40F0B1840B68A0680A689342FAD172
:10A1D0003A689042F7D832680CFB02FBABEB000008
:10A1E000B0FBF2F00CFB03035B1BB3F57A7FDED30D
:10A1F000019B013B0193B7D1009B9B6913B11A6886
:10A200009B885383009B586940F2E93302E0002B9E
:10A2100000F098860289013B12F0020F9BB2F6D043
:10A220006B23838140F2E93311E000BF0038004026
:10A23000B4850020B885002010E000E0BC85002037
:10A2400000ED00E0B0850020002B00F07B86028945
:10A25000013B12F0010F9BB2F6D0838940F2E93343
:10A2600002E0002B00F078860289013B12F0020F19
:10A270009BB2F6D00123838140F2E93302E0002B48
:10A2800000F06A860289013B12F0010F9BB2F6D002
:10A290008389009B9B6913B11A689B8813830F23E2
:10A2A000DFF864E2954CDFF86482954F01934FF03C
:10A2B0001009DEF80430C3F30803002B40F0B48427
:10A2C000EFF31183002B40F0AF840D68A2680B6898
:10A2D0009D42FAD13B689A42F7D8D6F800C04FF4B5
:10A2E0007A7000FB0CF39B1AB3FBFCF300FB053503
:10A2F0004FF47A7C4FF0010ADEF80430C3F3080310
:10A30000002B40F0F383EFF31183002B40F0EE833A
:10A310000B68A0680A689342FAD13A689042F7D86D
:10A3200032680CFB02FBABEB0000B0FBF2F00CFB65
:10A3300003035B1BB3F57A7FDED3019B013B0193E3
:10A34000B7D1009ADFED6F7AD2F85F3007EE103A9E
:10A35000B4EEE77AF1EE10FA40F3AB8592F866308E
:10A36000012B14BF1A24192413469B6913B11A68D0
:10A370009B885383009B586940F2E93302E0002B2D
:10A3800000F031860289013B12F0020F9BB2F6D039
:10A390001B23838140F2E93302E0002B00F0238687
:10A3A0000289013B12F0010F9BB2F6D0838940F283
:10A3B000E93302E0002B00F012860289013B12F023
:10A3C000020F9BB2F6D0848140F2E93302E0002B09
:10A3D00000F005860289013B12F0010F9BB2F6D016
:10A3E0008389009B9B6913B11A689B8813830F2391
:10A3F000DFF814E1414CDFF81481414F01934FF035
:10A400001009DEF80430C3F30803002B40F0EB839F
:10A41000EFF31183002B40F0E6830D68A2680B6810
:10A420009D42FAD13B689A42F7D8D6F800C04FF463
:10A430007A7000FB0CF39B1AB3FBFCF300FB0535B1
:10A440004FF47A7C4FF0010ADEF80430C3F30803BE
:10A45000002B40F02D83EFF31183002B40F0288375
:10A460000B68A0680A689342FAD13A689042F7D81C
:10A4700032680CFB02FBABEB0000B0FBF2F00CFB14
:10A4800003035B1BB3F57A7FDED3019B013B019392
:10A49000B7D1009B9B6913B11A689B885383009BBB
:10A4A000586940F2E93302E0002B00F092850289FE
:10A4B000013B12F0020F9BB2F6D01C23838140F2C5
:10A4C000E93302E0002B00F084850289013B12F0A1
:10A4D000010F9BB2F6D0838940F2E93302E0002BF2
:10A4E00000F073850289013B12F0020F9BB2F6D097
:10A4F0001823838140F2E9330DE000BF10E000E053
:10A50000BC8500200000FA4200ED00E0B08500208C
:10A51000002B00F05A850289013B12F0010F9BB21B
:10A52000F6D08389009B9B6913B11A689B881383BB
:10A530000F23DFF870E2984CDFF86C82974F01939D
:10A540004FF01009DEF80430C3F30803002B40F08D
:10A550002983EFF31183002B40F024830D68A26858
:10A560000B689D42FAD13B689A42F7D8D6F800C0F2
:10A570004FF47A7000FB0CF39B1AB3FBFCF300FB67
:10A5800005354FF47A7C4FF0010ADEF80430C3F34E
:10A590000803002B40F06482EFF31183002B40F09E
:10A5A0005F820B68A0680A689342FAD13A689042C9
:10A5B000F7D832680CFB02FBABEB0000B0FBF2F00B
:10A5C0000CFB03035B1BB3F57A7FDED3019B013BDE
:10A5D0000193B7D1009ADFED727AD2F85F3007EEBF
:10A5E000103AB4EEE77AF1EE10FA00F35E8492F8D6
:10A5F0006540012C00F08C83A4F10204B4FA84F4C9
:10A60000640913469B6913B11A689B885383009BA6
:10A61000586940F2E93302E0002B00F0CC84028953
:10A62000013B12F0020F9BB2F6D01A23838140F255
:10A63000E93302E0002B00F0BE840289013B12F0F6
:10A64000010F9BB2F6D0838940F2E93302E0002B80
:10A6500000F0B7840289013B12F0020F9BB2F6D0E2
:10A66000848140F2E93302E0002B00F0AA840289E1
:10A67000013B12F0010F9BB2F6D08389009B9B69CE
:10A6800013B11A689B8813830F23DFF818E1424C3B
:10A69000DFF81481414F01934FF01009DEF80430C8
:10A6A000C3F30803002B40F0D283EFF31183002B98
:10A6B00040F0CD830D68A2680B689D42FAD13B68DB
:10A6C0009A42F7D8D6F800C04FF47A7000FB0CF32A
:10A6D0009B1AB3FBFCF300FB05354FF47A7C4FF07B
:10A6E000010ADEF80430C3F30803002B40F0318385
:10A6F000EFF31183002B40F02C830B68A0680A68ED
:10A700009342FAD13A689042F7D832680CFB02FBC8
:10A71000ABEB0000B0FBF2F00CFB03035B1BB3F5EB
:10A720007A7FDED3019B013B0193B7D1009A9369F5
:10A7300092F8674013B11A689B885383009B58694D
:10A7400040F2E93302E0002B00F02C840289013B47
:10A7500012F0020F9BB2F6D01923838140F2E93345
:10A7600002E0002B00F01E840289013B12F0010F71
:10A770009BB2F6D0838940F2E93302E0002B00F06F
:10A7800017840289013B12F0020F9BB2F6D0A4B2EB
:10A79000848140F2E9330CE010E000E0BC85002049
:10A7A0000000FA4200ED00E0B0850020002B00F030
:10A7B000FF830289013B12F0010F9BB2F6D083891F
:10A7C000009B9B6913B11A689B8813836423DFF88D
:10A7D000D8E2B24CDFF8D482B14F01934FF01009A8
:10A7E000DEF80430C3F30803002B40F0EE82EFF3F1
:10A7F0001183002B40F0E9820D68A2680B689D422E
:10A80000FAD13B689A42F7D8D6F800C04FF47A7074
:10A8100000FB0CF39B1AB3FBFCF300FB05354FF474
:10A820007A7C4FF0010ADEF80430C3F30803002BF2
:10A8300040F0AD82EFF31183002B40F0A8820B684B
:10A84000A0680A689342FAD13A689042F7D8326811
:10A850000CFB02FBABEB0000B0FBF2F00CFB0303C4
:10A860005B1BB3F57A7FDED3019B013B0193B7D12C
:10A87000009B9B6913B11A689B885383009B58699E
:10A8800040F2E93302E0002B00F084830289013BAF
:10A8900012F0020F9BB2F6D03723838140F2E933E6
:10A8A00002E0002B00F076830289013B12F0010FD9
:10A8B0009BB2F6D0838940F2E93302E0002B00F02E
:10A8C0006E830289013B12F0020F9BB2F6D0102377
:10A8D000838140F2E93302E0002B00F060830289BB
:10A8E000013B12F0010F9BB2F6D08389009B9B695C
:10A8F00013B11A689B8813830F23DFF8ACE1674C10
:10A90000DFF8A881664F01934FF01009DEF804309C
:10A91000C3F30803002B40F07982EFF31183002B7F
:10A9200040F074820D68A2680B689D42FAD13B68C2
:10A930009A42F7D8D6F800C04FF47A7000FB0CF3B7
:10A940009B1AB3FBFCF300FB05354FF47A7C4FF008
:10A95000010ADEF80430C3F30803002B40F0DB816A
:10A96000EFF31183002B40F0D6810B68A0680A68D2
:10A970009342FAD13A689042F7D832680CFB02FB56
:10A98000ABEB0000B0FBF2F00CFB03035B1BB3F579
:10A990007A7FDED3019B013B0193B7D1009B9B697A
:10A9A00013B11A689B885383009B586940F2E933BE
:10A9B00002E0002B00F0E4820289013B12F0020F5A
:10A9C0009BB2F6D03823838140F2E93302E0002BBA
:10A9D00000F0D6820289013B12F0010F9BB2F6D043
:10A9E000838940F2E93302E0002B00F0CE82028935
:10A9F000013B12F0020F9BB2F6D00123838140F29B
:10AA0000E93302E0002B00F0C0820289013B12F022
:10AA1000010F9BB2F6D08389009B9B6913B11A6822
:10AA20009B8813831F4B984200F0328203F58063AA
:10AA3000984200F02D82038823F040031B041B0C76
:10AA40000380038823F038031B041B0C10221343DC
:10AA50000380038843F04003038005B0BDE8F08F16
:10AA6000EFF3118089F31288D4F808B02368DB0370
:10AA700044BFC8F800A0D4F808B00B68D8F800208C
:10AA8000C0B280F31188306813440CFB00F2A2EBD3
:10AA90000B02B2FBF0F20CFB032393E510E000E0A5
:10AAA000BC8500200038004000ED00E0B0850020AB
:10AAB000EFF3118089F31288D4F808B02368DB0320
:10AAC00044BFC8F800A0D4F808B00B68D8F800203C
:10AAD000C0B280F31188306813440CFB00F2A2EB83
:10AAE0000B02B2FBF0F20CFB0323CAE4EFF311807C
:10AAF00089F31288D4F808B02368DB0344BFC8F890
:10AB000000A0D4F808B00B68D8F80020C0B280F3D9
:10AB10001188306813440CFB00F2A2EB0B02B2FB6D
:10AB2000F0F20CFB032304E4EFF3118089F31288A5
:10AB3000D4F808B02368DB0344BFC8F800A0D4F8F9
:10AB400008B00B68D8F80020C0B280F311883068D4
:10AB500013440CFB00F2A2EB0B02B2FBF0F20CFB75
:10AB60000323FFF741BBEFF3118089F31288D4F878
:10AB700008B02368DB0344BFC8F800A0D4F808B0CD
:10AB80000B68D8F80020C0B280F3118830681344F5
:10AB90000CFB00F2A2EB0B02B2FBF0F20CFB032366
:10ABA000FFF78CBAEFF3118389F31288D4F808C049
:10ABB0002268D20304D50122C8F80020D4F808C0C6
:10ABC0000D68D8F800A0DBB283F3118830684FF429
:10ABD0007A72554402FB00F3A3EB0C03B3FBF0F3D2
:10ABE00002FB0535CDE4EFF3118389F31288D4F825
:10ABF00008C02268D20304D50122C8F80020D4F886
:10AC000008C00D68D8F800A0DBB283F31188306863
:10AC10004FF47A72554402FB00F3A3EB0C03B3FB31
:10AC2000F0F302FB05350BE4EFF3118389F312888F
:10AC3000D4F808C02268D20304D50122C8F8002045
:10AC4000D4F808C00D68D8F800A0DBB283F31188EF
:10AC500030684FF47A72554402FB00F3A3EB0C0307
:10AC6000B3FBF0F302FB0535FFF742BBEFF31183B3
:10AC700089F31288D4F808C02268D20304D50122CF
:10AC8000C8F80020D4F808C00D68D8F800A0DBB2DE
:10AC900083F3118830684FF47A72554402FB00F355
:10ACA000A3EB0C03B3FBF0F302FB0535FFF77BBA14
:10ACB000EFF3118389F31288D4F808C02268D20315
:10ACC00004D50122C8F80020D4F808C00D68D8F8CF
:10ACD00000A0DBB283F3118830684FF47A725544D8
:10ACE00002FB00F3A3EB0C03B3FBF0F302FB05350F
:10ACF000FFF7C3B9038823F040031B041B0C038038
:10AD0000038823F038031B041B0C3022FFF742B9E1
:10AD10000724134676E4EFF3118089F31288D4F800
:10AD200008B02368DB0344BFC8F800A0D4F808B01B
:10AD30000B68D8F80020C0B280F311883068134443
:10AD40000CFB00F2A2EB0B02B2FBF0F20CFB0323B4
:10AD50001CE6EFF3118089F31288D4F808B0236859
:10AD6000DB0344BFC8F800A0D4F808B00B68D8F8DB
:10AD70000020C0B280F31188306813440CFB00F24D
:10AD8000A2EB0B02B2FBF0F20CFB0323C6E4EFF3E1
:10AD9000118089F31288D4F808B02368DB0344BF1C
:10ADA000C8F800A0D4F808B00B68D8F80020C0B2EA
:10ADB00080F31188306813440CFB00F2A2EB0B0205
:10ADC000B2FBF0F20CFB03234AE5EFF3118389F3A6
:10ADD0001288D4F808C02268D20304D50122C8F82A
:10ADE0000020D4F808C00D68D8F800A0DBB283F3C7
:10ADF000118830684FF47A72554402FB00F3A3EBDC
:10AE00000C03B3FBF0F302FB053508E5EFF3118308
:10AE100089F31288D4F808C02268D20304D501222D
:10AE2000C8F80020D4F808C00D68D8F800A0DBB23C
:10AE300083F3118830684FF47A72554402FB00F3B3
:10AE4000A3EB0C03B3FBF0F302FB05357DE5EFF359
:10AE5000118389F31288D4F808C02268D20304D57C
:10AE60000122C8F80020D4F808C00D68D8F800A066
:10AE7000DBB283F3118830684FF47A72554402FBD9
:10AE800000F3A3EB0C03B3FBF0F302FB053524E462
:10AE9000038823F040031B041B0C0380038823F06A
:10AEA00038031B041B0C0822D1E5019C1346FFF755
:10AEB000A9BB18241346FFF758BA06F057FF009BAA
:10AEC000044603F10C05002800F093800068524905
:10AED00000F13F4303F57E039A0A01238A5C02F0E6
:10AEE0001F01520920268B40032A4FF00001A67152
:10AEF000E17100F08B80042A00F08380022A03D1E4
:10AF0000464A516C0B435364A388029302A9002361
:10AF1000039338F0CBFB009A414BD360294620467F
:10AF20002FF08EF8A388B3FA83F3C3F11F03012235
:10AF300012FA03F33FF417A83A490A6813430B6067
:10AF4000FFF711B8FEF79CFE009B5869FFF786B922
:10AF5000FEF796FEFFF7F8B8FEF792FEFFF799B9F5
:10AF6000FEF78EFE009B5869FFF73BB8FEF788FEA0
:10AF7000009B5869FFF7CDB8FEF782FEFFF74CB88B
:10AF8000FEF77EFE009B58692BE5FEF779FE009BDD
:10AF9000586942E5FEF774FE009B58698BE4FEF7A2
:10AFA0006FFEA3E4FEF76CFE009B5869FFF7E3BB5E
:10AFB000FEF766FE04E4FEF763FE009B5869FFF7A8
:10AFC00043BBFEF75DFEFFF759BBFEF759FEFFF7E7
:10AFD000A9BAFEF755FE009B5869FFF77DBAFEF748
:10AFE0004FFEFFF7FEB9FEF74BFE009B5869FFF7D7
:10AFF000DEB91A460A4BD36029462FF021F8FEF736
:10B00000B2BF064A116B0B4313637DE7034A116C11
:10B010000B43136478E700BF584E05080038024020
:10B02000B9870008003C0140F0B5876983B0064647
:10B0300017B13B68BA885A837069DFF8A8E0838942
