:020000040800F2
:100000000000012045AA0408C1AA04086981020869
:10001000A9810208C1AA0408C1AA040800000000BE
:10002000000000000000000000000000C1AA040859
:10003000C1AA040800000000C1AA0408ED79020862
:10004000C1AA0408C1AA0408C1AA0408C1AA0408D4
:10005000C1AA0408C1AA0408C5820208F1830208E3
:10006000B5830208798302083D83020889DA000813
:1000700079DA000869DA000859DA000845DA000878
:1000800031DA00081DDA0008C1AA0408C1AA040870
:10009000C1AA0408C1AA0408C1AA0408018302086D
:1000A0003DC90008A1C90008C1AA040891C90008F7
:1000B00081C9000871C9000861C900081DDC000879
:1000C00041DC00085DDB000881DB0008C1AA0408F0
:1000D000C1AA040801B90008F5B80008E9B8000889
:1000E00089820208C1AA0408C1AA0408C1AA040896
:1000F0005DC90008C1AA04084DC9000809DA000852
:10010000C1AA0408C1AA0408C1AA0408C1AA040813
:10011000DDB80008D1B80008C1AA0408E513020838
:10012000F5D90008E1D90008CDD90008B9D90008EF
:10013000A5D9000800000000000000000000000039
:100140000000000000000000000000006121020823
:1001500091D900087DD9000869D90008C5B8000800
:1001600099DA0008C1DA0008C1AA0408C1AA040883
:10017000C1AA0408C1AA0408000000000000000091
:10018000C1AA0408C1AA0408C1AA0408C1AA040893
:10019000C1AA0408C1AA040800000000C1AA0408FA
:1001A000000000000000000000000000C1AA0408D8
:1001B000C1AA0408C1AA0408000000000000000051
:1001C000000000000000000000000000000000002F
:1001D000000000000000000000000000C1AA0408A8
:0801E00094A5040001000000D9
:1001E80010020100B82A0120B42A012000000000F2
:1001F8004C0700082C0010005055012040550120E4
:1002080000000000030901082B0024008455012088
:100218006055012000000000D50801082910780069
:1002280050540120A85501200000000000000000E3
:100238002810100030560120205601200000000030
:10024800F1EB0008140003007853012084560120C4
:10025800000000004E0700080A402600A84B0120B5
:100268008856012000000000520700080E502C019B
:100278007C4A0120B056012000000000D136040855
:1002880013020300E65A0120705B01200000000001
:1002980078070008070202002C5B0120745B01202C
:1002A800000000007C07000802000C00005B012031
:1002B800785B01200000000000000000060210002A
:1002C800F05A0120845B012000000000CD6C020878
:1002D80008120C00DA5A0120945B0120000000008B
:1002E800A1660208F7010600D45A0120A05B01208C
:1002F800000000007E0700080A020A00F0590120E9
:10030800A85B01200000000084070008030001002A
:10031800C4590120B45B0120000000000000000067
:10032800101003000C590120B85B012000000000E8
:100338008E0700081F201C00345D012080710120F9
:10034800000000009207000805020400146F012055
:100358009C71012000000000AE07000803010A009C
:100368005A650120A071012000000000B2070008B2
:100378001A023C00A47201209876012000000000B7
:10038800916E020827000400D8760120D476012057
:1003980000000000BC07000809020100AC8301202E
:1003A8001484012000000000C00700080C1014018C
:1003B8006C7E012018840120000000004987010894
:1003C80001020500607E01202C850120000000004C
:1003D800B1E8020800020500587E0120348501209A
:1003E80000000000000000001B020800347E01200D
:1003F8003C85012000000000516602080120080029
:100408008C8201204485012000000000C2070008FA
:1004180019000500188301204C8501200000000008
:10042800CA07000837001E00F08201205485012009
:1004380000000000D00700081E000500147C012001
:100448007485012000000000EE0700081B00F4007E
:10045800E87601207C8501200000000089F102086F
:100468000E02020080810120708601200000000039
:10047800F40700082F001100CC83012074860120A6
:1004880000000000F6070008051006000C84012093
:1004980088860120000000000808000826000E00D9
:1004A800A08601209086012000000000E1E00208FB
:1004B8000400800088AC012080AE0120000000000C
:1004C800000000002300100078AC012000AF0120DC
:1004D8000000000009EC00080D003C00F8AB01200A
:1004E80010AF01200000000069B2030813000400E7
:1004F800D8A201204CAF012000000000100800081D
:10050800F6210C00DCA2012050AF01200000000001
:1005180014080008F531700014A201205CAF012016
:1005280000000000411303080B20100004A2012062
:10053800CCAF0120000000002008000801010400E1
:1005480000A20120DCAF0120000000000000000034
:1005580000010400FCA10120E0AF01200000000020
:100568003008000802010300F8A10120E4AF0120CF
:1005780000000000D9870108FD011E00B8A1012074
:10058800E8AF012000000000BD60020818202C0020
:1005980088A1012008B0012000000000216F020896
:1005A800061018006CA1012034B0012000000000E2
:1005B80039370408FB01010068A101204CB0012073
:1005C80000000000B5700208FC01090034A00120F9
:1005D80050B0012000000000C5700208340010006F
:1005E800609F01205CB0012000000000093704086A
:1005F80011020800389F01206CB0012000000000A3
:100608003408000812120400309F012074B0012041
:10061800000000003C08000812200D00209F012067
:1006280078B001200000000040080008F90104002B
:100638000894012088B001200000000039610208F8
:1006480018020200D08D01208CB0012000000000AB
:100658000000000017020B00C48D012090B001209B
:10066800000000005D660208FA010200A08D01206A
:100678009CB0012000000000518000080202030025
:10068800D4860120A0B00120000000000000000076
:100698000C020300C0860120A4B001200000000065
:1006A800D9660208FE010900C4880120A8B001200B
:1006B80000000000E96602081600080014B10120D5
:1006C8001CB10120000000004E080008F8210600B7
:1006D8009AB10120C0B601200000000056080008A9
:1006E80003123300E2B301208AB6012000000000A3
:1006F8005C0800082500960016B40120F4B5012016
:10070800000000000000000015007000B4B40120D3
:1007180084B5012000000000000000002A006000ED
:1007280038B1012024B5012000000000A9360408D2
:100738001A000E0078B90120E4B901200000000079
:04074800900800080D
:10074C000000030000000030010000000000000069
:10075C005A0000000000000000000000020200012E
:10076C009E077D0046329001200000000000000032
:10077C00013C3F010000000000004A01B400D6011A
:10078C00280000050000000000000001000000052A
:10079C000000010203000000000000000000000047
:1007AC00000000000000040101006C1600000000B5
:1007BC00200300000000E8036400040A00010000AC
:1007CC002801000020003200C800D0079600140059
:1007DC0032002800B00440060005500014000F0041
:1007EC0008010000010000000000000000000000F3
:1007FC0000000000000000000000000020000101CB
:10080C00000000000884053000000000010000001A
:10081C00020200002B21231E6401010000000100D4
:10082C000A012900C20100003E290000010101015A
:10083C00FFFFFFFF000000010000054A483744009D
:10084C000000651B0D00190128280400F401190093
:10085C00000000000000000000000000000000008C
:10086C00000000000000000000000000000000007C
:10087C00000000000000000000000000000000006C
:10088C00000001007E05EA05B4053200E803D0073C
:02089C0000005A
:10089E00AD150208C5090208C116020800000000C5
:1008AE0000000000112002080D1F020800000000C9
:1008BE00000000000000000089F901087DF9010820
:1008CE0071F9010865F901089D9C00083580000842
:1008DE00318000082D8000086984000829800008F6
:1008EE00258000080CDA040801000000B0010000A9
:1008FE000200000009000000010101005DE4000893
:10090E0000000000E00101205C3505080000000039
:10091E00000000000000000000000000A0420508DA
:10092E000000000000000000610201200400000031
:10093E00983305080D000000B50D0108341C012088
:10094E0000000000E82C05080D000000DD0D010878
:10095E00281C012000000000682E05080800000079
:10096E00000000001C1C012004000000542D05088E
:10097E000D00000005E50008101C0120000000001D
:10098E00182E05080300000001100108041C0120A8
:10099E00000000006C35050803000000011001087E
:1009AE00F81B0120000000001C29050801000000B2
:1009BE000000000000000000000000000000000029
:1009CE000E0000000000000000000000000000000B
:1009DE005C3505080000000000000000000000006B
:1009EE0000000000A042050800000000000000000A
:1009FE0061020120040000004433050803000000DA
:100A0E00C90B0108EC1B012008000000542D05083D
:100A1E000D00000005E50008101C0120000000007C
:100A2E00182E05080300000001100108041C012007
:100A3E00000000006C3505080300000001100108DD
:100A4E00F81B0120000000001C2905080100000011
:100A5E000000000000000000000000000000000088
:100A6E000E0000000000000000000000000000006A
:100A7E0074350508000000000000000000000000B2
:100A8E0000000000A0420508000000000000000069
:100A9E0061020120040000004C3305080300000031
:100AAE0001100108401C0120000000001C2905084F
:100ABE000100000000000000000000000000000027
:100ACE00000000000E00000000000000000000000A
:100ADE000000000020700020702D720001D6010170
:100AEE000000000000000000A81701200001010115
:100AFE00002D202D2D202D2D2D2D202D2D2D0000C6
:100B0E0000000000000000000000000000000000D7
:100B1E00FFFFFFFFFA0000000100000001000000CF
:100B2E0001000000EC280508F42805081429050822
:100B3E0000000000000000000000000000000000A7
:100B4E00CA28050804000000410B0108000000003F
:100B5E00000000001C290508010000000000000034
:100B6E000000000000000000000000000E00000069
:100B7E0000000000000000000000000028AD012071
:100B8E000100C4090000000026AD01200100C409C7
:100B9E000000000024AD01200100C4090000000087
:100BAE0022AD01200100C409000000001EAD01208D
:100BBE000100C4090000000020AD01200100C4099D
:100BCE00000000001CAD01200100C409000000005F
:100BDE001AAD01200100C40900000000124A0120D4
:100BEE000100C80001000000104A012032003075DB
:100BFE00320000000F4A0120055A05000C4A012060
:100C0E0000FF01000E4A01200100000094020120A5
:100C1E000A4A01200200000060F804080B4A012075
:100C2E0000FF01000D4A0120010000009402012086
:100C3E00094A01200200000060F80408044A01205D
:100C4E0080C1803E05000000024A012080C1803E26
:100C5E0005000000004A012080C1803E0500000012
:100C6E00FE49012080C1803E05000000FD490120A3
:100C7E0000FF0100FC4901200A320100FB4901205E
:100C8E000400000068E90408FA490120020000008F
:100C9E007CE9040800000000000000009C02012016
:100CAE00C06E01209CFF2C01000000006800012096
:100CBE000A00000088E90408F0490120E0150C172D
:100CCE00000000006A000120080000000CF2040879
:100CDE006900012005000000B8EA0408F24901206D
:100CEE0002000000A0E90408364C01200100FF7F3D
:100CFE0001000000354C012002000000ACE90408A0
:100D0E00DC4B01200300400001000000DA4B012003
:100D1E000000803E01000000D84B01200000F401CD
:100D2E0001000000D64B01200000F401010000007C
:100D3E00D44B01200000F40101000000D24B012031
:100D4E000000F40101000000D04B01200000803EA5
:100D5E0001000000CE4B01200000803E010000008B
:100D6E00F84B0120E803D0070A000000F64B0120E3
:100D7E00006401000A000000EB4B0120006401003A
:100D8E00EA4B012000640100F24B012000640100D7
:100D9E000A000000F14B0120006401000A0000006F
:100DAE00F04B0120006401000A000000F54B012009
:100DBE00006401000A000000F44B012000640100F1
:100DCE000A000000F34B0120006401000A0000003D
:100DDE00EF4B012000FF01000A000000EE4B012046
:100DEE0000FF01000A000000ED4B012000FF010092
:100DFE000A000000784A01200000F4010100000002
:100E0E00764A01200000F40101000000744A01201E
:100E1E000000F40101000000724A01200000F401FC
:100E2E0001000000704A01200000F40101000000E2
:100E3E00E84B012000640100E64B01201400E8039A
:100E4E0001000000E44B0120E80330750A000000A9
:100E5E00E24B012000C80100E14B012000C8010057
:100E6E00E04B012000C80100DF4B012000640100AF
:100E7E000A0000001B4C012001C801001A4C012081
:100E8E00010A01002A4C01200000D00701000000D9
:100E9E00244C012000C80100234C012000C8010091
:100EAE00224C012000C80100284C01200000D00770
:100EBE0001000000214C012000C80100204C01203F
:100ECE0000C801001F4C012000C80100264C012063
:100EDE000000D007010000001E4C012000C80100D8
:100EEE001D4C012000C801001C4C012000C801004F
:100EFE00194C012001000000BCE904085029050826
:100F0E0000000000000000000000000000000000D3
:100F1E0060290508090000000000000040030120C0
:100F2E000400000068290508090000000000000008
:100F3E0034030120040000002831050809000000D8
:100F4E00000000002803012004000000984405085A
:100F5E0009000000000000001C0301200400000036
:100F6E007029050809000000000000001003012090
:100F7E0004000000782905080900000000000000A8
:100F8E000403012004000000802905080900000068
:100F9E0000000000F8020120040000008829050866
:100FAE000900000000000000EC0201200400000017
:100FBE001C290508010000000000000000000000D0
:100FCE0000000000000000000E0000000000000005
:100FDE000000000000000000C82B05080000000003
:100FEE00000000000000000000000000DC76050894
:100FFE000700000000000000640301200000000054
:10100E00D82B05080800000000000000580301203E
:10101E0000000000E42B050808000000000000009E
:10102E004C030120000000001C29050801000000EF
:10103E0000000000000000000000000000000000A2
:10104E000E00000000000000000000000000000084
:10105E00EC2B05080000000000000000000000005E
:10106E0000000000FC2B05080D0000000000000031
:10107E00A003012000000000042C05080D00000054
:10108E000000000094030120000000000C2C050855
:10109E0007000000000000008C030120000000008B
:1010AE00142C05080D000000000000008003012034
:1010BE00000000001C2C05080D00000000000000C0
:1010CE007403012000000000242C05080700000016
:1010DE00000000006C030120000000001C29050820
:1010EE0001000000000000000000000000000000F1
:1010FE00000000000E0000000000000000000000D4
:10110E00000000002C2C050800000000000000006C
:10111E000000000000000000DC7605080C00000056
:10112E0000000000144A012000000000402C0508B9
:10113E000C00000000000000164A01200000000014
:10114E00502C05080C000000000000004C4A012045
:10115E0000000000602C05080C00000000000000DC
:10116E00404A012000000000742C05080C0000000D
:10117E0000000000184A012000000000802C050825
:10118E000C000000000000001A4A012000000000C0
:10119E00882C05080C000000000000001C4A0120ED
:1011AE00000000009C2C05080C0000000000000050
:1011BE001E4A012000000000A42C05080C000000AF
:1011CE0000000000204A012000000000AC2C0508A1
:1011DE000C000000000000005E4A0120000000002C
:1011EE00C42C05080C00000000000000224A01205B
:1011FE0000000000D02C05080C00000000000000CC
:10120E00244A012000000000D82C05080C00000024
:10121E0000000000264A012000000000E42C050812
:10122E000C00000000000000284A01200000000011
:10123E00F02C05080C000000000000002A4A0120D6
:10124E0000000000FC2C05080C000000000000004F
:10125E002C4A012000000000082D05080C0000009B
:10126E00000000002E4A012000000000142D050889
:10127E000C00000000000000304A012000000000B9
:10128E00202D05080C00000000000000444A01203B
:10129E0000000000282D05080C00000000000000D2
:1012AE00424A012000000000302D05080C0000000D
:1012BE0000000000504A0120000000003C2D0508EF
:1012CE000C00000000000000524A01200000000047
:1012DE00482D05080C00000000000000584A0120AF
:1012EE0000000000382A05080C0000000000000075
:1012FE00324A012000000000542D05080C000000A9
:10130E00000000003A4A0120000000005C2D050894
:10131E000C00000000000000344A01200000000014
:10132E00682D05080C00000000000000364A012060
:10133E0000000000742D05080C00000000000000E5
:10134E00384A0120000000007C2D05080C0000002A
:10135E00000000003C4A012000000000882D050816
:10136E000C00000000000000464A012000000000B2
:10137E00902D05080C000000000000003E4A0120E0
:10138E00000000009C2D05080C000000000000006D
:10139E004E4A012000000000A82D05080C00000098
:1013AE0000000000484A012000000000B02D050892
:1013BE000C000000000000004A4A0120000000005E
:1013CE00B82D05080C00000000000000544A012052
:1013DE0000000000C02D05080C00000000000000F9
:1013EE00564A012000000000C82D05080C00000020
:1013FE0000000000684A0120000000001C290508BA
:10140E0001000000000000000000000000000000CD
:10141E00000000000E0000000000000000000000B0
:10142E0000000000D02D05080000000000000000A4
:10143E000000000000000000DC2D05080D0000007B
:10144E0000000000F803012000000000E42D050854
:10145E000D00000000000000EC0301200000000061
:10146E00EC2D05080700000000000000E403012039
:10147E0000000000F82D0508070000000000000025
:10148E00DC03012000000000042E05080900000006
:10149E0000000000D003012000000000102E0508FF
:1014AE000900000000000000C4030120000000003D
:1014BE001C2E05080900000000000000B8030120E2
:1014CE00000000002C2E050809000000000000009E
:1014DE00AC030120000000001C29050801000000DB
:1014EE0000000000000000000000000000000000EE
:1014FE000E000000000000000000000000000000D0
:10150E00402E050800000000000000000000000052
:10151E0000000000502E050805000000000000002D
:10152E006F4A0120000000001C2905080100000080
:10153E00000000000000000000000000000000009D
:10154E000E0000000000000000000000000000007F
:10155E00582E0508000000000000000000000000EA
:10156E0000000000A042050800000000000000007E
:10157E004F1E012004000000642E05080D0000001F
:10158E00A50B01084C04012000000000983305084B
:10159E000D00000015E400084004012000000000CA
:1015AE00E82C05080D000000F9E3000834040120C2
:1015BE0000000000682E0508080000000000000072
:1015CE002804012004000000542D05080D00000021
:1015DE0045E300081C04012000000000702E0508E1
:1015EE0009000000000000001004012004000000AB
:1015FE00182E050803000000011001080404012044
:10160E00000000001C290508010000000000000079
:10161E000000000000000000000000000E000000AE
:10162E00000000000000000000000000782E0508F9
:10163E00000000000000000000000000000000009C
:10164E00882E05080D000000000000006404012033
:10165E0000000000902E05080A00000000000000A7
:10166E0060500120000000009C2E05080A000000BA
:10167E00000000006850012000000000A42E0508A4
:10168E000A00000000000000705001200000000061
:10169E00AC2E0508080000000000000058040120D0
:1016AE0000000000B42E05080400000035110108EA
:1016BE0000000000000000001C29050801000000C9
:1016CE00000000000000000000000000000000000C
:1016DE000E000000000000000000000000000000EE
:1016EE00C02E0508000000000000000000000000F1
:1016FE0000000000D42E05080800000000000000C5
:10170E00C404012000000000E02E050808000000BF
:10171E0000000000B804012000000000EC2E0508B7
:10172E000800000000000000AC04012000000000D2
:10173E00F82E05080800000000000000A00401209B
:10174E0000000000042F0508080000000000000043
:10175E009404012000000000102F0508080000006E
:10176E000000000088040120000000001C2F050866
:10177E0008000000000000007C04012000000000B2
:10178E00282F05080800000000000000700401204A
:10179E00000000001C2905080100000000000000E8
:1017AE000000000000000000000000000E0000001D
:1017BE00000000000000000000000000342F0508AB
:1017CE0000000000000000004702012000000000A1
:1017DE00402F05080B0000000000000058050120F6
:1017EE00000000004C2F05080B0000000000000058
:1017FE004C05012000000000582F05080B000000CA
:10180E00000000004005012000000000642F0508C4
:10181E000B00000000000000340501200000000055
:10182E00702F05080B0000000000000028050120A5
:10183E00000000007C2F05080B00000000000000D7
:10184E001C05012000000000882F05080B00000079
:10185E00000000001005012000000000942F050874
:10186E000B00000000000000040501200000000035
:10187E00A02F05080B00000000000000F804012056
:10188E0000000000AC2F050807000000000000005B
:10189E00F004012000000000B42F0508070000002E
:1018AE0000000000E804012000000000C02F050821
:1018BE000B00000000000000DC040120000000000E
:1018CE00CC2F05080800000000000000D004012005
:1018DE00000000001C2905080100000000000000A7
:1018EE000000000000000000000000000E000000DC
:1018FE00000000000000000000000000D82F0508C6
:10190E0000000000000000000000000000000000C9
:10191E00EC2F0508080000000000000094050120CF
:10192E0000000000F82F050808000000000000006D
:10193E0088050120000000000430050808000000A2
:10194E00000000007C05012000000000103005089A
:10195E0008000000000000007005012000000000DB
:10196E001C3005080800000000000000640501207E
:10197E00000000001C290508010000000000000006
:10198E000000000000000000000000000E0000003B
:10199E0000000000000000000000000024300508D8
:1019AE0000000000000000004402012000000000C2
:1019BE00343005080B00000000000000D80501209F
:1019CE000000000040300508070000000000000085
:1019DE00D0050120000000004C3005080700000073
:1019EE0000000000C8050120000000005830050866
:1019FE000700000000000000C005012000000000EC
:101A0E00643005080800000000000000B405012045
:101A1E00000000006C300508080000000000000007
:101A2E00A805012000000000743005080700000022
:101A3E0000000000A0050120000000001C29050880
:101A4E000100000000000000000000000000000087
:101A5E00000000000E00000000000000000000006A
:101A6E0000000000803005080000000000000000AB
:101A7E0044020120000000008C3005080D0000001B
:101A8E0000000000600601200000000098300508EC
:101A9E0007000000000000005806012000000000B2
:101AAE00A0300508070000000000000050060120CD
:101ABE0000000000A830050807000000000000002C
:101ACE004806012000000000B030050808000000A4
:101ADE00000000003C06012000000000B8300508A0
:101AEE000700000000000000340601200000000086
:101AFE00C030050807000000000000002C06012081
:101B0E0000000000C83005080700000000000000BB
:101B1E002406012000000000D03005080800000057
:101B2E00000000001806012000000000D830050853
:101B3E000700000000000000100601200000000059
:101B4E00E030050807000000000000000806012034
:101B5E0000000000E830050807000000000000004B
:101B6E000006012000000000F0300508080000000B
:101B7E0000000000F405012000000000F830050808
:101B8E000700000000000000EC050120000000002E
:101B9E00003105080700000000000000E4050120E8
:101BAE00000000001C2905080100000000000000D4
:101BBE0000000000000000000C31050802000000CB
:101BCE00E911010801000000000000000000000003
:101BDE000E000000000000000000000000000000E9
:101BEE000000000039E700086C0601206D4A012054
:101BFE002C000000C4E904086C4A012000C8010052
:101C0E006A4A0120E803D007010000004A48454611
:101C1E00374455414C000000084A012000030100E2
:101C2E00074A01200003010085E6000861E600086E
:101C3E004807012029E60008E9E50008C007012051
:101C4E00C1E60008A9E60008740801206DE5000849
:101C5E0029E50008940B01204FE70008050E010846
:101C6E00700C012081E3000800000000C00C012070
:101C7E001111010829EA00089C0D012031E8000825
:101C8E00E5E70008500E0120D9E8000825E9000814
:101C9E002C0F0120E94B012001060100A9E70008E5
:101CAE0075E700086C1001207DE80008350E01086C
:101CBE000C11012059E90008910E0108D4110120E0
:101CCE00DE4B012001030100183105080000000061
:101CDE000000000000000000000000002431050894
:101CEE00080000000000000070130120000000003A
:101CFE002C310508070000000000000068130120C9
:101D0E00000000003C3105080D000000000000003E
:101D1E005C1301200000000048310508030000009C
:101D2E000110010850130120000000001C290508B5
:101D3E000100000000000000000000000000000094
:101D4E00000000000E000000000000000000000077
:101D5E0000000000503105080000000000000000E7
:101D6E000000000000000000603105080A000000BD
:101D7E000000000068310508000000007031050801
:101D8E000A00000000000000783105080000000085
:101D9E00803105080A000000000000002C4C0120D4
:101DAE0000000000883105080A0000000000000055
:101DBE007C130120000000001C2905080100000012
:101DCE000000000000000000000000000000000005
:101DDE000E000000000000000000000000000000E7
:101DEE009031050800000000000000000000000017
:101DFE00000000009C3105080300000001100108DE
:101E0E00B013012000000000A831050803000000F7
:101E1E0001100108A413012000000000B0310508D4
:101E2E0003000000011001089813012000000000BB
:101E3E00B83105080500000000000000064A012028
:101E4E0000000000C031050807000000000000007F
:101E5E009013012000000000CC310508070000009F
:101E6E000000000088130120000000001C29050856
:101E7E000100000000000000000000000000000053
:101E8E00000000000E000000000000000000000036
:101E9E0000000000D831050800000000000000001E
:101EAE000000000000000000EC31050803000000F7
:101EBE0001100108E013012000000000F8310508B0
:101ECE0003000000011001086C000120000000005A
:101EDE00003205080300000001100108D413012090
:101EEE000000000008320508030000000110010880
:101EFE00C813012000000000542D05080300000047
:101F0E0001100108BC130120000000001C29050867
:101F1E0001000000000000000000000000000000B2
:101F2E00000000000E000000000000000000000095
:101F3E000000000014320508000000000000000040
:101F4E000000000000000000243205080700000019
:101F5E00090F01083014012000000000782D05083B
:101F6E0003000000011001082414012000000000ED
:101F7E00303205080300000001100108181401207A
:101F8E0000000000383205080300000001100108AF
:101F9E000C1401200000000040320508070000006C
:101FAE00ED0E01080414012000000000D8440508BD
:101FBE000300000001100108F813012000000000CA
:101FCE004C3205080300000001100108EC1301203B
:101FDE00000000001C2905080100000000000000A0
:101FEE000000000000000000000000000E000000D5
:101FFE0000000000000000000000000009E70008DB
:10200E00D9E6000838140120F5E9000800000000A8
:10201E00C4140120CDE50008B1E5000850150120DB
:10202E00000000000000000004160120CDE90008A9
:10203E00250F0108A41601205832050800000000E3
:10204E0000000000000000000000000064320508DF
:10205E0003000000011001089C1701200000000081
:10206E006C320508030000000110010890170120D2
:10207E00000000007832050803000000011001087E
:10208E0084170120000000007C32050803000000C8
:10209E0001100108781701200000000088320508A1
:1020AE0003000000011001086C1701200000000061
:1020BE009032050802000000E9110108000000003E
:1020CE00000000000C31050802000000E9110108B3
:1020DE000100000000000000983205080200000018
:1020EE00E9110108020000000000000000000000DD
:1020FE000E000000000000000000000000000000C4
:10210E00F649012088136F1701000000F8490120DD
:10211E0088136F1700000000A432050800000000AD
:10212E00000000000000000000000000B4320508AE
:10213E0008000000000000007C18012004000000D0
:10214E00C0320508080000000000000070180120D1
:10215E0000000000182E050804000000090C0108FC
:10216E0000000000000000001C290508010000000E
:10217E000000000000000000000000000000000051
:10218E000E00000000000000000000000000000033
:10219E00F449012088136F1701000000006F012021
:1021AE0088136F1700000000BDE400080000000057
:1021BE0088180120075001200100000078EA040869
:1021CE00026F01200100000084EA0408F86E01206D
:1021DE00020000008CEA040872AD0120000000002D
:1021EE000000000070AD01200000000000000000A3
:1021FE006EAD012000000000000000006CAD01205B
:10220E0000000000000000006AAD01200000000088
:10221E000000000068AD012000000000000000007A
:10222E00881E01200000000000000000F34901207C
:10223E000200000098EA0408FC32050800000000C5
:10224E00000000000000000000000000B43205088D
:10225E0008000000000000000C190120040000001E
:10226E00C03205080800000000000000001901201F
:10227E0000000000182E05080400000091E400087C
:10228E0000000000000000001C29050801000000ED
:10229E000000000000000000000000000000000030
:1022AE000E00000000000000000000000000000012
:1022BE000C330508000000000000000000000000C4
:1022CE00000000001C3305080D000000590D010828
:1022DE003C19012004000000283305080D00000001
:1022EE00E1E4000830190120040000003433050831
:1022FE000D0000001D0D0108241901200000000032
:10230E004033050803000000E90B010818190120ED
:10231E00080000004C3305080300000001100108FE
:10232E00401C0120000000001C29050801000000CF
:10233E00000000000000000000000000000000008F
:10234E000E00000000000000000000000000000071
:10235E001429050800000000000000000000000025
:10236E0000000000CA28050804000000210C010826
:10237E0000000000000000001C29050801000000FC
:10238E00000000000000000000000000000000003F
:10239E000E00000000000000000000000000000021
:1023AE00A03305080000000000000000000000003F
:1023BE0000000000543405080D000000000000006D
:1023CE009C19012004000000B0330508080000002D
:1023DE00000000009019012004000000BC33050825
:1023EE000800000000000000841901200400000015
:1023FE00C433050808000000000000007819012011
:10240E0004000000CC3305080800000000000000A6
:10241E006C19012004000000D433050808000000E8
:10242E00000000006019012004000000DC330508E4
:10243E0008000000000000005419012004000000F4
:10244E00E4330508080000000000000048190120D0
:10245E00040000001C290508010000000000000017
:10246E000000000000000000000000000E00000050
:10247E00000000000000000000000000A9E40008B9
:10248E0000000000A819012000000000000000005C
:10249E00201A01200000000000000000C01A0120D8
:1024AE00FE6E012004000000A4EA0408FC6E012068
:1024BE00E0150C1700000000FB6E01200800000064
:1024CE000CF20408FA6E012005000000B8EA0408B8
:1024DE000000000000000000101B01200000803FE3
:1024EE00FF00000000000000605B012008000000FB
:1024FE0000000000505B012008000000D8F0040826
:10250E000508040000000000B8EA04080CF20408F4
:10251E00A4EA0408000000000000000004F1040812
:10252E0005080A0000000000B8EA04080CF20408CE
:10253E0088E90408000000000000000000C201004D
:10254E00000008001A030000000000000000000058
:10255E00000000000000000000000000000000006D
:10256E0004030904120100020000004083042A57EC
:10257E0000020102030100001201000202000040ED
:10258E008304405700020102030100000A06000204
:10259E00000000400100000009072000010104C0F6
:1025AE0032090400000208065005070581024000AA
:1025BE00000705010240000009022000010104C0CD
:1025CE00320904000002080650050705810240008A
:1025DE00000705010240000009022000010104C0AD
:1025EE0032090400000208065005070581020002A8
:1025FE0000070501020002000A060002000000406A
:10260E000100000009074300020104C03209040062
:10261E000001020201000524001001052401000141
:10262E00042402020524060001070582030800FFA8
:10263E0009040100020A0000000705010240000023
:10264E00070581024000000009024300020100C09C
:10265E0032090400000102020100052400100105E8
:10266E00240100010424020205240600010705824C
:10267E000308001009040100020A0000000705010A
:10268E000200020007058102000200000902430059
:10269E00020100C0320904000001020201000524FB
:1026AE000010010524010001042402020524060085
:1026BE00010705820308001009040100020A000048
:1026CE0000070501024000000705810240000000DE
:1026DE0000FFFF0000000000AA5505010000012DBB
:1026EE00202D2D202D2D2D2D202D2D2D2D000000BA
:1026FE000000000000000000000000000000AA55CD
:10270E000B010000AA5507010000AA55090200009E
:10271E000000000001000000C012AA5503009F0037
:10272E00FF1FFF1F5C71012000000000A41E01208E
:10273E0004000000000200051002700B685E0C0021
:10274E00010102FFFF00000000000100E001010096
:10275E000000803F080000000000803F00000000E5
:10276E00000000000000000000000000000000005B
:10277E00000000000000000000000000000000004B
:10278E00FFFF0100FFFFFFFF10000000006002408E
:10279E00106002400000000000000000000B00006E
:1027AE000000000000000000000000000060024079
:1027BE00286002400100000000000000060C00002E
:1027CE000000000000000000000000000060024059
:1027DE00406002400200000000000000100D0000EA
:1027EE000000000000000000000000000060024039
:1027FE00586002400300000000000000160E0000AA
:10280E000000000000000000000000000060024018
:10281E00706002400400000000000000200F000065
:10282E0000000000000000000000000000600240F8
:10283E008860024005000000000000002610000025
:10284E0000000000000000000000000000600240D8
:10285E00A0600240060000000000000030110000E1
:10286E0000000000000000000000000000600240B8
:10287E00B86002400700000000000000362F000084
:10288E000000000000000000000000000064024094
:10289E00106402400000000000000000003800003C
:1028AE000000000000000000000000000064024074
:1028BE0028640240010000000000000006390000FC
:1028CE000000000000000000000000000064024054
:1028DE00406402400200000000000000103A0000B8
:1028EE000000000000000000000000000064024034
:1028FE00586402400300000000000000163B000078
:10290E000000000000000000000000000064024013
:10291E00706402400400000000000000203C000033
:10292E0000000000000000000000000000640240F3
:10293E0088640240050000000000000026440000EC
:10294E0000000000000000000000000000640240D3
:10295E00A0640240060000000000000030450000A8
:10296E0000000000000000000000000000640240B3
:10297E00B864024007000000000000003646000068
:10298E000000000000000000000000000100000038
:10299E0039F901082DF901088D090208A10902086B
:1029AE00E5F801087909020863090208D120020836
:1029BE00ED0902084920020800000000C5F90108CF
:1029CE0023FA0108F1F901080000000000000000E0
:1029DE0000000000ADF90108B9F90108A1F90108DC
:1029EE0095F90108C53E0208BDF701083DF701083B
:1029FE0025F70108FFFF0000FFFFFFFF1F852B3F9C
:102A0E000000803F000000000000000000000000F9
:102A1E000000803F000000000000000000000000E9
:102A2E000000803F000000000000000000000000D9
:102A3E00A4210120000000000000000000000000A2
:102A4E000000000000000000000000000000000078
:102A5E000000000000000000000000000000000068
:102A6E000000000000000000000000000000000058
:102A7E000000000000000000000000000000000048
:102A8E000000000000000000000000000000000038
:082A9E0000000000010000002F
:102AA600DC4505088445050800000000E9B1030877
:102AB600A0860100040000000000000000000000E5
:102AC6000000000000000000000000000000000000
:102AD60000000000DC450508E4450508000000008C
:102AE60081600208E8030000040000000000000006
:102AF60000000000000000000000000000000000D0
:102B06000000000000000000782D0508EC450508CF
:102B160000000000450800007D00000006000000DF
:102B2600000000000000000000000000000000009F
:102B3600000000000000000000000000F73E05084D
:102B460000000000000000006D920208E80300008B
:102B5600030000000000000000000000000000006C
:102B6600000000000000000000000000000000005F
:102B7600F44505080000000000000000F9380408CC
:102B8600C40900000500000000000000000000006D
:102B9600000000000000000000000000000000002F
:102BA60000000000D042050800000000B905010839
:102BB600C19902086A180000050000000000000024
:102BC60000000000000000000000000000000000FF
:102BD6000000000000000000C878050800000000A2
:102BE60000000000B5AC020810270000010000003C
:102BF60000000000000000000000000000000000CF
:102C0600000000000000000000000000004605086B
:102C1600000000000000000085600208E8030000D4
:102C26000500000000000000000000000000000099
:102C3600000000000000000000000000000000008E
:102C46000C4605080000000000000000F1E701083E
:102C5600204E0000030000000000000000000000FD
:102C6600000000000000000000000000000000005E
:102C7600000000001C4605080000000000000000DF
:102C8600DDE50108204E0000030000000000000002
:102C9600000000000000000000000000000000002E
:102CA60000000000000000002C460508000000009F
:102CB6000000000009670208400D03000300000041
:102CC60000000000000000000000000000000000FE
:102CD6000000000000000000000000003C4605085F
:102CE60000000000000000008DBA03081027000055
:102CF60001000000000000000000000000000000CD
:102D060000000000000000000000000000000000BD
:102D1600CC4205080000000000000000E51D030885
:102D26001027000003000000000000000000000063
:102D3600000000000000000000000000000000008D
:102D460000000000444605080000000000000000E6
:102D5600F56B020850C300000100000000000000EF
:102D6600000000000000000000000000000000005D
:102D76000000000000000000382A050800000000DE
:102D8600000000008D690208A86100000100000033
:102D9600000000000000000000000000000000002D
:102DA6000000000000000000000000004C4605087E
:102DB6000000000000000000DD390308A0860100C5
:102DC60001000000000000000000000000000000FC
:102DD60000000000000000000000000000000000ED
:102DE6005846050800000000000000003DB5020836
:102DF600A00F00000100000000000000000000001D
:102E060000000000000000000000000000000000BC
:102E160000000000644605080000000000000000F5
:102E26007DED0208102700000100000000000000F0
:102E3600000000000000000000000000000000008C
:102E460000000000000000007832050800000000C5
:102E560000000000454803081A4100000100000078
:102E6600000000000000000000000000000000005C
:102E7600000000000000000000000000F82905081E
:102E86000000000000000000950402081027000062
:102E9600010000000000000000000000000000002B
:102EA600000000000000000000000000000000001C
:102EB600984505080000000000000000FD2D0108EF
:102EC6001A410000010000000000000000000000A0
:102ED60000000000000000000000000000000000EC
:102EE6000000000070460508000000000000000019
:102EF600054A0208400D0300000000000000000023
:102F060000000000000000000000000000000000BB
:102F160000000000000000007846050800000000E0
:102F26000000000025B20308400D03000000000069
:102F3600000000000000000000000000000000008B
:102F460000000000000000000000000080460508A8
:102F56000000000000000000712B030850C30000B1
:102F66000300000000000000000000000000000058
:102F7600000000000000000000000000000000004B
:102F86008C460508000000000000000055E5010819
:102F960040420F000000000000000000000000009A
:102FA600000000000000000000000000000000001B
:102FB6000000000098460508000000000000000020
:102FC6004DB3030850C300000000000000000000DD
:102FD60000000000000000000000000000000000EB
:102FE60000000000000000000000803F0000803F5D
:082FF600351A0000351A000035
:1080000030B41D6995420AD314460A4621448D4274
:10801000996938BF2A1B214430BC43F041B830BCB9
:10802000704700BF00207047012070470120704753
:1080300000207047054B002010B49B684FF400747B
:1080400014800B605DF8044B704700BF1094012052
:108050003D22032302704370704700BF0830704711
:10806000704700BF816170472DE9F04FDFF8D8C13C
:1080700085B0744CDCF800502288B4F90AA0C2EB39
:10808000251352005B43C2EBE502B4F902501B1307
:108090006A43B4F904505D43AD1305EBE225B5F531
:1080A000FA324FEAE57BA5614BF1FF334FEAEA7BF9
:1080B000CDE90023DDE90032CDE902015343009A06
:1080C0000199A2FB0289B4F90820009809EB430941
:1080D0005143D31700FB0311A2FB00230B440AFBFF
:1080E00009F116031F0308FB0B13AAFB080147EA5B
:1080F000125719444FEA102A4AEA016A4FEA212B23
:108100001AEB0602E6884BEB070312F1000A43F56F
:10811000004BAAFB060106FB0B114A10CB1752EAD3
:10812000030100F08C80B4F91060009806FB09F19F
:10813000F71708FB0711A6FB0867B4F90E8039444E
:108140004FEAE879B2468B46019908FB01F100FB42
:108150000911A8FB00898944DCF804104FEA48465D
:10816000C1F5801C4FEA49471AEB060A47EAD8379F
:108170006646B4F90C804FEACC704BEB070BF7174F
:108180004FEAC806F9070196002641EA5C0140F66D
:10819000354C0096DDE9006716EB0A0647EB0B0746
:1081A000801B61EB07018946A0FB0C010CFB091148
:1081B00042F07CFAB4F916204E13B4F914A0470B20
:1081C000804602FB06FCD31747EAC1474FEAEA7B29
:1081D00007FB03CCA2FB07236344564307FB03665C
:1081E000A2FB07233344560E46EAC3165F16321825
:1081F00047EB01030AFB01F108FB0B17AAFB08017F
:108200003944C60C46EA4136CF1412EB0608B4F9DD
:10821000122043EB07094FEA1821130141EA0961D3
:108220000B44029A0AB11B0A1360039B23B105EBAE
:10823000850580352D121D6005B0BDE8F08F002347
:10824000EFE700BF945301200822012070477047D8
:108250000022082302764376704700BF00220823DD
:1082600002764376704700BF034610B4D0F8F8405A
:10827000D968406964B1D3F810218C1A013A005DC5
:1082800008BF0A465DF8044BC0B2C3F8102170471E
:108290001A6A805C01328A4228BF2246C0B25DF869
:1082A000044B1A62704700BFD0F8FC3013B190F84D
:1082B00090017047D0E90903181AB0FA80F040091C
:1082C000704700BFD0E909120369914238BFC9184D
:1082D000013B8A1AD0F8FC1031B1D0F87C11096842
:1082E00049680A449A4201D2981A704700207047A0
:1082F000D0F8F8306BB1D0F88031D0F810211B687D
:108300005B689A4201D8981A7047C068801A18446E
:108310007047D0E907239A4203D2C0681044C01ABC
:108320007047D01A704707B506236A46F72120F038
:10833000EBF89DF801309DF800101B010B4A43EA51
:1083400001339DF8021043EA11139DF803105360A6
:108350009DF804301B0143EA01339DF8051043EA00
:108360001113136003B05DF804FB00BF0822012065
:108370002DE9F84F0A9E894617460021202298468B
:1083800005460B9C45F0D0F95EB17189D6E9002312
:108390006982C2F30F40EA81C3F30F42EB82288265
:1083A0002A83484641F096FC17F0100A0FD1431E6D
:1083B00068B119F803202E2A4DD009EB030103E020
:1083C00011F8016D2E2E3ED013F1FF33F8D208289C
:1083D0000246CB464FF0000AA8BF08224FF02033D8
:1083E00005F10806494628466B602B60C5F8073042
:1083F00042F056FE52465946304642F051FE6A1E41
:10840000E81D12F8013FA3F16101203B192998BF33
:1084100013708242F5D105F10B0116F8013BA3F16F
:108420006102203B192A98BF06F8013CB142F4D101
:10843000C8F30F421823EF72A5F81A80AA82EC61E4
:108440002B73BDE8F88FC01A00F1FF3ABAF1030FA1
:10845000A8BF4FF0030A082B03F1010BA8BF0823A4
:10846000CB441A46BAE700BF2DE9F04F1E4685B04F
:108470000C460020012115461FF05CFE002E61D045
:108480007319DFF870B3D54E02931CE0002D00F095
:10849000DD81DBF81430AB4265D0DBF81030AB4245
:1084A00000F09B80DBE90631AB4253D88D42C0F02F
:1084B0007881691A20462FF04DFA0135029B04F5A8
:1084C00000749D423ED0DBF82070AF42DED8EF1B37
:1084D000DBF830804FEAD70AD8F8303007F00707CA
:1084E0000AF1020A9A4503D3D8F838309A4509D9D7
:1084F000414650462FF0FCF98046002800F0568196
:10850000CBF8300098F80430002B40F0E980D8F820
:108510002890B9F1000F00F0F781D8F830104346E9
:10852000D8F80C202046AAEB010A4FF4007101355F
:1085300004F5007407EBCA0A02EB4A22C847029B03
:108540009D42C0D1002108461FF0F4FD002005B077
:10855000BDE8F08F8D42ACD24FF40072002120466E
:1085600045F0E2F8A9E7722300274FF0FF3C4FF0F7
:10857000520E6122412084F8E431394684F8E53115
:10858000DBF82830A27084F8E7214FF4F072E07035
:1085900084F8E601201D84F800E084F801E084F806
:1085A000ECC1C4F8E83184F8EDC184F8EEC184F878
:1085B000EFC145F0B9F855216FF05502C4F8F071DC
:1085C000C4F8F471C4F8F87184F8FC7184F8FD7192
:1085D00084F8FE1184F8FF216FE74FF40072002148
:1085E00020467F4F45F0A0F85821EB200222617011
:1085F000F82120704FF0080C61753F21902384F81A
:108600000DC021764FF0FF3EA370002322744FF07F
:1086100080082273A273E372E3736374A374E37438
:108620002375A375E3756376E3766377A377E377C2
:1086300084F81AE04FF0010E03CF3E27C4F8030080
:10864000C4F80710DBF80810DBF810002777081AC9
:10865000DBF81C10634F2062DBF8180084F82C2034
:108660000E22091A84F8283084F829302920616202
:10867000942184F82A3084F82B3084F82D3084F843
:108680002E3084F82F3084F8313084F8323084F87A
:1086900033300D2384F846C004F1470C84F84200BF
:1086A00084F8431084F8442084F845304E4B84F815
:1086B00030E04FF0AA0E84F840804FF0550807CF05
:1086C000C4F84700CCF80410CCF8082084F8FE81E8
:1086D00084F8FFE103CBC4F85200C4F85610ECE66E
:1086E0004FF400720021204645F01EF8D8F84030C3
:1086F000002F63D104F120020392002B00F0898047
:10870000D8F83030112201972046009704F1400933
:108710003649FFF72DFED8F840301A6C002A00F0D9
:108720008A801B6B112201974FF4E07A039800971F
:108730002F49FFF71DFED8F8448018F1000318BF39
:108740000123002B3FF4B9AE474603940CE000240C
:10875000AAF1200AC146CDE900C4FFF709FEBF6CAB
:10876000EFB1BAF11F0F1AD997F804E01122484669
:1087700009F12008396807F11C0C3B6BBEF1000FB2
:10878000E5D17A79AAF1200A3C69C14642F021027A
:10879000CDE900C4FFF7ECFDBF6C002FE1D1039CD5
:1087A0008BE6E91A20462FF0D5F886E6231F04F55C
:1087B000FE7243F8046F9A42FBD17EE6002BD8F894
:1087C000448014BF02230123B8F1000FC3EB071745
:1087D00014BF012300232AD042460EE0DEADBEEFD7
:1087E000FC2705080828050818280508F4270508A7
:1087F000F82705081094012033B1926C013F131C37
:1088000018BF0123002FF7DC9046A1464FF4007AF1
:1088100097E7DBF80C103B460197082200972046AB
:10882000DDF80C904FF4F07AFFF7A2FD83E7A14644
:108830004FF4007A85E701973B4600971122039891
:108840004FF4E07A4749FFF793FD74E74FF4007265
:108850002946204644F068FF80220C2384F8B85152
:1088600084F8BE2184F8C2313F4BDBF81020DBF8DE
:10887000080083FB02314FEAE27C84F8B951CCEB6B
:10888000213184F8BA5184F8BB51B1F5806F84F876
:10889000BC5184F8BD51C4F8C621C4F8CA0142DBFA
:1088A000FF2384F8BF3184F8C13184F8C031421EFF
:1088B0002D4BD71783FB0231C7EB2131B1F5806F08
:1088C00029DA2A4B84F8C511891083FB0203284852
:1088D00021F03F011344C7EB6313C3EB831780FB05
:1088E00003C0D21B1844DF170132C7EBE0100A4364
:1088F000034484F8C42184F8C3315522AA2384F8A0
:10890000FE2184F8FF31D8E549464FF40072204635
:1089100044F00AFFD1E5FF2384F8C33184F8C53160
:1089200084F8C431E9E7114B84F8C111891083FB45
:1089300002730F4F21F03F011344CCEB6313C3EBE1
:10894000831C87FB03E7A2EB0C021F444FEAE37C86
:108950000132CCEBE7170A433B4484F8C02184F88A
:10896000BF31A4E7F82705089755454183200882C1
:1089700081808080F8B590F8853190F88621134386
:1089800003F02103212B45D0D0E90912914293B283
:1089900041D804690021E31A9BB290F88541002573
:1089A0008162202C80F8905134D18469D44204EB48
:1089B00002012FD0B3FA83F464095CBB90F88421E0
:1089C000012A27D0054621220120144FA5F86E3137
:1089D000D5F87C61C5F8884185F88521104AA5F84D
:1089E0006C3185F884013046C5F868113465C6E9F4
:1089F0000F72D5F81C210B4F2832F7641AF02DFCAA
:108A0000D5F81C3140221A6285F884419A6842F0F8
:108A100080029A60F8BDCB1A9BB2BEE7F3FA010858
:108A2000BDFA010857FA0108426A10B48469A154DA
:108A3000426A04690132D0F8FC10A24228BF002229
:108A4000426241B10B68DB0702D55DF8044B704709
:108A50005DF8044B8EE7D0F81C215DF8044B1368D9
:108A600043F08003136070472EF0C4B82DE9F04F37
:108A700085B0BA4A03904369934200F06B8402F5D3
:108A80008062934200F066841A68382622F0400221
:108A90001A601D686B21039A4FF0100925F0380504
:108AA000AF4C02F1100080223543DFF8C8820290FB
:108AB0001D601D68AB4E45F04005AB4F1D6044F096
:108AC000B3FE6423DFF8B0E2A8480193DEF8043077
:108AD000C3F30803002B40F01D84EFF31183002B38
:108AE00040F018842568826823689D42FAD13B686B
:108AF0009A42F7D8D6F800C04FF47A7101FB0CF314
:108B00009B1AB3FBFCF301FB05354FF47A7C4FF065
:108B1000010ADEF80430C3F30803002B40F0608341
:108B2000EFF31183002B40F05B8323688168226898
:108B30009342FAD13A689142F7D832680CFB02FBB3
:108B4000ABEB0101B1FBF2F10CFB03135B1BB3F5C3
:108B50007A7FDED3019B013B0193B7D103226821C9
:108B600002984FF0100944F05FFEDFF8088264239A
:108B7000DFF804E27D487C4F0193DEF80430C3F354
:108B80000803002B40F0A783EFF31183002B40F084
:108B9000A2832568826823689D42FAD13B689A4285
:108BA000F7D8D6F800C04FF47A7101FB0CF39B1A8A
:108BB000B3FBFCF301FB05354FF47A7C4FF0010A5F
:108BC000DEF80430C3F30803002B40F0EB82EFF330
:108BD0001183002B40F0E68223688168226893426B
:108BE000FAD13A689142F7D832680CFB02FBABEB42
:108BF0000101B1FBF2F10CFB03135B1BB3F57A7FB0
:108C0000DED3019B013B0193B7D101226B21029876
:108C10004FF0100944F008FEDFF858810F23DFF809
:108C200058E15248504F0193DEF80430C3F3080373
:108C3000002B40F03183EFF31183002B40F02C83A5
:108C40002568826823689D42FAD13B689A42F7D82A
:108C5000D6F800C04FF47A7101FB0CF39B1AB3FBFA
:108C6000FCF301FB05354FF47A7C4FF0010ADEF886
:108C70000430C3F30803002B40F07682EFF3118336
:108C8000002B40F071822368816822689342FAD1F8
:108C90003A689142F7D832680CFB02FBABEB01015A
:108CA000B1FBF2F10CFB03135B1BB3F57A7FDED350
:108CB000019B013B0193B7D1039ADFED2D7AD2F8E6
:108CC000633007EE103AB4EEE77AF1EE10FA40F3B3
:108CD000098492F86A30012B14BF1A2219221B2131
:108CE000029844F0A1FD4FF010090F23DFF888E04F
:108CF0001E48DFF880801C4F0193DEF80430C3F378
:108D00000803002B40F0A982EFF31183002B40F001
:108D1000A4822568826823689D42FAD13B689A4202
:108D2000F7D8D6F800C04FF47A7101FB0CF39B1A08
:108D3000B3FBFCF301FB05354FF47A7C4FF0010ADD
:108D4000DEF80430C3F30803002B40F0EF81EFF3AB
:108D50001183002B40F0EA8110E000BF0038004092
:108D6000188701201C8701202087012010E000E0E7
:108D70000000FA421487012000ED00E023688168BA
:108D800022689342FAD13A689142F7D832680CFBD4
:108D900002FBABEB0101B1FBF2F10CFB03135B1B1C
:108DA000B3F57A7FCCD3019B013B0193A5D1182267
:108DB0001C2102984FF0100944F036FDDFF828839B
:108DC0000F23DFF828E3C448C44F0193DEF80430D2
:108DD000C3F30803002B40F02182EFF31183002B33
:108DE00040F01C822568826823689D42FAD13B6866
:108DF0009A42F7D8D6F800C04FF47A7101FB0CF311
:108E00009B1AB3FBFCF301FB05354FF47A7C4FF062
:108E1000010ADEF80430C3F30803002B40F0688138
:108E2000EFF31183002B40F063812368816822688F
:108E30009342FAD13A689142F7D832680CFB02FBB0
:108E4000ABEB0101B1FBF2F10CFB03135B1BB3F5C0
:108E50007A7FDED3019B013B0193B7D1039ADFED0B
:108E6000A07AD2F8633007EE103AB4EEE77AF1EE6A
:108E700010FA00F3358392F86920012A00F071821C
:108E8000A2F10202B2FA82F252091A21029844F0C7
:108E9000CBFC4FF010090F23DFF850E28E48DFF8CB
:108EA00048828E4F0193DEF80430C3F30803002B91
:108EB00040F0F182EFF31183002B40F0EC82256843
:108EC000826823689D42FAD13B689A42F7D8D6F867
:108ED00000C04FF47A7101FB0CF39B1AB3FBFCF357
:108EE00001FB05354FF47A7C4FF0010ADEF80430BF
:108EF000C3F30803002B40F07282EFF31183002BC1
:108F000040F06D822368816822689342FAD13A6802
:108F10009142F7D832680CFB02FBABEB0101B1FBCD
:108F2000F2F10CFB03135B1BB3F57A7FDED3019BDD
:108F3000013B0193B7D1039B192102984FF010090F
:108F400093F86B2044F070FCDFF89C816423DFF819
:108F50009CE16148614F0193DEF80430C3F30803DC
:108F6000002B40F07982EFF31183002B40F07482E4
:108F70002568826823689D42FAD13B689A42F7D8F7
:108F8000D6F800C04FF47A7101FB0CF39B1AB3FBC7
:108F9000FCF301FB05354FF47A7C4FF0010ADEF853
:108FA0000430C3F30803002B40F0FB81EFF311837F
:108FB000002B40F0F6812368816822689342FAD141
:108FC0003A689142F7D832680CFB02FBABEB010127
:108FD000B1FBF2F10CFB03135B1BB3F57A7FDED31D
:108FE000019B013B0193B7D11022372102984FF02A
:108FF000100944F019FCDFF8F0800F23DFF8ECE0F3
:109000003548364F0193DEF80430C3F30803002BD4
:1090100040F00382EFF31183002B40F0FE812568BE
:10902000826823689D42FAD13B689A42F7D8D6F805
:1090300000C04FF47A7101FB0CF39B1AB3FBFCF3F5
:1090400001FB05354FF47A7C4FF0010ADEF804305D
:10905000C3F30803002B40F08681EFF31183002B4C
:1090600040F081812368816822689342FAD13A688E
:109070009142F7D832680CFB02FBABEB0101B1FB6C
:10908000F2F10CFB03135B1BB3F57A7FDED3019B7C
:10909000013B0193B7D101220298382144F0C4FB6F
:1090A000039B104A5B69934200F0148202F58062D0
:1090B000934200F00F821A68182122F040021A60D1
:1090C0001A6822F038020A431A601A6842F0400215
:1090D0001A6005B0BDE8F08F10E000E020870120A5
:1090E0000000FA42003800401487012000ED00E043
:1090F000EFF3118189F31288D0F808B00368DB031D
:1091000003D5C8F800A0D0F808B02368C9B2D8F8D1
:10911000002081F31188316813440CFB01F2A2EBAB
:109120000B02B2FBF1F20CFB03238FE6EFF311818C
:1091300089F31288D0F808B00368DB0303D5C8F8B8
:1091400000A0D0F808B02368C9B2D8F8002081F395
:109150001188316813440CFB01F2A2EB0B02B2FB45
:10916000F1F20CFB03231AE6EFF3118189F3128865
:10917000D0F808B00368DB0303D5C8F800A0D0F826
:1091800008B02368C9B2D8F8002081F3118831688B
:1091900013440CFB01F2A2EB0B02B2FBF1F20CFB4D
:1091A000032381E5EFF3118189F31288D0F808B029
:1091B0000368DB0303D5C8F800A0D0F808B0236823
:1091C000C9B2D8F8002081F31188316813440CFB30
:1091D00001F2A2EB0B02B2FBF1F20CFB03230CE554
:1091E000EFF3118189F31288D0F808B00368DB032C
:1091F00003D5C8F800A0D0F808B02368C9B2D8F8E1
:10920000002081F31188316813440CFB01F2A2EBBA
:109210000B02B2FBF1F20CFB032397E4EFF3118393
:1092200089F3128881680268D20303D50122C8F845
:10923000002081682568DBB2D8F800A083F311888C
:109240004FF47A72D6F800C0554402FB0CF35B1A57
:10925000B3FBFCF302FB0535D7E5EFF3118389F38C
:10926000128881680268D20303D50122C8F8002061
:1092700081682568DBB2D8F800A083F311884FF429
:109280007A72D6F800C0554402FB0CF35B1AB3FBAC
:10929000FCF302FB05354FE5EFF3118389F31288E8
:1092A00081680268D20303D50122C8F800208168D2
:1092B0002568DBB2D8F800A083F311884FF47A72E6
:1092C000D6F800C0554402FB0CF35B1AB3FBFCF369
:1092D00002FB0535C7E4EFF3118389F31288816837
:1092E0000268D20303D50122C8F8002081682568EE
:1092F000DBB2D8F800A083F311884FF47A72D6F865
:1093000000C0554402FB0CF35B1AB3FBFCF302FBF9
:10931000053551E4EFF3118389F3128881680268FF
:10932000D20303D50122C8F8002081682568DBB28A
:10933000D8F800A083F311884FF47A72D6F800C0F1
:10934000554402FB0CF35B1AB3FBFCF302FB05353F
:10935000FFF7DBBB1A68302622F040021A60FFF7E5
:1093600098BB072291E5EFF3118189F31288D0F8B9
:1093700008B00368DB0303D5C8F800A0D0F808B034
:109380002368C9B2D8F8002081F3118831681344EA
:109390000CFB01F2A2EB0B02B2FBF1F20CFB03237C
:1093A00071E6EFF3118189F31288D0F808B00368F1
:1093B000DB0303D5C8F800A0D0F808B02368C9B211
:1093C000D8F8002081F31188316813440CFB01F2B6
:1093D000A2EB0B02B2FBF1F20CFB0323FCE5EFF373
:1093E000118189F31288D0F808B00368DB0303D534
:1093F000C8F800A0D0F808B02368C9B2D8F8002097
:1094000081F31188316813440CFB01F2A2EB0B02CB
:10941000B2FBF1F20CFB032385E5EFF3118389F333
:10942000128881680268D20303D50122C8F800209F
:1094300081682568DBB2D8F800A083F311884FF467
:109440007A72D6F800C0554402FB0CF35B1AB3FBEA
:10945000FCF302FB0535F5E5EFF3118389F3128880
:1094600081680268D20303D50122C8F80020816810
:109470002568DBB2D8F800A083F311884FF47A7224
:10948000D6F800C0554402FB0CF35B1AB3FBFCF3A7
:1094900002FB05357FE5EFF3118389F312888168BC
:1094A0000268D20303D50122C8F80020816825682C
:1094B000DBB2D8F800A083F311884FF47A72D6F8A3
:1094C00000C0554402FB0CF35B1AB3FBFCF302FB38
:1094D000053507E51A68102122F040021A60EFE511
:1094E000019AD2E41822FFF7FABB00BF4069983016
:1094F00019F0C6BD426910B50832184C54F8220064
:1095000019F0BEFD164B1A8823460C2A0DD8DFE849
:1095100002F0070C0C0C130C0C0C190C0C0C1F009B
:109520002168CA6822F40072CA60012283F83D20D3
:1095300000220C4B1A7010BD2168CA6822F48062A8
:10954000CA60F2E72168CA6822F40062CA60ECE7E8
:109550002168CA6822F48052CA60E6E7848101204B
:1095600082810120E17B0120F8B5D0F81C3104464E
:10957000DA69910615D5586AE36AC0B2002B00F08B
:10958000D580216B9847D4F81C311A6822F4807278
:109590001A609A6822F001029A609A6942F0080201
:1095A0009A61DA69D20701D501221A62DA6997074E
:1095B00001D502221A62DA69560701D504221A621D
:1095C000DA69150701D508221A62D4F8FC201AB30B
:1095D000D969490600D4F8BDD96904F58E701E68B2
:1095E0000F079D6830D18F0602D5B50600F1E480E3
:1095F0000F0602D5350600F1C380480602D5710674
:1096000000F18C80002AE6D0D4E909239A4273D174
:10961000012384F89031F8BDD9690806D8D594F8AB
:1096200085112129D4D0D4E90901814200F0A1801B
:10963000A069405C0131C0B298622569B1FBF5F0C8
:1096400005FB1011A162C3E715F0010502D116F464
:10965000907FCDD0CF0702D5F70500F181808F072D
:109660004FD5002D71D10F0709D5B7066AD508254A
:109670001D62D4F8885145F00805C4F88851D4F823
:109680008851002DBED08F0605D5B50603D519F03B
:10969000BBFCD4F81C31D4F88821110708D49A688F
:1096A00012F0400204D1C4F88821D4F8FC20A9E7C4
:1096B0001A68202122F490721A609A6822F001023E
:1096C0009A6084F886119A685206EED59A68D4F8A2
:1096D000801122F040029A600029E6D0434B0846F0
:1096E0000B6519F0A7FD0028DFD0D4F88001036DC9
:1096F0009847D4F8FC2085E72046BDE8F840FFF7FE
:1097000039B94F07AFD5002DADD004271F62D4F86B
:10971000887147F00207C4F88871A4E7196820200F
:1097200021F04001196084F885016BE7E369626903
:10973000D054E369E1680133B3FBF1F201FB12336A
:10974000E36120E7002D9AD091E702271F62D4F849
:10975000887147F00407C4F888714F0783D5D4E7B0
:1097600001271F62D4F8887147F00107C4F8887197
:1097700075E7A4F86E21196821F08001196027E7C8
:1097800094F8851121297FF43DAFB4F86E1189B2A8
:10979000B9B1D4F82401D4F86811B0F5805F19D0BC
:1097A000481CC4F8680109789962B4F86E31013B2D
:1097B0009BB2A4F86E3125E719F026FCD4F8FC2002
:1097C00020E7196821F080011960196841F0400113
:1097D000196017E7D4F82C010028E1D131F8020B09
:1097E000C0F308009862C4F86811DEE749FA01087E
:1097F0000269C3682DE9F04712EA030927D00E4633
:1098000005464FF000474FF00008B9FA89F327FAF0
:1098100003F21B3BD2432A6109EA0209042B13D845
:10982000DFE803F0322920170300736A002B34D1DC
:10983000EB6A1FFA83FA346A34B123682046514632
:1098400098476468002CF8D1B9F1000FDDD1BDE86C
:10985000F0873068696B036889B29847B9F1000FE7
:10986000D3D1F4E77068A96B036889B29847B9F15E
:10987000000FCAD1EBE7B068E96B036889B298477B
:10988000B9F1000FC1D1E2E7F068296C036889B231
:109890009847B9F1000FB8D1D9E703F1FF3AC6F8FC
:1098A00024801FFA8AFAC6E708B5064B186838B153
:1098B0001EF0E0FC044B9B7813B180F00100C0B2B5
:1098C00008BD00BFEC5A0120E65A012070B52DF00A
:1098D000CBFF17F067FD1B201EF0E4F918B123221F
:1098E00000238271C3712CF019FA18B123220023CE
:1098F0008271C371124CD4F8143213B10023C4F82E
:109900001432104B01250026C4F8103284F8FC51A3
:1099100026702DF0BBFD0C4A0C4B9278C4F8143223
:10992000AA4201D0284670BD3833D4F83002C4F8BA
:109930002C321AF047FB064B304683F8236070BD8B
:10994000D4910120002101200C840120000001207D
:1099500000ED00E008B54FF0FF32044B01201A6023
:109960001DF0A0FF72B641F0B3F800BF40400240C6
:1099700008B5FFF799FF0028FBD114201DF092FFD6
:1099800000BFFFF791FF0028FAD0FFF7E3FF00BF09
:1099900008B5054B1B6803B19847044B044A1A608D
:1099A00072B641F095F800BF8C5301204040024050
:1099B0001010DDDD094B0A4A1B781078834206D966
:1099C000084AC3F180030344106818447047C31A5F
:1099D000044A0020034410681844704711510120C4
:1099E00094510120F0510120074A084B10781B7850
:1099F000834205D9C3F180031844C0F17F0070474A
:109A0000C01AC0F17F00704794510120115101200C
:109A1000064808B54368DB689847002304480549B1
:109A2000054A03700B70136008BD00BFA48D0120B0
:109A30009451012011510120F05101200348436845
:109A400013B19B6A03B1184701487047A48D0120E8
:109A500040D804082DE9F04784B0FFF7EFFF856890
:109A6000ED0A1BD0DFF84080002604AFC146AC19D8
:109A7000D8F8041010236A466410D1F824A0484690
:109A8000E102D0470F2809DD6B4653F8042B013261
:109A900008D19F42F9D12546B542E8DCE80204B07E
:109AA000BDE8F087661CF7E7A48D01202DE9F04F93
:109AB00087B001EB8202894601930023CDE90301BF
:109AC00059F8041B91450B44FAD10593019B2BB91E
:109AD000414843681B689847002861D0FFF7AEFFF4
:109AE00043880293059B002B4BD0DFF8F8B0DDF8DC
:109AF00014A0394EDBF80030029AB3FBF2F802FBF7
:109B0000183808EB0A0393428CBFA2EB0808D04632
:109B1000FFF794FFDBF8001083688B4246D9736827
:109B200047462D481B69039D049C9847D6F804C0FE
:109B3000216830460A4681B1DCF81430B942D5F8C4
:109B400000C0614621D2984722682B68D6F804C02D
:109B5000BF1A13442B600023236004340435A1454D
:109B6000E6D1DCF8183030469847DBF80030019A2F
:109B7000AAEB080A4344CBF8003022B3BAF1000F35
:109B8000BAD1059807B0BDE8F08F3A4698472A68E1
:109B900023683A44D6F804C0DF1B2A602760E0E758
:109BA000019B0593059807B0BDE8F08F0598002349
:109BB0000A49A0EB0A000A4A0B7005900598137039
:109BC00007B0BDE8F08F059BA3EB0A03059305984A
:109BD00007B0BDE8F08F00BFA48D01209451012093
:109BE00011510120F051012070B5104D84B0104E7C
:109BF0002B783278934214D00E4903EB0100CDE963
:109C0000020110D9C3F18000144604A901230222E5
:109C1000019441F8100D02A8FFF748FF00233370AC
:109C20002B7004B070BDD01A0024EEE71151012052
:109C3000945101201451012010B5FFF7FFFE8368F5
:109C400003B910BDFFF706FF0446FFF7CDFF014B38
:109C50001C6010BDF051012070B5054614460E463B
:109C6000FFF7ECFE2A1983689A4203D9FFF7E6FE54
:109C70008468641BFFF7B8FF0448234632464468F3
:109C80002946646AA446BDE870406047A48D01205F
:109C900013460A4601461846DEE700BF00200121B0
:109CA0002DE9F04F044689B01EF044FABC4D2DF06A
:109CB000C1FAFFF7C1FF41F62C722146B94843F0C3
:109CC00033FDB84B29194C2218194C3441F0E8F9EE
:109CD000E42CF6D1FFF7BEFE8246002800F0B980E2
:109CE0000027B14EDFF8DCB23D463C46122203A904
:109CF0002846FFF7B1FF1222594603A843F040FD62
:109D000020BB07EB8702A94BAC42A94907EB4202F3
:109D1000A5EB0408DFF8A092134417D001371846CA
:109D200001933A4620F042FA019B0122642F3360EE
:109D3000A04BF4602C46B260C6E90488C6E907333C
:109D4000C6E9093906F14C0600F0858005F5006585
:109D5000AA45CBD8642FA04677D0A54275D007EB93
:109D60008700924C944B7A1C07EB40009049A5EB7E
:109D7000080A019304EB00093D1D7C1D484620F0B4
:109D800015FA8C4A0121019BC6F800907262B362F9
:109D9000C6E904AAC6E90218C6E907224C260193BF
:109DA000804B002106FB05F53246DFF81C824FF0A0
:109DB00001095F19384643F0B7FC324600213846A6
:109DC00043F0B2FC774B7B4A43F80580019BC7F810
:109DD0000890BB627A62C7E90722FFF73BFEC7E93A
:109DE00004004C256F4B0021DFF8E08105FB04F6F1
:109DF0002A4602279C19204643F096FC2A46002159
:109E0000204643F091FC674D6A4B012245F80680DD
:109E100063626771A260C4E90733FFF71BFEC0F1FC
:109E200000602B46AD684000C4E904000DB91A7902
:109E3000AAB94FF47A701DF035FD002108461EF0D6
:109E400079F9002009B0BDE8F08FFD1C002F40F02B
:109E5000DA800324C5E74B46682467259EE7194648
:109E60001B68002BE5D0CB6C0D64CD63C1E91155A7
:109E70003BB308462A46294603464C1E4C305E6DCD
:109E8000C3F88C20A642C3F88820C3E924227FD0DF
:109E90004F1CBE4200F09C808E42CAD11C46002955
:109EA000C7D0266CF76B0137F763C3F88C60A064EA
:109EB000C36C002BE0D13B4B1968002900F0948063
:109EC0001A790020374C02231146064612E0E16B56
:109ED00023634901C4E9046603D001F6FF7107EB6F
:109EE000113363631946A363013554F84C2F0133D2
:109EF000E2B121795F1E0029E9D122692363002A9A
:109F000041D002F6FF7207EB12326169626319B148
:109F100001F6FF7307EB1333821AA3631946013569
:109F2000D01854F84C2F0133002AE2D1234C0139C8
:109F3000234B3F228F0F65638E00E36040233E2555
:109F40006162A36156EA0703A062C4E904521CD00F
:109F500040F2FF12002312EB060843EB07094FEA19
:109F6000582242EAC95202F14000831803EBC101B2
:109F70000C4AC4E90703A160CB0D4902C4E90B22D6
:109F8000C4E9001355E71A46BFE742234120EDE735
:109F900000293FF44EAF8E421C6C23D031467EE741
:109FA00050D80408C42A0120A82B01201022012027
:109FB000382805080068214C919C00081094012065
:109FC0006428050824280508482805085828050895
:109FD0001C46217900293FF42CAF60643946C3F850
:109FE0008C4065E70F46F4E7084C3E233F20084DC0
:109FF0004022616360614120A261C4E90353C4E966
:10A0000009114223B2E73C1D024BC7E61094012020
:10A0100064280508919C000870B5194C84B0194D4E
:10A0200023782A789A4222D0174903EB0100CDE920
:10A03000020119D2C3F18000164604A900230222AE
:10A04000019641F8100D02A8FFF730FD237818445F
:10A05000C0B203062B7848BF80F080008342207096
:10A0600008D0002004B070BDD01A0026E5E701201A
:10A0700004B070BD002301202B70237004B070BDAC
:10A0800011510120945101201451012008B5FFF70E
:10A09000D5FC8068003018BF012008BD08B5FFF767
:10A0A000CDFC806800B908BD024843681B6898472A
:10A0B00008BD00BFA48D0120B14B1B7803B1FEE7A2
:10A0C0002DE9F04FDFF8CCB20123AD4CDBF80C20CA
:10A0D00023701AB1938812681B049361A94A012462
:10A0E000DBF80430147040F2E93202E0002A00F09C
:10A0F0005A829C68013A14F0020F92B2F6D0002402
:10A1000040F2E9321C7302E0002A00F04C829C68A5
:10A11000013A14F0010F92B2F6D0DA6840F2E93257
:10A1200002E0002A00F029829C68013A14F0020F34
:10A1300092B2F6D0002440F2E9321C7302E0002A09
:10A1400000F01B829C68013A14F0010F92B2F6D025
:10A15000DA6840F2E93202E0002A00F0F8819C68F7
:10A16000013A14F0020F92B2F6D0092440F2E9321B
:10A170001C7302E0002A00F0EA819C68013A14F0A6
:10A18000010F92B2F6D0DA6840F2E93202E0002A1A
:10A1900000F0C7819C68013A14F0020F92B2F6D029
:10A1A000187340F2E93202E0002A00F0BA819868A0
:10A1B000013A10F0010F92B2F6D0DA68724A4D1EE1
:10A1C00000200A2714684FF0D808DFF8CCC1DFF868
:10A1D000BCE1DFF8BC91DFF8C4A1C6B240F2E932BD
:10A1E00002E0002A00F000819968013A11F0020FA4
:10A1F00092B2F6D01F7340F2E93202E0002A00F07A
:10A20000F3809968013A11F0010F92B2F6D0DA6842
:10A2100040F2E93202E0002A00F0F6809968013A43
:10A2200011F0020F92B2F6D01E7340F2E93202E052
:10A23000002A00F0E9809968013A11F0010F92B20A
:10A24000F6D0DA6815F8016F40F2E93202E0002A30
:10A2500000F0EA809968013A11F0020F92B2F6D04C
:10A260000B2140F2E932197302E0002A00F0DC8091
:10A270009968013A11F0010F92B2F6D0DA6840F213
:10A28000E93202E0002A00F0DF809968013A11F01B
:10A29000020F92B2F6D01E7340F2E93202E0002AB9
:10A2A00000F0D2809968013A11F0010F92B2F6D015
:10A2B000DA6834B12168A2884E69324218BF1204AC
:10A2C0008A610130362888D140F2E93202E0002A62
:10A2D00000F011819968013A11F0020F92B2F6D0A4
:10A2E000082140F2E932197302E0002A00F00381EC
:10A2F0009968013A11F0010F92B2F6D0DA6840F293
:10A30000E93202E0002A00F0E0809968013A11F099
:10A31000020F92B2F6D0A02140F2E932197302E0A6
:10A32000002A00F0D2809968013A11F0010F92B230
:10A33000F6D0DA68A020DFF860C0144FD8260021DC
:10A34000134DDFF8588040F2E93202E0002A00F0B5
:10A3500093809C68013A14F0020F92B2F6D0187301
:10A3600040F2E93202E0002A00F086809C68013A5F
:10A3700014F0010F92B2F6D0DA6840F2E93211E03F
:10A380005D7E0120657E0120E48601205C65002061
:10A3900000380040B086012000300140003C004001
:10A3A000002A79D09C68013A14F0020F92B2F7D0DB
:10A3B000197340F2E93201E0002A6DD09C68013A3D
:10A3C00014F0010F92B2F7D0DA6802F02002002AEE
:10A3D000B9D1DBF80C3013B11A689B889361002364
:10A3E000824A1370BDE8F08F634505D04B453FD0DE
:10A3F00053457FF40DAF022208FB02E2918901313F
:10A4000089B29181928903E7634505D04B4531D0EC
:10A4100053457FF417AF022208FB02E29189013114
:10A4200089B2918192890DE7634505D04B451BD0D8
:10A4300053457FF424AF022208FB02E291890131E7
:10A4400089B2918192891AE7634505D04B450DD0B9
:10A4500053457FF42EAF022208FB02E291890131BD
:10A4600089B29181928924E70122E5E70122F3E78D
:10A470000122C1E70122CFE7634505D0AB4222D0DC
:10A4800043457FF47AAF022206FB027294890134BD
:10A49000A4B29481928970E7634505D0AB4210D095
:10A4A00043457FF450AF022206FB027294890134C7
:10A4B000A4B29481928902F02002002A7FF443AF73
:10A4C00087E70122F0E70122DEE749498B4208D005
:10A4D000484A93427DD002F5806293427FF42AAFCE
:10A4E00002224549D82000FB02129189013189B22C
:10A4F000918192891EE73E498B4208D03D4A9342A2
:10A5000071D002F5806293427FF4F9AE02223A499B
:10A51000D82000FB02129189013189B29181928980
:10A52000EDE63348834208D0324A934259D002F5CF
:10A53000806293427FF442AE02222F48D82404FB6B
:10A5400002029089013080B29081928936E6284CCF
:10A55000A34208D0274A93423DD002F5806293423D
:10A560007FF412AE0222244CD82505FB02429489C6
:10A570000134A4B29481928906E61D4CA34208D00E
:10A580001C4A934229D002F5806293427FF4E1ADE8
:10A590000222194CD82505FB024294890134A4B249
:10A5A00094819289D5E5124CA34208D0114A934276
:10A5B00015D002F5806293427FF4B0AD02220E4CBA
:10A5C000D82505FB024294890134A4B29481928972
:10A5D000A4E5012285E70122C5E70122D9E701228E
:10A5E000EDE70122A9E7012291E700BF5D7E01208E
:10A5F00000300140003800405C650020324A40F2E3
:10A60000E93310B4526800E05BB39468013B14F086
:10A61000020F9BB2F8D0107340F2E93300E003B3AD
:10A620009068013B10F0010F9BB2F8D0D36840F264
:10A63000E93300E053B39068013B10F0020F9BB286
:10A64000F8D0117340F2E93300E0FBB19168013BAF
:10A6500011F0010F9BB2F8D0D068C0B25DF8044B86
:10A6600070471A48824207D0194B9A4228D003F506
:10A6700080639A42DBD102231648D82404FB0303EB
:10A680009889013080B298819B89D0E70F498A422E
:10A6900009D00F4B9A4215D003F580639A4201D03E
:10A6A000FF20DBE702230B4AD8215DF8044B01FBB6
:10A6B00003239A89013292B29A819889C0B2704775
:10A6C0000123D9E70123EEE7B086012000300140E5
:10A6D000003800405C65002040F2E93300E09BB1A7
:10A6E0008268013B12F0020F9BB2F8D0017340F276
:10A6F000E93300E043B18268013B12F0010F9BB2E5
:10A70000F8D0C068C0B270470C4A904209D00C4BD8
:10A71000984211D003F58063984201D0FF20704722
:10A720000223084AD82101FB03239A89013292B2FD
:10A730009A819889C0B270470123F2E70030014046
:10A74000003800405C65002038B504460D4600BF67
:10A75000C0681DF0DBFC29466068FFF7BDFFE068BC
:10A760001DF0DAFC00BF38BD2DE9F84FDFF8B883E3
:10A77000D8F80C301BB19A88196812048A61D8F88D
:10A78000043040F2E93202E0002A00F0C482996805
:10A79000013A11F0020F92B2F6D0052140F2E932EF
:10A7A000197302E0002A00F0B6829968013A11F0AC
:10A7B000010F92B2F6D0DA6840F2E93202E0002AE4
:10A7C00000F093829968013A11F0020F92B2F6D02C
:10A7D000002140F2E932197302E0002A00F085827C
:10A7E0009968013A11F0010F92B2F6D0DA6840F29E
:10A7F000E93202E0002A00F062829968013A11F021
:10A80000020F92B2F6D0062140F2E932197302E04B
:10A81000002A00F054829968013A11F0010F92B2B7
:10A82000F6D0DA6840F2E93202E0002A00F0318224
:10A830009968013A11F0020F92B2F6D0002140F26D
:10A84000E932197302E0002A00F023829968013A84
:10A8500011F0010F92B2F6D0DB68AE4C0420AE4E80
:10A8600094F8547447F00101FFF7C8FE3288002ABB
:10A870004CD004F58B60D8F80430A84C4FF0200978
:10A8800002EB000CDFF89CE2DFF8A0B24FF0D80A30
:10A8900014F8015F40F2E932FF2D03D10EE1002AE6
:10A8A00000F05B819968013A11F0020F92B2F6D084
:10A8B000072140F2E932197302E0002A00F04D81CD
:10A8C0009968013A11F0010F92B2F6D0DA6840F2BD
:10A8D000E93202E0002A00F02D819968013A11F076
:10A8E000020F92B2F6D01D7340F2E93202E0002A64
:10A8F00000F020819968013A11F0010F92B2F6D070
:10A90000DA68227800F8012B8445C1D1FF210720A5
:10A91000FFF774FE39460420FFF770FE3488002CE0
:10A9200000F0C280D8F8043000217D48FF267D4D1C
:10A930004FF0D80EDFF8F4C1DFF8F49103E00131F5
:10A94000A14200F0B18010F8012BFF2AF7D1C1F32A
:10A95000072B40F2E93202E0002A00F04F819F68A5
:10A96000013A17F0020F92B2F6D04FF0050A40F20A
:10A97000E93283F80CA002E0002A00F03F819F68D2
:10A98000013A17F0010F92B2F6D0DA6840F2E932DC
:10A9900002E0002A00F020819F68013A17F0020FC0
:10A9A00092B2F6D083F80CB040F2E93202E0002A0D
:10A9B00000F012819F68013A17F0010F92B2F6D0B1
:10A9C000DA685FFA81FB40F2E93202E0002A00F027
:10A9D000ED809F68013A17F0020F92B2F6D04FF067
:10A9E000060A40F2E93283F80CA002E0002A00F0E7
:10A9F000DD809F68013A17F0010F92B2F6D0DA6855
:10AA000040F2E93202E0002A00F032819F68013A08
:10AA100017F0020F92B2F6D083F80CB040F2E93290
:10AA200002E0002A00F024819F68013A17F0010F2C
:10AA300092B2F6D0DA6840F2E93202E0002A00F081
:10AA400005819F68013A17F0020F92B2F6D00727EE
:10AA500040F2E9321F7302E0002A00F0F7809F689D
:10AA6000013A17F0010F92B2F6D0DA6840F2E932FB
:10AA700002E0002A00F0D8809F68013A17F0020F28
:10AA800092B2F6D01E7340F2E93202E0002A00F0E2
:10AA9000CB809F68013A17F0010F92B2F6D00131D6
:10AAA000DA68A1427FF44FAFD8F80C3013B11A68BE
:10AAB0009B889361BDE8F88F002A62D09968013ABB
:10AAC00011F0020F92B2F7D0072140F2E932197368
