:020000040800F2
:10000000002000101109030879090308DDDA00084F
:100010007909030879090308790903080000000039
:100020000000000000000000000000007909030843
:1000300079090308000000007909030885AF010869
:10004000790903087909030879090308790903087C
:10005000790903087909030821BE01084DBF010889
:1000600011BF0108D5BE010899BE01082DFF010886
:100070001DFF01080DFF0108FDFE0108EDFE01084E
:10008000D9FE0108C5FE01087909030879090308AA
:100090007909030879090308790903085DBE010895
:1000A0007909030879090308B5F9000879090308F3
:1000B000F5A5010839A501087DA4010879090308FF
:1000C00079090308790903087909030879090308FC
:1000D00079090308BDB0010841B00108C5AF0108A6
:1000E000E5BD0108790903087909030879090308BE
:1000F00081FA000879090308B5A301087909030802
:100100000000000000000000000000007909030862
:1001100079090308790903081D67000809670008C1
:10012000B1FE01089DFE010889FE010875FE010867
:1001300061FE0108790903080000000000000000CA
:100140007909030879090308790903080000000008
:10015000000000000000000000000000000000009F
:100160000000000000000000790903087909030875
:1001700079090308000000000000000000000000F2
:080180000000000079090308EA
:10018800D0E90920101AB0FA80F04009704700BF82
:100198000171704703799B070AD5436A8269D15474
:1001A800436A01690133B3FBF1F201FB1233436285
:1001B800704700BF037913F0010317D0D0E9073166
:1001C800C26810B45B1A541E23400BD043694C1C00
:1001D8005B5CB4FBF2F102FB114202625DF8044B76
:1001E800D8B2704718465DF8044B704718467047F8
:1001F800037913F0020308D0D0E909210369581ED6
:10020800531A0340DBB2C01A70471846704700BF44
:10021800037913F0010306D0D0E90731C268581AF0
:10022800531E184070471846704700BF10F8113C1D
:100238000133DBB20A2B00F8113C07D9044A10F845
:10024800131C002322F8113000F8113C704700BF3E
:10025800902D0020F0B45D4E5D4832785D4B5E4DC8
:10026800DC6B2D780132A0FB0270000900EB8000E6
:10027800A2EB80001A683070914201EB04005C68C0
:1002880011D293F84520002A4ED000F58030B0FBFB
:10029800F5F084420BD2041B4FF4803292FBF5F246
:1002A800A21A9A600AE0B0FBF5F0844244D34FF4F6
:1002B800803292FBF5F2121B02449A6040F68C24BD
:1002C8000025A242C3E9001083F8455017D993F8D6
:1002D800402093F942108A4256B241D0002093F947
:1002E800411083F843008A4247D00121002283F855
:1002F800426083F8441083F84020F0BC704793F8BC
:1003080044100029F9D0A2F2EF2040F2DA518842D5
:100318001AD893F840100B2916D803EB8100013145
:10032800C26083F84010E8E7B0FBF5F08442BED223
:10033800041BA21A9A60C1E793F84520002AAAD1A3
:10034800041BA21A9A60B9E7244A002102F130007E
:1003580083F8441042F8041F8242FBD1F0BC704776
:10036800111F0829BAD893F84310182926D8013143
:1003780083F8431093F94110B5E793F84410002926
:10038800B3D0FAB11649154C0FFA82FC084601EBB6
:100398004C0754F8045F20F8025BB842F9D10B2AE5
:1003A80007DC104801EB4C02002122F8021B9042A6
:1003B800FBD10D490A7801320A7096E783F841604B
:1003C800314690E794460649EBE700BFC01B002082
:1003D800CDCCCCCC40540020D2050020485400207D
:1003E800902D0020A82D0020802D002030B40E4D27
:1003F8000E4B2A780E4C0132A3FB02031B09E06B5B
:1004080003EB8303A2EB83034FF6FF72914200F1E3
:1004180001002B70084408BF0123E06308BF84F87B
:10042800453030BC704700BFC01B0020CDCCCCCCC1
:1004380040540020002800F02581B74B1A7CF0B406
:10044800002A40F095801968002201280A6043D0EC
:1004580093F82810002941D19969002202280A60DE
:100468003AD093F8401000295DD1196B0022032877
:100478000A6031D093F85810002940F09E80996C9A
:10048800002204280A6027D093F87010002940F051
:10049800FA80196E002205280A601DD093F888108A
:1004A800002940F01481996F002206280A6013D0B1
:1004B80093F8A010002940F03981D3F89010002259
:1004C80007280A6008D093F8B810002940F0B480D3
:1004D800D3F8A83000221A60F0BC7047D9698F4D54
:1004E8008C0AAC4200F0898100F29C80B4F5801F30
:1004F80004D08B4A944240F076810122EFF31184B4
:10050800502585F31288874E4F6A4D6902EB8202A7
:1005180006EBC202013745F001055762E4B24D61AE
:1005280084F3118898E7596B7C4D8C0AAC4200F033
:10053800508100F21E81B4F5801F04D0784A94429D
:1005480040F053810122EFF31184502585F312887E
:10055800744E4F6A4D6902EB820206EBC202013704
:1005680045F001055762E4B24D6184F311887CE7D8
:1005780059686A4C8A0AA24200F03B8148D8B2F511
:10058800801F00F03881013CA24240F028810122FE
:10059800EFF31184502585F31288624E4F6A4D6936
:1005A80002EB820206EBC202013745F001055762F1
:1005B800E4B24D6184F3118845E7D96C574D8C0A34
:1005C800AC4200F0228100F2DC80B4F5801F04D038
:1005D800534A944240F017810122EFF311845025C9
:1005E80085F312884F4E4F6A4D6902EB820206EB83
:1005F800C202013745F001055762E4B24D6184F348
:100608001188996C002204280A607FF43DAF63E7E3
:10061800454CA24200F0EB800534A24240F0DF8056
:100628000422B5E7404A944200F0E980053294423A
:1006380040F0D980042261E7D3F8AC10374C880A1F
:10064800A04200F0F68000F2BC80B0F5801F04D014
:10065800334A904240F0EB800122EFF3118050249E
:1006680084F312882F4D4E6A4C6902EB820205EB27
:10067800C205013644F001046E62C2B24C6182F3D5
:10068800118825E77047596E244D8C0AAC4200F05A
:10069800BE807ED8B4F5801F04D0214A944240F031
:1006A800B8800122EFF31184502585F312881D4E7E
:1006B8004F6A4D6902EB820206EBC202013745F030
:1006C80001055762E4B24D6184F31188E1E6D96F00
:1006D800124D8C0AAC4200F09E8062D8B4F5801F9F
:1006E80004D00F4A944240F098800122EFF311841D
:1006F800502585F312880B4E4F6A4D6902EB820232
:1007080006EBC202013745F001055762E4B24D61BC
:1007180084F31188C7E600BF8C5400200200100043
:1007280001001000944F00204D001000D3F89410E1
:10073800414D8C0AAC4274D03BD8B4F5801F03D02D
:100748003E4A94426BD10122EFF31184502585F380
:1007580012883B4E4F6A4D6902EB820206EBC202D9
:10076800013745F001055762E4B24D6184F3118801
:10077800A3E6344A944244D00532944235D1042247
:10078800E1E6304A944226D0053294423BD1042215
:1007980023E72C4A944220D00532944239D10422CE
:1007A80080E7284A94421CD00532944235D104226D
:1007B8009CE7244A944236D0053294422FD1042231
:1007C800C2E7204A904230D0053290422FD104220D
:1007D80043E70222B7E60322FFE6032262E7FE228E
:1007E800D6E6032282E7FE2288E6FE22ABE6032253
:1007F800CEE60222CCE60022CAE602227EE60322E8
:100808007CE603229FE6FE22E7E60222E5E60222D4
:1008180048E7FE2246E7022268E7FE2266E7FE2254
:1008280092E7022290E703228EE7032215E7FE22D1
:1008380013E7022211E700BF0200100001001000B8
:10084800944F00204D001000704700BF70B4150B86
:10085800C2F30324064605EB450504EB44044800AF
:10086800C2F303131835183402F00F02356003EB96
:10087800430346F8214002EB420201441833183280
:1008880046F82030062046F8212070BC704700BF8B
:100898002DE9F04F12F4004F14BF4FF00E0B4FF03C
:1008A800070B12F4804F14BF4FF00E0A4FF0070ADF
:1008B80012F4005F14BF4FF00E094FF0070912F44D
:1008C800805F14BF4FF00E084FF007084FEA410C45
:1008D80012F4006F83B001EB0C0714BF4FF00E0E3B
:1008E8004FF0070E12F4806F01EB070614BF0E23BA
:1008F80007238D190193034612F4007F01EB0504C9
:10090800C3F800B018BF0E2043F821A008BF072085
:1009180043F82C9012F4807F01EB040C43F82780F5
:1009280043F826E001EB0C0714BF4FF00E084FF018
:100938000708019E43F8256012F0800F01EB0706B7
:1009480014BF4FF00E0E4FF0070E12F0400F43F891
:10095800240001EB060514BF0E20072012F0200F1B
:1009680043F82C8001EB050414BF4FF00E0C4FF038
:10097800070C12F0100F43F827E043F8260018BFC1
:100988000E2701EB040008BF072712F0080F43F8F1
:1009980025C018BF0E2643F8247008BF07260C1878
:1009A80012F0040F43F8206018BF0E2501EB040075
:1009B80008BF072512F0020F43F82450014414BF62
:1009C8000E24072412F0010F43F8204014BF0E2212
:1009D8000722122043F8212003B0BDE8F08F00BFA2
:1009E800704700BF10B5437903F0200113F0010FE1
:1009F800036C04461A7A806B16D000290CBF42217A
:100A080002211AF06FFE216C012384F84C32A4F8FD
:100A180048320A684879116A834021EA0301116261
:100A2800116A0B43136210BD00290CBF2221022159
:100A38001AF058FEE7E700BF024B1A889B7802803D
:100A480083707047B81A030870B4104A104BB2F993
:100A58000060B2F902501C780E4940F6E44202FBED
:100A680000F2120B42F2107303FB02F393FBF6F34E
:100A78002B4481FB0310222C4FEAE373C3EBA00045
:100A880002D1054B1A80588070BC7047A8550020C9
:100A9800F45600206766666678560020084B596849
:100AA80069B130B49D68074C0020642202FB05F24E
:100AB8005860B2FBF1F29860228030BC70477047F2
:100AC800C01B0020A62E002070B505466C0030F033
:100AD800B9F82849631901EB43131E7B06B970BDA9
:100AE800254AD66880B21EB1167D0EB9567D66BB02
:100AF8002C4401EB4414214B227D208142EA400220
:100B080090B2021282EA1012424002F00F0242EA48
:100B180000121B781A480026267592B20668DBB9BF
:100B2800602000FB051018300121B0472169636877
:100B3800B1F82C216489DB682243A1F82C21586084
:100B48001A6842F001021A6070BD2A44907D00289C
:100B5800CED001221A75CBE7636820695B7903F070
:100B6800FC030C3318440421B04723698000188122
:100B780070BD00BFBC590020C01B0020B859002020
:100B8800B059002038B500EB4000084DC4002B19BF
:100B980093ED027AD3ED037AE7EE007AB0EE670AB6
:100BA80030F050F82B59186038BD00BF8C54002025
:100BB800F8B5A0F5197423796179DB0746D594F85F
:100BC8004832206C0BBB94F84B32012B3FD0002BE2
:100BD80041D194F84A3294F849629E420CD9B4F84B
:100BE8005222012707FA03F501332A43DDB2AE4248
:100BF80092B2F7D8A4F852220123C94384F84B32A1
:100C08001940BDE8F84021F087B80268D36A5B084C
:100C1800536294F85932012B07D094F84D3223B11E
:100C2800B4F854320133A4F85432C94301F0010135
:100C380021F072F80023012284F84B2284F849320B
:100C480084F84A32A4F8523284F84832F8BD94F84D
:100C5800493284F84A32002384F84B3201F001010A
:100C6800BDE8F84021F058B80F4AB2FBF1F3B3F5EC
:100C7800803F10B44FF01B0407D3013C0BD052083F
:100C8800B2FBF1F3B3F5803FF7D299B2064A5DF8AB
:100C9800044B19F09DBD0123034AB3FBF1F35DF842
:100CA800044B99B219F094BD00A24A048160006C0B
:100CB800DAE700BF436CC06B1BB11A7A01211AF046
:100CC80011BD1FF057BC00BF4379C06BDB0748BF9D
:100CD80081F0010109B91BF00DB81BF011B800BF74
:100CE80038B5A0F517742379990745D4D80700D4E7
:100CF80038BD94F84832002BFAD194F849320133C0
:100D0800DBB2092B84F849326ED00A2BF0D194F863
:100D18004B52B4F85232002D00F0A680990503F02A
:100D2800010200F1A880002A00F0A5801A46E36AB3
:100D38005208002B00F0A980D0B2216B984794F894
:100D48004B5201220023954284F8493284F8482204
:100D5800CED1617984F84B321140206C20F0DCFF51
:100D6800226C136851791A6A8D4022EA05021A62C8
:100D78001A6A15431D6238BD94F84D226ABBD4E93E
:100D88000950854294F84C1246D0451CA369A562C7
:100D98001B5C2069DBB285424FEA430328BFA2628D
:100DA80043F400730A200122A4F8503284F84E025A
:100DB80084F84D2211B161790D073FD45A08A4F87F
:100DC800502203F001012046FFF77EFF94F84E22DF
:100DD8002379013A84F84E2288E794F94E22002AB2
:100DE80062D184F84D2281E794F84B32002B7FF4CE
:100DF8007FAF94F84A32082B3FF67AAFB4F8522204
:100E0800012000FA03F101330A43D9B2082992B24A
:100E1800F7D9A4F8522238BD00297FF467AF627968
:100E280012077FF563AF636CE06B53B31A7A1AF05D
:100E380059FC2046FFF7D6FD237957E7216CA06BB4
:100E48000B684D79196AAA4021EA02021A621A6AE5
:100E58001A6200211AF0D4FD002384F84C3220468F
:100E6800FFF728FF237941E743F001029B05A4F827
:100E780052227FF55CAFB4F856320133A4F85632EB
:100E88005FE719461AF0BCFDD3E7E3696169D2B29E
:100E9800CA54E369E16894F84B520133B3FBF1F2A9
:100EA80001FB1233E3614CE7B4F8503286E700BF28
:100EB800044B93F83420586A0AB91AF01BBF1AF089
:100EC8001FBF00BFC01B0020044B93F83420586A92
:100ED8000AB91AF015BF1AF00DBF00BFC01B0020D9
:100EE80010B526201AF038FB044618B11122002349
:100EF8008271C371202120461AF082FD0A2019F060
:100F08002BFF20461AF060FF034B00280CBF01227C
:100F180002221A7010BD00BFD886002070B40446A3
:100F280000F16C06064D0FCD2D882582206061608A
:100F3800A260E3601234B442F4D170BC704700BFC1
:100F4800BC1A03086C4B1B78002B38D070B56B4B60
:100F58006B4A9B79946B9063013B041B032B00F253
:100F68008480DFE803F04602312B2EF0FFF8654B52
:100F7800654D19786B8801F0010100287BD0634822
:100F8800634AD0ED037A9360002940F08A8003FB1E
:100F980004F007EE900ADFED5F6A5F49B8EEE77A82
:100FA800D2ED017AE7EE267AC1E90033BDEEE77AA1
:100FB800C2ED017A82ED007A81ED027A70BD564A5F
:100FC800C2E9003393607047544B1B681B01F5D589
:100FD800FF2028F0D9F818B103780A2B6FD9002020
:100FE80003464D4A4E499060C1E90003C2E9003307
:100FF80070BD4C4A4C4BD2794C4D33F81260B6B2A6
:101008003046FFF721FD07EE906AE860B8EE670A00
:10101800474818F003FEBCEEC00A10EE103A98B22A
:10102800FFF712FDE968D5ED017ADFED3A6A3A4B30
:10103800404AA86001FB04F407EE104AB8EEC77AEC
:101048001860E7EE267A107859602228BDEEE77A14
:10105800C5ED017A17EE102A83ED027A85ED007A44
:10106800ACD1354B9980DA8070BD2B4B0022C3E997
:1010780000229A6070BD294A1268D2067FF57FAFB8
:10108800234A9360002982D0B5F900502B4900FB10
:1010980005F081FB0051C017C0EBA1100344936019
:1010A80075E7FDEEE77A264E17EE900AA0F57A70FE
:1010B80000FB00F1A6FB016100EB1110E4E7214AF7
:1010C800214B51881A68D0ED027ADFED206A204C56
:1010D800436802FB01F207EE102AF8EEE77AB8EE51
:1010E800477AA4FB0121E7EE267A03EBD103FDEE54
:1010F800E77A17EE900A74E790560020B055002062
:10110800C01B0020D46F0020AC55002004350020FF
:10111800F85600202FE33E316C5600204C53002037
:10112800045700206859002088590020E456002000
:10113800FC1B0020F456002078560020D34D621086
:101148001F85EB515C7F0020384700207D219534B6
:10115800CDCCCCCCF8B5424B5B79012B2FD0022BF0
:101168000ED0404B00221A603F4B1B78022B00D058
:10117800F8BD3C4A3D4B5188128819805A80F8BD09
:101188003B4B1B681B01EFD5FF2027F0FDFF002814
:1011980062D003780A2B51D99FED360A0023364CCA
:1011A800201D638018F03AFDBCEEC00A10EE103A1C
:1011B8009BB223802B4A618851801380D4E72F4A41
:1011C8002F4B92782F4C33F812102F4F8DB207EE19
:1011D800905A2046B8EE670A18F020FDBCEEC00A07
:1011E8003978DFF8ACC07E781E4810EE103A40F629
:1011F800E44202FB01F29BB202FB05F102FB03F39E
:10120800ACFB0323ACFB011244F6FB71BD7801EB88
:10121800531301EB5211C6EB0632B3FBF2F3B1FBE9
:10122800F2F2B3FBF5F3B2FBF5F29BB292B224F8FB
:10123800043C24F8022C0380428095E7B0F9022090
:101248001249D31781FB0212C3EBA2039BB207EE2C
:10125800903AB8EE670AA2E7074C2388AAE700BFCE
:10126800B055002064560020F4560020785600201F
:101278004C53002000000000BC5600206859002094
:101288008859002098560020A45500206766666695
:101298001F85EB5170B5294D294C2A496A792A4E88
:1012A8002A4804230B7084F8603000216423012A43
:1012B80084F86930A4F86210A4F8641084F86810FF
:1012C800E166317001601ED0022A10D0A979204A47
:1012D80000230129136084F87030C2E901331ED05D
:1012E800022903D11B4AC2E90033936070BD28224A
:1012F800194830F070FB44F620619FED180A184831
:101308001CF02EFCE2E72822164830F064FB44F675
:1013180020619FED120A14481CF022FCD6E7134AFC
:101328009FED130A1360C2E90133D360114844F6F4
:101338002061BDE870401CF013BC00BFB055002010
:10134800C01B0020915600209056002064560020B3
:101358006C560020F8560020BC560020CDCCCC3D61
:10136800C05600209456002098560020E4560020CD
:10137800CDCCCC3EFC1B00202DE9F843954E3468BB
:10138800E00500F1CC80944D95F87680002385F82F
:101398007130B8F1000F00F0B28009218F481BF0BE
:1013A800D7FE002800F0A68044F010048C4A8D4B2C
:1013B8001768346017F48057B3F906905FD18A4BE9
:1013C8009B8A4B456EDC44F04004884B34601B78A4
:1013D800190706D41E2181481BF0BAFE002800F028
:1013E800C08024F08004824B1B88642BB5F87830C9
:1013F8008CBF44F4806424F480641BB17D4B1B686B
:101408009A0704D47C4BD3F8B430002B4DD044F465
:1014180000647A4B346003F1780102E006338B42B2
:1014280016D01A781F2AF9D19878DA78904202D320
:101438005A79002AF2D01F2168481BF089FE20B192
:101448006F4B1B785B0740F1938044F40074346061
:10145800222162481BF07CFE50BBB8F1000F2DD052
:10146800002C45D1002385F87A3019F023FCEB6F66
:10147800C01A002841DBBDE8F84309F033BE182143
:1014880056481BF065FE002899D15E4B1A7B002A4E
:1014980095D15549DA884B8A991A494593DA134404
:1014A8004B4590DD24F040048FE724F40064B0E756
:1014B80044F400343460B8F1000F19D195F8743051
:1014C800002B3AD19846002F41D1002143481BF008
:1014D8003FFE002856D0002CC4D0B8F1000F07D129
:1014E800002F49D020B924F400243460002CB9D04E
:1014F8000223B8E724F0100458E7BDE8F883424A0D
:1015080095F8773017787BBB7FB3414633481BF09B
:101518001FFE00284AD124F00804346025E03B4A25
:101528003B4B91791A684FF47A7303FB01F39342AA
:101538009CBF24F48074346025E724F4002828F440
:101548000068B8FA88F84FEA5818002FBDD018215B
:1015580022481BF0FDFD18BB2A4B1B7B53B30746E3
:10156800B3E744F080043EE767BB85F8777014E77B
:1015780024F4007434606BE70028B4D044F40024E9
:101588003460B5E724F020040146144834601BF0A9
:10159800DFFD3CB1B8F1000FA4D1002FA2D1EBE7D9
:1015A800002792E700287FF45DAF9CE744F0080429
:1015B8003460DAE724F4002727F04007B7FA87F702
:1015C8007F0982E7414605481BF0C2FD0028CCD1BF
:1015D800A1E700BFC87E0020C01B0020B831002052
:1015E8004C530020D87E00204C550020C0310020EC
:1015F800A62E0020848100204C3900208835002048
:10160800D46F0020BC8800208C2D00203456002088
:1016180038470020704A1378D80700D4704770B54F
:1016280023F00103137019F045FB6C4B6C4C9A784E
:10163800C4F88000EAB96B4B1B88002B50D16A4A6A
:101648006A4B1178186881F001011AF05FFB684D48
:101658002B7833B194F871301BB1664B1B68D904F1
:101668005CD5654B1B68002284F871209A0627D543
:1016780070BD1B79022BDED0604D2B780B2B18D850
:1016880001229A4040F6030112EA0106D3D112F46E
:10169800C06F0ED0093B012B0BD8452029F092FFD3
:1016A800FF2029F08FFF564829F0FCFE304629F02C
:1016B80089FF544A544B12685A600B232B70BAE7BF
:1016C800524B1B689B037ED4514900220B46187865
:1016D800042803F10C030CD00132182AF7D1C7E70C
:1016E8004C4B5A69002AB2D0196800220A605A7411
:1016F800ADE7494D2C68530034B1981801EB8000D0
:1017080064784078A042B3D21A44444C4448002339
:1017180001EB820129602380036070BD414B1E7874
:1017280019F0C8FA2B78002B9BD0E268002A98D1D0
:1017380000F51C5010300A214FF47A72E060617590
:101748002261002E3BD032461421374830F043F94D
:10175800364A1389012EB3FA83F34FEA53132ED076
:10176800B2F86810002918BF0023022E27D0B2F85B
:10177800C810002918BF0023032E20D0B2F8281162
:10178800002918BF0023042E19D0B2F888110029A7
:1017980018BF0023052E12D0B2F8E811002918BF8F
:1017A8000023062E0BD0B2F84812002918BF0023D8
:1017B800072E04D0B2F8A822002A18BF002383F00D
:1017C800010323754DE71A4B1B78032B7FF47CAF7D
:1017D800BDE8704009F09CBED46F00202C7B00202F
:1017E800C01B00201047002012470020144700208B
:1017F800A85900204C530020C87E00202A7B0020D6
:10180800304A030838470020E4310020845600207D
:101818003829030818470020743400209434002025
:101828009834002092560020D61B0020BC59002076
:10183800915600202DE9F04F2DED0C8B97B00490B8
:1018480013F09AFD0B4B1B78052B00F0D9840A4D39
:10185800D5F8843006938BB1581E064BC5F8840022
:101868001B78012B00F06F8417B0BDEC0C8BBDE822
:10187800F08F00BFF4560020C01B0020D14AD5F8D5
:1018880088301278511EC5F88410002B00F072823F
:10189800013BC5F88830CC4B0593CC4B1A78052A08
:1018A80000F08F8200230793C94BCA491B78D1F8EF
:1018B800009023B9C84B1B78002B40F0A085C74B7C
:1018C8002B2AD3ED009A01F07382C54AC54BD2ED9D
:1018D800007A93ED006A9FEDC4AAC44BDFF86CA3AD
:1018E800D3ED006AC24BDFF86883B3F800B0DFEDD0
:1018F800C1AA9FEDC1CADFEDC1BA9FEDC1BAC14C03
:10190800B7EE007A77EE677AB0EE4ADA67EE867A53
:101918000026F4EEC77AF1EE10FA88BFF0EE477AA7
:10192800F4EECA7AF1EE10FAB8BFF0EE4A7A67EE32
:10193800A67A67EEA99AB44BB7003B44D3ED007A78
:10194800059BF5EE407A3B44F1EE10FAD3ED00CA60
:1019580017D0AE4B3B4493ED007A7CEEC76AB0EEED
:10196800E66AF4EEC67AF1EE10FA08D5F5EEC06A2A
:10197800F1EE10FACCBF77EE87CA77EE67CAC3EDEF
:1019880000CA40F603031BEA030C00F0A483022EEE
:1019980000F0A48399F82D209D4B07EE902A3B4434
:1019A80093ED007A5342F8EEE76A07EE903A26EE96
:1019B800877AF8EEE77AB4EEE77AF1EE10FA0AD40D
:1019C80007EE902AF8EE677AF4EEC77AF1EE10FA8D
:1019D80088BFF0EE477A8F4B8F4903EB460331F906
:1019E8001620B3F90C30D21A07EE102A40F601037C
:1019F800B8EEC77A1BEA030FE7EE6A7A00F01483A1
:101A0800864BD3ED00CA67EEACCA854B95F8A800A3
:101A180095F8A9203B4493ED018A002800F05882EC
:101A2800002A00F0D4813CEEC88A99F852107D4B08
:101A3800D5F8B42004981B68821A9A423DDD022921
:101A480001F08B82784B022E186840F08983774B1F
:101A5800D3ED007AB1EE677AB4EEC87AF1EE10FAF7
:101A680000F3F184B4EEE78AF1EE10FA88BFB0EE25
:101A7800678A824284ED01DA40F394836C4B1B68D9
:101A8800980740F1E9846449624BB1F90020B3F941
:101A98000CC06848A2EB0C02002A0068B8BF52428A
:101AA80082420ADAB1F90220B3F90E30D31A002BB8
:101AB800B8BF5B42984200F3CF845F4BF0EE6C1ADC
:101AC8001B68B0EE4D1AF0EE690AB0EE480A3146CE
:101AD8004846984799F852302BB9454BB3F800B0AF
:101AE8001BF4006F10D0554B1B7853B9544B95F825
:101AF800A9201B7813F0010340F01785002A40F055
:101B08005F853B4BB3F800B0BBF1000F00F0E881F4
:101B180084ED03DA4B4BEAEC01CA1B784BB1022E79
:101B280084ED01DA05D084ED00DA84ED02DA84ED83
:101B380003DA95F8B830002B40F02682B0EE4A6AF6
:101B480084ED00DA84ED01DA84ED02DA84ED03DA5B
:101B5800D4ED007AD4ED016A94ED027A77EEA67A94
:101B6800013677EE877A032E77EE867A08F1240815
:101B7800C4ED047A04F114047FF4DDAE134B1B7832
:101B8800052B01F069812E4B93F800A01AF0010A89
:101B980004D02D4B1B78D90640F1E0830B4B1B7802
:101BA8000022202BC5F8BC2000F0B984012B01F0DD
:101BB8003D81052B00F06284214B93F800A04FF083
:101BC800000B47E08E2E002058890020F456002094
:101BD8001488002038790020E9880020B41B0020F0
:101BE80054860020E88700200000000014580020D8
:101BF8007A810020CDCCCC3D6F12033B00007A44A3
:101C080000007AC4C8340020DC8700205C1C002057
:101C18007C8900209C3400203C810020C48700205F
:101C280098460020F4870020F08700200C880020C8
:101C380084810020F887002018880020783400204C
:101C4800D46F002079340020C0310020501C0020BF
:101C5800305800200AF0010A95F87130002B40F046
:101C68001A84CD4BCD4C1E682368CD4A96F84A702D
:101C780092ED038ADFF84493DB0440F1EB84B9F872
:101C88001280BAF1000F01D1A5F8CC801821C548FF
:101C98001BF05EFA20B9C44B1A7B002A01F04E876C
:101CA800B9F81430A3F57A7303EBD373C3F34F0376
:101CB800A8EB0302984492B21FFA88F807EE902A1C
:101CC800F8EEE77AC8F5FA61A2F57A7306EE901A8B
:101CD80007EE103AF4EEC87AF1EE10FAB8EEC77AC9
:101CE800F8EEE66A95F9CE1082F2A58307EE908A9F
:101CF800F8EEE77AF4EEC87AF1EE10FA41F2A98626
:101D0800B5F8CC30934204D8A74B1B7B002B02F0CC
:101D1800E88395F8EC30002B42F0E383D5ED397A6F
:101D280095ED3A7AC5ED347A37EE676A0129C5ED43
:101D3800327A85ED316A85ED367A02F01786049B92
:101D4800C5F8DC3000220123B0EE667AC5F8E02041
:101D580085F8CE30954AD5ED387A92F800A0944AA5
:101D6800002353609361D3628B4B0AF0010A1E680B
:101D780000F08CBC8F4B997919B19B78012B01F03D
:101D88009B8695F876309BB18B4A8C4BB2F906202E
:101D98009B8A9A420CDC8A4B1B780E2B08D0082BA6
:101DA80006D088497E4A0591002393608B6001E044
:101DB800844B05932DF052FC834B1A78052A7FF447
:101DC80071AD18F077FF804B07901A786CE5BCF17D
:101DD800000F40F0B5817D4B7D49DFF824C231F911
:101DE8001610DFF820B25CF807E0DBED006A03EBC1
:101DF8004603F5EEC0CAB3F90C30C91A07EE901ABB
:101E0800B8EEE70AF1EE10FA20EE2A0AB7EE007AE9
:101E1800FFEE007AB5EEC00AD4BFF0EE675AF0EED6
:101E2800475ACCBF4FF0010B4FF0FF3BF1EE10FAD1
:101E3800C8BFF0EE477ACCBF01234FF0FF33B0EEB6
:101E4800C07ABEF1000F03D0DE4511D04CF8072050
:101E5800B4EEE67AF1EE10FA41F337869B4541F08D
:101E680034864CF807B00246BBF1000F01F02D860E
:101E7800F0EE40CAD7EEA6CA564BD3ED007A6CEE08
:101E8800A7CAF0EE4D8AF4EEEBCAF1EE10FA88BF5D
:101E9800F0EE6BCAF4EECBCAF1EE10FAB8BFF0EE72
:101EA8004BCA002A42F004834B4B1B78B34240F0E4
:101EB8004781454B1B78272B00F02B81022E40F0E1
:101EC8003F81464B1B78002B42F07B8795F8A92071
:101ED8003CEEC88A002A3FF4F0AD99F85210A6E506
:101EE8003F4B03EB061393ED039AB5EEC09AF1EE60
:101EF80010FA7FF70DAE3B4BD3ED007AF5EEC07AC2
:101F0800F1EE10FA00F38080B7EE008A364BDAED76
:101F1800008A1F78B7427CEEE88A00F0EC80334BE9
:101F28001B7853B1324B1B78012B00F03983022BFD
:101F380000F0AF81B74200F0D5812E4A2E4BD2ED8A
:101F4800007A1B7829EE279A29EE088A68EE288AF3
:101F5800C4ED038A002B3FF4DDADD4ED007A28EE02
:101F6800A77AB5EEC07AF1EE10FA7FF7D3ADF0EEAE
:101F7800E88AF0EEE77AF4EEE78AF1EE10FA7FF7F6
:101F8800C7AD84ED00DAC5E51C4B1B78002B7FF448
:101F9800D5AD94ED036ADBE5387900204C53002079
:101FA80004350020B8310020BC880020D46F002000
:101FB800C8340020A8460020D87E00204C550020B8
:101FC8008833002058890020F45600209C340020D3
:101FD8003C810020288800202488002079340020B3
:101FE80020860020C08700201158002013580020A8
:101FF80012580020648600201588002078340020BC
:102008006C1C00201C880020BD4B1F4497ED008AE3
:1020180027EE888AF7EE007AB4EEE78AF1EE10FA36
:1020280088BFB0EE678A71E7B54AB1F9003092ED22
:10203800007AD2ED016AB1F90220B249F4EEC76A1A
:10204800F1EE10FAB4BFB0EE476AB0EE666A002B44
:10205800B8BF5B42002AB8BF52429342B8BF13468A
:1020680007EE103AA84A0B7892ED005AB8EEC77AF4
:1020780027EE2A7A002B00F0CB80B5EEC05AF1EE9D
:1020880010FA40F30582A14BD3ED004AF5EEC04AA1
:10209800F1EE10FA40F3FC8134EEC77ADFED9C5A7A
:1020A800C7EE246A66EE255AB7EE007A85EE856A91
:1020B800F4EEC76AF1EE10FA88BFF0EE476AF5EE63
:1020C800C06AF1EE10FA36EE077AB8BFF0EE4D6A44
:1020D80026EE877AC4E0022E7FF497AC8D4B95F8F4
:1020E800A9201B78002B8C4B3B4493ED018A18BF29
:1020F800F0EE4DCAECE6894B1B78282B7FF40FAF26
:102108009FED870A28EE800A2EF09CFD854B5880AB
:1021180005E7B2EE049A20EE090A2EF093FD814BF2
:102128000893B0EE6C0A1880A3F802B02EF08AFD6E
:10213800089B28EE890A98802EF084FD089BD88099
:102148003CEEC88AB9E4784B784A19681288754B0E
:10215800C96919805A8017B0BDEC0C8BBDE8F08FA7
:10216800734B1B689B0740F17281724B7249DFF811
:10217800E8B131F916E0DBED00CA84ED01DA03EBD2
:10218800460C6CEEAACABCF90CC0ACEB0E0C07EE00
:1021980090CAF8EEE77A824267EEACCA3CEEC88A8B
:1021A8003FF773AC654B93ED007AF7EE007AB4EE27
:1021B800E77AF1EE10FA7FF580AC574A604BD2ED22
:1021C800017A93ED007AF0EEE77AF4EEC77AF1EE51
:1021D80010FA7FF572ACD2ED027AF0EEE77AB4EE3F
:1021E800E77AF1EE10FA7FF768ACD2ED037AF0EEF9
:1021F800E77AB4EEE77AF1EE10FA3FF73FAC5CE429
:1022080018F058FD049B474CC01A2080FFF71FBBED
:102218004C4BDFED4D6AD3ED005AF4EEE65AF1EE81
:1022280010FA0FD5F7EE004A34EEE54ADFED476ABB
:10223800DFED474A36EEC77A64EE244AE7EE245AC1
:1022480025EE255AB5EEC05AF1EE10FA40F220817B
:102258009FED337AC7EE056AB7EE007AA6EE667A86
:10226800B7EE006AB4EEC67AF1EE10FA88BFB0EEA7
:10227800467AB5EEC07AF1EE10FAB8BFB0EE4D7AF4
:10228800344BD3ED006A67EEA67AE7EE87CAFFF70C
:10229800BCBB98ED027AD8ED067A98ED056AD8EDC0
:1022A800015AD8ED076A88ED066A67EE277A98ED35
:1022B800037AC8ED058AE5EE867AB74298ED086A92
:1022C800D8ED045AC8ED086AE7EE667A98ED007A08
:1022D800E5EEC67AE8EE877AF0EE678AC8ED077A07
:1022E8007FF42BAE0D4B1B78282B7FF426AE9FED89
:1022F8000C0A28EE800A2EF0A5FC0A4B98801CE6F2
:1023080088890020D0870020CC870020D48700202F
:102318000000C8C27934002098460020F4560020F6
:102328000000C842785600205C340020A62E002009
:10233800848100209C3400203C81002054860020A9
:10234800FC870020D8870020AE47813F0000344337
:10235800610BB63BC8870020C4870020A14B5B787F
:10236800002B3FF41BAC95F8B930002B7FF416AC6A
:1023780095F87130002B7FF411AC95F8BA30002B2A
:102388007FF40CAC984B1B68DA0602F1D483974BA8
:102398009FED977AD3ED097AF0EEE77AF4EEC77AF3
:1023A800F1EE10FA82F23B83D3ED047AF0EEE77A8D
:1023B800F4EEC77AF1EE10FA82F23183D3ED0E7A99
:1023C800F0EEE77AF4EEC77AF1EE10FA82F227839C
:1023D8000023C5F8BC30874B1B78202B7FF4E6AB75
:1023E800D5F8BC308449854A91F800A0003318BF5D
:1023F80001235380012313800AEA030A91E0804BEA
:10240800D5ED236A1B889FED7F6A7F49A3F57A7310
:1024180007EE903AB0EEE67AF8EEE77A27EE067A1B
:10242800F7EE009AE7EE879A2B2AC1ED009A7FF41F
:102438004CAA9FED760A714C26EE800A2EF002FC1B
:10244800608000F0B6BCB0EE478AFFF712BB82424C
:1024580084ED01DA7FF7A6AE6D4B1A88002385F864
:10246800A930002A42F028806A4A6B4B1178186814
:1024780081F0010119F04AFCFFF71FBB18F01AFCA4
:102488005D4B93F800A083460AF0010AFFF7E4BB0E
:102498009FED627AF4E6624E3778BAF1000F41F0A8
:1024A8007D80002F02F01280BA005E495E482FF04E
:1024B8006EFA5E4B1B7893B1DFF86C81DFF8909170
:1024C8000024E0B2D9F80030B8EC010A9847377810
:1024D8000134BC42F5DB564B38461B689847454BE0
:1024E8001B78052B00F06E84524A1278002A7FF47C
:1024F800B8A9514C94F80280B8F1000F40F04A8511
:102508003C4B1B78052B7FF4ACA918F0D3FB06993C
:102518003A4A384B401A1B78D080FFF7A2B9374B9C
:102528001A604FF0000BFFF797BB444B93ED007A0E
:10253800F7EE007AB4EEE77AF1EE10FAC0F294847E
:10254800002A40F094843E4BD3ED007AB0EEC00AE6
:10255800B4EEE70AF1EE10FA7FF7D3AA394BD3EDC0
:10256800007AB0EEC87AB4EEE77AF1EE10FA7FF7A7
:10257800C8AA059B34493B44D3ED007A91ED007A13
:10258800F0EEE77AF4EEC77AF1EE10FA7FF5B9AA21
:1025980001230499C5F8B41085F8A93000F06BBC84
:1025A8002A4B03EBC603D3ED007A93ED017A78EE5C
:1025B800E78AE7EE287AF0EE678AC3ED007AB9E495
:1025C800134A85F8A9301288002A41F01F87114A5A
:1025D800114B1178186881F0010119F097FBFFF78A
:1025E80090BA00BF8E2E00204C530020C834002023
:1025F80000001644F4560020D46F002078560020BE
:10260800EC8700200AD7233CB41B002000007A4442
:102618001047002012470020144700200000000047
:1026280092560020A82E002014350020686700204C
:10263800B4590020AD7B00202C7B0020548600205C
:1026480004880020008800200888002018580020EE
:10265800AC590020B9F81420E84B95ED3A6AD3ED4F
:10266800006A95ED3C7AC5ED346A07EE902AF8EEDB
:10267800E77A76EE665A012378EE677AC5ED326A14
:10268800C5ED315A85ED366A85F8CE30C7EE876AD2
:10269800338D5A42B7EE007AF4EEC76AF1EE10FABB
:1026A80007EE902AD64A88BFF0EE476AF5EEC06A70
:1026B8009FEDD47A92ED045AF8EEE77AF1EE10FA2B
:1026C800B8BFF0EE476AB4EEE75A07EE103AF1EEFB
:1026D80010FAC5ED386AB8EE477A00F16383B4EEB4
:1026E800C75AF1EE10FA88BFB0EE475AC44B9FEDB7
:1026F800C66AD3ED094AF4EEE47AF1EE10FA25EE53
:10270800065A00F35283B4EEE47AF1EE10FA98BF59
:10271800F0EE474ABA4BDFEDBC5A93ED0E6AF4EE81
:10272800C67AF1EE10FA64EEA54A08DCB4EEC67A71
:10273800F1EE10FA8CBFF0EE467AF0EE477AB34B22
:10274800DFEDB15A5B7867EEA55A0BB9F1EE655A21
:10275800002F40F0C683F7EE003AAD4B1B681A7C99
:10276800C2B15B7C632B13D807EE903A9FEDA97A30
:10277800F8EEE77A012A67EE877A01F09A84022A4E
:1027880006D1F4EEE76AF1EE10FA88BFF0EE676A58
:10279800C5ED386AA04AA14B11681B7801F4000105
:1027A800002B40F0CE839E4E3778002F01F03B86F9
:1027B8009C4B9FED946AD3ED027A93ED014A93ED19
:1027C800037A64EEA77AE5EE047AE5EE877A63EE9B
:1027D800A77AF4EEC67AF1EE10FA8CBFB0EE464A4C
:1027E800B0EE674AC8BFB0EE676A012FCDED0E7A2A
:1027F80000F0D98093ED067A93ED053AD3ED077A88
:1028080024EE877AA5EE037AA5EEA77A23EE877AD7
:10281800B4EEC67AF1EE10FA00F3E982B4EEC74AD4
:10282800F1EE10FA88BFB0EE474A022F8DED0F7A0D
:1028380000F0B98093ED0A7A93ED093AD3ED0B7A5B
:1028480024EE877AA5EE037AA7EEA57A27EE237AF7
:10285800B4EEC67AF1EE10FA00F34083B4EEC74A3C
:10286800F1EE10FA88BFB0EE474A032F8DED107ACB
:1028780000F0998093ED0E7A93ED0D3AD3ED0F7A2F
:1028880024EE877AA3EE057AA7EEA57A27EE237AB7
:10289800B4EEC67AF1EE10FA00F3CC83B4EEC74A70
:1028A800F1EE10FA88BFB0EE474A042F8DED117A89
:1028B80079D0D3ED127A93ED113A93ED137A64EE51
:1028C800A77AE3EE057AE7EE257A67EEA37AF4EEC7
:1028D800C67AF1EE10FA01F39080B4EEE74AF1EE11
:1028E80010FA88BFB0EE674A052FCDED127A5AD09C
:1028F800D3ED167A93ED153A93ED177A64EEA77A2D
:10290800E3EE057AE7EE257A67EEA37AF4EEC67A67
:10291800F1EE10FA01F39180B4EEE74AF1EE10FA05
:1029280088BFB0EE674A062FCDED137A3BD0D3EDC2
:102938001A7A93ED193A93ED1B7A64EEA77AE3EECF
:10294800057AE7EE257A67EEA37AF4EEC67AF1EE19
:1029580010FA01F37A80B4EEE74AF1EE10FA88BF74
:10296800B0EE674A072FCDED147A1CD0D3ED1E7A4E
:1029780093ED1D3A93ED1F7A64EEA74AE5EE034AFC
:10298800E5EE874A63EEA43AB4EEE36AF1EE10FA94
:1029980001F17B85B4EEE34AF1EE10FA88BFB0EEA0
:1029A800634ACDED153A76EE447A1F4B1B7873B91E
:1029B8001E4B93ED007A93ED015A76EEC75AA5EEB9
:1029C800257A76EEC75A83ED007AC5ED235A184B5F
:1029D8009FED0C5AD3ED005AF4EEC55AF1EE10FAF9
:1029E80040DD144B93ED007A93ED013A76EEC73A49
:1029F800F7EE004AA3EE237A1EE000BF343500202C
:102A0800C8340020000000006F12833A8833002089
:102A1800808100200AD7233CB83100207934002077
:102A2800925600203488002014880020B88700209F
:102A380010880020AC87002076EEC73A83ED007A34
:102A4800E5EEA36AF4EEE46AF1EE10FA88BFF0EE60
:102A5800646AF4EEC56AF1EE10FAB8BFF0EE456AA2
:102A6800C5ED386AF7EE005AE24BF4EEE57AF1EE7E
:102A780010FAC3ED007A40F3C887FFB385EEA77A52
:102A8800012FDDED0E7A67EE877ACDED0E7A35D01F
:102A9800DDED0F7A67EE877A022FCDED0F7A2DD014
:102AA800DDED107A67EE877A032FCDED107A25D009
:102AB800DDED117A67EE877A042FCDED117A1DD0FE
:102AC800DDED127A67EE877A052FCDED127A15D0F3
:102AD800DDED137A67EE877A062FCDED137A0DD0E8
:102AE800DDED147A67EE877A072FCDED147A05D0DD
:102AF800DDED157A27EE877A8DED157A002900F03D
:102B08009C82F6EE006AC5ED386A002F00F040811D
:102B1800B948BA4A2368DFF808C3C47895ED346A1F
:102B280095F9CE001288DCED005ADFF8F882DFF85C
:102B3800F8C295ED365A9CF800E095ED314AD5ED8E
:102B4800324A07EE900AFDEEC63AB9F8140007902B
:102B580002F40062B8F906900592BDEEE57A03F03A
:102B6800100C03F4805803F48000F8EEE77A13EEB3
:102B7800902ABDEEC55A002C40F09282A04B9DEDE4
:102B88000E6A93ED007A26EE877AA7EE867AB0EE83
:102B9800646AA4EE076ABDEEC67ABCF1000F03D0E2
:102BA800B8F1000F01F00F8517EE101A8A4200F3F2
:102BB800208715EE100A8142A8BF014607EE101AB9
:102BC800B8EEC77A8F49012F81ED007A00F0D880DE
:102BD80093ED047A9DED0F6A26EE877AA7EE867A42
:102BE800B0EE646AA4EE076ABDEEC67A17EE100A64
:102BF800824200F3068715EE104AA042A8BF20467D
:102C080007EE100AB8EEC77A022F81ED017A00F0BC
:102C1800B78093ED087A9DED106A26EE877AA7EEC5
:102C2800867AB0EE646AA4EE076ABDEEC67A17EE3D
:102C3800100A824200F3058715EE104AA042A8BF89
:102C4800204607EE100AB8EEC77A032F81ED027A04
:102C580000F0968093ED0C7A9DED116A26EE877A46
:102C6800A7EE867AB0EE646AA4EE076ABDEEC67A6D
:102C780017EE100A824240F3168707EE102AB8EEC4
:102C8800C77A042F81ED037A7AD093ED107A9DEDFF
:102C9800126A26EE877AA7EE867AB0EE646AA4EE08
:102CA800076ABDEEC67A17EE100A824201F3F18375
:102CB80015EE104AA042A8BF204607EE100AB8EE4B
:102CC800C77A052F81ED047A5AD093ED147A9DEDD9
:102CD800136A26EE877AA7EE867AB0EE646AA4EEC7
:102CE800076ABDEEC67A17EE100A824201F3F58331
:102CF80015EE104AA042A8BF204607EE100AB8EE0B
:102D0800C77A062F81ED057A3AD093ED187A9DEDB2
:102D1800146A26EE877AA7EE867AB0EE646AA4EE85
:102D2800076ABDEEC67A17EE100A824201F347849D
:102D380015EE104AA042A8BF204607EE100AB8EECA
:102D4800C77A072F81ED067A1AD093ED1C7A9DED8C
:102D5800156A66EE876AE7EE866AE4EE264AFDEEB5
:102D6800E47A17EE903A9A4204DC15EE102A9A4259
:102D7800A8BF1A4607EE902AF8EEE77AC1ED077A5F
:102D8800BAF1000F04D1BA001F491E482EF0FFFD0A
:102D98001E4B1B78002B3FF4A2AB002F7FF48CABAB
:102DA800FFF799BBB0EE675AA0E4F0EE674AB1E4CA
:102DB800174C9FED180A29EE800A2DF043FF20805A
:102DC800FEF783BD17F076FF134B114A1B78A0EB73
:102DD8000B00052B908040F0D18017F06BFF0F4B54
:102DE80006901B78002B7FF48BABFFF782BBB0EE0D
:102DF800476A1AE554860020547B00207A81002017
:102E08003488002014350020A82E00206867002090
:102E18007856002000007A44F4560020AD7B00204C
:102E28002C880020D87E0020A859002017F042FFE7
:102E3800844AD5F8C0301268834983468348C5F868
:102E4800C0B0ABEB030390F800A08B809A1ACA803D
:102E58000AF0010AFEF700BF17F02CFF079A7A4B19
:102E6800801A5880FEF78FBE002A3EF44AAED5F885
:102E7800B420049B9A1A764B1B6893427EF741AEA6
:102E8800744BD3ED007AB0EEC88AB4EEE78AF1EE5F
:102E980010FA0ED4059B704A3B44D3ED007A92EDAC
:102EA800007AF0EEE77AF4EEC77AF1EE10FA7EF7E0
:102EB80028AE6A4B1B88002285F8A920002B3FF416
:102EC80086AB674B6749B3F800B04B69002B3EF4FB
:102ED8001BAE0B681A604A74FEF716BEB0EE476A5E
:102EE800C3E4614B5A79002A3FF435AC5F4A127843
:102EF800002A3FF430AC1B789FED5D4A07EE903A0C
:102F08005C4BB8EE677A1B8807EE902A06EE103AFB
:102F1800F8EEE77AB8EE466A67EE277AB7EE007AF7
:102F2800C7EE863AF4EEC43AF1EE10FA88BFF0EE36
:102F3800443AF4EEC73AF1EE10FAB8BFF0EE473A69
:102F48000BE400297FF42FAC23685A023FF52BAC21
:102F5800F6EE006AC5ED386A25E4404B1B88002B65
:102F680041F01A83444A454B1178186818F0CEFE90
:102F7800D5F8B420049B9A1AFEF764BD404A12782B
:102F8800002A7EF46EAC3F4C94F80280B8F1000F32
:102F98003EF467AC3C4E3378013B0D2B32D8DFE86A
:102FA80013F07709290A2B090B0A31003100880927
:102FB800A0090909F1080E00E308D608CC08334B2C
:102FC800334A5B681268C833934204D328F056FA30
:102FD80094F80280B0B1B8F1010F01F01686B8F18B
:102FE800030F0BD12B4F386808F0A9F82A4B1B7830
:102FF8000022022B3A6001D108F016FA012394F856
:1030080002803370B8F1010F01F08D822379012B12
:1030180001F06180022B7FF473AA3378012B7FF4CF
:103028006FAA1E4B1B78002B7FF46AAA11F09EFB37
:10303800FFF766BAB0EE476A37E423685B023FF5EC
:1030480060AD62E56457002078560020D46F0020F8
:10305800F4870020008800200888002010470020FE
:103068007A81002018470020B05500209056002093
:10307800713DAA3F645600201247002014470020E3
:10308800AD7B00202C7B00202A7B0020E43100202F
:103098003847002074830020F43100209933002041
:1030A800BCF1000F00F04881B8F1000F40F04481F6
:1030B800002901F06C849E4BDDED0E3AD3ED005AE9
:1030C80066EEA55AE7EEA35AF0EE643AE4EE253A26
:1030D800F0EE635ABEF1000F01F00685B4EEE36A24
:1030E800F1EE10FA41F3008517EE102A15EE101ACA
:1030F8008A42A8BF0A4605EE902AF8EEE55A8D499D
:10310800012FC1ED005A3FF43BAED3ED045ADDED7B
:103118000F3A66EEA55AE7EEA35AF0EE643AE4EEEB
:10312800253AF0EE635ABEF1000F01F01085B4EEB7
:10313800E36AF1EE10FA41F30A8517EE102A15EE4C
:10314800100A8242A8BF024605EE902AF8EEE55A18
:10315800022FC1ED015A3FF413AED3ED085ADDED4D
:10316800103A66EEA55AE7EEA35AF0EE643AE4EE9A
:10317800253AF0EE635ABEF1000F01F0F784B4EE81
:10318800E36AF1EE10FA41F3F18417EE102A15EE16
:10319800100A8242A8BF024605EE902AF8EEE55AC8
:1031A800032FC1ED025A3FF4EBADD3ED0C5ADDED20
:1031B800113A66EEA55AE7EEA35AF0EE643AE4EE49
:1031C800253AF0EE635ABEF1000F01F0DC84B4EE4C
:1031D800E36AF1EE10FA41F3D68417EE102A15EEE1
:1031E800100A8242A8BF024605EE902AF8EEE55A78
:1031F800042FC1ED035A3FF4C3ADD3ED105ADDEDF2
:10320800123A66EEA55AE7EEA35AF0EE643AE4EEF7
:10321800253AF0EE635ABEF1000F01F0C184B4EE16
:10322800E36AF1EE10FA41F3BB8417EE102A15EEAB
:10323800100A8242A8BF024605EE902AF8EEE55A27
:10324800052FC1ED045A3FF49BADD3ED145ADDEDC3
:10325800133A66EEA55AE7EEA35AF0EE643AE4EEA6
:10326800253AF0EE635ABEF1000F01F0B384B4EED4
:10327800E36AF1EE10FA41F3AD8417EE102A15EE69
:10328800100A8242A8BF024605EE902AF8EEE55AD7
:10329800062FC1ED055A3FF473ADD3ED185ADDED95
:1032A800143A66EEA55AE7EEA35AF0EE643AE4EE55
:1032B800253AF0EE635ABEF1000F01F07E84B4EEB9
:1032C800E36AF1EE10FA41F3788417EE102A15EE4E
:1032D800100A8242A8BF024605EE902AF8EEE55A87
:1032E800072FC1ED065A3FF44BADD3ED1C5ADDED67
:1032F800153A66EEA56AE7EEA36AE4EE264ABEF141
:10330800000F00F0CB86B4EEE46AF1EE10FA40F359
:10331800C58617EE103A15EE102A9A42A8BF1A462B
:1033280007EE102AB8EEC77A81ED077A28E500BFC4
:103338003488002014350020964BBEF1000F00F0B1
:10334800AD85D3ED005ADDED0E3A66EEA55AE7EEEF
:10335800A35AF0EE643AE4EE253AB4EEE36AF1EEED
:1033680010FA01F36182FDEEE35A17EE101A15EE1A
:10337800902A9142C8BFF0EE475A41F35782F8EEBF
:10338800E55A8549012FC1ED005A3FF4F9ACD3ED58
:10339800045ADDED0F3A66EEA55AE7EEA35AF0EEB1
:1033A800643AE4EE253AB4EEE36AF1EE10FA01F37A
:1033B8005F82FDEEE35A17EE100A15EE902A90424E
:1033C800C8BFF0EE475A41F35582F8EEE55A022F8E
:1033D800C1ED015A3FF4D4ACD3ED085ADDED103AF3
:1033E80066EEA55AE7EEA35AF0EE643AE4EE253A03
:1033F800B4EEE36AF1EE10FA01F34582FDEEE35A0A
:1034080017EE100A15EE902A9042C8BFF0EE475A00
:1034180041F33B82F8EEE55A032FC1ED025A3FF41F
:10342800AFACD3ED0C5ADDED113A66EEA55AE7EED6
:10343800A35AF0EE643AE4EE253AB4EEE36AF1EE0C
:1034480010FA01F33B82FDEEE35A17EE100A15EE6F
:10345800902A9042C8BFF0EE475A41F33182F8EE05
:10346800E55A042FC1ED035A3FF48AACD3ED105A44
:10347800DDED123A66EEA55AE7EEA35AF0EE643A8D
:10348800E4EE253AB4EEE36AF1EE10FA01F329828C
:10349800FDEEE35A17EE100A15EE902A9042C8BFC7
:1034A800F0EE475A41F31F82F8EEE55A052FC1EDB9
:1034B800045A3FF465ACD3ED145ADDED133A66EEC9
:1034C800A55AE7EEA35AF0EE643AE4EE253AB4EED4
:1034D800E36AF1EE10FA01F31382FDEEE35A17EEF8
:1034E800100A15EE902A9042C8BFF0EE475A41F3F1
:1034F8000982F8EEE55A062FC1ED055A3FF440ACB3
:10350800D3ED185ADDED143A66EEA55AE7EEA35A44
:10351800F0EE643AE4EE253AB4EEE36AF1EE10FA1E
:1035280001F30582FDEEE35A17EE100A15EE902A14
:103538009042C8BFF0EE475A41F3FB81F8EEE55AD6
:10354800072FC1ED065A3FF41BACD3ED1C5ADDED35
:10355800153A66EEA56AE7EEA36AE4EE264AB4EEEB
:10356800E46AF1EE10FA0ADCFDEEE47A17EE102AAE
:1035780017EE903A9A423FF7D5AEB0EE677A17EE5B
:10358800103A15EE102A9342A8BF134607EE103AD8
:10359800C8E600BF3488002014350020E44AE54B13
:1035A800D2ED017A93ED006A92ED005AD3ED016AEB
:1035B80092ED027AE04A93ED024A5178F5EEC07A2C
:1035C800F1EE10FAB5EEC05A26EE065AF7EE007A7A
:1035D800A6EEA65AFFEE005A54BFF0EE654AF0EE8A
:1035E800674AF1EE10FAB5EEC07A54BFB0EE657ACC
:1035F800B0EE677AF1EE10FA54BFF0EE653AF0EEED
:10360800673A58BFF0EE675AF1EEC57A0029B4EE72
:10361800E66A18BFF0EE635AF1EE10FAB4BFF0EEA6
:10362800663AF0EE463AF4EEC43AF1EE10FA9FED3F
:10363800C35A4ABF9FEDC27ADFEDC15AF0EE447A11
:1036480027EE855A36EE263A9FEDBE4AC3EE053A76
:1036580048BFF0EE474AF4EEC43AF1EE10FA00F132
:1036680060829FEDB95ADFEDB66A9FEDB86A77EED2
:10367800C57AF4EEE67AF1EE10FAB8BFF0EE667AA3
:1036880027EE866A002F00F021879378DFEDB06A75
:10369800B04AD5ED327A92ED004AD5ED313A05EED1
:1036A800103AB8EE453AB3EE045A23EE263A37EE0E
:1036B800855A002B40F05282A74BA849D3ED016AE6
:1036C800D3ED022A93ED033A67EE266AE4EEA26A86
:1036D800E5EE836AB7EE003AF5EEC06AF1EE10FA4D
:1036E80048BFF0EE446A66EE266AF4EEC36AF1EE6D
:1036F80010FA88BFF0EE436AB0EE673AA3EEA63A36
:10370800B4EEC35AF1EE10FAF0EE436A9ABFB3EE84
:10371800043A76EEC36AF0EE446A012FC1ED006AFE
:103728003EF4C7AED3ED056AD3ED062A93ED073A0A
:1037380067EE266AE4EEA26AE5EE836AB7EE003A1F
:10374800F5EEC06AF1EE10FA48BFF0EE446A66EE94
:10375800266AF4EEC36AF1EE10FA88BFF0EE436A07
:10376800B0EE673AA3EEA63AB4EEC35AF1EE10FAF9
:10377800F0EE436A9ABFB3EE043A76EEC36AF0EE0F
:10378800446A022FC1ED016A3EF493AED3ED096A93
:10379800D3ED0A2A93ED0B3A67EE266AE4EEA26AA5
:1037A800E5EE836AB7EE003AF5EEC06AF1EE10FA7C
:1037B80048BFF0EE446A66EE266AF4EEC36AF1EE9C
:1037C80010FA88BFF0EE436AB0EE673AA3EEA63A65
:1037D800B4EEC35AF1EE10FAF0EE436A9ABFB3EEB4
:1037E800043A76EEC36AF0EE446A032FC1ED026A2A
:1037F8003EF45FAED3ED0D6AD3ED0E2A93ED0F3A8A
:1038080067EE266AE4EEA26AE5EE836AB7EE003A4E
:10381800F5EEC06AF1EE10FA48BFF0EE446A66EEC3
:10382800266AF4EEC36AF1EE10FA88BFF0EE436A36
:10383800B0EE673AA3EEA63AB4EEC35AF1EE10FA28
:10384800F0EE436A9ABFB3EE043A76EEC36AF0EE3E
:10385800446A042FC1ED036A3EF42BAED3ED116A1E
:10386800D3ED122A93ED133A67EE266AE4EEA26AC4
:10387800E5EE836AB7EE003AF5EEC06AF1EE10FAAB
:1038880048BFF0EE446A66EE266AF4EEC36AF1EECB
:1038980010FA88BFF0EE436AB0EE673AA3EEA63A94
:1038A800B4EEC35AF1EE10FAF0EE436A9ABFB3EEE3
:1038B800043A76EEC36AF0EE446A052FC1ED046A55
:1038C8003EF4F7ADD3ED156AD3ED162A93ED173A0A
:1038D80067EE266AE4EEA26AE5EE836AB7EE003A7E
:1038E800F5EEC06AF1EE10FA48BFF0EE446A66EEF3
:1038F800266AF4EEC36AF1EE10FA88BFF0EE436A66
:10390800B0EE673AA3EEA63AB4EEC35AF1EE10FA57
:10391800F0EE436A9ABFB3EE043A76EEC36AF0EE6D
:10392800446A062FC1ED056A3EF4C3AD18E000BF36
:103938007C8900208889002088330020F304B53F63
:1039480000000000D7B35D3F9A99193E9696963FBE
:103958000AD723BC2C880020348800201435002086
:10396800D3ED196AD3ED1A2A93ED1B3A67EE266A4E
:10397800E4EEA26AE5EE836AB7EE003AF5EEC06AB5
:10398800F1EE10FA48BFF0EE446A66EE266AF4EEED
:10399800C36AF1EE10FA88BFF0EE436AB0EE673AF8
:1039A800A3EEA63AB4EEC35AF1EE10FAF0EE436A6B
:1039B8009ABFB3EE043A76EEC36AF0EE446A072F74
:1039C800C1ED066A3EF475ADD3ED1D6AD3ED1E2A2E
:1039D80093ED1F3A27EE267AA4EEA27AA5EE837A13
:1039E800B5EEC07AF1EE10FA40F13982B0EE447AC1
:1039F80035E207EE102AFFF7E3B8B0EE676AFEF784
:103A080073BF07EE102AFFF7FDB8002900F05583B1
:103A1800B1EE444AB4EEE64AF1EE10FA00F3FC8641
:103A2800F7EE007A77EEC67AF4EEE76AF1EE10FA6E
:103A380088BFF0EE676AFFF766B8B0EE676AFEF710
:103A480072BF07EE102AFFF7FEB8B0EE676AFEF7FE
:103A580089BF95ED397A95ED3A6A85ED347A76EE37
:103A6800475A012985ED327AC5ED315A85ED366A16
:103A780000F0E586049BC5F8DC30002378EE677A11
:103A8800BCEEC88A012218EE101AC5ED387AB0EEDD
:103A9800667AA5F8CC1085F8CE202D4A93423EF6DA
:103AA800F5ADFEF757B915EE104AA042A8BF20465B
:103AB80007EE100AFFF7E3B8012A00F0D086022AC1
:103AC80008BFC5F88830FEF75CB9224BF0EEC87A1B
:103AD80067EE8C7A93ED007AB7EE006AF4EEC67A58
:103AE800F1EE10FA28EE077A88BFF0EE467AF0EE8B
:103AF800408AE7EE278AF5EEC08AF0EEE87AF1EE22
:103B080010FAF4EEE67ACCBF01234FF0FF33F1EE62
:103B180010FA02DD9B4500F0C0844FF0000BFEF761
:103B2800C0B9B4EEE66ADFED0C6AF1EE10FAD8BF60
:103B3800B0EE667A88BFF0EE664A92E5DB88A8EBBD
:103B48000302984492B21FFA88F8FEF7B7B800BF8C
:103B58008FD003002088002000000000CD4BCE4904
:103B6800D3ED016A93ED022AD3ED032A67EE266AA4
:103B7800E4EE826AE5EEA26AF7EE002AF5EEC06A84
:103B8800F1EE10FA48BF66EE836A66EE266AF4EE36
:103B9800E26AF1EE10FA88BFF0EE626AF0EE672A88
:103BA800E3EEA62AB4EEE25AF1EE10FAF0EE626AFB
:103BB8009ABFF3EE042A76EEE26AF0EE446A012F29
:103BC800C1ED006A3EF475ACD3ED056A93ED062AA3
:103BD800D3ED072A67EE266AE4EE826AE5EEA26A6A
:103BE800F7EE002AF5EEC06AF1EE10FA48BF66EE6D
:103BF800836A66EE266AF4EEE26AF1EE10FA88BF8E
:103C0800F0EE626AF0EE672AE3EEA62AF4EEC52A21
:103C1800F1EE10FAF0EE626AA6BFF3EE042A76EE31
:103C2800E26AF0EE446A022FC1ED016A3EF441AC4B
:103C3800D3ED096A93ED0A2AD3ED0B2A67EE266ABB
:103C4800E4EE826AE5EEA26AF7EE002AF5EEC06AB3
:103C5800F1EE10FA48BF66EE836A66EE266AF4EE65
:103C6800E26AF1EE10FA88BFF0EE626AF0EE672AB7
:103C7800E3EEA62AB4EEE25AF1EE10FAF0EE626A2A
:103C88009ABFF3EE042A76EEE26AF0EE446A032F56
:103C9800C1ED026A3EF40DACD3ED0D6A93ED0E2A28
:103CA800D3ED0F2A67EE266AE4EE826AE5EEA26A91
:103CB800F7EE002AF5EEC06AF1EE10FA48BF66EE9C
:103CC800836A66EE266AF4EEE26AF1EE10FA88BFBD
:103CD800F0EE626AF0EE672AE3EEA62AB4EEE25A44
:103CE800F1EE10FAF0EE626A9ABFF3EE042A76EE6D
:103CF800E26AF0EE446A042FC1ED036A3EF4D9ABE0
:103D0800D3ED116A93ED122AD3ED132A67EE266AD2
:103D1800E4EE826AE5EEA26AF7EE002AF5EEC06AE2
:103D2800F1EE10FA48BF66EE836A66EE266AF4EE94
:103D3800E26AF1EE10FA88BFF0EE626AF0EE672AE6
:103D4800E3EEA62AB4EEE25AF1EE10FAF0EE626A59
:103D58009ABFF3EE042A76EEE26AF0EE446A052F83
:103D6800C1ED046A3EF4A5ABD3ED156A93ED162AAE
:103D7800D3ED172A67EE266AE4EE826AE5EEA26AB8
:103D8800F7EE002AF5EEC06AF1EE10FA48BF66EECB
:103D9800836A66EE266AF4EEE26AF1EE10FA88BFEC
:103DA800F0EE626AF0EE672AE3EEA62AB4EEE25A73
:103DB800F1EE10FAF0EE626A9ABFF3EE042A76EE9C
:103DC800E26AF0EE446A062FC1ED056A3EF471AB73
:103DD800D3ED196A93ED1A2AD3ED1B2A67EE266AEA
:103DE800E4EE826AE5EEA26AF7EE002AF5EEC06A12
:103DF800F1EE10FA48BF66EE836A66EE266AF4EEC4
:103E0800E26AF1EE10FA88BFF0EE626AF0EE672A15
:103E1800E3EEA62AB4EEE25AF1EE10FAF0EE626A88
:103E28009ABFF3EE042A76EEE26AF0EE446A072FB0
:103E3800C1ED066A3EF43DAB93ED1D2AD3ED1E2A73
:103E4800D3ED1F6A27EE027AA4EEA27AA5EEA67A2F
:103E5800B5EEC07AF1EE10FA48BF27EE037A26EEE7
:103E6800077AF7EE006AB4EEE67AF1EE10FA88BF48
:103E7800B0EE667AE3EE877AB4EEE75AF1EE10FA1E
:103E88009CBFB3EE044A37EEC44A81ED074AFEF7F9
:103E980010BB00BF348800201435002093ED006A61
:103EA800DDED0E5A26EE866A17EE101AA7EEA56A01
:103EB800F0EE645AE4EE065ABDEEE56A16EE102AF4
:103EC800914200F3AD8415EE101A8A42A8BF0A4643
:103ED80006EE102AB8EEC66AD249012F81ED006AB3
:103EE8003EF44EAF93ED046ADDED0F5A26EE866A76
:103EF80017EE100AA7EEA56AF0EE645AE4EE065A29
:103F0800BDEEE56A16EE102A904200F3AD8415EE78
:103F1800100A8242A8BF024606EE102AB8EEC66A08
:103F2800022F81ED016A3EF42BAF93ED086ADDEDB7
:103F3800105A26EE866A17EE100AA7EEA56AF0EE6A
:103F4800645AE4EE065ABDEEE56A16EE102A90426F
:103F580000F3A48415EE100A8242A8BF024606EEBA
:103F6800102AB8EEC66A032F81ED026A3EF408AF44
:103F780093ED0C6ADDED115A26EE866A17EE100AEB
:103F8800A7EEA56AF0EE645AE4EE065ABDEEE56ABD
:103F980016EE102A904200F39C8415EE100A824215
:103FA800A8BF024606EE102AB8EEC66A042F81EDB5
:103FB800036A3EF4E5AE93ED106ADDED125A26EE83
:103FC800866A17EE100AA7EEA56AF0EE645AE4EEC8
:103FD800065ABDEEE56A16EE102A904200F37D847B
:103FE80015EE100A8242A8BF024606EE102AB8EE65
:103FF800C66A052F81ED046A3EF4C2AE93ED146AD9
:10400800DDED135A26EE866A17EE100AA7EEA56AAA
:10401800F0EE645AE4EE065ABDEEE56A16EE102A92
:10402800904200F3698415EE100A8242A8BF024646
:1040380006EE102AB8EEC66A062F81ED056A3EF430
:104048009FAE93ED186ADDED145A26EE866A17EED8
:10405800100AA7EEA56AF0EE645AE4EE065ABDEE21
:10406800E56A16EE102A904200F36C8415EE100AE9
:104078008242A8BF024606EE102AB8EEC66A072F8B
:1040880081ED066A3EF47CAE93ED1C6ADDED155AAF
:1040980066EE866AE7EEA56AE4EE264AFDEEE47A65
:1040A80017EE102A17EE903A9A423FF73BA9FFF70E
:1040B80032B966EEA76AFEF76BBB236858023FF574
:1040C800A7ACF6EE007AF4EEE76AF1EE10FA3FF7E5
:1040D8009FACFEF71ABD544B34781B78DB0704D429
:1040E8002AF0EEFC002840F01684504FD5F8FC204A
:1040F8003B689A4200F21684012C3EF401AA4C4D0A
:104108002B78002B3EF4FCA90B2C0DD80123A340DF
:1041180040F6030213EA02080BD113F4C06F03D070
:10412800093C012C40F2E586424B3A685A600B2361
:10413800337000232B70FEF7E3B91A202BF010F828
:1041480000287EF45FAF01233370FEF75BBFB8F140
:10415800010F00F0A6840E231320337007F0F4F942
:1041680094F80280FEF74EBFB8F1010F01D119F0A3
:1041780037FF0D231320337007F0E6F994F8028017
:10418800FEF740BF2C4B1B78002B00F0DF83162076
:104198002AF0E6FF002840F0D983254B1B78002B36
:1041A80040F0D4830923337010F086F894F8028025
:1041B800FEF728BF16202AF0D3FF0028F4D01F4BA3
:1041C8001B88002BF0D11E4B45201F6827F0FAF9F9
:1041D8000E2027F0F7F938460FF08EFF049F384677
:1041E8000FF08AFF174A184B12681A6038460A23DC
:1041F800337012F043FDD7E70E4F27F017F90B4A3B
:104208007B68126864339342AAD2402027F0E0F812
:104218000028A5D13B68DFF83480DFF834A04FF0E0
:10422800400925E014350020D46F002038470020CD
:1042380099330020E43100208B330020D83100204E
:10424800D4310020C8310020C4310020B81A030836
:104258007083002027F0B6F9DAF800203B68013AAD
:104268000133B9F10109CAF800203B6000F0178555
:1042780043441B7E1846002BECD100234FF0FF323D
:104288003B6004237A60337094F80280FEF7BABE6C
:10429800B14B1B78D90700F10E841A202AF060FF71
:1042A80000283FF45DAF0C23337094F80280FEF7CA
:1042B800A9BE27F0BBF8A94B052000210090A3F167
:1042C8000802CDE90111532010F02CF800287FF4E2
:1042D80047AFA34B94F80280186008233370FEF7A9
:1042E80091BE27F0A3F89F4B93ED000A2CF0AAFC8F
:1042F80095ED3A0A80462CF0A5FC8146402027F02F
:1043080067F800287FF42CAF954F974A396853789F
:104318004E2900F20184DFE811F0FA0507060006CD
:10432800280622061A061206E006D906D206CB0689
:10433800BB064A0643063906940785077E077707B2
:10434800700766075C0752074807360724071207F5
:104358000707FC06F106E6060A090109F908F0084C
:10436800E808E008D808CF08C608BD08B408AC08B3
:10437800A4089B0890088808800878087108FD0739
:10438800F607EF07E807E107DA07D207CA07B70712
:10439800B007A907A2079B07A3059C0595058E05ED
:1043A8008705800579057205C105BA05B205AA0514
:1043B800D105C705DB05640527F038F86B4A02927A
:1043C800A2F10C03282101930091A2F10A035021C4
:1043D800163A49200FF0A6FF00287FF4C1AE604BC3
:1043E80094F8028018604FF0FF325A600723337048
:1043F800FEF708BE5E4B5A4A1B6853605D490023AE
:10440800136003220B603270FEF7FCBD5A4A5B4909
:10441800B2F800B04A69002A3DF476AB0A68136026
:104428004B74FDF771BBDFED567AB0EE674AB0EE1C
:10443800676AFEF7BABA4B4A524BD2ED006A95ED5D
:10444800356A1B78C5ED346A85ED366A002B00F0B5
:10445800DE8176EE665A0131C5ED315AC5ED326A14
:1044680000F0F381049BC5F8DC30002377EEC87AAE
:10447800BCEEC88AFF2218EE101AC5ED387AA5F8E6
:10448800CC1085F8CE20FFF708BBB0EE636AFEF7C4
:1044980088BA07EE102AFEF712BCF0EE68CAD5EE0D
:1044A800A6CA394BD3ED007A6CEEA7CA4FF0000BC1
:1044B80084ED01DAFDF7F8BC30494A69002A3DF479
:1044C800FCAA0A6813604B74FDF7F7BA2F4B1B78E8
:1044D800002B7EF400A8FEF702B807EE102AFEF7BC
:1044E8000EBC204A274BD2ED007AD5ED356A1B78F1
:1044F800C5ED347AC5ED366A002B00F0AB8136EE97
:10450800E76A481C85ED316AC5ED327A00F0CA8148
:10451800049BC5F8DC300022FF23C5F8E02085F8AD
:10452800CE30FDF717BC19F071FD194B82681B6876
:104538009A423EF66BAD33780C3B022B7DF6E0AF2A
:10454800144B86F800801A78002A3DF4D9AF00226F
:104558001A70FDF7D5BF00BFD46F0020081D0308EF
:10456800E43100203435002034560020361B03087F
:1045780038470020708300207A81002018470020E7
:1045880000000000A8590020288800206867002043
:10459800F831002099330020EE494B69002B3DF497
:1045A80051AAED480B68B0F800C0EC4890FBFCF04D
:1045B8004FF0010C186081F811C0FDF743BA07EEFF
:1045C800102AFEF7BCBB00297EF4EEAA17EE101ADB
:1045D8008A4200F3D98115EE104AA142A8BF2146AC
:1045E80007EE101AB8EEC77ABAF1000F40F04D8303
:1045F800DB49012F81ED007A3EF4C5AB93ED047AD7
:104608009DED0F6A26EE877AA7EE867AB0EE646A89
:10461800A4EE076ABDEEC67A17EE104AA24200F36E
:10462800348215EE10CA6445A8BF644607EE104AE6
:10463800B8EEC77ABAF1000F40F07983022F81ED06
:10464800017A3EF4A0AB93ED087A9DED106A26EE50
:10465800877AA7EE867AB0EE646AA4EE076ABDEEA2
:10466800C67A17EE104AA24200F3128215EE10CA5B
:104678006445A8BF644607EE104AB8EEC77ABAF197
:10468800000F40F0D882032F81ED027A3EF47BAB15
:1046980093ED0C7A9DED116A26EE877AA7EE867A5D
:1046A800B0EE646AA4EE076ABDEEC67A17EE104A49
:1046B800A24200F3F08115EE10CA6445A8BF644613
:1046C80007EE104AB8EEC77ABAF1000F40F0F08250
:1046D800042F81ED037A3EF456AB93ED107A9DEDED
:1046E800126A26EE877AA7EE867AB0EE646AA4EE9E
:1046F800076ABDEEC67A17EE104AA24200F3CE81D1
:1047080015EE10CA6445A8BF644607EE104AB8EE15
:10471800C77ABAF1000F40F02083052F81ED047AA3
:104728003EF431AB93ED147A9DED136A26EE877A49
:10473800A7EE867AB0EE646AA4EE076ABDEEC67A82
:1047480017EE104AA24200F3B38115EE10CA644571
:10475800A8BF644607EE104AB8EEC77ABAF1000F50
:1047680040F01183062F81ED057A3EF40CAB93EDF2
:10477800187A9DED146A26EE877AA7EE867AB0EE4F
:10478800646AA4EE076ABDEEC67A17EE104AA24222
:1047980000F3EA8115EE10CA6445A8BF644607EE27
:1047A800104AB8EEC77ABAF1000F40F00283072F1B
:1047B80081ED067A3EF4E7AA93ED1C7A9DED156A21
:1047C80066EE876AE7EE866AE4EE264AFDEEE47A4C
:1047D80017EE903A9A4204DC15EE102A9A42A8BFC6
:1047E8001A4607EE902AF8EEE77ABAF1000F3EF47F
:1047F800C5AA00287EF4C2AA059B002B7EF4BEAA97
:10480800079B9945B8BFF0EE657AFEF7B7BA76EE22
:10481800C65AF0EE466A1EE6F0EE446AFEF773B931
:10482800B0EE476AFFF756BB17EE102A15EE101ABE
:104838008A42A8BF0A4605EE902AFEF7A0BDD5F821
:10484800DC30049AD31AFFF719B9D5F8DC30049A8A
:10485800D31A0BE637EEE66AF0EE667A51E60323E2
:10486800C5F88830FDF78DBAB0EE476AFFF756BB3A
:1048780017EE102A15EE100A8242A8BF024605EE6E
:10488800902AFEF7A2BD17EE102A15EE100A8242F2
:10489800A8BF024605EE902AFEF7BCBDB0EE476AF7
:1048A800FFF75FBBDFED307AD5F8DC30049A85F886
:1048B800CE10D31AC5ED387AFFF7EFB817EE102AE5
:1048C80015EE100A8242A8BF024605EE902AFEF7AE
:1048D800C6BDB0EE476AFFF767BBB0EE476AFFF7A1
:1048E80086BB17EE102A15EE100A8242A8BF0246B0
:1048F80005EE902AFEF7D8BDB0EE476AFFF79ABBDF
:1049080017EE102A15EE100A8242A8BF024605EEDD
:10491800902AFEF7EEBD134B1B6803F59C53083332
:10492800C5F8FC30012C7DF4EBADFEF77ABB17EE31
:10493800102A15EE100A8242A8BF024605EE902AF8
:10494800FEF7FCBDB0EE476AFFF797BB049812F07C
:1049580095F929E4184700203047002020A10700D6
:104968001435002038470020000000005FED027A6F
:10497800D5F8DC30049A85F8CE10B0EE667AD31AF2
:10498800C5ED387AFFF789B8B0EE637A2AE6099060
:104998000EAB7046B046D14AD1490897564603EB4C
:1049A800870417EE10CA15EE10AADDF824E018E007
:1049B800B4EEC76AF1EE10FA23DD03EE90CA13EEE7
:1049C800907A5745A8BF574603EE907AF8EEE33A37
:1049D800002E40F00C819C42E1EC013A02F11002F9
:1049E80018D0D2ED003AB3EC013A66EEA33AB0EE35
:1049F800647AE7EE833AA4EE237AF0EE473A002889
:104A0800D6D1FDEEE33A13EE907ABC45D7DD03EE3E
:104A180090CADBE7B246089F4646FEF7B1B9B149EE
:104A2800D1ED027AF0EEE77AFCEEE77A4FF6EF7214
:104A380017EE903A103B9BB293421AD9D1ED017A06
:104A4800F0EEE77AFCEEE77A17EE903A103B9BB26D
:104A580093420ED9D1ED037AF0EEE77AFCEEE77ACD
:104A68004FF6CC7217EE903A333B9BB293423DF629
:104A7800AFACD5F8BC30002B43D1049B03F592337F
:104A8800F833C5F8BC30FDF7A6BC07EE102ACFE511
:104A980007EE102AF1E507EE102A13E607EE102AB2
:104AA80035E619F01BFC00283FF45AABFFF753BB5F
:104AB80007EE102A50E61EF00FFF074680B1DFF818
:104AC8004082D8F80030984200F0C680D8F8DC3030
:104AD800BB4200F0B880D8F8B8319F4200F0CC80D3
:104AE8000FF0EEFCFFF7D9BBFDEEE55A17EE101AF2
:104AF80015EE902A91427EF7F9AAF0EE475AFEF792
:104B0800FCBA049A9A427DF666AC202008F010FAA6
:104B1800FCF780FDFDF75FBC26F0B0FC00283FF4F1
:104B28001FAB714A714B12681A600A23337094F8EC
:104B38000280FEF767BA2AF005FB00287DF427AC4F
:104B48002AF014FB00283DF429A8FDF720BCFDEE4F
:104B5800E55A17EE100A15EE902A90427EF7EFAA52
:104B6800F0EE475AFEF7F2BA144618E6FDEEE55A9B
:104B780017EE100A15EE902A90427EF708ABF0EE79
:104B8800475AFEF70BBBFDEEE55A17EE100A15EE75
:104B9800902A90427EF723ABF0EE475AFEF726BBE9
:104BA800FDEEE55A17EE100A15EE902A90427EF7B0
:104BB8003EABF0EE475AFEF741BBFDEEE55A17EE65
:104BC800100A15EE902A90427EF781AB17EE102A54
:104BD800FEF782BBFDEEE55A17EE100A15EE902A95
:104BE80090427EF74CAB17EE102AFEF74DBBBEF194
:104BF800000F7FF4F0AE059F002F7FF4ECAE079F07
:104C0800B945B8BFF0EE653AE5E619F0FFF9837BE0
:104C1800012B7EF4F3A9364843681B6A984719F0BC
:104C2800F5F9344942880B68013B1344524213405A
:104C38000B60FEF7E3B9B8B1032F81ED027A7FF478
:104C480027ADFEF79DB8384606F079FADC22002138
:104C580029482CF0C0FE3EE706F071FADC2200215C
:104C680040462CF0B8FE31E7059C4CBB079CA1459B
:104C7800B8BFB0EE657ADFE7384606F060FADC22A6
:104C880000211E482CF0A7FE2AE700283AD0144934
:104C9800012F81ED007A7FF4B1ACFEF771B843447F
:104CA80094F802801B7E002B7EF4ACA9FFF7E5BACE
:104CB80060B1042F81ED037A7FF40FADFEF760B881
:104CC800032F81ED027A3EF463A8E1E4059C0CBB56
:104CD800079CA145B8BFB0EE657AEAE734880020A2
:104CE8001435002098460020C8310020C431002027
:104CF8004C470020F8310020385100201452002081
:104D08005C500020059959B907998945B8BFB0EE9C
:104D1800657ABCE7042F81ED037A3EF439A8DCE418
:104D2800A649012F81ED007A3EF432A866E430B13D
:104D3800022F81ED017A7FF486ACFEF721B8059C3D
:104D48002CB9079CA145B8BFB0EE657AF0E7022FF1
:104D580081ED017A3EF41CA875E430B1052F81ED90
:104D6800047A7FF4DFACFEF70BB8059C2CB9079CDE
:104D7800A145B8BFB0EE657AF0E7052F81ED047A5A
:104D88003EF406A8CEE430B1062F81ED057A7FF413
:104D9800EEACFDF7F5BF059C2CB9079CA145B8BF43
:104DA800B0EE657AF0E7062F81ED057A3DF4F0AFB5
:104DB800DDE460B1072F81ED067A7FF4FDACFDF7E5
:104DC800DFBFB1EE488ADFED7ECAFCF776BE059CF0
:104DD800002C40F08780079CA145B8BFB0EE657AEB
:104DE800E8E7784B7849D3F8982078480FF0F2F93B
:104DF8003B6894F8028001333B60FEF703B9744BBB
:104E08007149DA8973480FF0E5F9F1E7704B6E499B
:104E18001A8871480FF0DEF9EAE76D4B6A499A780B
:104E28006E480FF0D7F9E3E7694B67491A796C4880
:104E38000FF0D0F9DCE76B4B63491A7A6A480FF038
:104E4800C9F9D5E7674B60491A7F68480FF0C2F97E
:104E5800CEE7644B5C499A7E65480FF0BBF9C7E71B
:104E6800604B59491A7E63480FF0B4F9C0E75D4BAF
:104E7800554993F8282060480FF0ACF9B8E7594B2A
:104E8800514993F825205D480FF0A4F9B0E75C4B31
:104E98004D491A685B480FF09DF9A9E792784A498D
:104EA80059480FF097F9A3E74E4A584992F82A3023
:104EB800574892F829200FF08DF999E7494A534944
:104EC80092F82730534892F826200FF083F98FE79D
:104ED8003C4A4E49B2F896304F48B2F894200FF049
:104EE80079F985E7072F81ED067A7FF465ACFDF740
:104EF8004FBF452026F066FBFF2026F063FB47489E
:104F080026F0D0FA404626F05DFBFFF70DB9444A7B
:104F1800444945480FF05EF96AE7444B444A45491D
:104F280045480FF057F963E7444A454B4549464819
:104F3800CDE90032454B464A0FF04CF958E7454B4E
:104F48002149B3F9002044480FF044F950E7434B96
:104F58001D49B3F9002042480FF03CF948E7414A9F
:104F6800304941480FF036F942E70BA818F0B8FA73
:104F78003E4B0BA9B3F900200EA8002318F00AFB3A
:104F88000EAA28493A480FF025F931E739483A4935
:104F9800837842780078009038480FF01BF927E7AB
:104FA800374B1B68DA047CD40F233B6020E7354B72
:104FB80035499A8A35480FF00DF919E7143500205C
:104FC80000000000685700207C4F0308D04F0308FA
:104FD80090590020204F0308104F0308FC4E030887
:104FE800E84E03084C550020D44E0308B84E030879
:104FF8009C4E0308884E0308604F03084C4F030873
:1050080080560020404F0308344F0308784F0308A8
:10501800984F0308804F0308B44F0308304A030829
:105028003C4A0308484A03084C4A0308B04A0308A4
:10503800BC4A0308C84A0308D04A0308984A030828
:10504800A44A0308744A0308844A03085C4A03080C
:10505800644A0308E03100200C4B0308DE310020CD
:10506800004B0308DE300020F44A0308A02E00207D
:10507800E04A0308B0550020784B0308844B030826
:10508800F031002044810020604B0308644B030882
:105098001FFA89F31FFA88F2A249A3480FF09AF879
:1050A800A6E6A24BA2491A78A2480FF093F89FE609
:1050B8004FF07E52A049A1480FF08CF898E6A04B1B
:1050C800A0495A8AA0480FF085F891E69C4B9D4963
:1050D8001A8A9E480FF07EF88AE6228899499C48E9
:1050E8000FF078F884E69B4B9B491868C37E827E54
:1050F800007F009099480FF06DF879E6954B964936
:105108001868437D027D807D009095480FF062F815
:105118006EE6904B90491868C37B827B007C0090B8
:1051280090480FF057F863E68A4B8B491868437A22
:10513800027A807A00908C480FF04CF858E68B4A37
:1051480085498B484FF0120C0CFB032C9CF80A3055
:105158009CF809209CF80BC0CDF800C00FF03AF875
:1051680046E6824A7C4983484FF0120C0CFB032C1C
:105178009CF807309CF806209CF808C0CDF800C0C1
:105188000FF028F834E6794A73497B484FF0120C3F
:105198000CFB032C9CF804309CF803209CF805C0F9
:1051A800CDF800C00FF016F822E6704865491222C3
:1051B80002FB03037148DA890FF00CF818E66B4814
:1051C8006049122202FB03036D481A7B0FF002F8B4
:1051D8000EE666485B49122202FB030369485A78C7
:1051E8000EF0F8FF04E6122202FB03F35F4A55496A
:1051F800D25C65480EF0EEFFFAE5644B51491A7827
:1052080063480EF0E7FFF3E5624B4E499A7862482F
:105218000EF0E0FFECE5614B4A491A6860480EF071
:10522800D9FFE5E55F4B9B79012B7FF4E1AD5E4A41
:105238003C49B2F900305D48B2F902200EF0CAFFCD
:10524800D6E55B4B3A491A885A480EF0C3FFCFE5BA
:1052580095F874203B4958480EF0BCFFC8E5574BF9
:105268003849DA7856480EF0B5FFC1E5554B35494F
:105278005A7955480EF0AEFFBAE5544B3149DA7801
:1052880053480EF0A7FFB3E5504B9FED527A1B88A9
:105298002C49514807EE903AF8EEE77A67EE877A9C
:1052A800FDEEE77A17EE902A0EF094FFA0E5394A52
:1052B8001C49538A4948D2890EF08CFF98E5354A33
:1052C8001849138A464892890EF084FF90E5314BBD
:1052D8001C495A8943480EF07DFF89E52D4B194931
:1052E8001A7E41480EF076FF82E52A4B15491A8945
:1052F8003E480EF06FFF7BE5264B1249DA7D3C48AD
:105308000EF068FF74E5234B0E49DA7839480EF041
:1053180061FF6DE595F8F5200A4937480EF05AFF08
:1053280066E500BF4C4B0308544B0308A455002006
:10533800604B03086C4B0308384B0308404B0308C9
:10534800905900207C4F03082C4B0308204B03087E
:10535800184B0308387900200C4C0308504C0308FC
:10536800484C03083C4C0308344C0308A27A00203C
:105378002C4C0308244C0308184C0308FC4B030866
:10538800F04B0308E44B0308DC4B03088E2E002087
:10539800C84B0308A8460020B84B030898460020CD
:1053A800AC4B0308B0550020A85500209C4B0308BF
:1053B80084330020944B0308704E03085C380020A7
:1053C800604E0308CC850020504E03089C34002012
:1053D800404E03080000C842344E0308204E03081C
:1053E800104E0308FC4D0308E84D0308D84D030888
:1053F800C44D0308B04D0308A04D030895F8F420E8
:105408004F4950480EF0E6FEF2E44F4B4C491B68FA
:105418004E481A8D0EF0DEFEEAE44B4B48491B68F5
:105428004B489A8F0EF0D6FEE2E4474B44491B687E
:1054380048485A8F0EF0CEFEDAE4434B46491868C6
:10544800438A8289008B009044480EF0C3FECFE463
:105458003D4B3B491B68424893F84B200EF0BAFE7F
:10546800C6E4394B36491B683E489A8E0EF0B2FEA8
:10547800BEE4354B32491B683B485A8E0EF0AAFEF3
:10548800B6E4314B2E491B68384893F830200EF0AB
:10549800A1FEADE42C4B2A491B68354893F82C2013
:1054A8000EF098FEA4E4284B25491B68314893F870
:1054B8004A200EF08FFE9BE4234B21491B682E489F
:1054C80093F827200EF086FE92E41F4B1C491B68B8
:1054D8002A48DA880EF07EFE8AE41B4B18491B68BE
:1054E80027489A880EF076FE82E4174B14491B6809
:1054F80024481A880EF06EFE7AE4134B10491B6894
:105508002148B3F850200EF065FE71E40E4B0C49AB
:105518001B681E485A880EF05DFE69E40A4B08496C
:105528001B681B4893F826200EF054FE60E4064BD7
:1055380003491B68174893F820200EF04BFE57E4E8
:105548007C4F0308A44D030838790020904D0308C8
:10555800844D0308744D03080C4C0308604D030880
:10556800484D0308344D03081C4D0308084D030833
:10557800F44C0308E44C0308D44C0308C04C03085B
:10558800B04C0308A04C03088C4C0308784C030863
:10559800644C03085C4C03082DE9F04FDFF84CC25B
:1055A80004460A300CEB000E87B09EF80C801CF8FD
:1055B800009003914FF41A7C404601920CFB04FAC8
:1055C800049315F00DFA0646484615F009FA0090BE
:1055D800404615F0C1FF9DF84450804B0590484661
:1055E80003F5807B15F0B8FF15F008039DF84070AF
:1055F80002930BEB0A08DDE9001200F09180002904
:1056080000F0E58091F807C01CF0020F40F0DF8041
:10561800724B03EB0A0C07F002030093CCF840111D
:10562800CCF83C01CCF8380130B14FF00B0C04EB4E
:105638000C0180F806C0C171684B049E4FF41A79BA
:1056480009FB04390AF1480089F80471039FC9F875
:105658002C715844624FC9F800710AF5A4710027EB
:105668005944C9F814014FF48070C9F8302189F8F9
:105678000551C9F81811C9F80C01C9F810013146CB
:10568800D9F84001C9F8086189F85843C9F8207168
:10569800C9F81C71C9F82871C9F82471C9F854737C
:1056A800A9F84C73FBF7E0FA05F00101D9F84001BD
:1056B8001CF032FB009A4B484B49C9F860730AF555
:1056C80019750AF517735D44C9F86403C9F85C13C2
:1056D8009B44002A5CD0D9F84401002858D0D9F856
:1056E800402103681268934252D0012389F8593344
:1056F8003146FBF7B9FA5946D9F844011CF07AFA51
:105708003A462946D9F8400114F0CEFF029B002BF7
:105718004FD04046FBF766F9404607B0BDE8F08F2A
:1057280017F00103019318D117F00203009383D0F7
:10573800B9F1000F4BD0294B4FF41A7C0CFB043CF9
:10574800019BCCF83C01002B3BD100293FD0CCF881
:10575800401100287FF469AF6EE7002E37D096F825
:1057680007C01CF0020F32D11C4B03EB0A0C059B3F
:10577800CCF83831059BCCF84061002BD4D04FF0E1
:105788000C0E04F10B0C83F806E083F807C0CBE796
:10579800124A4FF41A7303FB0424002384F8593384
:1057A8005A462946D4F8400114F07EFF029B002B8C
:1057B800AFD14046FBF77EFA01214046FBF784FA59
:1057C800A7E7CCF8441100287FF42FAF34E74FF057
:1057D8000008404607B0BDE8F08F00BFC01B00209E
:1057E800281D0308B90B0008E90C00087C550020A7
:1057F80030B4424B1B78012B14BF00240324036AE6
:1058080019B304293BD0082957D04EF6FF710B4035
:105818000362C369016A40F6FF452B4045F6FF75F0
:10582800294041EA023243F4807342F4805243EA49
:10583800043392B2C3610262C3694FF2FF3213406C
:10584800C361C369C36130BC704723F001030362BD
:105858008369016A23F0F30342F0010243F0010374
:1058680021F00A0143EA04130A438361026283694F
:1058780023F00C0383618369836130BC70474FF662
:10588800EF710B4003628369016A12014FF65F757D
:1058980042F0100223F47343294092B243F4807318
:1058A80043EA04330A4383610262836923F4406351
:1058B80083618369836130BC70474FF6FF610B4099
:1058C8000362C369056A4FF2FF5129409BB223F076
:1058D800F30341EA022243F0010342F4807243EAEF
:1058E800041392B2C3610262C3694FF6F3721340A4
:1058F800C361C369C36130BC704700BF5053002007
:10590800F8B550F8043C10F80E4C5E790246186859
:10591800C4B114460B4632F80C1C14F80F7C24F85A
:105928000A3C0D4A5B1A9BB2002524F8083C314614
:1059380022F817302A4604F80E5CFFF759FF04F8DE
:105948000D5CF8BD012302F80E3C22F80C1C314610
:105958000222BDE8F8404BE7902D0020F8B51B4F18
:10596800054615F0A7F93E7D7EB1EDB1184A3146DE
:10597800002314890133002C18BF0021AB4202F127
:105988006002F6D181B93046F8BDFB68C31A002B16
:10599800F9DB7B7D83B1013BDBB27B7583B100F51D
:1059A8007A70F8600126EEE700F51C5010300023ED
:1059B800F8603B753046F8BDFE6001263046F8BDFC
:1059C8003B691844F8600126DDE700BFC01B0020D2
:1059D800BC5900202DE9F04F83B01C460646884686
:1059E800174615F067F9BC4B1B78002B72D02F2F88
:1059F80070D8DFF810A3DAF80C30002B6AD1152F15
:105A08006BD80123B54903FA07F20A4240F01B821A
:105A1800B34912F03E0F9B460CBF4FF47A730B4606
:105A28000193002C5FD100F51C501030019BCAF87F
:105A38000C008AF815B0CAF81030B8F1000F47D03A
:105A480042463946A7482BF0C6FFA74A1389B8F142
:105A5800010FB3FA83F34FEA531335D0B2F8681045
:105A6800002918BF0023B8F1020F2DD0B2F8C810D2
:105A7800002918BF0023B8F1030F25D0B2F8281168
:105A8800002918BF0023B8F1040F1DD0B2F88811FF
:105A9800002918BF0023B8F1050F15D0B2F8E81196
:105AA800002918BF0023B8F1060F0DD0B2F848122C
:105AB800002918BF0023B8F1070F05D0B2F8A822B3
:105AC800002A08BF1C4600E01C4684F00104E4B22A
