:020000040800F2
:10000000F0FF0010E9B90408A95F020801F802082E
:1000100085BA040885BA040885BA040800000000FF
:10002000000000000000000000000000AF5F0208B8
:10003000AD5F020800000000AB5F020841F8020853
:1000400085BA040885BA040885BA040885BA040884
:1000500085BA040885BA0408CD930008F99400080D
:10006000BD94000881940008459400081507010814
:1000700005070108F5060108E5060108D106010893
:10008000BD060108A906010885BA040885BA040856
:1000900085BA040885BA040885BA040809940008DA
:1000A00085BA040869DE020885BA040829DF020857
:1000B000A9DD0208E9DC02081DDC020885BA040893
:1000C00085BA040885BA040885BA040885BA040804
:1000D00085BA040855FA020885BA0408B9F9020875
:1000E0009193000885BA0408C9B2020885BA0408C9
:1000F000ADD9020885BA04087DDA02089506010820
:1001000085BA040809F700084DDB020885BA04081F
:100110001DF9020885BA040825080208110802081A
:10012000810601086D060108590601084506010807
:100130003106010885BA040885BA040885BA04089E
:1001400085BA040885BA040885BA0408318C020807
:100150001D06010809060108F505010881F80208D5
:1001600085BA040885BA040885BA040885BA040863
:1001700085BA040885BA040885BA040885BA040853
:0801800085BA040885BA0408E1
:0801880090B504000100000025
:1001900010020100602700205C2700200000000002
:1001A000E006000803123300C8310020FB310020B4
:1001B00000000000E2060008250096007C300020C8
:1001C0001231002000000000000000001500700047
:1001D000242F0020942F00200000000000000000C9
:1001E0002A006000642E0020C42E002000000000C1
:1001F00035FF03082C001000A8310020B831002082
:10020000000000002D2601082B002400523200209F
:100210002E32002000000000FD2501082910780082
:10022000C42D002004300020000000000000000069
:1002300014000300342D00205E2E0020000000007A
:10024000160700080E020200BC2D00200C3500200D
:10025000000000001A07000810100300F833002007
:1002600010350020000000001C07000828101000B6
:10027000E83300201435002000000000090A0108BE
:1002800023001000502B0020243500200000000027
:10029000210A0108F8210600AA2D0020343500208B
:1002A00000000000200700082F0011003C2E002055
:1002B0004D2E002000000000260700081802020052
:1002C000C437002028380020000000000000000093
:1002D00017020B00B93700202C3800200000000066
:1002E0005D84000814020200043800203838002021
:1002F0000000000038070008FF010800FC3700205C
:100300003C380020000000005D01010802000C00E4
:10031000C837002044380020000000000000000022
:1003200008120900B03700205038002000000000FB
:10033000A1840008F7010600A63700205C380020E1
:10034000000000003A0700080A020A0014370020E3
:10035000643800200000000040070008030001008E
:10036000F836002070380020000000000000000077
:100370001F201C00C83B00205C490020000000003A
:100380004A07000805020400F046002078490020D2
:10039000000000006607000803010A004E44002028
:1003A0007C490020000000006A07000805100600D4
:1003B00084450020884900200000000074070008E0
:1003C0001302030094380020904900200000000030
:1003D0007A0700081A023C00106B00207C6E002097
:1003E00000000000618A000827000400BC6E0020A5
:1003F000B86E0020000000007E0700080C101401F9
:100400005C820020248A00200000000051A1010825
:100410000E502C01E6800020388B002000000000E8
:10042000590104080902010030890020648C002071
:100430000000000082070008010205006A80002019
:10044000688C0020000000008936030800020500C7
:100450005C860020708C002000000000000000007E
:100460001B02080044860020788C00200000000059
:1004700051840008012008001C880020808C002086
:10048000000000008407000819000500A88800206B
:10049000888C0020000000008C07000837001E0038
:1004A00080880020908C0020000000009207000847
:1004B0001E00050024840020B08C002000000000F5
:1004C000B00700081B00F400C86E0020B88C0020A4
:1004D000000000005146030826000E00BC8D0020DD
:1004E000AC8D002000000000892F0308040080006C
:1004F000ECBA002038C4002000000000000000001A
:100500000D002C0098BA0020B8C4002000000000A4
:10051000117604081300040080B10020E4C4002018
:1005200000000000B8070008F6210C0084B100208C
:10053000E8C4002000000000BC070008F53170008E
:10054000BCB00020F4C400200000000005C8000872
:100550000B201000ACB0002064C50020000000009B
:10056000C807000801010400A8B0002074C50020DD
:10057000000000000000000000010400A4B0002002
:1005800078C5002000000000D80700080201030021
:10059000A0B000207CC5002000000000D9A1010807
:1005A000FD011E0064B0002080C500200000000096
:1005B0007DB5020818202C0034B00020A0C5002012
:1005C00000000000E18C00080610180090A3002035
:1005D000CCC5002000000000BD010408FB010100A3
:1005E0008CA30020E4C5002000000000458D000819
:1005F000FC01090058A20020E8C50020000000000E
:10060000558D0008F901040050A20020F4C5002017
:1006100000000000018000080A4026000C8E002027
:10062000F8C5002000000000DC07000834001000BE
:10063000F09F002020C60020000000009101040867
:1006400011020800C89F002030C6002000000000F2
:100650000208000812120400C09F002038C60020C3
:10066000000000000A08000812200D00B09F0020C2
:100670003CC60020000000000E0800080202030033
:10068000548E00204CC60020000000000000000036
:100690000C020300408E002050C600200000000025
:1006A000C1840008FE010900708E002054C600209D
:1006B00000000000D18400081A000E0044EC002065
:1006C000E0EC0020000000001C08000816000800F4
:1006D000501D0120581D0120000000002A080008BC
:1006E000000000000000000000000000000000000A
:1006F00000000000000000000000000000000000FA
:1007000000000000000000000000000000000000E9
:1007100000000000010003000000000000050000D0
:100720000400F401190000000000000000000000B7
:10073000000000000000000000002E01000000008A
:1007400000004A01B400D6010000000000000001D2
:10075000000000050000010203000000000000008E
:1007600000000000000000000000040101006C1601
:100770000000000020000201000000000000200333
:1007800000002900E8036400040A000100002801B9
:10079000000020003200C800D0079600140032008C
:1007A0002800B00440060005500014000F000801A6
:1007B0000000010000000000080000300000000000
:1007C00001000000020200002B21231E6401010031
:1007D000000001000A012900900100000030010022
:1007E0000000000000005A000000000000000000AF
:1007F0000000020200019E077D00463290012000A9
:1008000000000000000001010101FFFFFFFF0000E8
:100810000001000005525246340000007E05EA0542
:10082000B4053200E803D0070000651B0D00190174
:02083000282876
:10083200010100005001000007000000020000005A
:10084200000000000000000001020304060708097E
:10085200D6010100000101010001FFFFFFFFFFFFC0
:1008620001000000FFFFFFFFFF000000000000008A
:10087200183800200800000000000000083800209E
:1008820008000000280A050805080400000000000E
:1008920048100508240B0508341005080000000064
:1008A20000000000540A050805080A0000000000C4
:1008B20048100508240B0508180F05080000000061
:1008C200000000000403090412010002EF020140CB
:1008D20083045632000201020301000012010002E9
:1008E200020200408304405700020102030100009B
:1008F2001A030000000000000000000000000000D9
:1009020000000000000000000000000004030904D1
:10091200120100020000004083042057000201027D
:100922000301000009022000010104C03209040091
:100932000002080650050705810240000007050174
:100942000240000009026400030100C032090400F1
:100952000001030000000921110100012226000705
:1009620005830308000A080B0102020201000904C0
:10097200010001020201000524001001052401000A
:10098200020424020205240601020705820308006C
:10099200FF09040200020A000000070501024000EC
:1009A200000705810240000009024300020100C065
:1009B20032090400000102020100052400100105B1
:1009C2002401000104240202052406000107058215
:1009D200030800FF09040100020A000000070501E4
:1009E200024000000705810240000000FF000000F5
:1009F20000FFFF0000000000AA55050100000100F1
:100A0200D5540208A954020835540208CD450208FB
:100A120051540208DD530208C94502081C03002094
:100A22004D810208974B020839820208000000003B
:100A320000000000658402087583020800000000BF
:100A42000000000000000000354702085546020879
:100A52004946020891480208AD48020801460208C8
:100A6200754802085948020805010905A101A100BB
:100A720005010930093109320933093509340940C0
:100A820009381581257F750895088102C0C00000CC
:100A920009022200010100E0320904000001030101
:100AA2000200092111010001222600070583030823
:100AB200000A000000000000010203040102030416
:100AC20006070809D9860208FD8502087D7C02080E
:100AD20009490208A14C02081949020835490208CD
:100AE200E3480208D54802080000000000000000A8
:100AF2002D202D2D202D2D2D2D202D2D2D2D0000A5
:100B0200000000000000000000000000000000AA39
:100B1200550B010000AA5507010000AA5509020061
:100B22000000000001000000C012AA5503009F004F
:100B3200FF1FFF1F3849002000000000140300209F
:100B420004000000000200051002700B0080020287
:100B52001F00000053544D202020202050726F644B
:100B6200757420202020202020202020302E30319B
:100B7200685E0C00010102FFFF000000000001009E
:100B8200E001010101000000593A030800000000E1
:100B9200CC040020306D05080000000000000000B9
:100BA2000000000000000000A06205080000000034
:100BB200000000008A05002004000000DC6C05082B
:100BC2000D000000E55C0308341F00200000000057
:100BD200746605080D0000000D5D0308281F002043
:100BE20000000000EC67050808000000000000009B
:100BF2001C1F002004000000E06605080D00000034
:100C02000D3B0308101F0020000000009C67050830
:100C12000300000011610308041F0020000000000F
:100C2200406D05080300000011610308F81E002052
:100C3200000000000C630508010000000000000035
:100C42000000000000000000000000000E00000094
:100C5200000000000000000000000000306D0508E8
:100C62000000000000000000000000000000000082
:100C7200A062050800000000000000008A050020B4
:100C820004000000886C0508030000006D52030890
:100C9200EC1E002008000000E06605080D000000C0
:100CA2000D3B0308101F0020000000009C67050890
:100CB2000300000011610308041F0020000000006F
:100CC200406D05080300000011610308F81E0020B2
:100CD200000000000C630508010000000000000095
:100CE2000000000000000000000000000E000000F4
:100CF200000000000000000000000000486D050830
:100D020000000000000000000000000000000000E1
:100D1200A062050800000000000000008A05002013
:100D220004000000906C0508030000001161030834
:100D3200401F0020000000000C63050801000000B5
:100D420000000000000000000000000000000000A1
:100D52000E00000000000000000000000000000083
:100D620020700020702D7200FFFFFFFF01000000C5
:100D72000000803F080000000000000000000000AA
:100D8200A81A0020FA000000010000000100000083
:100D92000000803F00000000000000000000000092
:100DA2000000000000000000000000000000000041
:100DB2000000000000000000FFFF2D202D2D202D3F
:100DC2002D2D2D202D2D2D000000000000000000F3
:100DD200000000000000000000000000BC620508E6
:100DE200C46205080463050800000000000000005A
:100DF200000000000000000043620508040000003B
:100E0200AF5A030800000000000000000C63050850
:100E120001000000000000000000000000000000CF
:100E2200000000000E0000000000000000000000B2
:100E320000000000028400200100C409000000003C
:100E4200008400200100C40900000000FE8300208D
:100E52000100C40900000000FC8300200100C40955
:100E620000000000F88300200100C4090000000017
:100E7200FA8300200100C40900000000F68300206C
:100E82000100C40900000000F48300200100C4092D
:100E9200000000007C8000200100C800010000006A
:100EA2007A80002032003075320000007880002005
:100EB200055A05007580002000FF010077800020A0
:100EC20001000000AC050020738000200200000039
:100ED200EC0E05087480002000FF010076800020DF
:100EE20001000000AC05002072800020020000001A
:100EF200EC0E05086880002080C1803E05000000DD
:100F02006680002080C1803E0500000064800020D1
:100F120080C1803E050000006280002080C1803ECA
:100F2200050000006180002000FF010060800020B9
:100F32000A3201005F80002004000000F80E05085C
:100F42005E800020020000000C0F05080000000077
:100F520000000000B40500209C4600209CFF2C01EC
:100F620000000000520300200A000000180F0508CC
:100F720054800020E0150C170000000054030020EC
:100F820008000000240B05085303002005000000A0
:100F9200481005085680002002000000300F0508A6
:100FA2008E8300200100FF7F010000008D8300205E
:100FB200020000003C0F05082082002003004000D0
:100FC200010000001E8200200000803E010000009F
:100FD2001C8200200000F401010000001A8200209F
:100FE2000000F40101000000188200200000F4015A
:100FF20001000000168200200000F4010100000040
:10100200148200200000803E0100000012820020B5
:101012000000803E010000003C820020E803D0076F
:101022000A0000003A820020006401000A00000069
:101032002F820020006401002E8200200064010043
:1010420036820020006401000A0000003582002080
:10105200006401000A0000003482002000640100E4
:101062000A00000039820020006401000A0000002A
:1010720038820020006401000A000000378200204C
:10108200006401000A0000003382002000FF01001A
:101092000A0000003282002000FF01000A00000066
:1010A2003182002000FF01000A000000E2800020DF
:1010B2000000F40101000000E08000200000F401C3
:1010C20001000000DE8000200000F40101000000A9
:1010D200DC8000200000F40101000000DA80002022
:1010E2000000F401010000002C82002000640100D5
:1010F2002A8200201400E803010000002882002058
:10110200E80330750A0000002682002000C80100B2
:101112002582002000C801002482002000C80100AE
:1011220023820020006401000A0000007383002073
:1011320001C8010072830020010A0100828300209D
:101142000000D007010000007C83002000C80100DD
:101152007B83002000C801007A83002000C80100C0
:10116200808300200000D007010000007983002066
:1011720000C801007883002000C8010077830020A6
:1011820000C801007E8300200000D007010000009B
:101192007683002000C801007583002000C801008A
:1011A2007483002000C80100718300200100000048
:1011B2004C0F050834630508000000000000000021
:1011C20000000000000000005C3405080900000077
:1011D20000000000580600200400000064340508E6
:1011E20009000000000000004C060020040000007E
:1011F200806A050809000000000000004006002087
:1012020004000000D02005080900000000000000D2
:1012120034060020040000004463050809000000B1
:101222000000000028060020040000004C630508AE
:1012320009000000000000001C060020040000005D
:101242005463050809000000000000001006002099
:10125200040000005C6305080900000000000000B3
:1012620004060020040000000C63050801000000D1
:10127200000000000000000000000000000000006C
:101282000E0000000000000000000000000000004E
:10129200606505080000000000000000000000007A
:1012A200000000008853050807000000000000004D
:1012B2007C060020000000007065050808000000A0
:1012C2000000000070060020000000007C65050898
:1012D200080000000000000064060020000000007A
:1012E2000C6305080100000000000000000000007F
:1012F20000000000000000000E00000000000000DE
:1013020000000000000000008465050800000000E5
:1013120000000000000000000000000094650508C5
:101322000D00000000000000B806002000000000D0
:101332009C6505080D00000000000000AC060020BE
:1013420000000000A465050807000000000000007E
:10135200A406002000000000AC6505080D00000096
:10136200000000009806002000000000B465050897
:101372000D000000000000008C06002000000000AC
:10138200BC6505080700000000000000840600207C
:10139200000000000C6305080100000000000000CE
:1013A2000000000000000000000000000E0000002D
:1013B200000000000000000000000000C4650508F5
:1013C200000000000000000000000000000000001B
:1013D200885305080C000000000000007E800020F9
:1013E20000000000D86505080C00000000000000A5
:1013F2008080002000000000E86505080C00000065
:1014020000000000B680002000000000F86505081A
:101412000C00000000000000AA8000200000000074
:101422000C6605080C00000000000000828000200D
:1014320000000000186605080C0000000000000013
:101442008480002000000000206605080C000000D7
:1014520000000000868000200000000034660508BD
:101462000C00000000000000888000200000000046
:101472003C6605080C000000000000008A80002085
:1014820000000000446605080C0000000000000097
:10149200C8800020000000005C6605080C00000007
:1014A200000000008C800020000000006866050833
:1014B2000C000000000000008E80002000000000F0
:1014C2006C3405080C000000000000009080002031
:1014D20000000000706605080C000000000000001B
:1014E20092800020000000007C6605080C000000CD
:1014F20000000000948000200000000088660508BB
:101502000C00000000000000968000200000000097
:10151200946605080C00000000000000988000207E
:1015220000000000A06605080C000000000000009A
:101532009A80002000000000AC6605080C00000044
:1015420000000000AE80002000000000B466050824
:101552000C00000000000000AC8000200000000031
:10156200BC6605080C00000000000000BA800020E4
:1015720000000000C86605080C0000000000000022
:10158200BC80002000000000D46605080C000000AA
:1015920000000000C2800020000000000064050876
:1015A2000C000000000000009C80002000000000F1
:1015B200E06605080C00000000000000A480002086
:1015C20000000000E86605080C00000000000000B2
:1015D2009E80002000000000F46605080C00000058
:1015E20000000000A0800020000000000067050845
:1015F2000C00000000000000A2800020000000009B
:10160200086705080C00000000000000A68000200A
:1016120000000000A85305080C00000000000000B4
:10162200B080002000000000146705080C000000D4
:1016320000000000A88000200000000020670508CC
:101642000C00000000000000B88000200000000034
:101652002C6705080C00000000000000B28000208A
:1016620000000000346705080C00000000000000C4
:10167200B4800020000000003C6705080C00000058
:1016820000000000BE800020000000004467050842
:101692000C00000000000000C080002000000000DC
:1016A2004C6705080C00000000000000D2800020FA
:1016B200000000000C6305080100000000000000AB
:1016C2000000000000000000000000000E0000000A
:1016D2000000000000000000000000005467050840
:1016E20000000000000000000000000000000000F8
:1016F200606705080D0000000000000010070020D0
:1017020000000000686705080D00000000000000EE
:1017120004070020000000007067050807000000B1
:1017220000000000FC060020000000007C670508A5
:101732000700000000000000F40600200000000086
:10174200886705080900000000000000E806002084
:101752000000000094670508090000000000000076
:10176200DC06002000000000A06705080900000058
:1017720000000000D006002000000000B06705084D
:101782000900000000000000C40600200000000064
:101792000C630508010000000000000000000000CA
:1017A20000000000000000000E0000000000000029
:1017B2000000000000000000C467050800000000EF
:1017C200000000000000000000000000D4670508CF
:1017D2000500000000000000D98000200000000089
:1017E2000C6305080100000000000000000000007A
:1017F20000000000000000000E00000000000000D9
:101802000000000000000000DC6705080000000086
:10181200000000000000000000000000A0620508B7
:101822000000000000000000C002002004000000D0
:10183200E86705080D000000115B0308640700203B
:1018420000000000DC6C05080D000000113A0308DE
:101852005807002000000000746605080D00000013
:10186200F53903084C07002000000000EC6705086A
:1018720008000000000000004007002004000000F3
:10188200E06605080D0000003D390308340700201A
:1018920000000000F46705080900000000000000D5
:1018A20028070020040000009C67050803000000D0
:1018B200116103081C070020000000000C630508EA
:1018C2000100000000000000000000000000000015
:1018D200000000000E0000000000000000000000F8
:1018E20000000000FC670508000000000000000086
:1018F20000000000000000000C6805080D00000058
:10190200000000007C0700200000000014680508A9
:101912000A00000000000000AB860020000000006A
:10192200206805080A00000000000000B3860020BD
:1019320000000000286805080A00000000000000FE
:10194200BB86002000000000306805080800000087
:101952000000000070070020000000000C63050872
:101962000100000000000000000000000000000074
:10197200000000000E000000000000000000000057
:1019820000000000386805080000000000000000A8
:1019920000000000000000004C680508080000007C
:1019A20000000000DC070020000000005868050865
:1019B2000800000000000000D00700200000000026
:1019C200646805080800000000000000C407002049
:1019D2000000000070680508080000000000000018
:1019E200B8070020000000007C680508080000001D
:1019F20000000000AC070020000000008868050815
:101A02000800000000000000A00700200000000005
:101A120094680508080000000000000094070020F8
:101A220000000000A0680508080000000000000097
:101A320088070020000000000C6305080100000078
:101A42000000000000000000000000000000000094
:101A52000E00000000000000000000000000000076
:101A6200AC680508000000000000000033050020FB
:101A720000000000B86805080B000000000000002C
:101A82007008002000000000C46805080B00000078
:101A9200000000006408002000000000D068050873
:101AA2000B000000000000005808002000000000A9
:101AB200DC6805080B000000000000004C08002054
:101AC20000000000E86805080B00000000000000AC
:101AD2004008002000000000F46805080B00000028
:101AE2000000000034080020000000000069050822
:101AF2000B00000000000000280800200000000089
:101B02000C6905080B000000000000001C08002002
:101B120000000000186905080B000000000000002A
:101B220010080020000000002469050807000000DA
:101B32000000000008080020000000002C690508D1
:101B42000700000000000000000800200000000064
:101B5200386905080B00000000000000F4070020AF
:101B620000000000446905080800000000000000B1
:101B7200E8070020000000000C63050801000000D7
:101B82000000000000000000000000000000000053
:101B92000E00000000000000000000000000000035
:101BA200506905080000000000000000000000006D
:101BB2000000000064690508080000000000000041
:101BC200AC08002000000000706905080800000051
:101BD20000000000A0080020000000007C69050849
:101BE200080000000000000094080020000000002F
:101BF200886905080800000000000000880800202D
:101C020000000000946905080800000000000000C0
:101C12007C080020000000000C63050801000000A1
:101C220000000000000000000000000000000000B2
:101C32000E00000000000000000000000000000094
:101C42009C6905080000000000000000300500202B
:101C520000000000AC6905080B0000000000000055
:101C6200F008002000000000B86905080700000025
:101C720000000000E808002000000000C469050818
:101C82000700000000000000E00800200000000043
:101C9200D06905080700000000000000D8080020F5
:101CA20000000000DC6905080800000000000000D8
:101CB200CC08002000000000E469050808000000CC
:101CC20000000000C008002000000000EC690508C8
:101CD2000700000000000000B8080020000000001B
:101CE2000C63050801000000000000000000000075
:101CF20000000000000000000E00000000000000D4
:101D02000000000000000000F86905080000000063
:101D1200000000003005002000000000046A0508F1
:101D22000D00000000000000780900200000000003
:101D3200106A05080700000000000000700900207A
:101D420000000000186A05080700000000000000FB
:101D52006809002000000000206A05080700000052
:101D6200000000006009002000000000286A050849
:101D720008000000000000005409002000000000DC
:101D82009820050807000000000000004C09002010
:101D920000000000A020050807000000000000006D
:101DA2004409002000000000A820050807000000E8
:101DB200000000003C09002000000000542105083A
:101DC20008000000000000003009002000000000B0
:101DD200306A050807000000000000002809002002
:101DE20000000000386A050807000000000000003B
:101DF2002009002000000000406A050807000000DA
:101E0200000000001809002000000000486A0508D0
:101E120008000000000000000C0900200000000083
:101E2200506A0508070000000000000004090020B5
:101E320000000000586A05080700000000000000CA
:101E4200FC080020000000000C63050801000000EF
:101E5200000000000000000000000000646A0508A5
:101E620002000000C15F0308010000000000000042
:101E7200000000000E000000000000000000000052
:101E82000000000000000000913D030884090020CA
:101E9200D78000202C000000540F0508D6800020B7
:101EA20000C80100D4800020E803D0070100000030
:101EB200574F524D4643000071800020000301003D
:101EC2007080002000030100D93C0308B13C0308E4
:101ED200600A00206D3C0308213C0308D80A002058
:101EE200193D0308013D03088C0B0020853B0308C4
:101EF200313B0308AC0E0020A73D0308355D030803
:101F0200880F00207D39030800000000D80F002050
:101F1200715E030861400308B41000207D3E03088F
:101F22003D3E030854110020193F0308653F030892
:101F3200301200202D82002001060100013E03081C
:101F4200CD3D030870130020BD3E0308655D030804
:101F520010140020953F0308C15D0308D814002027
:101F62002282002001030100706A050800000000BF
:101F72000000000000000000000000007C6A05086C
:101F8200080000000000000074160020000000009D
:101F9200846A050807000000000000006C1600209B
:101FA20000000000946A05080D0000000000000017
:101FB2006016002000000000A06A0508030000006F
:101FC2001161030854160020000000000C6305088C
:101FD20001000000000000000000000000000000FE
:101FE200000000000E0000000000000000000000E1
:101FF20000000000A86A05080000000000000000C0
:102002000000000000000000B86A05080A00000095
:1020120000000000C06A050800000000C86A050848
:102022000A000000000000001C610508000000001A
:10203200D06A05080A000000000000008483002026
:1020420000000000D86A05080A0000000000000035
:1020520080160020000000000C630508010000004B
:10206200000000000000000000000000000000006E
:102072000E00000000000000000000000000000050
:10208200E06A0508000000000000000000000000F7
:1020920000000000EC6A050803000000116103085B
:1020A200B016002000000000F86A050803000000D6
:1020B20011610308A416002000000000006B05084F
:1020C20003000000116103089816002000000000C0
:1020D200086B050805000000000000006F8000206A
:1020E20000000000106B050807000000000000005F
:1020F20090160020000000001C6B0508070000007D
:102102000000000088160020000000000C63050893
:1021120001000000000000000000000000000000BC
:10212200000000000E00000000000000000000009F
:1021320000000000286B05080000000000000000FD
:1021420000000000000000003C6B050803000000D6
:1021520011610308E016002000000000486B05082A
:102162000300000011610308580300200000000072
:10217200506B05080300000011610308D41600200B
:1021820000000000586B05080300000011610308FD
:10219200C816002000000000E066050803000000E9
:1021A20011610308BC160020000000000C63050842
:1021B200010000000000000000000000000000001C
:1021C200000000000E0000000000000000000000FF
:1021D20000000000646B0508000000000000000021
:1021E2000000000000000000746B050807000000FA
:1021F200395E03083017002000000000046705085C
:1022020003000000116103082417002000000000F1
:10221200806B0508030000001161030818170020F5
:1022220000000000886B050803000000116103082C
:102232000C17002000000000906B0508070000004A
:102242001D5E03080417002000000000102105088D
:102252000300000011610308F816002000000000CE
:102262009C6B05080300000011610308EC160020B6
:10227200000000000C6305080100000000000000DF
:102282000000000000000000000000000E0000003E
:10229200000000000000000000000000613D030893
:1022A200313D0308381700202D40030800000000CC
:1022B200C4170020FD3B0308D93B03085018002037
:1022C200000000000000000004190020054003087F
:1022D200555E0308A4190020A86B05080000000041
:1022E200000000000000000000000000BC390508EA
:1022F20003000000116103089C1A00200000000086
:10230200B46B05080300000011610308901A002055
:1023120000000000085305080300000011610308D3
:10232200841A002000000000C06B050803000000B2
:1023320011610308781A002000000000CC6B050828
:1023420003000000116103086C1A00200000000065
:10235200D46B050802000000C15F03080000000002
:1023620000000000646A050802000000C15F030863
:102372000100000000000000DC6B05080200000004
:10238200C15F03080200000000000000000000001E
:102392000E0000000000000000000000000000002D
:1023A2005A80002088136F17010000005C80002013
:1023B20088136F1700000000E86B0508000000009A
:1023C200000000000000000000000000F86B05089B
:1023D20008000000000000007C1B00200400000038
:1023E200046C05080800000000000000701B0020BB
:1023F200000000009C67050804000000395B030828
:1024020000000000000000000C630508010000004D
:1024120000000000000000000000000000000000BA
:102422000E0000000000000000000000000000009C
:102432005880002088136F1701000000DC4600203E
:1024420088136F1700000000C13A03080000000063
:10245200881B0020AA860020010000000810050841
:10246200DE4600200100000014100508D4460020BA
:10247200020000001C100508B2BB00200000000092
:1024820000000000B0BB00200000000000000000BF
:10249200AEBB00200000000000000000ACBB00202A
:1024A2000000000000000000AABB002000000000A5
:1024B20000000000A8BB0020000000000000000097
:1024C200F8020020000000000000000057800020F9
:1024D2000200000028100508406C050800000000FA
:1024E200000000000000000000000000F86B05087A
:1024F20008000000000000000C1C00200400000086
:10250200046C05080800000000000000001C002008
:10251200000000009C67050804000000913A0308CF
:1025220000000000000000000C630508010000002C
:102532000000000000000000000000000000000099
:102542000E0000000000000000000000000000007B
:10255200506C0508000000000000000000000000B0
:1025620000000000606C05080D000000895C030893
:102572003C1C0020040000006C6C05080D000000EB
:10258200E93A0308301C002004000000786C0508BA
:102592000D0000004D5C0308241C00200000000018
:1025A200846C0508030000008D520308181C0020EB
:1025B20008000000906C0508030000001161030888
:1025C200401F0020000000000C630508010000000D
:1025D20000000000000000000000000000000000F9
:1025E2000E000000000000000000000000000000DB
:1025F2000463050800000000000000000000000065
:10260200000000004362050804000000515B03085B
:1026120000000000000000000C630508010000003B
:1026220000000000000000000000000000000000A8
:102632000E0000000000000000000000000000008A
:10264200E46C05080000000000000000000000002B
:1026520000000000983805080D000000000000008E
:102662009C1C002004000000F46C05080800000017
:1026720000000000901C002004000000006D05080E
:102682000800000000000000841C0020040000007C
:10269200086D05080800000000000000781C0020FA
:1026A20004000000106D0508080000000000000092
:1026B2006C1C002004000000186D050808000000D2
:1026C20000000000601C002004000000206D0508CE
:1026D2000800000000000000541C0020040000005C
:1026E200286D05080800000000000000481C0020BA
:1026F200040000000C630508010000000000000057
:102702000000000000000000000000000E000000B9
:10271200000000000000000000000000A93A0308C9
:1027220000000000A81C00200000000000000000C3
:10273200201D00200000000000000000C01D00203D
:10274200DA4600200400000034100508D8460020B4
:10275200E0150C1700000000D7460020080000001A
:10276200240B0508D6460020050000004810050885
:102772000000000000000000101E00200800000001
:102782009545020893450208914502088B450208C7
:10279200894502088F4502088D45020801000000A4
:1027A20000600240106002400000000000000000D3
:1027B200000B00000000000000000000000000000C
:1027C200006002402860024001000000000000009A
:1027D200060C0000000000000000000000000000E5
:1027E2000060024040600240020000000000000061
:1027F200100D0000000000000000000000000000BA
:102802000060024058600240030000000000000027
:10281200160E000000000000000000000000000092
:1028220000600240706002400400000000000000EE
:10283200200F000000000000000000000000000067
:1028420000600240886002400500000000000000B5
:102852002610000000000000000000000000000040
:1028620000600240A060024006000000000000007C
:102872003011000000000000000000000000000015
:1028820000600240B8600240070000000000000043
:10289200362F0000000000000000000000000000D1
:1028A20000640240106402400000000000000000CA
:1028B20000380000000000000000000000000000DE
:1028C2000064024028640240010000000000000091
:1028D20006390000000000000000000000000000B7
:1028E2000064024040640240020000000000000058
:1028F200103A00000000000000000000000000008C
:10290200006402405864024003000000000000001E
:10291200163B000000000000000000000000000064
:1029220000640240706402400400000000000000E5
:10293200203C000000000000000000000000000039
:1029420000640240886402400500000000000000AC
:10295200264400000000000000000000000000000B
:1029620000640240A0640240060000000000000073
:1029720030450000000000000000000000000000E0
:1029820000640240B864024007000000000000003A
:1029920036460000000000000000000000000000B9
:1029A2001F852B3F0000803F000000000000000058
:1029B200000000000000803F000000000000000056
:1029C200000000000000803F000000000000000046
:1029D200000000000000803FE1850208D74B02089A
:1029E2007585020800000000814702086D7B02081D
:1029F200B9840208ED7A020800000000000000001D
:102A020041470208A54502089745020821480208E5
:102A12003D48020805480208E9470208CD47020876
:102A220099850208B54B0208BB8402080000000029
:102A320059470208EF7A02088D8402084F7A020889
:102A420000000000000000004D4702082022002084
:102A52000000000000000000000000000000000074
:102A62000000000000000000000000000000000064
:102A72000000000000000000000000000000000054
:102A82000000000000000000000000000000000044
:102A92000000000000000000000000000000000034
:102AA2000000000000000000000000000000000024
:042AB200010000001F
:1080000000231F213E22017042708370C3707047AD
:1080100003685A1C02601970704700BF2DE9F047D1
:10802000089C2578002B804689460CBF4FF0200A1B
:108030004FF0300A661C25B3002A26DD334601E0E6
:10804000024698B113F8011B501E0029F8D1971E63
:1080500060B13D46013D51464046C8476B1C002B70
:10806000F8DC257827EAE770013045B1041B294682
:108070004046C847301916F8015B002DF7D1BDE81E
:10808000F087002A03DC2846F9E70020EEE7571EB8
:10809000DFE700BF2DE9F04714461D4606464FF4C2
:1080A0007A7200232046294643F0D2FA4D4BDFF87E
:1080B00048814D4A4D4F034488FB03101844D9179B
:1080C00082FB032CC1EB601088FB002887FB032791
:1080D0009C44474AC1EBEC2CC0EB001E82FB0C29F0
:1080E000A3EB8E0E1F44434A86F806E0C1EB2747F8
:1080F0004FEAEC7E08EB000ACEEBA90E82FB07826A
:108100004FEAE0780EEB4E0EC8EB6A18ACEBCE0CE3
:10811000C8EB0818DFF8E4E086F804C0A0EB88009C
:1081200070718EFB0303F817C0EBE21240F2B550FA
:1081300000FB1272C1EBE353B2F5896F4FEA83077C
:108140003CDA40F2DA239A4242DCB2F5B77FB4BFA0
:108150004FF0000E4FF0010E4FEA4E09DFF8A080FD
:1081600009EB0E0308EBC3031FFA8EFCD88A09EB58
:108170000E0108EBC10116310B2301E031F8020DAD
:10818000904218DD013BF9D1CE44012338F83E007E
:10819000B37007F5FA670132121ABC44F270A6F800
:1081A00000C0204629464FF47A72002343F050FA6B
:1081B0003281BDE8F0870133DBB2E9E74FF0030C11
:1081C000E64640F29650DFF838804FF00609CEE7D9
:1081D0004FF0020CDFF82880E64640F229404FF0CD
:1081E0000409C4E780BC92C7C5B3A29107452EC25B
:1081F000ABAAAA2A73B06D1689888888792D0311D5
:1082000034E2040830B403888278C478154DA3F5AD
:10821000FA6303F0030101EB4101013A02EB810231
:108220009B0835F812500279611E40F2B55404FBE8
:1082300003132B4403EB430302EBC303427984791A
:1082400009490089C3EB031302EB83032144C3EB09
:10825000031301EB83034FF47A720021C2FB030185
:1082600030BC704734E2040880436D380028F0B415
:1082700003DA2D230B7040420131092804464FF0E8
:10828000010307DD03EB83035B00B0FBF3F2092A74
:10829000F8D883B10F48A0FB0326B4FBF3F2092AF8
:1082A00002F1570C02F1300709DD03FB1244F30819
:1082B00001F801CBEFD100230B70F0BC704703FB3A
:1082C0001244F30801F8017BE5D100230B70F0BCE8
:1082D000704700BFCDCCCCCC884270B44FF00104C5
:1082E00042D301FB04F4B0FBF4F58D42F9D2ECB1BA
:1082F00042BB092D04FB150005F1570605F13002BC
:108300000EDDB4FBF1F403F8016B7CB1B0FBF4F5C6
:10831000092D04FB150005F1570605F13002F0DCCC
:10832000B4FBF1F403F8012B002CEFD100221A70FA
:1083300070BC704703F8016BB4FBF1F4002CF5D06E
:10834000B0FBF4F5092D04FB150005F1370605F126
:108350003002EFDCB4FBF1F403F8012B002CEFD179
:1083600000221A7070BC70470546002AEAD1C0E7A7
:1083700090ED057A90ED004AD0ED066AD0ED014A05
:10838000D0ED047A90ED035AD0ED025AA4EE007AB3
:10839000B0EE406AB0EE470AB0EE667AA4EE867A96
:1083A00067EEC07AA5EE407AE5EE867A80ED057A32
:1083B000C0ED067A704700BFD0ED057A90ED013A26
:1083C000D0ED003AD0ED064A90ED024A90ED077AE2
:1083D00090ED035A90ED086AD0ED045AC0ED067A8C
:1083E000F0EE406A27EE830AC0ED056AA3EEA60A06
:1083F00080ED087AA4EE240AA5EE470AA5EEC60A87
:1084000080ED070A704700BFD0ED007A90ED017A49
:1084100030EE670AE7EE007AB0EE670AC0ED007A48
:10842000704700BF80ED010A704700BF07EE900A59
:10843000DFED056AB8EEE77AC6EE877A77EE807AE6
:1084400080EE270A704700BF83F9223E704700BFC5
:1084500006224FF47A73027043607047F0B400252F
:108460000E4E00F1FF3C2F46142165B103788B427C
:108470000BD003460CEB050403E013F8012F8A42EE
:1084800003D0A342F9D1C155013701350B2D02D0DC
:1084900016F8011FE9E7F0BC704700BF94E204083A
:1084A00030B41523162517242321242203702523F5
:1084B000457084708171C271037230BC704700BF17
:1084C000012130220323017042708370704700BF86
:1084D0000123312132224170427103720370037112
:1084E0007047044B93F85B30002B0CBF46204320B1
:1084F000704700BFBCB00020054B93F85B302BB930
:108500004FF4A4735843642390FBF3F0704700BF0B
:10851000BCB000200E4B1B78022B17D00D4A5378AD
:10852000127803EB83035B00C01A02EB8202C3EBF9
:108530004203C0EBC00090FBF3F00628A8BF062062
:1085400020EAE070C0F19600C0B2704797207047F3
:1085500091B10020ACB00020034B93F85B30002BAE
:108560000CBF0F200C207047BCB000200A4B1A68CB
:10857000642353434FF4805293FBF2F30360074BA1
:108580001A880A235343302293FBF2F303F58453F2
:108590001A330B60704700BFB0330020AC330020AB
:1085A0007047012806D003D3022806D00020704768
:1085B00026F0A8BF024B18687047014B58687047F7
:1085C000882200200022082302754375704700BFEF
:1085D0000022082302754375704700BF012380F80D
:1085E00057307047F0B4037C456902681F2B37D9B8
:1085F000203B2021546899400C4223D010249C40F9
:10860000D160D4605168D940CE074ED4EFF31183C6
:10861000502282F31288EA6B1168C90709D45468A2
:10862000002C52D1D5E909618E4243D1012285F84F
:108630006020DBB283F31188037C02681F2B19468C
:1086400014D9203B082150689940084200D0D160DD
:108650000421506801FA03F3184223D1F0BC70479B
:10866000202416689C4026420FD119460823106822
:108670008B40184200D093600423106803FA01F184
:108680000842EBD09160F0BC704710219940946093
:1086900091601168D940CC07B8D5012101FA03F3E4
:1086A0009360B3E7D360F0BC7047012101FA03F394
:1086B000D360ABE7AF690F44D7600ED82E69711A4B
:1086C0005160AC62002185F86010116841F0010131
:1086D000DBB2116083F31188AEE7711A5160AE62AC
:1086E000F0E700BF70B4037C01681F2B26D9A3F10B
:1086F000200520224C68AA40224214BF01220022F9
:10870000D2B142691B481C4C02EB420200EB421200
:10871000257854682068CDB9E56856892C6824F01E
:1087200001042C6082891F2B22EA060282811AD85A
:10873000202202FA03F38B6070BC704720220C6881
:108740009A40224214BF01220022D9E7A46922687C
:1087500022F001022260828922F480721204120C3B
:108760001F2B8281E4D9A3F1200220239340CB6008
:1087700070BC7047ACA300201410001070B59D4C65
:108780002368002B40F005819B4B1A78002A68D0A3
:108790009A4B19789A4B002964D11868B3F82C5178
:1087A00041628489012A44EA05048481A3F82C11DA
:1087B00057D0D3F83001B3F85C5241628489022A61
:1087C00044EA05048481A3F85C124AD0D3F860021D
:1087D000B3F88C5341628489032A44EA05048481F6
:1087E000A3F88C133DD0D3F89003B3F8BC54416286
:1087F0008489042A44EA05048481A3F8BC1430D097
:10880000D3F8C004B3F8EC5541628489052A44EAE0
:1088100005048481A3F8EC1523D0D3F8F005B3F850
:108820001C5741628489062A44EA05048481A3F81E
:108830001C1716D0D3F82007B3F84C58416284892E
:10884000072A44EA05048481A3F84C1809D0D3F818
:108850005028B3F87C495162908920439081A3F855
:108860007C1970BD5C68198961602568186845F0DD
:10887000010540F20D312560A0F848108489012AD5
:1088800044F480748481ECD0D3F83441B3F8385187
:10889000D3F830016560256845F001052560A0F832
:1088A00048108489022A44F480748481D9D0D3F892
:1088B0006442B3F86852D3F860026560256845F0F9
:1088C00001052560A0F848108489032A44F48074C7
:1088D0008481C6D0D3F89443B3F89853D3F8900367
:1088E0006560256845F001052560A0F84810848979
:1088F000042A44F480748481B3D0D3F8C444B3F818
:10890000C854D3F8C0046560256845F001052560AA
:10891000A0F848108489052A44F480748481A0D08A
:10892000D3F8F445B3F8F855D3F8F0056560256839
:1089300045F001052560A0F848108489062A44F412
:10894000807484818DD0D3F82447B3F82857D3F8A6
:1089500020076560256845F001052560A0F84810EE
:108960008489072A44F4807484813FF47AAFD3F871
:108970005428B3F85808D3F850385060106840F0C5
:1089800001001060A3F848109A8942F480729A811D
:1089900070BD054626F0B6FD217AA9B16DB1194A20
:1089A000002316890133002E18BF0021AB4202F1CB
:1089B0006002F6D100293FF4E7AE00F51C501030FC
:1089C000002320602372DFE62368C31A002BFFF622
:1089D00048AF637A3BB1013BDBB263722BB100F568
:1089E0007A702060D0E62360CEE66368034423609B
:1089F000CAE600BF30360020ACA6002014100010DC
:108A0000B0A60020ACA3002010B5027C01681F2A8C
:108A10004FF020030ED94C68203A93401C4208D0F6
:108A20000B4A406800241470026822F001020260C0
:108A3000CB6010BD0C6893401C42FAD0044A4068D9
:108A400000241470026822F0010202608B60F0E7DB
:108A500090730020014B186827F0A0B82C6E0020FE
:108A600038B51D4B1B78044600F1250593B104224F
:108A70001A49203045F0AEFB28461422184945F02B
:108A8000A9FB012384F83A30164B1B7873B984F89C
:108A90003B3038BD28461422134945F09BFB012387
:108AA00084F83A300F4B1B78002BF0D00F4B18682E
:108AB00059689A68DD68E56020606160A260DD69E0
:108AC000186959699A69A2610123E56120616161B0
:108AD00084F83B3038BD00BFF9E8002044B10020E5
:108AE0002CB10020F8E80020701F05084CB10020D0
:108AF00070B504462DED028BD0F83004B0EE408AFC
:108B00003EF0F0F8D4ED047AF0EE405A94ED050A08
:108B100037EEC00AF5EE405A30EE270AF1EE10FAB1
:108B200084ED040A84ED050A05D0F5EE407AF1EEF5
:108B300010FA40F0BC80664BF7EE007AB0EE676A40
:108B4000C3ED067A94ED017AD4ED037AD4ED026A8E
:108B5000E7EE067A04F23442104678EE404A77EEA9
:108B6000A66AB0EE677A87EE265AF7EE007A77EEBD
:108B7000C57AA4EE850A67EE877A84ED040AC4ED0F
:108B8000037AFFF741FC04F21C4191ED007AD4F81E
:108B90002C34256884ED040A04F22440D0ED007AD8
:108BA000A8EE087A04EB8306013378EE277AAB420D
:108BB00086ED068AC0ED007A81ED007AC4F82C3487
:108BC00024BF0023C4F82C3404EB8303D3ED066ADE
:108BD000404D04F5856393ED005A77EEE67AA6EEF4
:108BE000E67A04F58463C0ED007A67EE857A81ED5C
:108BF000007A67EEE76AC3ED007AF0EE667AE7EE98
:108C0000057A354995ED007A0878F5EEC07AF1EEEF
:108C100010FAD8BFF1EE677AF1EEE76A04F58363E4
:108C2000C3ED007A67EE267AC4ED027A70B1F5EEF4
:108C3000405AF1EE10FA0CD1D4F83034022B09BFAF
:108C4000002394ED040A94ED040A0B70BDEC028B32
:108C500070BD04F23C45D5ED007AF4EE657AF1EE94
:108C600010FAE9D0DFED1D7A26EE276A04F5886058
:108C7000FDEEC67A90ED000A17EE903AB3F5FA7F52
:108C8000A8BF4FF4FA730A2BB8BF0A2307EE903A35
:108C9000B8EEE76ABCEEC66A16EE103A98B2FFF775
:108CA000C5FB1046FFF7BEFBC5ED005AC4E785EED5
:108CB000A77A074BB7EE006A36EE476AB5EEC06A90
:108CC000F1EE10FAD8BFB1EE466A83ED066A39E7D5
:108CD0008822002070210020D4EC002000008C426B
:108CE00038B52C22002145F037FA0346642140F2C2
:108CF000DC5240F2022019745A821321202240F2E1
:108D00001A4540F26C74188399760E2002211A7766
:108D100001229D82DC8240F2753540F6430483F8DF
:108D20002200197283F82A109A7383F82920DD83B0
:108D30001C8419460248BDE838400FF04FB800BF08
:108D4000781F050810B500210446012025F04AFBD4
:108D5000207010BD38B500240472451EE1B2022017
:108D600025F040FB0134082C05F8010FF6D138BD81
:108D7000084B93F85B3007EE900A4BB9F8EEE77AB0
:108D80009FED057A9FED050AA7EE870A43F086B8A6
:108D9000704700BFBCB000206766E63F000000429D
:108DA000064B53F820302BB11A689B8851690B424F
:108DB00001D1138370475383704700BFD09C0020BC
:108DC00003682DE9F04F03F13F4404F57E04534E50
:108DD000A40A0125345D04F01F066409032C05FA7A
:108DE00006F500F09580042C00F08D80022C46D012
:108DF0008588B5FA85F0C0F11F0080B2C40803EB86
:108E0000840400F00700266A80000F27874026EAC6
:108E100007062662276A01F0030602FA00F0721EB6
:108E20003843012AC1F3810EC1F3001820624FEAD2
:108E300051114FF000024FF0010C25D94FF0030EF5
:108E40000CFA02F0A84315D150001F680EFA00F486
:108E5000E44327401F60D3F8008006FA00F747EA92
:108E600008071F60DF683C40DC60DC6801FA00F046
:108E70002043D8600132102AE2D1BDE8F08F284C9F
:108E8000666C35436564B3E74FF003090CFA02F7EB
:108E900037EA050033D15000D3F800A009FA00F4F6
:108EA000E4430AEA040AC3F800A0D3F800B006FAC3
:108EB00000FA4AEA0B0AC3F800A0D3F808A004EAB3
:108EC0000A0AC3F808A0D3F808B00EFA00FA4AEA72
:108ED0000B0AC3F808A0D3F804A02AEA07075F60CA
:108EE000D3F804A008FA02F747EA0A075F60DF68D0
:108EF0003C40DC60DC6801FA00F02043D8600132BD
:108F0000102AC3D1B9E7064C266B354325636FE7BA
:108F1000034C266C354325646AE700BF94100508AE
:108F20000038024010B50409013C032C17D80E4B41
:108F300033F8142000F00F0042FA00F313F001039D
:108F40000FD0012303FA00F00138104042F0D0FBAB
:108F5000064A074B125D104403EBC00010BD002011
:108F600010BD184610BD00BFC8110508D011050876
:108F7000C0A000202DE9F04F4A484B494B4B4C4CC8
:108F80004FF0010A4FF002094FF004084FF0080EAD
:108F90004FF0100C20274026802530F8022B12F0CD
:108FA000010F03D01960A3F804A0083312F0020FD8
:108FB00003D01960A3F80490083312F0040F03D013
:108FC0001960A3F80480083312F0080F03D0196069
:108FD000A3F804E0083312F0100F03D01960A3F8CF
:108FE00004C0083312F0200F02D019609F800833AC
:108FF00012F0400F02D019609E80083312F0800FEB
:1090000002D019609D80083312F4807F05D04FF4A0
:10901000807B1960A3F804B0083312F4007F05D0F8
:109020004FF4007B1960A3F804B0083312F4806F8A
:1090300005D04FF4806B1960A3F804B0083312F424
:10904000006F05D04FF4006B1960A3F804B008332B
:1090500012F4805F05D04FF4805B1960A3F804B070
:10906000083312F4005F05D04FF4005B1960A3F8D9
:1090700004B0083312F4804F05D04FF4804B1960D0
:10908000A3F804B00833D20B04D04FF400421960A7
:109090009A80083301F58061A1427FF47EAFBDE87C
:1090A000F08F00BFC811050800000240C0A00020DA
:1090B0000010024000B9704703682DE9F04F03F13A
:1090C0003F4404F57E04534EA40A0125345D04F0A8
:1090D0001F066409032C05FA06F500F09580042CA0
:1090E00000F08D80022C45D08588B5FA85F0C0F15E
:1090F0001F0080B2C40803EB840400F00700266A56
:1091000080000F27874026EA07062662276A01F0BB
:1091100003068240701E3A4301282262C1F3810E89
:10912000C1F300184FF000024FEA51114FF0010C4B
:1091300025D94FF0030E0CFA02F0A84315D15000C8
:109140001F680EFA00F4E44327401F60D3F8008044
:1091500006FA00F747EA08071F60DF683C40DC605A
:10916000DC6801FA00F02043D8600132102AE2D115
:10917000BDE8F08F284C666C35436564B4E74FF06A
:1091800003090CFA02F737EA050033D15000D3F88F
:1091900000A009FA00F4E4430AEA040AC3F800A0B4
:1091A000D3F800B006FA00FA4AEA0B0AC3F800A0A6
:1091B000D3F808A004EA0A0AC3F808A0D3F808B054
:1091C0000EFA00FA4AEA0B0AC3F808A0D3F804A082
:1091D0002AEA07075F60D3F804A008FA02F747EA13
:1091E0000A075F60DF683C40DC60DC6801FA00F081
:1091F0002043D8600132102AC3D1BDE8F08F064C5D
:10920000266B354325636FE7034C266C3543256495
:109210006AE700BF941005080038024000B97047A3
:10922000036803F13F4202F57E022DE9F04F920AF6
:10923000464DAA5C02F01F0552090124032A04FAD4
:1092400005F47ED0042A77D0022A30D001F003063C
:10925000721E012AC1F3810EC1F300188588C1F383
:1092600041114FF000024FF0010C25D94FF0030ED1
:109270000CFA02F0A84315D150001F680EFA00F452
:10928000E44327401F60D3F8008006FA00F747EA5E
:1092900008071F60DF683C40DC60DC6801FA00F012
:1092A0002043D8600132102AE2D1BDE8F08F284A6D
:1092B000556C2C435464C9E74FF003090CFA02F7CC
:1092C00037EA050033D15000D3F800A009FA00F4C2
:1092D000E4430AEA040AC3F800A0D3F800B006FA8F
:1092E00000FA4AEA0B0AC3F800A0D3F808A004EA7F
:1092F0000A0AC3F808A0D3F808B00EFA00FA4AEA3E
:109300000B0AC3F808A0D3F804A02AEA07075F6095
:10931000D3F804A008FA02F747EA0A075F60DF689B
:109320003C40DC60DC6801FA00F02043D860013288
:10933000102AC3D1BDE8F08F054A156B2C43146386
:1093400084E7034A156C2C4314647FE794100508E6
:109350000038024010B1036882885A83704700BF0A
:1093600010B1036882881A83704700BF18B1036880
:10937000828809B95A8370471A83704730B10368ED
:1093800082881B691A4214BF01200020704700BF69
:109390002DE9F0410B4E356873691D4010D0DFF8A0
:1093A00028800127B5FA85F4C4F11F0408EB840373
:1093B00007FA04F4D86903689847A5437461F1D1AA
:1093C000BDE8F081003C0140882200202DE9F041F9
:1093D0000B4E356873691D4010D0DFF828800127D7
:1093E000B5FA85F4C4F11F0408EB840307FA04F40A
:1093F000D86903689847A5437461F1D1BDE8F0814D
:10940000003C0140882200202DE9F0410B4E3568D8
:1094100073691D4010D0DFF828800127B5FA85F464
:10942000C4F11F0408EB840307FA04F4D869036845
:109430009847A5437461F1D1BDE8F081003C01403B
:10944000882200202DE9F0410B4E356873691D40DC
:1094500010D0DFF828800127B5FA85F4C4F11F0485
:1094600008EB840307FA04F4D86903689847A54316
:109470007461F1D1BDE8F081003C014088220020F8
:109480002DE9F0410B4E356873691D4010D0DFF8AF
:1094900028800127B5FA85F4C4F11F0408EB840382
:1094A00007FA04F4D86903689847A5437461F1D1B9
:1094B000BDE8F081003C0140882200202DE9F04108
:1094C0000B4E356873691D4010D0DFF828800127E6
:1094D000B5FA85F4C4F11F0408EB840307FA04F419
:1094E000D86903689847A5437461F1D1BDE8F0815C
:1094F000003C0140882200202DE9F0410B4E3568E8
:1095000073691D4010D0DFF828800127B5FA85F473
:10951000C4F11F0408EB840307FA04F4D869036854
:109520009847A5437461F1D1BDE8F081003C01404A
:1095300088220020094A10B5536C094C43F480433B
:10954000536404F11C004022002144F005FE4FF05A
:10955000FF33E365C4F85F3010BD00BF0038024040
:109560008822002010B58B680160044698470022CD
:10957000FF230121A2736373217310BD03681B6A6B
:10958000184700BF70B44E1C0568C2728672AC6981
:10959000A44670BC604700BF2DE9F0410446184660
:1095A0000D4616461F4641F067FB2844A07220680E
:1095B000E672294645693B4632462046AC46BDE840
:1095C000F041604770B50B4C054616460B46024607
:1095D00002212068FFF7E0FF2A46074B206814218C
:1095E000FFF7DAFF33462A4620681621BDE87040AF
:1095F000D2E700BFD437002063230508036810B505
:1096000004461B689847236820469B689847A37BBD
:109610000133A37310BD00BF10B5036804469B68F7
:109620009847FF2301226373227310BD0B4B9842AE
:1096300011D0A3F57443984202D04FF0FF30704729
:109640000222074B03EB02135A89013292B25A816C
:10965000588980B270470022F3E700BF0030014014
:10966000180F00102DE9F04105468068174698460E
:1096700010B1036882885A8341F08001686840F223
:10968000E93401E0002C43D00689013C16F0020FBA
:10969000A4B2F7D089B2818140F2E93101E000291A
:1096A00036D00389013913F0010F89B2F7D08389CD
:1096B000838900264FF47A714FF6FF724FF0FF0C4A
:1096C00003E0013989B291421FD003899C07F8D584
:1096D000A0F80CC04FF47A7102E0A1B2914214D00C
:1096E0000389DB0701F1FF34F7D583899BB20FB102
:1096F0003B70013701364645E7D1AB6813B11A68B4
:109700009B8813830120BDE8F081FFF78FFFF4E70A
:10971000FFF78CFF6868CBE77FB504AA002302F847
:10972000093DE72101230646FFF79CFF9DF807301E
:10973000144D154C13F0030320D0052302AAE82191
:109740003046FFF78FFF9DF80A209DF8091013049B
:1097500043EA01239DF8081012F0800F14BF4FF068
:109760007F4200220B4313432B609DF80C209DF891
:109770000B3043EA0223238004B070BD2B602380AA
:10978000FAE700BFB0330020AC330020836870B527
:109790000446164613B11A689B885383606840F2EA
:1097A000E93301E0002B30D00589013B15F0020FB1
:1097B0009BB2F7D089B2818140F2E93300E023B354
:1097C0000289013B12F0010F9BB2F8D0838940F26D
:1097D000E93300E0EBB10189013B11F0020F9BB2CC
:1097E000F8D0B6B2868140F2E93300E08BB102894D
:1097F000013B12F0010F9BB2F8D08389A36813B12B
:109800001A689B881383012070BDFFF70FFF606803
:10981000DDE7FFF70BFFF1E72DE9F04F87B090F898
:1098200068300090002B41F01B81009B93F85C3066
:10983000072B01F00A811823CDE90233009B1B7C22
:10984000022B01F0BA806423BE49BF4EDFF808E363
:10985000BE4CDFF80883BE4F01934FF01009DEF8CD
:109860000430C3F30803002B40F07284EFF311833C
:10987000002B40F06D840D68A2680B689D42FAD100
:109880003B689A42F7D8D6F800C04FF47A7000FBD4
:109890000CF39B1AB3FBFCF300FB05354FF47A7C09
:1098A0004FF0010ADEF80430C3F30803002B40F048
:1098B0000E84EFF31183002B40F009840B68A0683D
:1098C0000A689342FAD13A689042F7D832680CFBA2
:1098D00002FBABEB0000B0FBF2F00CFB03035B1BE5
:1098E000B3F57A7FDED3019B013B0193B7D1009B97
:1098F0001B7C022B01F019806423DFF85CE2934C9F
:10990000DFF85882924F01934FF01009DEF80430CF
:10991000C3F30803002B40F0F983EFF31183002B0E
:1099200040F0F4830D68A2680B689D42FAD13B6851
:109930009A42F7D8D6F800C04FF47A7000FB0CF3C7
:109940009B1AB3FBFCF300FB05354FF47A7C4FF018
:10995000010ADEF80430C3F30803002B40F09983BA
:10996000EFF31183002B40F094830B68A0680A6822
:109970009342FAD13A689042F7D832680CFB02FB66
:10998000ABEB0000B0FBF2F00CFB03035B1BB3F589
:109990007A7FDED3019B013B0193B7D1009B1B7CF7
:1099A000022B00F07A876423DFF8ACE1674CDFF824
:1099B000AC81674F01934FF01009DEF80430C3F318
:1099C0000803002B40F00784EFF31183002B40F0D5
:1099D00002840D68A2680B689D42FAD13B689A42E6
:1099E000F7D8D6F800C04FF47A7000FB0CF39B1A3E
:1099F000B3FBFCF300FB05354FF47A7C4FF0010A12
:109A0000DEF80430C3F30803002B40F02483EFF3A7
:109A10001183002B40F01F830B68A0680A689342F3
:109A2000FAD13A689042F7D832680CFB02FBABEBF4
:109A30000000B0FBF2F00CFB03035B1BB3F57A7F75
:109A4000DED3019B013B0193B7D1009B1B7C022B12
:109A500000F0DB860F23DFF800E13C4CDFF8FC80F0
:109A60003B4F01934FF01009DEF80430C3F30803B5
:109A7000002B40F08F83EFF31183002B40F08A839B
:109A80000D68A2680B689D42FAD13B689A42F7D8EC
:109A9000D6F800C04FF47A7000FB0CF39B1AB3FBAE
:109AA000FCF300FB05354FF47A7C4FF0010ADEF839
:109AB0000430C3F30803002B40F0AF82EFF31183AF
:109AC000002B40F0AA820B68A0680A689342FAD182
:109AD0003A689042F7D832680CFB02FBABEB00000F
:109AE000B0FBF2F00CFB03035B1BB3F57A7FDED314
:109AF000019B013B0193B7D1009ADFED167AD2F8B2
:109B00005F3007EE103AB4EEE77AF1EE10FA09DDB5
:109B100092F86630012B029B0CBF43F0010343F027
:109B200002030293009B1B7C022B00F025860F236F
:109B3000DFF824E0054CDFF82480054F01934FF057
:109B400010090DE0FC8E0020049D002010E000E0D4
:109B5000089D00200000FA4200ED00E0009D00207A
:109B6000DEF80430C3F30803002B40F07783EFF3F3
:109B70001183002B40F072830D68A2680B689D4230
:109B8000FAD13B689A42F7D8D6F800C04FF47A7001
:109B900000FB0CF39B1AB3FBFCF300FB05354FF401
:109BA0007A7C4FF0010ADEF80430C3F30803002B7F
:109BB00040F01582EFF31183002B40F010820B6808
:109BC000A0680A689342FAD13A689042F7D832689E
:109BD0000CFB02FBABEB0000B0FBF2F00CFB030351
:109BE0005B1BB3F57A7FDED3019B013B0193B7D1B9
:109BF000009B1B7C022B00F076850F23DFF81CE313
:109C0000C34CDFF81C83C34F01934FF01009DEF8FB
:109C10000430C3F30803002B40F0FF82EFF31183FD
:109C2000002B40F0FA820D68A2680B689D42FAD1C1
:109C30003B689A42F7D8D6F800C04FF47A7000FB20
:109C40000CF39B1AB3FBFCF300FB05354FF47A7C55
:109C50004FF0010ADEF80430C3F30803002B40F094
:109C6000A081EFF31183002B40F09B810B68A0686B
:109C70000A689342FAD13A689042F7D832680CFBEE
:109C800002FBABEB0000B0FBF2F00CFB03035B1B31
:109C9000B3F57A7FDED3019B013B0193B7D1009AE4
:109CA000DFED9D7AD2F85F3007EE103AB4EEE77A36
:109CB000F1EE10FA00F33B8492F86540012C00F0BD
:109CC000EE82A4F10204B4FA84F4640913461B7C06
:109CD000022B00F0EA820F23DFF840E28C4CDFF821
:109CE00040828C4F01934FF01009DEF80430C3F32B
:109CF0000803002B40F09783EFF31183002B40F013
:109D000092830D68A2680B689D42FAD13B689A4223
:109D1000F7D8D6F800C04FF47A7000FB0CF39B1A0A
:109D2000B3FBFCF300FB05354FF47A7C4FF0010ADE
:109D3000DEF80430C3F30803002B40F05683EFF342
:109D40001183002B40F051830B68A0680A6893428E
:109D5000FAD13A689042F7D832680CFB02FBABEBC1
:109D60000000B0FBF2F00CFB03035B1BB3F57A7F42
:109D7000DED3019B013B0193B7D1009B1B7C022BDF
:109D800000F067846423DFF894E1614CDFF8908190
:109D9000604F01934FF01009DEF80430C3F308035D
:109DA000002B40F08283EFF31183002B40F07D8382
:109DB0000D68A2680B689D42FAD13B689A42F7D8B9
:109DC000D6F800C04FF47A7000FB0CF39B1AB3FB7B
:109DD000FCF300FB05354FF47A7C4FF0010ADEF806
:109DE0000430C3F30803002B40F0E182EFF311834A
:109DF000002B40F0DC820B68A0680A689342FAD11D
:109E00003A689042F7D832680CFB02FBABEB0000DB
:109E1000B0FBF2F00CFB03035B1BB3F57A7FDED3E0
:109E2000019B013B0193B7D1009B1B7C022B00F0EF
:109E300082830F23DFF8E4E0354CDFF8E480354F10
:109E400001934FF01009DEF80430C3F30803002B30
:109E500040F04C83EFF31183002B40F047830D68F3
:109E6000A2680B689D42FAD13B689A42F7D8D6F8AF
:109E700000C04FF47A7000FB0CF39B1AB3FBFCF3A9
:109E800000FB05354FF47A7C4FF0010ADEF8043010
:109E9000C3F30803002B40F04E82EFF31183002B35
:109EA00040F049820B68A0680A689342FAD13A6888
:109EB0009042F7D832680CFB02FBABEB0000B0FB22
:109EC000F2F00CFB03035B1BB3F57A7FDED3019B3F
:109ED000013B0193B7D1009B1B7C022B00F07283E6
:109EE0000F23DFF838E00A4CDFF83480094F009385
:109EF0004FF01009DEF80430C3F30803002B40F0E4
:109F0000B382EFF31183002B40F0AE820AE000BF72
:109F100010E000E0089D00200000FA4200ED00E0A3
:109F2000009D00200D68A2680B689D42FAD13B6835
:109F30009A42F7D8D6F800C04FF47A7000FB0CF3C1
:109F40009B1AB3FBFCF300FB05354FF47A7C4FF012
:109F5000010ADEF80430C3F30803002B40F0098245
:109F6000EFF31183002B40F004820B68A0680A68AD
:109F70009342FAD13A689042F7D832680CFB02FB60
:109F8000ABEB0000B0FBF2F00CFB03035B1BB3F583
:109F90007A7FDED3009B013B0093ABD107B0BDE8D5
:109FA000F08FEFF3118089F31288D4F808B023689A
:109FB000DB0344BFC8F800A0D4F808B00B68D8F899
:109FC0000020C0B280F31188306813440CFB00F20B
:109FD000A2EB0B02B2FBF0F20CFB032357E6EFF30C
:109FE000118089F31288D4F808B02368DB0344BFDA
:109FF000C8F800A0D4F808B00B68D8F80020C0B2A8
:10A0000080F31188306813440CFB00F2A2EB0B02C2
:10A01000B2FBF0F20CFB0323E2E5EFF3118089F3CE
:10A020001288D4F808B02368DB0344BFC8F800A046
:10A03000D4F808B00B68D8F80020C0B280F31188BB
:10A04000306813440CFB00F2A2EB0B02B2FBF0F2FF
:10A050000CFB032348E5EFF3118089F31288D4F851
:10A0600008B02368DB0344BFC8F800A0D4F808B0E8
:10A070000B68D8F80020C0B280F311883068134410
:10A080000CFB00F2A2EB0B02B2FBF0F20CFB032381
:10A09000D3E4EFF3118089F31288D4F808B0236871
:10A0A000DB0344BFC8F800A0D4F808B00B68D8F8A8
:10A0B0000020C0B280F31188306813440CFB00F21A
:10A0C000A2EB0B02B2FBF0F20CFB03235EE4EFF316
:10A0D000118089F31288D4F808B02368DB0344BFE9
:10A0E000C8F800A0D4F808B00B68D8F80020C0B2B7
:10A0F00080F31188306813440CFB00F2A2EB0B02D2
:10A10000B2FBF0F20CFB0323FFF7E9BBEFF3118383
:10A1100089F31288D4F808C02268D20304D501223A
:10A12000C8F80020D4F808C00D68D8F800A0DBB249
:10A1300083F3118830684FF47A72554402FB00F3C0
:10A14000A3EB0C03B3FBF0F302FB0535FFF7FDBBFC
:10A15000EFF3118389F31288D4F808C02268D20380
:10A1600004D50122C8F80020D4F808C00D68D8F83A
:10A1700000A0DBB283F3118830684FF47A72554443
:10A1800002FB00F3A3EB0C03B3FBF0F302FB05357A
:10A19000FFF784BBEFF3118389F31288D4F808C06A
:10A1A0002268D20304D50122C8F80020D4F808C0E0
:10A1B0000D68D8F800A0DBB283F3118830684FF443
:10A1C0007A72554402FB00F3A3EB0C03B3FBF0F3EC
:10A1D00002FB053567E4EFF3118389F31288D4F8A5
:10A1E00008C02268D20304D50122C8F80020D4F8A0
:10A1F00008C00D68D8F800A0DBB283F3118830687E
:10A200004FF47A72554402FB00F3A3EB0C03B3FB4B
:10A21000F0F302FB0535FFF7EFBBEFF3118389F392
:10A220001288D4F808C02268D20304D50122C8F8E5
:10A230000020D4F808C00D68D8F800A0DBB283F382
:10A24000118830684FF47A72554402FB00F3A3EB97
:10A250000C03B3FBF0F302FB0535F7E4EFF31183D6
:10A2600089F31288D4F808C02268D20304D50122E9
:10A27000C8F80020D4F808C00D68D8F800A0DBB2F8
:10A2800083F3118830684FF47A72554402FB00F36F
:10A29000A3EB0C03B3FBF0F302FB05357FE413469D
:10A2A00007241B7C022B7FF416AD009B9B6913B126
:10A2B0001A689B885383009B586940F2E93302E097
:10A2C000002B00F0C0850289013B12F0020F9BB207
:10A2D000F6D01A23838140F2E93302E0002B00F02C
:10A2E000B2850289013B12F0010F9BB2F6D083893F
:10A2F00040F2E93302E0002B00F0A1850289013B26
:10A3000012F0020F9BB2F6D0848140F2E93302E0F2
:10A31000002B00F094850289013B12F0010F9BB2E3
:10A32000F6D08389009B9B69002B3FF4D4AC1A685C
:10A330009B881383CFE4EFF3118089F31288D4F85C
:10A3400008B02368DB0344BFC8F800A0D4F808B005
:10A350000B68D8F80020C0B280F31188306813442D
:10A360000CFB00F2A2EB0B02B2FBF0F20CFB03239E
:10A37000A9E5EFF3118089F31288D4F808B02368B7
:10A38000DB0344BFC8F800A0D4F808B00B68D8F8C5
:10A390000020C0B280F31188306813440CFB00F237
:10A3A000A2EB0B02B2FBF0F20CFB0323EEE5EFF3A2
:10A3B000118089F31288D4F808B02368DB0344BF06
:10A3C000C8F800A0D4F808B00B68D8F80020C0B2D4
:10A3D00080F31188306813440CFB00F2A2EB0B02EF
:10A3E000B2FBF0F20CFB032316E5EFF3118089F3C7
:10A3F0001288D4F808B02368DB0344BFC8F800A073
:10A40000D4F808B00B68D8F80020C0B280F31188E7
:10A41000306813440CFB00F2A2EB0B02B2FBF0F22B
:10A420000CFB0323A1E4EFF3118389F31288D4F822
:10A4300008C02268D20304D50122C8F80020D4F84D
:10A4400008C00D68D8F800A0DBB283F3118830682B
:10A450004FF47A72554402FB00F3A3EB0C03B3FBF9
:10A46000F0F302FB05355FE4EFF3118389F3128803
:10A47000D4F808C02268D20304D50122C8F800200D
:10A48000D4F808C00D68D8F800A0DBB283F31188B7
:10A4900030684FF47A72554402FB00F3A3EB0C03CF
:10A4A000B3FBF0F302FB05354FE5EFF3118389F3BE
:10A4B0001288D4F808C02268D20304D50122C8F853
:10A4C0000020D4F808C00D68D8F800A0DBB283F3F0
:10A4D000118830684FF47A72554402FB00F3A3EB05
:10A4E0000C03B3FBF0F302FB053574E4EFF31183C7
:10A4F00089F31288D4F808C02268D20304D5012257
:10A50000C8F80020D4F808C00D68D8F800A0DBB265
:10A5100083F3118830684FF47A72554402FB00F3DC
:10A52000A3EB0C03B3FBF0F302FB0535AAE4019C9B
:10A530001346FFF7CCBB009B9B6913B11A689B883D
:10A540005383009B586940F2E93302E0002B00F08E
:10A5500096840289013B12F0020F9BB2F6D037239A
:10A56000838140F2E93302E0002B00F08884028905
:10A57000013B12F0010F9BB2F6D0838940F2E93320
:10A5800002E0002B00F077840289013B12F0020FF9
:10A590009BB2F6D01023838140F2E93302E0002B16
:10A5A00000F069840289013B12F0010F9BB2F6D0E2
:10A5B0008389009B9B69002B3FF43BAC1A689B8806
:10A5C000138336E4009B9B6913B11A689B885383FD
:10A5D000009B586940F2E93302E0002B00F045840B
:10A5E0000289013B12F0020F9BB2F6D0382383811F
:10A5F00040F2E93302E0002B00F037840289013B8E
:10A6000012F0010F9BB2F6D0838940F2E93302E0E9
:10A61000002B00F026840289013B12F0020F9BB24E
:10A62000F6D00123838140F2E93302E0002B00F0F1
:10A6300018840289013B12F0010F9BB2F6D0838986
:10A64000009B9B69002B3FF44BAC1A689B881383DB
:10A6500046E4009A936992F8674013B11A689B88A0
:10A660005383009B586940F2E93302E0002B00F06D
:10A67000F3830289013B12F0020F9BB2F6D019233B
:10A68000838140F2E93302E0002B00F0E583028988
:10A69000013B12F0010F9BB2F6D0838940F2E933FF
:10A6A00002E0002B00F0D5830289013B12F0020F7B
:10A6B0009BB2F6D0A4B2848140F2E93302E0002BD1
:10A6C00000F0C7830289013B12F0010F9BB2F6D064
:10A6D0008389009B9B69002B3FF454AB1A689B88CD
:10A6E0001383FFF74FBB009B9B6913B11A689B88CC
:10A6F0005383009B586940F2E93302E0002B00F0DD
:10A7000099830289013B12F0020F9BB2F6D01C2301
:10A71000838140F2E93302E0002B00F08B83028951
:10A72000013B12F0010F9BB2F6D0838940F2E9336E
:10A7300002E0002B00F07B830289013B12F0020F44
:10A740009BB2F6D0BDF80C30838140F2E93302E0D1
:10A75000002B00F06C830289013B12F0010F9BB2C9
:10A76000F6D08389009B9B69002B3FF446AA1A68A8
:10A770009B881383FFF741BA009B9B6913B11A684A
:10A780009B885383009B586940F2E93302E0002B19
:10A7900000F048830289013B12F0020F9BB2F6D011
:10A7A0001B23838140F2E93302E0002B00F03A835F
:10A7B0000289013B12F0010F9BB2F6D0838940F26F
:10A7C000E93302E0002B00F02A830289013B12F0FA
:10A7D000020F9BB2F6D0BDF80830838140F2E93316
:10A7E00002E0002B00F01B830289013B12F0010FF5
:10A7F0009BB2F6D08389009B9B69002B3FF497A9FD
:10A800001A689B881383FFF792B9009B9B6913B169
:10A810001A689B885383009B586940F2E93302E031
:10A82000002B00F0F7820289013B12F0020F9BB26D
:10A83000F6D06B23838140F2E93302E0002B00F075
:10A84000E9820289013B12F0010F9BB2F6D08389A5
:10A8500040F2E93302E0002B00F0D9820289013B8B
:10A8600012F0020F9BB2F6D00123838140F2E9334C
:10A8700002E0002B00F0CB820289013B12F0010FB5
:10A880009BB2F6D08389009B9B69002B3FF4E2A822
:10A890001A689B881383FFF7DDB8009B9B6913B18F
:10A8A0001A689B885383009B586940F2E93302E0A1
:10A8B000002B00F0A7820289013B12F0020F9BB22D
:10A8C000F6D06B23838140F2E93302E0002B00F0E5
:10A8D00099820289013B12F0010F9BB2F6D0838965
:10A8E00040F2E93302E0002B00F089820289013B4B
:10A8F00012F0020F9BB2F6D00023838140F2E933BD
:10A9000002E0002B00F07B820289013B12F0010F74
:10A910009BB2F6D08389009B9B69002B3FF443A830
:10A920001A689B881383FFF73EB8009B9B6913B19D
:10A930001A689B885383009B586940F2E93302E010
:10A94000002B00F057820289013B12F0020F9BB2EC
:10A95000F6D06823838140F2E93302E0002B00F057
:10A9600049820289013B12F0010F9BB2F6D0838924
:10A9700040F2E93302E0002B00F039820289013B0A
:10A9800012F0020F9BB2F6D00723838140F2E93325
:10A9900002E0002B00F02B820289013B12F0010F34
:10A9A0009BB2F6D08389009B9B69002B3EF4A4AF39
:10A9B0001A689B881383FEF79FBF009B9B6913B1A6
:10A9C0001A689B885383009B586940F2E93302E080
:10A9D000002B00F007820289013B12F0020F9BB2AC
:10A9E000F6D06B23838140F2E93302E0002B00F0C4
:10A9F000F9810289013B12F0010F9BB2F6D08389E5
:10AA000040F2E93302E0002B00F0E9810289013BCA
:10AA100012F0020F9BB2F6D08023838140F2E9331B
:10AA200002E0002B00F0DB810289013B12F0010FF4
:10AA30009BB2F6D08389009B9B69002B3EF403AF49
:10AA40001A689B881383FEF7FEBE009B93F8643060
:10AA5000002B40F039811023CDE90233FEF7EEBE22
:10AA60001C09013C032C03F00F0300F233819C4AC4
:10AA700032F8140040FA03F2D70740F12B81012588
:10AA800005FA03F3013B184040F032FE954B964A1D
:10AA90001B5D184412EBC00400F01C812021002330
:10AAA000A171E37152F83030904903F13F4202F551
:10AAB0007E024FEA922A11F80A1001F01F0249099A
:10AAC000032905FA02F200F0E081042900F08281F6
:10AAD000022903D186494D6C2A434A64A288D607CD
:10AAE0000BD5196821F00301196019681960D9683C
:10AAF00021F00301D960D968D96095070BD5196891
:10AB000021F00C01196019681960D96821F00C0155
:10AB1000D960D968D96050070BD5196821F0300188
:10AB2000196019681960D96821F03001D960D968B5
:10AB3000D96011070BD5196821F0C0011960196897
:10AB40001960D96821F0C001D960D968D960D706E9
:10AB50000BD5196821F44071196019681960D9681A
:10AB600021F44071D960D968D96096060BD519686F
:10AB700021F44061196019681960D96821F44061B5
:10AB8000D960D968D96055060BD5196821F44051B0
:10AB9000196019681960D96821F44051D960D968E1
:10ABA000D96010060BD5196821F440411960196865
:10ABB0001960D96821F44041D960D968D960D105BC
:10ABC0000BD5196821F44031196019681960D968EA
:10ABD00021F44031D960D968D96097050BD519683F
:10ABE00021F44021196019681960D96821F44021C5
:10ABF000D960D968D96056050BD5196821F4401180
:10AC0000196019681960D96821F44011D960D968B0
:10AC1000D96015050BD5196821F440011960196830
:10AC20001960D96821F44001D960D968D960D0048D
:10AC30000BD5196821F04071196019681960D9683D
:10AC400021F04071D960D968D96091040BD5196899
:10AC500021F04061196019681960D96821F04061DC
:10AC6000D960D968D96057040BD5196821F04051D3
:10AC7000196019681960D96821F04051D960D96804
:10AC8000D96016040BD5196821F040411960196884
:10AC90001960D96821F04041D960D968D960B2FA09
:10ACA00082F3C3F11F030098124AC26001265D1CA3
:10ACB00006FA03F122D100293EF4B7AD0E4A13681B
:10ACC00019431160FEF7B1BD18231021CDE90231FF
:10ACD000FEF7B4BD009A074BD360FEF7A6BD00BFD8
:10ACE000C8110508D0110508C0A00020941005085F
:10ACF00000380240DD850008003C0140DAB202F075
:10AD0000FC0707F1804707F59C3702F00302D7F8EC
:10AD10000880DFF890E15F4D4FEA820C0F2202FAC3
:10AD20000CF228EA02020EEB830800F10C09C8F8C5
:10AD30001C90BA60D7F8088057485FFA8AF202FA86
:10AD40000CF242EA0802BA606961D5F800C0534FBC
:10AD5000CA430CEA020CC5F800C0D5F804C002EAE8
:10AD60000C0CC5F804C0D5F800C04CEA010CC5F8BD
:10AD700000C0D5F808C002EA0C0CC5F808C0D5F828
:10AD80000CC0034402EA0C02EA603A6893F86C5083
:10AD90000A43AE443A609EF85C30F02B8BD92844CD
:10ADA000F02190F87C308DF814300322002305A8A0
:10ADB0008EF85C108DF817608DF815208DF8163020
:10ADC0001DF0ACFDA188B1FA81F1C1F11F0106FAB5
:10ADD00001F170E732490D6B2A430A637EE6FEF704
:10ADE00025FC28E6FEF722FC009B586908E6FEF7E2
:10ADF0001DFCD8E5FEF71AFC009B5869B8E5FEF784
:10AE000015FC88E5FEF712FC009B586968E5FEF723
:10AE10000DFC38E5FEF70AFC009B586918E5FEF7C3
:10AE200005FCE8E4FEF702FC009B5869C7E4FEF766
:10AE3000FDFB97E4FEF7FAFB009B586976E4FEF70A
:10AE4000F5FBFFF76FBAFEF7F1FB009B5869FFF7C0
:10AE50004FBAFEF7EBFB3CE4FEF7E8FB009B5869BA
:10AE60001CE4FEF7E3FBFFF7EBBBFEF7DFFB009B09
:10AE70005869FFF7CABBFEF7D9FBFFF79ABBFEF78D
:10AE8000D5FB009B5869FFF779BB05490D6C2A4338
:10AE90000A6423E6003C014034E20408083C014017
:10AEA00000380240882200202DE9F04F83B0844B07
:10AEB000019042699A4200F0ED8003F580639A4266
:10AEC00000F0E880138823F040031B041B0C138060
:10AED000138823F038031B041B0C30210B43138011
:10AEE000138843F04003138024F00CFB044624F045
:10AEF00009FB8442FBD0019C2046FEF78DFCA36930
:10AF000013B11A689B885383019B586940F2E93357
:10AF100002E0002B00F0CB800289013B12F0020F0F
:10AF20009BB2F6D06A23838140F2E93302E0002B22
:10AF300000F0BD800289013B12F0010F9BB2F6D0F8
:10AF4000838940F2E93302E0002B00F0B5800289EA
:10AF5000013B12F0020F9BB2F6D01023838140F226
:10AF6000E93302E0002B00F0A7800289013B12F0D8
:10AF7000010F9BB2F6D08389019B9B6913B11A68BC
:10AF80009B88138364234F4CDFF84491DFF844819E
:10AF90004D4DDFF844A14D4E009324F0B3FA4FF429
:10AFA0007A774FF0100C4FF0010ED8F80430C3F34D
:10AFB0000803002B42D1EFF31183002B3ED123680D
:10AFC000A96822689342FAD132689142F7D8D9F839
:10AFD000002007FB02FBABEB0101B1FBF2F107FB29
:10AFE00003131B1AB3F57A7FDFD3009B013B009359
:10AFF000D3D1019B5A69324B9A423ED003F580630C
:10B000009A423AD0138823F040031B041B0C138090
:10B01000138823F038031B041B0C08210B431380F7
