:020000040800F2
:10000000F0FF001071430408952C0308B9AF0008F5
:100010000D4404080D4404080D44040800000000C9
:10002000000000000000000000000000A52C0308F4
:10003000A12C0308000000009D2C0308EDA9000876
:100040000D4404080D4404080D4404080D4404083C
:100050000D4404080D44040871B00008B1B1000853
:1000600071B1000831B10008F1B000083DF000089E
:100070002DF000081DF000080DF00008F9EF000851
:10008000E5EF0008D1EF00080D4404080D44040812
:100090000D4404080D4404080D440408B1B00008E0
:1000A0000D4404080D4404080D4404080D440408DC
:1000B0001D9F00080D4404085D9E000865090108A5
:1000C0006D090108550901085D0901080D4404087E
:1000D0000D4404080D4404080D4404080D440408AC
:1000E00031B000080D440408696F03080D4404088A
:1000F0000D4404080D4404080D440408BDEF000835
:100100000D4404080D4404080D4404080D4404087B
:100110000D4404080D440408B9BE0108A5BE010839
:10012000A9EF000895EF000881EF00086DEF0008C7
:1001300059EF00080D4404080D4404080D44040858
:100140000D4404080D4404080D4404080D3A030846
:1001500045EF000831EF00081DEF00082DAA000848
:10016000450901084D0901080D4404080D4404081F
:100170000D4404080D4404080D4404080D4404080B
:080180000D4404080D440408BD
:08018800183F04000100000013
:100190000202030048230020442300200000000046
:1001A0000000000010020100542300205023002012
:1001B00000000000400600081A023C00BA2100209E
:1001C0005823002000000000ED90000827000400E4
:1001D000982300209423002000000000420600081D
:1001E000F8210600F22700207432002000000000F1
:1001F0004606000803123300C4310020F731002006
:10020000000000004C060008250096007830002011
:100210000E310020000000000000000015007000FA
:10022000202F0020902F0020000000000000000080
:100230002A006000602E0020C02E00200000000078
:10024000097003082C001000A4310020B4310020F4
:1002500000000000952601082B0024004E320020EB
:100260002A320020000000006526010829107800CD
:100270000A280020003000200000000000000000DC
:1002800023001000682700207C32002000000000BE
:10029000790A010828101000042D00208C3200205B
:1002A000000000005D0A010814000300F42C002087
:1002B0005D2E0020000000008006000807020200FA
:1002C0007C340020C03400200000000084060008B8
:1002D00002000C0054340020C43400200000000050
:1002E0000000000006020C0046340020D03400203C
:1002F00000000000159000080A020A007C3300206C
:10030000DC34002000000000860600080300010025
:100310003C340020E8340020000000000000000011
:100320001010030058330020EC34002000000000BF
:100330009006000816000800103800201C38002025
:1003400000000000940600080E502C010647002013
:10035000C44E0020000000002D7203080C10140190
:100360007C480020F04F002000000000B1AA0108E6
:10037000000205006C4C0020045100200000000029
:10038000000000001B0208004C4C00200C51002013
:100390000000000049860008012008007C4D002074
:1003A00014510020000000009C0600081900050000
:1003B000084E00201C51002000000000A406000888
:1003C00037001E00E04D00202451002000000000F6
:1003D000AA0600081E0005002C4A002044510020F7
:1003E00000000000C80600081B00F40030380020A0
:1003F0004C51002000000000B1B602080E020200BD
:10040000144D00204052002000000000CE060008DD
:100410002F001100A94E00204452002000000000CF
:10042000D0060008051006007C670020686C0020DC
:1004300000000000E206000826000E00806C00208C
:10044000706C002000000000B11F03081F201C007A
:10045000FC5C0020B46C002000000000E8060008EE
:100460000502040018670020D06C00200000000086
:100470000407000803010A0064650020D46C002012
:10048000000000000807000813020300885B00203A
:10049000E06C002000000000120700081A000E00A7
:1004A0009C6F002038700020000000001607000834
:1004B00004008000F4C30020ACC400200000000051
:1004C000000000000D001400E0C300202CC5002037
:1004D000000000004D4602081300040028C300205D
:1004E00040C50020000000002407000812200D0075
:1004F000BCC2002044C500200000000028070008FE
:10050000F53170004CC2002054C5002000000000EE
:1005100029B002080B2010003CC20020C4C50020F6
:1005200000000000360700080101040038C2002066
:10053000D4C50020000000000000000000010400FD
:1005400034C20020D8C50020000000004607000883
:100550000201030030C20020DCC5002000000000C2
:1005600039AB0108F90104001CC20020E0C50020DD
:1005700000000000D9810008FD011E00FCC1002020
:10058000E4C50020000000008181000818202C0034
:10059000CCC1002004C60020000000009194000897
:1005A0000610180028B5002030C60020000000000A
:1005B00091720308FB01010024B5002048C6002009
:1005C00000000000C1A10008FC010900F0B30020F8
:1005D0004CC6002000000000D1A100080A402600FF
:1005E00048A0002058C60020000000004A0700086C
:1005F0003400100018B3002080C600200000000066
:100600006572030811020800F0B2002090C60020B5
:10061000000000007007000812120400E8B2002079
:1006200098C600200000000078070008FE010900BD
:1006300030A200209CC60020000000005586000863
:100640000000200300000200F40119000000000077
:10065000000000000000000000000000000000009A
:10066000000000000000000000000000000000008A
:100670000000000000000000000000000000010079
:1006800003000000033C00004A01B400D601000052
:1006900000050000651B0D0019012828E80364000F
:1006A000040A000100002801000020003200C800F8
:1006B000D0079600140032002800B0044006000560
:1006C000500014000F0008010000010000000000AD
:1006D000000000000000000000000000000000001A
:1006E00000002000030100000000000000010000E5
:1006F00000050000010203000000000000000000EF
:100700000000000000000000040101006C16000061
:100710000000000000007E05EA05B4053200E80391
:10072000D007000008000030000000010000054371
:100730004632300000002B21231E6400020000001E
:1007400001000A01290090010000003003000000B0
:10075000000000005A00000000000000000000003F
:10076000020200019E077D00463290012000000039
:0C0770000000000001010101FFFFFFFF7D
:10077C005001000007000000020000000000000013
:10078C00000000000102030406070809D60101005D
:10079C00000101010001FFFFFFFFFFFF010000004E
:1007AC0000000000B0340020080000000000000031
:1007BC00A034002008000000FF0000002C8F04086B
:1007CC000508040000000000349A0408F49A040898
:1007DC00209A04080000000000000000588F040854
:1007EC0005080A0000000000349A0408F49A040872
:1007FC00049904080000000000000000010102FF41
:10080C00FF000000751903081917030801320308CB
:10081C000000000015140308D12E0308E11803088A
:10082C00492E03080000000000000000D11303084B
:10083C00E5180308D916030841310308000000002D
:10084C00E91303084D2E0308B5180308A92D030856
:10085C000000000000000000DD130308000001018F
:10086C0001010000A5A90208000000006802002098
:10087C00ACF20408000000000000000000000000C2
:10088C00000000005CE8040800000000000000000C
:10089C00220300200400000050F204080D000000A8
:1008AC0075CF0208881C00200000000004EC04082E
:1008BC000D0000009DCF02087C1C002000000000F1
:1008CC006CED04080800000000000000701C002003
:1008DC000400000070EC04080D00000059AA020886
:1008EC00641C00200000000020ED04080300000040
:1008FC0065D20208581C002000000000BCF204085D
:10090C000300000065D202084C1C0020000000000F
:10091C00A4E8040801000000000000000000000032
:10092C0000000000000000000E00000000000000AD
:10093C000000000000000000ACF204080000000001
:10094C000000000000000000000000005CE804084B
:10095C000000000000000000220300200400000042
:10096C00FCF104080300000019B10208401C00202F
:10097C000800000070EC04080D00000059AA0208E1
:10098C00641C00200000000020ED0408030000009F
:10099C0065D20208581C002000000000BCF20408BC
:1009AC000300000065D202084C1C0020000000006F
:1009BC00A4E8040801000000000000000000000092
:1009CC0000000000000000000E000000000000000D
:1009DC000000000000000000C4F204080000000049
:1009EC000000000000000000000000005CE80408AB
:1009FC0000000000000000002203002004000000A2
:100A0C0004F204080300000065D20208941C0020C4
:100A1C0000000000A4E80408010000000000000031
:100A2C000000000000000000000000000E000000AC
:100A3C0000000000000000000000000020700020FA
:100A4C00702D7200FFFFFFFF010000000000803FCF
:100A5C000000000000000000FC170020FA0000005D
:100A6C0001000000010000000000803F00000000B9
:100A7C00000000000000000000000000000000006A
:100A8C00000000000000000000000000000000005A
:100A9C00FFFF2D202D2D202D2D2D2D202D2D2D002A
:100AAC00000000000000000000000000000000003A
:100ABC0000000000FFFFFFFF78E8040880E804084E
:100ACC009CE804080000000000000000000000008A
:100ADC00000000004EE60408040000003DCD0208B2
:100AEC000000000000000000A4E804080100000061
:100AFC0000000000000000000000000000000000EA
:100B0C000E000000000000000000000000000000CB
:100B1C0094C400200100C4090000000092C400200D
:100B2C000100C4090000000090C400200100C409A9
:100B3C00000000008EC400200100C4090000000069
:100B4C008AC400200100C409000000008CC40020ED
:100B5C000100C4090000000088C400200100C40981
:100B6C000000000086C400200100C4090000000041
:100B7C009C4600200100C800010000009A4600209D
:100B8C00320030753200000098460020055A0500EE
:100B9C009546002000FF0100974600200100000050
:100BAC00480300209346002002000000209B04080C
:100BBC009446002000FF0100964600200100000032
:100BCC00480300209246002002000000209B0408ED
:100BDC009046002080C1803E050000008E4600201B
:100BEC0080C1803E050000008C46002080C1803E04
:100BFC00050000008A46002080C1803E05000000F0
:100C0C008946002000FF0100884600200A320100BE
:100C1C008746002004000000E49804088646002063
:100C2C0002000000F898040800000000000000001A
:100C3C0050030020C46600209CFF2C010000000023
:100C4C00EF0000200A000000049904087C460020F4
:100C5C00E0150C1700000000F10000200800000057
:100C6C00F49A0408F000002005000000349A0408EF
:100C7C007E460020020000001C990408AE490020AA
:100C8C000100FF7F01000000AD49002002000000C0
:100C9C00289904084048002003004000010000008F
:100CAC003E4800200000803E010000003C4800202F
:100CBC000000F401010000003A4800200000F4019B
:100CCC0001000000384800200000F4010100000081
:100CDC00364800200000F4010100000034480020D8
:100CEC000000803E01000000324800200000803EE1
:100CFC00010000005C480020E803D0070A00000057
:100D0C005A480020006401000A0000004F480020EF
:100D1C00006401004E480020006401005648002089
:100D2C00006401000A000000554800200064010026
:100D3C000A00000054480020006401000A00000072
:100D4C0059480020006401000A00000058480020A7
:100D5C00006401000A0000005748002000640100F4
:100D6C000A0000005348002000FF01000A000000A8
:100D7C005248002000FF01000A00000051480020EA
:100D8C0000FF01000A000000024700200000F401EF
:100D9C0001000000004700200000F40101000000E9
:100DAC00FE4600200000F40101000000FC4600207B
:100DBC000000F40101000000FA4600200000F401DC
:100DCC00010000004C480020006401004A4800204B
:100DDC001400E8030100000048480020E8033075C7
:100DEC000A0000004648002000C8010045480020C9
:100DFC0000C801004448002000C8010043480020FE
:100E0C00006401000A0000009349002001C80100A1
:100E1C0092490020010A0100A24900200000D007DD
:100E2C00010000009C49002000C801009B490020E3
:100E3C0000C801009A49002000C80100A049002008
:100E4C000000D007010000009949002000C80100F3
:100E5C009849002000C801009749002000C80100F3
:100E6C009E4900200000D007010000009649002098
:100E7C0000C801009549002000C8010094490020D9
:100E8C0000C80100914900200100000038990408B5
:100E9C00CCE8040800000000000000000000000086
:100EAC000000000034B50408090000000000000038
:100EBC00F4030020040000003CB504080900000005
:100ECC0000000000E80300200400000020F00408EB
:100EDC000900000000000000DC03002004000000FA
:100EEC0048E704080900000000000000D0030020BF
:100EFC0004000000DCE80408090000000000000009
:100F0C00C403002004000000E4E804080900000009
:100F1C0000000000B803002004000000ECE8040806
:100F2C000900000000000000AC03002004000000D9
:100F3C00F4E804080900000000000000A0030020F1
:100F4C0004000000A4E804080100000000000000F8
:100F5C000000000000000000000000000E00000077
:100F6C00000000000000000000000000F8EA040887
:100F7C000000000000000000000000000000000065
:100F8C00ACD3040807000000000000001804002087
:100F9C000000000008EB040808000000000000003E
:100FAC000C0400200000000014EB040808000000F2
:100FBC00000000000004002000000000A4E8040869
:100FCC000100000000000000000000000000000014
:100FDC00000000000E0000000000000000000000F7
:100FEC00000000001CEB04080000000000000000E2
:100FFC0000000000000000002CEB04080D000000B5
:10100C0000000000540400200000000034EB040831
:10101C000D0000000000000048040020000000004B
:10102C003CEB040807000000000000004004002016
:10103C000000000044EB04080D000000000000005C
:10104C0034040020000000004CEB04080D000000EC
:10105C0000000000280400200000000054EB0408ED
:10106C000700000000000000200400200000000029
:10107C00A4E80408010000000000000000000000CB
:10108C0000000000000000000E0000000000000046
:10109C0000000000000000005CEB040800000000F1
:1010AC00000000000000000000000000ACD30408A9
:1010BC000C000000000000009E4600200000000014
:1010CC0070EB04080C00000000000000A04600209B
:1010DC000000000080EB04080C0000000000000081
:1010EC00D64600200000000090EB04080C00000025
:1010FC0000000000CA46002000000000A4EB040819
:10110C000C00000000000000A246002000000000BF
:10111C002CE304080C00000000000000A446002092
:10112C0000000000B0EB04080C0000000000000000
:10113C00A646002000000000C4EB04080C000000D0
:10114C0000000000A846002000000000CCEB0408C2
:10115C000C00000000000000AA4600200000000067
:10116C00D4EB04080C00000000000000E84600204E
:10117C0000000000ECEB04080C0000000000000074
:10118C00AC46002000000000F8EB04080C00000046
:10119C0000000000AE4600200000000044B504082A
:1011AC000C00000000000000B04600200000000011
:1011BC0000EC04080C00000000000000B246002007
:1011CC00000000000CEC04080C0000000000000003
:1011DC00B44600200000000018EC04080C000000CD
:1011EC0000000000B64600200000000024EC0408BB
:1011FC000C00000000000000B846002000000000B9
:10120C0030EC04080C00000000000000BA4600207E
:10121C00000000003CEC04080C0000000000000082
:10122C00CE4600200000000044EC04080C00000036
:10123C0000000000CC460020000000004CEC04082C
:10124C000C00000000000000DA4600200000000046
:10125C0058EC04080C00000000000000DC460020E4
:10126C000000000064EC04080C000000000000000A
:10127C00E24600200000000098E904080C00000081
:10128C0000000000BC4600200000000070EC0408C8
:10129C000C00000000000000C4460020000000000C
:1012AC0078EC04080C00000000000000BE46002092
:1012BC000000000084EC04080C000000000000009A
:1012CC00C04600200000000090EC04080C00000058
:1012DC0000000000C24600200000000098EC04084A
:1012EC000C00000000000000C646002000000000BA
:1012FC00CCD304080C00000000000000D0460020F5
:10130C0000000000A4EC04080C0000000000000029
:10131C00C846002000000000E7E704080C000000AD
:10132C0000000000D846002000000000B0EC0408CB
:10133C000C00000000000000D2460020000000005D
:10134C00B8EC04080C00000000000000D44600209B
:10135C0000000000C0EC04080C00000000000000BD
:10136C00DE46002000000000C8EC04080C00000061
:10137C0000000000E046002000000000D0EC040853
:10138C000C00000000000000F246002000000000ED
:10139C00A4E80408010000000000000000000000A8
:1013AC0000000000000000000E0000000000000023
:1013BC000000000000000000D8EC04080000000051
:1013CC00000000000000000000000000E4EC040835
:1013DC000D00000000000000AC0400200000000024
:1013EC00ECEC04080D00000000000000A00400203C
:1013FC0000000000F4EC04080700000000000000EE
:10140C00980400200000000000ED04080700000014
:10141C000000000090040020000000000CED040807
:10142C0009000000000000008404002000000000FF
:10143C0018ED0408090000000000000078040020EA
:10144C000000000024ED040809000000000000006A
:10145C006C0400200000000034ED040809000000BA
:10146C00000000006004002000000000A4E8040854
:10147C00010000000000000000000000000000005F
:10148C00000000000E000000000000000000000042
:10149C000000000048ED04080000000000000000FF
:1014AC00000000000000000058ED040805000000DA
:1014BC0000000000F946002000000000A4E8040829
:1014CC00010000000000000000000000000000000F
:1014DC00000000000E0000000000000000000000F2
:1014EC000000000060ED0408000000000000000097
:1014FC0000000000000000005CE804080000000090
:10150C0000000000101E00200400000044E7040846
:10151C000D000000A1CD0208000500200000000015
:10152C0050F204080D0000005DA90208F40400202C
:10153C000000000004EC04080D00000041A90208A2
:10154C00E8040020000000006CED04080800000016
:10155C0000000000DC0400200400000070EC040813
:10156C000D00000089A80208D00400200000000033
:10157C0074ED04080900000000000000C404002001
:10158C000400000020ED04080300000065D20208EE
:10159C00B804002000000000A4E8040801000000CA
:1015AC00000000000000000000000000000000002F
:1015BC000E00000000000000000000000000000011
:1015CC007CED04080000000000000000000000009A
:1015DC00000000008CED04080D000000000000006D
:1015EC00180500200000000094ED04080A0000001B
:1015FC0000000000DA49002000000000A0ED040803
:10160C000A00000000000000E24900200000000079
:10161C00A8ED04080A00000000000000EA490020C0
:10162C0000000000B0ED04080800000000000000FD
:10163C000C05002000000000A4E8040801000000D4
:10164C00000000000000000000000000000000008E
:10165C000E00000000000000000000000000000070
:10166C00B8ED0408000000000000000000000000BD
:10167C0000000000CCED0408080000000000000091
:10168C007805002000000000D8ED040808000000D8
:10169C00000000006C05002000000000E4ED0408D0
:1016AC0008000000000000006005002000000000A1
:1016BC00F0ED0408080000000000000054050020B4
:1016CC0000000000FCED0408080000000000000011
:1016DC00480500200000000008EE04080800000087
:1016EC00000000003C0500200000000014EE04087F
:1016FC000800000000000000300500200000000081
:10170C0020EE040808000000000000002405002062
:10171C0000000000A4E80408010000000000000024
:10172C000000000000000000000000000E0000009F
:10173C000000000000000000000000002CEE040877
:10174C000000000000000000CF020020000000009C
:10175C0038EE04080B000000000000000C0600200E
:10176C000000000044EE04080B0000000000000024
:10177C00000600200000000050EE04080B000000E2
:10178C0000000000F4050020000000005CEE0408DE
:10179C000B00000000000000E80500200000000025
:1017AC0068EE04080B00000000000000DC050020BF
:1017BC000000000074EE04080B00000000000000A4
:1017CC00D00500200000000080EE04080B00000093
:1017DC0000000000C4050020000000008CEE04088E
:1017EC000B00000000000000B80500200000000005
:1017FC0098EE04080B00000000000000AC0500206F
:10180C0000000000A4EE0408070000000000000027
:10181C00A405002000000000ACEE04080700000046
:10182C00000000009C05002000000000B8EE040839
:10183C000B000000000000009005002000000000DC
:10184C00C4EE04080800000000000000840500201D
:10185C0000000000A4E804080100000000000000E3
:10186C000000000000000000000000000E0000005E
:10187C00000000000000000000000000D0EE040892
:10188C00000000000000000000000000000000004C
:10189C00E4EE0408080000000000000048060020E8
:1018AC0000000000F0EE040808000000000000003A
:1018BC003C06002000000000FCEE040808000000BC
:1018CC0000000000300600200000000008EF0408B3
:1018DC0008000000000000002406002000000000AA
:1018EC0014EF040808000000000000001806002097
:1018FC0000000000A4E80408010000000000000043
:10190C000000000000000000000000000E000000BD
:10191C000000000000000000000000001CEF0408A4
:10192C000000000000000000CC02002000000000BD
:10193C002CEF04080B000000000000008C060020B7
:10194C000000000038EF0408070000000000000051
:10195C00840600200000000044EF0408070000008B
:10196C00000000007C0600200000000050EF04087E
:10197C0007000000000000007406002000000000BA
:10198C005CEF04080800000000000000680600205E
:10199C000000000064EF04080800000000000000D4
:1019AC005C060020000000006CEF0408070000003B
:1019BC00000000005406002000000000A4E8040809
:1019CC00010000000000000000000000000000000A
:1019DC00000000000E0000000000000000000000ED
:1019EC000000000078EF0408000000000000000078
:1019FC00CC0200200000000084EF04080D00000061
:101A0C0000000000140700200000000090EF040804
:101A1C0007000000000000000C0700200000000080
:101A2C0098EF0408070000000000000004070020E5
:101A3C0000000000A0EF04080700000000000000F8
:101A4C00FC06002000000000A8EF040808000000BD
:101A5C0000000000F006002000000000B0EF0408B9
:101A6C000700000000000000E80600200000000055
:101A7C00B8EF04080700000000000000E00600209A
:101A8C0000000000C0EF0408070000000000000088
:101A9C00D806002000000000C8EF04080800000071
:101AAC0000000000CC06002000000000D0EF04086D
:101ABC000700000000000000C40600200000000029
:101ACC00D8EF04080700000000000000BC0600204E
:101ADC0000000000E0EF0408070000000000000018
:101AEC00B406002000000000E8EF04080800000025
:101AFC0000000000A806002000000000F0EF040821
:101B0C000700000000000000A006002000000000FC
:101B1C00F8EF040807000000000000009806002001
:101B2C0000000000A4E80408010000000000000010
:101B3C00000000000000000004F004080200000097
:101B4C0015D1020801000000000000000000000098
:101B5C000E0000000000000000000000000000006B
:101B6C00000000009DAC020820070020F746002072
:101B7C002C00000040990408F646002000C8010023
:101B8C00F4460020E803D007010000004352415AFC
:101B9C0059464C4945320000E5AB0208BDAB020882
:101BAC00FC07002079AB02082DAB0208740800205A
:101BBC0025AC02080DAC020828090020D1AA0208A5
:101BCC007DAA0208480C0020B3AC0208C5CF02085D
:101BDC00240D0020C9A8020800000000740D00208C
:101BEC005DB1020879AF0208500E002089AD0208E1
:101BFC0049AD0208F00E00202DAE020875AE0208A9
:101C0C00CC0F00204D480020010601000DAD02084C
:101C1C00D9AC02080C110020C9AD0208F5CF02089E
:101C2C00AC110020A1AE020855D00208741200209D
:101C3C00424800200103010010F0040800000000DD
:101C4C000000000000000000000000001CF0040870
:101C5C00080000000000000010140020000000002C
:101C6C0024F0040807000000000000000814002005
:101C7C000000000034F004080D000000000000001B
:101C8C00FC1300200000000040F0040803000000DA
:101C9C0065D20208F013002000000000A4E804083C
:101CAC000100000000000000000000000000000027
:101CBC00000000000E00000000000000000000000A
:101CCC000000000048F004080000000000000000C4
:101CDC00000000000000000058F004080A0000009A
:101CEC000000000060F004080000000068F0040828
:101CFC000A0000000000000099A804080000000081
:101D0C0070F004080A00000000000000A449002044
:101D1C000000000078F004080A0000000000000039
:101D2C001C14002000000000A4E8040801000000BE
:101D3C000000000000000000000000000000000097
:101D4C000E00000000000000000000000000000079
:101D5C0080F00408000000000000000000000000FB
:101D6C00000000008CF004080300000065D202089B
:101D7C00401400200000000098F00408030000004C
:101D8C0065D202083414002000000000A0F0040802
:101D9C000300000065D20208281400200000000097
:101DAC00A4E804080100000000000000000000008E
:101DBC0000000000000000000E0000000000000009
:101DCC000000000000000000A8F004080000000063
:101DDC00000000000000000000000000BCE304084C
:101DEC000300000065D202087014002000000000FF
:101DFC00BCF004080300000065D20208F4000020C7
:101E0C0000000000C4F004080300000065D20208C2
:101E1C006414002000000000CCF004080300000053
:101E2C0065D20208581400200000000070EC040871
:101E3C000300000065D202084C14002000000000D2
:101E4C00A4E80408010000000000000000000000ED
:101E5C0000000000000000000E0000000000000068
:101E6C000000000000000000D8F004080000000092
:101E7C00000000000000000000000000E8F0040872
:101E8C0007000000CDD00208C014002000000000A4
:101E9C0094EC04080300000065D20208B41400207E
:101EAC0000000000F4F004080300000065D20208F2
:101EBC00A814002000000000FCF00408030000003F
:101ECC0065D202089C1400200000000004F10408F4
:101EDC0007000000B1D0020894140020000000009C
:101EEC00F8F404080300000065D2020888140020EE
:101EFC000000000010F104080300000065D2020885
:101F0C007C14002000000000A4E80408010000007C
:101F1C0000000000000000000000000000000000B5
:101F2C000E00000000000000000000000000000097
:101F3C006DAC02083DAC0208C814002045AF020885
:101F4C00000000005415002029AB020825AB020844
:101F5C00E0150020000000000000000058160020D2
:101F6C0015AF0208F1D00208F81600201CF1040885
:101F7C000000000000000000000000000000000055
:101F8C0030B904080300000065D20208F0170020E5
:101F9C000000000028F104080300000065D20208CC
:101FAC00E417002000000000C4D404080300000063
:101FBC0065D20208D81700200000000034F1040894
:101FCC000300000065D20208CC17002000000000BE
:101FDC0040F104080300000065D20208C01700207D
:101FEC000000000048F104080200000015D10208AE
:101FFC00000000000000000004F0040802000000D3
:10200C0015D10208010000000000000050F1040886
:10201C000200000015D102080200000000000000C0
:10202C00000000000E000000000000000000000096
:10203C00000000008246002088136F17010000008A
:10204C008446002088136F17000000005CF1040820
:10205C000000000000000000000000000000000074
:10206C006CF104080800000000000000D0180020EB
:10207C000400000078F104080800000000000000D3
:10208C00C41800200000000020ED0408040000002B
:10209C00C9CD02080000000000000000A4E80408FC
:1020AC000100000000000000000000000000000023
:1020BC00000000000E000000000000000000000006
:1020CC00000000008046002088136F1701000000FC
:1020DC000467002088136F17000000000DAA020887
:1020EC0000000000DC1800209D4C002001000000C6
:1020FC00F49904080667002001000000009A040807
:10210C00FC66002002000000089A04084E5D0020C6
:10211C0000000000000000004C5D002000000000EA
:10212C00000000004A5D00200000000000000000DC
:10213C00485D00200000000000000000465D00200B
:10214C000000000000000000445D002000000000C2
:10215C0000000000481E00200000000000000000ED
:10216C007F46002002000000149A0408B4F1040811
:10217C000000000000000000000000000000000053
:10218C006CF1040808000000000000006019002039
:10219C000400000078F104080800000000000000B2
:1021AC00541900200000000020ED04080400000079
:1021BC00DDA902080000000000000000A4E80408EB
:1021CC000100000000000000000000000000000002
:1021DC00000000000E0000000000000000000000E5
:1021EC0000000000C4F10408000000000000000022
:1021FC000000000000000000D4F104080D000000F5
:10220C0019CF02089019002004000000E0F1040826
:10221C000D00000035AA02088419002004000000FB
:10222C00ECF104080D000000DDCE02087819002046
:10223C0000000000F8F104080300000039B10208A6
:10224C006C1900200800000004F2040803000000D0
:10225C0065D20208941C002000000000A4E80408C9
:10226C000100000000000000000000000000000061
:10227C00000000000E000000000000000000000044
:10228C00000000009CE804080000000000000000B2
:10229C0000000000000000004EE6040804000000EE
:1022AC00E1CD02080000000000000000A4E80408D2
:1022BC000100000000000000000000000000000011
:1022CC00000000000E0000000000000000000000F4
:1022DC000000000058F2040800000000000000009C
:1022EC00000000000000000068F204080D0000006F
:1022FC0000000000F01900200400000070F2040837
:10230C000800000000000000E41900200400000098
:10231C007CF204080800000000000000D81900201E
:10232C000400000084F20408080000000000000013
:10233C00CC190020040000008CF2040808000000F6
:10234C0000000000C01900200400000094F20408F2
:10235C000800000000000000B41900200400000078
:10236C009CF204080800000000000000A8190020DE
:10237C0004000000A4F204080800000000000000A3
:10238C009C19002004000000A4E8040801000000CF
:10239C000000000000000000000000000000000031
:1023AC000E00000000000000000000000000000013
:1023BC00F5A9020800000000FC1900200000000034
:1023CC0000000000741A0020000000000000000053
:1023DC00141B00200267002004000000209A04084F
:1023EC0000670020E0150C1700000000FF660020BD
:1023FC0008000000F49A0408FE66002005000000A6
:10240C00349A04080000000000000000641B002047
:10241C000403090412010002EF0201408304563246
:10242C00000201020301000012010002020200403E
:10243C0083044057000201020301000009026400FA
:10244C00030100C03209040000010300000009214F
:10245C00110100012226000705830308000A080B5E
:10246C00010202020100090401000102020100053F
:10247C002400100105240100020424020205240694
:10248C000102070582030800FF09040200020A008A
:10249C000000070501024000000705810240000012
:1024AC0009024300020100C03209040000010202CB
:1024BC00010005240010010524010001042402027E
:1024CC000524060001070582030800FF090401002A
:1024DC00020A000000070501024000000705810206
:1024EC0040000000FF00000000FFFF0000000000A3
:1024FC00AA5505010000010005010905A101A10073
:10250C00050109300931093209330935093409400B
:10251C0009381581257F750895088102C0C0000017
:10252C0009022200010100E032090400000103014C
:10253C00020009211101000122260007058303086E
:10254C00000A000000000000010203040102030461
:10255C0006070809E12F0308E52E030825320308B6
:10256C005114030895170308611403087D1403081C
:10257C0029140308191403080000000000000000CF
:10258C002D202D2D202D2D2D2D202D2D2D2D0000F0
:10259C00000000000000000000000000000000AA85
:1025AC00550B010000AA5507010000AA55090200AD
:1025BC000000000001000000C012AA5503009F009B
:1025CC00FF1FFF1F01000000906C002000000000A6
:1025DC00681E002004000000000200051002700BB1
:1025EC001F852B3F0000803F000000000000000012
:1025FC00000000000000803F000000000000000010
:10260C00000000000000803F0000000000000000FF
:10261C00000000000000803F35130308992C0308CC
:10262C003113030825130308211303082D13030882
:10263C0029130308A91303089D1303087513030832
:10264C0089130308611303084D1303083913030896
:10265C000100000000600240106002400000000019
:10266C0000000000000B0000000000000000000053
:10267C0000000000006002402860024001000000E1
:10268C0000000000060C000000000000000000002C
:10269C0000000000006002404060024002000000A8
:1026AC0000000000100D0000000000000000000001
:1026BC00000000000060024058600240030000006F
:1026CC0000000000160E00000000000000000000DA
:1026DC000000000000600240706002400400000036
:1026EC0000000000200F00000000000000000000AF
:1026FC0000000000006002408860024005000000FD
:10270C000000000026100000000000000000000087
:10271C000000000000600240A060024006000000C3
:10272C00000000003011000000000000000000005C
:10273C000000000000600240B8600240070000008A
:10274C0000000000362F0000000000000000000018
:10275C000000000000640240106402400000000011
:10276C000000000000380000000000000000000025
:10277C0000000000006402402864024001000000D8
:10278C0000000000063900000000000000000000FE
:10279C00000000000064024040640240020000009F
:1027AC0000000000103A00000000000000000000D3
:1027BC000000000000640240586402400300000066
:1027CC0000000000163B00000000000000000000AC
:1027DC00000000000064024070640240040000002D
:1027EC0000000000203C0000000000000000000081
:1027FC0000000000006402408864024005000000F4
:10280C000000000026440000000000000000000052
:10281C000000000000640240A064024006000000BA
:10282C000000000030450000000000000000000027
:10283C000000000000640240B86402400700000081
:10284C000000000036460000000000000000000000
:10285C0000000000E8200020000000000000000044
:10286C00000000000000000000000000000000005C
:10287C00000000000000000000000000000000004C
:10288C00000000000000000000000000000000003C
:10289C00000000000000000000000000000000002C
:1028AC00000000000000000000000000000000001C
:0C28BC000000000000000000010000000F
:10800000D0ED007A90ED017A30EE670AE7EE007A63
:10801000B0EE670AC0ED007A704700BF704700BF3E
:1080200070B50C4C23689BB15A68821A002A0FDB8A
:108030000546002603E05A68AA1A002A08DB996858
:108040001E731A682160184690472368002BF2D1EE
:1080500070BD00BF50210020436A8269D154436A39
:108060000169C26B01338B4228BF00234362DAB13E
:10807000EFF31183502282F31288C26B1168C90793
:108080000ED470B45468FCB9D0E909518D4211D1B5
:10809000012280F86020DBB283F3118870BC704746
:1080A000DBB283F311887047C26DD36843F080035D
:1080B000D360704786690E44D6600ED9691A516044
:1080C0008562002180F86010116841F00101DBB287
:1080D000116083F3118870BC70470569691A51609B
:1080E0008462EEE7034610B4846BD968406954B1EA
:1080F0001A6D8C1A013A005D5DF8044B08BF0A4600
:10810000C0B21A6570471A6A805C01328A4228BF81
:108110002246C0B21A625DF8044B7047C36B13B1BC
:1081200090F860007047D0E90903181AB0FA80F09F
:1081300040097047D0E909120369914238BFC91854
:108140008A1AC16B013B19B149680A449A4201D2AB
:10815000981A704700207047836B43B1026D5B68CB
:108160009A4291BF981AC0689B1AC0187047D0E90C
:1081700007239A422FBFD01AC0688018C01A7047D0
:108180003723C3733623437100234376704700BF00
:1081900003682DE9F0415D6A1DB12B46BDE8F04151
:1081A0001847002A174611DD04460E460F4400E02A
:1081B00023689B68204698470028F9D0236816F862
:1081C000011B1B6820469847BE42F1D1BDE8F081F3
:1081D00003681B69184700BF10B4302142243322C2
:1081E0000023047041708270C3705DF8044B7047C7
:1081F00003685A1C02601970704700BF2DE9F047F0
:10820000089C2578002B804689460CBF4FF0200A39
:108210004FF0300A661C25B3002A26DD334601E004
:10822000024698B113F8011B501E0029F8D1971E81
:1082300060B13D46013D51464046C8476B1C002B8E
:10824000F8DC257827EAE770013045B1041B2946A0
:108250004046C847301916F8015B002DF7D1BDE83C
:10826000F087002A03DC2846F9E70020EEE7571ED6
:10827000DFE700BF0A44914215D030B40139551EE2
:1082800041F2210211F8014F082380EA042004047E
:108290004CBF82EA40004000013B80B2F7D18D42E2
:1082A000F0D130BC704770472DE9F04714461D46A9
:1082B00006464FF47A720023204629463BF08CFE96
:1082C0004D4BDFF848814D4A4D4F034488FB031066
:1082D0001844D91782FB032CC1EB601088FB0028DF
:1082E00087FB03279C44474AC1EBEC2CC0EB001EE4
:1082F00082FB0C29A3EB8E0E1F44434A86F806E04E
:10830000C1EB27474FEAEC7E08EB000ACEEBA90E43
:1083100082FB07824FEAE0780EEB4E0EC8EB6A183C
:10832000ACEBCE0CC8EB0818DFF8E4E086F804C02C
:10833000A0EB880070718EFB0303F817C0EBE2120C
:1083400040F2B55000FB1272C1EBE353B2F5896FF6
:108350004FEA83073CDA40F2DA239A4242DCB2F574
:10836000B77FB4BF4FF0000E4FF0010E4FEA4E0939
:10837000DFF8A08009EB0E0308EBC3031FFA8EFCA5
:10838000D88A09EB0E0108EBC10116310B2301E07D
:1083900031F8020D904218DD013BF9D1CE440123A2
:1083A00038F83E00B37007F5FA670132121ABC4480
:1083B000F270A6F800C0204629464FF47A720023D6
:1083C0003BF00AFE3281BDE8F0870133DBB2E9E71A
:1083D0004FF0030CE64640F29650DFF838804FF03D
:1083E0000609CEE74FF0020CDFF82880E64640F29F
:1083F00029404FF00409C4E780BC92C7C5B3A291DD
:1084000007452EC2ABAAAA2A73B06D168988888840
:10841000792D0311BC6B040830B403888278C478CA
:10842000154DA3F5FA6303F0030101EB4101013A95
:1084300002EB81029B0835F812500279611E40F26E
:10844000B55404FB03132B4403EB430302EBC303B8
:108450004279847909490089C3EB031302EB830352
:108460002144C3EB031301EB83034FF47A72002121
:10847000C2FB030130BC7047BC6B040880436D38FD
:108480000028F0B403DA2D230B7040420131092893
:1084900004464FF0010307DD03EB83035B00B0FBF1
:1084A000F3F2092AF8D883B10F48A0FB0326B4FBE6
:1084B000F3F2092A02F1570C02F1300709DD03FB40
:1084C0001244F30801F801CBEFD100230B70F0BC8C
:1084D000704703FB1244F30801F8017BE5D1002348
:1084E0000B70F0BC704700BFCDCCCCCC884270B4D0
:1084F0004FF0010442D301FB04F4B0FBF4F58D42CC
:10850000F9D2ECB142BB092D04FB150005F1570669
:1085100005F130020EDDB4FBF1F403F8016B7CB120
:10852000B0FBF4F5092D04FB150005F1570605F124
:108530003002F0DCB4FBF1F403F8012B002CEFD196
:1085400000221A7070BC704703F8016BB4FBF1F4A1
:10855000002CF5D0B0FBF4F5092D04FB150005F156
:10856000370605F13002EFDCB4FBF1F403F8012B20
:10857000002CEFD100221A7070BC70470546002A0B
:10858000EAD1C0E790ED057A90ED004AD0ED066A99
:10859000D0ED014AD0ED047A90ED035AD0ED025AA5
:1085A000A4EE007AB0EE406AB0EE470AB0EE667A0A
:1085B000A4EE867A67EEC07AA5EE407AE5EE867A7A
:1085C00080ED057AC0ED067A704700BFD0ED057AE0
:1085D00090ED013AD0ED003AD0ED064A90ED024A16
:1085E00090ED077A90ED035A90ED086AD0ED045AA9
:1085F000C0ED067AF0EE406A27EE830AC0ED056A08
:10860000A3EEA60A80ED087AA4EE240AA5EE470A96
:10861000A5EEC60A80ED070A704700BF80ED010A8B
:10862000704700BF07EE900ADFED056AB8EEE77A03
:10863000C6EE877A77EE807A80EE270A704700BF11
:1086400083F9223E704700BF06224FF47A7302700E
:108650004360704701230372704700BF03788B4269
:1086600083BF034B03EB810188880020704700BF64
:1086700050210020044B93F83C0018B1002283F8ED
:108680003C200120704700BF5021002030B4754BC2
:1086900093F83D2093F83E10013283F83D200629DF
:1086A0000CD8DFE801F00D161E2A4461040093F88F
:1086B0004120824260D0002283F83E2030BC7047C7
:1086C000A0F1BC00B0FA80F0400983F83E0030BC55
:1086D0007047CF280CBF0222002283F83E2030BC16
:1086E0007047C0B2032283F8400083F8410083F84A
:1086F000440083F83E2030BC70472028DBD893F834
:10870000402093F84110C4B222440028D2B2114450
:1087100014BF04250525002083F8454083F8402038
:1087200083F8411083F83E5083F86600C6E793F85B
:10873000662093F8401093F841409D18C0B2014460
:10874000013285F8460093F84500C9B2D2B20C4414
:10875000904283F8662083F8401083F84140ADD101
:10876000052283F83E20A9E793F840208242A2D157
:10877000062283F83E20A1E793F84420002A9AD1EC
:1087800093F846100909032909D0072993D193F8D2
:108790004710032948D0012283F83C208BE7D3F807
:1087A0004710DFED317AD3F84B20D3F84F00B3F800
:1087B000534005EE101AF2EE046AF0EE675AE5EE49
:1087C000265A4FF47A7101FB04F105EE102ABAEE35
:1087D000047AF0EE656AF0EE675AE5EE075A234A2E
:1087E000B7EE046AB0EE657A05EE900AFCEEE66A32
:1087F000E5EE867AA2FB0121C90B16EE902ABCEEAB
:10880000C77A94B2FCEEE77A17EE102A90B217EE10
:10881000902A01F57A7192B20125C3E90114C3E9E6
:10882000030283F83C5046E793F84840B3F84F10F2
:10883000B3F84950B3F84B00596014F00F04B3F883
:108840004D101961C3E90250A5D00948111D03EB71
:1088500041010132B1F8491040F8041FD1B28C42F5
:10886000F4D898E7502100200080BB4401800080AC
:10887000602100204378007840EA032010FB01F0DB
:108880004FF4807190FBF1F000F30F0000B27047DD
:10889000012380F857307047002208230275437582
:1088A000704700BFF0B4037C456902681F2B37D9BD
:1088B000203B2021546899400C4223D010249C4036
:1088C000D160D4605168D940CE074ED4EFF3118304
:1088D000502282F31288EA6B1168C90709D45468E0
:1088E000002C52D1D5E909618E4243D1012285F88D
:1088F0006020DBB283F31188037C02681F2B1946CA
:1089000014D9203B082150689940084200D0D1601A
:108910000421506801FA03F3184223D1F0BC7047D8
:10892000202416689C4026420FD11946082310685F
:108930008B40184200D093600423106803FA01F1C1
:108940000842EBD09160F0BC7047102199409460D0
:1089500091601168D940CC07B8D5012101FA03F321
:108960009360B3E7D360F0BC7047012101FA03F3D1
:10897000D360ABE7AF690F44D7600ED82E69711A88
:108980005160AC62002185F86010116841F001016E
:10899000DBB2116083F31188AEE7711A5160AE62E9
:1089A000F0E700BF70B4037C01681F2B26D9A3F148
:1089B000200520224C68AA40224214BF0122002236
:1089C000D2B142691B481C4C02EB420200EB42123E
:1089D000257854682068CDB9E56856892C6824F05C
:1089E00001042C6082891F2B22EA060282811AD898
:1089F000202202FA03F38B6070BC704720220C68BF
:108A00009A40224214BF01220022D9E7A4692268B9
:108A100022F001022260828922F480721204120C78
:108A20001F2B8281E4D9A3F1200220239340CB6045
:108A300070BC704744B50020540C001010B5027C87
:108A400001681F2A4FF020030ED94C68203A93404A
:108A50001C4208D00B4A406800241470026822F0BF
:108A600001020260CB6010BD0C6893401C42FAD03A
:108A7000044A406800241470026822F00102026077
:108A80008B60F0E7BA3900202DE9F041C4002318CB
:108A90009B00BA49CA585268958AADB2EFB2FE0738
:108AA0000B4465D4BE073AD5BFF35F8F1D7EEDB290
:108AB000012D00F0C480B24E138BBFF35F8F2318DB
:108AC00001EB83031D7E022D00F0D980231801EBFA
:108AD00083031D7E032D06D19B7E23B196F868305B
:108AE000002B40F02681938896F967C043F4806399
:108AF0009380231801EB83031B7E013363450CD164
:108B000096F86930002586F86850002B40F0908078
:108B1000204401EB800000234375BDE8F081984EAE
:108B200017F0040F96F967C051D117F0400700F015
:108B3000BB80178A1D6AFFB205F80C705FFA8CF5CE
:108B40006F1C93F818E07BB2DF1CBE4586F86730D7
:108B50009C4600F01781271801EB87073F7EBB4238
:108B6000C7D105F1020C4FFA8CFC86F867C0C0E74C
:108B70001588834E25F400652D042D0C158015886D
:108B800045F4806515809D7E002786F86770002D6E
:108B900040D096F86850002D39D0231801EB83039C
:108BA00001251B7E86F86850022B03D1138843F4FD
:108BB00000631380231801EB83039B7D43F00103C3
:108BC0001382204401EB8000037EBDE8F0819F7E8C
:108BD00096F868504FF0010E86F869E0002F60D0DB
:108BE000002D7DD1231801EB83035B7E002B00F069
:108BF000A98013880CF1010C4FFA8CFC43F400732C
:108C000086F867C013801388DF05FCD471E7DB7D2D
:108C1000FF2BC2D0231801EB83039D7D05F0FE05D9
:108C20001582DB7DFF2BCCD0FF2386F86730C8E7A9
:108C3000938823F440731B041B0C938068E79B7E8E
:108C40004F4E002B3FF438AF96F86830002B3FF4BE
:108C500033AF138823F480631B041B0C1380BFF312
:108C60005F8F138B138886F8695043F40073138069
:108C7000938896F967C043F48063938039E79B7EBD
:108C8000002B3FF423AF96F86830002B3FF41EAF63
:108C9000138896F967C023F480631B041B0C1380B0
:108CA00017E0002D9ED0A4E72D067FF522AFBCF182
:108CB000FF3F6ED0DD6915F80C5015820CF1010CE8
:108CC0001D7E4FFA8CF39D429C4686F867307FF4F8
:108CD00010AF938823F480631B041B0C938008E778
:108CE0001F7ED3F820805FFA8CF5AE44022F4FFA36
:108CF0008EFE17882ED927F480673F043F0C17801B
:108D0000178AFFB208F80C701788D3F820C047F410
:108D100000731380138ADBB20CF80E30938805F1D0
:108D2000020C4FFA8CFC43F4806386F867C0938092
:108D300069E7938896F967C023F480631B041B0CD2
:108D40009380D6E61388012543F48073138086F858
:108D5000685058E747F400771780178AFFB208F881
:108D60000C70178AD3F8208005F1030C4FFA8CFCA5
:108D7000FBB286F867C008F80E3044E7A42800204C
:108D800050210020978827F480673F043F0C97808C
:108D9000E1E6DD7D15829D7E86F867701DB91B7E3C
:108DA000002B7FF40EAF938823F480631B041B0C0D
:108DB000938006E72DE9F047884A894B12781C78A2
:108DC000D207064643D5874D012C74D01DD3022C03
:108DD0006FD18549854A09881288854F914201D90A
:108DE00001241C70EB7AFBB12B89EBB1814B1B7812
:108DF000D3B113F081F8002800F0C9802B7B8342A7
:108E00002CBF012300233B700FE0DFF8DCC1784F5B
:108E1000794CBCF800002288697B521A8242DFDA62
:108E2000EB7A0024002BDFD13B782A79632A07D81C
:108E30007249022C087800F0A480002840F0858058
:108E40006F4A9C4238BF1C461470BDE8F087DFF8BB
:108E500098C1644DBCF80000BCF8021095F803E01E
:108E6000684F411A0029A4F10302B8BF4942704576
:108E700097F80080D2B211D32F7887420ED3012AFF
:108E80002DD9B8F1020F9FD15A485F4A00789080DF
:108E90000229CCBF00210121D18095E7B0EB4E0F14
:108EA000EDDC012A76D8032C74D1B8F1020F00F062
:108EB00089804F4F96E74D4A4B491288687B098855
:108EC000121A914207DD4C4A494F12888A423CBF30
:108ED00000241C7086E702241C70454F82E702299B
:108EE000CFDC95F800E090FBFEFE0EF1010EBEF126
:108EF000080FDFF800A1AA786978DFF8F0903E4CFF
:108F00003B4FA8BF4FF0080E8AF800E01FFA8EFA18
:108F100011FB0AF112FB0AF2DFF8E0A0A9F8001039
:108F200092B200214FF06409B8F1020F228039702B
:108F30001970CAF804108AF801907FF46DAF324AB4
:108F40000121A2F804E0D18063E748682F4D301A70
:108F5000A842C8BF4A703FF773AFC2F164022C4DFC
:108F600000FB02F085FB0052C017A0EBA2509C4210
:108F7000234A00F1640038BF1C4648701470BDE8F5
:108F8000F0870028E1D101254E600D70E5E702234E
:108F90003B704AE702293FF774AF0324144F15488A
:108FA0001549124A1C70B8F1020F4FF000033C70D3
:108FB00003700B8013807FF415AF134A0121938057
:108FC000D1800FE70B4A104B12789A800229CCBF50
:108FD00000210121D980064F04E700BF6E65002003
:108FE0001C3300203CC200200CC300202033002092
:108FF0002C3300202CC300201E33002024330020FB
:109000002DC3002090C3002020C300207F9698002D
:109010006BCA5F6B10B4002318243921012204723B
:10902000417282720360C3725DF8044B704700BFE7
:1090300070B544880546C4F30B04224608460E4624
:1090400000213DF04DFD2B69094A934202D3094AA4
:10905000934205D35BB121463046BDE870401847C6
:10906000224630461946BDE870403BF005BA70BD57
:10907000400600087C07000810B5154C94F8A43091
:10908000002B144B14BF012200221A700BD00422B3
:1090900004F18A0110483DF061FD142204F18F01B2
:1090A0000E483DF05BFD94F8A530002B0C4B14BF2F
:1090B000012200221A7009D00A4B0B4A03F1200149
:1090C00053F8040B42F8040B8B42F9D110BD00BFDA
:1090D00050210020596D0020E4C20020CCC20020A5
:1090E000586D0020BA210020ECC2002038B51D4B7D
:1090F0001B78044600F1250593B104221A4920305B
:109100003DF02CFD2846142218493DF027FD01238F
:1091100084F83A30164B1B7873B984F83B3038BD6D
:109120002846142213493DF019FD012384F83A30F2
:109130000F4B1B78002BF0D00F4B186859689A68BA
:10914000DD68E56020606160A260DD6918695969C9
:109150009A69A2610123E5612061616184F83B3075
:1091600038BD00BF596D0020E4C20020CCC20020F1
:10917000586D002024A70408ECC2002030B5044636
:10918000C06D21718389A26823F400531B041B0C5A
:10919000838185B06379009213F0040F4FEA0332A4
:1091A0004FEA03230CBF00254FF4805503F480637E
:1091B00002F40052ADF80450ADF80830002511F06B
:1091C0000103ADF80620ADF80C501CD1ADF80A3003
:1091D00008238A07694648BFADF80A302AF030FFF5
:1091E000637913F0080FE36D9A8A05BF22F0080235
:1091F000120442F00802120C9A829A8942F4005238
:109200009A8105B030BD0423ADF80A300C23E0E7A5
:1092100030B50446C06DA160838923F400531B045C
:109220001B0C8381637985B013F0040F009108BF94
:109230000025217918BF4FF48055ADF804501A036A
:1092400000251B0203F48063ADF80A50ADF80C5002
:10925000CD07ADF8083002F4005244BF0423ADF846
:109260000A30ADF806204CBF0C2308238A07694654
:1092700048BFADF80A302AF0E3FE637913F0080F17
:10928000E36D9A8A05BF22F00802120442F0080238
:10929000120C9A829A8942F400529A8105B030BD2C
:1092A00070B504462DED028BD0F83004B0EE408A44
:1092B00034F03AFDD4ED047AF0EE405A94ED050A0C
:1092C00037EEC00AF5EE405A30EE270AF1EE10FAFA
:1092D00084ED040A84ED050A05D0F5EE407AF1EE3E
:1092E00010FA40F0BC80664BF7EE007AB0EE676A89
:1092F000C3ED2A7A94ED017AD4ED037AD4ED026AB3
:10930000E7EE067A04F23442104678EE404A77EEF1
:10931000A66AB0EE677A87EE265AF7EE007A77EE05
:10932000C57AA4EE850A67EE877A84ED040AC4ED57
:10933000037AFEF765FE04F21C4191ED007AD4F841
:109340002C34256884ED040A04F22440D0ED007A20
:10935000A8EE087A04EB8306013378EE277AAB4255
:1093600086ED068AC0ED007A81ED007AC4F82C34CF
:1093700024BF0023C4F82C3404EB8303D3ED066A26
:10938000404D04F5856393ED005A77EEE67AA6EE3C
:10939000E67A04F58463C0ED007A67EE857A81EDA4
:1093A000007A67EEE76AC3ED007AF0EE667AE7EEE0
:1093B000057A354995ED007A0878F5EEC07AF1EE38
:1093C00010FAD8BFF1EE677AF1EEE76A04F583632D
:1093D000C3ED007A67EE267AC4ED027A70B1F5EE3D
:1093E000405AF1EE10FA0CD1D4F83034022B09BFF8
:1093F000002394ED040A94ED040A0B70BDEC028B7B
:1094000070BD04F23C45D5ED007AF4EE657AF1EEDC
:1094100010FAE9D0DFED1D7A26EE276A04F58860A0
:10942000FDEEC67A90ED000A17EE903AB3F5FA7F9A
:10943000A8BF4FF4FA730A2BB8BF0A2307EE903A7D
:10944000B8EEE76ABCEEC66A16EE103A98B2FFF7BD
:10945000E9F81046FFF7E2F8C5ED005AC4E785EEDB
:10946000A77A074BB7EE006A36EE476AB5EEC06AD8
:10947000F1EE10FAD8BFB1EE466A83ED2A6A39E7F9
:1094800050210020701E00202C70002000008C4213
:1094900038B52C2200213DF023FB034664210B202C
:1094A00040F2DC521872197440F2022013215A82E1
:1094B000202240F21A4540F26C74188399760E20EF
:1094C00002211A7701229D82DC8240F2753540F636
:1094D000430483F8220083F82A109A7383F8292022
:1094E000DD831C8419460248BDE838400EF02ABED0
:1094F00030A70408022800D9704730B400EB80017F
:10950000064A074D074C01EB8101034602EB81023D
:109510002A602370104630BC31F06CB90647002039
:1095200078690020BCC2002038B52C4A2C4813783A
:1095300052782C492C4C2D4D03EB830303EB830312
:1095400000EB830302EB4200C2EBC00201EB4202DC
:1095500023602A6033F02CF93022002124483DF0AA
:10956000BFFA206831F046F9224A23491079234A8C
:10957000234BC2F8AC10C822642111FB0021002249
:10958000C3E90112C3E90322C3E90522DA6183F8C2
:10959000202083F821200EF08FF91A4ADFED1A6A95
:1095A0001388547919491A48086007EE103A53880D
:1095B000127907EE903AB8EEC77AF8EEE77A154BD3
:1095C00027EE267A67EEA67A1C725A7283ED017A2C
:1095D000C3ED007ABDE8384024F006BCBCC20020D0
:1095E000064700207C480020786900207C69002024
:1095F000B43300207C4D00206E2700205021002035
:10960000706500201038002017B7D1383C6D00205D
:109610003661023D146D00200B4B1B7810B58BB9E1
:109620000A4B0B4A03F1200153F8040B42F8040BD8
:109630008B42F9D1074B012483F8A540FFF71CFDAD
:10964000204610BD0020FCE7586D0020ECC2002031
:10965000BA21002050210020074B1B7853B9074B3B
:1096600000F1200250F8041B43F8041B9042F9D18A
:109670000120704700207047586D0020ECC2002088
:1096800038B50C4B1B789BB90B4D0C49042205F1E6
:109690008A003DF063FA01241422094905F18F0084
:1096A0003DF05CFA85F8A440FFF7E6FC204638BDA3
:1096B0000020FCE7596D002050210020E4C200206A
:1096C000CCC20020F0B50C2934D8DFE801F08A3391
:1096D00033335F333333343333330700048C9689A9
:1096E000B2F802C01788744D24F480542404240C6A
:1096F0000484038C8488818B23F4005321F4E64195
:109700001B0409041B0C46EA0C06090C43EA063349
:1097100041EA0721A8429BB2A4B289B200F09E8020
:1097200005F58065A84200F0998092688480818365
:1097300002640384F0BD048C9589B2F802E01788B6
:109740005D4E24F480742404240C0484038CB0F84B
:1097500004C0818B23F400731B0421F0730145EADC
:109760000E041B0C090443EA0423090CB0429BB20B
:109770001FFA8CF541EA07015BD0504CA04258D04B
:10978000926885808183C2630384F0BD048C9589CF
:10979000B2F802E0B2F800C0474E24F010042404EE
:1097A000240C0484038C8788018B23F0200321F48C
:1097B000E6411B0409041B0C45EA0E04090C43EAAC
:1097C000041341EA0C21B0429BB2BFB289B25BD014
:1097D0003A4CA04258D09268878001838263038408
:1097E000F0BD048C9589B2F802C01788324E24F07F
:1097F00001042404240C0484018C8488038B21F04C
:10980000020123F0730309041B04090C45EA0C054B
:109810001B0CB04241EA0501A4B243EA070324D07D
:10982000264DA84221D0926884800383426301843C
:10983000F0BDD489168A578A23F4006343EA0423CF
:109840004FF6FF341C40938825F440553E4344EACC
:10985000032345EA06149BB2A5B291E7158A24F4C6
:10986000804444EA8514A4B25FE7D689158A578AF2
:1098700021F008013143968824F4407421F004015A
:109880003D4331432C43CEE7D489168AB2F812C047
:1098900023F0800343EA04134FF6BF741C409388FF
:1098A00027F4406546EA0C0644EA031345EA8604B9
:1098B0009BB2A7B28FE700BF000001400004014047
:1098C0002DE9F84FDFF860828D488E4C8E4E8F4F19
:1098D000DFF85892DFF858A2502200213DF000F93D
:1098E00045468B4A8B48DFF84CC2DFF84CE208F55E
:1098F000FC7134E0B3F1804F00F0CB80A34200F064
:10990000CF80B34200F0DB80BB4200F0DB806345D8
:1099100000F0DB80734500F0DB804B4500F0DB801E
:10992000534500F0DB80DFF814B25B4500F0D980CE
:109930000BF5806B5B4500F0D780ABF5983B5B4542
:1099400000F0D5800BF5806B5B4500F0D3800BF504
:10995000806B5B4500F0D1802435A9420BD02B6889
:109960009342C7D14FF0010B436C243543EA0B03FC
:10997000A9424364F3D1684F684E4FF0030A4FF099
:10998000020998F80630002B7CD098F804301C09A6
:10999000013C032C03F00F0374D837F8140040FA8D
:1099A00003F2D2076ED54FF0010B0BFA03F3013B24
:1099B00018403AF061FB5A4B1B5D184416EBC0048B
:1099C00060D056F83030574898F8081003F13F42FD
:1099D00002F57E02920A825C02F01F005209032AFD
:1099E0000BFA00FB65D0042A5DD0022A04D1494855
:1099F000426C4BEA02024264B4F804C0BCFA8CF236
:109A0000C2F11F0292B2D00803EB800002F00702FD
:109A1000046A92004FF00F0E0EFA02FE24EA0E04C2
:109A20000462046A01FA02F2224302624FF0010E5C
:109A300000220EFA02F434EA0C0120D15000D3F8CF
:109A400000B00AFA00F1C9430BEA010BC3F800B0F9
:109A5000D3F800B009FA00F040EA0B0018609868EB
:109A60000840986098689860586820EA04045C6030
:109A700058685860D8680140D960D968D960013207
:109A8000102AD6D108F1240845457FF47AAFBDE805
:109A9000F88F4FF0010B036C43EA0B0303645BE7A1
:109AA0004FF0020BF7E71B48026B4BEA020202631E
:109AB000A2E71848026C4BEA020202649CE74FF0EE
:109AC000040BE8E74FF0080BE5E74FF0100BE2E777
:109AD0004FF0200BDFE74FF0020B45E74FF4803BE0
:109AE00042E74FF4003B3FE74FF4802B3CE74FF059
:109AF000400BD0E74FF0800BCDE74FF4807BCAE7F7
:109B0000A03200200004004000080040000C00408B
:109B10000000014000380240B0A0040894A00020DA
:109B2000B8A00408809E0408B89E04080004014000
:109B3000004001400010004000140040004401407B
:109B400000B9704703682DE9F04F03F13F4404F575
:109B50007E04534EA40A0125345D04F01F066409F7
:109B6000032C05FA06F500F09580042C00F08D809A
:109B7000022C45D08588B5FA85F0C0F11F0080B26F
:109B8000C40803EB840400F00700266A80000F2756
:109B9000874026EA07062662276A01F0030682400C
:109BA000701E3A4301282262C1F3810EC1F30018EE
:109BB0004FF000024FEA51114FF0010C25D94FF040
:109BC000030E0CFA02F0A84315D150001F680EFADC
:109BD00000F4E44327401F60D3F8008006FA00F742
:109BE00047EA08071F60DF683C40DC60DC6801FA78
:109BF00000F02043D8600132102AE2D1BDE8F08F96
:109C0000284C666C35436564B4E74FF003090CFAE1
:109C100002F737EA050033D15000D3F800A009FA63
:109C200000F4E4430AEA040AC3F800A0D3F800B041
:109C300006FA00FA4AEA0B0AC3F800A0D3F808A013
:109C400004EA0A0AC3F808A0D3F808B00EFA00FA2A
:109C50004AEA0B0AC3F808A0D3F804A02AEA0707C7
:109C60005F60D3F804A008FA02F747EA0A075F60CA
:109C7000DF683C40DC60DC6801FA00F02043D8601B
:109C80000132102AC3D1BDE8F08F064C266B354354
:109C900025636FE7034C266C354325646AE700BFF4
:109CA000809E04080038024003682DE9F04F03F15C
:109CB0003F4404F57E04534EA40A0125345D04F0AC
:109CC0001F066409032C05FA06F500F09580042CA4
:109CD00000F08D80022C46D08588B5FA85F0C0F161
:109CE0001F0080B2C40803EB840400F00700266A5A
:109CF00080000F27874026EA07062662276A01F0C0
:109D0000030602FA00F0721E3843012AC1F3810EE5
:109D1000C1F3001820624FEA51114FF000024FF0DA
:109D2000010C25D94FF0030E0CFA02F0A84315D10F
:109D300050001F680EFA00F4E44327401F60D3F878
:109D4000008006FA00F747EA08071F60DF683C401A
:109D5000DC60DC6801FA00F02043D8600132102A90
:109D6000E2D1BDE8F08F284C666C35436564B3E7FB
:109D70004FF003090CFA02F737EA050033D150001F
:109D8000D3F800A009FA00F4E4430AEA040AC3F88D
:109D900000A0D3F800B006FA00FA4AEA0B0AC3F8AA
:109DA00000A0D3F808A004EA0A0AC3F808A0D3F870
:109DB00008B00EFA00FA4AEA0B0AC3F808A0D3F872
:109DC00004A02AEA07075F60D3F804A008FA02F7A4
:109DD00047EA0A075F60DF683C40DC60DC6801FA44
:109DE00000F02043D8600132102AC3D1B9E7064CF5
:109DF000266B354325636FE7034C266C354325649A
:109E00006AE700BF809E04080038024010B50409CC
:109E1000013C032C17D80E4B33F8142000F00F0030
:109E200042FA00F313F001030FD0012303FA00F00C
:109E3000013810403AF020F9064A074B125D1044F1
:109E400003EBC00010BD002010BD184610BD00BFC0
:109E5000B0A00408B8A0040894A000202DE9F8439D
:109E60002C4D2B8AB5F80C8018EA030825D02A4E11
:109E70004FF00047B8FA88F327FA03F2D24391B2C1
:109E80001B3B08EA02082982042B13D8DFE803F001
:109E9000322920170300F36C002B34D1EB6A1FFA30
:109EA00083F9B46C34B12368204649469847646806
:109EB000002CF8D1B8F1000FDCD1BDE8F883B06A0E
:109EC000696B036889B29847B8F1000FD2D1F4E703
:109ED000F06AA96B036889B29847B8F1000FC9D13D
:109EE000EBE7306BE96B036889B29847B8F1000F74
:109EF000C0D1E2E7706B296C036889B29847B8F16A
:109F0000000FB7D1D9E703F1FF3900231FFA89F910
:109F1000F364C6E700080040A03200202DE9F843B2
:109F20004FF080452B8AB5F80C8018EA030825D03D
:109F3000294E4FF00047B8FA88F327FA03F2D243CC
:109F400091B21B3B08EA02082982042B13D8DFE8F0
:109F500003F0322920170300736A002B34D1EB6A17
:109F60001FFA83F9346A34B123682046494698477A
:109F70006468002CF8D1B8F1000FDCD1BDE8F8839B
:109F80003068696B036889B29847B8F1000FD2D185
:109F9000F4E77068A96B036889B29847B8F1000FBD
:109FA000C9D1EBE7B068E96B036889B29847B8F1AB
:109FB000000FC0D1E2E7F068296C036889B29847C6
:109FC000B8F1000FB7D1D9E703F1FF3900231FFA29
:109FD00089F97362C6E700BFA03200202DE9F04185
:109FE0000668B30AB3F5801F59D0334CA34254D14D
:109FF00045790127AB084FF0480E4FEA950CB800A1
:10A000000225B6F80C802D4C05FA0CF500EB070C78
:10A0100003EB4C0345EA080503F10408ADB244F82C
:10A02000231044F8282004EB0E03B581EFF31181CF
:10A03000502282F3128804EBCC0CDCF8102022B101
:10A0400044F80E20DCF810300433C21904EBC202CD
:10A05000556915B11D6053690433C21904EBC2027E
:10A06000956915B11D6093690433C21904EBC202EE
:10A07000D56915B11D60D36904330022C9B21A60D5
:10A0800081F31188384404EBC004236A6BB9B389A7
:10A0900023F001031B041B0CB381BDE8F08145795B
:10A0A0000027AB084FF0200EA7E7B38943F0010368
:10A0B000B381BDE8F08100BF02001000A032002093
:10A0C0002B4B98423CD0B0F1804F3BD0A3F57C4362
:10A0D000984239D003F58063984237D003F5806306
:10A0E000984235D003F58063984233D003F58063FE
:10A0F000984233D003F57043984231D003F5705342
:10A10000984229D003F5806398422BD003F58063F1
:10A11000984229D0A3F59833984227D003F580635D
:10A12000984207D003F58063984208BF0D2202D001
:10A13000002070470C220F4B03EBC20318797047C5
:10A140000022F8E70122F6E70222F4E70322F2E711
:10A150000422F0E70522EEE70822ECE70622EAE710
:10A160000722E8E70922E6E70A22E4E70B22E2E712
:10A1700000000140109E040870B4104E00233246C7
:10A180001D46042403E001330E2B0CD0947930EAF1
:10A19000040402F12402F6D1A94207D001330135AB
:10A1A0000E2BEDB2F2D1002070BC704703EBC3035D
:10A1B00006EB830370BC1879704700BFB89E040893
:10A1C00010B5002104460120FFF7D6FF207010BD16
:10A1D00038B500240472451EE1B20220FFF7CCFF1F
:10A1E0000134082C05F8010FF6D138BDC0B110B408
:10A1F0000C4C2B212246002303E001330E2B0BD005
:10A200001179884202F12402F7D103EBC30304EB76
:10A2100083005DF8044B704700205DF8044B7047E5
:10A22000704700BFB89E04082DE9F04F85B0CDE916
:10A2300002109B4DDFF878A2029B013B0293013391
:10A2400000F02A8134F00AFD964C974FDFF864E263
:10A25000964E4FF4FA7301934FF01008DEF8043075
:10A26000C3F30803002B40F0F680EFF31183002BBB
:10A2700040F0F1802068AA6823689842FAD13368D8
:10A280009A42F7D8D7F800C04FF47A7101FB0CF36B
:10A290009B1AB3FBFCF301FB00304FF47A7C4FF0C8
:10A2A0000109DEF80430C3F30803002B40F0B58049
:10A2B000EFF31183002B40F0B0802368A968226877
:10A2C0009342FAD132689142F7D83A680CFB02FB0C
:10A2D000ABEB0101B1FBF2F10CFB03131B1AB3F55D
:10A2E0007A7FDED3019B013B0193B7D1039B6F4E75
:10A2F000581CC0B234F05AFBDFF8B8E14FF47A735F
:10A300000193DEF80430C3F308034FF01008002B6C
:10A3100044D1EFF31183002B40D12068AA68236851
:10A320009842FAD133689A42F7D8D7F800C04FF470
:10A330007A7101FB0CF39B1AB3FBFCF301FB0030B9
:10A340004FF47A7C4FF00109DEF80430C3F30803C0
:10A35000002B44D1EFF31183002B40D12368A9686F
:10A3600022689342FAD132689142F7D83A680CFBDE
:10A3700002FBABEB0101B1FBF2F10CFB03131B1A67
:10A38000B3F57A7FE0D3019B013B01933FF454AFD7
:10A39000DEF80430C3F30803002BBAD0EFF31183C7
:10A3A00088F31288D5F808C02A68D20304D50122A0
:10A3B000CAF80020D5F808C02068DAF80090DBB2AF
:10A3C00083F3118839684FF47A72484402FB01F331
:10A3D000A3EB0C03B3FBF1F302FB0030B0E7EFF3A8
:10A3E000118188F31288D5F808B02B68DB0344BFCD
:10A3F000CAF80090D5F808B02368DAF80020C9B28E
:10A4000081F31188396813440CFB01F2A2EB0B02B3
:10A41000B2FBF1F20CFB0323B1E7EFF3118188F3F8
:10A420001288D5F808B02B68DB0344BFCAF8009047
:10A43000D5F808B02368DAF80020C9B281F3118892
:10A44000396813440CFB01F2A2EB0B02B2FBF1F2F0
:10A450000CFB032342E7EFF3118388F31288D5F84E
:10A4600008C02A68D20304D50122CAF80020D5F812
:10A4700008C02068DAF80090DBB283F311883968ED
:10A480004FF47A72484402FB01F3A3EB0C03B3FBD5
:10A49000F1F302FB003000E705B0BDE8F08F00BF2C
:10A4A00010E000E078A000207CA0002080A0002028
:10A4B00074A0002000ED00E0224B5B68C3F30803AA
:10A4C00030B4D3B9EFF31183BBB91F4A1F4D2048F5
:10A4D0001368846811688B42FAD129688C42F7D8D6
:10A4E0001C4A11684FF47A7202FB01F0001B30BC69
:10A4F000B0FBF1F002FB03007047EFF31182102371
:10A5000083F3128803F1E023D2B29C68196811F436
:10A51000803F11491EBF012008609C680A4B1868E3
:10A520000B6882F311880B4A11684FF47A72034466
:10A5300002FB01F0001B30BCB0FBF1F002FB03009A
:10A54000704700BF00ED00E078A0002080A0002050
:10A5500010E000E07CA0002074A000202DE9F84F5E
:10A560008046274C274DDFF8A490274EFFF7A4FF25
:10A57000DFF89CE0DFF89CC04FF0100A4FF47A77C8
:10A58000DCF80430C3F30803CBB9EFF31183B3B99C
:10A590002368A96822689342FAD132689142F7D8B9
:10A5A000DEF8002007FB02FBABEB0101B1FBF2F18F
:10A5B00007FB03131B1A4345E2D3BDE8F88FEFF303
:10A5C00011818AF31288D5F808B02B68DB0304D513
:10A5D0000123C9F80030D5F808B02368D9F8002065
:10A5E000C9B281F31188DEF80010134407FB01F2B1
:10A5F000A2EB0B02B2FBF1F207FB0323DAE700BF89
:10A6000078A0002010E000E080A0002074A00020CE
:10A610007CA0002000ED00E070B59D4C2368002B6D
:10A6200040F005819B4B1A78002A68D09A4B197824
:10A630009A4B002964D11868B3F82C51416284897F
:10A64000012A44EA05048481A3F82C1157D0D3F8D9
:10A650003001B3F85C5241628489022A44EA05045D
:10A660008481A3F85C124AD0D3F86002B3F88C530B
:10A6700041628489032A44EA05048481A3F88C1387
:10A680003DD0D3F89003B3F8BC5441628489042AC6
:10A6900044EA05048481A3F8BC1430D0D3F8C00484
:10A6A000B3F8EC5541628489052A44EA05048481A3
:10A6B000A3F8EC1523D0D3F8F005B3F81C5741628A
:10A6C0008489062A44EA05048481A3F81C1716D05D
:10A6D000D3F82007B3F84C5841628489072A44EA2A
:10A6E00005048481A3F84C1809D0D3F85028B3F896
:10A6F0007C495162908920439081A3F87C1970BDF8
:10A700005C68198961602568186845F0010540F2A8
:10A710000D312560A0F848108489012A44F4807422
:10A720008481ECD0D3F83441B3F83851D3F83001F8
:10A730006560256845F001052560A0F8481084890A
:10A74000022A44F480748481D9D0D3F86442B3F8E7
:10A750006852D3F860026560256845F00105256000
:10A76000A0F848108489032A44F480748481C6D0F8
:10A77000D3F89443B3F89853D3F8900365602568F1
:10A7800045F001052560A0F848108489042A44F4A6
:10A7900080748481B3D0D3F8C444B3F8C854D3F8D8
:10A7A000C0046560256845F001052560A0F84810E3
:10A7B0008489052A44F480748481A0D0D3F8F445B8
:10A7C000B3F8F855D3F8F0056560256845F0010544
:10A7D0002560A0F848108489062A44F48074848196
:10A7E0008DD0D3F82447B3F82857D3F820076560F5
:10A7F000256845F001052560A0F848108489072ADE
:10A8000044F4807484813FF47AAFD3F85428B3F8C9
:10A810005808D3F850385060106840F001001060BC
:10A82000A3F848109A8942F480729A8170BD054657
:10A83000FFF742FE217AA9B16DB1194A00231689AA
:10A840000133002E18BF0021AB4202F16002F6D1A5
:10A8500000293FF4E7AE00F51C50103000232060C3
:10A860002372DFE62368C31A002BFFF648AF637A32
:10A870003BB1013BDBB263722BB100F57A70206013
:10A88000D0E62360CEE6636803442360CAE600BFD7
:10A89000F032002044B80020540C001048B80020CA
:10A8A00044B500202DE9F04FDFF834C1494CDFF802
:10A8B00034E1DFF83481484E824648481AF1FF3AC5
:10A8C000C0F08680DCF80430C3F30803002B5ED1AF
:10A8D000EFF31183002B5AD10568A26803689D42EB
:10A8E000FAD133689A42F7D8DEF800704FF47A71E3
:10A8F00001FB07F39B1AB3FBF7F301FB0535DCF80B
:10A900000430C3F308034FF010094FF47A77F3B91A
:10A91000EFF31183DBB90368A16802689342FAD1AF
:10A9200032689142F7D8DEF8002007FB02FBABEB60
:10A930000101B1FBF2F107FB03135B1BB3F57A7F57
:10A94000BCD2DCF80430C3F30803002BE0D0EFF3F3
:10A95000118189F31288D4F808B02368DB0304D589
:10A960000123C8F80030D4F808B00368D8F80020F4
:10A97000C9B281F31188DEF80010134407FB01F21D
:10A98000A2EB0B02B2FBF1F207FB0323D5E7EFF3D7
:10A990001183102282F31288A1682268D20303D5A2
:10A9A0000122C8F80020A168D0F80090D8F8005023
:10A9B000DBB283F31188DEF800704FF47A724D44F5
:10A9C00002FB07F35B1AB3FBF7F302FB053596E7CF
:10A9D000BDE8F08F10E000E080A0002078A000200B
:10A9E00000ED00E07CA0002074A0002030B4EFF364
:10A9F0001183102282F31288084809490268094D20
:10AA0000094C013202608A682A6000222260DBB2AF
:10AA10000A6883F3118830BC704700BF78A000201B
:10AA200010E000E080A0002074A0002038B5254B85
:10AA30005C69A26BE36D62B1E26BC2B1998A1A885C
:10AA4000C90792B204D5120744BF4FF6F7721A80B5
:10AA500038BD99891A88890692B2EDD59206EBD550
:10AA6000E26AFAB19888216B9047E36DE4E799892F
:10AA70001A880D0692B2E1D51006DFD5D4E9091285
:10AA80008A420AD0A1692569885C98800132B2FBAC
:10AA9000F5F105FB1122A262D0E7DA6822F080020C
:10AAA000DA60CBE79B88E2696169DBB28B54E269CB
:10AAB000E068E36D0132B2FBF0F100FB1122E261CC
:10AAC000BAE700BF00090010002A12DD70B5044685
:10AAD0000D468E18236820469B6898470028F9D0B9
:10AAE000236815F8011B1B6820469847B542F1D131
:10AAF00070BD70470368DB6A03B11847704700BF39
:10AB000003689B6A03B11847704700BF03682DE9CB
:10AB1000F0415D6A1DB12B46BDE8F0411847002A9F
:10AB2000174611DD04460E460F4400E023689B687B
:10AB3000204698470028F9D0236816F8011B1B68A7
:10AB400020469847BE42F1D1BDE8F08103689B6979
:10AB5000184700BF03685B69184700BF0368DB68DC
:10AB6000184700BF03689B68184700BF03685B680D
:10AB7000184700BF03681B68184700BF014BD3F894
:10AB8000B000F7E75021002038B50C46097849B1EC
:10AB9000054601342B6828461B68984714F8011BAA
:10ABA0000029F7D138BD00BF064B53F820302BB138
:10ABB0001A689B8851690B4201D1138370475383F4
:10ABC000704700BF88A00020036803F13F4202F5F0
:10ABD0007E022DE9F047920A434DAA5C02F01F0560
:10ABE00052090124032A04FA05F478D0042A71D00A
:10ABF000022A2ED001F00306721E012AC1F3001EA4
:10AC000085884FEA51114FF000024FF0010C25D911
:10AC10004FF0030E0CFA02F0A84315D150001F6844
:10AC20000EFA00F4E44327401F60D3F8008006FAD0
:10AC300000F747EA08071F60DF683C40DC60DC681B
:10AC400001FA00F02043D8600132102AE2D1BDE8B9
:10AC5000F087264A556C2C435464CBE74FF0030829
:10AC60000CFA02F737EA05002FD15000D3F8009014
:10AC700008FA00F4E44309EA0409C3F80090D3F8A1
:10AC800000A006FA00F949EA0A09C3F80090D3F8CF
:10AC9000089004EA0909C3F80890D3F80890C3F8AB
:10ACA0000890D3F8049029EA07075F60D3F804906E
:10ACB0000EFA02F747EA09075F60DF683C40DC6094
:10ACC000DC6801FA00F02043D8600132102AC7D1B5
:10ACD000BDE8F087054A156B2C4314638AE7034AE5
:10ACE000156C2C43146485E7809E040800380240EC
:10ACF0002DE9F04F4A484B494B4B4C4C4FF0010A61
:10AD00004FF002094FF004084FF0080E4FF0100CFE
:10AD100020274026802530F8022B12F0010F03D0A7
:10AD20001960A3F804A0083312F0020F03D01960D1
:10AD3000A3F80490083312F0040F03D01960A3F8AD
:10AD40000480083312F0080F03D01960A3F804E060
:10AD5000083312F0100F03D01960A3F804C00833B1
:10AD600012F0200F02D019609F80083312F0400FBC
:10AD700002D019609E80083312F0800F02D0196053
:10AD80009D80083312F4807F05D04FF4807B1960DA
:10AD9000A3F804B0083312F4007F05D04FF4007B11
:10ADA0001960A3F804B0083312F4806F05D04FF493
:10ADB000806B1960A3F804B0083312F4006F05D05B
:10ADC0004FF4006B1960A3F804B0083312F4805FED
:10ADD00005D04FF4805B1960A3F804B0083312F477
:10ADE000005F05D04FF4005B1960A3F804B008338E
:10ADF00012F4804F05D04FF4804B1960A3F804B0D3
:10AE00000833D20B04D04FF4004219609A80083303
:10AE100001F58061A1427FF47EAFBDE8F08F00BFF5
:10AE2000B0A004080000024094A0002000100240DE
:10AE300000B97047036803F13F4202F57E022DE935
:10AE4000F047920A434DAA5C02F01F055209012403
:10AE5000032A04FA05F478D0042A71D0022A2ED0ED
:10AE600001F00306721E012AC1F3001E85884FEA15
:10AE700051114FF000024FF0010C25D94FF0030E95
:10AE80000CFA02F0A84315D150001F680EFA00F426
:10AE9000E44327401F60D3F8008006FA00F747EA32
:10AEA00008071F60DF683C40DC60DC6801FA00F0E6
:10AEB0002043D8600132102AE2D1BDE8F087264A4B
:10AEC000556C2C435464CBE74FF003080CFA02F79F
:10AED00037EA05002FD15000D3F8009008FA00F4AB
:10AEE000E44309EA0409C3F80090D3F800A006FA85
:10AEF00000F949EA0A09C3F80090D3F8089004EA77
:10AF00000909C3F80890D3F80890C3F80890D3F85B
:10AF1000049029EA07075F60D3F804900EFA02F75D
:10AF200047EA09075F60DF683C40DC60DC6801FAE3
:10AF300000F02043D8600132102AC7D1BDE8F08765
:10AF4000054A156B2C4314638AE7034A156C2C439E
:10AF5000146485E7809E04080038024010B103683D
:10AF600082885A83704700BF10B1036882881A83B1
:10AF7000704700BF18B10368828809B95A837047C7
:10AF80001A83704710B40A4B0A4A1C780123834085
:10AF9000234052F8200029B9B3FA83F149095DF83A
:10AFA000044BE7E7191C18BF01215DF8044BE1E7EA
:10AFB00084A0002088A0002008B501210220FFF70E
:10AFC000E1FF0C4B1B7803F00503052B0ED000218D
:10AFD0000120FFF7D7FF00210846FFF7D3FF3220FB
:10AFE000FFF760FC0220FFF7DFFDF8E730F0D2FC4E
:10AFF000EDE700BF4434002038B5074B03EBC00534
:10B000002C796A794C40A24205D053F83000214691
:10B01000FFF7B0FF6C7138BDF8B2002030B10368A3
:10B0200082881B691A4214BF01200020704700BFAC
:10B030002DE9F0410C4E356873691D4011D0DFF8E1
:10B040002C800127B5FA85F4C4F11F0408EB8403B2
:10B0500007FA04F4D3F8B40003689847A543746171
:10B06000F0D1BDE8F08100BF003C0140502100203C
:10B070002DE9F0410C4E356873691D4011D0DFF8A1
:10B080002C800127B5FA85F4C4F11F0408EB840372
:10B0900007FA04F4D3F8B40003689847A543746131
:10B0A000F0D1BDE8F08100BF003C014050210020FC
:10B0B0002DE9F0410C4E356873691D4011D0DFF861
:10B0C0002C800127B5FA85F4C4F11F0408EB840332
:10B0D00007FA04F4D3F8B40003689847A5437461F1
:10B0E000F0D1BDE8F08100BF003C014050210020BC
:10B0F0002DE9F0410C4E356873691D4011D0DFF821
:10B100002C800127B5FA85F4C4F11F0408EB8403F1
:10B1100007FA04F4D3F8B40003689847A5437461B0
:10B12000F0D1BDE8F08100BF003C0140502100207B
:10B130002DE9F0410C4E356873691D4011D0DFF8E0
:10B140002C800127B5FA85F4C4F11F0408EB8403B1
:10B1500007FA04F4D3F8B40003689847A543746170
:10B16000F0D1BDE8F08100BF003C0140502100203B
:10B170002DE9F0410C4E356873691D4011D0DFF8A0
:10B180002C800127B5FA85F4C4F11F0408EB840371
:10B1900007FA04F4D3F8B40003689847A543746130
:10B1A000F0D1BDE8F08100BF003C014050210020FB
:10B1B0002DE9F0410C4E356873691D4011D0DFF860
:10B1C0002C800127B5FA85F4C4F11F0408EB840331
:10B1D00007FA04F4D3F8B40003689847A5437461F0
:10B1E000F0D1BDE8F08100BF003C014050210020BB
:10B1F000094A10B5536C094C43F48043536404F17D
:10B20000B400402200213BF06BFC4FF0FF33C4F848
