:020000040800F2
:10000000002000103D0B0308A50B0308DD7C010850
:10001000A50B0308A50B0308A50B030800000000AF
:10002000000000000000000000000000A50B030815
:10003000A50B030800000000A50B0308F1820208CD
:10004000A50B0308A50B0308A50B0308A50B0308C4
:10005000A50B0308A50B0308399702086598020849
:1000600029980208ED970208B1970208CDC202084C
:10007000BDC20208ADC202089DC202088DC20208BC
:1000800079C2020865C20208A50B0308A50B030884
:10009000A50B0308A50B0308A50B03087597020819
:1000A000A50B03084D7B0208A50B0308097C020879
:1000B000CD9D0108119D0108499C0108A50B03086D
:1000C000A50B0308A50B0308A50B0308A50B030844
:1000D000A50B030829840208AD83020831830208B6
:1000E000FD960208A50B0308A50B0308A50B030842
:1000F000A50B0308A50B0308A50B0308A50B030814
:10010000000000000000000000000000A50B030834
:10011000A50B0308A50B0308F1770008DD7700089D
:1001200051C202083DC2020829C2020815C20208D3
:1001300001C20208A50B0308000000000000000037
:10014000A50B0308A50B0308A50B0308000000007E
:10015000000000000000000000000000000000009F
:100160000000000000000000A50B0308A50B030819
:10017000A50B0308000000000000000000000000C4
:0801800000000000A50B0308BC
:10018800D0E90920101AB0FA80F04009704700BF82
:100198000171704703799B070AD5436A8269D15474
:1001A800436A01690133B3FBF1F201FB1233436285
:1001B800704700BF037913F0010317D0D0E9073166
:1001C800C26810B45B1A541E23400BD043694C1C00
:1001D8005B5CB4FBF2F102FB114202625DF8044B76
:1001E800D8B2704718465DF8044B704718467047F8
:1001F800037913F0020308D0D0E909210369581ED6
:10020800531A0340DBB2C01A70471846704700BF44
:10021800037913F0010306D0D0E90731C268581AF0
:10022800531E184070471846704700BF10F8113C1D
:100238000133DBB20A2B00F8113C07D9044A10F845
:10024800131C002322F8113000F8113C704700BF3E
:1002580064300020F0B45D4E5D4832785D4B5E4DF1
:10026800DC6B2D780132A0FB0270000900EB8000E6
:10027800A2EB80001A683070914201EB04005C68C0
:1002880011D293F84520002A4ED000F58030B0FBFB
:10029800F5F084420BD2041B4FF4803292FBF5F246
:1002A800A21A9A600AE0B0FBF5F0844244D34FF4F6
:1002B800803292FBF5F2121B02449A6040F68C24BD
:1002C8000025A242C3E9001083F8455017D993F8D6
:1002D800402093F942108A4256B241D0002093F947
:1002E800411083F843008A4247D00121002283F855
:1002F800426083F8441083F84020F0BC704793F8BC
:1003080044100029F9D0A2F2EF2040F2DA518842D5
:100318001AD893F840100B2916D803EB8100013145
:10032800C26083F84010E8E7B0FBF5F08442BED223
:10033800041BA21A9A60C1E793F84520002AAAD1A3
:10034800041BA21A9A60B9E7244A002102F130007E
:1003580083F8441042F8041F8242FBD1F0BC704776
:10036800111F0829BAD893F84310182926D8013143
:1003780083F8431093F94110B5E793F84410002926
:10038800B3D0FAB11649154C0FFA82FC084601EBB6
:100398004C0754F8045F20F8025BB842F9D10B2AE5
:1003A80007DC104801EB4C02002122F8021B9042A6
:1003B800FBD10D490A7801320A7096E783F841604B
:1003C800314690E794460649EBE700BFB821002084
:1003D800CDCCCCCCCC670020DE200020D467002018
:1003E800643000207C3000205430002030B40E4DA2
:1003F8000E4B2A780E4C0132A3FB02031B09E06B5B
:1004080003EB8303A2EB83034FF6FF72914200F1E3
:1004180001002B70084408BF0123E06308BF84F87B
:10042800453030BC704700BFB8210020CDCCCCCCC3
:10043800CC670020002800F01681AF4B1A7CF0B47E
:10044800002A40F095801968002201280A6043D0EC
:1004580093F82810002941D19969002202280A60DE
:100468003AD093F8401000295DD1196B0022032877
:100478000A6031D093F85810002940F09E80996C9A
:10048800002204280A6027D093F87010002940F051
:10049800EB80196E002205280A601DD093F8881099
:1004A800002940F00581996F002206280A6013D0C0
:1004B80093F8A010002940F02781D3F8901000226B
:1004C80007280A6008D093F8B810002940F0A080E7
:1004D800D3F8A83000221A60F0BC7047D969874D5C
:1004E8008C0AAC4200F0478140F23081844DAC4226
:1004F80000F056814935AC4240F04A81EFF311844F
:10050800502585F312887F4E4F6A4D6902EB8202AF
:1005180006EBC202013745F001055762E4B24D61AE
:1005280084F3118898E7596B744D8C0AAC4200F03B
:10053800248140F21081724DAC4200F03881493577
:10054800AC4240F02981EFF31184502585F31288DD
:100558006C4E4F6A4D6902EB820206EBC20201370C
:1005680045F001055762E4B24D6184F311887CE7D8
:100578005A68624C910AA14200F0F6806ED9604C2C
:10058800A14200F0EF804934A14240F0E980002107
:10059800EFF31184502585F312885A4E576A55692E
:1005A80001EB810106EBC101013745F001054F62FE
:1005B800E4B2556184F3118845E7D96C4F4D8C0A34
:1005C800AC4200F0FD8040F2D1804D4DAC4200F0CD
:1005D800F5804935AC4240F0E180EFF311845025B5
:1005E80085F31288474E4F6A4D6902EB820206EB8B
:1005F800C202013745F001055762E4B24D6184F348
:100608001188996C002204280A607FF43DAF63E7E3
:10061800D3F8AC10394C880AA04200F0E48040F2CC
:10062800B080374CA04200F0E2804934A04240F04C
:10063800DC80EFF31180502484F31288314D4E6A28
:100648004C6902EB820205EBC205013644F0010455
:100658006E62C2B24C6182F3118839E7B1F5801F2E
:100668007ED1012194E77047596E244D8C0AAC4223
:1006780000F0AF8040F29680214DAC427FD04935E2
:10068800AC4240F0A480EFF31184502585F3128822
:100698001C4E4F6A4D6902EB820206EBC20201371B
:1006A80045F001055762E4B24D6184F31188F0E624
:1006B800D96F124D8C0AAC4200F08F8079D9104D59
:1006C800AC4263D04935AC4240F08580EFF31184E9
:1006D800502585F312880B4E4F6A4D6902EB820252
:1006E80006EBC202013745F001055762E4B24D61DD
:1006F80084F31188D7E600BF1868002001001000B5
:100708000200100034630020D3F89410394D8C0A8D
:10071800AC4264D056D9384DAC423BD04935AC4296
:100728005FD1EFF31184502585F31288334E4F6A59
:100738004D6902EB820206EBC202013745F0010562
:100748005762E4B24D6184F31188B6E6B4F5801FB0
:100758001ED10122D2E6B4F5801F1DD10122F2E696
:10076800FE2115E7032113E7022111E7B4F5801FE5
:1007780014D1012231E70222C0E60222E3E6032275
:1007880081E7B0F5801F30D1012252E703229DE7AF
:10079800FE22B3E60322C4E7FE22D4E6FE221CE7CB
:1007A8000322ABE6B4F5801F11D101226BE70322C7
:1007B800C9E6B4F5801F0ED1012287E703220CE7B2
:1007C80002220AE7B4F5801F0BD10122A9E7FE2215
:1007D80059E7022257E7FE2278E7022276E702224B
:1007E8009FE7FE229DE7022223E7FE2221E703225C
:1007F8001FE700BF01001000020010003463002052
:10080800704700BF70B4150BC2F30324064605EB0E
:10081800450504EB44044800C2F3031318351834A3
:1008280002F00F02356003EB430346F8214002EB68
:10083800420201441833183246F82030062046F8A0
:10084800212070BC704700BF2DE9F04F12F4004F13
:1008580014BF4FF00E0B4FF0070B12F4804F14BF6C
:100868004FF00E0A4FF0070A12F4005F14BF4FF062
:100878000E094FF0070912F4805F14BF4FF00E08FD
:100888004FF007084FEA410C12F4006F83B001EBF8
:100898000C0714BF4FF00E0E4FF0070E12F4806FC6
:1008A80001EB070614BF0E2307238D190193034696
:1008B80012F4007F01EB0504C3F800B018BF0E2046
:1008C80043F821A008BF072043F82C9012F4807F3A
:1008D80001EB040C43F8278043F826E001EB0C07F2
:1008E80014BF4FF00E084FF00708019E43F825602B
:1008F80012F0800F01EB070614BF4FF00E0E4FF0F9
:10090800070E12F0400F43F8240001EB060514BF50
:100918000E20072012F0200F43F82C8001EB05046D
:1009280014BF4FF00E0C4FF0070C12F0100F43F8E5
:1009380027E043F8260018BF0E2701EB040008BF84
:10094800072712F0080F43F825C018BF0E2643F8F2
:10095800247008BF07260C1812F0040F43F8206013
:1009680018BF0E2501EB040008BF072512F0020F7F
:1009780043F82450014414BF0E24072412F0010F39
:1009880043F8204014BF0E220722122043F82120EA
:1009980003B0BDE8F08F00BF704700BF10B54379C2
:1009A80003F0200113F0010F036C04461A7A806BE0
:1009B80016D000290CBF4221022128F03BF8216CF7
:1009C800012384F84C32A4F848320A684879116A3D
:1009D800834021EA03011162116A0B43136210BDBF
:1009E80000290CBF2221022128F024F8E7E700BFE4
:1009F800024B1A889B78028083707047E41C0308B6
:100A080070B4104A104BB2F90060B2F902501C7869
:100A18000E4940F6E44202FB00F2120B42F2107358
:100A280003FB02F393FBF6F32B4481FB0310222C08
:100A38004FEAE373C3EBA00002D1054B1A8058803C
:100A480070BC704740690020886A00206766666647
:100A58000C6A0020084B596869B130B49D68074C8E
:100A68000020642202FB05F25860B2FBF1F29860A4
:100A7800228030BC70477047B821002052330020D4
:100A8800704700BF70B505466C0030F0F1F9284991
:100A9800631901EB43131E7B06B970BD254AD6685E
:100AA80080B21EB1167D0EB9567D66BB2C4401EB93
:100AB8004414214B227D208142EA400290B2021266
:100AC80082EA1012424002F00F0242EA00121B783A
:100AD8001A480026267592B20668DBB9602000FB2A
:100AE800051018300121B04721696368B1F82C213D
:100AF8006489DB682243A1F82C2158601A6842F007
:100B080001021A6070BD2A44907D0028CED00122CF
:100B18001A75CBE7636820695B7903F0FC030C3333
:100B280018440421B04723698000188170BD00BFB4
:100B3800506D0020B82100204C6D0020446D00202D
:100B480038B500EB4000084DC4002B1993ED027A2C
:100B5800D3ED037AE7EE007AB0EE670A30F088F951
:100B68002B59186038BD00BF18680020F8B5A0F5EB
:100B7800197423796179DB0746D594F84832206CDB
:100B88000BBB94F84B32012B3FD0002B41D194F88A
:100B98004A3294F849629E420CD9B4F8522201278D
:100BA80007FA03F501332A43DDB2AE4292B2F7D811
:100BB800A4F852220123C94384F84B321940BDE8F6
:100BC800F84020F0BFBE0268D36A5B08536294F80D
:100BD8005932012B07D094F84D3223B1B4F854326E
:100BE8000133A4F85432C94301F0010120F0AAFEF0
:100BF8000023012284F84B2284F8493284F84A32CF
:100C0800A4F8523284F84832F8BD94F8493284F88E
:100C18004A32002384F84B3201F00101BDE8F84064
:100C280020F090BE0F4AB2FBF1F3B3F5803F10B449
:100C38004FF01B0407D3013C0BD05208B2FBF1F371
:100C4800B3F5803FF7D299B2064A5DF8044B27F016
:100C5800C3B80123034AB3FBF1F35DF8044B99B21F
:100C680027F0BAB800A24A048160006CDAE700BF36
:100C7800436CC06B1BB11A7A012127F0DBBE20F050
:100C880037B900BF4379C06BDB0748BF81F001016A
:100C980009B928F0D7B928F0DBB900BF38B5A0F5F5
:100CA80017742379990745D4D80700D438BD94F828
:100CB8004832002BFAD194F849320133DBB2092BC0
:100CC80084F849326ED00A2BF0D194F84B52B4F81C
:100CD8005232002D00F0A680990503F0010200F1C0
:100CE800A880002A00F0A5801A46E36A5208002B63
:100CF80000F0A980D0B2216B984794F84B5201229A
:100D08000023954284F8493284F84822CED161798B
:100D180084F84B321140206C20F014FE226C1368CA
:100D280051791A6A8D4022EA05021A621A6A154335
:100D38001D6238BD94F84D226ABBD4E9095085423A
:100D480094F84C1246D0451CA369A5621B5C206927
:100D5800DBB285424FEA430328BFA26243F4007323
:100D68000A200122A4F8503284F84E0284F84D2259
:100D780011B161790D073FD45A08A4F8502203F045
:100D880001012046FFF77EFF94F84E222379013AAD
:100D980084F84E2288E794F94E22002A62D184F81A
:100DA8004D2281E794F84B32002B7FF47FAF94F803
:100DB8004A32082B3FF67AAFB4F85222012000FAE3
:100DC80003F101330A43D9B2082992B2F7D9A4F83A
:100DD800522238BD00297FF467AF627912077FF588
:100DE80063AF636CE06B53B31A7A27F023FE204697
:100DF800FFF7D4FD237957E7216CA06B0B684D7979
:100E0800196AAA4021EA02021A621A6A1A620021C1
:100E180027F09EFF002384F84C322046FFF728FF76
:100E2800237941E743F001029B05A4F852227FF59C
:100E38005CAFB4F856320133A4F856325FE719466E
:100E480027F086FFD3E7E3696169D2B2CA54E36940
:100E5800E16894F84B520133B3FBF1F201FB123312
:100E6800E3614CE7B4F8503286E700BF044B93F8CF
:100E78003420586A0AB928F0E5B828F0E9B800BF64
:100E8800B8210020044B93F83420586A0AB928F096
:100E9800DFB828F0D7B800BFB8210020174810B530
:100EA80002210246002303E00E2B08D092F82210FC
:100EB80011F0040F03F1010302F11C02F4D0C3EB9B
:100EC800C30300EB8303187927F0EEFC044618B13E
:100ED800112200238271C3712021204627F038FF98
:100EE8000A2027F0F1F8204628F0FAFB044B0028E6
:100EF8000CBF012202221A7010BD00BF684203080D
:100F08002088002070B4044600F16C06064D0FCD11
:100F18002D88258220606160A260E3601234B442AB
:100F2800F4D170BC704700BFE81C03082DE9F043FA
:100F3800012085B014F0EEFC294E2A4F0546002406
:100F4800002D3BD0022C39D8DC236343F35813B16E
:100F58000134E4B2F4E7032295F902000293019206
:100F6800EA7857F82220009201211A4614F090FBE3
:100F78008146C8B12B88DC2504FB056013F40F7883
:100F880005FB04F54FF0D8024FF0000100F1040012
:100F980018BF03F0010830F034FE7319013446F825
:100FA800059083F8DA80E4B20F49104891F83820A8
:100FB8008C46D3B2042B04D98CF8383005B0BDE880
:100FC800F08302F1010E00EBC20530F83220013344
:100FD800D207DBB202D581F83830B1E77246E8E7CC
:100FE80014640020583E0308B8210020A46A002099
:100FF8006C4B1B78002B38D070B56B4B6B4A9B79C8
:10100800D46BD063013B041B032B00F28480DFE820
:1010180003F04602312B2EF019FA654B654D19780D
:101028006B8801F0010100287BD06348634AD0ED4A
:10103800037A9360002940F08A8003FB04F007EEEE
:10104800900ADFED5F6A5F49B8EEE77AD2ED017A80
:10105800E7EE267AC1E90033BDEEE77AC2ED017A00
:1010680082ED007A81ED027A70BD564AC2E90033FA
:1010780093607047544B1B681B01F5D5FF201CF08B
:101088004BF818B103780A2B6FD9002003464D4A54
:101098004E499060C1E90003C2E9003370BD4C4A73
:1010A8004C4BD2794C4D33F81260B6B23046FFF74C
:1010B800A7FC07EE906AE860B8EE670A474826F092
:1010C800C7F8BCEEC00A10EE103A98B2FFF798FCC9
:1010D800E968D5ED017ADFED3A6A3A4B404AA860F3
:1010E80001FB04F407EE104AB8EEC77A1860E7EE81
:1010F800267A107859602228BDEEE77AC5ED017A84
:1011080017EE102A83ED027A85ED007AACD1354BC3
:101118009980DA8070BD2B4B0022C3E900229A60C7
:1011280070BD294A1268D2067FF57FAF234A9360C3
:10113800002982D0B5F900502B4900FB05F081FB4E
:101148000051C017C0EBA1100344936075E7FDEE92
:10115800E77A264E17EE900AA0F57A7000FB00F1A8
:10116800A6FB016100EB1110E4E7214A214B5188ED
:101178001A68D0ED027ADFED206A204C436802FB42
:1011880001F207EE102AF8EEE77AB8EE477AA4FBE8
:101198000121E7EE267A03EBD103FDEEE77A17EE9D
:1011A800900A74E7246A002048690020B8210020CA
:1011B8004884002044690020AC3900208C6A002053
:1011C8002FE33E31006A0020D8660020986A00208C
:1011D800FC6C00201C6D0020786A0020F82100209B
:1011E800886A00200C6A0020D34D62101F85EB51DD
:1011F800A4460020585B00207D219534CDCCCCCC72
:10120800F8B5424B5B79012B2FD0022B0ED0404B07
:1012180000221A603F4B1B78022B00D0F8BD3C4AD5
:101228003D4B5188128819805A80F8BD3B4B1B688A
:101238001B01EFD5FF201BF06FFF002862D0037859
:101248000A2B51D99FED360A0023364C201D6380A6
:1012580025F0FEFFBCEEC00A10EE103A9BB22380C8
:101268002B4A618851801380D4E72F4A2F4B9278FC
:101278002F4C33F812102F4F8DB207EE905A20469C
:10128800B8EE670A25F0E4FFBCEEC00A3978DFF84B
:10129800ACC07E781E4810EE103A40F6E44202FBDD
:1012A80001F29BB202FB05F102FB03F3ACFB032343
:1012B800ACFB011244F6FB71BD7801EB531301EB53
:1012C8005211C6EB0632B3FBF2F3B1FBF2F2B3FBF9
:1012D800F5F3B2FBF5F29BB292B224F8043C24F881
:1012E800022C0380428095E7B0F902201249D317F7
:1012F80081FB0212C3EBA2039BB207EE903AB8EE51
:10130800670AA2E7074C2388AAE700BF48690020BC
:10131800F8690020886A00200C6A0020D86600203E
:1013280000000000506A0020FC6C00201C6D0020AA
:101338002C6A00203C690020676666661F85EB51B1
:1013480070B5294D294C2A496A792A4E2A4804231E
:101358000B7084F8643000216423012A84F86D300E
:10136800A4F86610A4F8681084F86C10216731702E
:1013780001601ED0022A10D0A979204A0023012931
:10138800136084F87430C2E901331ED0022903D1F6
:101398001B4AC2E90033936070BD2822194830F017
:1013A80030FC44F620619FED180A18482AF03CFBEF
:1013B800E2E72822164830F024FC44F620619FED2D
:1013C800120A14482AF030FBD6E7134A9FED130A95
:1013D8001360C2E90133D360114844F62061BDE8C7
:1013E80070402AF021BB00BF48690020B8210020C6
:1013F800256A0020246A0020F8690020006A00207D
:101408008C6A0020506A0020CDCCCC3D546A002064
:10141800286A00202C6A0020786A0020CDCCCC3EB7
:10142800F8210020F8B55A4A1378D90700D4F8BD36
:1014380023F00103137026F0F5FD564B564D9A78AC
:10144800A86702BB554B1B88002B43D1544A554B08
:101458001178186881F0010127F000FE524E534CB4
:1014680033782BB123781BB1514B1B68DA043AD57A
:10147800504B1B6800229B062270D8D40420BDE87C
:10148800F84014F08FBA1B79022BDBD04A4C237832
:101498000B2B18D801229A4040F6030112EA0106E4
:1014A800D0D112F4C06F0ED0093B012B0BD84520C8
:1014B8001EF042F8FF201EF03FF840481EF028F8C2
:1014C80030461EF039F83E4A3E4B12685A600B23EC
:1014D8002370B7E73C4B5A69002ABFD0196800222D
:1014E8000A605A74BAE7394B1F7826F09BFD3378A7
:1014F800002BBDD0EA68002ABAD100F51C50103084
:101508000A214FF47A72E86069752A61002F3BD08E
:101518003A4614212E4830F074FB2E4A1389012FC5
:10152800B3FA83F34FEA53132ED0B2F868100029A8
:1015380018BF0023022F27D0B2F8C810002918BFFF
:101548000023032F20D0B2F82811002918BF002348
:10155800042F19D0B2F88811002918BF0023052FCD
:1015680012D0B2F8E811002918BF0023062F0BD0BB
:10157800B2F84812002918BF0023072F04D0B2F888
:10158800A822002A18BF002383F001032B756FE7F8
:101598004884002060440020B8210020E463002033
:1015A800E6630020E86300203C6D0020FC4A002030
:1015B800D8660020104600205E440020CC4803086E
:1015C800585B002014370020EC630020266A0020B6
:1015D800CE210020506D00202DE9F04FDFF85CB2DD
:1015E8008D4EDBF87C2033688C4CCBF87C002DEDDD
:1015F8000C8B821A95B013440690336020466368BA
:10160800079298470890002800F0AE80DBF87C200D
:1016180033680699D4F8B450CBF87C109B1A0B4465
:101628000022336084F86320DFF81482002D40F034
:10163800F18698F81600B4F95010D4ED096A94EDC3
:10164800086AB4F95220B4F95430002800F07886BA
:1016580007EE901AB8EEE77A07EE902AF8EEE77AE6
:1016680037EE467A77EEE67A84ED0B7AC4ED0C7A9B
:1016780007EE903A94ED0A7A94F85E106848F8EE0E
:10168800E77A77EEC77AC4ED0D7A0FF015FF654B50
:101698001D78002D00F01086634B644FDFF880A1A1
:1016A800059339681B78D4ED077ACDF828800AF5B8
:1016B8008C690AF50366BAEC018A002501F000512D
:1016C800132BA84628EE278A0D4645D0062B08D1AD
:1016D800B0EE480A09932FF0CBFB554B23F81800BE
:1016E800099B1DB1B8F1000F04F00084B0EE480A60
:1016F800D4F8883448469847D4F8B830A9F57470B7
:101708009847D4F8583830469847D4F8C83806F17E
:10171800700098473D6805F00055B0EE408A08F122
:1017280001082A46002D41F09980059B1B78032B60
:1017380001F07E80B8F1030F8AED028A01F08B80F8
:10174800BAEC018AD4ED077A132B09F5A27906F1D0
:10175800240628EE278AB9D104EB48023449B2F8A6
:10176800502021F81820BCE72F4B0593314E1B78E9
:10177800D4ED0E7AD4ED0F6A94ED107A94F8AC2972
:1017880094F8B419C6ED017AC6ED026A86ED037ABB
:101798008BF890208BF8911052BBDBED254A264A36
:1017A800CBED257A77EEA47ADDED074ADBED263A14
:1017B8009BED274A92ED005A92ED026AD2ED015A4A
:1017C800CBED266AFAEEEF4A76EEA33A37EE044AF4
:1017D800A4EEA75AF0EE467AE4EEA35AE4EE247A91
:1017E80082ED005AC2ED015AC2ED027A8BED277ADA
:1017F800052B00F0E084DBF8A030099313B3581EE2
:10180800059BCBF8A0001B78012B00F0778415B05E
:10181800BDEC0C8BBDE8F08FBC880020644D002027
:10182800904D00208D310020886A0020D866002065
:101838000C6A0020B05A0020C0880020B82100207F
:10184800C05A0020D24ADBF8A4301278511ECBF8D7
:10185800A010002B00F00784013BCBF8A430CD4B3F
:101868000893059B1A78052A00F0248400230A931C
:10187800C94BCA491B7809680F4623B9C84B1B785E
:10188800002B40F08386C74B2B2AD3ED009A01F03A
:101898005F84C54AC54BD2ED007A93ED006A9FED8F
:1018A800C4AAC44BDFF86493D3ED006AC24BDFF8D7
:1018B8006083B3F800A0DFEDC1AA9FEDC1CADFEDD8
:1018C800C1BA9FEDC1BAC14C0796B7EE007A77EE60
:1018D800677AB0EE4ADA67EE867A0025F4EEC77AC0
:1018E800F1EE10FA88BFF0EE477AF4EECA7AF1EE1C
:1018F80010FAB8BFF0EE4A7A67EEA67A67EEA99AB0
:10190800B34BAE003344D3ED007A089BF5EE407A32
:101918003344F1EE10FAD3ED00CA17D0AD4B33447F
:1019280093ED007A7CEEC76AB0EEE66AF4EEC67A0A
:10193800F1EE10FA08D5F5EEC06AF1EE10FACCBF58
:1019480077EE87CA77EE67CAC3ED00CA40F6030C84
:101958001AEA0C0C00F06983022D00F0698397F8ED
:101968002D209D4B07EE902A334493ED007A534285
:10197800F8EEE76A07EE903A26EE877AF8EEE77A0D
:10198800B4EEE77AF1EE10FA0AD407EE902AF8EEF0
:10199800677AF4EEC77AF1EE10FA88BFF0EE477A6C
:1019A8008E4B8F4903EB450331F91520B3F90C3001
:1019B800D21A07EE102A40F60103B8EEC77A1AEADF
:1019C800030FE7EE6A7A00F0D982864BD3ED00CA9E
:1019D80067EEACCA079B9BF8C4009BF8C52033444C
:1019E80093ED018A002800F02582002A00F0A381E7
:1019F8003CEEC88A97F852107B4BDBF8D02006984B
:101A08001B68821A9A423DDD022901F06984774BEE
:101A1800022D186840F07F83754BD3ED007AB1EE44
:101A2800677AB4EEC87AF1EE10FA00F33E86B4EEA7
:101A3800E78AF1EE10FA88BFB0EE678A824284ED39
:101A480001DA40F38A836B4B1B68980740F13686AE
:101A58006349624BB1F90020B3F90CC06648A2EBA8
:101A68000C02002A0068B8BF524282420ADAB1F971
:101A78000220B3F90E30D31A002BB8BF5B4298424C
:101A880002F3AB845D4BF0EE6C1A1B68B0EE4D1A96
:101A9800F0EE690AB0EE480A29463846984797F8A2
:101AA80052302BB9444BB3F800A01AF4006F10D091
:101AB8009BF8903053B9524B9BF8C5201B7813F014
:101AC800010340F02B87002A40F074873A4BB3F8A3
:101AD80000A0BAF1000F00F0B58184ED03DA9BF89D
:101AE8009130E9EC01CA4BB1022D84ED01DA05D041
:101AF80084ED00DA84ED02DA84ED03DA9BF8D43061
:101B0800002B40F0F281B0EE4A6A84ED00DA84EDF1
:101B180001DA84ED02DA84ED03DAD4ED007AD4ED4B
:101B2800016A94ED027A77EEA67A013577EE877A24
:101B3800032D77EE867A08F12408C4ED047A04F1BF
:101B480014047FF4DDAE059B079E1B78052B01F07E
:101B58003D832B4B93F8008018F0010804D0294BE3
:101B68001B78D90640F15085274C059B1B7800222D
:101B7800202BCBF8D82000F0A086012B01F02E8373
:101B8800052B00F004861E4B93F8008042E000BF4E
:101B980056330020BC8A00206C8900206C4200204B
:101BA8004D8A0020500800209C8700204089002092
:101BB80000000000A86B0020C6480020CDCCCC3D1A
:101BC8006F12033B00007A4400007AC47039002089
:101BD8003489002070220020E08A00206031002033
:101BE800884800201C8900204C8900204889002052
:101BF80064890020D0480020508900207089002086
:101C080048840020204B0020FC4A00206422002049
:101C1800AC6B00204FF0000908F001082378002B76
:101C280040F0C285BD4BBE4F1C683B68BD4A94F866
:101C38004A5092ED038ADFF838A3DB0440F1DC86D2
:101C4800BAF81260B8F1000F01D1ABF8E8601821BA
:101C5800B54829F09DFA20B9B44B1A7B002A02F046
:101C68003382BAF81430A3F57A7303EBD373C3F352
:101C78004F03F21A1E4492B2B6B207EE902AF8EE5B
:101C8800E77AC6F5FA61A2F57A7306EE901A07EEBE
:101C9800103AF4EEC87AF1EE10FAB8EEC77AF8EE18
:101CA800E66A9BF9EA1083F2F88107EE906AF8EE8B
:101CB800E77AF4EEC87AF1EE10FA42F27080BBF8D7
:101CC800E830934204D8994B1B7B002B03F04582E4
:101CD8009BF8FC30002B43F04082954A954BD2ED9F
:101CE800007A93ED007ACBED3B7A37EE676A0129EB
:101CF800CBED397A8BED386A8BED3C7A04F01181A3
:101D0800069BCBF8F43000220123B0EE667ACBF8BC
:101D1800F8208BF8EA30884ADBED3E7A92F80080AA
:101D28007E4A1468854A002353609361D36208F0A1
:101D3800010800F07FBEBCF1000F40F0DC81804B51
:101D48008049DFF830A231F91510DFF82CE25AF893
:101D580006C0DEED006A03EB4503F5EEC0CAB3F931
:101D68000C30C91A07EE901AB8EEE70AF1EE10FA2D
:101D780020EE2A0AB7EE007AFFEE007AB5EEC00A26
:101D8800D4BFF0EE675AF0EE475ACCBF01234FF0AC
:101D9800FF33F1EE10FAC8BFF0EE477ACCBF01214D
:101DA8004FF0FF31B0EEC07ABCF1000F03D09C4574
:101DB80010D04AF80620B4EEE67AF1EE10FA42F3B3
:101DC80023808B4242F020804AF806300246002BDE
:101DD80002F01A80F0EE40CAD7EEA6CA5A49D1EDF1
:101DE800007A6CEEA7CAF0EE4D8AF4EEEBCAF1EE7B
:101DF80010FA88BFF0EE6BCAF4EECBCAF1EE10FA17
:101E0800B8BFF0EE4BCA002A43F080814F4A1278DF
:101E1800954240F07081059A1278272A00F0518186
:101E2800022D40F068819BF89130002B44F0C88463
:101E38009BF8C5203CEEC88A002A3FF423AE97F8E9
:101E48005210D9E5424B03EB051393ED039AB5EE17
:101E5800C09AF1EE10FA7FF740AE3E4BD3ED007A10
:101E6800F5EEC07AF1EE10FA47DCB7EE008A3A4B8D
:101E7800D9ED008A1E78B5427CEEE88A00F0E5804C
:101E8800364B1B7853B1364B1B78012B00F08185FC
:101E9800022B00F08882B54200F0AE82314A324B04
:101EA800D2ED007A1B7829EE279A29EE088A68EE87
:101EB800288AC4ED038A002B3FF411AED4ED007AD2
:101EC80028EEA77AB5EEC07AF1EE10FA7FF707AEE2
:101ED800F0EEE88AF0EEE77AF4EEE78AF1EE10FA2F
:101EE8007FF7FBAD84ED00DAF9E59BF89030002B25
:101EF8007FF409AE94ED036A0FE61C4B1E4496ED81
:101F0800008A27EE888AF7EE007AB4EEE78AF1EEC7
:101F180010FA88BFB0EE678AA9E700BF6C420020BC
:101F2800D8660020AC390020E0360020148A002052
:101F38000C8A0020103700204884002070390020C7
:101F48006031002088480020808900207C8900209A
:101F58006887002018890020A56B0020A76B002047
:101F6800A66B0020AC8700206D890020EC8A002039
:101F7800D86800208022002074890020B34AB1F973
:101F8800003092ED007AD2ED016AB1F90210B04A40
:101F9800F4EEC76AF1EE10FAB4BFB0EE476AB0EEDD
:101FA800666A002BB8BF5B420029B8BF49428B4222
:101FB800B8BF0B4607EE103A1378A64AB8EEC77AB0
:101FC80092ED005A27EE2A7A002B00F0FE80B5EE3B
:101FD800C05AF1EE10FA40F3E4839F4BD3ED004A68
:101FE800F5EEC04AF1EE10FA40F3DB8334EEC77A1F
:101FF800DFED9A5AC7EE246A66EE255AB7EE007AE4
:1020080085EE856AF4EEC76AF1EE10FA88BFF0EE45
:10201800476AF5EEC06AF1EE10FA36EE077AB8BFF5
:10202800F0EE4D6A26EE877AF7E0022D7FF4D2AC07
:102038009BF891309BF8C520002B079B334493ED08
:10204800018A18BFF0EE4DCAF4E6059B1B78282BD1
:102058007FF416AF9FED820A28EE800A2EF008FF63
:10206800804B58800CE7804B997919B19B78012BEC
:1020780001F0C1867D4B9B789BB17D4A7D4BB2F9BF
:1020880006209B8A9A420CDC7B4B1B780E2B08D0CF
:10209800082B06D079497A4A0891002393608B600F
:1020A80001E0764B08932DF049FC059B1A78052A28
:1020B8007FF4DCAB25F0B6FF059B0A901A78FFF792
:1020C800D7BBB2EE049A20EE090A0B932EF0D0FE8D
:1020D800DFF890A10B9BAAF80230B0EE6C0AAAF8C0
:1020E80000002EF0C5FE28EE890AAAF804002EF09A
:1020F800BFFEAAF806003CEEC88AC3E4614B624AF8
:1021080019681288574BC96919805A8015B0BDECF7
:102118000C8BBDE8F08F5D4B1B689B0740F1C982B3
:102128005B4B5C49DFF88CA131F915E0DAED00CAA8
:1021380084ED01DA03EB450C6CEEAACABCF90CC0BD
:10214800ACEB0E0C07EE90CAF8EEE77A824267EE27
:10215800ACCA3CEEC88A3FF77DAC4F4B93ED007A92
:10216800F7EE007AB4EEE77AF1EE10FA7FF58AAC72
:10217800079A4A4BD2ED017A93ED007AF0EEE77AAE
:10218800F4EEC77AF1EE10FA7FF57CACD2ED027A64
:10219800F0EEE77AB4EEE77AF1EE10FA7FF772AC78
:1021A800D2ED037AF0EEE77AB4EEE77AF1EE10FAC0
:1021B8003FF749AC66E425F035FF069BDFF8A490AD
:1021C800C01AA9F80000FFF716BB354BDFED356ADA
:1021D800D3ED005AF4EEE65AF1EE10FA0FD5F7EE09
:1021E800004A34EEE54ADFED306ADFED304A36EE7C
:1021F800C77A64EE244AE4EE875A25EE255AB5EEEE
:10220800C05AF1EE10FA40F2CC829FED157AC7EE73
:10221800056AB7EE007AA6EE667AB7EE006AB4EE03
:10222800C67AF1EE10FA88BFB0EE467AB5EEC07AFB
:10223800F1EE10FAB8BFB0EE4D7A1D4BD3ED006A3F
:1022480067EEA67AE7EE87CAFFF7C4BBEC8A0020E0
:1022580028890020248900202C8900200000C8C279
:102268000000C8420C6A0020C05A00203C370020F9
:1022780020460020D8680020D8380020BC8A0020DA
:10228800AC390020D43C002052330020D048002034
:1022980060310020884800209C8700205489002055
:1022A80030890020AE47813F00003443610BB63BC4
:1022B800208900201C890020DFF84893C64F09F5C3
:1022C8008C6609F5036AD4ED077AB9EC010AD4F8EB
:1022D800883420EE270A30469847D4F8B830A6F557
:1022E80074709847D4F858380AEB05009847BB4AE9
:1022F800D4F8C838501998473B689A0000F1C7824B
:1023080024356C2D89ED020A06F5A276DBD1B44B93
:102318003A6805931B7802F0005298F8161021B11C
:10232800B0490D78002D01F0B08498F819100029F3
:1023380040F0D681002A40F00782AB4EFFF718BA6A
:10234800A848007800287FF483A9606C0D1A002D36
:10235800B8BF6D42B5F5804F41F31D8507EE900A71
:10236800A16CB8EEE77A501A002837EE467AB8BF63
:102378004042B0F5804F84ED0B7A41F3088507EEB3
:10238800901AE16CF8EEE77A5A1A002A77EEE67AA4
:10239800B8BF5242B2F5804FC4ED0C7A41F3F484D1
:1023A8000B46FFF765B998ED027AD8ED067A98EDF5
:1023B800056AD8ED015AD8ED076A88ED066A67EE16
:1023C800277A98ED037AC8ED058AE5EE867AB54254
:1023D80098ED086AD8ED045AC8ED086AE7EE667AFF
:1023E80098ED007AE5EEC67AE8EE877AF0EE678A2D
:1023F800C8ED077A7FF452AD059B1B78282B7FF434
:102408004DAD9FED7A0A28EE800A2EF031FD784B0B
:10241800988043E5724BB8F81C00734E059342F25E
:102428001077194607FB00F73368DFF8C491B7FB4C
:10243800F3F7B4F9503098F801200978B9F9060093
:10244800BD4207EE903A02F0C98494ED1B7AD4F8A5
:1024580088C0F8EEE77A0CF1010337EE277A012BF2
:10246800C4F8883084ED1B7A03F0BB84D4ED1E5A7F
:10247800D4ED206A07EE103A37EEE56AB8EEC75A8F
:10248800012D86EE057A37EE257A77EEC77A84ED48
:102498001F7AE6EE276A84ED1E7AF0EE667AC4EDBE
:1024A800216AC4ED206A02F0FF87B4F9523094ED36
:1024B8001C7A07EE903AD4F89C30F8EEE77A591C6B
:1024C80037EE277A0129C4F89C1084ED1C7A02F0B3
:1024D8002C86D4ED235AD4ED256A07EE101A37EE70
:1024E800E56AB8EEC75A012D86EE057A37EE257AE9
:1024F80077EEC77A84ED247AE7EE866A84ED237A4C
:10250800F0EE667AC4ED266AC4ED256A02F0F98712
:10251800B4F9543094ED1D7A07EE903AD4F8B030FF
:10252800F8EEE77A591C37EE277A0129C4F8B0107B
:1025380084ED1D7A02F08984D4ED285AD4ED2A6AF4
:1025480007EE101A37EEE56AB8EEC75A012D86EE87
:10255800057A37EE257A77EEC77A84ED297AE6EEA2
:10256800276A84ED287AF0EE667AC4ED2B6AC4ED0A
:102578002A6A02F0F487A9F80600D4F8B420059B6B
:10258800013A1B78C4F8B420FFF7F2B8194BDBED19
:102598002A6A1B889FED186A1849A3F57A7307EE13
:1025A800903AB0EEE67AF8EEE77A27EE067AF7EE9A
:1025B800009AE7EE279A2B2AC1ED009A7FF469A9C1
:1025C8009FED0F0ADFF8289026EE800A2EF050FCC7
:1025D800A9F8020000F0BEBDD866002030560020E1
:1025E800886A002045000020B05A00200000C84238
:1025F8000C6A0020448900200AD7233C5008002098
:1026080000007A44904D0020AF4B5B78002B3FF4DC
:10261800ABAA9BF8D530AD4C002B7FF4A6AA237843
:10262800002B7FF4A2AA9BF8D630002B7FF49DAA3A
:10263800A74B1B68DA0603F17387A64B9FEDA67AB2
:10264800D3ED097AF0EEE77AF4EEC77AF1EE10FAF4
:1026580083F28286D3ED047AF0EEE77AF4EEC77A55
:10266800F1EE10FA83F27886D3ED0E7AF0EEE77A7F
:10267800F4EEC77AF1EE10FA83F26E860023CBF8F7
:10268800D830059B1B78202B7FF477AADBF8D8304D
:102698009249934A91F80080003318BF0123538070
:1026A8000123138008EA030809E1B0EE478AFFF71F
:1026B800C5B9824284ED01DA7FF74FAD894B1A889C
:1026C80000238BF8C530002A42F0DC86864A874B07
:1026D8001178186881F0010126F0C0FCFFF7D2B923
:1026E80094F8AC1951BBD4ED107AFDEEE77A17EEE9
:1026F800900A0028B8BF404294F8B459B8F91A10A3
:10270800002D01F0CD8407EE901ADFED796AB8EE5E
:10271800E77A07EE900A37EE667AF8EEE77AB4EED3
:10272800E77AF1EE10FA43F36180D4F8B019069D08
:1027380044F62060691A81427FF7FCAD002184F8D5
:10274800B419002A3FF4F9AD94F8B82994F8B919E6
:102758000132D2B2914284F8B82902F0F18394F898
:10276800BC2B002A3FF4E9AD102B01F0CF8694F87A
:10277800BD1B4FF00008062902F28B81DFE811F03B
:10278800AC1123113411EC0FB710DF126B1225F0C6
:1027980049FC524B93F80080814608F00108FFF786
:1027A8003DBA9FED547A48E5534C2578B8F1000FAF
:1027B80041F02280002D02F0AD84AA004F49504814
:1027C8002FF0FBF94F4B1B788BB14D4FDFF8488149
:1027D8000026F0B2D8F80030B7EC010A98472578FF
:1027E8000136AE42F5DB484B28461B689847059BE7
:1027F8001B78052B00F0B884444A1278002A7FF42D
:1028080003A8434CA278002A40F08585059B1B78D5
:10281800052B7EF4F9AF25F005FC0999304A059B94
:10282800401A1B78D080FEF7EFBF05F000552A4606
:10283800B0EE480A09922EF01BFB294B099A8AED43
:10284800028A03EB480CB8F1030F4FF003032CF88E
:10285800020C7EF475AFDDF828805EE50AF5196391
:10286800D3ED007AD4F8382937EE808A06F1E000F3
:1028780083ED008A9047B8F1010FB0EE408A03F06B
:10288800AD853D6805F000552A46FEF74EBF09F5AF
:10289800196393ED007A1F49D4F8382977EE007A46
:1028A8004819C3ED007A904724356C2D06F5A276B9
:1028B80089ED020A7FF407AD29E5094B1A604FF04C
:1028C8000009FFF7ABB900BF56330020FC4A0020CF
:1028D800D866002070390020000016444884002083
:1028E8000C6A0020E4630020E6630020E86300200F
:1028F8000000C84200000000266A0020683300205B
:10290800BC390020DC7B0020486D0020C545002034
:1029180060440020A0560020406D00202E4B93ED0F
:10292800007AF7EE007AB4EEE77AF1EE10FAC0F228
:102938006B84002A40F06B84284BD3ED007AB0EE0C
:10294800C00AB4EEE70AF1EE10FA7FF7BFA8244BED
:10295800D3ED007AB0EEC87AB4EEE77AF1EE10FA69
:102968007FF7B4A8089B1F493344D3ED007A91ED53
:10297800007AF0EEE77AF4EEC77AF1EE10FA7FF516
:10298800A5A801230699CBF8D0108BF8C53000F024
:1029980042BC154B03EBC503D3ED007A93ED017AE6
:1029A80078EEE78AE7EE287AF0EE678AC3ED007AD8
:1029B800FFF771BA0D4A8BF8C5301288002A42F029
:1029C80057830B4A0B4B1178186881F0010126F0E8
:1029D80045FBFFF77BB800BF9C8700205C8900207F
:1029E8005889002060890020186C0020E4630020CA
:1029F800E6630020E8630020E84BBAF8142093ED62
:102A0800007AE74B8BED3B7A07EE902A93ED006A4C
:102A1800E44B8BED397AF8EEE77A76EE476A78EE92
:102A2800677A93ED007ACBED386A01238BED3C6A27
:102A38008BF8EA30C7EE876A238D5A42B7EE007AE0
:102A4800F4EEC76AF1EE10FA07EE902AD64A88BF6C
:102A5800F0EE476AF5EEC06A9FEDD47A92ED045A1B
:102A6800F8EEE77AF1EE10FAB8BFF0EE476AB4EE86
:102A7800E75A07EE103AF1EE10FACBED3E6AB8EEDF
:102A8800477A00F15F83B4EEC75AF1EE10FA88BFB7
:102A9800B0EE475AC44B9FEDC66AD3ED094AF4EE2F
:102AA800E47AF1EE10FA25EE065A00F34E83B4EEFE
:102AB800E47AF1EE10FA98BFF0EE474ABA4BDFED30
:102AC800BC5A93ED0E6AF4EEC67AF1EE10FA64EE93
:102AD800A54A08DCB4EEC67AF1EE10FA8CBFF0EE27
:102AE800467AF0EE477AB34BDFEDB15A5B7867EE82
:102AF800A55A0BB9F1EE655A002D40F0C183F7EEE7
:102B0800003AAD4B1B681A7CC2B15B7C632B13D8AF
:102B180007EE903A9FEDA97AF8EEE77A012A67EE78
:102B2800877A01F06284022A06D1F4EEE76AF1EEB0
:102B380010FA88BFF0EE676ACBED3E6AA04B9BF8AF
:102B480091201B6803F40003002A40F08D839D4CFC
:102B58002578002D02F099829B499FED946AD1ED6A
:102B6800027A91ED014A91ED037A64EEA77AE5EED7
:102B7800047AE5EE877A63EEA77AF4EEC67AF1EE88
:102B880010FA8CBFB0EE464AB0EE674AC8BFB0EE46
:102B9800676A012DCDED0C7A00F0D98091ED067AA7
:102BA80091ED053AD1ED077A24EE877AA5EE037AFE
:102BB800A5EEA77A23EE877AB4EEC67AF1EE10FA7C
:102BC80000F3E782B4EEC74AF1EE10FA88BFB0EE20
:102BD800474A022D8DED0D7A00F0B98091ED0A7A01
:102BE80091ED093AD1ED0B7A24EE877AA5EE037AB6
:102BF800A5EEA77A23EE877AB4EEC67AF1EE10FA3C
:102C080000F32F83B4EEC74AF1EE10FA88BFB0EE96
:102C1800474A032D8DED0E7A00F0998091ED0E7ADA
:102C280091ED0D3AD1ED0F7A24EE877AA5EE037A6D
:102C3800A5EEA77A23EE877AB4EEC67AF1EE10FAFB
:102C480000F3A483B4EEC74AF1EE10FA88BFB0EEE1
:102C5800474A042D8DED0F7A79D0D1ED127A91ED96
:102C6800113A91ED137A64EEA77AE5EE037AE5EE70
:102C7800877A63EEA77AF4EEC67AF1EE10FA01F3DA
:102C88000080B4EEE74AF1EE10FA88BFB0EE674A6A
:102C9800052DCDED107A5AD0D1ED167A91ED153A71
:102CA80091ED177A64EEA77AE5EE037AE5EE877A76
:102CB80063EEA77AF4EEC67AF1EE10FA01F35C80BF
:102CC800B4EEE74AF1EE10FA88BFB0EE674A062D77
:102CD800CDED117A3BD0D1ED1A7A91ED193A91EDFB
:102CE8001B7A64EEA77AE5EE037AE5EE877A63EE5F
:102CF800A77AF4EEC67AF1EE10FA01F34180B4EE49
:102D0800E74AF1EE10FA88BFB0EE674A072DCDED1D
:102D1800127A1CD0D1ED1E7A91ED1D3A91ED1F7AF1
:102D280064EEA74AE5EE034AE5EE874A63EEA43A65
:102D3800B4EEE36AF1EE10FA02F1DA81B4EEE34A96
:102D4800F1EE10FA88BFB0EE634ACDED133A76EE95
:102D5800447A1E4A127872B91D4A92ED007A92EDB1
:102D6800015A76EEC75AA5EE257A76EEC75A82ED55
:102D7800007ACBED2A5A174A9FED0C5AD2ED005A29
:102D8800F4EEC55AF1EE10FA42DD134A92ED007ADC
:102D980092ED013A76EEC73A20E000BF0C370020EA
:102DA80010370020248A002070390020000000001D
:102DB8006F12833AD8380020CC4800200AD7233C29
:102DC800E0360020266A00208C8900206C890020CB
:102DD800108900206889002004890020F7EE004A45
:102DE800A3EE237A76EEC73A82ED007AE5EEA36A7F
:102DF800F4EEE46AF1EE10FA88BFF0EE646AF4EEDD
:102E0800C56AF1EE10FAB8BFF0EE456ACBED3E6A3E
:102E1800F7EE005AE04AF4EEE57AF1EE10FAC2ED68
:102E2800007A40F38E87FDB385EEA77A012DDDED9C
:102E38000C7A67EE877ACDED0C7A35D0DDED0D7A18
:102E480067EE877A022DCDED0D7A2DD0DDED0E7A65
:102E580067EE877A032DCDED0E7A25D0DDED0F7A5A
:102E680067EE877A042DCDED0F7A1DD0DDED107A4F
:102E780067EE877A052DCDED107A15D0DDED117A44
:102E880067EE877A062DCDED117A0DD0DDED127A39
:102E980067EE877A072DCDED127A05D0DDED137A2E
:102EA80027EE877A8DED137A002B00F07282F6EE0A
:102EB800006ACBED3E6A002D00F03A81B748B84E63
:102EC80090ED006A9BF9EA003688B6499BED3B7A9B
:102ED8003A68DBED3C5AB44FBAF814E0C9783F7849
:102EE800DBED384A9BED395A07EE900ABDEEC64A2B
:102EF800AE4814EE10CAB0F906A0BDEEC74A06F4F3
:102F08000060079002F4805602F0100002F480027C
:102F18000892F8EEE77A14EE102AFDEEE55A002939
:102F280040F05883A249002840F05C8291ED007A75
:102F38009DED0C6A26EE877AA7EE867AB0EE456A92
:102F4800A4EE876ABDEEC67A17EE103A9A4240F3AD
:102F58008687B0EE447AB8EEC77A964B012D83ED9A
:102F6800007A00F0DD8091ED047A9DED0D6A26EE81
:102F7800877AA7EE867AB0EE456AA4EE876ABDEE38
:102F8800C67A17EE100A824202F3CB8015EE906AD9
:102F9800B042A8BF304607EE100AB8EEC77A022D35
:102FA80083ED017A00F0BC8091ED087A9DED0E6A00
:102FB80026EE877AA7EE867AB0EE456AA4EE876A8F
:102FC800BDEEC67A17EE100A824202F3008115EEB2
:102FD800906AB042A8BF304607EE100AB8EEC77A2A
:102FE800032D83ED027A00F09B8091ED0C7A9DED24
:102FF8000F6A26EE877AA7EE867AB0EE456AA4EEC7
:10300800876ABDEEC67A17EE100A824202F348823A
:1030180015EE906AB042A8BF304607EE100AB8EE27
:10302800C77A042D83ED037A7AD091ED107A9DED5D
:10303800106A26EE877AA7EE867AB0EE456AA4EE85
:10304800876ABDEEC67A17EE100A824202F3A4829E
:1030580015EE906AB042A8BF304607EE100AB8EEE7
:10306800C77A052D83ED047A5AD091ED147A9DED37
:10307800116A26EE877AA7EE867AB0EE456AA4EE44
:10308800876ABDEEC67A17EE100A824202F3A5835C
:1030980015EE906AB042A8BF304607EE100AB8EEA7
:1030A800C77A062D83ED057A3AD091ED187A9DED11
:1030B800126A26EE877AA7EE867AB0EE456AA4EE03
:1030C800876ABDEEC67A17EE100A824202F3A7831A
:1030D80015EE906AB042A8BF304607EE100AB8EE67
:1030E800C77A072D83ED067A1AD091ED1C7A9DEDEB
:1030F800136A66EE876AE7EE866AA4EEA65AFDEEC4
:10310800C57A17EE901A914204DB15EE902A8A428E
:10311800A8BF0A4607EE902AF8EEE77AC3ED077AC9
:10312800B8F1000F04D1AA00234922482EF045FD2A
:10313800224B1B78002B3FF45AAB002D7FF445AB94
:10314800FFF751BBB0EE675AA4E4F0EE674AB5E466
:10315800DFF870909FED1A0A29EE800A2DF088FE9C
:10316800A9F80000FEF795BB24F05CFF059B154A03
:103178001B78A0EB0900052B908040F0C28024F05A
:1031880051FF114B09901B78002B3FF43AABFFF726
:103198003DBBB0EE476A1CE59C870020848900206F
:1031A800C6480020884400203C6D002020460020AE
:1031B8008C890020BC39002068330020DC7B00208B
:1031C80000007A440C6A0020C545002024F02AFF3C
:1031D8000A9A724B801A5880FEF7BBBC24F022FF73
:1031E8006F4ADBF8DC3012686C4981466D48CBF8D1
:1031F800DC90A9EB030390F800808B809A1ACA80B0
:1032080008F00108FEF70ABD002A3EF45FACDBF8BF
:10321800D020069B9A1A644B1B6893427EF756ACE3
:10322800624BD3ED007AB0EEC88AB4EEE78AF1EECD
:1032380010FA0ED4089B5E4A3344D3ED007A92ED1F
:10324800007AF0EEE77AF4EEC77AF1EE10FA7EF73C
:103258003DAC002318468BF8C53025F007FFFEF774
:1032680035BCB0EE476AD4E4002B7FF470AC3A6802
:1032780054023FF56CACF6EE006ACBED3E6A66E4AC
:103288004C4B5A79002A3FF43AAC4B4A1278002A40
:103298003FF435AC1B789FED494A07EE903A484B0E
:1032A800B8EE677A1B8807EE902A06EE103AF8EE19
:1032B800E77AB8EE466A67EE277AB7EE007AC7EE85
:1032C800863AF4EEC43AF1EE10FA88BFF0EE443ACA
:1032D800F4EEC73AF1EE10FAB8BFF0EE473A10E450
:1032E800384B1B88002B41F05B87374A374B1178E6
:1032F800186825F0B3FEDBF8D020069B9A1AFEF773
:1033080086BB334A1278002A7EF47EAA314CA27812
:10331800002A3EF479AA304D2B78013B0A2B21D89C
:10332800DFE813F0A109F109BD09380920002000E0
:103338006A0957097F092209050920F097FD064601
:1033480070B1264F3B68984203F01C82D7F8DC30F6
:103358009E4203F0F081D7F8B8319E4203F0D18144
:103368000DF056FE2379012B01F05180022B7FF4DA
:103378004DAA2B78012B7FF449AA194B1B78002BF7
:103388007FF444AA0DF086FFFFF740BAB0EE476A13
:103398005FE43A6850023FF58AAD8CE50C6A00207C
:1033A800F86A0020488400204C89002058890020B1
:1033B8006089002048690020246A0020713DAA3FE6
:1033C800F8690020E4630020E6630020E863002039
:1033D800C5450020604400205E440020146400209D
:1033E800E9380020002E01F01B8791ED007A9DED51
:1033F8000C6A26EE877AA7EE867AB0EE456AA4EEC6
:10340800876ABDEEC67A17EE103A9A4240F35386A1
:1034180007EE102AB8EEC77AF54B012D83ED007A36
:103428003FF47EAE91ED047A9DED0D6A26EE877A23
:10343800A7EE867AB0EE456AA4EE876ABDEEC67A34
:1034480017EE100A824201F3BE8615EE906AB0426A
:10345800A8BF304607EE100AB8EEC77A022D83EDF2
:10346800017A3FF45DAE91ED087A9DED0E6A26EE85
:10347800877AA7EE867AB0EE456AA4EE876ABDEE33
:10348800C67A17EE100A824202F3068015EE906A99
:10349800B042A8BF304607EE100AB8EEC77A032D2F
:1034A80083ED027A3FF43CAE91ED0C7A9DED0F6A04
:1034B80026EE877AA7EE867AB0EE456AA4EE876A8A
:1034C800BDEEC67A17EE100A824202F3618015EE4D
:1034D800906AB042A8BF304607EE100AB8EEC77A25
:1034E800042D83ED037A3FF41BAE91ED107A9DED28
:1034F800106A26EE877AA7EE867AB0EE456AA4EEC1
:10350800876ABDEEC67A17EE100A824202F361811D
:1035180015EE906AB042A8BF304607EE100AB8EE22
:10352800C77A052D83ED047A3FF4FAAD91ED147A4C
:103538009DED116A26EE877AA7EE867AB0EE456A87
:10354800A4EE876ABDEEC67A17EE100A824202F32D
:10355800528115EE906AB042A8BF304607EE100AB5
:10356800B8EEC77A062D83ED057A3FF4D9AD91ED13
:10357800187A9DED126A26EE877AA7EE867AB0EE63
:10358800456AA4EE876ABDEEC67A17EE100A824233
:1035980002F34E8115EE906AB042A8BF304607EE9E
:1035A800100AB8EEC77A072D83ED067A3FF4B8AD56
:1035B80091ED1C7A9DED136A66EE876AE7EE866ADE
:1035C800A4EEA65AFDEEC57A17EE901A8A423FF786
:1035D800A1AD9AE58749002800F06484002E02F026
:1035E8003782002F42F02A8191ED007A9DED0C6A16
:1035F80026EE877AA7EE867AB0EE456AA4EE876A49
:10360800BDEEC67A17EE103A9C4502F3548415EEC7
:10361800902A9342A8BF134607EE103AB8EEC77A2D
:10362800734B012D83ED007A3FF47AAD91ED047A66
:103638009DED0D6A26EE877AA7EE867AB0EE456A8A
:10364800A4EE876ABDEEC67A17EE102A944502F3F7
:103658005B8415EE900A8242A8BF024607EE102A44
:10366800B8EEC77A022D83ED017A3FF459AD91ED9A
:10367800087A9DED0E6A26EE877AA7EE867AB0EE76
:10368800456AA4EE876ABDEEC67A17EE102A9445FD
:1036980002F3678415EE900A8242A8BF024607EE3D
:1036A800102AB8EEC77A032D83ED027A3FF438ADBD
:1036B80091ED0C7A9DED0F6A26EE877AA7EE867A51
:1036C800B0EE456AA4EE876ABDEEC67A17EE102AF8
:1036D800944502F3778615EE900A8242A8BF024607
:1036E80007EE102AB8EEC77A042D83ED037A3FF46B
:1036F80017AD91ED107A9DED106A26EE877AA7EE48
:10370800867AB0EE456AA4EE876ABDEEC67A17EEF1
:10371800102A944502F3898615EE900A8242A8BFC2
:10372800024607EE102AB8EEC77A052D83ED047A13
:103738003FF4F6AC91ED147A9DED116A26EE877A86
:10374800A7EE867AB0EE456AA4EE876ABDEEC67A21
:1037580017EE102A944502F3848615EE900A8242E9
:10376800A8BF024607EE102AB8EEC77A062D83EDE9
:10377800057A3FF4D5AC91ED187A9DED126A26EEE4
:10378800877AA7EE867AB0EE456AA4EE876ABDEE20
:10379800C67A17EE102A944502F3798615EE900A38
:1037A8008242A8BF024607EE102AB8EEC77A072D54
:1037B80083ED067A3FF4B4AC91ED1C7A9DED136A63
:1037C80066EE876AE7EE866AA4EEA65AFDEEC57A2B
:1037D80017EE902A944504DC15EE90CA9445A8BFCC
:1037E800944607EE90CAB8EEE74A83ED074A97E495
:1037F800BC3900208C890020E44AE54BD2ED017ADF
:1038080093ED006A92ED005AD3ED016A92ED027AC7
:10381800E04A93ED024A5178F5EEC07AF1EE10FADB
:10382800B5EEC05A26EE065AF7EE007AA6EEA65A6C
:10383800FFEE005A54BFF0EE654AF0EE674AF1EE2B
:1038480010FAB5EEC07A54BFB0EE657AB0EE677A7A
:10385800F1EE10FA54BFF0EE653AF0EE673A58BF51
:10386800F0EE675AF1EEC57A0029B4EEE66A18BFA1
:10387800F0EE635AF1EE10FAB4BFF0EE663AF0EEED
:10388800463AF4EEC43AF1EE10FA9FEDC35A4ABF35
:103898009FEDC27ADFEDC15AF0EE447A27EE855AE1
:1038A80036EE263A9FEDBE4AC3EE053A48BFF0EE23
:1038B800474AF4EEC43AF1EE10FA00F1D9829FEDCE
:1038C800B95ADFEDB66A9FEDB86A77EEC57AF4EEBD
:1038D800E67AF1EE10FAB8BFF0EE667A27EE866A5D
:1038E800002D01F017849378DFEDB06AB04ADBED64
:1038F800397AB04992ED004ADBED383A05EE103AD4
:10390800B8EE453AB3EE045A23EE263A37EE855A16
:10391800D1ED016A002B40F0E183D1ED022A91ED4F
:10392800033AA54B67EE266AE4EEA26AE5EE836ADF
:10393800B7EE003AF5EEC06AF1EE10FA48BFF0EEC5
:10394800446A66EE266AF4EEC36AF1EE10FA88BF9E
:10395800F0EE436AB0EE673AA3EEA63AB4EEC35A65
:10396800F1EE10FAF0EE436A9ABFB3EE043A76EE3F
:10397800C36AF0EE446A012DC3ED006A3EF422AF3B
:10398800D1ED056AD1ED062A91ED073A67EE266A70
:10399800E4EEA26AE5EE836AB7EE003AF5EEC06A95
:1039A800F1EE10FA48BFF0EE446A66EE266AF4EECD
:1039B800C36AF1EE10FA88BFF0EE436AB0EE673AD8
:1039C800A3EEA63AB4EEC35AF1EE10FAF0EE436A4B
:1039D8009ABFB3EE043A76EEC36AF0EE446A022D5B
:1039E800C3ED016A3EF4EEAED1ED096AD1ED0A2AC3
:1039F80091ED0B3A67EE266AE4EEA26AE3EE256AD9
:103A0800B7EE003AF5EEC06AF1EE10FA48BFF0EEF4
:103A1800446A66EE266AF4EEC36AF1EE10FA88BFCD
:103A2800F0EE436AB0EE673AA3EEA63AB4EEC35A94
:103A3800F1EE10FAF0EE436A9ABFB3EE043A76EE6E
:103A4800C36AF0EE446A032DC3ED026A3EF4BAAECF
:103A5800D1ED0D6AD1ED0E2A91ED0F3A67EE266A87
:103A6800E4EEA26AE5EE836AB7EE003AF5EEC06AC4
:103A7800F1EE10FA48BFF0EE446A66EE266AF4EEFC
:103A8800C36AF1EE10FA88BFF0EE436AB0EE673A07
:103A9800A3EEA63AB4EEC35AF1EE10FAF0EE436A7A
:103AA8009ABFB3EE043A76EEC36AF0EE446A042D88
:103AB800C3ED036A3EF486AED1ED116AD1ED122A48
:103AC80091ED133A67EE266AE4EEA26AE5EE836AA0
:103AD800B7EE003AF5EEC06AF1EE10FA48BFF0EE24
:103AE800446A66EE266AF4EEC36AF1EE10FA88BFFD
:103AF800F0EE436AB0EE673AA3EEA63AB4EEC35AC4
:103B0800F1EE10FAF0EE436A9ABFB3EE043A76EE9D
:103B1800C36AF0EE446A052DC3ED046A3EF452AE62
:103B2800D1ED156AD1ED162A91ED173A67EE266A9E
:103B3800E4EEA26AE5EE836AB7EE003AF5EEC06AF3
:103B4800F1EE10FA48BFF0EE446A66EE266AF4EE2B
:103B5800C36AF1EE10FA88BFF0EE436AB0EE673A36
:103B6800A3EEA63AB4EEC35AF1EE10FAF0EE436AA9
:103B78009ABFB3EE043A76EEC36AF0EE446A062DB5
:103B8800C3ED056A3EF41EAE1AE000BFE08A0020CD
:103B9800EC8A0020D8380020F304B53F000000006C
:103BA800D7B35D3F9A99193E9696963F0AD723BC9C
:103BB800848900208C890020BC39002000D8F9466F
:103BC800D1ED196AD1ED1A2A91ED1B3A67EE266AF2
:103BD800E4EEA26AE5EE836AB7EE003AF5EEC06A53
:103BE800F1EE10FA48BFF0EE446A66EE266AF4EE8B
:103BF800C36AF1EE10FA88BFF0EE436AB0EE673A96
:103C0800A3EEA63AB4EEC35AF1EE10FAF0EE436A08
:103C18009ABFB3EE043A76EEC36AF0EE446A072D13
:103C2800C3ED066A3EF4CEADD1ED1D6AD1ED1E2A74
:103C380091ED1F3A27EE267AA4EEA27AA5EE837AB2
:103C4800B5EEC07AF1EE10FA01D5B0EE447A26EE60
:103C5800077AF7EE006AB4EEE67AF1EE10FA88BF5A
:103C6800B0EE667AE3EE877AB4EEE75AF1EE10FA30
:103C78009CBFB3EE044A37EEC44A83ED074AFEF709
:103C8800A1BDB0EE676AFFF703B8D4ED0E7A94F8D9
:103C9800AC19D4ED076AFDEEE77A17EE900A002812
:103CA800B8BF404207EE900AF8EEE77A002940F0E4
:103CB800EB831FED3E6A94ED0F7A744D66EE866ACB
:103CC800BDEEC77AF4EEE76A17EE100AF1EE10FAC5
:103CD8004CBF012100210028B8BF404207EE900ADE
:103CE800F8EEE77A2D78F4EEE76AD4ED107AFDEE77
:103CF800E77AF1EE10FA17EE900A48BF41F0020198
:103D08000028B8BF404207EE900AF8EEE77AF4EED2
:103D1800E76AF1EE10FA48BF41F00401294200F0C9
:103D2800EE8301200021069DC4F8A85984F8AC0947
:103D380084F8B41998F8191000293EF4FBAAFEF784
:103D4800FDBC002B00F05583B1EE444AB4EEE64AC0
:103D5800F1EE10FA0ADCB7EE004A34EE464AB4EE49
:103D6800E64AF1EE10FA88BFB0EE664A8BED3E4A9D
:103D7800F0EE446AFFF79FB8B0EE676AFEF7A7BF98
:103D8800B0EE676AFEF7C2BFE364FDF771BCA264D8
:103D98001146FEF7F4BA61640846FEF7DFBA3C4AFA
:103DA8003C4B92ED007A93ED006A8BED3B7A76EE10
:103DB800475A01298BED397ACBED385A8BED3C6A9D
:103DC80001F01D85069BCBF8F430002378EE677A66
:103DD800BCEEC88A012218EE101ACBED3E7AB0EE7E
:103DE800667AABF8E8108BF8EA202B4A93423EF645
:103DF80021AEFDF790BF012A01F01585022A08BF00
:103E0800CBF8A430FEF736B92449F0EEC87A67EE4D
:103E18008C7A91ED007AB7EE006AF4EEC67AF1EE8C
:103E280010FA28EE077A88BFF0EE467AF0EE408A5C
:103E3800E7EE278AF5EEC08AF0EEE87AF1EE10FA9E
:103E4800F4EEE67ACCBF01214FF0FF31F1EE10FA23
:103E580002DD8B4201F050810023FDF7D4BF15EE3F
:103E6800900A8342A8BF034607EE103AFFF773B8DB
:103E7800B4EEE66ADFED0A6AF1EE10FAD8BFB0EEEA
:103E8800667A88BFF0EE664A19E500BF8C310020DB
:103E98000C8A0020103700208FD00300788900207A
:103EA80000000000002F41F07F8391ED007A9DED26
:103EB8000C6A26EE877AA7EE867AB0EE456AA4EEFB
:103EC800876ABDEEC67A17EE103A9C4501F3AD87B6
:103ED80015EE902A9342A8BF134607EE103AB8EEA3
:103EE800C77A7D4B012D83ED007A3FF419A991ED36
:103EF800047A9DED0D6A26EE877AA7EE867AB0EEF3
:103F0800456AA4EE876ABDEEC67A17EE102A944574
:103F180001F3998715EE900A8242A8BF024607EE80
:103F2800102AB8EEC77A022D83ED017A3FF4F8A87B
:103F380091ED087A9DED0E6A26EE877AA7EE867ACD
:103F4800B0EE456AA4EE876ABDEEC67A17EE102A6F
:103F5800944501F3AA8715EE900A8242A8BF02464B
:103F680007EE102AB8EEC77A032D83ED027A3FF4E4
:103F7800D7A891ED0C7A9DED0F6A26EE877AA7EE09
:103F8800867AB0EE456AA4EE876ABDEEC67A17EE69
:103F9800102A944501F39C8715EE900A8242A8BF27
:103FA800024607EE102AB8EEC77A042D83ED037A8D
:103FB8003FF4B6A891ED107A9DED106A26EE877A47
:103FC800A7EE867AB0EE456AA4EE876ABDEEC67A99
:103FD80017EE102A944501F3BC8715EE900A824229
:103FE800A8BF024607EE102AB8EEC77A052D83ED62
:103FF800047A3FF495A891ED147A9DED116A26EEA6
:10400800877AA7EE867AB0EE456AA4EE876ABDEE97
:10401800C67A17EE102A944502F38D8115EE900AA0
:104028008242A8BF024607EE102AB8EEC77A062DCC
:1040380083ED057A3FF474A891ED187A9DED126A24
:1040480026EE877AA7EE867AB0EE456AA4EE876AEE
:10405800BDEEC67A17EE102A944502F3BB8115EE21
:10406800900A8242A8BF024607EE102AB8EEC77A25
:10407800072D83ED067A3FF453A891ED1C7A9DED48
:10408800136A66EE876AE7EE866AA4EEA65AFDEE24
:10409800C57A17EE902A94453FF7A3ABFFF79CBB70
:1040A8008142BEF647A901210698C4F8B00984F8F0
:1040B800B419FEF73FB915EE900A8342A8BF03462C
:1040C80007EE103AFFF7A6B9DB88F21A1E4492B23F
:1040D800B6B2FDF7D2BD00BFBC39002091ED022A6F
:1040E800D1ED032AE24B67EE266AE2EE246AE5EE9A
:1040F800A26AF7EE002AF5EEC06AF1EE10FA48BFA0
:1041080066EE836A66EE866AF4EEE26AF1EE10FA0B
:1041180088BFF0EE626AF0EE672AE6EEA32AB4EEF4
:10412800E25AF1EE10FAF0EE626A9ABFF3EE042A50
:1041380076EEE26AF0EE446A012DC3ED006A3EF4C1
:1041480041ABD1ED056A91ED062AD1ED072A67EE5C
:10415800266AE4EE826AE2EEA56AF7EE002AF5EE38
:10416800C06AF1EE10FA48BF66EE836A66EE266A08
:10417800F4EEE26AF1EE10FA88BFF0EE626AF0EE51
:10418800672AE3EEA62AF4EEC52AF1EE10FAF0EE5D
:10419800626AA6BFF3EE042A76EEE26AF0EE446A9B
:1041A800022DC3ED016A3EF40DABD1ED096A91ED24
:1041B8000A2AD1ED0B2A67EE266AE4EE826AE5EE5A
:1041C800A26AF7EE002AF5EEC06AF1EE10FA48BFCF
:1041D80066EE836A66EE266AF4EEE26AF1EE10FA9B
:1041E80088BFF0EE626AF0EE672AE3EEA62AB4EE24
:1041F800E25AF1EE10FAF0EE626A9ABFF3EE042A80
:1042080076EEE26AF0EE446A032DC3ED026A3EF4EC
:10421800D9AAD1ED0D6A91ED0E2AD1ED0F2A67EEDC
:10422800266AE4EE826AE5EEA26AF7EE002AF5EE67
:10423800C06AF1EE10FA48BF66EE836A66EE266A37
:10424800F4EEE26AF1EE10FA88BFF0EE626AF0EE80
:10425800672AE3EEA62AB4EEE25AF1EE10FAF0EE7F
:10426800626A9ABFF3EE042A76EEE26AF0EE446AD6
:10427800042DC3ED036A3EF4A5AAD1ED116A91EDB0
:10428800122AD1ED132A67EE266AE4EE826AE5EE79
:10429800A26AF7EE002AF5EEC06AF1EE10FA48BFFE
:1042A80066EE836A66EE266AF4EEE26AF1EE10FACA
:1042B80088BFF0EE626AF0EE672AE3EEA62AB4EE53
:1042C800E25AF1EE10FAF0EE626A9ABFF3EE042AAF
:1042D80076EEE26AF0EE446A052DC3ED046A3EF418
:1042E80071AAD1ED156A91ED162AD1ED172A67EE5C
:1042F800266AE4EE826AE5EEA26AF7EE002AF5EE97
:10430800C06AF1EE10FA48BF66EE836A66EE266A66
:10431800F4EEE26AF1EE10FA88BFF0EE626AF0EEAF
:10432800672AE3EEA62AB4EEE25AF1EE10FAF0EEAE
:10433800626A9ABFF3EE042A76EEE26AF0EE446A05
:10434800062DC3ED056A3EF43DAAD1ED196A91ED3B
:104358001A2AD1ED1B2A67EE266AE4EE826AE5EE98
:10436800A26AF7EE002AF5EEC06AF1EE10FA48BF2D
:1043780066EE836A66EE266AF4EEE26AF1EE10FAF9
:1043880088BFF0EE626AF0EE672AE3EEA62AB4EE82
:10439800E25AF1EE10FAF0EE626A9ABFF3EE042ADE
:1043A80076EEE26AF0EE446A072DC3ED066A3EF443
:1043B80009AA91ED1D2AD1ED1E2AD1ED1F6A27EE1B
:1043C800027AA4EEA27AA5EEA67AB5EEC07AF1EE4C
:1043D80010FA48BF27EE037A39E4002318468BF811
:1043E800C53024F043FEFDF74DBB66EEA76AFEF725
:1043F800A3BB3A6851023FF5A7ACF6EE007AF4EE9B
:10440800E76AF1EE10FA3FF79FACFEF754BD2E783D
:10441800DFF86C80174B1B78DB0740F12F81DBF846
:104428000021D8F800309A4200F23481012E3EF47F
:10443800EDA9114C2378002B3EF4E8A90B2E0DD8DA
:104448000123B34040F6030213EA02070CD113F428
:10445800C06F03D0093E012E42F27E82074BD8F886
:1044680000205A600B232B7000232370FEF7CEB96F
:10447800BC39002048840020E93800201437002087
:10448800585B00200008ED461FED027A66EE876A49
:10449800F4EEE76AF1EE10FA41F3A381D4ED0F7A56
:1044A800FDEEE77A17EE901A0029B8BF494207EEE9
:1044B800901AF8EEE77AF4EEE76AF1EE10FA41F3B3
:1044C8009081D4ED107AFDEEE77A17EE900A002875
:1044D800B8BF404207EE900AF8EEE77AF4EEE76AD2
:1044E800F1EE10FA41F37D81D4F8A819069F4CF239
:1044F8005036791AB1427FF71DAC84F8AC5998F858
:10450800191000293DF416AFFEF7F6B823F08AFD1E
:10451800059B1B78102B05BFDFF8349294F8BD1B60
:1045280094F8BD1BA9F800108046FEF724B97C4B0F
:10453800DFF820825B68D8F80010C8338B4205D3B7
:104548001AF0D8FF00283EF40DAFA278032A02F033
:104558008E80267901239E422B703FF45BAF022E9A
:104568007EF454A9FEF709BF6E4B1B78002B01F0AF
:104578008D8416202AF064FF002841F087846A4B56
:104588001B78002B41F0828409232B700BF014FF59
:10459800FEF7E8BE1AF090FF644A0292A2F10C03FB
:1045A800292101930091A2F10A035021163A4920CA
:1045B8000CF05EFC00287EF4D5AE594B4FF0FF326C
:1045C800072618605A602E702379012B7EF41EA9E5
:1045D8001EE71AF071FF0BF025FF00283EF4C2AE6B
:1045E8001AF088FF00283EF4BDAE514A514B1268BC
:1045F8001A600A262E70E7E71AF05EFF4E4B052078
:1046080000210090A3F10802CDE9011153200CF01C
:104618002FFC00287EF4A6AE414B082618602E70A9
:10462800D2E716202AF00CFF0028AFD0434B1B8896
:10463800002BABD1424B45201E681AF07DFF0E209F
:104648001AF07AFF30460BF001FE069E30460BF05A
:10465800FDFD374A374B12681A6030460A232B7023
:104668000DF0CEF892E7374B1B78DA073EF565AECA
:104678002679012E7FF473AFDFF8D8802AF090FBFB
:1046880000283FF4CCAED8F8003003F59C5308332B
:10469800CBF80031012E7EF4B9A8FEF76EBE204F8C
:1046A800DFF8B0801AF008FF7B68D8F80020643380
:1046B8009342BEF457AE40201AF0E4FE00287EF480
:1046C80051AE3B68204EDFF884904FF040080DE073
:1046D8001AF032FFD9F800203B68013A0133B8F1EB
:1046E8000108C9F800203B6002F02F8033441B7E8C
:1046F8001846002BECD100224FF0FF3304263A6015
:104708007B602E7060E7DFF84C80054AD8F80030EF
:104718000E4953600326002313600B602E7053E785
:1047280014370020DB380020E9380020621D030818
:10473800F0360020EC360020401F03080037002028
:10474800FC36002048840020E41C0308CC4A0020E2
:104758000C6A0020585B0020D84A1146B1EC011AB7
:1047680092ED033AD1ED002AD2ED094AD2ED021AB0
:1047780092ED082AD2ED053A92ED074A92ED0B5ACE
:10478800D2ED0D5A92ED0F6AD2ED116A92ED137ABD
:10479800D2ED157A92ED049AD2ED068A92ED0A0AC4
:1047A800D2ED0C0A92ED0E8A62EEA22A23EE033AAB
:1047B80064EEA44AE1EE012A102BA1EEA13AE2EE42
:1047C800024A92ED101A92ED142AD2ED121A63EEF3
:1047D800A33A24EE044A25EE055A65EEA55A26EEBC
:1047E800066A66EEA66A27EE077A67EEA77AE9EE0A
:1047F800093AE2EE027AA8EEA84AA0EE005AE0EEE4
:10480800A05AA8EE086AE1EE016AA1EEA17AB1EE1B
:10481800E22AF1EEC32AB1EEE33AF1EEC43AB1EE80
:10482800E44AF1EEC54AB1EEE55AF1EEC65AB1EEE8
:10483800E66AF1EEC76AB1EEE77A02ED1E3A42ED9A
:104848001D3A02ED1C4A42ED1B4A02ED1A5A42ED8E
:10485800195A02ED186A42ED176A02ED202A42ED54
:104868001F2A02ED167AD2ED175A92ED196AD2ED87
:104878001B6A92ED1D7AD2ED1F7A92ED1E5A92EDC7
:10488800163AD2ED183A92ED1A4AD2ED1C4A65EE64
:10489800A55A26EE066A66EEA66A27EE077A67EE3E
:1048A800A77AE3EE035AA3EEA36AE4EE046AA4EE41
:1048B800A47AE5EE057AB1EEE55AF1EEC65AB1EE04
:1048C800E66AF1EEC76AB1EEE77A02ED155A42EDF3
:1048D800145A02ED136A42ED126A02ED117A01F0E0
:1048E800378694F8BD1B0131C9B284F8BD1B744AE0
:1048F8007448B2F800C0007807EE90CA421C0F2A2C
:10490800F8EE674A01F390840C2804EB800600F166
:104918000205DFED6D5A01F2BF8106F6D83600F2C6
:10492800F720D6ED007A089FB0EE656A04EB8000A8
:1049380000262EE027EEA77AB4EEE65A27EE277A6D
:1049480066EEA67AF1EE10FA36EEA64A05F10102F5
:10495800A7EEA67A27D4D0ED017A26EEA67AF4EE51
:10496800C47A67EE266A27EEA77AF1EE10FAE7EE28
:10497800876A08DD07EE102AB8EEC77A36EE266A8F
:10498800E6EE875A3E4602350E2D00F1080001F387
:104998008681D0ED006A37EEA75A26EEA67A002E59
:1049A800C8D027EE267AD0ED017A05EE105A67EEC8
:1049B800A76AB8EEC55A36EE076A66EEA76AE5EE4C
:1049C800075A6A1CD6E7D4F8C82BB4F8CC1B3F4862
:1049D8002BF07CFE059B1B78102B01F0D08594F8FA
:1049E800BD2B013284F8BD2B384AB4F8C05BD4F82B
:1049F800D41B1046B0EC016AD0ED007A77EEA77AA6
:104A0800F0EE006AB0EE677AA6EE267A013D02EB78
:104A1800C500D6EE267A08381031F6EE003A27EEB1
:104A2800237A67EEA37A82ED207AC2ED217A1032DA
:104A380090ED027A90ED036A52ED016A52ED027A26
:104A480051ED014A11ED025A37EE674A76EEC65A21
:104A580077EE277AE4EE845A013DA0F10800E5EEEE
:104A6800047A01F1080102F1080236EE267AE4EE32
:104A7800877AE5EE475A67EEA37A25EEA37AC2ED68
:104A88001C7A82ED1D7AD3D1102B01F09B8194F80A
:104A9800BD1B0F4E0F4A94F8BC0B0131A2FB01520B
:104AA8008D1A02EB55029208C2EBC2028A1A01382B
:104AB80084F8BD2B84F8BC0BFCF75ABEBC59002007
:104AC800983100209A310020000000003C59002055
:104AD800B05A002025499224B4F8C01BB648D4F82F
:104AE800C42B4FEA510E4FEA8E0600EB8105C90828
:104AF80006EB000300F0A08003EB011C1036A91997
:104B08000CF1100C1030103302F1100705F11006EB
:104B180056ED030A56ED041A10ED041A10ED030AB7
:104B280056ED014A56ED025A10ED025A10ED014AAF
:104B380011ED042A11ED033A11ED026A11ED017A23
:104B480053ED042A53ED033A53ED026A53ED017A0B
:104B580071EE218A30EE208A40ED048A00ED038A46
:104B680075EE258A34EE248A40ED028A00ED018A2A
:104B780072EE828A33EE838A43ED048A03ED038A58
:104B880076EE868A37EE878A43ED028A03ED018A3C
:104B980073EE633A71EE611A17ED033A30EE601A5C
:104BA80072EE622A23EE618A17ED042A21EE030AC7
:104BB80062EE630AA1EE028A1033634522EE821A7E
:104BC800E2EE830A00F1100007F11007A3EE831A42
:104BD80006F1100601F11001A1EE820A06ED078A1E
:104BE80006ED080A41ED080A01ED071A75EE655A47
:104BF80076EE666A34EE645A17ED066A77EE677ADF
:104C080017ED057A26EE674A25EE073A67EE653A0C
:104C180066EE864AE5EE063AA5EE863AA6EE874A9D
:104C2800E7EE874A06ED063A46ED053A01ED064AF3
:104C380041ED054A7FF46CAF1FFA8EF631465E48A7
:104C48001CF0B2FA31462846D4F8C42B1CF0ACFA52
:104C5800059B1B7818E794F8BE2B584E94F8381A21
:104C680001F28F27C1F12001CDB207EB42125FEAB2
:104C7800950C04EB820701F040844FEA0C1C0CF100
:104C8800100E4F484F49BE4407F1100212ED024A78
:104C980012ED035A12ED017A12ED046A50ED024A40
:104CA80050ED035A50ED046A50ED017A64EE244A3F
:104CB80065EE255A66EE266A67EE277A1032724547
:104CC80041ED024A41ED035A41ED046A41ED017A92
:104CD80000F1100001F11001D8D13B49364A674470
:104CE80001EB0C00624415F0030C1DD097ED007A1F
:104CF800D0ED007A67EE877ABCF1010FC2ED007A39
:104D080012D097ED017AD0ED017A67EE877ABCF17F
:104D1800020FC2ED017A07D097ED027AD0ED027A40
:104D280067EE877AC2ED027A94F8387A002F41F05C
:104D38009B82102B01F07D8394F8BD1BAAE694F8A2
:104D4800BE3B224D1D4EDFED220A316804EB4302C3
:104D580003EBC303B2F8442D00EE102A05EB8305DC
:104D6800B8EE400A284695ED058AD5F818A0D5F87A
:104D78001C902F6A1CF066FE059B85ED058A1B7842
:104D8800C5F818A0102BC5F81C902F6201F0D48329
:104D980094F8BE2B0F4994F8BD0B0132A1FB0251C8
:104DA800490801EB4101521AD2B2013084F8BE2BF6
:104DB80084F8BD0B52E700BF3C590020B05A0020D0
:104DC800AC3100204C5900209C310020A056002016
:104DD800F4FD343FABAAAAAA0AD7233CF8EEE77A37
:104DE80001234FF0000C9D42C4ED1B7AC4ED1F7ADD
:104DF800C4ED1E7AC4F820C0C4F880C0C4F8883056
:104E080000F0F987B4F9523007EE903A0121F8EE34
:104E1800E77A00238D42C4ED1C7AC4ED247AC4EDF0
:104E2800237A6362C4F89430C4F89C1000F0878138
:104E3800B4F9543007EE903AF8EEE77A00220123ED
:104E4800C4ED1D7AA262C4F8B0300023012DC4ED70
:104E5800297AC4ED287AC4F8A8307DF48CAB07EE23
:104E6800907AD4ED1D5AB8F914305FED256ADA4A04
:104E7800A9F80600B8EEE76A07EE103AC5EE867A9A
:104E8800D64B11781B680022B8EEC77AE7EE667A2F
:104E9800C4ED0A7A9A62C3E90B2229B1D04B1B6888
:104EA80033F400637DF469ABD4F88830012B40F308
:104EB800E787013B07EE903AD4ED216AB8EEE77A2E
:104EC800C6EE877AB1EEE77AD4F89C30012B8BEDE9
:104ED800217A40F3CF87013B07EE103AD4ED266ADA
:104EE800B8EEC77A86EE876AB1EEC67AD4F8B030E3
:104EF800012B8BED227A40F3AA87013B07EE103A8B
:104F0800D4ED2B5AB8EEC77AC5EE876AF1EEE65AA9
:104F1800B44B01209BED207A9FEDB35ACBED235A79
:104F2800E7EE077A77EE867A77EEA67AB1EEE77A39
:104F380067EE057AC3ED007A10F034FDFDF71DBB6E
:104F4800AA4D94F8386A95ED008AD5ED016A95ED79
:104F5800047A95ED090A95ED055AD5ED087AD5ED4F
:104F6800075A95ED066ADFF8B49205F1040868EE71
:104F7800266A05EB860CA6EE870A00210F2B95ED15
:104F88000A7AB9F904008CED200AA6EE857A84F82D
:104F9800B81967EEC07AA0EE657AE6EE867A85EDF6
:104FA800097AC5ED0A7A01F09683914BA9F80400B5
:104FB8004FF0000E1946C8F800E0D3ED004A41F85A
:104FC80050EB93ED015A93ED0B7AD3ED105AD3EDD4
:104FD800196AD3ED0C1A91ED001A93ED152A93ED89
:104FE8000F6AD3ED187AD3ED0E2A93ED0D3AD3ED6F
:104FF800173A93ED164AC3F804E068EE244A28EEFF
:10500800058A93ED115AE4EE875A9C461A4693EDA9
:105018001A7A059BE8EE016A06F1010E0EF01F0EE2
:10502800A1EEA45A1B7884F838EAA8EE027A26EE94
:10503800656A67EEE67AA5EEE25AA3EE246AA6EE62
:10504800E37AE8EE047A8CED105A05EB860C654697
:10505800CCED405A4FF00C0C82ED116AC5ED606A38
:1050680082ED197AC2ED1A7A84F8BCCBFDF77CBBC5
:10507800604A6149B2F800A04A69002A3CF429ADA7
:105088000A6813604B74FCF724BDDFED5C7AB0EE60
:10509800674AB0EE676AFDF75CBE594B594AD3EDD3
:1050A800006A594B92ED006A1B78CBED3B6A8BED99
:1050B8003C6A002B00F04E8276EE665A0131CBED49
:1050C800385ACBED396A00F0A583069BCBF8F4304B
:1050D800002377EEC87ABCEEC88AFF2218EE101AB1
:1050E800CBED3E7AABF8E8108BF8EA20FEF77DBEF0
:1050F800B0EE636AFDF729BEF0EE68CA434BD5EE01
:10510800A6CAD3ED007A6CEEA7CA002384ED01DAB3
:10511800FCF77CBE3E4B1B78002B7DF464ABFDF79F
:1051280066BB07EE102AFDF738BF0023012DC4ED3A
:10513800247AC4ED237AC4F894307DF4E9A907EE03
:10514800907AD4ED1C6AF8EEE77ABD4286EEA77A2B
:1051580084ED097A7DF4DCA96AE6294B294AD3ED66
:10516800007A294BD2ED006A1B78CBED3B7ACBED68
:105178003C6A002B00F0498336EEE76A4E1C8BED43
:10518800386ACBED397A00F03A86069BCBF8F430D2
:105198000022FF23CBF8F8208BF8EA30FCF7BBBDE0
:1051A80015494B69002B3CF432AC1A480B68B0F82F
:1051B80000C0194890FBFCF04FF0010C186081F812
:1051C80011C0FCF724BC07EE102AFEF745B907EE1C
:1051D800102AFDF703BF00BF8E310020D43C002009
:1051E80010460020F88800206F12833A20570020CC
:1051F80028570020C6480020EC630020000000006B
:105208000C370020108A00203C6D00208089002087
:10521800DC7B00200464002020A107000C6A002029
:10522800002B7EF4E2A891ED007A9DED0C4A26EE63
:10523800877AA7EE847AB0EE454AA4EE874ABDEE97
:10524800C47A17EE103A9A4200F3878615EE900A50
:105258008342A8BF034607EE103AB8EEC77AB8F102
:10526800000F41F02482CE4B012D83ED007A3DF4EE
:105278005AAF91ED047A9DED0D4A26EE877AA7EE96
:10528800847AB0EE454AA4EE874ABDEEC47A17EE9A
:10529800100A824201F39A8015EE906AB042A8BFC4
:1052A800304607EE100AB8EEC77AB8F1000F41F0A1
:1052B8001782022D83ED017A3DF435AF91ED087A1E
:1052C8009DED0E4A26EE877AA7EE847AB0EE454A1F
:1052D800A4EE874ABDEEC47A17EE100A824201F3A3
:1052E800968015EE906AB042A8BF304607EE100AC5
:1052F800B8EEC77AB8F1000F41F0E381032D83EDD2
:10530800027A3DF410AF91ED0C7A9DED0F4A26EE2E
:10531800877AA7EE847AB0EE454AA4EE874ABDEEB6
:10532800C47A17EE100A824201F39F8015EE906A44
:10533800B042A8BF304607EE100AB8EEC77AB8F1F7
:10534800000F41F0EF81042D83ED037A3DF4EBAEBD
:1053580091ED107A9DED104A26EE877AA7EE847AB1
:10536800B0EE454AA4EE874ABDEEC47A17EE100A9D
:10537800824201F37E8015EE906AB042A8BF3046A3
:1053880007EE100AB8EEC77AB8F1000F41F01E8296
:10539800052D83ED047A3DF4C6AE91ED147A9DEDAA
:1053A800114A26EE877AA7EE847AB0EE454AA4EE33
:1053B800874ABDEEC47A17EE100A824201F37C8058
:1053C80015EE906AB042A8BF304607EE100AB8EE54
:1053D800C77AB8F1000F41F05E82062D83ED057A99
:1053E8003DF4A1AE91ED187A9DED124A26EE877A2A
:1053F800A7EE847AB0EE454AA4EE874ABDEEC47A99
:1054080017EE100A824201F3888015EE906AB042C6
:10541800A8BF304607EE100AB8EEC77AB8F1000FF9
:1054280041F09182072D83ED067A3DF47CAE91ED33
:105438001C7A9DED134A66EE876AE7EE846AA4EE4D
:10544800A65AFDEEC57A17EE901A8A4204DC15EECC
:10545800902A8A42A8BF0A4607EE902AF8EEE77A11
:10546800B8F1000F3DF45AAE089A002A7DF456AE02
:10547800079A002A7DF452AEF245B8BFF0EE467A9C
:10548800FDF74CBE47494A69002A3CF4FBAA0A6862
:1054980013604B74FCF7F6BA07EE102AFDF7FDBF50
:1054A80007EE102AFDF7BBBD012B40F3A48407EEDD
:1054B80010CAB8EEC77AC7EE876AB1EEE68A132932
:1054C80017D042B107EE902AF8EEE77AF4EEC87AE0
:1054D800F1EE10FA2DD407EE907AD4ED1B6AF8EEAF
:1054E800E77ABD4286EEA77A84ED087A7CF4DDAFD0
:1054F80088E4B0EE480A08922BF0BAFC089A00B289
:10550800DFE701297FF71BAE07EE103AB8EEC77A3E
:10551800C7EE876AF1EEE67A002A3FF410AE07EE8E
:10552800102AB8EEC77AB4EEE77AF1EE10FA7FF5F2
:1055380006AEB8F81C10059BA9F8060042F21072D6
:1055480002FB01F11B783268B1FBF2F2C4F8B42017
:10555800FCF70EB976EEC65AF0EE466AAEE50129BA
:105568007FF77DAC07EE103AB8EEC77AC7EE876AC8
:10557800F1EEE67A002A3FF472AC07EE102AB8EE94
:10558800C77AB4EEE77AF1EE10FA7FF568ACD0E7A7
:1055980007EE102AFDF7A2BF07EE102AFDF75FBD40
:1055A800BC390020EC63002091ED006ADDED0C3A77
:1055B80026EE866AB0EE454AA7EEA36AA4EE864AAE
:1055C800B4EEC47AF1EE10FA00F32584BDEEC46A95
:1055D80016EE103A9C45C8BF06EE10CA40F31C846C
:1055E800B8EEC66A944B012D83ED006A3DF498AD80
:1055F80091ED046ADDED0D3A26EE866AB0EE454A75
:10560800A7EEA36AA4EE864AB4EEC47AF1EE10FAC5
:1056180000F30F84BDEEC46A16EE102A9445C8BF85
:1056280006EE10CA40F30684B8EEC66A022D83ED72
:10563800016A3DF475AD91ED086ADDED0E3A26EE8E
:10564800866AB0EE454AA7EEA36AA4EE864AB4EE8F
:10565800C47AF1EE10FA00F31E84BDEEC46A16EEA9
:10566800102A9445C8BF06EE10CA40F31584B8EE58
:10567800C66A032D83ED026A3DF452AD91ED0C6AC2
:10568800DDED0F3A26EE866AB0EE454AA7EEA36A2C
:10569800A4EE864AB4EEC47AF1EE10FA00F31C8444
:1056A800BDEEC46A16EE102A9445C8BF06EE10CAAD
:1056B80040F31384B8EEC66A042D83ED036A3DF403
:1056C8002FAD91ED106ADDED103A26EE866AB0EE48
:1056D800454AA7EEA36AA4EE864AB4EEC47AF1EE70
:1056E80010FA00F32C84BDEEC46A16EE102A944515
:1056F800C8BF06EE10CA40F32384B8EEC66A052D6B
:1057080083ED046A3DF40CAD91ED146ADDED113AB8
:1057180026EE866AB0EE454AA7EEA36AA4EE864A4C
:10572800B4EEC47AF1EE10FA00F38A85BDEEC46ACD
:1057380016EE102A9445C8BF06EE10CA40F38185BC
:10574800B8EEC66A062D83ED056A3DF4E9AC91ED25
:10575800186ADDED123A26EE866AB0EE454AA7EEE3
:10576800A36AA4EE864AB4EEC47AF1EE10FA00F306
:105778004486BDEEC46A16EE102A9445C8BF06EEEC
:1057880010CA40F33B86B8EEC66A072D83ED066A59
:105798003DF4C6AC91ED1C6ADDED133A66EE866AFF
:1057A800E7EEA36AA4EEA65AB4EEC57AF1EE10FAB3
:1057B80008DCFDEEC57A17EE902A94453EF711A84D
:1057C80017EE90CA15EE902A9445A8BF9446FEF7A6
:1057D80008B807EE102AFDF7A2BE07EE102AFDF75B
:1057E8005EBC0699C4F8A819FEF7A4BA0699C4F8CD
:1057F800B019FCF79FBD07EE102AFDF7B1BEDBF824
:10580800F430069AD31AFEF7E1BA37EEE66AF0EEFC
:10581800667AB3E4DBF8F430069AD31A59E407EE53
:10582800102AFDF75CBC0323CBF8A430FCF722BC9C
:1058380007EE102AFDF7B5BEBC39002091ED006ACD
:10584800DDED0C3A26EE866AB0EE454AA7EEA36A6D
:10585800A4EE864AB4EEC47AF1EE10FA00F32F8370
:10586800BDEEC46A16EE103A9C45C8BF06EE10CAD3
:1058780040F32683B8EEC66A744B012D83ED006AA7
:105888003DF44EAC91ED046ADDED0D3A26EE866AE4
:10589800B0EE454AA7EEA36AA4EE864AB4EEC47AEF
:1058A800F1EE10FA00F33483BDEEC46A16EE102A46
:1058B8009445C8BF06EE10CA40F32B83B8EEC66AFB
:1058C800022D83ED016A3DF42BAC91ED086ADDED04
:1058D8000E3A26EE866AB0EE454AA7EEA36AA4EE13
:1058E800864AB4EEC47AF1EE10FA00F33E83BDEEB8
:1058F800C46A16EE102A9445C8BF06EE10CA40F3D3
:105908003583B8EEC66A032D83ED026A3DF408AC10
:1059180091ED0C6ADDED0F3A26EE866AB0EE454A47
:10592800A7EEA36AA4EE864AB4EEC47AF1EE10FAA2
:1059380000F30585BDEEC46A16EE102A9445C8BF6B
:1059480006EE10CA40F3FC84B8EEC66A042D83ED57
:10595800036A3DF4E5AB91ED106ADDED103A26EEF1
:10596800866AB0EE454AA7EEA36AA4EE864AB4EE6C
:10597800C47AF1EE10FA00F34E85BDEEC46A16EE55
:10598800102A9445C8BF06EE10CA40F34585B8EE04
:10599800C66A052D83ED046A3DF4C2AB91ED146A25
:1059A800DDED113A26EE866AB0EE454AA7EEA36A07
:1059B800A4EE864AB4EEC47AF1EE10FA00F34785F5
:1059C800BDEEC46A16EE102A9445C8BF06EE10CA8A
:1059D80040F33E85B8EEC66A062D83ED056A3DF4B0
:1059E8009FAB91ED186ADDED123A26EE866AB0EEAD
:1059F800454AA7EEA36AA4EE864AB4EEC47AF1EE4D
:105A080010FA00F33A85BDEEC46A16EE102A9445E2
:105A1800C8BF06EE10CA40F33185B8EEC66A072D36
:105A280083ED066A3DF47CAB91ED1C6ADDED133A1B
:105A380066EE866AE7EEA36AA4EEA65AB4EEC57AC5
:105A4800F1EE10FA3FF7BEAEB3E600BFBC39002056
:105A5800002B00F0938291ED006ADDED0C3A26EE02
:105A6800866AB0EE454AA7EEA36AA4EE864AB0EE6F
:105A7800446A002F00F03685B4EEC47AF1EE10FACD
:105A880040F33085634615EE902A9342A8BF13462B
:105A980006EE103AB8EEC66AF04B012D83ED006AA7
:105AA8003DF43EAB91ED046ADDED0D3A26EE866AD3
:105AB800B0EE454AA7EEA36AA4EE864AB0EE446A61
:105AC800002F00F01F85B4EEC47AF1EE10FA40F30F
